{
	"data": {
		"bytecode": {
			"linkReferences": {},
			"object": "6080604052348015600e575f80fd5b50616d9a8061001c5f395ff3fe608060405234801561000f575f80fd5b5060043610610376575f3560e01c80637f1e06be116101d1578063c37f68e211610102578063f3fdb15a116100a0578063f851a4401161007a578063f851a44014610b15578063f8f9da2814610b33578063fca7820b14610b51578063fe9c44ae14610b8157610376565b8063f3fdb15a14610aab578063f46901ed14610ac9578063f5e3c46214610ae557610376565b8063db006a75116100dc578063db006a75146109fd578063dd62ed3e14610a2d578063e9c714f214610a5d578063f2b3abbd14610a7b57610376565b8063c37f68e21461097e578063c5ebeaec146109b1578063cb477964146109e157610376565b8063a6afed951161016f578063ae9d70b011610149578063ae9d70b0146108e2578063b2a02ff114610900578063b71d1a0c14610930578063bd6d894d1461096057610376565b8063a6afed9514610876578063a9059cbb14610894578063aa5af0fd146108c457610376565b806395d89b41116101ab57806395d89b41146107dc57806395dd9193146107fa57806399d8c1b41461082a578063a0712d681461084657610376565b80637f1e06be14610772578063852a12e31461078e5780638f840ddd146107be57610376565b8063313ce567116102ab578063601a0bf1116102495780636c540baf116102235780636c540baf146106e85780636f307dc31461070657806370a082311461072457806373acee981461075457610376565b8063601a0bf11461067c5780636752e702146106ac57806369ab3250146106ca57610376565b80633e941010116102855780633e941010146105e05780634576b5db1461061057806347bd3718146106405780635fe3b5671461065e57610376565b8063313ce567146105745780633af9e669146105925780633b1d21a2146105c257610376565b806318160ddd116103185780631be19560116102f25780631be19560146104da57806323b872dd146104f65780632608f81814610526578063267822471461055657610376565b806318160ddd14610482578063182df0f5146104a05780631a31d465146104be57610376565b80630e752702116103545780630e752702146103e657806313966db514610416578063173b99041461043457806317bfdfbc1461045257610376565b8063017e7e581461037a57806306fdde0314610398578063095ea7b3146103b6575b5f80fd5b610382610b9f565b60405161038f9190615289565b60405180910390f35b6103a0610bc4565b6040516103ad9190615312565b60405180910390f35b6103d060048036038101906103cb91906153a0565b610c50565b6040516103dd91906153f8565b60405180910390f35b61040060048036038101906103fb9190615411565b610d42565b60405161040d919061544b565b60405180910390f35b61041e610d54565b60405161042b919061544b565b60405180910390f35b61043c610d5a565b604051610449919061544b565b60405180910390f35b61046c60048036038101906104679190615464565b610d60565b604051610479919061544b565b60405180910390f35b61048a610df8565b604051610497919061544b565b60405180910390f35b6104a8610dfe565b6040516104b5919061544b565b60405180910390f35b6104d860048036038101906104d39190615667565b610e0c565b005b6104f460048036038101906104ef9190615777565b610ef2565b005b610510600480360381019061050b91906157a2565b61111a565b60405161051d91906153f8565b60405180910390f35b610540600480360381019061053b91906153a0565b6111b0565b60405161054d919061544b565b60405180910390f35b61055e6111c4565b60405161056b9190615812565b60405180910390f35b61057c6111e9565b604051610589919061583a565b60405180910390f35b6105ac60048036038101906105a79190615464565b6111fb565b6040516105b9919061544b565b60405180910390f35b6105ca611264565b6040516105d7919061544b565b60405180910390f35b6105fa60048036038101906105f59190615411565b611272565b604051610607919061544b565b60405180910390f35b61062a60048036038101906106259190615853565b611283565b604051610637919061544b565b60405180910390f35b61064861145d565b604051610655919061544b565b60405180910390f35b610666611463565b60405161067391906158d9565b60405180910390f35b61069660048036038101906106919190615411565b611488565b6040516106a3919061544b565b60405180910390f35b6106b4611520565b6040516106c1919061544b565b60405180910390f35b6106d261152b565b6040516106df919061544b565b60405180910390f35b6106f061152f565b6040516106fd919061544b565b60405180910390f35b61070e611535565b60405161071b9190615289565b60405180910390f35b61073e60048036038101906107399190615464565b61155a565b60405161074b919061544b565b60405180910390f35b61075c6115a0565b604051610769919061544b565b60405180910390f35b61078c60048036038101906107879190615464565b611630565b005b6107a860048036038101906107a39190615411565b61174a565b6040516107b5919061544b565b60405180910390f35b6107c661175c565b6040516107d3919061544b565b60405180910390f35b6107e4611762565b6040516107f19190615312565b60405180910390f35b610814600480360381019061080f9190615464565b6117ee565b604051610821919061544b565b60405180910390f35b610844600480360381019061083f91906158f2565b6117ff565b005b610860600480360381019061085b9190615411565b611a3f565b60405161086d919061544b565b60405180910390f35b61087e611a94565b60405161088b919061544b565b60405180910390f35b6108ae60048036038101906108a991906153a0565b611c9c565b6040516108bb91906153f8565b60405180910390f35b6108cc611d31565b6040516108d9919061544b565b60405180910390f35b6108ea611d37565b6040516108f7919061544b565b60405180910390f35b61091a600480360381019061091591906157a2565b611de9565b604051610927919061544b565b60405180910390f35b61094a600480360381019061094591906159dd565b611e7e565b604051610957919061544b565b60405180910390f35b610968611fad565b604051610975919061544b565b60405180910390f35b61099860048036038101906109939190615464565b612042565b6040516109a89493929190615a08565b60405180910390f35b6109cb60048036038101906109c69190615411565b6120a5565b6040516109d8919061544b565b60405180910390f35b6109fb60048036038101906109f691906153a0565b6120b7565b005b610a176004803603810190610a129190615411565b6121cb565b604051610a24919061544b565b60405180910390f35b610a476004803603810190610a429190615a4b565b6121dd565b604051610a54919061544b565b60405180910390f35b610a6561225f565b604051610a72919061544b565b60405180910390f35b610a956004803603810190610a909190615a89565b6124c8565b604051610aa2919061544b565b60405180910390f35b610ab36124e2565b604051610ac09190615ad4565b60405180910390f35b610ae36004803603810190610ade9190615464565b612507565b005b610aff6004803603810190610afa9190615b28565b6125da565b604051610b0c919061544b565b60405180910390f35b610b1d6125f0565b604051610b2a9190615812565b60405180910390f35b610b3b612616565b604051610b48919061544b565b60405180910390f35b610b6b6004803603810190610b669190615411565b6126c4565b604051610b78919061544b565b60405180910390f35b610b8961275c565b604051610b9691906153f8565b60405180910390f35b60125f9054906101000a900473ffffffffffffffffffffffffffffffffffffffff1681565b60018054610bd190615ba5565b80601f0160208091040260200160405190810160405280929190818152602001828054610bfd90615ba5565b8015610c485780601f10610c1f57610100808354040283529160200191610c48565b820191905f5260205f20905b815481529060010190602001808311610c2b57829003601f168201915b505050505081565b5f8033905082600f5f8373ffffffffffffffffffffffffffffffffffffffff1673ffffffffffffffffffffffffffffffffffffffff1681526020019081526020015f205f8673ffffffffffffffffffffffffffffffffffffffff1673ffffffffffffffffffffffffffffffffffffffff1681526020019081526020015f20819055508373ffffffffffffffffffffffffffffffffffffffff168173ffffffffffffffffffffffffffffffffffffffff167f8c5be1e5ebec7d5bd14f71427d1e84f3dd0314c0f7b2291e5b200ac8c7c3b92585604051610d2f919061544b565b60405180910390a3600191505092915050565b5f610d4c82612761565b5f9050919050565b60135481565b60085481565b5f805f9054906101000a900460ff16610dae576040517f08c379a0000000000000000000000000000000000000000000000000000000008152600401610da590615c1f565b60405180910390fd5b5f805f6101000a81548160ff021916908315150217905550610dce611a94565b50610dd8826117ee565b905060015f806101000a81548160ff021916908315150217905550919050565b600d5481565b5f610e076127f6565b905090565b610e1a8686868686866117ff565b8660115f6101000a81548173ffffffffffffffffffffffffffffffffffffffff021916908373ffffffffffffffffffffffffffffffffffffffff16021790555060115f9054906101000a900473ffffffffffffffffffffffffffffffffffffffff1673ffffffffffffffffffffffffffffffffffffffff166318160ddd6040518163ffffffff1660e01b8152600401602060405180830381865afa158015610ec4573d5f803e3d5ffd5b505050506040513d601f19601f82011682018060405250810190610ee89190615c51565b5050505050505050565b600360019054906101000a900473ffffffffffffffffffffffffffffffffffffffff1673ffffffffffffffffffffffffffffffffffffffff163373ffffffffffffffffffffffffffffffffffffffff1614610f82576040517f08c379a0000000000000000000000000000000000000000000000000000000008152600401610f7990615cec565b60405180910390fd5b60115f9054906101000a900473ffffffffffffffffffffffffffffffffffffffff1673ffffffffffffffffffffffffffffffffffffffff168173ffffffffffffffffffffffffffffffffffffffff1603611011576040517f08c379a000000000000000000000000000000000000000000000000000000000815260040161100890615d7a565b60405180910390fd5b5f8173ffffffffffffffffffffffffffffffffffffffff166370a08231306040518263ffffffff1660e01b815260040161104b9190615289565b602060405180830381865afa158015611066573d5f803e3d5ffd5b505050506040513d601f19601f8201168201806040525081019061108a9190615c51565b90508173ffffffffffffffffffffffffffffffffffffffff1663a9059cbb600360019054906101000a900473ffffffffffffffffffffffffffffffffffffffff16836040518363ffffffff1660e01b81526004016110e9929190615db8565b5f604051808303815f87803b158015611100575f80fd5b505af1158015611112573d5f803e3d5ffd5b505050505050565b5f805f9054906101000a900460ff16611168576040517f08c379a000000000000000000000000000000000000000000000000000000000815260040161115f90615c1f565b60405180910390fd5b5f805f6101000a81548160ff0219169083151502179055505f61118d33868686612865565b14905060015f806101000a81548160ff0219169083151502179055509392505050565b5f6111bb8383612ccf565b5f905092915050565b60045f9054906101000a900473ffffffffffffffffffffffffffffffffffffffff1681565b60035f9054906101000a900460ff1681565b5f806040518060200160405280611210611fad565b815250905061125c81600e5f8673ffffffffffffffffffffffffffffffffffffffff1673ffffffffffffffffffffffffffffffffffffffff1681526020019081526020015f2054612d65565b915050919050565b5f61126d612d85565b905090565b5f61127c82612e29565b9050919050565b5f600360019054906101000a900473ffffffffffffffffffffffffffffffffffffffff1673ffffffffffffffffffffffffffffffffffffffff163373ffffffffffffffffffffffffffffffffffffffff161461130b576040517fd219dc1f00000000000000000000000000000000000000000000000000000000815260040160405180910390fd5b5f60055f9054906101000a900473ffffffffffffffffffffffffffffffffffffffff1690508273ffffffffffffffffffffffffffffffffffffffff16627e3dd26040518163ffffffff1660e01b8152600401602060405180830381865afa158015611378573d5f803e3d5ffd5b505050506040513d601f19601f8201168201806040525081019061139c9190615e09565b6113db576040517f08c379a00000000000000000000000000000000000000000000000000000000081526004016113d290615e7e565b60405180910390fd5b8260055f6101000a81548173ffffffffffffffffffffffffffffffffffffffff021916908373ffffffffffffffffffffffffffffffffffffffff1602179055507f7ac369dbd14fa5ea3f473ed67cc9d598964a77501540ba6751eb0b3decf5870d818460405161144c929190615e9c565b60405180910390a15f915050919050565b600b5481565b60055f9054906101000a900473ffffffffffffffffffffffffffffffffffffffff1681565b5f805f9054906101000a900460ff166114d6576040517f08c379a00000000000000000000000000000000000000000000000000000000081526004016114cd90615c1f565b60405180910390fd5b5f805f6101000a81548160ff0219169083151502179055506114f6611a94565b5061150082612ec4565b905060015f806101000a81548160ff021916908315150217905550919050565b666379da05b6000081565b5f81565b60095481565b60115f9054906101000a900473ffffffffffffffffffffffffffffffffffffffff1681565b5f600e5f8373ffffffffffffffffffffffffffffffffffffffff1673ffffffffffffffffffffffffffffffffffffffff1681526020019081526020015f20549050919050565b5f805f9054906101000a900460ff166115ee576040517f08c379a00000000000000000000000000000000000000000000000000000000081526004016115e590615c1f565b60405180910390fd5b5f805f6101000a81548160ff02191690831515021790555061160e611a94565b50600b54905060015f806101000a81548160ff02191690831515021790555090565b600360019054906101000a900473ffffffffffffffffffffffffffffffffffffffff1673ffffffffffffffffffffffffffffffffffffffff163373ffffffffffffffffffffffffffffffffffffffff16146116c0576040517f08c379a00000000000000000000000000000000000000000000000000000000081526004016116b790615f33565b60405180910390fd5b60115f9054906101000a900473ffffffffffffffffffffffffffffffffffffffff1673ffffffffffffffffffffffffffffffffffffffff16635c19a95c826040518263ffffffff1660e01b815260040161171a9190615289565b5f604051808303815f87803b158015611731575f80fd5b505af1158015611743573d5f803e3d5ffd5b5050505050565b5f611754826130b5565b5f9050919050565b600c5481565b6002805461176f90615ba5565b80601f016020809104026020016040519081016040528092919081815260200182805461179b90615ba5565b80156117e65780601f106117bd576101008083540402835291602001916117e6565b820191905f5260205f20905b8154815290600101906020018083116117c957829003601f168201915b505050505081565b5f6117f882613149565b9050919050565b600360019054906101000a900473ffffffffffffffffffffffffffffffffffffffff1673ffffffffffffffffffffffffffffffffffffffff163373ffffffffffffffffffffffffffffffffffffffff161461188f576040517f08c379a000000000000000000000000000000000000000000000000000000000815260040161188690615fc1565b60405180910390fd5b5f6009541480156118a157505f600a54145b6118e0576040517f08c379a00000000000000000000000000000000000000000000000000000000081526004016118d79061604f565b60405180910390fd5b836007819055505f6007541161192b576040517f08c379a0000000000000000000000000000000000000000000000000000000008152600401611922906160dd565b60405180910390fd5b5f61193587611283565b90505f8114611979576040517f08c379a000000000000000000000000000000000000000000000000000000000815260040161197090616145565b60405180910390fd5b6119816131cb565b600981905550670de0b6b3a7640000600a8190555061199f866131d2565b90505f81146119e3576040517f08c379a00000000000000000000000000000000000000000000000000000000081526004016119da906161d3565b60405180910390fd5b83600190816119f29190616385565b508260029081611a029190616385565b508160035f6101000a81548160ff021916908360ff16021790555060015f806101000a81548160ff02191690831515021790555050505050505050565b5f611a8360115f9054906101000a900473ffffffffffffffffffffffffffffffffffffffff166002600585611a749190616481565b611a7e91906164ef565b6120b7565b611a8c826133ef565b5f9050919050565b5f80611a9e6131cb565b90505f6009549050818103611ab7575f92505050611c99565b5f611ac0612d85565b90505f600b5490505f600c5490505f600a5490505f60065f9054906101000a900473ffffffffffffffffffffffffffffffffffffffff1673ffffffffffffffffffffffffffffffffffffffff166315f240538686866040518463ffffffff1660e01b8152600401611b339392919061651f565b602060405180830381865afa158015611b4e573d5f803e3d5ffd5b505050506040513d601f19601f82011682018060405250810190611b729190615c51565b905065048c27395000811115611bbd576040517f08c379a0000000000000000000000000000000000000000000000000000000008152600401611bb49061659e565b60405180910390fd5b5f8688611bca91906165bc565b90505f611be560405180602001604052808581525083613482565b90505f611bf28288612d65565b90505f8782611c0191906165ef565b90505f611c1f6040518060200160405280600854815250848a6134ad565b90505f611c2d85898a6134ad565b90508c60098190555080600a8190555082600b8190555081600c819055507f4dec04e750ca11537cabcd8a9eab06494de08da3735bc8871cd41250e190bc048b858386604051611c809493929190615a08565b60405180910390a15f9d50505050505050505050505050505b90565b5f805f9054906101000a900460ff16611cea576040517f08c379a0000000000000000000000000000000000000000000000000000000008152600401611ce190615c1f565b60405180910390fd5b5f805f6101000a81548160ff0219169083151502179055505f611d0f33338686612865565b14905060015f806101000a81548160ff02191690831515021790555092915050565b600a5481565b5f60065f9054906101000a900473ffffffffffffffffffffffffffffffffffffffff1673ffffffffffffffffffffffffffffffffffffffff1663b8168816611d7d612d85565b600b54600c546008546040518563ffffffff1660e01b8152600401611da59493929190615a08565b602060405180830381865afa158015611dc0573d5f803e3d5ffd5b505050506040513d601f19601f82011682018060405250810190611de49190615c51565b905090565b5f805f9054906101000a900460ff16611e37576040517f08c379a0000000000000000000000000000000000000000000000000000000008152600401611e2e90615c1f565b60405180910390fd5b5f805f6101000a81548160ff021916908315150217905550611e5b338585856134d7565b5f905060015f806101000a81548160ff0219169083151502179055509392505050565b5f600360019054906101000a900473ffffffffffffffffffffffffffffffffffffffff1673ffffffffffffffffffffffffffffffffffffffff163373ffffffffffffffffffffffffffffffffffffffff1614611f06576040517f5cb56c2b00000000000000000000000000000000000000000000000000000000815260040160405180910390fd5b5f60045f9054906101000a900473ffffffffffffffffffffffffffffffffffffffff1690508260045f6101000a81548173ffffffffffffffffffffffffffffffffffffffff021916908373ffffffffffffffffffffffffffffffffffffffff1602179055507fca4f2f25d0898edd99413412fb94012f9e54ec8142f9b093e7720646a95b16a98184604051611f9c929190616622565b60405180910390a15f915050919050565b5f805f9054906101000a900460ff16611ffb576040517f08c379a0000000000000000000000000000000000000000000000000000000008152600401611ff290615c1f565b60405180910390fd5b5f805f6101000a81548160ff02191690831515021790555061201b611a94565b50612024610dfe565b905060015f806101000a81548160ff02191690831515021790555090565b5f805f805f600e5f8773ffffffffffffffffffffffffffffffffffffffff1673ffffffffffffffffffffffffffffffffffffffff1681526020019081526020015f205461208e87613149565b6120966127f6565b93509350935093509193509193565b5f6120af826138cd565b5f9050919050565b5f8290508273ffffffffffffffffffffffffffffffffffffffff168173ffffffffffffffffffffffffffffffffffffffff1614612129576040517f08c379a0000000000000000000000000000000000000000000000000000000008152600401612120906166b9565b60405180910390fd5b8073ffffffffffffffffffffffffffffffffffffffff1663a9059cbb60125f9054906101000a900473ffffffffffffffffffffffffffffffffffffffff16846040518363ffffffff1660e01b81526004016121859291906166d7565b6020604051808303815f875af11580156121a1573d5f803e3d5ffd5b505050506040513d601f19601f820116820180604052508101906121c59190615e09565b50505050565b5f6121d582613960565b5f9050919050565b5f600f5f8473ffffffffffffffffffffffffffffffffffffffff1673ffffffffffffffffffffffffffffffffffffffff1681526020019081526020015f205f8373ffffffffffffffffffffffffffffffffffffffff1673ffffffffffffffffffffffffffffffffffffffff1681526020019081526020015f2054905092915050565b5f60045f9054906101000a900473ffffffffffffffffffffffffffffffffffffffff1673ffffffffffffffffffffffffffffffffffffffff163373ffffffffffffffffffffffffffffffffffffffff161415806122e757505f73ffffffffffffffffffffffffffffffffffffffff163373ffffffffffffffffffffffffffffffffffffffff16145b1561231e576040517f6e893ca400000000000000000000000000000000000000000000000000000000815260040160405180910390fd5b5f600360019054906101000a900473ffffffffffffffffffffffffffffffffffffffff1690505f60045f9054906101000a900473ffffffffffffffffffffffffffffffffffffffff16905060045f9054906101000a900473ffffffffffffffffffffffffffffffffffffffff16600360016101000a81548173ffffffffffffffffffffffffffffffffffffffff021916908373ffffffffffffffffffffffffffffffffffffffff1602179055505f60045f6101000a81548173ffffffffffffffffffffffffffffffffffffffff021916908373ffffffffffffffffffffffffffffffffffffffff1602179055507ff9ffabca9c8276e99321725bcb43fb076a6c66a54b7f21c4e8146d8519b417dc82600360019054906101000a900473ffffffffffffffffffffffffffffffffffffffff1660405161245e929190616622565b60405180910390a17fca4f2f25d0898edd99413412fb94012f9e54ec8142f9b093e7720646a95b16a98160045f9054906101000a900473ffffffffffffffffffffffffffffffffffffffff166040516124b8929190616622565b60405180910390a15f9250505090565b5f6124d1611a94565b506124db826131d2565b9050919050565b60065f9054906101000a900473ffffffffffffffffffffffffffffffffffffffff1681565b600360019054906101000a900473ffffffffffffffffffffffffffffffffffffffff1673ffffffffffffffffffffffffffffffffffffffff163373ffffffffffffffffffffffffffffffffffffffff1614612597576040517f08c379a000000000000000000000000000000000000000000000000000000000815260040161258e9061676e565b60405180910390fd5b8060125f6101000a81548173ffffffffffffffffffffffffffffffffffffffff021916908373ffffffffffffffffffffffffffffffffffffffff16021790555050565b5f6125e68484846139f4565b5f90509392505050565b600360019054906101000a900473ffffffffffffffffffffffffffffffffffffffff1681565b5f60065f9054906101000a900473ffffffffffffffffffffffffffffffffffffffff1673ffffffffffffffffffffffffffffffffffffffff166315f2405361265c612d85565b600b54600c546040518463ffffffff1660e01b81526004016126809392919061651f565b602060405180830381865afa15801561269b573d5f803e3d5ffd5b505050506040513d601f19601f820116820180604052508101906126bf9190615c51565b905090565b5f805f9054906101000a900460ff16612712576040517f08c379a000000000000000000000000000000000000000000000000000000000815260040161270990615c1f565b60405180910390fd5b5f805f6101000a81548160ff021916908315150217905550612732611a94565b5061273c82613b41565b905060015f806101000a81548160ff021916908315150217905550919050565b600181565b5f8054906101000a900460ff166127ad576040517f08c379a00000000000000000000000000000000000000000000000000000000081526004016127a490615c1f565b60405180910390fd5b5f805f6101000a81548160ff0219169083151502179055506127cd611a94565b506127d9333383613c9c565b5060015f806101000a81548160ff02191690831515021790555050565b5f80600d5490505f810361280f57600754915050612862565b5f612818612d85565b90505f600c54600b548361282c91906165ef565b61283691906165bc565b90505f83670de0b6b3a76400008361284e9190616481565b61285891906164ef565b9050809450505050505b90565b5f8060055f9054906101000a900473ffffffffffffffffffffffffffffffffffffffff1673ffffffffffffffffffffffffffffffffffffffff1663bdcdc258308787876040518563ffffffff1660e01b81526004016128c7949392919061678c565b6020604051808303815f875af11580156128e3573d5f803e3d5ffd5b505050506040513d601f19601f820116820180604052508101906129079190615c51565b90505f811461294d57806040517f113a84ee000000000000000000000000000000000000000000000000000000008152600401612944919061544b565b60405180910390fd5b8373ffffffffffffffffffffffffffffffffffffffff168573ffffffffffffffffffffffffffffffffffffffff16036129b2576040517f8cd22d1900000000000000000000000000000000000000000000000000000000815260040160405180910390fd5b5f8573ffffffffffffffffffffffffffffffffffffffff168773ffffffffffffffffffffffffffffffffffffffff1603612a0e577fffffffffffffffffffffffffffffffffffffffffffffffffffffffffffffffff9050612a8a565b600f5f8773ffffffffffffffffffffffffffffffffffffffff1673ffffffffffffffffffffffffffffffffffffffff1681526020019081526020015f205f8873ffffffffffffffffffffffffffffffffffffffff1673ffffffffffffffffffffffffffffffffffffffff1681526020019081526020015f205490505b5f8482612a9791906165bc565b90505f85600e5f8a73ffffffffffffffffffffffffffffffffffffffff1673ffffffffffffffffffffffffffffffffffffffff1681526020019081526020015f2054612ae391906165bc565b90505f86600e5f8a73ffffffffffffffffffffffffffffffffffffffff1673ffffffffffffffffffffffffffffffffffffffff1681526020019081526020015f2054612b2f91906165ef565b905081600e5f8b73ffffffffffffffffffffffffffffffffffffffff1673ffffffffffffffffffffffffffffffffffffffff1681526020019081526020015f208190555080600e5f8a73ffffffffffffffffffffffffffffffffffffffff1673ffffffffffffffffffffffffffffffffffffffff1681526020019081526020015f20819055507fffffffffffffffffffffffffffffffffffffffffffffffffffffffffffffffff8414612c5a5782600f5f8b73ffffffffffffffffffffffffffffffffffffffff1673ffffffffffffffffffffffffffffffffffffffff1681526020019081526020015f205f8c73ffffffffffffffffffffffffffffffffffffffff1673ffffffffffffffffffffffffffffffffffffffff1681526020019081526020015f20819055505b8773ffffffffffffffffffffffffffffffffffffffff168973ffffffffffffffffffffffffffffffffffffffff167fddf252ad1be2c89b69c2b068fc378daa952ba7f163c4a11628f55a4df523b3ef89604051612cb7919061544b565b60405180910390a35f95505050505050949350505050565b5f8054906101000a900460ff16612d1b576040517f08c379a0000000000000000000000000000000000000000000000000000000008152600401612d1290615c1f565b60405180910390fd5b5f805f6101000a81548160ff021916908315150217905550612d3b611a94565b50612d47338383613c9c565b5060015f806101000a81548160ff0219169083151502179055505050565b5f80612d718484613482565b9050612d7c81613f12565b91505092915050565b5f8060115f9054906101000a900473ffffffffffffffffffffffffffffffffffffffff1690508073ffffffffffffffffffffffffffffffffffffffff166370a08231306040518263ffffffff1660e01b8152600401612de49190615289565b602060405180830381865afa158015612dff573d5f803e3d5ffd5b505050506040513d601f19601f82011682018060405250810190612e239190615c51565b91505090565b5f805f9054906101000a900460ff16612e77576040517f08c379a0000000000000000000000000000000000000000000000000000000008152600401612e6e90615c1f565b60405180910390fd5b5f805f6101000a81548160ff021916908315150217905550612e97611a94565b50612ea182613f31565b50505f905060015f806101000a81548160ff021916908315150217905550919050565b5f80600360019054906101000a900473ffffffffffffffffffffffffffffffffffffffff1673ffffffffffffffffffffffffffffffffffffffff163373ffffffffffffffffffffffffffffffffffffffff1614612f4d576040517ff7e5e6d000000000000000000000000000000000000000000000000000000000815260040160405180910390fd5b612f556131cb565b60095414612f8f576040517fdff50cb000000000000000000000000000000000000000000000000000000000815260040160405180910390fd5b82612f98612d85565b1015612fd0576040517f3345e99900000000000000000000000000000000000000000000000000000000815260040160405180910390fd5b600c5483111561300c576040517ff1a5300a00000000000000000000000000000000000000000000000000000000815260040160405180910390fd5b82600c5461301a91906165bc565b905080600c8190555061304f600360019054906101000a900473ffffffffffffffffffffffffffffffffffffffff1684613fed565b7f3bad0c59cf2f06e7314077049f48a93578cd16f5ef92329f1dab1420a99c177e600360019054906101000a900473ffffffffffffffffffffffffffffffffffffffff1684836040516130a4939291906167cf565b60405180910390a15f915050919050565b5f8054906101000a900460ff16613101576040517f08c379a00000000000000000000000000000000000000000000000000000000081526004016130f890615c1f565b60405180910390fd5b5f805f6101000a81548160ff021916908315150217905550613121611a94565b5061312d335f836140e9565b60015f806101000a81548160ff02191690831515021790555050565b5f8060105f8473ffffffffffffffffffffffffffffffffffffffff1673ffffffffffffffffffffffffffffffffffffffff1681526020019081526020015f2090505f815f01540361319d575f9150506131c6565b5f600a54825f01546131af9190616481565b90508160010154816131c191906164ef565b925050505b919050565b5f43905090565b5f80600360019054906101000a900473ffffffffffffffffffffffffffffffffffffffff1673ffffffffffffffffffffffffffffffffffffffff163373ffffffffffffffffffffffffffffffffffffffff161461325b576040517f407fded500000000000000000000000000000000000000000000000000000000815260040160405180910390fd5b6132636131cb565b6009541461329d576040517f17c54b9600000000000000000000000000000000000000000000000000000000815260040160405180910390fd5b60065f9054906101000a900473ffffffffffffffffffffffffffffffffffffffff1690508273ffffffffffffffffffffffffffffffffffffffff16632191f92a6040518163ffffffff1660e01b8152600401602060405180830381865afa15801561330a573d5f803e3d5ffd5b505050506040513d601f19601f8201168201806040525081019061332e9190615e09565b61336d576040517f08c379a000000000000000000000000000000000000000000000000000000000815260040161336490615e7e565b60405180910390fd5b8260065f6101000a81548173ffffffffffffffffffffffffffffffffffffffff021916908373ffffffffffffffffffffffffffffffffffffffff1602179055507fedffc32e068c7c95dfd4bdfd5c4d939a084d6b11c4199eac8436ed234d72f92681846040516133de929190616804565b60405180910390a15f915050919050565b5f8054906101000a900460ff1661343b576040517f08c379a000000000000000000000000000000000000000000000000000000000815260040161343290615c1f565b60405180910390fd5b5f805f6101000a81548160ff02191690831515021790555061345b611a94565b5061346633826144c2565b60015f806101000a81548160ff02191690831515021790555050565b61348a615238565b60405180602001604052806134a2855f015185614762565b815250905092915050565b5f806134b98585613482565b90506134cd6134c782613f12565b84614777565b9150509392505050565b5f60055f9054906101000a900473ffffffffffffffffffffffffffffffffffffffff1673ffffffffffffffffffffffffffffffffffffffff1663d02f735130878787876040518663ffffffff1660e01b815260040161353a95949392919061682b565b6020604051808303815f875af1158015613556573d5f803e3d5ffd5b505050506040513d601f19601f8201168201806040525081019061357a9190615c51565b90505f81146135c057806040517fc7c01c660000000000000000000000000000000000000000000000000000000081526004016135b7919061544b565b60405180910390fd5b8373ffffffffffffffffffffffffffffffffffffffff168373ffffffffffffffffffffffffffffffffffffffff1603613625576040517f7528c4ce00000000000000000000000000000000000000000000000000000000815260040160405180910390fd5b5f613645836040518060200160405280666379da05b6000081525061478c565b90505f818461365491906165bc565b90505f604051806020016040528061366a6127f6565b81525090505f61367a8285612d65565b90505f81600c5461368b91906165ef565b905080600c8190555084600d546136a291906165bc565b600d8190555086600e5f8a73ffffffffffffffffffffffffffffffffffffffff1673ffffffffffffffffffffffffffffffffffffffff1681526020019081526020015f20546136f191906165bc565b600e5f8a73ffffffffffffffffffffffffffffffffffffffff1673ffffffffffffffffffffffffffffffffffffffff1681526020019081526020015f208190555083600e5f8b73ffffffffffffffffffffffffffffffffffffffff1673ffffffffffffffffffffffffffffffffffffffff1681526020019081526020015f205461377b91906165ef565b600e5f8b73ffffffffffffffffffffffffffffffffffffffff1673ffffffffffffffffffffffffffffffffffffffff1681526020019081526020015f20819055508873ffffffffffffffffffffffffffffffffffffffff168873ffffffffffffffffffffffffffffffffffffffff167fddf252ad1be2c89b69c2b068fc378daa952ba7f163c4a11628f55a4df523b3ef86604051613819919061544b565b60405180910390a33073ffffffffffffffffffffffffffffffffffffffff168873ffffffffffffffffffffffffffffffffffffffff167fddf252ad1be2c89b69c2b068fc378daa952ba7f163c4a11628f55a4df523b3ef8760405161387e919061544b565b60405180910390a37fa91e67c5ea634cd43a12c5a482724b03de01e85ca68702a53d0c2f45cb7c1dc53083836040516138b99392919061687c565b60405180910390a150505050505050505050565b5f8054906101000a900460ff16613919576040517f08c379a000000000000000000000000000000000000000000000000000000000815260040161391090615c1f565b60405180910390fd5b5f805f6101000a81548160ff021916908315150217905550613939611a94565b5061394433826147b5565b60015f806101000a81548160ff02191690831515021790555050565b5f8054906101000a900460ff166139ac576040517f08c379a00000000000000000000000000000000000000000000000000000000081526004016139a390615c1f565b60405180910390fd5b5f805f6101000a81548160ff0219169083151502179055506139cc611a94565b506139d833825f6140e9565b60015f806101000a81548160ff02191690831515021790555050565b5f8054906101000a900460ff16613a40576040517f08c379a0000000000000000000000000000000000000000000000000000000008152600401613a3790615c1f565b60405180910390fd5b5f805f6101000a81548160ff021916908315150217905550613a60611a94565b505f8173ffffffffffffffffffffffffffffffffffffffff1663a6afed956040518163ffffffff1660e01b81526004016020604051808303815f875af1158015613aac573d5f803e3d5ffd5b505050506040513d601f19601f82011682018060405250810190613ad09190615c51565b90505f8114613b1657806040517f7dd4936e000000000000000000000000000000000000000000000000000000008152600401613b0d919061544b565b60405180910390fd5b613b2233858585614a2a565b5060015f806101000a81548160ff021916908315150217905550505050565b5f600360019054906101000a900473ffffffffffffffffffffffffffffffffffffffff1673ffffffffffffffffffffffffffffffffffffffff163373ffffffffffffffffffffffffffffffffffffffff1614613bc9576040517f240b6af600000000000000000000000000000000000000000000000000000000815260040160405180910390fd5b613bd16131cb565b60095414613c0b576040517ffbf94d6e00000000000000000000000000000000000000000000000000000000815260040160405180910390fd5b670de0b6b3a7640000821115613c4d576040517fe2e441e600000000000000000000000000000000000000000000000000000000815260040160405180910390fd5b5f6008549050826008819055507faaa68312e2ea9d50e16af5068410ab56e1a1fd06037b1a35664812c30f8214608184604051613c8b9291906168b1565b60405180910390a15f915050919050565b5f8060055f9054906101000a900473ffffffffffffffffffffffffffffffffffffffff1673ffffffffffffffffffffffffffffffffffffffff166324008a62308787876040518563ffffffff1660e01b8152600401613cfe949392919061678c565b6020604051808303815f875af1158015613d1a573d5f803e3d5ffd5b505050506040513d601f19601f82011682018060405250810190613d3e9190615c51565b90505f8114613d8457806040517f8c81362d000000000000000000000000000000000000000000000000000000008152600401613d7b919061544b565b60405180910390fd5b613d8c6131cb565b60095414613dc6576040517fc9021e2f00000000000000000000000000000000000000000000000000000000815260040160405180910390fd5b5f613dd085613149565b90505f7fffffffffffffffffffffffffffffffffffffffffffffffffffffffffffffffff8514613e005784613e02565b815b90505f613e0f8883614ff0565b90505f8184613e1e91906165bc565b90505f82600b54613e2f91906165bc565b90508160105f8b73ffffffffffffffffffffffffffffffffffffffff1673ffffffffffffffffffffffffffffffffffffffff1681526020019081526020015f205f0181905550600a5460105f8b73ffffffffffffffffffffffffffffffffffffffff1673ffffffffffffffffffffffffffffffffffffffff1681526020019081526020015f206001018190555080600b819055507f1a2a22cb034d26d1854bdc6666a5b91fe25efbbb5dcad3b0355478d6f5c362a18a8a858585604051613efa9594939291906168d8565b60405180910390a18296505050505050509392505050565b5f670de0b6b3a7640000825f0151613f2a91906164ef565b9050919050565b5f805f80613f3d6131cb565b60095414613f8257806040517f38acf799000000000000000000000000000000000000000000000000000000008152600401613f79919061544b565b60405180910390fd5b613f8c3386614ff0565b905080600c54613f9c91906165ef565b915081600c819055507fa91e67c5ea634cd43a12c5a482724b03de01e85ca68702a53d0c2f45cb7c1dc5338284604051613fd89392919061687c565b60405180910390a15f81935093505050915091565b5f60115f9054906101000a900473ffffffffffffffffffffffffffffffffffffffff1690508073ffffffffffffffffffffffffffffffffffffffff1663a9059cbb84846040518363ffffffff1660e01b815260040161404d929190615db8565b5f604051808303815f87803b158015614064575f80fd5b505af1158015614076573d5f803e3d5ffd5b505050505f3d5f811461408f5760208114614098575f80fd5b5f1991506140a2565b60205f803e5f5191505b50806140e3576040517f08c379a00000000000000000000000000000000000000000000000000000000081526004016140da90616973565b60405180910390fd5b50505050565b5f8214806140f657505f81145b614135576040517f08c379a000000000000000000000000000000000000000000000000000000000815260040161412c90616a01565b60405180910390fd5b5f60405180602001604052806141496127f6565b81525090505f805f85111561416c578491506141658386612d65565b905061417c565b61417684846151fc565b91508390505b5f60055f9054906101000a900473ffffffffffffffffffffffffffffffffffffffff1673ffffffffffffffffffffffffffffffffffffffff1663eabe7d913089866040518463ffffffff1660e01b81526004016141db93929190616a1f565b6020604051808303815f875af11580156141f7573d5f803e3d5ffd5b505050506040513d601f19601f8201168201806040525081019061421b9190615c51565b90505f811461426157806040517f480f4247000000000000000000000000000000000000000000000000000000008152600401614258919061544b565b60405180910390fd5b6142696131cb565b600954146142a3576040517f97b5cfcd00000000000000000000000000000000000000000000000000000000815260040160405180910390fd5b816142ac612d85565b10156142e4576040517f91240a1b00000000000000000000000000000000000000000000000000000000815260040160405180910390fd5b82600d546142f291906165bc565b600d8190555082600e5f8973ffffffffffffffffffffffffffffffffffffffff1673ffffffffffffffffffffffffffffffffffffffff1681526020019081526020015f205461434191906165bc565b600e5f8973ffffffffffffffffffffffffffffffffffffffff1673ffffffffffffffffffffffffffffffffffffffff1681526020019081526020015f208190555061438c8783613fed565b3073ffffffffffffffffffffffffffffffffffffffff168773ffffffffffffffffffffffffffffffffffffffff167fddf252ad1be2c89b69c2b068fc378daa952ba7f163c4a11628f55a4df523b3ef856040516143e9919061544b565b60405180910390a37fe5b754fb1abb7f01b499791d0b820ae3b6af3424ac1c59768edb53f4ec31a929878385604051614424939291906167cf565b60405180910390a160055f9054906101000a900473ffffffffffffffffffffffffffffffffffffffff1673ffffffffffffffffffffffffffffffffffffffff166351dff989308985876040518563ffffffff1660e01b815260040161448c9493929190616a54565b5f604051808303815f87803b1580156144a3575f80fd5b505af11580156144b5573d5f803e3d5ffd5b5050505050505050505050565b5f60055f9054906101000a900473ffffffffffffffffffffffffffffffffffffffff1673ffffffffffffffffffffffffffffffffffffffff16634ef4c3e13085856040518463ffffffff1660e01b815260040161452193929190616a97565b6020604051808303815f875af115801561453d573d5f803e3d5ffd5b505050506040513d601f19601f820116820180604052508101906145619190615c51565b90505f81146145a757806040517f49abd4fd00000000000000000000000000000000000000000000000000000000815260040161459e919061544b565b60405180910390fd5b6145af6131cb565b600954146145e9576040517f38d8859700000000000000000000000000000000000000000000000000000000815260040160405180910390fd5b5f60405180602001604052806145fd6127f6565b81525090505f61460d8585614ff0565b90505f61461a82846151fc565b905080600d5461462a91906165ef565b600d8190555080600e5f8873ffffffffffffffffffffffffffffffffffffffff1673ffffffffffffffffffffffffffffffffffffffff1681526020019081526020015f205461467991906165ef565b600e5f8873ffffffffffffffffffffffffffffffffffffffff1673ffffffffffffffffffffffffffffffffffffffff1681526020019081526020015f20819055507f4c209b5fc8ad50758f13e2e1088ba56a560dff690a1c6fef26394f4c03821c4f8683836040516146ed9392919061687c565b60405180910390a18573ffffffffffffffffffffffffffffffffffffffff163073ffffffffffffffffffffffffffffffffffffffff167fddf252ad1be2c89b69c2b068fc378daa952ba7f163c4a11628f55a4df523b3ef83604051614752919061544b565b60405180910390a3505050505050565b5f818361476f9190616481565b905092915050565b5f818361478491906165ef565b905092915050565b5f670de0b6b3a76400006147a384845f0151614762565b6147ad91906164ef565b905092915050565b5f60055f9054906101000a900473ffffffffffffffffffffffffffffffffffffffff1673ffffffffffffffffffffffffffffffffffffffff1663da3d454c3085856040518463ffffffff1660e01b815260040161481493929190616a1f565b6020604051808303815f875af1158015614830573d5f803e3d5ffd5b505050506040513d601f19601f820116820180604052508101906148549190615c51565b90505f811461489a57806040517f918db40f000000000000000000000000000000000000000000000000000000008152600401614891919061544b565b60405180910390fd5b6148a26131cb565b600954146148dc576040517f3a36318400000000000000000000000000000000000000000000000000000000815260040160405180910390fd5b816148e5612d85565b101561491d576040517f48c2588100000000000000000000000000000000000000000000000000000000815260040160405180910390fd5b5f61492784613149565b90505f838261493691906165ef565b90505f84600b5461494791906165ef565b90508160105f8873ffffffffffffffffffffffffffffffffffffffff1673ffffffffffffffffffffffffffffffffffffffff1681526020019081526020015f205f0181905550600a5460105f8873ffffffffffffffffffffffffffffffffffffffff1673ffffffffffffffffffffffffffffffffffffffff1681526020019081526020015f206001018190555080600b819055506149e58686613fed565b7f13ed6866d4e1ee6da46f845c46d7e54120883d75c5ea9a2dacc1c4ca8984ab8086868484604051614a1a9493929190616acc565b60405180910390a1505050505050565b5f60055f9054906101000a900473ffffffffffffffffffffffffffffffffffffffff1673ffffffffffffffffffffffffffffffffffffffff16635fc7e71e30848888886040518663ffffffff1660e01b8152600401614a8d95949392919061682b565b6020604051808303815f875af1158015614aa9573d5f803e3d5ffd5b505050506040513d601f19601f82011682018060405250810190614acd9190615c51565b90505f8114614b1357806040517f1429a2f2000000000000000000000000000000000000000000000000000000008152600401614b0a919061544b565b60405180910390fd5b614b1b6131cb565b60095414614b55576040517f80965b1b00000000000000000000000000000000000000000000000000000000815260040160405180910390fd5b614b5d6131cb565b8273ffffffffffffffffffffffffffffffffffffffff16636c540baf6040518163ffffffff1660e01b8152600401602060405180830381865afa158015614ba6573d5f803e3d5ffd5b505050506040513d601f19601f82011682018060405250810190614bca9190615c51565b14614c01576040517f82379c6800000000000000000000000000000000000000000000000000000000815260040160405180910390fd5b8473ffffffffffffffffffffffffffffffffffffffff168473ffffffffffffffffffffffffffffffffffffffff1603614c66576040517f6f46988400000000000000000000000000000000000000000000000000000000815260040160405180910390fd5b5f8303614c9f576040517fd29da7ef00000000000000000000000000000000000000000000000000000000815260040160405180910390fd5b7fffffffffffffffffffffffffffffffffffffffffffffffffffffffffffffffff8303614cf8576040517fb3058b7600000000000000000000000000000000000000000000000000000000815260040160405180910390fd5b5f614d04868686613c9c565b90505f8060055f9054906101000a900473ffffffffffffffffffffffffffffffffffffffff1673ffffffffffffffffffffffffffffffffffffffff1663c488847b3087866040518463ffffffff1660e01b8152600401614d6693929190616a97565b6040805180830381865afa158015614d80573d5f803e3d5ffd5b505050506040513d601f19601f82011682018060405250810190614da49190616b0f565b915091505f8214614dea576040517f08c379a0000000000000000000000000000000000000000000000000000000008152600401614de190616bbd565b60405180910390fd5b808573ffffffffffffffffffffffffffffffffffffffff166370a08231896040518263ffffffff1660e01b8152600401614e249190615289565b602060405180830381865afa158015614e3f573d5f803e3d5ffd5b505050506040513d601f19601f82011682018060405250810190614e639190615c51565b1015614ea4576040517f08c379a0000000000000000000000000000000000000000000000000000000008152600401614e9b90616c25565b60405180910390fd5b3073ffffffffffffffffffffffffffffffffffffffff168573ffffffffffffffffffffffffffffffffffffffff1603614ee857614ee3308989846134d7565b614fa7565b5f8573ffffffffffffffffffffffffffffffffffffffff1663b2a02ff18a8a856040518463ffffffff1660e01b8152600401614f2693929190616a97565b6020604051808303815f875af1158015614f42573d5f803e3d5ffd5b505050506040513d601f19601f82011682018060405250810190614f669190615c51565b14614fa6576040517f08c379a0000000000000000000000000000000000000000000000000000000008152600401614f9d90616c8d565b60405180910390fd5b5b7f298637f684da70674f26509b10f07ec2fbc77a335ab1e7d6215a4b2484d8bb528888858885604051614fde959493929190616cab565b60405180910390a15050505050505050565b5f8060115f9054906101000a900473ffffffffffffffffffffffffffffffffffffffff1690505f8190505f8273ffffffffffffffffffffffffffffffffffffffff166370a08231306040518263ffffffff1660e01b81526004016150549190615289565b602060405180830381865afa15801561506f573d5f803e3d5ffd5b505050506040513d601f19601f820116820180604052508101906150939190615c51565b90508173ffffffffffffffffffffffffffffffffffffffff166323b872dd8730886040518463ffffffff1660e01b81526004016150d293929190616a97565b5f604051808303815f87803b1580156150e9575f80fd5b505af11580156150fb573d5f803e3d5ffd5b505050505f3d5f8114615114576020811461511d575f80fd5b5f199150615127565b60205f803e5f5191505b5080615168576040517f08c379a000000000000000000000000000000000000000000000000000000000815260040161515f90616d46565b60405180910390fd5b5f8473ffffffffffffffffffffffffffffffffffffffff166370a08231306040518263ffffffff1660e01b81526004016151a29190615289565b602060405180830381865afa1580156151bd573d5f803e3d5ffd5b505050506040513d601f19601f820116820180604052508101906151e19190615c51565b905082816151ef91906165bc565b9550505050505092915050565b5f61521b61521284670de0b6b3a7640000614762565b835f0151615223565b905092915050565b5f818361523091906164ef565b905092915050565b60405180602001604052805f81525090565b5f73ffffffffffffffffffffffffffffffffffffffff82169050919050565b5f6152738261524a565b9050919050565b61528381615269565b82525050565b5f60208201905061529c5f83018461527a565b92915050565b5f81519050919050565b5f82825260208201905092915050565b8281835e5f83830152505050565b5f601f19601f8301169050919050565b5f6152e4826152a2565b6152ee81856152ac565b93506152fe8185602086016152bc565b615307816152ca565b840191505092915050565b5f6020820190508181035f83015261532a81846152da565b905092915050565b5f604051905090565b5f80fd5b5f80fd5b61534c81615269565b8114615356575f80fd5b50565b5f8135905061536781615343565b92915050565b5f819050919050565b61537f8161536d565b8114615389575f80fd5b50565b5f8135905061539a81615376565b92915050565b5f80604083850312156153b6576153b561533b565b5b5f6153c385828601615359565b92505060206153d48582860161538c565b9150509250929050565b5f8115159050919050565b6153f2816153de565b82525050565b5f60208201905061540b5f8301846153e9565b92915050565b5f602082840312156154265761542561533b565b5b5f6154338482850161538c565b91505092915050565b6154458161536d565b82525050565b5f60208201905061545e5f83018461543c565b92915050565b5f602082840312156154795761547861533b565b5b5f61548684828501615359565b91505092915050565b5f61549982615269565b9050919050565b6154a98161548f565b81146154b3575f80fd5b50565b5f813590506154c4816154a0565b92915050565b5f6154d482615269565b9050919050565b6154e4816154ca565b81146154ee575f80fd5b50565b5f813590506154ff816154db565b92915050565b5f80fd5b5f80fd5b7f4e487b71000000000000000000000000000000000000000000000000000000005f52604160045260245ffd5b615543826152ca565b810181811067ffffffffffffffff821117156155625761556161550d565b5b80604052505050565b5f615574615332565b9050615580828261553a565b919050565b5f67ffffffffffffffff82111561559f5761559e61550d565b5b6155a8826152ca565b9050602081019050919050565b828183375f83830152505050565b5f6155d56155d084615585565b61556b565b9050828152602081018484840111156155f1576155f0615509565b5b6155fc8482856155b5565b509392505050565b5f82601f83011261561857615617615505565b5b81356156288482602086016155c3565b91505092915050565b5f60ff82169050919050565b61564681615631565b8114615650575f80fd5b50565b5f813590506156618161563d565b92915050565b5f805f805f805f60e0888a0312156156825761568161533b565b5b5f61568f8a828b01615359565b97505060206156a08a828b016154b6565b96505060406156b18a828b016154f1565b95505060606156c28a828b0161538c565b945050608088013567ffffffffffffffff8111156156e3576156e261533f565b5b6156ef8a828b01615604565b93505060a088013567ffffffffffffffff8111156157105761570f61533f565b5b61571c8a828b01615604565b92505060c061572d8a828b01615653565b91505092959891949750929550565b5f61574682615269565b9050919050565b6157568161573c565b8114615760575f80fd5b50565b5f813590506157718161574d565b92915050565b5f6020828403121561578c5761578b61533b565b5b5f61579984828501615763565b91505092915050565b5f805f606084860312156157b9576157b861533b565b5b5f6157c686828701615359565b93505060206157d786828701615359565b92505060406157e88682870161538c565b9150509250925092565b5f6157fc8261524a565b9050919050565b61580c816157f2565b82525050565b5f6020820190506158255f830184615803565b92915050565b61583481615631565b82525050565b5f60208201905061584d5f83018461582b565b92915050565b5f602082840312156158685761586761533b565b5b5f615875848285016154b6565b91505092915050565b5f819050919050565b5f6158a161589c6158978461524a565b61587e565b61524a565b9050919050565b5f6158b282615887565b9050919050565b5f6158c3826158a8565b9050919050565b6158d3816158b9565b82525050565b5f6020820190506158ec5f8301846158ca565b92915050565b5f805f805f8060c0878903121561590c5761590b61533b565b5b5f61591989828a016154b6565b965050602061592a89828a016154f1565b955050604061593b89828a0161538c565b945050606087013567ffffffffffffffff81111561595c5761595b61533f565b5b61596889828a01615604565b935050608087013567ffffffffffffffff8111156159895761598861533f565b5b61599589828a01615604565b92505060a06159a689828a01615653565b9150509295509295509295565b6159bc816157f2565b81146159c6575f80fd5b50565b5f813590506159d7816159b3565b92915050565b5f602082840312156159f2576159f161533b565b5b5f6159ff848285016159c9565b91505092915050565b5f608082019050615a1b5f83018761543c565b615a28602083018661543c565b615a35604083018561543c565b615a42606083018461543c565b95945050505050565b5f8060408385031215615a6157615a6061533b565b5b5f615a6e85828601615359565b9250506020615a7f85828601615359565b9150509250929050565b5f60208284031215615a9e57615a9d61533b565b5b5f615aab848285016154f1565b91505092915050565b5f615abe826158a8565b9050919050565b615ace81615ab4565b82525050565b5f602082019050615ae75f830184615ac5565b92915050565b5f615af782615269565b9050919050565b615b0781615aed565b8114615b11575f80fd5b50565b5f81359050615b2281615afe565b92915050565b5f805f60608486031215615b3f57615b3e61533b565b5b5f615b4c86828701615359565b9350506020615b5d8682870161538c565b9250506040615b6e86828701615b14565b9150509250925092565b7f4e487b71000000000000000000000000000000000000000000000000000000005f52602260045260245ffd5b5f6002820490506001821680615bbc57607f821691505b602082108103615bcf57615bce615b78565b5b50919050565b7f72652d656e7465726564000000000000000000000000000000000000000000005f82015250565b5f615c09600a836152ac565b9150615c1482615bd5565b602082019050919050565b5f6020820190508181035f830152615c3681615bfd565b9050919050565b5f81519050615c4b81615376565b92915050565b5f60208284031215615c6657615c6561533b565b5b5f615c7384828501615c3d565b91505092915050565b7f4345726332303a3a7377656570546f6b656e3a206f6e6c792061646d696e20635f8201527f616e20737765657020746f6b656e730000000000000000000000000000000000602082015250565b5f615cd6602f836152ac565b9150615ce182615c7c565b604082019050919050565b5f6020820190508181035f830152615d0381615cca565b9050919050565b7f4345726332303a3a7377656570546f6b656e3a2063616e206e6f7420737765655f8201527f7020756e6465726c79696e6720746f6b656e0000000000000000000000000000602082015250565b5f615d646032836152ac565b9150615d6f82615d0a565b604082019050919050565b5f6020820190508181035f830152615d9181615d58565b9050919050565b5f615da2826158a8565b9050919050565b615db281615d98565b82525050565b5f604082019050615dcb5f830185615da9565b615dd8602083018461543c565b9392505050565b615de8816153de565b8114615df2575f80fd5b50565b5f81519050615e0381615ddf565b92915050565b5f60208284031215615e1e57615e1d61533b565b5b5f615e2b84828501615df5565b91505092915050565b7f6d61726b6572206d6574686f642072657475726e65642066616c7365000000005f82015250565b5f615e68601c836152ac565b9150615e7382615e34565b602082019050919050565b5f6020820190508181035f830152615e9581615e5c565b9050919050565b5f604082019050615eaf5f8301856158ca565b615ebc60208301846158ca565b9392505050565b7f6f6e6c79207468652061646d696e206d6179207365742074686520636f6d702d5f8201527f6c696b652064656c656761746500000000000000000000000000000000000000602082015250565b5f615f1d602d836152ac565b9150615f2882615ec3565b604082019050919050565b5f6020820190508181035f830152615f4a81615f11565b9050919050565b7f6f6e6c792061646d696e206d617920696e697469616c697a6520746865206d615f8201527f726b657400000000000000000000000000000000000000000000000000000000602082015250565b5f615fab6024836152ac565b9150615fb682615f51565b604082019050919050565b5f6020820190508181035f830152615fd881615f9f565b9050919050565b7f6d61726b6574206d6179206f6e6c7920626520696e697469616c697a6564206f5f8201527f6e63650000000000000000000000000000000000000000000000000000000000602082015250565b5f6160396023836152ac565b915061604482615fdf565b604082019050919050565b5f6020820190508181035f8301526160668161602d565b9050919050565b7f696e697469616c2065786368616e67652072617465206d7573742062652067725f8201527f6561746572207468616e207a65726f2e00000000000000000000000000000000602082015250565b5f6160c76030836152ac565b91506160d28261606d565b604082019050919050565b5f6020820190508181035f8301526160f4816160bb565b9050919050565b7f73657474696e6720636f6d7074726f6c6c6572206661696c65640000000000005f82015250565b5f61612f601a836152ac565b915061613a826160fb565b602082019050919050565b5f6020820190508181035f83015261615c81616123565b9050919050565b7f73657474696e6720696e7465726573742072617465206d6f64656c206661696c5f8201527f6564000000000000000000000000000000000000000000000000000000000000602082015250565b5f6161bd6022836152ac565b91506161c882616163565b604082019050919050565b5f6020820190508181035f8301526161ea816161b1565b9050919050565b5f819050815f5260205f209050919050565b5f6020601f8301049050919050565b5f82821b905092915050565b5f6008830261624d7fffffffffffffffffffffffffffffffffffffffffffffffffffffffffffffffff82616212565b6162578683616212565b95508019841693508086168417925050509392505050565b5f61628961628461627f8461536d565b61587e565b61536d565b9050919050565b5f819050919050565b6162a28361626f565b6162b66162ae82616290565b84845461621e565b825550505050565b5f90565b6162ca6162be565b6162d5818484616299565b505050565b5b818110156162f8576162ed5f826162c2565b6001810190506162db565b5050565b601f82111561633d5761630e816161f1565b61631784616203565b81016020851015616326578190505b61633a61633285616203565b8301826162da565b50505b505050565b5f82821c905092915050565b5f61635d5f1984600802616342565b1980831691505092915050565b5f616375838361634e565b9150826002028217905092915050565b61638e826152a2565b67ffffffffffffffff8111156163a7576163a661550d565b5b6163b18254615ba5565b6163bc8282856162fc565b5f60209050601f8311600181146163ed575f84156163db578287015190505b6163e5858261636a565b86555061644c565b601f1984166163fb866161f1565b5f5b82811015616422578489015182556001820191506020850194506020810190506163fd565b8683101561643f578489015161643b601f89168261634e565b8355505b6001600288020188555050505b505050505050565b7f4e487b71000000000000000000000000000000000000000000000000000000005f52601160045260245ffd5b5f61648b8261536d565b91506164968361536d565b92508282026164a48161536d565b915082820484148315176164bb576164ba616454565b5b5092915050565b7f4e487b71000000000000000000000000000000000000000000000000000000005f52601260045260245ffd5b5f6164f98261536d565b91506165048361536d565b925082616514576165136164c2565b5b828204905092915050565b5f6060820190506165325f83018661543c565b61653f602083018561543c565b61654c604083018461543c565b949350505050565b7f626f72726f772072617465206973206162737572646c792068696768000000005f82015250565b5f616588601c836152ac565b915061659382616554565b602082019050919050565b5f6020820190508181035f8301526165b58161657c565b9050919050565b5f6165c68261536d565b91506165d18361536d565b92508282039050818111156165e9576165e8616454565b5b92915050565b5f6165f98261536d565b91506166048361536d565b925082820190508082111561661c5761661b616454565b5b92915050565b5f6040820190506166355f83018561527a565b6166426020830184615da9565b9392505050565b7f4345524332302063616e206f6e6c7920636f6c6c65637420666565732066726f5f8201527f6d20756e6465726c79696e6720746f6b656e2100000000000000000000000000602082015250565b5f6166a36033836152ac565b91506166ae82616649565b604082019050919050565b5f6020820190508181035f8301526166d081616697565b9050919050565b5f6040820190506166ea5f83018561527a565b6166f7602083018461543c565b9392505050565b7f4f6e6c79207468652041646d696e2063616e207365742074686520666565546f5f8201527f2100000000000000000000000000000000000000000000000000000000000000602082015250565b5f6167586021836152ac565b9150616763826166fe565b604082019050919050565b5f6020820190508181035f8301526167858161674c565b9050919050565b5f60808201905061679f5f83018761527a565b6167ac602083018661527a565b6167b9604083018561527a565b6167c6606083018461543c565b95945050505050565b5f6060820190506167e25f830186615da9565b6167ef602083018561543c565b6167fc604083018461543c565b949350505050565b5f6040820190506168175f830185615ac5565b6168246020830184615ac5565b9392505050565b5f60a08201905061683e5f83018861527a565b61684b602083018761527a565b616858604083018661527a565b616865606083018561527a565b616872608083018461543c565b9695505050505050565b5f60608201905061688f5f83018661527a565b61689c602083018561543c565b6168a9604083018461543c565b949350505050565b5f6040820190506168c45f83018561543c565b6168d1602083018461543c565b9392505050565b5f60a0820190506168eb5f83018861527a565b6168f8602083018761527a565b616905604083018661543c565b616912606083018561543c565b61691f608083018461543c565b9695505050505050565b7f544f4b454e5f5452414e534645525f4f55545f4641494c4544000000000000005f82015250565b5f61695d6019836152ac565b915061696882616929565b602082019050919050565b5f6020820190508181035f83015261698a81616951565b9050919050565b7f6f6e65206f662072656465656d546f6b656e73496e206f722072656465656d415f8201527f6d6f756e74496e206d757374206265207a65726f000000000000000000000000602082015250565b5f6169eb6034836152ac565b91506169f682616991565b604082019050919050565b5f6020820190508181035f830152616a18816169df565b9050919050565b5f606082019050616a325f83018661527a565b616a3f6020830185615da9565b616a4c604083018461543c565b949350505050565b5f608082019050616a675f83018761527a565b616a746020830186615da9565b616a81604083018561543c565b616a8e606083018461543c565b95945050505050565b5f606082019050616aaa5f83018661527a565b616ab7602083018561527a565b616ac4604083018461543c565b949350505050565b5f608082019050616adf5f830187615da9565b616aec602083018661543c565b616af9604083018561543c565b616b06606083018461543c565b95945050505050565b5f8060408385031215616b2557616b2461533b565b5b5f616b3285828601615c3d565b9250506020616b4385828601615c3d565b9150509250929050565b7f4c49515549444154455f434f4d5054524f4c4c45525f43414c43554c4154455f5f8201527f414d4f554e545f5345495a455f4641494c454400000000000000000000000000602082015250565b5f616ba76033836152ac565b9150616bb282616b4d565b604082019050919050565b5f6020820190508181035f830152616bd481616b9b565b9050919050565b7f4c49515549444154455f5345495a455f544f4f5f4d55434800000000000000005f82015250565b5f616c0f6018836152ac565b9150616c1a82616bdb565b602082019050919050565b5f6020820190508181035f830152616c3c81616c03565b9050919050565b7f746f6b656e207365697a757265206661696c65640000000000000000000000005f82015250565b5f616c776014836152ac565b9150616c8282616c43565b602082019050919050565b5f6020820190508181035f830152616ca481616c6b565b9050919050565b5f60a082019050616cbe5f83018861527a565b616ccb602083018761527a565b616cd8604083018661543c565b616ce5606083018561527a565b616cf2608083018461543c565b9695505050505050565b7f544f4b454e5f5452414e534645525f494e5f4641494c454400000000000000005f82015250565b5f616d306018836152ac565b9150616d3b82616cfc565b602082019050919050565b5f6020820190508181035f830152616d5d81616d24565b905091905056fea2646970667358221220456a8d545fbc356a5a0fe41aef027433212bb86efeef9aba156185f2bef695d564736f6c634300081a0033",
			"opcodes": "PUSH1 0x80 PUSH1 0x40 MSTORE CALLVALUE DUP1 ISZERO PUSH1 0xE JUMPI PUSH0 DUP1 REVERT JUMPDEST POP PUSH2 0x6D9A DUP1 PUSH2 0x1C PUSH0 CODECOPY PUSH0 RETURN INVALID PUSH1 0x80 PUSH1 0x40 MSTORE CALLVALUE DUP1 ISZERO PUSH2 0xF JUMPI PUSH0 DUP1 REVERT JUMPDEST POP PUSH1 0x4 CALLDATASIZE LT PUSH2 0x376 JUMPI PUSH0 CALLDATALOAD PUSH1 0xE0 SHR DUP1 PUSH4 0x7F1E06BE GT PUSH2 0x1D1 JUMPI DUP1 PUSH4 0xC37F68E2 GT PUSH2 0x102 JUMPI DUP1 PUSH4 0xF3FDB15A GT PUSH2 0xA0 JUMPI DUP1 PUSH4 0xF851A440 GT PUSH2 0x7A JUMPI DUP1 PUSH4 0xF851A440 EQ PUSH2 0xB15 JUMPI DUP1 PUSH4 0xF8F9DA28 EQ PUSH2 0xB33 JUMPI DUP1 PUSH4 0xFCA7820B EQ PUSH2 0xB51 JUMPI DUP1 PUSH4 0xFE9C44AE EQ PUSH2 0xB81 JUMPI PUSH2 0x376 JUMP JUMPDEST DUP1 PUSH4 0xF3FDB15A EQ PUSH2 0xAAB JUMPI DUP1 PUSH4 0xF46901ED EQ PUSH2 0xAC9 JUMPI DUP1 PUSH4 0xF5E3C462 EQ PUSH2 0xAE5 JUMPI PUSH2 0x376 JUMP JUMPDEST DUP1 PUSH4 0xDB006A75 GT PUSH2 0xDC JUMPI DUP1 PUSH4 0xDB006A75 EQ PUSH2 0x9FD JUMPI DUP1 PUSH4 0xDD62ED3E EQ PUSH2 0xA2D JUMPI DUP1 PUSH4 0xE9C714F2 EQ PUSH2 0xA5D JUMPI DUP1 PUSH4 0xF2B3ABBD EQ PUSH2 0xA7B JUMPI PUSH2 0x376 JUMP JUMPDEST DUP1 PUSH4 0xC37F68E2 EQ PUSH2 0x97E JUMPI DUP1 PUSH4 0xC5EBEAEC EQ PUSH2 0x9B1 JUMPI DUP1 PUSH4 0xCB477964 EQ PUSH2 0x9E1 JUMPI PUSH2 0x376 JUMP JUMPDEST DUP1 PUSH4 0xA6AFED95 GT PUSH2 0x16F JUMPI DUP1 PUSH4 0xAE9D70B0 GT PUSH2 0x149 JUMPI DUP1 PUSH4 0xAE9D70B0 EQ PUSH2 0x8E2 JUMPI DUP1 PUSH4 0xB2A02FF1 EQ PUSH2 0x900 JUMPI DUP1 PUSH4 0xB71D1A0C EQ PUSH2 0x930 JUMPI DUP1 PUSH4 0xBD6D894D EQ PUSH2 0x960 JUMPI PUSH2 0x376 JUMP JUMPDEST DUP1 PUSH4 0xA6AFED95 EQ PUSH2 0x876 JUMPI DUP1 PUSH4 0xA9059CBB EQ PUSH2 0x894 JUMPI DUP1 PUSH4 0xAA5AF0FD EQ PUSH2 0x8C4 JUMPI PUSH2 0x376 JUMP JUMPDEST DUP1 PUSH4 0x95D89B41 GT PUSH2 0x1AB JUMPI DUP1 PUSH4 0x95D89B41 EQ PUSH2 0x7DC JUMPI DUP1 PUSH4 0x95DD9193 EQ PUSH2 0x7FA JUMPI DUP1 PUSH4 0x99D8C1B4 EQ PUSH2 0x82A JUMPI DUP1 PUSH4 0xA0712D68 EQ PUSH2 0x846 JUMPI PUSH2 0x376 JUMP JUMPDEST DUP1 PUSH4 0x7F1E06BE EQ PUSH2 0x772 JUMPI DUP1 PUSH4 0x852A12E3 EQ PUSH2 0x78E JUMPI DUP1 PUSH4 0x8F840DDD EQ PUSH2 0x7BE JUMPI PUSH2 0x376 JUMP JUMPDEST DUP1 PUSH4 0x313CE567 GT PUSH2 0x2AB JUMPI DUP1 PUSH4 0x601A0BF1 GT PUSH2 0x249 JUMPI DUP1 PUSH4 0x6C540BAF GT PUSH2 0x223 JUMPI DUP1 PUSH4 0x6C540BAF EQ PUSH2 0x6E8 JUMPI DUP1 PUSH4 0x6F307DC3 EQ PUSH2 0x706 JUMPI DUP1 PUSH4 0x70A08231 EQ PUSH2 0x724 JUMPI DUP1 PUSH4 0x73ACEE98 EQ PUSH2 0x754 JUMPI PUSH2 0x376 JUMP JUMPDEST DUP1 PUSH4 0x601A0BF1 EQ PUSH2 0x67C JUMPI DUP1 PUSH4 0x6752E702 EQ PUSH2 0x6AC JUMPI DUP1 PUSH4 0x69AB3250 EQ PUSH2 0x6CA JUMPI PUSH2 0x376 JUMP JUMPDEST DUP1 PUSH4 0x3E941010 GT PUSH2 0x285 JUMPI DUP1 PUSH4 0x3E941010 EQ PUSH2 0x5E0 JUMPI DUP1 PUSH4 0x4576B5DB EQ PUSH2 0x610 JUMPI DUP1 PUSH4 0x47BD3718 EQ PUSH2 0x640 JUMPI DUP1 PUSH4 0x5FE3B567 EQ PUSH2 0x65E JUMPI PUSH2 0x376 JUMP JUMPDEST DUP1 PUSH4 0x313CE567 EQ PUSH2 0x574 JUMPI DUP1 PUSH4 0x3AF9E669 EQ PUSH2 0x592 JUMPI DUP1 PUSH4 0x3B1D21A2 EQ PUSH2 0x5C2 JUMPI PUSH2 0x376 JUMP JUMPDEST DUP1 PUSH4 0x18160DDD GT PUSH2 0x318 JUMPI DUP1 PUSH4 0x1BE19560 GT PUSH2 0x2F2 JUMPI DUP1 PUSH4 0x1BE19560 EQ PUSH2 0x4DA JUMPI DUP1 PUSH4 0x23B872DD EQ PUSH2 0x4F6 JUMPI DUP1 PUSH4 0x2608F818 EQ PUSH2 0x526 JUMPI DUP1 PUSH4 0x26782247 EQ PUSH2 0x556 JUMPI PUSH2 0x376 JUMP JUMPDEST DUP1 PUSH4 0x18160DDD EQ PUSH2 0x482 JUMPI DUP1 PUSH4 0x182DF0F5 EQ PUSH2 0x4A0 JUMPI DUP1 PUSH4 0x1A31D465 EQ PUSH2 0x4BE JUMPI PUSH2 0x376 JUMP JUMPDEST DUP1 PUSH4 0xE752702 GT PUSH2 0x354 JUMPI DUP1 PUSH4 0xE752702 EQ PUSH2 0x3E6 JUMPI DUP1 PUSH4 0x13966DB5 EQ PUSH2 0x416 JUMPI DUP1 PUSH4 0x173B9904 EQ PUSH2 0x434 JUMPI DUP1 PUSH4 0x17BFDFBC EQ PUSH2 0x452 JUMPI PUSH2 0x376 JUMP JUMPDEST DUP1 PUSH4 0x17E7E58 EQ PUSH2 0x37A JUMPI DUP1 PUSH4 0x6FDDE03 EQ PUSH2 0x398 JUMPI DUP1 PUSH4 0x95EA7B3 EQ PUSH2 0x3B6 JUMPI JUMPDEST PUSH0 DUP1 REVERT JUMPDEST PUSH2 0x382 PUSH2 0xB9F JUMP JUMPDEST PUSH1 0x40 MLOAD PUSH2 0x38F SWAP2 SWAP1 PUSH2 0x5289 JUMP JUMPDEST PUSH1 0x40 MLOAD DUP1 SWAP2 SUB SWAP1 RETURN JUMPDEST PUSH2 0x3A0 PUSH2 0xBC4 JUMP JUMPDEST PUSH1 0x40 MLOAD PUSH2 0x3AD SWAP2 SWAP1 PUSH2 0x5312 JUMP JUMPDEST PUSH1 0x40 MLOAD DUP1 SWAP2 SUB SWAP1 RETURN JUMPDEST PUSH2 0x3D0 PUSH1 0x4 DUP1 CALLDATASIZE SUB DUP2 ADD SWAP1 PUSH2 0x3CB SWAP2 SWAP1 PUSH2 0x53A0 JUMP JUMPDEST PUSH2 0xC50 JUMP JUMPDEST PUSH1 0x40 MLOAD PUSH2 0x3DD SWAP2 SWAP1 PUSH2 0x53F8 JUMP JUMPDEST PUSH1 0x40 MLOAD DUP1 SWAP2 SUB SWAP1 RETURN JUMPDEST PUSH2 0x400 PUSH1 0x4 DUP1 CALLDATASIZE SUB DUP2 ADD SWAP1 PUSH2 0x3FB SWAP2 SWAP1 PUSH2 0x5411 JUMP JUMPDEST PUSH2 0xD42 JUMP JUMPDEST PUSH1 0x40 MLOAD PUSH2 0x40D SWAP2 SWAP1 PUSH2 0x544B JUMP JUMPDEST PUSH1 0x40 MLOAD DUP1 SWAP2 SUB SWAP1 RETURN JUMPDEST PUSH2 0x41E PUSH2 0xD54 JUMP JUMPDEST PUSH1 0x40 MLOAD PUSH2 0x42B SWAP2 SWAP1 PUSH2 0x544B JUMP JUMPDEST PUSH1 0x40 MLOAD DUP1 SWAP2 SUB SWAP1 RETURN JUMPDEST PUSH2 0x43C PUSH2 0xD5A JUMP JUMPDEST PUSH1 0x40 MLOAD PUSH2 0x449 SWAP2 SWAP1 PUSH2 0x544B JUMP JUMPDEST PUSH1 0x40 MLOAD DUP1 SWAP2 SUB SWAP1 RETURN JUMPDEST PUSH2 0x46C PUSH1 0x4 DUP1 CALLDATASIZE SUB DUP2 ADD SWAP1 PUSH2 0x467 SWAP2 SWAP1 PUSH2 0x5464 JUMP JUMPDEST PUSH2 0xD60 JUMP JUMPDEST PUSH1 0x40 MLOAD PUSH2 0x479 SWAP2 SWAP1 PUSH2 0x544B JUMP JUMPDEST PUSH1 0x40 MLOAD DUP1 SWAP2 SUB SWAP1 RETURN JUMPDEST PUSH2 0x48A PUSH2 0xDF8 JUMP JUMPDEST PUSH1 0x40 MLOAD PUSH2 0x497 SWAP2 SWAP1 PUSH2 0x544B JUMP JUMPDEST PUSH1 0x40 MLOAD DUP1 SWAP2 SUB SWAP1 RETURN JUMPDEST PUSH2 0x4A8 PUSH2 0xDFE JUMP JUMPDEST PUSH1 0x40 MLOAD PUSH2 0x4B5 SWAP2 SWAP1 PUSH2 0x544B JUMP JUMPDEST PUSH1 0x40 MLOAD DUP1 SWAP2 SUB SWAP1 RETURN JUMPDEST PUSH2 0x4D8 PUSH1 0x4 DUP1 CALLDATASIZE SUB DUP2 ADD SWAP1 PUSH2 0x4D3 SWAP2 SWAP1 PUSH2 0x5667 JUMP JUMPDEST PUSH2 0xE0C JUMP JUMPDEST STOP JUMPDEST PUSH2 0x4F4 PUSH1 0x4 DUP1 CALLDATASIZE SUB DUP2 ADD SWAP1 PUSH2 0x4EF SWAP2 SWAP1 PUSH2 0x5777 JUMP JUMPDEST PUSH2 0xEF2 JUMP JUMPDEST STOP JUMPDEST PUSH2 0x510 PUSH1 0x4 DUP1 CALLDATASIZE SUB DUP2 ADD SWAP1 PUSH2 0x50B SWAP2 SWAP1 PUSH2 0x57A2 JUMP JUMPDEST PUSH2 0x111A JUMP JUMPDEST PUSH1 0x40 MLOAD PUSH2 0x51D SWAP2 SWAP1 PUSH2 0x53F8 JUMP JUMPDEST PUSH1 0x40 MLOAD DUP1 SWAP2 SUB SWAP1 RETURN JUMPDEST PUSH2 0x540 PUSH1 0x4 DUP1 CALLDATASIZE SUB DUP2 ADD SWAP1 PUSH2 0x53B SWAP2 SWAP1 PUSH2 0x53A0 JUMP JUMPDEST PUSH2 0x11B0 JUMP JUMPDEST PUSH1 0x40 MLOAD PUSH2 0x54D SWAP2 SWAP1 PUSH2 0x544B JUMP JUMPDEST PUSH1 0x40 MLOAD DUP1 SWAP2 SUB SWAP1 RETURN JUMPDEST PUSH2 0x55E PUSH2 0x11C4 JUMP JUMPDEST PUSH1 0x40 MLOAD PUSH2 0x56B SWAP2 SWAP1 PUSH2 0x5812 JUMP JUMPDEST PUSH1 0x40 MLOAD DUP1 SWAP2 SUB SWAP1 RETURN JUMPDEST PUSH2 0x57C PUSH2 0x11E9 JUMP JUMPDEST PUSH1 0x40 MLOAD PUSH2 0x589 SWAP2 SWAP1 PUSH2 0x583A JUMP JUMPDEST PUSH1 0x40 MLOAD DUP1 SWAP2 SUB SWAP1 RETURN JUMPDEST PUSH2 0x5AC PUSH1 0x4 DUP1 CALLDATASIZE SUB DUP2 ADD SWAP1 PUSH2 0x5A7 SWAP2 SWAP1 PUSH2 0x5464 JUMP JUMPDEST PUSH2 0x11FB JUMP JUMPDEST PUSH1 0x40 MLOAD PUSH2 0x5B9 SWAP2 SWAP1 PUSH2 0x544B JUMP JUMPDEST PUSH1 0x40 MLOAD DUP1 SWAP2 SUB SWAP1 RETURN JUMPDEST PUSH2 0x5CA PUSH2 0x1264 JUMP JUMPDEST PUSH1 0x40 MLOAD PUSH2 0x5D7 SWAP2 SWAP1 PUSH2 0x544B JUMP JUMPDEST PUSH1 0x40 MLOAD DUP1 SWAP2 SUB SWAP1 RETURN JUMPDEST PUSH2 0x5FA PUSH1 0x4 DUP1 CALLDATASIZE SUB DUP2 ADD SWAP1 PUSH2 0x5F5 SWAP2 SWAP1 PUSH2 0x5411 JUMP JUMPDEST PUSH2 0x1272 JUMP JUMPDEST PUSH1 0x40 MLOAD PUSH2 0x607 SWAP2 SWAP1 PUSH2 0x544B JUMP JUMPDEST PUSH1 0x40 MLOAD DUP1 SWAP2 SUB SWAP1 RETURN JUMPDEST PUSH2 0x62A PUSH1 0x4 DUP1 CALLDATASIZE SUB DUP2 ADD SWAP1 PUSH2 0x625 SWAP2 SWAP1 PUSH2 0x5853 JUMP JUMPDEST PUSH2 0x1283 JUMP JUMPDEST PUSH1 0x40 MLOAD PUSH2 0x637 SWAP2 SWAP1 PUSH2 0x544B JUMP JUMPDEST PUSH1 0x40 MLOAD DUP1 SWAP2 SUB SWAP1 RETURN JUMPDEST PUSH2 0x648 PUSH2 0x145D JUMP JUMPDEST PUSH1 0x40 MLOAD PUSH2 0x655 SWAP2 SWAP1 PUSH2 0x544B JUMP JUMPDEST PUSH1 0x40 MLOAD DUP1 SWAP2 SUB SWAP1 RETURN JUMPDEST PUSH2 0x666 PUSH2 0x1463 JUMP JUMPDEST PUSH1 0x40 MLOAD PUSH2 0x673 SWAP2 SWAP1 PUSH2 0x58D9 JUMP JUMPDEST PUSH1 0x40 MLOAD DUP1 SWAP2 SUB SWAP1 RETURN JUMPDEST PUSH2 0x696 PUSH1 0x4 DUP1 CALLDATASIZE SUB DUP2 ADD SWAP1 PUSH2 0x691 SWAP2 SWAP1 PUSH2 0x5411 JUMP JUMPDEST PUSH2 0x1488 JUMP JUMPDEST PUSH1 0x40 MLOAD PUSH2 0x6A3 SWAP2 SWAP1 PUSH2 0x544B JUMP JUMPDEST PUSH1 0x40 MLOAD DUP1 SWAP2 SUB SWAP1 RETURN JUMPDEST PUSH2 0x6B4 PUSH2 0x1520 JUMP JUMPDEST PUSH1 0x40 MLOAD PUSH2 0x6C1 SWAP2 SWAP1 PUSH2 0x544B JUMP JUMPDEST PUSH1 0x40 MLOAD DUP1 SWAP2 SUB SWAP1 RETURN JUMPDEST PUSH2 0x6D2 PUSH2 0x152B JUMP JUMPDEST PUSH1 0x40 MLOAD PUSH2 0x6DF SWAP2 SWAP1 PUSH2 0x544B JUMP JUMPDEST PUSH1 0x40 MLOAD DUP1 SWAP2 SUB SWAP1 RETURN JUMPDEST PUSH2 0x6F0 PUSH2 0x152F JUMP JUMPDEST PUSH1 0x40 MLOAD PUSH2 0x6FD SWAP2 SWAP1 PUSH2 0x544B JUMP JUMPDEST PUSH1 0x40 MLOAD DUP1 SWAP2 SUB SWAP1 RETURN JUMPDEST PUSH2 0x70E PUSH2 0x1535 JUMP JUMPDEST PUSH1 0x40 MLOAD PUSH2 0x71B SWAP2 SWAP1 PUSH2 0x5289 JUMP JUMPDEST PUSH1 0x40 MLOAD DUP1 SWAP2 SUB SWAP1 RETURN JUMPDEST PUSH2 0x73E PUSH1 0x4 DUP1 CALLDATASIZE SUB DUP2 ADD SWAP1 PUSH2 0x739 SWAP2 SWAP1 PUSH2 0x5464 JUMP JUMPDEST PUSH2 0x155A JUMP JUMPDEST PUSH1 0x40 MLOAD PUSH2 0x74B SWAP2 SWAP1 PUSH2 0x544B JUMP JUMPDEST PUSH1 0x40 MLOAD DUP1 SWAP2 SUB SWAP1 RETURN JUMPDEST PUSH2 0x75C PUSH2 0x15A0 JUMP JUMPDEST PUSH1 0x40 MLOAD PUSH2 0x769 SWAP2 SWAP1 PUSH2 0x544B JUMP JUMPDEST PUSH1 0x40 MLOAD DUP1 SWAP2 SUB SWAP1 RETURN JUMPDEST PUSH2 0x78C PUSH1 0x4 DUP1 CALLDATASIZE SUB DUP2 ADD SWAP1 PUSH2 0x787 SWAP2 SWAP1 PUSH2 0x5464 JUMP JUMPDEST PUSH2 0x1630 JUMP JUMPDEST STOP JUMPDEST PUSH2 0x7A8 PUSH1 0x4 DUP1 CALLDATASIZE SUB DUP2 ADD SWAP1 PUSH2 0x7A3 SWAP2 SWAP1 PUSH2 0x5411 JUMP JUMPDEST PUSH2 0x174A JUMP JUMPDEST PUSH1 0x40 MLOAD PUSH2 0x7B5 SWAP2 SWAP1 PUSH2 0x544B JUMP JUMPDEST PUSH1 0x40 MLOAD DUP1 SWAP2 SUB SWAP1 RETURN JUMPDEST PUSH2 0x7C6 PUSH2 0x175C JUMP JUMPDEST PUSH1 0x40 MLOAD PUSH2 0x7D3 SWAP2 SWAP1 PUSH2 0x544B JUMP JUMPDEST PUSH1 0x40 MLOAD DUP1 SWAP2 SUB SWAP1 RETURN JUMPDEST PUSH2 0x7E4 PUSH2 0x1762 JUMP JUMPDEST PUSH1 0x40 MLOAD PUSH2 0x7F1 SWAP2 SWAP1 PUSH2 0x5312 JUMP JUMPDEST PUSH1 0x40 MLOAD DUP1 SWAP2 SUB SWAP1 RETURN JUMPDEST PUSH2 0x814 PUSH1 0x4 DUP1 CALLDATASIZE SUB DUP2 ADD SWAP1 PUSH2 0x80F SWAP2 SWAP1 PUSH2 0x5464 JUMP JUMPDEST PUSH2 0x17EE JUMP JUMPDEST PUSH1 0x40 MLOAD PUSH2 0x821 SWAP2 SWAP1 PUSH2 0x544B JUMP JUMPDEST PUSH1 0x40 MLOAD DUP1 SWAP2 SUB SWAP1 RETURN JUMPDEST PUSH2 0x844 PUSH1 0x4 DUP1 CALLDATASIZE SUB DUP2 ADD SWAP1 PUSH2 0x83F SWAP2 SWAP1 PUSH2 0x58F2 JUMP JUMPDEST PUSH2 0x17FF JUMP JUMPDEST STOP JUMPDEST PUSH2 0x860 PUSH1 0x4 DUP1 CALLDATASIZE SUB DUP2 ADD SWAP1 PUSH2 0x85B SWAP2 SWAP1 PUSH2 0x5411 JUMP JUMPDEST PUSH2 0x1A3F JUMP JUMPDEST PUSH1 0x40 MLOAD PUSH2 0x86D SWAP2 SWAP1 PUSH2 0x544B JUMP JUMPDEST PUSH1 0x40 MLOAD DUP1 SWAP2 SUB SWAP1 RETURN JUMPDEST PUSH2 0x87E PUSH2 0x1A94 JUMP JUMPDEST PUSH1 0x40 MLOAD PUSH2 0x88B SWAP2 SWAP1 PUSH2 0x544B JUMP JUMPDEST PUSH1 0x40 MLOAD DUP1 SWAP2 SUB SWAP1 RETURN JUMPDEST PUSH2 0x8AE PUSH1 0x4 DUP1 CALLDATASIZE SUB DUP2 ADD SWAP1 PUSH2 0x8A9 SWAP2 SWAP1 PUSH2 0x53A0 JUMP JUMPDEST PUSH2 0x1C9C JUMP JUMPDEST PUSH1 0x40 MLOAD PUSH2 0x8BB SWAP2 SWAP1 PUSH2 0x53F8 JUMP JUMPDEST PUSH1 0x40 MLOAD DUP1 SWAP2 SUB SWAP1 RETURN JUMPDEST PUSH2 0x8CC PUSH2 0x1D31 JUMP JUMPDEST PUSH1 0x40 MLOAD PUSH2 0x8D9 SWAP2 SWAP1 PUSH2 0x544B JUMP JUMPDEST PUSH1 0x40 MLOAD DUP1 SWAP2 SUB SWAP1 RETURN JUMPDEST PUSH2 0x8EA PUSH2 0x1D37 JUMP JUMPDEST PUSH1 0x40 MLOAD PUSH2 0x8F7 SWAP2 SWAP1 PUSH2 0x544B JUMP JUMPDEST PUSH1 0x40 MLOAD DUP1 SWAP2 SUB SWAP1 RETURN JUMPDEST PUSH2 0x91A PUSH1 0x4 DUP1 CALLDATASIZE SUB DUP2 ADD SWAP1 PUSH2 0x915 SWAP2 SWAP1 PUSH2 0x57A2 JUMP JUMPDEST PUSH2 0x1DE9 JUMP JUMPDEST PUSH1 0x40 MLOAD PUSH2 0x927 SWAP2 SWAP1 PUSH2 0x544B JUMP JUMPDEST PUSH1 0x40 MLOAD DUP1 SWAP2 SUB SWAP1 RETURN JUMPDEST PUSH2 0x94A PUSH1 0x4 DUP1 CALLDATASIZE SUB DUP2 ADD SWAP1 PUSH2 0x945 SWAP2 SWAP1 PUSH2 0x59DD JUMP JUMPDEST PUSH2 0x1E7E JUMP JUMPDEST PUSH1 0x40 MLOAD PUSH2 0x957 SWAP2 SWAP1 PUSH2 0x544B JUMP JUMPDEST PUSH1 0x40 MLOAD DUP1 SWAP2 SUB SWAP1 RETURN JUMPDEST PUSH2 0x968 PUSH2 0x1FAD JUMP JUMPDEST PUSH1 0x40 MLOAD PUSH2 0x975 SWAP2 SWAP1 PUSH2 0x544B JUMP JUMPDEST PUSH1 0x40 MLOAD DUP1 SWAP2 SUB SWAP1 RETURN JUMPDEST PUSH2 0x998 PUSH1 0x4 DUP1 CALLDATASIZE SUB DUP2 ADD SWAP1 PUSH2 0x993 SWAP2 SWAP1 PUSH2 0x5464 JUMP JUMPDEST PUSH2 0x2042 JUMP JUMPDEST PUSH1 0x40 MLOAD PUSH2 0x9A8 SWAP5 SWAP4 SWAP3 SWAP2 SWAP1 PUSH2 0x5A08 JUMP JUMPDEST PUSH1 0x40 MLOAD DUP1 SWAP2 SUB SWAP1 RETURN JUMPDEST PUSH2 0x9CB PUSH1 0x4 DUP1 CALLDATASIZE SUB DUP2 ADD SWAP1 PUSH2 0x9C6 SWAP2 SWAP1 PUSH2 0x5411 JUMP JUMPDEST PUSH2 0x20A5 JUMP JUMPDEST PUSH1 0x40 MLOAD PUSH2 0x9D8 SWAP2 SWAP1 PUSH2 0x544B JUMP JUMPDEST PUSH1 0x40 MLOAD DUP1 SWAP2 SUB SWAP1 RETURN JUMPDEST PUSH2 0x9FB PUSH1 0x4 DUP1 CALLDATASIZE SUB DUP2 ADD SWAP1 PUSH2 0x9F6 SWAP2 SWAP1 PUSH2 0x53A0 JUMP JUMPDEST PUSH2 0x20B7 JUMP JUMPDEST STOP JUMPDEST PUSH2 0xA17 PUSH1 0x4 DUP1 CALLDATASIZE SUB DUP2 ADD SWAP1 PUSH2 0xA12 SWAP2 SWAP1 PUSH2 0x5411 JUMP JUMPDEST PUSH2 0x21CB JUMP JUMPDEST PUSH1 0x40 MLOAD PUSH2 0xA24 SWAP2 SWAP1 PUSH2 0x544B JUMP JUMPDEST PUSH1 0x40 MLOAD DUP1 SWAP2 SUB SWAP1 RETURN JUMPDEST PUSH2 0xA47 PUSH1 0x4 DUP1 CALLDATASIZE SUB DUP2 ADD SWAP1 PUSH2 0xA42 SWAP2 SWAP1 PUSH2 0x5A4B JUMP JUMPDEST PUSH2 0x21DD JUMP JUMPDEST PUSH1 0x40 MLOAD PUSH2 0xA54 SWAP2 SWAP1 PUSH2 0x544B JUMP JUMPDEST PUSH1 0x40 MLOAD DUP1 SWAP2 SUB SWAP1 RETURN JUMPDEST PUSH2 0xA65 PUSH2 0x225F JUMP JUMPDEST PUSH1 0x40 MLOAD PUSH2 0xA72 SWAP2 SWAP1 PUSH2 0x544B JUMP JUMPDEST PUSH1 0x40 MLOAD DUP1 SWAP2 SUB SWAP1 RETURN JUMPDEST PUSH2 0xA95 PUSH1 0x4 DUP1 CALLDATASIZE SUB DUP2 ADD SWAP1 PUSH2 0xA90 SWAP2 SWAP1 PUSH2 0x5A89 JUMP JUMPDEST PUSH2 0x24C8 JUMP JUMPDEST PUSH1 0x40 MLOAD PUSH2 0xAA2 SWAP2 SWAP1 PUSH2 0x544B JUMP JUMPDEST PUSH1 0x40 MLOAD DUP1 SWAP2 SUB SWAP1 RETURN JUMPDEST PUSH2 0xAB3 PUSH2 0x24E2 JUMP JUMPDEST PUSH1 0x40 MLOAD PUSH2 0xAC0 SWAP2 SWAP1 PUSH2 0x5AD4 JUMP JUMPDEST PUSH1 0x40 MLOAD DUP1 SWAP2 SUB SWAP1 RETURN JUMPDEST PUSH2 0xAE3 PUSH1 0x4 DUP1 CALLDATASIZE SUB DUP2 ADD SWAP1 PUSH2 0xADE SWAP2 SWAP1 PUSH2 0x5464 JUMP JUMPDEST PUSH2 0x2507 JUMP JUMPDEST STOP JUMPDEST PUSH2 0xAFF PUSH1 0x4 DUP1 CALLDATASIZE SUB DUP2 ADD SWAP1 PUSH2 0xAFA SWAP2 SWAP1 PUSH2 0x5B28 JUMP JUMPDEST PUSH2 0x25DA JUMP JUMPDEST PUSH1 0x40 MLOAD PUSH2 0xB0C SWAP2 SWAP1 PUSH2 0x544B JUMP JUMPDEST PUSH1 0x40 MLOAD DUP1 SWAP2 SUB SWAP1 RETURN JUMPDEST PUSH2 0xB1D PUSH2 0x25F0 JUMP JUMPDEST PUSH1 0x40 MLOAD PUSH2 0xB2A SWAP2 SWAP1 PUSH2 0x5812 JUMP JUMPDEST PUSH1 0x40 MLOAD DUP1 SWAP2 SUB SWAP1 RETURN JUMPDEST PUSH2 0xB3B PUSH2 0x2616 JUMP JUMPDEST PUSH1 0x40 MLOAD PUSH2 0xB48 SWAP2 SWAP1 PUSH2 0x544B JUMP JUMPDEST PUSH1 0x40 MLOAD DUP1 SWAP2 SUB SWAP1 RETURN JUMPDEST PUSH2 0xB6B PUSH1 0x4 DUP1 CALLDATASIZE SUB DUP2 ADD SWAP1 PUSH2 0xB66 SWAP2 SWAP1 PUSH2 0x5411 JUMP JUMPDEST PUSH2 0x26C4 JUMP JUMPDEST PUSH1 0x40 MLOAD PUSH2 0xB78 SWAP2 SWAP1 PUSH2 0x544B JUMP JUMPDEST PUSH1 0x40 MLOAD DUP1 SWAP2 SUB SWAP1 RETURN JUMPDEST PUSH2 0xB89 PUSH2 0x275C JUMP JUMPDEST PUSH1 0x40 MLOAD PUSH2 0xB96 SWAP2 SWAP1 PUSH2 0x53F8 JUMP JUMPDEST PUSH1 0x40 MLOAD DUP1 SWAP2 SUB SWAP1 RETURN JUMPDEST PUSH1 0x12 PUSH0 SWAP1 SLOAD SWAP1 PUSH2 0x100 EXP SWAP1 DIV PUSH20 0xFFFFFFFFFFFFFFFFFFFFFFFFFFFFFFFFFFFFFFFF AND DUP2 JUMP JUMPDEST PUSH1 0x1 DUP1 SLOAD PUSH2 0xBD1 SWAP1 PUSH2 0x5BA5 JUMP JUMPDEST DUP1 PUSH1 0x1F ADD PUSH1 0x20 DUP1 SWAP2 DIV MUL PUSH1 0x20 ADD PUSH1 0x40 MLOAD SWAP1 DUP2 ADD PUSH1 0x40 MSTORE DUP1 SWAP3 SWAP2 SWAP1 DUP2 DUP2 MSTORE PUSH1 0x20 ADD DUP3 DUP1 SLOAD PUSH2 0xBFD SWAP1 PUSH2 0x5BA5 JUMP JUMPDEST DUP1 ISZERO PUSH2 0xC48 JUMPI DUP1 PUSH1 0x1F LT PUSH2 0xC1F JUMPI PUSH2 0x100 DUP1 DUP4 SLOAD DIV MUL DUP4 MSTORE SWAP2 PUSH1 0x20 ADD SWAP2 PUSH2 0xC48 JUMP JUMPDEST DUP3 ADD SWAP2 SWAP1 PUSH0 MSTORE PUSH1 0x20 PUSH0 KECCAK256 SWAP1 JUMPDEST DUP2 SLOAD DUP2 MSTORE SWAP1 PUSH1 0x1 ADD SWAP1 PUSH1 0x20 ADD DUP1 DUP4 GT PUSH2 0xC2B JUMPI DUP3 SWAP1 SUB PUSH1 0x1F AND DUP3 ADD SWAP2 JUMPDEST POP POP POP POP POP DUP2 JUMP JUMPDEST PUSH0 DUP1 CALLER SWAP1 POP DUP3 PUSH1 0xF PUSH0 DUP4 PUSH20 0xFFFFFFFFFFFFFFFFFFFFFFFFFFFFFFFFFFFFFFFF AND PUSH20 0xFFFFFFFFFFFFFFFFFFFFFFFFFFFFFFFFFFFFFFFF AND DUP2 MSTORE PUSH1 0x20 ADD SWAP1 DUP2 MSTORE PUSH1 0x20 ADD PUSH0 KECCAK256 PUSH0 DUP7 PUSH20 0xFFFFFFFFFFFFFFFFFFFFFFFFFFFFFFFFFFFFFFFF AND PUSH20 0xFFFFFFFFFFFFFFFFFFFFFFFFFFFFFFFFFFFFFFFF AND DUP2 MSTORE PUSH1 0x20 ADD SWAP1 DUP2 MSTORE PUSH1 0x20 ADD PUSH0 KECCAK256 DUP2 SWAP1 SSTORE POP DUP4 PUSH20 0xFFFFFFFFFFFFFFFFFFFFFFFFFFFFFFFFFFFFFFFF AND DUP2 PUSH20 0xFFFFFFFFFFFFFFFFFFFFFFFFFFFFFFFFFFFFFFFF AND PUSH32 0x8C5BE1E5EBEC7D5BD14F71427D1E84F3DD0314C0F7B2291E5B200AC8C7C3B925 DUP6 PUSH1 0x40 MLOAD PUSH2 0xD2F SWAP2 SWAP1 PUSH2 0x544B JUMP JUMPDEST PUSH1 0x40 MLOAD DUP1 SWAP2 SUB SWAP1 LOG3 PUSH1 0x1 SWAP2 POP POP SWAP3 SWAP2 POP POP JUMP JUMPDEST PUSH0 PUSH2 0xD4C DUP3 PUSH2 0x2761 JUMP JUMPDEST PUSH0 SWAP1 POP SWAP2 SWAP1 POP JUMP JUMPDEST PUSH1 0x13 SLOAD DUP2 JUMP JUMPDEST PUSH1 0x8 SLOAD DUP2 JUMP JUMPDEST PUSH0 DUP1 PUSH0 SWAP1 SLOAD SWAP1 PUSH2 0x100 EXP SWAP1 DIV PUSH1 0xFF AND PUSH2 0xDAE JUMPI PUSH1 0x40 MLOAD PUSH32 0x8C379A000000000000000000000000000000000000000000000000000000000 DUP2 MSTORE PUSH1 0x4 ADD PUSH2 0xDA5 SWAP1 PUSH2 0x5C1F JUMP JUMPDEST PUSH1 0x40 MLOAD DUP1 SWAP2 SUB SWAP1 REVERT JUMPDEST PUSH0 DUP1 PUSH0 PUSH2 0x100 EXP DUP2 SLOAD DUP2 PUSH1 0xFF MUL NOT AND SWAP1 DUP4 ISZERO ISZERO MUL OR SWAP1 SSTORE POP PUSH2 0xDCE PUSH2 0x1A94 JUMP JUMPDEST POP PUSH2 0xDD8 DUP3 PUSH2 0x17EE JUMP JUMPDEST SWAP1 POP PUSH1 0x1 PUSH0 DUP1 PUSH2 0x100 EXP DUP2 SLOAD DUP2 PUSH1 0xFF MUL NOT AND SWAP1 DUP4 ISZERO ISZERO MUL OR SWAP1 SSTORE POP SWAP2 SWAP1 POP JUMP JUMPDEST PUSH1 0xD SLOAD DUP2 JUMP JUMPDEST PUSH0 PUSH2 0xE07 PUSH2 0x27F6 JUMP JUMPDEST SWAP1 POP SWAP1 JUMP JUMPDEST PUSH2 0xE1A DUP7 DUP7 DUP7 DUP7 DUP7 DUP7 PUSH2 0x17FF JUMP JUMPDEST DUP7 PUSH1 0x11 PUSH0 PUSH2 0x100 EXP DUP2 SLOAD DUP2 PUSH20 0xFFFFFFFFFFFFFFFFFFFFFFFFFFFFFFFFFFFFFFFF MUL NOT AND SWAP1 DUP4 PUSH20 0xFFFFFFFFFFFFFFFFFFFFFFFFFFFFFFFFFFFFFFFF AND MUL OR SWAP1 SSTORE POP PUSH1 0x11 PUSH0 SWAP1 SLOAD SWAP1 PUSH2 0x100 EXP SWAP1 DIV PUSH20 0xFFFFFFFFFFFFFFFFFFFFFFFFFFFFFFFFFFFFFFFF AND PUSH20 0xFFFFFFFFFFFFFFFFFFFFFFFFFFFFFFFFFFFFFFFF AND PUSH4 0x18160DDD PUSH1 0x40 MLOAD DUP2 PUSH4 0xFFFFFFFF AND PUSH1 0xE0 SHL DUP2 MSTORE PUSH1 0x4 ADD PUSH1 0x20 PUSH1 0x40 MLOAD DUP1 DUP4 SUB DUP2 DUP7 GAS STATICCALL ISZERO DUP1 ISZERO PUSH2 0xEC4 JUMPI RETURNDATASIZE PUSH0 DUP1 RETURNDATACOPY RETURNDATASIZE PUSH0 REVERT JUMPDEST POP POP POP POP PUSH1 0x40 MLOAD RETURNDATASIZE PUSH1 0x1F NOT PUSH1 0x1F DUP3 ADD AND DUP3 ADD DUP1 PUSH1 0x40 MSTORE POP DUP2 ADD SWAP1 PUSH2 0xEE8 SWAP2 SWAP1 PUSH2 0x5C51 JUMP JUMPDEST POP POP POP POP POP POP POP POP JUMP JUMPDEST PUSH1 0x3 PUSH1 0x1 SWAP1 SLOAD SWAP1 PUSH2 0x100 EXP SWAP1 DIV PUSH20 0xFFFFFFFFFFFFFFFFFFFFFFFFFFFFFFFFFFFFFFFF AND PUSH20 0xFFFFFFFFFFFFFFFFFFFFFFFFFFFFFFFFFFFFFFFF AND CALLER PUSH20 0xFFFFFFFFFFFFFFFFFFFFFFFFFFFFFFFFFFFFFFFF AND EQ PUSH2 0xF82 JUMPI PUSH1 0x40 MLOAD PUSH32 0x8C379A000000000000000000000000000000000000000000000000000000000 DUP2 MSTORE PUSH1 0x4 ADD PUSH2 0xF79 SWAP1 PUSH2 0x5CEC JUMP JUMPDEST PUSH1 0x40 MLOAD DUP1 SWAP2 SUB SWAP1 REVERT JUMPDEST PUSH1 0x11 PUSH0 SWAP1 SLOAD SWAP1 PUSH2 0x100 EXP SWAP1 DIV PUSH20 0xFFFFFFFFFFFFFFFFFFFFFFFFFFFFFFFFFFFFFFFF AND PUSH20 0xFFFFFFFFFFFFFFFFFFFFFFFFFFFFFFFFFFFFFFFF AND DUP2 PUSH20 0xFFFFFFFFFFFFFFFFFFFFFFFFFFFFFFFFFFFFFFFF AND SUB PUSH2 0x1011 JUMPI PUSH1 0x40 MLOAD PUSH32 0x8C379A000000000000000000000000000000000000000000000000000000000 DUP2 MSTORE PUSH1 0x4 ADD PUSH2 0x1008 SWAP1 PUSH2 0x5D7A JUMP JUMPDEST PUSH1 0x40 MLOAD DUP1 SWAP2 SUB SWAP1 REVERT JUMPDEST PUSH0 DUP2 PUSH20 0xFFFFFFFFFFFFFFFFFFFFFFFFFFFFFFFFFFFFFFFF AND PUSH4 0x70A08231 ADDRESS PUSH1 0x40 MLOAD DUP3 PUSH4 0xFFFFFFFF AND PUSH1 0xE0 SHL DUP2 MSTORE PUSH1 0x4 ADD PUSH2 0x104B SWAP2 SWAP1 PUSH2 0x5289 JUMP JUMPDEST PUSH1 0x20 PUSH1 0x40 MLOAD DUP1 DUP4 SUB DUP2 DUP7 GAS STATICCALL ISZERO DUP1 ISZERO PUSH2 0x1066 JUMPI RETURNDATASIZE PUSH0 DUP1 RETURNDATACOPY RETURNDATASIZE PUSH0 REVERT JUMPDEST POP POP POP POP PUSH1 0x40 MLOAD RETURNDATASIZE PUSH1 0x1F NOT PUSH1 0x1F DUP3 ADD AND DUP3 ADD DUP1 PUSH1 0x40 MSTORE POP DUP2 ADD SWAP1 PUSH2 0x108A SWAP2 SWAP1 PUSH2 0x5C51 JUMP JUMPDEST SWAP1 POP DUP2 PUSH20 0xFFFFFFFFFFFFFFFFFFFFFFFFFFFFFFFFFFFFFFFF AND PUSH4 0xA9059CBB PUSH1 0x3 PUSH1 0x1 SWAP1 SLOAD SWAP1 PUSH2 0x100 EXP SWAP1 DIV PUSH20 0xFFFFFFFFFFFFFFFFFFFFFFFFFFFFFFFFFFFFFFFF AND DUP4 PUSH1 0x40 MLOAD DUP4 PUSH4 0xFFFFFFFF AND PUSH1 0xE0 SHL DUP2 MSTORE PUSH1 0x4 ADD PUSH2 0x10E9 SWAP3 SWAP2 SWAP1 PUSH2 0x5DB8 JUMP JUMPDEST PUSH0 PUSH1 0x40 MLOAD DUP1 DUP4 SUB DUP2 PUSH0 DUP8 DUP1 EXTCODESIZE ISZERO DUP1 ISZERO PUSH2 0x1100 JUMPI PUSH0 DUP1 REVERT JUMPDEST POP GAS CALL ISZERO DUP1 ISZERO PUSH2 0x1112 JUMPI RETURNDATASIZE PUSH0 DUP1 RETURNDATACOPY RETURNDATASIZE PUSH0 REVERT JUMPDEST POP POP POP POP POP POP JUMP JUMPDEST PUSH0 DUP1 PUSH0 SWAP1 SLOAD SWAP1 PUSH2 0x100 EXP SWAP1 DIV PUSH1 0xFF AND PUSH2 0x1168 JUMPI PUSH1 0x40 MLOAD PUSH32 0x8C379A000000000000000000000000000000000000000000000000000000000 DUP2 MSTORE PUSH1 0x4 ADD PUSH2 0x115F SWAP1 PUSH2 0x5C1F JUMP JUMPDEST PUSH1 0x40 MLOAD DUP1 SWAP2 SUB SWAP1 REVERT JUMPDEST PUSH0 DUP1 PUSH0 PUSH2 0x100 EXP DUP2 SLOAD DUP2 PUSH1 0xFF MUL NOT AND SWAP1 DUP4 ISZERO ISZERO MUL OR SWAP1 SSTORE POP PUSH0 PUSH2 0x118D CALLER DUP7 DUP7 DUP7 PUSH2 0x2865 JUMP JUMPDEST EQ SWAP1 POP PUSH1 0x1 PUSH0 DUP1 PUSH2 0x100 EXP DUP2 SLOAD DUP2 PUSH1 0xFF MUL NOT AND SWAP1 DUP4 ISZERO ISZERO MUL OR SWAP1 SSTORE POP SWAP4 SWAP3 POP POP POP JUMP JUMPDEST PUSH0 PUSH2 0x11BB DUP4 DUP4 PUSH2 0x2CCF JUMP JUMPDEST PUSH0 SWAP1 POP SWAP3 SWAP2 POP POP JUMP JUMPDEST PUSH1 0x4 PUSH0 SWAP1 SLOAD SWAP1 PUSH2 0x100 EXP SWAP1 DIV PUSH20 0xFFFFFFFFFFFFFFFFFFFFFFFFFFFFFFFFFFFFFFFF AND DUP2 JUMP JUMPDEST PUSH1 0x3 PUSH0 SWAP1 SLOAD SWAP1 PUSH2 0x100 EXP SWAP1 DIV PUSH1 0xFF AND DUP2 JUMP JUMPDEST PUSH0 DUP1 PUSH1 0x40 MLOAD DUP1 PUSH1 0x20 ADD PUSH1 0x40 MSTORE DUP1 PUSH2 0x1210 PUSH2 0x1FAD JUMP JUMPDEST DUP2 MSTORE POP SWAP1 POP PUSH2 0x125C DUP2 PUSH1 0xE PUSH0 DUP7 PUSH20 0xFFFFFFFFFFFFFFFFFFFFFFFFFFFFFFFFFFFFFFFF AND PUSH20 0xFFFFFFFFFFFFFFFFFFFFFFFFFFFFFFFFFFFFFFFF AND DUP2 MSTORE PUSH1 0x20 ADD SWAP1 DUP2 MSTORE PUSH1 0x20 ADD PUSH0 KECCAK256 SLOAD PUSH2 0x2D65 JUMP JUMPDEST SWAP2 POP POP SWAP2 SWAP1 POP JUMP JUMPDEST PUSH0 PUSH2 0x126D PUSH2 0x2D85 JUMP JUMPDEST SWAP1 POP SWAP1 JUMP JUMPDEST PUSH0 PUSH2 0x127C DUP3 PUSH2 0x2E29 JUMP JUMPDEST SWAP1 POP SWAP2 SWAP1 POP JUMP JUMPDEST PUSH0 PUSH1 0x3 PUSH1 0x1 SWAP1 SLOAD SWAP1 PUSH2 0x100 EXP SWAP1 DIV PUSH20 0xFFFFFFFFFFFFFFFFFFFFFFFFFFFFFFFFFFFFFFFF AND PUSH20 0xFFFFFFFFFFFFFFFFFFFFFFFFFFFFFFFFFFFFFFFF AND CALLER PUSH20 0xFFFFFFFFFFFFFFFFFFFFFFFFFFFFFFFFFFFFFFFF AND EQ PUSH2 0x130B JUMPI PUSH1 0x40 MLOAD PUSH32 0xD219DC1F00000000000000000000000000000000000000000000000000000000 DUP2 MSTORE PUSH1 0x4 ADD PUSH1 0x40 MLOAD DUP1 SWAP2 SUB SWAP1 REVERT JUMPDEST PUSH0 PUSH1 0x5 PUSH0 SWAP1 SLOAD SWAP1 PUSH2 0x100 EXP SWAP1 DIV PUSH20 0xFFFFFFFFFFFFFFFFFFFFFFFFFFFFFFFFFFFFFFFF AND SWAP1 POP DUP3 PUSH20 0xFFFFFFFFFFFFFFFFFFFFFFFFFFFFFFFFFFFFFFFF AND PUSH3 0x7E3DD2 PUSH1 0x40 MLOAD DUP2 PUSH4 0xFFFFFFFF AND PUSH1 0xE0 SHL DUP2 MSTORE PUSH1 0x4 ADD PUSH1 0x20 PUSH1 0x40 MLOAD DUP1 DUP4 SUB DUP2 DUP7 GAS STATICCALL ISZERO DUP1 ISZERO PUSH2 0x1378 JUMPI RETURNDATASIZE PUSH0 DUP1 RETURNDATACOPY RETURNDATASIZE PUSH0 REVERT JUMPDEST POP POP POP POP PUSH1 0x40 MLOAD RETURNDATASIZE PUSH1 0x1F NOT PUSH1 0x1F DUP3 ADD AND DUP3 ADD DUP1 PUSH1 0x40 MSTORE POP DUP2 ADD SWAP1 PUSH2 0x139C SWAP2 SWAP1 PUSH2 0x5E09 JUMP JUMPDEST PUSH2 0x13DB JUMPI PUSH1 0x40 MLOAD PUSH32 0x8C379A000000000000000000000000000000000000000000000000000000000 DUP2 MSTORE PUSH1 0x4 ADD PUSH2 0x13D2 SWAP1 PUSH2 0x5E7E JUMP JUMPDEST PUSH1 0x40 MLOAD DUP1 SWAP2 SUB SWAP1 REVERT JUMPDEST DUP3 PUSH1 0x5 PUSH0 PUSH2 0x100 EXP DUP2 SLOAD DUP2 PUSH20 0xFFFFFFFFFFFFFFFFFFFFFFFFFFFFFFFFFFFFFFFF MUL NOT AND SWAP1 DUP4 PUSH20 0xFFFFFFFFFFFFFFFFFFFFFFFFFFFFFFFFFFFFFFFF AND MUL OR SWAP1 SSTORE POP PUSH32 0x7AC369DBD14FA5EA3F473ED67CC9D598964A77501540BA6751EB0B3DECF5870D DUP2 DUP5 PUSH1 0x40 MLOAD PUSH2 0x144C SWAP3 SWAP2 SWAP1 PUSH2 0x5E9C JUMP JUMPDEST PUSH1 0x40 MLOAD DUP1 SWAP2 SUB SWAP1 LOG1 PUSH0 SWAP2 POP POP SWAP2 SWAP1 POP JUMP JUMPDEST PUSH1 0xB SLOAD DUP2 JUMP JUMPDEST PUSH1 0x5 PUSH0 SWAP1 SLOAD SWAP1 PUSH2 0x100 EXP SWAP1 DIV PUSH20 0xFFFFFFFFFFFFFFFFFFFFFFFFFFFFFFFFFFFFFFFF AND DUP2 JUMP JUMPDEST PUSH0 DUP1 PUSH0 SWAP1 SLOAD SWAP1 PUSH2 0x100 EXP SWAP1 DIV PUSH1 0xFF AND PUSH2 0x14D6 JUMPI PUSH1 0x40 MLOAD PUSH32 0x8C379A000000000000000000000000000000000000000000000000000000000 DUP2 MSTORE PUSH1 0x4 ADD PUSH2 0x14CD SWAP1 PUSH2 0x5C1F JUMP JUMPDEST PUSH1 0x40 MLOAD DUP1 SWAP2 SUB SWAP1 REVERT JUMPDEST PUSH0 DUP1 PUSH0 PUSH2 0x100 EXP DUP2 SLOAD DUP2 PUSH1 0xFF MUL NOT AND SWAP1 DUP4 ISZERO ISZERO MUL OR SWAP1 SSTORE POP PUSH2 0x14F6 PUSH2 0x1A94 JUMP JUMPDEST POP PUSH2 0x1500 DUP3 PUSH2 0x2EC4 JUMP JUMPDEST SWAP1 POP PUSH1 0x1 PUSH0 DUP1 PUSH2 0x100 EXP DUP2 SLOAD DUP2 PUSH1 0xFF MUL NOT AND SWAP1 DUP4 ISZERO ISZERO MUL OR SWAP1 SSTORE POP SWAP2 SWAP1 POP JUMP JUMPDEST PUSH7 0x6379DA05B60000 DUP2 JUMP JUMPDEST PUSH0 DUP2 JUMP JUMPDEST PUSH1 0x9 SLOAD DUP2 JUMP JUMPDEST PUSH1 0x11 PUSH0 SWAP1 SLOAD SWAP1 PUSH2 0x100 EXP SWAP1 DIV PUSH20 0xFFFFFFFFFFFFFFFFFFFFFFFFFFFFFFFFFFFFFFFF AND DUP2 JUMP JUMPDEST PUSH0 PUSH1 0xE PUSH0 DUP4 PUSH20 0xFFFFFFFFFFFFFFFFFFFFFFFFFFFFFFFFFFFFFFFF AND PUSH20 0xFFFFFFFFFFFFFFFFFFFFFFFFFFFFFFFFFFFFFFFF AND DUP2 MSTORE PUSH1 0x20 ADD SWAP1 DUP2 MSTORE PUSH1 0x20 ADD PUSH0 KECCAK256 SLOAD SWAP1 POP SWAP2 SWAP1 POP JUMP JUMPDEST PUSH0 DUP1 PUSH0 SWAP1 SLOAD SWAP1 PUSH2 0x100 EXP SWAP1 DIV PUSH1 0xFF AND PUSH2 0x15EE JUMPI PUSH1 0x40 MLOAD PUSH32 0x8C379A000000000000000000000000000000000000000000000000000000000 DUP2 MSTORE PUSH1 0x4 ADD PUSH2 0x15E5 SWAP1 PUSH2 0x5C1F JUMP JUMPDEST PUSH1 0x40 MLOAD DUP1 SWAP2 SUB SWAP1 REVERT JUMPDEST PUSH0 DUP1 PUSH0 PUSH2 0x100 EXP DUP2 SLOAD DUP2 PUSH1 0xFF MUL NOT AND SWAP1 DUP4 ISZERO ISZERO MUL OR SWAP1 SSTORE POP PUSH2 0x160E PUSH2 0x1A94 JUMP JUMPDEST POP PUSH1 0xB SLOAD SWAP1 POP PUSH1 0x1 PUSH0 DUP1 PUSH2 0x100 EXP DUP2 SLOAD DUP2 PUSH1 0xFF MUL NOT AND SWAP1 DUP4 ISZERO ISZERO MUL OR SWAP1 SSTORE POP SWAP1 JUMP JUMPDEST PUSH1 0x3 PUSH1 0x1 SWAP1 SLOAD SWAP1 PUSH2 0x100 EXP SWAP1 DIV PUSH20 0xFFFFFFFFFFFFFFFFFFFFFFFFFFFFFFFFFFFFFFFF AND PUSH20 0xFFFFFFFFFFFFFFFFFFFFFFFFFFFFFFFFFFFFFFFF AND CALLER PUSH20 0xFFFFFFFFFFFFFFFFFFFFFFFFFFFFFFFFFFFFFFFF AND EQ PUSH2 0x16C0 JUMPI PUSH1 0x40 MLOAD PUSH32 0x8C379A000000000000000000000000000000000000000000000000000000000 DUP2 MSTORE PUSH1 0x4 ADD PUSH2 0x16B7 SWAP1 PUSH2 0x5F33 JUMP JUMPDEST PUSH1 0x40 MLOAD DUP1 SWAP2 SUB SWAP1 REVERT JUMPDEST PUSH1 0x11 PUSH0 SWAP1 SLOAD SWAP1 PUSH2 0x100 EXP SWAP1 DIV PUSH20 0xFFFFFFFFFFFFFFFFFFFFFFFFFFFFFFFFFFFFFFFF AND PUSH20 0xFFFFFFFFFFFFFFFFFFFFFFFFFFFFFFFFFFFFFFFF AND PUSH4 0x5C19A95C DUP3 PUSH1 0x40 MLOAD DUP3 PUSH4 0xFFFFFFFF AND PUSH1 0xE0 SHL DUP2 MSTORE PUSH1 0x4 ADD PUSH2 0x171A SWAP2 SWAP1 PUSH2 0x5289 JUMP JUMPDEST PUSH0 PUSH1 0x40 MLOAD DUP1 DUP4 SUB DUP2 PUSH0 DUP8 DUP1 EXTCODESIZE ISZERO DUP1 ISZERO PUSH2 0x1731 JUMPI PUSH0 DUP1 REVERT JUMPDEST POP GAS CALL ISZERO DUP1 ISZERO PUSH2 0x1743 JUMPI RETURNDATASIZE PUSH0 DUP1 RETURNDATACOPY RETURNDATASIZE PUSH0 REVERT JUMPDEST POP POP POP POP POP JUMP JUMPDEST PUSH0 PUSH2 0x1754 DUP3 PUSH2 0x30B5 JUMP JUMPDEST PUSH0 SWAP1 POP SWAP2 SWAP1 POP JUMP JUMPDEST PUSH1 0xC SLOAD DUP2 JUMP JUMPDEST PUSH1 0x2 DUP1 SLOAD PUSH2 0x176F SWAP1 PUSH2 0x5BA5 JUMP JUMPDEST DUP1 PUSH1 0x1F ADD PUSH1 0x20 DUP1 SWAP2 DIV MUL PUSH1 0x20 ADD PUSH1 0x40 MLOAD SWAP1 DUP2 ADD PUSH1 0x40 MSTORE DUP1 SWAP3 SWAP2 SWAP1 DUP2 DUP2 MSTORE PUSH1 0x20 ADD DUP3 DUP1 SLOAD PUSH2 0x179B SWAP1 PUSH2 0x5BA5 JUMP JUMPDEST DUP1 ISZERO PUSH2 0x17E6 JUMPI DUP1 PUSH1 0x1F LT PUSH2 0x17BD JUMPI PUSH2 0x100 DUP1 DUP4 SLOAD DIV MUL DUP4 MSTORE SWAP2 PUSH1 0x20 ADD SWAP2 PUSH2 0x17E6 JUMP JUMPDEST DUP3 ADD SWAP2 SWAP1 PUSH0 MSTORE PUSH1 0x20 PUSH0 KECCAK256 SWAP1 JUMPDEST DUP2 SLOAD DUP2 MSTORE SWAP1 PUSH1 0x1 ADD SWAP1 PUSH1 0x20 ADD DUP1 DUP4 GT PUSH2 0x17C9 JUMPI DUP3 SWAP1 SUB PUSH1 0x1F AND DUP3 ADD SWAP2 JUMPDEST POP POP POP POP POP DUP2 JUMP JUMPDEST PUSH0 PUSH2 0x17F8 DUP3 PUSH2 0x3149 JUMP JUMPDEST SWAP1 POP SWAP2 SWAP1 POP JUMP JUMPDEST PUSH1 0x3 PUSH1 0x1 SWAP1 SLOAD SWAP1 PUSH2 0x100 EXP SWAP1 DIV PUSH20 0xFFFFFFFFFFFFFFFFFFFFFFFFFFFFFFFFFFFFFFFF AND PUSH20 0xFFFFFFFFFFFFFFFFFFFFFFFFFFFFFFFFFFFFFFFF AND CALLER PUSH20 0xFFFFFFFFFFFFFFFFFFFFFFFFFFFFFFFFFFFFFFFF AND EQ PUSH2 0x188F JUMPI PUSH1 0x40 MLOAD PUSH32 0x8C379A000000000000000000000000000000000000000000000000000000000 DUP2 MSTORE PUSH1 0x4 ADD PUSH2 0x1886 SWAP1 PUSH2 0x5FC1 JUMP JUMPDEST PUSH1 0x40 MLOAD DUP1 SWAP2 SUB SWAP1 REVERT JUMPDEST PUSH0 PUSH1 0x9 SLOAD EQ DUP1 ISZERO PUSH2 0x18A1 JUMPI POP PUSH0 PUSH1 0xA SLOAD EQ JUMPDEST PUSH2 0x18E0 JUMPI PUSH1 0x40 MLOAD PUSH32 0x8C379A000000000000000000000000000000000000000000000000000000000 DUP2 MSTORE PUSH1 0x4 ADD PUSH2 0x18D7 SWAP1 PUSH2 0x604F JUMP JUMPDEST PUSH1 0x40 MLOAD DUP1 SWAP2 SUB SWAP1 REVERT JUMPDEST DUP4 PUSH1 0x7 DUP2 SWAP1 SSTORE POP PUSH0 PUSH1 0x7 SLOAD GT PUSH2 0x192B JUMPI PUSH1 0x40 MLOAD PUSH32 0x8C379A000000000000000000000000000000000000000000000000000000000 DUP2 MSTORE PUSH1 0x4 ADD PUSH2 0x1922 SWAP1 PUSH2 0x60DD JUMP JUMPDEST PUSH1 0x40 MLOAD DUP1 SWAP2 SUB SWAP1 REVERT JUMPDEST PUSH0 PUSH2 0x1935 DUP8 PUSH2 0x1283 JUMP JUMPDEST SWAP1 POP PUSH0 DUP2 EQ PUSH2 0x1979 JUMPI PUSH1 0x40 MLOAD PUSH32 0x8C379A000000000000000000000000000000000000000000000000000000000 DUP2 MSTORE PUSH1 0x4 ADD PUSH2 0x1970 SWAP1 PUSH2 0x6145 JUMP JUMPDEST PUSH1 0x40 MLOAD DUP1 SWAP2 SUB SWAP1 REVERT JUMPDEST PUSH2 0x1981 PUSH2 0x31CB JUMP JUMPDEST PUSH1 0x9 DUP2 SWAP1 SSTORE POP PUSH8 0xDE0B6B3A7640000 PUSH1 0xA DUP2 SWAP1 SSTORE POP PUSH2 0x199F DUP7 PUSH2 0x31D2 JUMP JUMPDEST SWAP1 POP PUSH0 DUP2 EQ PUSH2 0x19E3 JUMPI PUSH1 0x40 MLOAD PUSH32 0x8C379A000000000000000000000000000000000000000000000000000000000 DUP2 MSTORE PUSH1 0x4 ADD PUSH2 0x19DA SWAP1 PUSH2 0x61D3 JUMP JUMPDEST PUSH1 0x40 MLOAD DUP1 SWAP2 SUB SWAP1 REVERT JUMPDEST DUP4 PUSH1 0x1 SWAP1 DUP2 PUSH2 0x19F2 SWAP2 SWAP1 PUSH2 0x6385 JUMP JUMPDEST POP DUP3 PUSH1 0x2 SWAP1 DUP2 PUSH2 0x1A02 SWAP2 SWAP1 PUSH2 0x6385 JUMP JUMPDEST POP DUP2 PUSH1 0x3 PUSH0 PUSH2 0x100 EXP DUP2 SLOAD DUP2 PUSH1 0xFF MUL NOT AND SWAP1 DUP4 PUSH1 0xFF AND MUL OR SWAP1 SSTORE POP PUSH1 0x1 PUSH0 DUP1 PUSH2 0x100 EXP DUP2 SLOAD DUP2 PUSH1 0xFF MUL NOT AND SWAP1 DUP4 ISZERO ISZERO MUL OR SWAP1 SSTORE POP POP POP POP POP POP POP POP JUMP JUMPDEST PUSH0 PUSH2 0x1A83 PUSH1 0x11 PUSH0 SWAP1 SLOAD SWAP1 PUSH2 0x100 EXP SWAP1 DIV PUSH20 0xFFFFFFFFFFFFFFFFFFFFFFFFFFFFFFFFFFFFFFFF AND PUSH1 0x2 PUSH1 0x5 DUP6 PUSH2 0x1A74 SWAP2 SWAP1 PUSH2 0x6481 JUMP JUMPDEST PUSH2 0x1A7E SWAP2 SWAP1 PUSH2 0x64EF JUMP JUMPDEST PUSH2 0x20B7 JUMP JUMPDEST PUSH2 0x1A8C DUP3 PUSH2 0x33EF JUMP JUMPDEST PUSH0 SWAP1 POP SWAP2 SWAP1 POP JUMP JUMPDEST PUSH0 DUP1 PUSH2 0x1A9E PUSH2 0x31CB JUMP JUMPDEST SWAP1 POP PUSH0 PUSH1 0x9 SLOAD SWAP1 POP DUP2 DUP2 SUB PUSH2 0x1AB7 JUMPI PUSH0 SWAP3 POP POP POP PUSH2 0x1C99 JUMP JUMPDEST PUSH0 PUSH2 0x1AC0 PUSH2 0x2D85 JUMP JUMPDEST SWAP1 POP PUSH0 PUSH1 0xB SLOAD SWAP1 POP PUSH0 PUSH1 0xC SLOAD SWAP1 POP PUSH0 PUSH1 0xA SLOAD SWAP1 POP PUSH0 PUSH1 0x6 PUSH0 SWAP1 SLOAD SWAP1 PUSH2 0x100 EXP SWAP1 DIV PUSH20 0xFFFFFFFFFFFFFFFFFFFFFFFFFFFFFFFFFFFFFFFF AND PUSH20 0xFFFFFFFFFFFFFFFFFFFFFFFFFFFFFFFFFFFFFFFF AND PUSH4 0x15F24053 DUP7 DUP7 DUP7 PUSH1 0x40 MLOAD DUP5 PUSH4 0xFFFFFFFF AND PUSH1 0xE0 SHL DUP2 MSTORE PUSH1 0x4 ADD PUSH2 0x1B33 SWAP4 SWAP3 SWAP2 SWAP1 PUSH2 0x651F JUMP JUMPDEST PUSH1 0x20 PUSH1 0x40 MLOAD DUP1 DUP4 SUB DUP2 DUP7 GAS STATICCALL ISZERO DUP1 ISZERO PUSH2 0x1B4E JUMPI RETURNDATASIZE PUSH0 DUP1 RETURNDATACOPY RETURNDATASIZE PUSH0 REVERT JUMPDEST POP POP POP POP PUSH1 0x40 MLOAD RETURNDATASIZE PUSH1 0x1F NOT PUSH1 0x1F DUP3 ADD AND DUP3 ADD DUP1 PUSH1 0x40 MSTORE POP DUP2 ADD SWAP1 PUSH2 0x1B72 SWAP2 SWAP1 PUSH2 0x5C51 JUMP JUMPDEST SWAP1 POP PUSH6 0x48C27395000 DUP2 GT ISZERO PUSH2 0x1BBD JUMPI PUSH1 0x40 MLOAD PUSH32 0x8C379A000000000000000000000000000000000000000000000000000000000 DUP2 MSTORE PUSH1 0x4 ADD PUSH2 0x1BB4 SWAP1 PUSH2 0x659E JUMP JUMPDEST PUSH1 0x40 MLOAD DUP1 SWAP2 SUB SWAP1 REVERT JUMPDEST PUSH0 DUP7 DUP9 PUSH2 0x1BCA SWAP2 SWAP1 PUSH2 0x65BC JUMP JUMPDEST SWAP1 POP PUSH0 PUSH2 0x1BE5 PUSH1 0x40 MLOAD DUP1 PUSH1 0x20 ADD PUSH1 0x40 MSTORE DUP1 DUP6 DUP2 MSTORE POP DUP4 PUSH2 0x3482 JUMP JUMPDEST SWAP1 POP PUSH0 PUSH2 0x1BF2 DUP3 DUP9 PUSH2 0x2D65 JUMP JUMPDEST SWAP1 POP PUSH0 DUP8 DUP3 PUSH2 0x1C01 SWAP2 SWAP1 PUSH2 0x65EF JUMP JUMPDEST SWAP1 POP PUSH0 PUSH2 0x1C1F PUSH1 0x40 MLOAD DUP1 PUSH1 0x20 ADD PUSH1 0x40 MSTORE DUP1 PUSH1 0x8 SLOAD DUP2 MSTORE POP DUP5 DUP11 PUSH2 0x34AD JUMP JUMPDEST SWAP1 POP PUSH0 PUSH2 0x1C2D DUP6 DUP10 DUP11 PUSH2 0x34AD JUMP JUMPDEST SWAP1 POP DUP13 PUSH1 0x9 DUP2 SWAP1 SSTORE POP DUP1 PUSH1 0xA DUP2 SWAP1 SSTORE POP DUP3 PUSH1 0xB DUP2 SWAP1 SSTORE POP DUP2 PUSH1 0xC DUP2 SWAP1 SSTORE POP PUSH32 0x4DEC04E750CA11537CABCD8A9EAB06494DE08DA3735BC8871CD41250E190BC04 DUP12 DUP6 DUP4 DUP7 PUSH1 0x40 MLOAD PUSH2 0x1C80 SWAP5 SWAP4 SWAP3 SWAP2 SWAP1 PUSH2 0x5A08 JUMP JUMPDEST PUSH1 0x40 MLOAD DUP1 SWAP2 SUB SWAP1 LOG1 PUSH0 SWAP14 POP POP POP POP POP POP POP POP POP POP POP POP POP POP JUMPDEST SWAP1 JUMP JUMPDEST PUSH0 DUP1 PUSH0 SWAP1 SLOAD SWAP1 PUSH2 0x100 EXP SWAP1 DIV PUSH1 0xFF AND PUSH2 0x1CEA JUMPI PUSH1 0x40 MLOAD PUSH32 0x8C379A000000000000000000000000000000000000000000000000000000000 DUP2 MSTORE PUSH1 0x4 ADD PUSH2 0x1CE1 SWAP1 PUSH2 0x5C1F JUMP JUMPDEST PUSH1 0x40 MLOAD DUP1 SWAP2 SUB SWAP1 REVERT JUMPDEST PUSH0 DUP1 PUSH0 PUSH2 0x100 EXP DUP2 SLOAD DUP2 PUSH1 0xFF MUL NOT AND SWAP1 DUP4 ISZERO ISZERO MUL OR SWAP1 SSTORE POP PUSH0 PUSH2 0x1D0F CALLER CALLER DUP7 DUP7 PUSH2 0x2865 JUMP JUMPDEST EQ SWAP1 POP PUSH1 0x1 PUSH0 DUP1 PUSH2 0x100 EXP DUP2 SLOAD DUP2 PUSH1 0xFF MUL NOT AND SWAP1 DUP4 ISZERO ISZERO MUL OR SWAP1 SSTORE POP SWAP3 SWAP2 POP POP JUMP JUMPDEST PUSH1 0xA SLOAD DUP2 JUMP JUMPDEST PUSH0 PUSH1 0x6 PUSH0 SWAP1 SLOAD SWAP1 PUSH2 0x100 EXP SWAP1 DIV PUSH20 0xFFFFFFFFFFFFFFFFFFFFFFFFFFFFFFFFFFFFFFFF AND PUSH20 0xFFFFFFFFFFFFFFFFFFFFFFFFFFFFFFFFFFFFFFFF AND PUSH4 0xB8168816 PUSH2 0x1D7D PUSH2 0x2D85 JUMP JUMPDEST PUSH1 0xB SLOAD PUSH1 0xC SLOAD PUSH1 0x8 SLOAD PUSH1 0x40 MLOAD DUP6 PUSH4 0xFFFFFFFF AND PUSH1 0xE0 SHL DUP2 MSTORE PUSH1 0x4 ADD PUSH2 0x1DA5 SWAP5 SWAP4 SWAP3 SWAP2 SWAP1 PUSH2 0x5A08 JUMP JUMPDEST PUSH1 0x20 PUSH1 0x40 MLOAD DUP1 DUP4 SUB DUP2 DUP7 GAS STATICCALL ISZERO DUP1 ISZERO PUSH2 0x1DC0 JUMPI RETURNDATASIZE PUSH0 DUP1 RETURNDATACOPY RETURNDATASIZE PUSH0 REVERT JUMPDEST POP POP POP POP PUSH1 0x40 MLOAD RETURNDATASIZE PUSH1 0x1F NOT PUSH1 0x1F DUP3 ADD AND DUP3 ADD DUP1 PUSH1 0x40 MSTORE POP DUP2 ADD SWAP1 PUSH2 0x1DE4 SWAP2 SWAP1 PUSH2 0x5C51 JUMP JUMPDEST SWAP1 POP SWAP1 JUMP JUMPDEST PUSH0 DUP1 PUSH0 SWAP1 SLOAD SWAP1 PUSH2 0x100 EXP SWAP1 DIV PUSH1 0xFF AND PUSH2 0x1E37 JUMPI PUSH1 0x40 MLOAD PUSH32 0x8C379A000000000000000000000000000000000000000000000000000000000 DUP2 MSTORE PUSH1 0x4 ADD PUSH2 0x1E2E SWAP1 PUSH2 0x5C1F JUMP JUMPDEST PUSH1 0x40 MLOAD DUP1 SWAP2 SUB SWAP1 REVERT JUMPDEST PUSH0 DUP1 PUSH0 PUSH2 0x100 EXP DUP2 SLOAD DUP2 PUSH1 0xFF MUL NOT AND SWAP1 DUP4 ISZERO ISZERO MUL OR SWAP1 SSTORE POP PUSH2 0x1E5B CALLER DUP6 DUP6 DUP6 PUSH2 0x34D7 JUMP JUMPDEST PUSH0 SWAP1 POP PUSH1 0x1 PUSH0 DUP1 PUSH2 0x100 EXP DUP2 SLOAD DUP2 PUSH1 0xFF MUL NOT AND SWAP1 DUP4 ISZERO ISZERO MUL OR SWAP1 SSTORE POP SWAP4 SWAP3 POP POP POP JUMP JUMPDEST PUSH0 PUSH1 0x3 PUSH1 0x1 SWAP1 SLOAD SWAP1 PUSH2 0x100 EXP SWAP1 DIV PUSH20 0xFFFFFFFFFFFFFFFFFFFFFFFFFFFFFFFFFFFFFFFF AND PUSH20 0xFFFFFFFFFFFFFFFFFFFFFFFFFFFFFFFFFFFFFFFF AND CALLER PUSH20 0xFFFFFFFFFFFFFFFFFFFFFFFFFFFFFFFFFFFFFFFF AND EQ PUSH2 0x1F06 JUMPI PUSH1 0x40 MLOAD PUSH32 0x5CB56C2B00000000000000000000000000000000000000000000000000000000 DUP2 MSTORE PUSH1 0x4 ADD PUSH1 0x40 MLOAD DUP1 SWAP2 SUB SWAP1 REVERT JUMPDEST PUSH0 PUSH1 0x4 PUSH0 SWAP1 SLOAD SWAP1 PUSH2 0x100 EXP SWAP1 DIV PUSH20 0xFFFFFFFFFFFFFFFFFFFFFFFFFFFFFFFFFFFFFFFF AND SWAP1 POP DUP3 PUSH1 0x4 PUSH0 PUSH2 0x100 EXP DUP2 SLOAD DUP2 PUSH20 0xFFFFFFFFFFFFFFFFFFFFFFFFFFFFFFFFFFFFFFFF MUL NOT AND SWAP1 DUP4 PUSH20 0xFFFFFFFFFFFFFFFFFFFFFFFFFFFFFFFFFFFFFFFF AND MUL OR SWAP1 SSTORE POP PUSH32 0xCA4F2F25D0898EDD99413412FB94012F9E54EC8142F9B093E7720646A95B16A9 DUP2 DUP5 PUSH1 0x40 MLOAD PUSH2 0x1F9C SWAP3 SWAP2 SWAP1 PUSH2 0x6622 JUMP JUMPDEST PUSH1 0x40 MLOAD DUP1 SWAP2 SUB SWAP1 LOG1 PUSH0 SWAP2 POP POP SWAP2 SWAP1 POP JUMP JUMPDEST PUSH0 DUP1 PUSH0 SWAP1 SLOAD SWAP1 PUSH2 0x100 EXP SWAP1 DIV PUSH1 0xFF AND PUSH2 0x1FFB JUMPI PUSH1 0x40 MLOAD PUSH32 0x8C379A000000000000000000000000000000000000000000000000000000000 DUP2 MSTORE PUSH1 0x4 ADD PUSH2 0x1FF2 SWAP1 PUSH2 0x5C1F JUMP JUMPDEST PUSH1 0x40 MLOAD DUP1 SWAP2 SUB SWAP1 REVERT JUMPDEST PUSH0 DUP1 PUSH0 PUSH2 0x100 EXP DUP2 SLOAD DUP2 PUSH1 0xFF MUL NOT AND SWAP1 DUP4 ISZERO ISZERO MUL OR SWAP1 SSTORE POP PUSH2 0x201B PUSH2 0x1A94 JUMP JUMPDEST POP PUSH2 0x2024 PUSH2 0xDFE JUMP JUMPDEST SWAP1 POP PUSH1 0x1 PUSH0 DUP1 PUSH2 0x100 EXP DUP2 SLOAD DUP2 PUSH1 0xFF MUL NOT AND SWAP1 DUP4 ISZERO ISZERO MUL OR SWAP1 SSTORE POP SWAP1 JUMP JUMPDEST PUSH0 DUP1 PUSH0 DUP1 PUSH0 PUSH1 0xE PUSH0 DUP8 PUSH20 0xFFFFFFFFFFFFFFFFFFFFFFFFFFFFFFFFFFFFFFFF AND PUSH20 0xFFFFFFFFFFFFFFFFFFFFFFFFFFFFFFFFFFFFFFFF AND DUP2 MSTORE PUSH1 0x20 ADD SWAP1 DUP2 MSTORE PUSH1 0x20 ADD PUSH0 KECCAK256 SLOAD PUSH2 0x208E DUP8 PUSH2 0x3149 JUMP JUMPDEST PUSH2 0x2096 PUSH2 0x27F6 JUMP JUMPDEST SWAP4 POP SWAP4 POP SWAP4 POP SWAP4 POP SWAP2 SWAP4 POP SWAP2 SWAP4 JUMP JUMPDEST PUSH0 PUSH2 0x20AF DUP3 PUSH2 0x38CD JUMP JUMPDEST PUSH0 SWAP1 POP SWAP2 SWAP1 POP JUMP JUMPDEST PUSH0 DUP3 SWAP1 POP DUP3 PUSH20 0xFFFFFFFFFFFFFFFFFFFFFFFFFFFFFFFFFFFFFFFF AND DUP2 PUSH20 0xFFFFFFFFFFFFFFFFFFFFFFFFFFFFFFFFFFFFFFFF AND EQ PUSH2 0x2129 JUMPI PUSH1 0x40 MLOAD PUSH32 0x8C379A000000000000000000000000000000000000000000000000000000000 DUP2 MSTORE PUSH1 0x4 ADD PUSH2 0x2120 SWAP1 PUSH2 0x66B9 JUMP JUMPDEST PUSH1 0x40 MLOAD DUP1 SWAP2 SUB SWAP1 REVERT JUMPDEST DUP1 PUSH20 0xFFFFFFFFFFFFFFFFFFFFFFFFFFFFFFFFFFFFFFFF AND PUSH4 0xA9059CBB PUSH1 0x12 PUSH0 SWAP1 SLOAD SWAP1 PUSH2 0x100 EXP SWAP1 DIV PUSH20 0xFFFFFFFFFFFFFFFFFFFFFFFFFFFFFFFFFFFFFFFF AND DUP5 PUSH1 0x40 MLOAD DUP4 PUSH4 0xFFFFFFFF AND PUSH1 0xE0 SHL DUP2 MSTORE PUSH1 0x4 ADD PUSH2 0x2185 SWAP3 SWAP2 SWAP1 PUSH2 0x66D7 JUMP JUMPDEST PUSH1 0x20 PUSH1 0x40 MLOAD DUP1 DUP4 SUB DUP2 PUSH0 DUP8 GAS CALL ISZERO DUP1 ISZERO PUSH2 0x21A1 JUMPI RETURNDATASIZE PUSH0 DUP1 RETURNDATACOPY RETURNDATASIZE PUSH0 REVERT JUMPDEST POP POP POP POP PUSH1 0x40 MLOAD RETURNDATASIZE PUSH1 0x1F NOT PUSH1 0x1F DUP3 ADD AND DUP3 ADD DUP1 PUSH1 0x40 MSTORE POP DUP2 ADD SWAP1 PUSH2 0x21C5 SWAP2 SWAP1 PUSH2 0x5E09 JUMP JUMPDEST POP POP POP POP JUMP JUMPDEST PUSH0 PUSH2 0x21D5 DUP3 PUSH2 0x3960 JUMP JUMPDEST PUSH0 SWAP1 POP SWAP2 SWAP1 POP JUMP JUMPDEST PUSH0 PUSH1 0xF PUSH0 DUP5 PUSH20 0xFFFFFFFFFFFFFFFFFFFFFFFFFFFFFFFFFFFFFFFF AND PUSH20 0xFFFFFFFFFFFFFFFFFFFFFFFFFFFFFFFFFFFFFFFF AND DUP2 MSTORE PUSH1 0x20 ADD SWAP1 DUP2 MSTORE PUSH1 0x20 ADD PUSH0 KECCAK256 PUSH0 DUP4 PUSH20 0xFFFFFFFFFFFFFFFFFFFFFFFFFFFFFFFFFFFFFFFF AND PUSH20 0xFFFFFFFFFFFFFFFFFFFFFFFFFFFFFFFFFFFFFFFF AND DUP2 MSTORE PUSH1 0x20 ADD SWAP1 DUP2 MSTORE PUSH1 0x20 ADD PUSH0 KECCAK256 SLOAD SWAP1 POP SWAP3 SWAP2 POP POP JUMP JUMPDEST PUSH0 PUSH1 0x4 PUSH0 SWAP1 SLOAD SWAP1 PUSH2 0x100 EXP SWAP1 DIV PUSH20 0xFFFFFFFFFFFFFFFFFFFFFFFFFFFFFFFFFFFFFFFF AND PUSH20 0xFFFFFFFFFFFFFFFFFFFFFFFFFFFFFFFFFFFFFFFF AND CALLER PUSH20 0xFFFFFFFFFFFFFFFFFFFFFFFFFFFFFFFFFFFFFFFF AND EQ ISZERO DUP1 PUSH2 0x22E7 JUMPI POP PUSH0 PUSH20 0xFFFFFFFFFFFFFFFFFFFFFFFFFFFFFFFFFFFFFFFF AND CALLER PUSH20 0xFFFFFFFFFFFFFFFFFFFFFFFFFFFFFFFFFFFFFFFF AND EQ JUMPDEST ISZERO PUSH2 0x231E JUMPI PUSH1 0x40 MLOAD PUSH32 0x6E893CA400000000000000000000000000000000000000000000000000000000 DUP2 MSTORE PUSH1 0x4 ADD PUSH1 0x40 MLOAD DUP1 SWAP2 SUB SWAP1 REVERT JUMPDEST PUSH0 PUSH1 0x3 PUSH1 0x1 SWAP1 SLOAD SWAP1 PUSH2 0x100 EXP SWAP1 DIV PUSH20 0xFFFFFFFFFFFFFFFFFFFFFFFFFFFFFFFFFFFFFFFF AND SWAP1 POP PUSH0 PUSH1 0x4 PUSH0 SWAP1 SLOAD SWAP1 PUSH2 0x100 EXP SWAP1 DIV PUSH20 0xFFFFFFFFFFFFFFFFFFFFFFFFFFFFFFFFFFFFFFFF AND SWAP1 POP PUSH1 0x4 PUSH0 SWAP1 SLOAD SWAP1 PUSH2 0x100 EXP SWAP1 DIV PUSH20 0xFFFFFFFFFFFFFFFFFFFFFFFFFFFFFFFFFFFFFFFF AND PUSH1 0x3 PUSH1 0x1 PUSH2 0x100 EXP DUP2 SLOAD DUP2 PUSH20 0xFFFFFFFFFFFFFFFFFFFFFFFFFFFFFFFFFFFFFFFF MUL NOT AND SWAP1 DUP4 PUSH20 0xFFFFFFFFFFFFFFFFFFFFFFFFFFFFFFFFFFFFFFFF AND MUL OR SWAP1 SSTORE POP PUSH0 PUSH1 0x4 PUSH0 PUSH2 0x100 EXP DUP2 SLOAD DUP2 PUSH20 0xFFFFFFFFFFFFFFFFFFFFFFFFFFFFFFFFFFFFFFFF MUL NOT AND SWAP1 DUP4 PUSH20 0xFFFFFFFFFFFFFFFFFFFFFFFFFFFFFFFFFFFFFFFF AND MUL OR SWAP1 SSTORE POP PUSH32 0xF9FFABCA9C8276E99321725BCB43FB076A6C66A54B7F21C4E8146D8519B417DC DUP3 PUSH1 0x3 PUSH1 0x1 SWAP1 SLOAD SWAP1 PUSH2 0x100 EXP SWAP1 DIV PUSH20 0xFFFFFFFFFFFFFFFFFFFFFFFFFFFFFFFFFFFFFFFF AND PUSH1 0x40 MLOAD PUSH2 0x245E SWAP3 SWAP2 SWAP1 PUSH2 0x6622 JUMP JUMPDEST PUSH1 0x40 MLOAD DUP1 SWAP2 SUB SWAP1 LOG1 PUSH32 0xCA4F2F25D0898EDD99413412FB94012F9E54EC8142F9B093E7720646A95B16A9 DUP2 PUSH1 0x4 PUSH0 SWAP1 SLOAD SWAP1 PUSH2 0x100 EXP SWAP1 DIV PUSH20 0xFFFFFFFFFFFFFFFFFFFFFFFFFFFFFFFFFFFFFFFF AND PUSH1 0x40 MLOAD PUSH2 0x24B8 SWAP3 SWAP2 SWAP1 PUSH2 0x6622 JUMP JUMPDEST PUSH1 0x40 MLOAD DUP1 SWAP2 SUB SWAP1 LOG1 PUSH0 SWAP3 POP POP POP SWAP1 JUMP JUMPDEST PUSH0 PUSH2 0x24D1 PUSH2 0x1A94 JUMP JUMPDEST POP PUSH2 0x24DB DUP3 PUSH2 0x31D2 JUMP JUMPDEST SWAP1 POP SWAP2 SWAP1 POP JUMP JUMPDEST PUSH1 0x6 PUSH0 SWAP1 SLOAD SWAP1 PUSH2 0x100 EXP SWAP1 DIV PUSH20 0xFFFFFFFFFFFFFFFFFFFFFFFFFFFFFFFFFFFFFFFF AND DUP2 JUMP JUMPDEST PUSH1 0x3 PUSH1 0x1 SWAP1 SLOAD SWAP1 PUSH2 0x100 EXP SWAP1 DIV PUSH20 0xFFFFFFFFFFFFFFFFFFFFFFFFFFFFFFFFFFFFFFFF AND PUSH20 0xFFFFFFFFFFFFFFFFFFFFFFFFFFFFFFFFFFFFFFFF AND CALLER PUSH20 0xFFFFFFFFFFFFFFFFFFFFFFFFFFFFFFFFFFFFFFFF AND EQ PUSH2 0x2597 JUMPI PUSH1 0x40 MLOAD PUSH32 0x8C379A000000000000000000000000000000000000000000000000000000000 DUP2 MSTORE PUSH1 0x4 ADD PUSH2 0x258E SWAP1 PUSH2 0x676E JUMP JUMPDEST PUSH1 0x40 MLOAD DUP1 SWAP2 SUB SWAP1 REVERT JUMPDEST DUP1 PUSH1 0x12 PUSH0 PUSH2 0x100 EXP DUP2 SLOAD DUP2 PUSH20 0xFFFFFFFFFFFFFFFFFFFFFFFFFFFFFFFFFFFFFFFF MUL NOT AND SWAP1 DUP4 PUSH20 0xFFFFFFFFFFFFFFFFFFFFFFFFFFFFFFFFFFFFFFFF AND MUL OR SWAP1 SSTORE POP POP JUMP JUMPDEST PUSH0 PUSH2 0x25E6 DUP5 DUP5 DUP5 PUSH2 0x39F4 JUMP JUMPDEST PUSH0 SWAP1 POP SWAP4 SWAP3 POP POP POP JUMP JUMPDEST PUSH1 0x3 PUSH1 0x1 SWAP1 SLOAD SWAP1 PUSH2 0x100 EXP SWAP1 DIV PUSH20 0xFFFFFFFFFFFFFFFFFFFFFFFFFFFFFFFFFFFFFFFF AND DUP2 JUMP JUMPDEST PUSH0 PUSH1 0x6 PUSH0 SWAP1 SLOAD SWAP1 PUSH2 0x100 EXP SWAP1 DIV PUSH20 0xFFFFFFFFFFFFFFFFFFFFFFFFFFFFFFFFFFFFFFFF AND PUSH20 0xFFFFFFFFFFFFFFFFFFFFFFFFFFFFFFFFFFFFFFFF AND PUSH4 0x15F24053 PUSH2 0x265C PUSH2 0x2D85 JUMP JUMPDEST PUSH1 0xB SLOAD PUSH1 0xC SLOAD PUSH1 0x40 MLOAD DUP5 PUSH4 0xFFFFFFFF AND PUSH1 0xE0 SHL DUP2 MSTORE PUSH1 0x4 ADD PUSH2 0x2680 SWAP4 SWAP3 SWAP2 SWAP1 PUSH2 0x651F JUMP JUMPDEST PUSH1 0x20 PUSH1 0x40 MLOAD DUP1 DUP4 SUB DUP2 DUP7 GAS STATICCALL ISZERO DUP1 ISZERO PUSH2 0x269B JUMPI RETURNDATASIZE PUSH0 DUP1 RETURNDATACOPY RETURNDATASIZE PUSH0 REVERT JUMPDEST POP POP POP POP PUSH1 0x40 MLOAD RETURNDATASIZE PUSH1 0x1F NOT PUSH1 0x1F DUP3 ADD AND DUP3 ADD DUP1 PUSH1 0x40 MSTORE POP DUP2 ADD SWAP1 PUSH2 0x26BF SWAP2 SWAP1 PUSH2 0x5C51 JUMP JUMPDEST SWAP1 POP SWAP1 JUMP JUMPDEST PUSH0 DUP1 PUSH0 SWAP1 SLOAD SWAP1 PUSH2 0x100 EXP SWAP1 DIV PUSH1 0xFF AND PUSH2 0x2712 JUMPI PUSH1 0x40 MLOAD PUSH32 0x8C379A000000000000000000000000000000000000000000000000000000000 DUP2 MSTORE PUSH1 0x4 ADD PUSH2 0x2709 SWAP1 PUSH2 0x5C1F JUMP JUMPDEST PUSH1 0x40 MLOAD DUP1 SWAP2 SUB SWAP1 REVERT JUMPDEST PUSH0 DUP1 PUSH0 PUSH2 0x100 EXP DUP2 SLOAD DUP2 PUSH1 0xFF MUL NOT AND SWAP1 DUP4 ISZERO ISZERO MUL OR SWAP1 SSTORE POP PUSH2 0x2732 PUSH2 0x1A94 JUMP JUMPDEST POP PUSH2 0x273C DUP3 PUSH2 0x3B41 JUMP JUMPDEST SWAP1 POP PUSH1 0x1 PUSH0 DUP1 PUSH2 0x100 EXP DUP2 SLOAD DUP2 PUSH1 0xFF MUL NOT AND SWAP1 DUP4 ISZERO ISZERO MUL OR SWAP1 SSTORE POP SWAP2 SWAP1 POP JUMP JUMPDEST PUSH1 0x1 DUP2 JUMP JUMPDEST PUSH0 DUP1 SLOAD SWAP1 PUSH2 0x100 EXP SWAP1 DIV PUSH1 0xFF AND PUSH2 0x27AD JUMPI PUSH1 0x40 MLOAD PUSH32 0x8C379A000000000000000000000000000000000000000000000000000000000 DUP2 MSTORE PUSH1 0x4 ADD PUSH2 0x27A4 SWAP1 PUSH2 0x5C1F JUMP JUMPDEST PUSH1 0x40 MLOAD DUP1 SWAP2 SUB SWAP1 REVERT JUMPDEST PUSH0 DUP1 PUSH0 PUSH2 0x100 EXP DUP2 SLOAD DUP2 PUSH1 0xFF MUL NOT AND SWAP1 DUP4 ISZERO ISZERO MUL OR SWAP1 SSTORE POP PUSH2 0x27CD PUSH2 0x1A94 JUMP JUMPDEST POP PUSH2 0x27D9 CALLER CALLER DUP4 PUSH2 0x3C9C JUMP JUMPDEST POP PUSH1 0x1 PUSH0 DUP1 PUSH2 0x100 EXP DUP2 SLOAD DUP2 PUSH1 0xFF MUL NOT AND SWAP1 DUP4 ISZERO ISZERO MUL OR SWAP1 SSTORE POP POP JUMP JUMPDEST PUSH0 DUP1 PUSH1 0xD SLOAD SWAP1 POP PUSH0 DUP2 SUB PUSH2 0x280F JUMPI PUSH1 0x7 SLOAD SWAP2 POP POP PUSH2 0x2862 JUMP JUMPDEST PUSH0 PUSH2 0x2818 PUSH2 0x2D85 JUMP JUMPDEST SWAP1 POP PUSH0 PUSH1 0xC SLOAD PUSH1 0xB SLOAD DUP4 PUSH2 0x282C SWAP2 SWAP1 PUSH2 0x65EF JUMP JUMPDEST PUSH2 0x2836 SWAP2 SWAP1 PUSH2 0x65BC JUMP JUMPDEST SWAP1 POP PUSH0 DUP4 PUSH8 0xDE0B6B3A7640000 DUP4 PUSH2 0x284E SWAP2 SWAP1 PUSH2 0x6481 JUMP JUMPDEST PUSH2 0x2858 SWAP2 SWAP1 PUSH2 0x64EF JUMP JUMPDEST SWAP1 POP DUP1 SWAP5 POP POP POP POP POP JUMPDEST SWAP1 JUMP JUMPDEST PUSH0 DUP1 PUSH1 0x5 PUSH0 SWAP1 SLOAD SWAP1 PUSH2 0x100 EXP SWAP1 DIV PUSH20 0xFFFFFFFFFFFFFFFFFFFFFFFFFFFFFFFFFFFFFFFF AND PUSH20 0xFFFFFFFFFFFFFFFFFFFFFFFFFFFFFFFFFFFFFFFF AND PUSH4 0xBDCDC258 ADDRESS DUP8 DUP8 DUP8 PUSH1 0x40 MLOAD DUP6 PUSH4 0xFFFFFFFF AND PUSH1 0xE0 SHL DUP2 MSTORE PUSH1 0x4 ADD PUSH2 0x28C7 SWAP5 SWAP4 SWAP3 SWAP2 SWAP1 PUSH2 0x678C JUMP JUMPDEST PUSH1 0x20 PUSH1 0x40 MLOAD DUP1 DUP4 SUB DUP2 PUSH0 DUP8 GAS CALL ISZERO DUP1 ISZERO PUSH2 0x28E3 JUMPI RETURNDATASIZE PUSH0 DUP1 RETURNDATACOPY RETURNDATASIZE PUSH0 REVERT JUMPDEST POP POP POP POP PUSH1 0x40 MLOAD RETURNDATASIZE PUSH1 0x1F NOT PUSH1 0x1F DUP3 ADD AND DUP3 ADD DUP1 PUSH1 0x40 MSTORE POP DUP2 ADD SWAP1 PUSH2 0x2907 SWAP2 SWAP1 PUSH2 0x5C51 JUMP JUMPDEST SWAP1 POP PUSH0 DUP2 EQ PUSH2 0x294D JUMPI DUP1 PUSH1 0x40 MLOAD PUSH32 0x113A84EE00000000000000000000000000000000000000000000000000000000 DUP2 MSTORE PUSH1 0x4 ADD PUSH2 0x2944 SWAP2 SWAP1 PUSH2 0x544B JUMP JUMPDEST PUSH1 0x40 MLOAD DUP1 SWAP2 SUB SWAP1 REVERT JUMPDEST DUP4 PUSH20 0xFFFFFFFFFFFFFFFFFFFFFFFFFFFFFFFFFFFFFFFF AND DUP6 PUSH20 0xFFFFFFFFFFFFFFFFFFFFFFFFFFFFFFFFFFFFFFFF AND SUB PUSH2 0x29B2 JUMPI PUSH1 0x40 MLOAD PUSH32 0x8CD22D1900000000000000000000000000000000000000000000000000000000 DUP2 MSTORE PUSH1 0x4 ADD PUSH1 0x40 MLOAD DUP1 SWAP2 SUB SWAP1 REVERT JUMPDEST PUSH0 DUP6 PUSH20 0xFFFFFFFFFFFFFFFFFFFFFFFFFFFFFFFFFFFFFFFF AND DUP8 PUSH20 0xFFFFFFFFFFFFFFFFFFFFFFFFFFFFFFFFFFFFFFFF AND SUB PUSH2 0x2A0E JUMPI PUSH32 0xFFFFFFFFFFFFFFFFFFFFFFFFFFFFFFFFFFFFFFFFFFFFFFFFFFFFFFFFFFFFFFFF SWAP1 POP PUSH2 0x2A8A JUMP JUMPDEST PUSH1 0xF PUSH0 DUP8 PUSH20 0xFFFFFFFFFFFFFFFFFFFFFFFFFFFFFFFFFFFFFFFF AND PUSH20 0xFFFFFFFFFFFFFFFFFFFFFFFFFFFFFFFFFFFFFFFF AND DUP2 MSTORE PUSH1 0x20 ADD SWAP1 DUP2 MSTORE PUSH1 0x20 ADD PUSH0 KECCAK256 PUSH0 DUP9 PUSH20 0xFFFFFFFFFFFFFFFFFFFFFFFFFFFFFFFFFFFFFFFF AND PUSH20 0xFFFFFFFFFFFFFFFFFFFFFFFFFFFFFFFFFFFFFFFF AND DUP2 MSTORE PUSH1 0x20 ADD SWAP1 DUP2 MSTORE PUSH1 0x20 ADD PUSH0 KECCAK256 SLOAD SWAP1 POP JUMPDEST PUSH0 DUP5 DUP3 PUSH2 0x2A97 SWAP2 SWAP1 PUSH2 0x65BC JUMP JUMPDEST SWAP1 POP PUSH0 DUP6 PUSH1 0xE PUSH0 DUP11 PUSH20 0xFFFFFFFFFFFFFFFFFFFFFFFFFFFFFFFFFFFFFFFF AND PUSH20 0xFFFFFFFFFFFFFFFFFFFFFFFFFFFFFFFFFFFFFFFF AND DUP2 MSTORE PUSH1 0x20 ADD SWAP1 DUP2 MSTORE PUSH1 0x20 ADD PUSH0 KECCAK256 SLOAD PUSH2 0x2AE3 SWAP2 SWAP1 PUSH2 0x65BC JUMP JUMPDEST SWAP1 POP PUSH0 DUP7 PUSH1 0xE PUSH0 DUP11 PUSH20 0xFFFFFFFFFFFFFFFFFFFFFFFFFFFFFFFFFFFFFFFF AND PUSH20 0xFFFFFFFFFFFFFFFFFFFFFFFFFFFFFFFFFFFFFFFF AND DUP2 MSTORE PUSH1 0x20 ADD SWAP1 DUP2 MSTORE PUSH1 0x20 ADD PUSH0 KECCAK256 SLOAD PUSH2 0x2B2F SWAP2 SWAP1 PUSH2 0x65EF JUMP JUMPDEST SWAP1 POP DUP2 PUSH1 0xE PUSH0 DUP12 PUSH20 0xFFFFFFFFFFFFFFFFFFFFFFFFFFFFFFFFFFFFFFFF AND PUSH20 0xFFFFFFFFFFFFFFFFFFFFFFFFFFFFFFFFFFFFFFFF AND DUP2 MSTORE PUSH1 0x20 ADD SWAP1 DUP2 MSTORE PUSH1 0x20 ADD PUSH0 KECCAK256 DUP2 SWAP1 SSTORE POP DUP1 PUSH1 0xE PUSH0 DUP11 PUSH20 0xFFFFFFFFFFFFFFFFFFFFFFFFFFFFFFFFFFFFFFFF AND PUSH20 0xFFFFFFFFFFFFFFFFFFFFFFFFFFFFFFFFFFFFFFFF AND DUP2 MSTORE PUSH1 0x20 ADD SWAP1 DUP2 MSTORE PUSH1 0x20 ADD PUSH0 KECCAK256 DUP2 SWAP1 SSTORE POP PUSH32 0xFFFFFFFFFFFFFFFFFFFFFFFFFFFFFFFFFFFFFFFFFFFFFFFFFFFFFFFFFFFFFFFF DUP5 EQ PUSH2 0x2C5A JUMPI DUP3 PUSH1 0xF PUSH0 DUP12 PUSH20 0xFFFFFFFFFFFFFFFFFFFFFFFFFFFFFFFFFFFFFFFF AND PUSH20 0xFFFFFFFFFFFFFFFFFFFFFFFFFFFFFFFFFFFFFFFF AND DUP2 MSTORE PUSH1 0x20 ADD SWAP1 DUP2 MSTORE PUSH1 0x20 ADD PUSH0 KECCAK256 PUSH0 DUP13 PUSH20 0xFFFFFFFFFFFFFFFFFFFFFFFFFFFFFFFFFFFFFFFF AND PUSH20 0xFFFFFFFFFFFFFFFFFFFFFFFFFFFFFFFFFFFFFFFF AND DUP2 MSTORE PUSH1 0x20 ADD SWAP1 DUP2 MSTORE PUSH1 0x20 ADD PUSH0 KECCAK256 DUP2 SWAP1 SSTORE POP JUMPDEST DUP8 PUSH20 0xFFFFFFFFFFFFFFFFFFFFFFFFFFFFFFFFFFFFFFFF AND DUP10 PUSH20 0xFFFFFFFFFFFFFFFFFFFFFFFFFFFFFFFFFFFFFFFF AND PUSH32 0xDDF252AD1BE2C89B69C2B068FC378DAA952BA7F163C4A11628F55A4DF523B3EF DUP10 PUSH1 0x40 MLOAD PUSH2 0x2CB7 SWAP2 SWAP1 PUSH2 0x544B JUMP JUMPDEST PUSH1 0x40 MLOAD DUP1 SWAP2 SUB SWAP1 LOG3 PUSH0 SWAP6 POP POP POP POP POP POP SWAP5 SWAP4 POP POP POP POP JUMP JUMPDEST PUSH0 DUP1 SLOAD SWAP1 PUSH2 0x100 EXP SWAP1 DIV PUSH1 0xFF AND PUSH2 0x2D1B JUMPI PUSH1 0x40 MLOAD PUSH32 0x8C379A000000000000000000000000000000000000000000000000000000000 DUP2 MSTORE PUSH1 0x4 ADD PUSH2 0x2D12 SWAP1 PUSH2 0x5C1F JUMP JUMPDEST PUSH1 0x40 MLOAD DUP1 SWAP2 SUB SWAP1 REVERT JUMPDEST PUSH0 DUP1 PUSH0 PUSH2 0x100 EXP DUP2 SLOAD DUP2 PUSH1 0xFF MUL NOT AND SWAP1 DUP4 ISZERO ISZERO MUL OR SWAP1 SSTORE POP PUSH2 0x2D3B PUSH2 0x1A94 JUMP JUMPDEST POP PUSH2 0x2D47 CALLER DUP4 DUP4 PUSH2 0x3C9C JUMP JUMPDEST POP PUSH1 0x1 PUSH0 DUP1 PUSH2 0x100 EXP DUP2 SLOAD DUP2 PUSH1 0xFF MUL NOT AND SWAP1 DUP4 ISZERO ISZERO MUL OR SWAP1 SSTORE POP POP POP JUMP JUMPDEST PUSH0 DUP1 PUSH2 0x2D71 DUP5 DUP5 PUSH2 0x3482 JUMP JUMPDEST SWAP1 POP PUSH2 0x2D7C DUP2 PUSH2 0x3F12 JUMP JUMPDEST SWAP2 POP POP SWAP3 SWAP2 POP POP JUMP JUMPDEST PUSH0 DUP1 PUSH1 0x11 PUSH0 SWAP1 SLOAD SWAP1 PUSH2 0x100 EXP SWAP1 DIV PUSH20 0xFFFFFFFFFFFFFFFFFFFFFFFFFFFFFFFFFFFFFFFF AND SWAP1 POP DUP1 PUSH20 0xFFFFFFFFFFFFFFFFFFFFFFFFFFFFFFFFFFFFFFFF AND PUSH4 0x70A08231 ADDRESS PUSH1 0x40 MLOAD DUP3 PUSH4 0xFFFFFFFF AND PUSH1 0xE0 SHL DUP2 MSTORE PUSH1 0x4 ADD PUSH2 0x2DE4 SWAP2 SWAP1 PUSH2 0x5289 JUMP JUMPDEST PUSH1 0x20 PUSH1 0x40 MLOAD DUP1 DUP4 SUB DUP2 DUP7 GAS STATICCALL ISZERO DUP1 ISZERO PUSH2 0x2DFF JUMPI RETURNDATASIZE PUSH0 DUP1 RETURNDATACOPY RETURNDATASIZE PUSH0 REVERT JUMPDEST POP POP POP POP PUSH1 0x40 MLOAD RETURNDATASIZE PUSH1 0x1F NOT PUSH1 0x1F DUP3 ADD AND DUP3 ADD DUP1 PUSH1 0x40 MSTORE POP DUP2 ADD SWAP1 PUSH2 0x2E23 SWAP2 SWAP1 PUSH2 0x5C51 JUMP JUMPDEST SWAP2 POP POP SWAP1 JUMP JUMPDEST PUSH0 DUP1 PUSH0 SWAP1 SLOAD SWAP1 PUSH2 0x100 EXP SWAP1 DIV PUSH1 0xFF AND PUSH2 0x2E77 JUMPI PUSH1 0x40 MLOAD PUSH32 0x8C379A000000000000000000000000000000000000000000000000000000000 DUP2 MSTORE PUSH1 0x4 ADD PUSH2 0x2E6E SWAP1 PUSH2 0x5C1F JUMP JUMPDEST PUSH1 0x40 MLOAD DUP1 SWAP2 SUB SWAP1 REVERT JUMPDEST PUSH0 DUP1 PUSH0 PUSH2 0x100 EXP DUP2 SLOAD DUP2 PUSH1 0xFF MUL NOT AND SWAP1 DUP4 ISZERO ISZERO MUL OR SWAP1 SSTORE POP PUSH2 0x2E97 PUSH2 0x1A94 JUMP JUMPDEST POP PUSH2 0x2EA1 DUP3 PUSH2 0x3F31 JUMP JUMPDEST POP POP PUSH0 SWAP1 POP PUSH1 0x1 PUSH0 DUP1 PUSH2 0x100 EXP DUP2 SLOAD DUP2 PUSH1 0xFF MUL NOT AND SWAP1 DUP4 ISZERO ISZERO MUL OR SWAP1 SSTORE POP SWAP2 SWAP1 POP JUMP JUMPDEST PUSH0 DUP1 PUSH1 0x3 PUSH1 0x1 SWAP1 SLOAD SWAP1 PUSH2 0x100 EXP SWAP1 DIV PUSH20 0xFFFFFFFFFFFFFFFFFFFFFFFFFFFFFFFFFFFFFFFF AND PUSH20 0xFFFFFFFFFFFFFFFFFFFFFFFFFFFFFFFFFFFFFFFF AND CALLER PUSH20 0xFFFFFFFFFFFFFFFFFFFFFFFFFFFFFFFFFFFFFFFF AND EQ PUSH2 0x2F4D JUMPI PUSH1 0x40 MLOAD PUSH32 0xF7E5E6D000000000000000000000000000000000000000000000000000000000 DUP2 MSTORE PUSH1 0x4 ADD PUSH1 0x40 MLOAD DUP1 SWAP2 SUB SWAP1 REVERT JUMPDEST PUSH2 0x2F55 PUSH2 0x31CB JUMP JUMPDEST PUSH1 0x9 SLOAD EQ PUSH2 0x2F8F JUMPI PUSH1 0x40 MLOAD PUSH32 0xDFF50CB000000000000000000000000000000000000000000000000000000000 DUP2 MSTORE PUSH1 0x4 ADD PUSH1 0x40 MLOAD DUP1 SWAP2 SUB SWAP1 REVERT JUMPDEST DUP3 PUSH2 0x2F98 PUSH2 0x2D85 JUMP JUMPDEST LT ISZERO PUSH2 0x2FD0 JUMPI PUSH1 0x40 MLOAD PUSH32 0x3345E99900000000000000000000000000000000000000000000000000000000 DUP2 MSTORE PUSH1 0x4 ADD PUSH1 0x40 MLOAD DUP1 SWAP2 SUB SWAP1 REVERT JUMPDEST PUSH1 0xC SLOAD DUP4 GT ISZERO PUSH2 0x300C JUMPI PUSH1 0x40 MLOAD PUSH32 0xF1A5300A00000000000000000000000000000000000000000000000000000000 DUP2 MSTORE PUSH1 0x4 ADD PUSH1 0x40 MLOAD DUP1 SWAP2 SUB SWAP1 REVERT JUMPDEST DUP3 PUSH1 0xC SLOAD PUSH2 0x301A SWAP2 SWAP1 PUSH2 0x65BC JUMP JUMPDEST SWAP1 POP DUP1 PUSH1 0xC DUP2 SWAP1 SSTORE POP PUSH2 0x304F PUSH1 0x3 PUSH1 0x1 SWAP1 SLOAD SWAP1 PUSH2 0x100 EXP SWAP1 DIV PUSH20 0xFFFFFFFFFFFFFFFFFFFFFFFFFFFFFFFFFFFFFFFF AND DUP5 PUSH2 0x3FED JUMP JUMPDEST PUSH32 0x3BAD0C59CF2F06E7314077049F48A93578CD16F5EF92329F1DAB1420A99C177E PUSH1 0x3 PUSH1 0x1 SWAP1 SLOAD SWAP1 PUSH2 0x100 EXP SWAP1 DIV PUSH20 0xFFFFFFFFFFFFFFFFFFFFFFFFFFFFFFFFFFFFFFFF AND DUP5 DUP4 PUSH1 0x40 MLOAD PUSH2 0x30A4 SWAP4 SWAP3 SWAP2 SWAP1 PUSH2 0x67CF JUMP JUMPDEST PUSH1 0x40 MLOAD DUP1 SWAP2 SUB SWAP1 LOG1 PUSH0 SWAP2 POP POP SWAP2 SWAP1 POP JUMP JUMPDEST PUSH0 DUP1 SLOAD SWAP1 PUSH2 0x100 EXP SWAP1 DIV PUSH1 0xFF AND PUSH2 0x3101 JUMPI PUSH1 0x40 MLOAD PUSH32 0x8C379A000000000000000000000000000000000000000000000000000000000 DUP2 MSTORE PUSH1 0x4 ADD PUSH2 0x30F8 SWAP1 PUSH2 0x5C1F JUMP JUMPDEST PUSH1 0x40 MLOAD DUP1 SWAP2 SUB SWAP1 REVERT JUMPDEST PUSH0 DUP1 PUSH0 PUSH2 0x100 EXP DUP2 SLOAD DUP2 PUSH1 0xFF MUL NOT AND SWAP1 DUP4 ISZERO ISZERO MUL OR SWAP1 SSTORE POP PUSH2 0x3121 PUSH2 0x1A94 JUMP JUMPDEST POP PUSH2 0x312D CALLER PUSH0 DUP4 PUSH2 0x40E9 JUMP JUMPDEST PUSH1 0x1 PUSH0 DUP1 PUSH2 0x100 EXP DUP2 SLOAD DUP2 PUSH1 0xFF MUL NOT AND SWAP1 DUP4 ISZERO ISZERO MUL OR SWAP1 SSTORE POP POP JUMP JUMPDEST PUSH0 DUP1 PUSH1 0x10 PUSH0 DUP5 PUSH20 0xFFFFFFFFFFFFFFFFFFFFFFFFFFFFFFFFFFFFFFFF AND PUSH20 0xFFFFFFFFFFFFFFFFFFFFFFFFFFFFFFFFFFFFFFFF AND DUP2 MSTORE PUSH1 0x20 ADD SWAP1 DUP2 MSTORE PUSH1 0x20 ADD PUSH0 KECCAK256 SWAP1 POP PUSH0 DUP2 PUSH0 ADD SLOAD SUB PUSH2 0x319D JUMPI PUSH0 SWAP2 POP POP PUSH2 0x31C6 JUMP JUMPDEST PUSH0 PUSH1 0xA SLOAD DUP3 PUSH0 ADD SLOAD PUSH2 0x31AF SWAP2 SWAP1 PUSH2 0x6481 JUMP JUMPDEST SWAP1 POP DUP2 PUSH1 0x1 ADD SLOAD DUP2 PUSH2 0x31C1 SWAP2 SWAP1 PUSH2 0x64EF JUMP JUMPDEST SWAP3 POP POP POP JUMPDEST SWAP2 SWAP1 POP JUMP JUMPDEST PUSH0 NUMBER SWAP1 POP SWAP1 JUMP JUMPDEST PUSH0 DUP1 PUSH1 0x3 PUSH1 0x1 SWAP1 SLOAD SWAP1 PUSH2 0x100 EXP SWAP1 DIV PUSH20 0xFFFFFFFFFFFFFFFFFFFFFFFFFFFFFFFFFFFFFFFF AND PUSH20 0xFFFFFFFFFFFFFFFFFFFFFFFFFFFFFFFFFFFFFFFF AND CALLER PUSH20 0xFFFFFFFFFFFFFFFFFFFFFFFFFFFFFFFFFFFFFFFF AND EQ PUSH2 0x325B JUMPI PUSH1 0x40 MLOAD PUSH32 0x407FDED500000000000000000000000000000000000000000000000000000000 DUP2 MSTORE PUSH1 0x4 ADD PUSH1 0x40 MLOAD DUP1 SWAP2 SUB SWAP1 REVERT JUMPDEST PUSH2 0x3263 PUSH2 0x31CB JUMP JUMPDEST PUSH1 0x9 SLOAD EQ PUSH2 0x329D JUMPI PUSH1 0x40 MLOAD PUSH32 0x17C54B9600000000000000000000000000000000000000000000000000000000 DUP2 MSTORE PUSH1 0x4 ADD PUSH1 0x40 MLOAD DUP1 SWAP2 SUB SWAP1 REVERT JUMPDEST PUSH1 0x6 PUSH0 SWAP1 SLOAD SWAP1 PUSH2 0x100 EXP SWAP1 DIV PUSH20 0xFFFFFFFFFFFFFFFFFFFFFFFFFFFFFFFFFFFFFFFF AND SWAP1 POP DUP3 PUSH20 0xFFFFFFFFFFFFFFFFFFFFFFFFFFFFFFFFFFFFFFFF AND PUSH4 0x2191F92A PUSH1 0x40 MLOAD DUP2 PUSH4 0xFFFFFFFF AND PUSH1 0xE0 SHL DUP2 MSTORE PUSH1 0x4 ADD PUSH1 0x20 PUSH1 0x40 MLOAD DUP1 DUP4 SUB DUP2 DUP7 GAS STATICCALL ISZERO DUP1 ISZERO PUSH2 0x330A JUMPI RETURNDATASIZE PUSH0 DUP1 RETURNDATACOPY RETURNDATASIZE PUSH0 REVERT JUMPDEST POP POP POP POP PUSH1 0x40 MLOAD RETURNDATASIZE PUSH1 0x1F NOT PUSH1 0x1F DUP3 ADD AND DUP3 ADD DUP1 PUSH1 0x40 MSTORE POP DUP2 ADD SWAP1 PUSH2 0x332E SWAP2 SWAP1 PUSH2 0x5E09 JUMP JUMPDEST PUSH2 0x336D JUMPI PUSH1 0x40 MLOAD PUSH32 0x8C379A000000000000000000000000000000000000000000000000000000000 DUP2 MSTORE PUSH1 0x4 ADD PUSH2 0x3364 SWAP1 PUSH2 0x5E7E JUMP JUMPDEST PUSH1 0x40 MLOAD DUP1 SWAP2 SUB SWAP1 REVERT JUMPDEST DUP3 PUSH1 0x6 PUSH0 PUSH2 0x100 EXP DUP2 SLOAD DUP2 PUSH20 0xFFFFFFFFFFFFFFFFFFFFFFFFFFFFFFFFFFFFFFFF MUL NOT AND SWAP1 DUP4 PUSH20 0xFFFFFFFFFFFFFFFFFFFFFFFFFFFFFFFFFFFFFFFF AND MUL OR SWAP1 SSTORE POP PUSH32 0xEDFFC32E068C7C95DFD4BDFD5C4D939A084D6B11C4199EAC8436ED234D72F926 DUP2 DUP5 PUSH1 0x40 MLOAD PUSH2 0x33DE SWAP3 SWAP2 SWAP1 PUSH2 0x6804 JUMP JUMPDEST PUSH1 0x40 MLOAD DUP1 SWAP2 SUB SWAP1 LOG1 PUSH0 SWAP2 POP POP SWAP2 SWAP1 POP JUMP JUMPDEST PUSH0 DUP1 SLOAD SWAP1 PUSH2 0x100 EXP SWAP1 DIV PUSH1 0xFF AND PUSH2 0x343B JUMPI PUSH1 0x40 MLOAD PUSH32 0x8C379A000000000000000000000000000000000000000000000000000000000 DUP2 MSTORE PUSH1 0x4 ADD PUSH2 0x3432 SWAP1 PUSH2 0x5C1F JUMP JUMPDEST PUSH1 0x40 MLOAD DUP1 SWAP2 SUB SWAP1 REVERT JUMPDEST PUSH0 DUP1 PUSH0 PUSH2 0x100 EXP DUP2 SLOAD DUP2 PUSH1 0xFF MUL NOT AND SWAP1 DUP4 ISZERO ISZERO MUL OR SWAP1 SSTORE POP PUSH2 0x345B PUSH2 0x1A94 JUMP JUMPDEST POP PUSH2 0x3466 CALLER DUP3 PUSH2 0x44C2 JUMP JUMPDEST PUSH1 0x1 PUSH0 DUP1 PUSH2 0x100 EXP DUP2 SLOAD DUP2 PUSH1 0xFF MUL NOT AND SWAP1 DUP4 ISZERO ISZERO MUL OR SWAP1 SSTORE POP POP JUMP JUMPDEST PUSH2 0x348A PUSH2 0x5238 JUMP JUMPDEST PUSH1 0x40 MLOAD DUP1 PUSH1 0x20 ADD PUSH1 0x40 MSTORE DUP1 PUSH2 0x34A2 DUP6 PUSH0 ADD MLOAD DUP6 PUSH2 0x4762 JUMP JUMPDEST DUP2 MSTORE POP SWAP1 POP SWAP3 SWAP2 POP POP JUMP JUMPDEST PUSH0 DUP1 PUSH2 0x34B9 DUP6 DUP6 PUSH2 0x3482 JUMP JUMPDEST SWAP1 POP PUSH2 0x34CD PUSH2 0x34C7 DUP3 PUSH2 0x3F12 JUMP JUMPDEST DUP5 PUSH2 0x4777 JUMP JUMPDEST SWAP2 POP POP SWAP4 SWAP3 POP POP POP JUMP JUMPDEST PUSH0 PUSH1 0x5 PUSH0 SWAP1 SLOAD SWAP1 PUSH2 0x100 EXP SWAP1 DIV PUSH20 0xFFFFFFFFFFFFFFFFFFFFFFFFFFFFFFFFFFFFFFFF AND PUSH20 0xFFFFFFFFFFFFFFFFFFFFFFFFFFFFFFFFFFFFFFFF AND PUSH4 0xD02F7351 ADDRESS DUP8 DUP8 DUP8 DUP8 PUSH1 0x40 MLOAD DUP7 PUSH4 0xFFFFFFFF AND PUSH1 0xE0 SHL DUP2 MSTORE PUSH1 0x4 ADD PUSH2 0x353A SWAP6 SWAP5 SWAP4 SWAP3 SWAP2 SWAP1 PUSH2 0x682B JUMP JUMPDEST PUSH1 0x20 PUSH1 0x40 MLOAD DUP1 DUP4 SUB DUP2 PUSH0 DUP8 GAS CALL ISZERO DUP1 ISZERO PUSH2 0x3556 JUMPI RETURNDATASIZE PUSH0 DUP1 RETURNDATACOPY RETURNDATASIZE PUSH0 REVERT JUMPDEST POP POP POP POP PUSH1 0x40 MLOAD RETURNDATASIZE PUSH1 0x1F NOT PUSH1 0x1F DUP3 ADD AND DUP3 ADD DUP1 PUSH1 0x40 MSTORE POP DUP2 ADD SWAP1 PUSH2 0x357A SWAP2 SWAP1 PUSH2 0x5C51 JUMP JUMPDEST SWAP1 POP PUSH0 DUP2 EQ PUSH2 0x35C0 JUMPI DUP1 PUSH1 0x40 MLOAD PUSH32 0xC7C01C6600000000000000000000000000000000000000000000000000000000 DUP2 MSTORE PUSH1 0x4 ADD PUSH2 0x35B7 SWAP2 SWAP1 PUSH2 0x544B JUMP JUMPDEST PUSH1 0x40 MLOAD DUP1 SWAP2 SUB SWAP1 REVERT JUMPDEST DUP4 PUSH20 0xFFFFFFFFFFFFFFFFFFFFFFFFFFFFFFFFFFFFFFFF AND DUP4 PUSH20 0xFFFFFFFFFFFFFFFFFFFFFFFFFFFFFFFFFFFFFFFF AND SUB PUSH2 0x3625 JUMPI PUSH1 0x40 MLOAD PUSH32 0x7528C4CE00000000000000000000000000000000000000000000000000000000 DUP2 MSTORE PUSH1 0x4 ADD PUSH1 0x40 MLOAD DUP1 SWAP2 SUB SWAP1 REVERT JUMPDEST PUSH0 PUSH2 0x3645 DUP4 PUSH1 0x40 MLOAD DUP1 PUSH1 0x20 ADD PUSH1 0x40 MSTORE DUP1 PUSH7 0x6379DA05B60000 DUP2 MSTORE POP PUSH2 0x478C JUMP JUMPDEST SWAP1 POP PUSH0 DUP2 DUP5 PUSH2 0x3654 SWAP2 SWAP1 PUSH2 0x65BC JUMP JUMPDEST SWAP1 POP PUSH0 PUSH1 0x40 MLOAD DUP1 PUSH1 0x20 ADD PUSH1 0x40 MSTORE DUP1 PUSH2 0x366A PUSH2 0x27F6 JUMP JUMPDEST DUP2 MSTORE POP SWAP1 POP PUSH0 PUSH2 0x367A DUP3 DUP6 PUSH2 0x2D65 JUMP JUMPDEST SWAP1 POP PUSH0 DUP2 PUSH1 0xC SLOAD PUSH2 0x368B SWAP2 SWAP1 PUSH2 0x65EF JUMP JUMPDEST SWAP1 POP DUP1 PUSH1 0xC DUP2 SWAP1 SSTORE POP DUP5 PUSH1 0xD SLOAD PUSH2 0x36A2 SWAP2 SWAP1 PUSH2 0x65BC JUMP JUMPDEST PUSH1 0xD DUP2 SWAP1 SSTORE POP DUP7 PUSH1 0xE PUSH0 DUP11 PUSH20 0xFFFFFFFFFFFFFFFFFFFFFFFFFFFFFFFFFFFFFFFF AND PUSH20 0xFFFFFFFFFFFFFFFFFFFFFFFFFFFFFFFFFFFFFFFF AND DUP2 MSTORE PUSH1 0x20 ADD SWAP1 DUP2 MSTORE PUSH1 0x20 ADD PUSH0 KECCAK256 SLOAD PUSH2 0x36F1 SWAP2 SWAP1 PUSH2 0x65BC JUMP JUMPDEST PUSH1 0xE PUSH0 DUP11 PUSH20 0xFFFFFFFFFFFFFFFFFFFFFFFFFFFFFFFFFFFFFFFF AND PUSH20 0xFFFFFFFFFFFFFFFFFFFFFFFFFFFFFFFFFFFFFFFF AND DUP2 MSTORE PUSH1 0x20 ADD SWAP1 DUP2 MSTORE PUSH1 0x20 ADD PUSH0 KECCAK256 DUP2 SWAP1 SSTORE POP DUP4 PUSH1 0xE PUSH0 DUP12 PUSH20 0xFFFFFFFFFFFFFFFFFFFFFFFFFFFFFFFFFFFFFFFF AND PUSH20 0xFFFFFFFFFFFFFFFFFFFFFFFFFFFFFFFFFFFFFFFF AND DUP2 MSTORE PUSH1 0x20 ADD SWAP1 DUP2 MSTORE PUSH1 0x20 ADD PUSH0 KECCAK256 SLOAD PUSH2 0x377B SWAP2 SWAP1 PUSH2 0x65EF JUMP JUMPDEST PUSH1 0xE PUSH0 DUP12 PUSH20 0xFFFFFFFFFFFFFFFFFFFFFFFFFFFFFFFFFFFFFFFF AND PUSH20 0xFFFFFFFFFFFFFFFFFFFFFFFFFFFFFFFFFFFFFFFF AND DUP2 MSTORE PUSH1 0x20 ADD SWAP1 DUP2 MSTORE PUSH1 0x20 ADD PUSH0 KECCAK256 DUP2 SWAP1 SSTORE POP DUP9 PUSH20 0xFFFFFFFFFFFFFFFFFFFFFFFFFFFFFFFFFFFFFFFF AND DUP9 PUSH20 0xFFFFFFFFFFFFFFFFFFFFFFFFFFFFFFFFFFFFFFFF AND PUSH32 0xDDF252AD1BE2C89B69C2B068FC378DAA952BA7F163C4A11628F55A4DF523B3EF DUP7 PUSH1 0x40 MLOAD PUSH2 0x3819 SWAP2 SWAP1 PUSH2 0x544B JUMP JUMPDEST PUSH1 0x40 MLOAD DUP1 SWAP2 SUB SWAP1 LOG3 ADDRESS PUSH20 0xFFFFFFFFFFFFFFFFFFFFFFFFFFFFFFFFFFFFFFFF AND DUP9 PUSH20 0xFFFFFFFFFFFFFFFFFFFFFFFFFFFFFFFFFFFFFFFF AND PUSH32 0xDDF252AD1BE2C89B69C2B068FC378DAA952BA7F163C4A11628F55A4DF523B3EF DUP8 PUSH1 0x40 MLOAD PUSH2 0x387E SWAP2 SWAP1 PUSH2 0x544B JUMP JUMPDEST PUSH1 0x40 MLOAD DUP1 SWAP2 SUB SWAP1 LOG3 PUSH32 0xA91E67C5EA634CD43A12C5A482724B03DE01E85CA68702A53D0C2F45CB7C1DC5 ADDRESS DUP4 DUP4 PUSH1 0x40 MLOAD PUSH2 0x38B9 SWAP4 SWAP3 SWAP2 SWAP1 PUSH2 0x687C JUMP JUMPDEST PUSH1 0x40 MLOAD DUP1 SWAP2 SUB SWAP1 LOG1 POP POP POP POP POP POP POP POP POP POP JUMP JUMPDEST PUSH0 DUP1 SLOAD SWAP1 PUSH2 0x100 EXP SWAP1 DIV PUSH1 0xFF AND PUSH2 0x3919 JUMPI PUSH1 0x40 MLOAD PUSH32 0x8C379A000000000000000000000000000000000000000000000000000000000 DUP2 MSTORE PUSH1 0x4 ADD PUSH2 0x3910 SWAP1 PUSH2 0x5C1F JUMP JUMPDEST PUSH1 0x40 MLOAD DUP1 SWAP2 SUB SWAP1 REVERT JUMPDEST PUSH0 DUP1 PUSH0 PUSH2 0x100 EXP DUP2 SLOAD DUP2 PUSH1 0xFF MUL NOT AND SWAP1 DUP4 ISZERO ISZERO MUL OR SWAP1 SSTORE POP PUSH2 0x3939 PUSH2 0x1A94 JUMP JUMPDEST POP PUSH2 0x3944 CALLER DUP3 PUSH2 0x47B5 JUMP JUMPDEST PUSH1 0x1 PUSH0 DUP1 PUSH2 0x100 EXP DUP2 SLOAD DUP2 PUSH1 0xFF MUL NOT AND SWAP1 DUP4 ISZERO ISZERO MUL OR SWAP1 SSTORE POP POP JUMP JUMPDEST PUSH0 DUP1 SLOAD SWAP1 PUSH2 0x100 EXP SWAP1 DIV PUSH1 0xFF AND PUSH2 0x39AC JUMPI PUSH1 0x40 MLOAD PUSH32 0x8C379A000000000000000000000000000000000000000000000000000000000 DUP2 MSTORE PUSH1 0x4 ADD PUSH2 0x39A3 SWAP1 PUSH2 0x5C1F JUMP JUMPDEST PUSH1 0x40 MLOAD DUP1 SWAP2 SUB SWAP1 REVERT JUMPDEST PUSH0 DUP1 PUSH0 PUSH2 0x100 EXP DUP2 SLOAD DUP2 PUSH1 0xFF MUL NOT AND SWAP1 DUP4 ISZERO ISZERO MUL OR SWAP1 SSTORE POP PUSH2 0x39CC PUSH2 0x1A94 JUMP JUMPDEST POP PUSH2 0x39D8 CALLER DUP3 PUSH0 PUSH2 0x40E9 JUMP JUMPDEST PUSH1 0x1 PUSH0 DUP1 PUSH2 0x100 EXP DUP2 SLOAD DUP2 PUSH1 0xFF MUL NOT AND SWAP1 DUP4 ISZERO ISZERO MUL OR SWAP1 SSTORE POP POP JUMP JUMPDEST PUSH0 DUP1 SLOAD SWAP1 PUSH2 0x100 EXP SWAP1 DIV PUSH1 0xFF AND PUSH2 0x3A40 JUMPI PUSH1 0x40 MLOAD PUSH32 0x8C379A000000000000000000000000000000000000000000000000000000000 DUP2 MSTORE PUSH1 0x4 ADD PUSH2 0x3A37 SWAP1 PUSH2 0x5C1F JUMP JUMPDEST PUSH1 0x40 MLOAD DUP1 SWAP2 SUB SWAP1 REVERT JUMPDEST PUSH0 DUP1 PUSH0 PUSH2 0x100 EXP DUP2 SLOAD DUP2 PUSH1 0xFF MUL NOT AND SWAP1 DUP4 ISZERO ISZERO MUL OR SWAP1 SSTORE POP PUSH2 0x3A60 PUSH2 0x1A94 JUMP JUMPDEST POP PUSH0 DUP2 PUSH20 0xFFFFFFFFFFFFFFFFFFFFFFFFFFFFFFFFFFFFFFFF AND PUSH4 0xA6AFED95 PUSH1 0x40 MLOAD DUP2 PUSH4 0xFFFFFFFF AND PUSH1 0xE0 SHL DUP2 MSTORE PUSH1 0x4 ADD PUSH1 0x20 PUSH1 0x40 MLOAD DUP1 DUP4 SUB DUP2 PUSH0 DUP8 GAS CALL ISZERO DUP1 ISZERO PUSH2 0x3AAC JUMPI RETURNDATASIZE PUSH0 DUP1 RETURNDATACOPY RETURNDATASIZE PUSH0 REVERT JUMPDEST POP POP POP POP PUSH1 0x40 MLOAD RETURNDATASIZE PUSH1 0x1F NOT PUSH1 0x1F DUP3 ADD AND DUP3 ADD DUP1 PUSH1 0x40 MSTORE POP DUP2 ADD SWAP1 PUSH2 0x3AD0 SWAP2 SWAP1 PUSH2 0x5C51 JUMP JUMPDEST SWAP1 POP PUSH0 DUP2 EQ PUSH2 0x3B16 JUMPI DUP1 PUSH1 0x40 MLOAD PUSH32 0x7DD4936E00000000000000000000000000000000000000000000000000000000 DUP2 MSTORE PUSH1 0x4 ADD PUSH2 0x3B0D SWAP2 SWAP1 PUSH2 0x544B JUMP JUMPDEST PUSH1 0x40 MLOAD DUP1 SWAP2 SUB SWAP1 REVERT JUMPDEST PUSH2 0x3B22 CALLER DUP6 DUP6 DUP6 PUSH2 0x4A2A JUMP JUMPDEST POP PUSH1 0x1 PUSH0 DUP1 PUSH2 0x100 EXP DUP2 SLOAD DUP2 PUSH1 0xFF MUL NOT AND SWAP1 DUP4 ISZERO ISZERO MUL OR SWAP1 SSTORE POP POP POP POP JUMP JUMPDEST PUSH0 PUSH1 0x3 PUSH1 0x1 SWAP1 SLOAD SWAP1 PUSH2 0x100 EXP SWAP1 DIV PUSH20 0xFFFFFFFFFFFFFFFFFFFFFFFFFFFFFFFFFFFFFFFF AND PUSH20 0xFFFFFFFFFFFFFFFFFFFFFFFFFFFFFFFFFFFFFFFF AND CALLER PUSH20 0xFFFFFFFFFFFFFFFFFFFFFFFFFFFFFFFFFFFFFFFF AND EQ PUSH2 0x3BC9 JUMPI PUSH1 0x40 MLOAD PUSH32 0x240B6AF600000000000000000000000000000000000000000000000000000000 DUP2 MSTORE PUSH1 0x4 ADD PUSH1 0x40 MLOAD DUP1 SWAP2 SUB SWAP1 REVERT JUMPDEST PUSH2 0x3BD1 PUSH2 0x31CB JUMP JUMPDEST PUSH1 0x9 SLOAD EQ PUSH2 0x3C0B JUMPI PUSH1 0x40 MLOAD PUSH32 0xFBF94D6E00000000000000000000000000000000000000000000000000000000 DUP2 MSTORE PUSH1 0x4 ADD PUSH1 0x40 MLOAD DUP1 SWAP2 SUB SWAP1 REVERT JUMPDEST PUSH8 0xDE0B6B3A7640000 DUP3 GT ISZERO PUSH2 0x3C4D JUMPI PUSH1 0x40 MLOAD PUSH32 0xE2E441E600000000000000000000000000000000000000000000000000000000 DUP2 MSTORE PUSH1 0x4 ADD PUSH1 0x40 MLOAD DUP1 SWAP2 SUB SWAP1 REVERT JUMPDEST PUSH0 PUSH1 0x8 SLOAD SWAP1 POP DUP3 PUSH1 0x8 DUP2 SWAP1 SSTORE POP PUSH32 0xAAA68312E2EA9D50E16AF5068410AB56E1A1FD06037B1A35664812C30F821460 DUP2 DUP5 PUSH1 0x40 MLOAD PUSH2 0x3C8B SWAP3 SWAP2 SWAP1 PUSH2 0x68B1 JUMP JUMPDEST PUSH1 0x40 MLOAD DUP1 SWAP2 SUB SWAP1 LOG1 PUSH0 SWAP2 POP POP SWAP2 SWAP1 POP JUMP JUMPDEST PUSH0 DUP1 PUSH1 0x5 PUSH0 SWAP1 SLOAD SWAP1 PUSH2 0x100 EXP SWAP1 DIV PUSH20 0xFFFFFFFFFFFFFFFFFFFFFFFFFFFFFFFFFFFFFFFF AND PUSH20 0xFFFFFFFFFFFFFFFFFFFFFFFFFFFFFFFFFFFFFFFF AND PUSH4 0x24008A62 ADDRESS DUP8 DUP8 DUP8 PUSH1 0x40 MLOAD DUP6 PUSH4 0xFFFFFFFF AND PUSH1 0xE0 SHL DUP2 MSTORE PUSH1 0x4 ADD PUSH2 0x3CFE SWAP5 SWAP4 SWAP3 SWAP2 SWAP1 PUSH2 0x678C JUMP JUMPDEST PUSH1 0x20 PUSH1 0x40 MLOAD DUP1 DUP4 SUB DUP2 PUSH0 DUP8 GAS CALL ISZERO DUP1 ISZERO PUSH2 0x3D1A JUMPI RETURNDATASIZE PUSH0 DUP1 RETURNDATACOPY RETURNDATASIZE PUSH0 REVERT JUMPDEST POP POP POP POP PUSH1 0x40 MLOAD RETURNDATASIZE PUSH1 0x1F NOT PUSH1 0x1F DUP3 ADD AND DUP3 ADD DUP1 PUSH1 0x40 MSTORE POP DUP2 ADD SWAP1 PUSH2 0x3D3E SWAP2 SWAP1 PUSH2 0x5C51 JUMP JUMPDEST SWAP1 POP PUSH0 DUP2 EQ PUSH2 0x3D84 JUMPI DUP1 PUSH1 0x40 MLOAD PUSH32 0x8C81362D00000000000000000000000000000000000000000000000000000000 DUP2 MSTORE PUSH1 0x4 ADD PUSH2 0x3D7B SWAP2 SWAP1 PUSH2 0x544B JUMP JUMPDEST PUSH1 0x40 MLOAD DUP1 SWAP2 SUB SWAP1 REVERT JUMPDEST PUSH2 0x3D8C PUSH2 0x31CB JUMP JUMPDEST PUSH1 0x9 SLOAD EQ PUSH2 0x3DC6 JUMPI PUSH1 0x40 MLOAD PUSH32 0xC9021E2F00000000000000000000000000000000000000000000000000000000 DUP2 MSTORE PUSH1 0x4 ADD PUSH1 0x40 MLOAD DUP1 SWAP2 SUB SWAP1 REVERT JUMPDEST PUSH0 PUSH2 0x3DD0 DUP6 PUSH2 0x3149 JUMP JUMPDEST SWAP1 POP PUSH0 PUSH32 0xFFFFFFFFFFFFFFFFFFFFFFFFFFFFFFFFFFFFFFFFFFFFFFFFFFFFFFFFFFFFFFFF DUP6 EQ PUSH2 0x3E00 JUMPI DUP5 PUSH2 0x3E02 JUMP JUMPDEST DUP2 JUMPDEST SWAP1 POP PUSH0 PUSH2 0x3E0F DUP9 DUP4 PUSH2 0x4FF0 JUMP JUMPDEST SWAP1 POP PUSH0 DUP2 DUP5 PUSH2 0x3E1E SWAP2 SWAP1 PUSH2 0x65BC JUMP JUMPDEST SWAP1 POP PUSH0 DUP3 PUSH1 0xB SLOAD PUSH2 0x3E2F SWAP2 SWAP1 PUSH2 0x65BC JUMP JUMPDEST SWAP1 POP DUP2 PUSH1 0x10 PUSH0 DUP12 PUSH20 0xFFFFFFFFFFFFFFFFFFFFFFFFFFFFFFFFFFFFFFFF AND PUSH20 0xFFFFFFFFFFFFFFFFFFFFFFFFFFFFFFFFFFFFFFFF AND DUP2 MSTORE PUSH1 0x20 ADD SWAP1 DUP2 MSTORE PUSH1 0x20 ADD PUSH0 KECCAK256 PUSH0 ADD DUP2 SWAP1 SSTORE POP PUSH1 0xA SLOAD PUSH1 0x10 PUSH0 DUP12 PUSH20 0xFFFFFFFFFFFFFFFFFFFFFFFFFFFFFFFFFFFFFFFF AND PUSH20 0xFFFFFFFFFFFFFFFFFFFFFFFFFFFFFFFFFFFFFFFF AND DUP2 MSTORE PUSH1 0x20 ADD SWAP1 DUP2 MSTORE PUSH1 0x20 ADD PUSH0 KECCAK256 PUSH1 0x1 ADD DUP2 SWAP1 SSTORE POP DUP1 PUSH1 0xB DUP2 SWAP1 SSTORE POP PUSH32 0x1A2A22CB034D26D1854BDC6666A5B91FE25EFBBB5DCAD3B0355478D6F5C362A1 DUP11 DUP11 DUP6 DUP6 DUP6 PUSH1 0x40 MLOAD PUSH2 0x3EFA SWAP6 SWAP5 SWAP4 SWAP3 SWAP2 SWAP1 PUSH2 0x68D8 JUMP JUMPDEST PUSH1 0x40 MLOAD DUP1 SWAP2 SUB SWAP1 LOG1 DUP3 SWAP7 POP POP POP POP POP POP POP SWAP4 SWAP3 POP POP POP JUMP JUMPDEST PUSH0 PUSH8 0xDE0B6B3A7640000 DUP3 PUSH0 ADD MLOAD PUSH2 0x3F2A SWAP2 SWAP1 PUSH2 0x64EF JUMP JUMPDEST SWAP1 POP SWAP2 SWAP1 POP JUMP JUMPDEST PUSH0 DUP1 PUSH0 DUP1 PUSH2 0x3F3D PUSH2 0x31CB JUMP JUMPDEST PUSH1 0x9 SLOAD EQ PUSH2 0x3F82 JUMPI DUP1 PUSH1 0x40 MLOAD PUSH32 0x38ACF79900000000000000000000000000000000000000000000000000000000 DUP2 MSTORE PUSH1 0x4 ADD PUSH2 0x3F79 SWAP2 SWAP1 PUSH2 0x544B JUMP JUMPDEST PUSH1 0x40 MLOAD DUP1 SWAP2 SUB SWAP1 REVERT JUMPDEST PUSH2 0x3F8C CALLER DUP7 PUSH2 0x4FF0 JUMP JUMPDEST SWAP1 POP DUP1 PUSH1 0xC SLOAD PUSH2 0x3F9C SWAP2 SWAP1 PUSH2 0x65EF JUMP JUMPDEST SWAP2 POP DUP2 PUSH1 0xC DUP2 SWAP1 SSTORE POP PUSH32 0xA91E67C5EA634CD43A12C5A482724B03DE01E85CA68702A53D0C2F45CB7C1DC5 CALLER DUP3 DUP5 PUSH1 0x40 MLOAD PUSH2 0x3FD8 SWAP4 SWAP3 SWAP2 SWAP1 PUSH2 0x687C JUMP JUMPDEST PUSH1 0x40 MLOAD DUP1 SWAP2 SUB SWAP1 LOG1 PUSH0 DUP2 SWAP4 POP SWAP4 POP POP POP SWAP2 POP SWAP2 JUMP JUMPDEST PUSH0 PUSH1 0x11 PUSH0 SWAP1 SLOAD SWAP1 PUSH2 0x100 EXP SWAP1 DIV PUSH20 0xFFFFFFFFFFFFFFFFFFFFFFFFFFFFFFFFFFFFFFFF AND SWAP1 POP DUP1 PUSH20 0xFFFFFFFFFFFFFFFFFFFFFFFFFFFFFFFFFFFFFFFF AND PUSH4 0xA9059CBB DUP5 DUP5 PUSH1 0x40 MLOAD DUP4 PUSH4 0xFFFFFFFF AND PUSH1 0xE0 SHL DUP2 MSTORE PUSH1 0x4 ADD PUSH2 0x404D SWAP3 SWAP2 SWAP1 PUSH2 0x5DB8 JUMP JUMPDEST PUSH0 PUSH1 0x40 MLOAD DUP1 DUP4 SUB DUP2 PUSH0 DUP8 DUP1 EXTCODESIZE ISZERO DUP1 ISZERO PUSH2 0x4064 JUMPI PUSH0 DUP1 REVERT JUMPDEST POP GAS CALL ISZERO DUP1 ISZERO PUSH2 0x4076 JUMPI RETURNDATASIZE PUSH0 DUP1 RETURNDATACOPY RETURNDATASIZE PUSH0 REVERT JUMPDEST POP POP POP POP PUSH0 RETURNDATASIZE PUSH0 DUP2 EQ PUSH2 0x408F JUMPI PUSH1 0x20 DUP2 EQ PUSH2 0x4098 JUMPI PUSH0 DUP1 REVERT JUMPDEST PUSH0 NOT SWAP2 POP PUSH2 0x40A2 JUMP JUMPDEST PUSH1 0x20 PUSH0 DUP1 RETURNDATACOPY PUSH0 MLOAD SWAP2 POP JUMPDEST POP DUP1 PUSH2 0x40E3 JUMPI PUSH1 0x40 MLOAD PUSH32 0x8C379A000000000000000000000000000000000000000000000000000000000 DUP2 MSTORE PUSH1 0x4 ADD PUSH2 0x40DA SWAP1 PUSH2 0x6973 JUMP JUMPDEST PUSH1 0x40 MLOAD DUP1 SWAP2 SUB SWAP1 REVERT JUMPDEST POP POP POP POP JUMP JUMPDEST PUSH0 DUP3 EQ DUP1 PUSH2 0x40F6 JUMPI POP PUSH0 DUP2 EQ JUMPDEST PUSH2 0x4135 JUMPI PUSH1 0x40 MLOAD PUSH32 0x8C379A000000000000000000000000000000000000000000000000000000000 DUP2 MSTORE PUSH1 0x4 ADD PUSH2 0x412C SWAP1 PUSH2 0x6A01 JUMP JUMPDEST PUSH1 0x40 MLOAD DUP1 SWAP2 SUB SWAP1 REVERT JUMPDEST PUSH0 PUSH1 0x40 MLOAD DUP1 PUSH1 0x20 ADD PUSH1 0x40 MSTORE DUP1 PUSH2 0x4149 PUSH2 0x27F6 JUMP JUMPDEST DUP2 MSTORE POP SWAP1 POP PUSH0 DUP1 PUSH0 DUP6 GT ISZERO PUSH2 0x416C JUMPI DUP5 SWAP2 POP PUSH2 0x4165 DUP4 DUP7 PUSH2 0x2D65 JUMP JUMPDEST SWAP1 POP PUSH2 0x417C JUMP JUMPDEST PUSH2 0x4176 DUP5 DUP5 PUSH2 0x51FC JUMP JUMPDEST SWAP2 POP DUP4 SWAP1 POP JUMPDEST PUSH0 PUSH1 0x5 PUSH0 SWAP1 SLOAD SWAP1 PUSH2 0x100 EXP SWAP1 DIV PUSH20 0xFFFFFFFFFFFFFFFFFFFFFFFFFFFFFFFFFFFFFFFF AND PUSH20 0xFFFFFFFFFFFFFFFFFFFFFFFFFFFFFFFFFFFFFFFF AND PUSH4 0xEABE7D91 ADDRESS DUP10 DUP7 PUSH1 0x40 MLOAD DUP5 PUSH4 0xFFFFFFFF AND PUSH1 0xE0 SHL DUP2 MSTORE PUSH1 0x4 ADD PUSH2 0x41DB SWAP4 SWAP3 SWAP2 SWAP1 PUSH2 0x6A1F JUMP JUMPDEST PUSH1 0x20 PUSH1 0x40 MLOAD DUP1 DUP4 SUB DUP2 PUSH0 DUP8 GAS CALL ISZERO DUP1 ISZERO PUSH2 0x41F7 JUMPI RETURNDATASIZE PUSH0 DUP1 RETURNDATACOPY RETURNDATASIZE PUSH0 REVERT JUMPDEST POP POP POP POP PUSH1 0x40 MLOAD RETURNDATASIZE PUSH1 0x1F NOT PUSH1 0x1F DUP3 ADD AND DUP3 ADD DUP1 PUSH1 0x40 MSTORE POP DUP2 ADD SWAP1 PUSH2 0x421B SWAP2 SWAP1 PUSH2 0x5C51 JUMP JUMPDEST SWAP1 POP PUSH0 DUP2 EQ PUSH2 0x4261 JUMPI DUP1 PUSH1 0x40 MLOAD PUSH32 0x480F424700000000000000000000000000000000000000000000000000000000 DUP2 MSTORE PUSH1 0x4 ADD PUSH2 0x4258 SWAP2 SWAP1 PUSH2 0x544B JUMP JUMPDEST PUSH1 0x40 MLOAD DUP1 SWAP2 SUB SWAP1 REVERT JUMPDEST PUSH2 0x4269 PUSH2 0x31CB JUMP JUMPDEST PUSH1 0x9 SLOAD EQ PUSH2 0x42A3 JUMPI PUSH1 0x40 MLOAD PUSH32 0x97B5CFCD00000000000000000000000000000000000000000000000000000000 DUP2 MSTORE PUSH1 0x4 ADD PUSH1 0x40 MLOAD DUP1 SWAP2 SUB SWAP1 REVERT JUMPDEST DUP2 PUSH2 0x42AC PUSH2 0x2D85 JUMP JUMPDEST LT ISZERO PUSH2 0x42E4 JUMPI PUSH1 0x40 MLOAD PUSH32 0x91240A1B00000000000000000000000000000000000000000000000000000000 DUP2 MSTORE PUSH1 0x4 ADD PUSH1 0x40 MLOAD DUP1 SWAP2 SUB SWAP1 REVERT JUMPDEST DUP3 PUSH1 0xD SLOAD PUSH2 0x42F2 SWAP2 SWAP1 PUSH2 0x65BC JUMP JUMPDEST PUSH1 0xD DUP2 SWAP1 SSTORE POP DUP3 PUSH1 0xE PUSH0 DUP10 PUSH20 0xFFFFFFFFFFFFFFFFFFFFFFFFFFFFFFFFFFFFFFFF AND PUSH20 0xFFFFFFFFFFFFFFFFFFFFFFFFFFFFFFFFFFFFFFFF AND DUP2 MSTORE PUSH1 0x20 ADD SWAP1 DUP2 MSTORE PUSH1 0x20 ADD PUSH0 KECCAK256 SLOAD PUSH2 0x4341 SWAP2 SWAP1 PUSH2 0x65BC JUMP JUMPDEST PUSH1 0xE PUSH0 DUP10 PUSH20 0xFFFFFFFFFFFFFFFFFFFFFFFFFFFFFFFFFFFFFFFF AND PUSH20 0xFFFFFFFFFFFFFFFFFFFFFFFFFFFFFFFFFFFFFFFF AND DUP2 MSTORE PUSH1 0x20 ADD SWAP1 DUP2 MSTORE PUSH1 0x20 ADD PUSH0 KECCAK256 DUP2 SWAP1 SSTORE POP PUSH2 0x438C DUP8 DUP4 PUSH2 0x3FED JUMP JUMPDEST ADDRESS PUSH20 0xFFFFFFFFFFFFFFFFFFFFFFFFFFFFFFFFFFFFFFFF AND DUP8 PUSH20 0xFFFFFFFFFFFFFFFFFFFFFFFFFFFFFFFFFFFFFFFF AND PUSH32 0xDDF252AD1BE2C89B69C2B068FC378DAA952BA7F163C4A11628F55A4DF523B3EF DUP6 PUSH1 0x40 MLOAD PUSH2 0x43E9 SWAP2 SWAP1 PUSH2 0x544B JUMP JUMPDEST PUSH1 0x40 MLOAD DUP1 SWAP2 SUB SWAP1 LOG3 PUSH32 0xE5B754FB1ABB7F01B499791D0B820AE3B6AF3424AC1C59768EDB53F4EC31A929 DUP8 DUP4 DUP6 PUSH1 0x40 MLOAD PUSH2 0x4424 SWAP4 SWAP3 SWAP2 SWAP1 PUSH2 0x67CF JUMP JUMPDEST PUSH1 0x40 MLOAD DUP1 SWAP2 SUB SWAP1 LOG1 PUSH1 0x5 PUSH0 SWAP1 SLOAD SWAP1 PUSH2 0x100 EXP SWAP1 DIV PUSH20 0xFFFFFFFFFFFFFFFFFFFFFFFFFFFFFFFFFFFFFFFF AND PUSH20 0xFFFFFFFFFFFFFFFFFFFFFFFFFFFFFFFFFFFFFFFF AND PUSH4 0x51DFF989 ADDRESS DUP10 DUP6 DUP8 PUSH1 0x40 MLOAD DUP6 PUSH4 0xFFFFFFFF AND PUSH1 0xE0 SHL DUP2 MSTORE PUSH1 0x4 ADD PUSH2 0x448C SWAP5 SWAP4 SWAP3 SWAP2 SWAP1 PUSH2 0x6A54 JUMP JUMPDEST PUSH0 PUSH1 0x40 MLOAD DUP1 DUP4 SUB DUP2 PUSH0 DUP8 DUP1 EXTCODESIZE ISZERO DUP1 ISZERO PUSH2 0x44A3 JUMPI PUSH0 DUP1 REVERT JUMPDEST POP GAS CALL ISZERO DUP1 ISZERO PUSH2 0x44B5 JUMPI RETURNDATASIZE PUSH0 DUP1 RETURNDATACOPY RETURNDATASIZE PUSH0 REVERT JUMPDEST POP POP POP POP POP POP POP POP POP POP POP JUMP JUMPDEST PUSH0 PUSH1 0x5 PUSH0 SWAP1 SLOAD SWAP1 PUSH2 0x100 EXP SWAP1 DIV PUSH20 0xFFFFFFFFFFFFFFFFFFFFFFFFFFFFFFFFFFFFFFFF AND PUSH20 0xFFFFFFFFFFFFFFFFFFFFFFFFFFFFFFFFFFFFFFFF AND PUSH4 0x4EF4C3E1 ADDRESS DUP6 DUP6 PUSH1 0x40 MLOAD DUP5 PUSH4 0xFFFFFFFF AND PUSH1 0xE0 SHL DUP2 MSTORE PUSH1 0x4 ADD PUSH2 0x4521 SWAP4 SWAP3 SWAP2 SWAP1 PUSH2 0x6A97 JUMP JUMPDEST PUSH1 0x20 PUSH1 0x40 MLOAD DUP1 DUP4 SUB DUP2 PUSH0 DUP8 GAS CALL ISZERO DUP1 ISZERO PUSH2 0x453D JUMPI RETURNDATASIZE PUSH0 DUP1 RETURNDATACOPY RETURNDATASIZE PUSH0 REVERT JUMPDEST POP POP POP POP PUSH1 0x40 MLOAD RETURNDATASIZE PUSH1 0x1F NOT PUSH1 0x1F DUP3 ADD AND DUP3 ADD DUP1 PUSH1 0x40 MSTORE POP DUP2 ADD SWAP1 PUSH2 0x4561 SWAP2 SWAP1 PUSH2 0x5C51 JUMP JUMPDEST SWAP1 POP PUSH0 DUP2 EQ PUSH2 0x45A7 JUMPI DUP1 PUSH1 0x40 MLOAD PUSH32 0x49ABD4FD00000000000000000000000000000000000000000000000000000000 DUP2 MSTORE PUSH1 0x4 ADD PUSH2 0x459E SWAP2 SWAP1 PUSH2 0x544B JUMP JUMPDEST PUSH1 0x40 MLOAD DUP1 SWAP2 SUB SWAP1 REVERT JUMPDEST PUSH2 0x45AF PUSH2 0x31CB JUMP JUMPDEST PUSH1 0x9 SLOAD EQ PUSH2 0x45E9 JUMPI PUSH1 0x40 MLOAD PUSH32 0x38D8859700000000000000000000000000000000000000000000000000000000 DUP2 MSTORE PUSH1 0x4 ADD PUSH1 0x40 MLOAD DUP1 SWAP2 SUB SWAP1 REVERT JUMPDEST PUSH0 PUSH1 0x40 MLOAD DUP1 PUSH1 0x20 ADD PUSH1 0x40 MSTORE DUP1 PUSH2 0x45FD PUSH2 0x27F6 JUMP JUMPDEST DUP2 MSTORE POP SWAP1 POP PUSH0 PUSH2 0x460D DUP6 DUP6 PUSH2 0x4FF0 JUMP JUMPDEST SWAP1 POP PUSH0 PUSH2 0x461A DUP3 DUP5 PUSH2 0x51FC JUMP JUMPDEST SWAP1 POP DUP1 PUSH1 0xD SLOAD PUSH2 0x462A SWAP2 SWAP1 PUSH2 0x65EF JUMP JUMPDEST PUSH1 0xD DUP2 SWAP1 SSTORE POP DUP1 PUSH1 0xE PUSH0 DUP9 PUSH20 0xFFFFFFFFFFFFFFFFFFFFFFFFFFFFFFFFFFFFFFFF AND PUSH20 0xFFFFFFFFFFFFFFFFFFFFFFFFFFFFFFFFFFFFFFFF AND DUP2 MSTORE PUSH1 0x20 ADD SWAP1 DUP2 MSTORE PUSH1 0x20 ADD PUSH0 KECCAK256 SLOAD PUSH2 0x4679 SWAP2 SWAP1 PUSH2 0x65EF JUMP JUMPDEST PUSH1 0xE PUSH0 DUP9 PUSH20 0xFFFFFFFFFFFFFFFFFFFFFFFFFFFFFFFFFFFFFFFF AND PUSH20 0xFFFFFFFFFFFFFFFFFFFFFFFFFFFFFFFFFFFFFFFF AND DUP2 MSTORE PUSH1 0x20 ADD SWAP1 DUP2 MSTORE PUSH1 0x20 ADD PUSH0 KECCAK256 DUP2 SWAP1 SSTORE POP PUSH32 0x4C209B5FC8AD50758F13E2E1088BA56A560DFF690A1C6FEF26394F4C03821C4F DUP7 DUP4 DUP4 PUSH1 0x40 MLOAD PUSH2 0x46ED SWAP4 SWAP3 SWAP2 SWAP1 PUSH2 0x687C JUMP JUMPDEST PUSH1 0x40 MLOAD DUP1 SWAP2 SUB SWAP1 LOG1 DUP6 PUSH20 0xFFFFFFFFFFFFFFFFFFFFFFFFFFFFFFFFFFFFFFFF AND ADDRESS PUSH20 0xFFFFFFFFFFFFFFFFFFFFFFFFFFFFFFFFFFFFFFFF AND PUSH32 0xDDF252AD1BE2C89B69C2B068FC378DAA952BA7F163C4A11628F55A4DF523B3EF DUP4 PUSH1 0x40 MLOAD PUSH2 0x4752 SWAP2 SWAP1 PUSH2 0x544B JUMP JUMPDEST PUSH1 0x40 MLOAD DUP1 SWAP2 SUB SWAP1 LOG3 POP POP POP POP POP POP JUMP JUMPDEST PUSH0 DUP2 DUP4 PUSH2 0x476F SWAP2 SWAP1 PUSH2 0x6481 JUMP JUMPDEST SWAP1 POP SWAP3 SWAP2 POP POP JUMP JUMPDEST PUSH0 DUP2 DUP4 PUSH2 0x4784 SWAP2 SWAP1 PUSH2 0x65EF JUMP JUMPDEST SWAP1 POP SWAP3 SWAP2 POP POP JUMP JUMPDEST PUSH0 PUSH8 0xDE0B6B3A7640000 PUSH2 0x47A3 DUP5 DUP5 PUSH0 ADD MLOAD PUSH2 0x4762 JUMP JUMPDEST PUSH2 0x47AD SWAP2 SWAP1 PUSH2 0x64EF JUMP JUMPDEST SWAP1 POP SWAP3 SWAP2 POP POP JUMP JUMPDEST PUSH0 PUSH1 0x5 PUSH0 SWAP1 SLOAD SWAP1 PUSH2 0x100 EXP SWAP1 DIV PUSH20 0xFFFFFFFFFFFFFFFFFFFFFFFFFFFFFFFFFFFFFFFF AND PUSH20 0xFFFFFFFFFFFFFFFFFFFFFFFFFFFFFFFFFFFFFFFF AND PUSH4 0xDA3D454C ADDRESS DUP6 DUP6 PUSH1 0x40 MLOAD DUP5 PUSH4 0xFFFFFFFF AND PUSH1 0xE0 SHL DUP2 MSTORE PUSH1 0x4 ADD PUSH2 0x4814 SWAP4 SWAP3 SWAP2 SWAP1 PUSH2 0x6A1F JUMP JUMPDEST PUSH1 0x20 PUSH1 0x40 MLOAD DUP1 DUP4 SUB DUP2 PUSH0 DUP8 GAS CALL ISZERO DUP1 ISZERO PUSH2 0x4830 JUMPI RETURNDATASIZE PUSH0 DUP1 RETURNDATACOPY RETURNDATASIZE PUSH0 REVERT JUMPDEST POP POP POP POP PUSH1 0x40 MLOAD RETURNDATASIZE PUSH1 0x1F NOT PUSH1 0x1F DUP3 ADD AND DUP3 ADD DUP1 PUSH1 0x40 MSTORE POP DUP2 ADD SWAP1 PUSH2 0x4854 SWAP2 SWAP1 PUSH2 0x5C51 JUMP JUMPDEST SWAP1 POP PUSH0 DUP2 EQ PUSH2 0x489A JUMPI DUP1 PUSH1 0x40 MLOAD PUSH32 0x918DB40F00000000000000000000000000000000000000000000000000000000 DUP2 MSTORE PUSH1 0x4 ADD PUSH2 0x4891 SWAP2 SWAP1 PUSH2 0x544B JUMP JUMPDEST PUSH1 0x40 MLOAD DUP1 SWAP2 SUB SWAP1 REVERT JUMPDEST PUSH2 0x48A2 PUSH2 0x31CB JUMP JUMPDEST PUSH1 0x9 SLOAD EQ PUSH2 0x48DC JUMPI PUSH1 0x40 MLOAD PUSH32 0x3A36318400000000000000000000000000000000000000000000000000000000 DUP2 MSTORE PUSH1 0x4 ADD PUSH1 0x40 MLOAD DUP1 SWAP2 SUB SWAP1 REVERT JUMPDEST DUP2 PUSH2 0x48E5 PUSH2 0x2D85 JUMP JUMPDEST LT ISZERO PUSH2 0x491D JUMPI PUSH1 0x40 MLOAD PUSH32 0x48C2588100000000000000000000000000000000000000000000000000000000 DUP2 MSTORE PUSH1 0x4 ADD PUSH1 0x40 MLOAD DUP1 SWAP2 SUB SWAP1 REVERT JUMPDEST PUSH0 PUSH2 0x4927 DUP5 PUSH2 0x3149 JUMP JUMPDEST SWAP1 POP PUSH0 DUP4 DUP3 PUSH2 0x4936 SWAP2 SWAP1 PUSH2 0x65EF JUMP JUMPDEST SWAP1 POP PUSH0 DUP5 PUSH1 0xB SLOAD PUSH2 0x4947 SWAP2 SWAP1 PUSH2 0x65EF JUMP JUMPDEST SWAP1 POP DUP2 PUSH1 0x10 PUSH0 DUP9 PUSH20 0xFFFFFFFFFFFFFFFFFFFFFFFFFFFFFFFFFFFFFFFF AND PUSH20 0xFFFFFFFFFFFFFFFFFFFFFFFFFFFFFFFFFFFFFFFF AND DUP2 MSTORE PUSH1 0x20 ADD SWAP1 DUP2 MSTORE PUSH1 0x20 ADD PUSH0 KECCAK256 PUSH0 ADD DUP2 SWAP1 SSTORE POP PUSH1 0xA SLOAD PUSH1 0x10 PUSH0 DUP9 PUSH20 0xFFFFFFFFFFFFFFFFFFFFFFFFFFFFFFFFFFFFFFFF AND PUSH20 0xFFFFFFFFFFFFFFFFFFFFFFFFFFFFFFFFFFFFFFFF AND DUP2 MSTORE PUSH1 0x20 ADD SWAP1 DUP2 MSTORE PUSH1 0x20 ADD PUSH0 KECCAK256 PUSH1 0x1 ADD DUP2 SWAP1 SSTORE POP DUP1 PUSH1 0xB DUP2 SWAP1 SSTORE POP PUSH2 0x49E5 DUP7 DUP7 PUSH2 0x3FED JUMP JUMPDEST PUSH32 0x13ED6866D4E1EE6DA46F845C46D7E54120883D75C5EA9A2DACC1C4CA8984AB80 DUP7 DUP7 DUP5 DUP5 PUSH1 0x40 MLOAD PUSH2 0x4A1A SWAP5 SWAP4 SWAP3 SWAP2 SWAP1 PUSH2 0x6ACC JUMP JUMPDEST PUSH1 0x40 MLOAD DUP1 SWAP2 SUB SWAP1 LOG1 POP POP POP POP POP POP JUMP JUMPDEST PUSH0 PUSH1 0x5 PUSH0 SWAP1 SLOAD SWAP1 PUSH2 0x100 EXP SWAP1 DIV PUSH20 0xFFFFFFFFFFFFFFFFFFFFFFFFFFFFFFFFFFFFFFFF AND PUSH20 0xFFFFFFFFFFFFFFFFFFFFFFFFFFFFFFFFFFFFFFFF AND PUSH4 0x5FC7E71E ADDRESS DUP5 DUP9 DUP9 DUP9 PUSH1 0x40 MLOAD DUP7 PUSH4 0xFFFFFFFF AND PUSH1 0xE0 SHL DUP2 MSTORE PUSH1 0x4 ADD PUSH2 0x4A8D SWAP6 SWAP5 SWAP4 SWAP3 SWAP2 SWAP1 PUSH2 0x682B JUMP JUMPDEST PUSH1 0x20 PUSH1 0x40 MLOAD DUP1 DUP4 SUB DUP2 PUSH0 DUP8 GAS CALL ISZERO DUP1 ISZERO PUSH2 0x4AA9 JUMPI RETURNDATASIZE PUSH0 DUP1 RETURNDATACOPY RETURNDATASIZE PUSH0 REVERT JUMPDEST POP POP POP POP PUSH1 0x40 MLOAD RETURNDATASIZE PUSH1 0x1F NOT PUSH1 0x1F DUP3 ADD AND DUP3 ADD DUP1 PUSH1 0x40 MSTORE POP DUP2 ADD SWAP1 PUSH2 0x4ACD SWAP2 SWAP1 PUSH2 0x5C51 JUMP JUMPDEST SWAP1 POP PUSH0 DUP2 EQ PUSH2 0x4B13 JUMPI DUP1 PUSH1 0x40 MLOAD PUSH32 0x1429A2F200000000000000000000000000000000000000000000000000000000 DUP2 MSTORE PUSH1 0x4 ADD PUSH2 0x4B0A SWAP2 SWAP1 PUSH2 0x544B JUMP JUMPDEST PUSH1 0x40 MLOAD DUP1 SWAP2 SUB SWAP1 REVERT JUMPDEST PUSH2 0x4B1B PUSH2 0x31CB JUMP JUMPDEST PUSH1 0x9 SLOAD EQ PUSH2 0x4B55 JUMPI PUSH1 0x40 MLOAD PUSH32 0x80965B1B00000000000000000000000000000000000000000000000000000000 DUP2 MSTORE PUSH1 0x4 ADD PUSH1 0x40 MLOAD DUP1 SWAP2 SUB SWAP1 REVERT JUMPDEST PUSH2 0x4B5D PUSH2 0x31CB JUMP JUMPDEST DUP3 PUSH20 0xFFFFFFFFFFFFFFFFFFFFFFFFFFFFFFFFFFFFFFFF AND PUSH4 0x6C540BAF PUSH1 0x40 MLOAD DUP2 PUSH4 0xFFFFFFFF AND PUSH1 0xE0 SHL DUP2 MSTORE PUSH1 0x4 ADD PUSH1 0x20 PUSH1 0x40 MLOAD DUP1 DUP4 SUB DUP2 DUP7 GAS STATICCALL ISZERO DUP1 ISZERO PUSH2 0x4BA6 JUMPI RETURNDATASIZE PUSH0 DUP1 RETURNDATACOPY RETURNDATASIZE PUSH0 REVERT JUMPDEST POP POP POP POP PUSH1 0x40 MLOAD RETURNDATASIZE PUSH1 0x1F NOT PUSH1 0x1F DUP3 ADD AND DUP3 ADD DUP1 PUSH1 0x40 MSTORE POP DUP2 ADD SWAP1 PUSH2 0x4BCA SWAP2 SWAP1 PUSH2 0x5C51 JUMP JUMPDEST EQ PUSH2 0x4C01 JUMPI PUSH1 0x40 MLOAD PUSH32 0x82379C6800000000000000000000000000000000000000000000000000000000 DUP2 MSTORE PUSH1 0x4 ADD PUSH1 0x40 MLOAD DUP1 SWAP2 SUB SWAP1 REVERT JUMPDEST DUP5 PUSH20 0xFFFFFFFFFFFFFFFFFFFFFFFFFFFFFFFFFFFFFFFF AND DUP5 PUSH20 0xFFFFFFFFFFFFFFFFFFFFFFFFFFFFFFFFFFFFFFFF AND SUB PUSH2 0x4C66 JUMPI PUSH1 0x40 MLOAD PUSH32 0x6F46988400000000000000000000000000000000000000000000000000000000 DUP2 MSTORE PUSH1 0x4 ADD PUSH1 0x40 MLOAD DUP1 SWAP2 SUB SWAP1 REVERT JUMPDEST PUSH0 DUP4 SUB PUSH2 0x4C9F JUMPI PUSH1 0x40 MLOAD PUSH32 0xD29DA7EF00000000000000000000000000000000000000000000000000000000 DUP2 MSTORE PUSH1 0x4 ADD PUSH1 0x40 MLOAD DUP1 SWAP2 SUB SWAP1 REVERT JUMPDEST PUSH32 0xFFFFFFFFFFFFFFFFFFFFFFFFFFFFFFFFFFFFFFFFFFFFFFFFFFFFFFFFFFFFFFFF DUP4 SUB PUSH2 0x4CF8 JUMPI PUSH1 0x40 MLOAD PUSH32 0xB3058B7600000000000000000000000000000000000000000000000000000000 DUP2 MSTORE PUSH1 0x4 ADD PUSH1 0x40 MLOAD DUP1 SWAP2 SUB SWAP1 REVERT JUMPDEST PUSH0 PUSH2 0x4D04 DUP7 DUP7 DUP7 PUSH2 0x3C9C JUMP JUMPDEST SWAP1 POP PUSH0 DUP1 PUSH1 0x5 PUSH0 SWAP1 SLOAD SWAP1 PUSH2 0x100 EXP SWAP1 DIV PUSH20 0xFFFFFFFFFFFFFFFFFFFFFFFFFFFFFFFFFFFFFFFF AND PUSH20 0xFFFFFFFFFFFFFFFFFFFFFFFFFFFFFFFFFFFFFFFF AND PUSH4 0xC488847B ADDRESS DUP8 DUP7 PUSH1 0x40 MLOAD DUP5 PUSH4 0xFFFFFFFF AND PUSH1 0xE0 SHL DUP2 MSTORE PUSH1 0x4 ADD PUSH2 0x4D66 SWAP4 SWAP3 SWAP2 SWAP1 PUSH2 0x6A97 JUMP JUMPDEST PUSH1 0x40 DUP1 MLOAD DUP1 DUP4 SUB DUP2 DUP7 GAS STATICCALL ISZERO DUP1 ISZERO PUSH2 0x4D80 JUMPI RETURNDATASIZE PUSH0 DUP1 RETURNDATACOPY RETURNDATASIZE PUSH0 REVERT JUMPDEST POP POP POP POP PUSH1 0x40 MLOAD RETURNDATASIZE PUSH1 0x1F NOT PUSH1 0x1F DUP3 ADD AND DUP3 ADD DUP1 PUSH1 0x40 MSTORE POP DUP2 ADD SWAP1 PUSH2 0x4DA4 SWAP2 SWAP1 PUSH2 0x6B0F JUMP JUMPDEST SWAP2 POP SWAP2 POP PUSH0 DUP3 EQ PUSH2 0x4DEA JUMPI PUSH1 0x40 MLOAD PUSH32 0x8C379A000000000000000000000000000000000000000000000000000000000 DUP2 MSTORE PUSH1 0x4 ADD PUSH2 0x4DE1 SWAP1 PUSH2 0x6BBD JUMP JUMPDEST PUSH1 0x40 MLOAD DUP1 SWAP2 SUB SWAP1 REVERT JUMPDEST DUP1 DUP6 PUSH20 0xFFFFFFFFFFFFFFFFFFFFFFFFFFFFFFFFFFFFFFFF AND PUSH4 0x70A08231 DUP10 PUSH1 0x40 MLOAD DUP3 PUSH4 0xFFFFFFFF AND PUSH1 0xE0 SHL DUP2 MSTORE PUSH1 0x4 ADD PUSH2 0x4E24 SWAP2 SWAP1 PUSH2 0x5289 JUMP JUMPDEST PUSH1 0x20 PUSH1 0x40 MLOAD DUP1 DUP4 SUB DUP2 DUP7 GAS STATICCALL ISZERO DUP1 ISZERO PUSH2 0x4E3F JUMPI RETURNDATASIZE PUSH0 DUP1 RETURNDATACOPY RETURNDATASIZE PUSH0 REVERT JUMPDEST POP POP POP POP PUSH1 0x40 MLOAD RETURNDATASIZE PUSH1 0x1F NOT PUSH1 0x1F DUP3 ADD AND DUP3 ADD DUP1 PUSH1 0x40 MSTORE POP DUP2 ADD SWAP1 PUSH2 0x4E63 SWAP2 SWAP1 PUSH2 0x5C51 JUMP JUMPDEST LT ISZERO PUSH2 0x4EA4 JUMPI PUSH1 0x40 MLOAD PUSH32 0x8C379A000000000000000000000000000000000000000000000000000000000 DUP2 MSTORE PUSH1 0x4 ADD PUSH2 0x4E9B SWAP1 PUSH2 0x6C25 JUMP JUMPDEST PUSH1 0x40 MLOAD DUP1 SWAP2 SUB SWAP1 REVERT JUMPDEST ADDRESS PUSH20 0xFFFFFFFFFFFFFFFFFFFFFFFFFFFFFFFFFFFFFFFF AND DUP6 PUSH20 0xFFFFFFFFFFFFFFFFFFFFFFFFFFFFFFFFFFFFFFFF AND SUB PUSH2 0x4EE8 JUMPI PUSH2 0x4EE3 ADDRESS DUP10 DUP10 DUP5 PUSH2 0x34D7 JUMP JUMPDEST PUSH2 0x4FA7 JUMP JUMPDEST PUSH0 DUP6 PUSH20 0xFFFFFFFFFFFFFFFFFFFFFFFFFFFFFFFFFFFFFFFF AND PUSH4 0xB2A02FF1 DUP11 DUP11 DUP6 PUSH1 0x40 MLOAD DUP5 PUSH4 0xFFFFFFFF AND PUSH1 0xE0 SHL DUP2 MSTORE PUSH1 0x4 ADD PUSH2 0x4F26 SWAP4 SWAP3 SWAP2 SWAP1 PUSH2 0x6A97 JUMP JUMPDEST PUSH1 0x20 PUSH1 0x40 MLOAD DUP1 DUP4 SUB DUP2 PUSH0 DUP8 GAS CALL ISZERO DUP1 ISZERO PUSH2 0x4F42 JUMPI RETURNDATASIZE PUSH0 DUP1 RETURNDATACOPY RETURNDATASIZE PUSH0 REVERT JUMPDEST POP POP POP POP PUSH1 0x40 MLOAD RETURNDATASIZE PUSH1 0x1F NOT PUSH1 0x1F DUP3 ADD AND DUP3 ADD DUP1 PUSH1 0x40 MSTORE POP DUP2 ADD SWAP1 PUSH2 0x4F66 SWAP2 SWAP1 PUSH2 0x5C51 JUMP JUMPDEST EQ PUSH2 0x4FA6 JUMPI PUSH1 0x40 MLOAD PUSH32 0x8C379A000000000000000000000000000000000000000000000000000000000 DUP2 MSTORE PUSH1 0x4 ADD PUSH2 0x4F9D SWAP1 PUSH2 0x6C8D JUMP JUMPDEST PUSH1 0x40 MLOAD DUP1 SWAP2 SUB SWAP1 REVERT JUMPDEST JUMPDEST PUSH32 0x298637F684DA70674F26509B10F07EC2FBC77A335AB1E7D6215A4B2484D8BB52 DUP9 DUP9 DUP6 DUP9 DUP6 PUSH1 0x40 MLOAD PUSH2 0x4FDE SWAP6 SWAP5 SWAP4 SWAP3 SWAP2 SWAP1 PUSH2 0x6CAB JUMP JUMPDEST PUSH1 0x40 MLOAD DUP1 SWAP2 SUB SWAP1 LOG1 POP POP POP POP POP POP POP POP JUMP JUMPDEST PUSH0 DUP1 PUSH1 0x11 PUSH0 SWAP1 SLOAD SWAP1 PUSH2 0x100 EXP SWAP1 DIV PUSH20 0xFFFFFFFFFFFFFFFFFFFFFFFFFFFFFFFFFFFFFFFF AND SWAP1 POP PUSH0 DUP2 SWAP1 POP PUSH0 DUP3 PUSH20 0xFFFFFFFFFFFFFFFFFFFFFFFFFFFFFFFFFFFFFFFF AND PUSH4 0x70A08231 ADDRESS PUSH1 0x40 MLOAD DUP3 PUSH4 0xFFFFFFFF AND PUSH1 0xE0 SHL DUP2 MSTORE PUSH1 0x4 ADD PUSH2 0x5054 SWAP2 SWAP1 PUSH2 0x5289 JUMP JUMPDEST PUSH1 0x20 PUSH1 0x40 MLOAD DUP1 DUP4 SUB DUP2 DUP7 GAS STATICCALL ISZERO DUP1 ISZERO PUSH2 0x506F JUMPI RETURNDATASIZE PUSH0 DUP1 RETURNDATACOPY RETURNDATASIZE PUSH0 REVERT JUMPDEST POP POP POP POP PUSH1 0x40 MLOAD RETURNDATASIZE PUSH1 0x1F NOT PUSH1 0x1F DUP3 ADD AND DUP3 ADD DUP1 PUSH1 0x40 MSTORE POP DUP2 ADD SWAP1 PUSH2 0x5093 SWAP2 SWAP1 PUSH2 0x5C51 JUMP JUMPDEST SWAP1 POP DUP2 PUSH20 0xFFFFFFFFFFFFFFFFFFFFFFFFFFFFFFFFFFFFFFFF AND PUSH4 0x23B872DD DUP8 ADDRESS DUP9 PUSH1 0x40 MLOAD DUP5 PUSH4 0xFFFFFFFF AND PUSH1 0xE0 SHL DUP2 MSTORE PUSH1 0x4 ADD PUSH2 0x50D2 SWAP4 SWAP3 SWAP2 SWAP1 PUSH2 0x6A97 JUMP JUMPDEST PUSH0 PUSH1 0x40 MLOAD DUP1 DUP4 SUB DUP2 PUSH0 DUP8 DUP1 EXTCODESIZE ISZERO DUP1 ISZERO PUSH2 0x50E9 JUMPI PUSH0 DUP1 REVERT JUMPDEST POP GAS CALL ISZERO DUP1 ISZERO PUSH2 0x50FB JUMPI RETURNDATASIZE PUSH0 DUP1 RETURNDATACOPY RETURNDATASIZE PUSH0 REVERT JUMPDEST POP POP POP POP PUSH0 RETURNDATASIZE PUSH0 DUP2 EQ PUSH2 0x5114 JUMPI PUSH1 0x20 DUP2 EQ PUSH2 0x511D JUMPI PUSH0 DUP1 REVERT JUMPDEST PUSH0 NOT SWAP2 POP PUSH2 0x5127 JUMP JUMPDEST PUSH1 0x20 PUSH0 DUP1 RETURNDATACOPY PUSH0 MLOAD SWAP2 POP JUMPDEST POP DUP1 PUSH2 0x5168 JUMPI PUSH1 0x40 MLOAD PUSH32 0x8C379A000000000000000000000000000000000000000000000000000000000 DUP2 MSTORE PUSH1 0x4 ADD PUSH2 0x515F SWAP1 PUSH2 0x6D46 JUMP JUMPDEST PUSH1 0x40 MLOAD DUP1 SWAP2 SUB SWAP1 REVERT JUMPDEST PUSH0 DUP5 PUSH20 0xFFFFFFFFFFFFFFFFFFFFFFFFFFFFFFFFFFFFFFFF AND PUSH4 0x70A08231 ADDRESS PUSH1 0x40 MLOAD DUP3 PUSH4 0xFFFFFFFF AND PUSH1 0xE0 SHL DUP2 MSTORE PUSH1 0x4 ADD PUSH2 0x51A2 SWAP2 SWAP1 PUSH2 0x5289 JUMP JUMPDEST PUSH1 0x20 PUSH1 0x40 MLOAD DUP1 DUP4 SUB DUP2 DUP7 GAS STATICCALL ISZERO DUP1 ISZERO PUSH2 0x51BD JUMPI RETURNDATASIZE PUSH0 DUP1 RETURNDATACOPY RETURNDATASIZE PUSH0 REVERT JUMPDEST POP POP POP POP PUSH1 0x40 MLOAD RETURNDATASIZE PUSH1 0x1F NOT PUSH1 0x1F DUP3 ADD AND DUP3 ADD DUP1 PUSH1 0x40 MSTORE POP DUP2 ADD SWAP1 PUSH2 0x51E1 SWAP2 SWAP1 PUSH2 0x5C51 JUMP JUMPDEST SWAP1 POP DUP3 DUP2 PUSH2 0x51EF SWAP2 SWAP1 PUSH2 0x65BC JUMP JUMPDEST SWAP6 POP POP POP POP POP POP SWAP3 SWAP2 POP POP JUMP JUMPDEST PUSH0 PUSH2 0x521B PUSH2 0x5212 DUP5 PUSH8 0xDE0B6B3A7640000 PUSH2 0x4762 JUMP JUMPDEST DUP4 PUSH0 ADD MLOAD PUSH2 0x5223 JUMP JUMPDEST SWAP1 POP SWAP3 SWAP2 POP POP JUMP JUMPDEST PUSH0 DUP2 DUP4 PUSH2 0x5230 SWAP2 SWAP1 PUSH2 0x64EF JUMP JUMPDEST SWAP1 POP SWAP3 SWAP2 POP POP JUMP JUMPDEST PUSH1 0x40 MLOAD DUP1 PUSH1 0x20 ADD PUSH1 0x40 MSTORE DUP1 PUSH0 DUP2 MSTORE POP SWAP1 JUMP JUMPDEST PUSH0 PUSH20 0xFFFFFFFFFFFFFFFFFFFFFFFFFFFFFFFFFFFFFFFF DUP3 AND SWAP1 POP SWAP2 SWAP1 POP JUMP JUMPDEST PUSH0 PUSH2 0x5273 DUP3 PUSH2 0x524A JUMP JUMPDEST SWAP1 POP SWAP2 SWAP1 POP JUMP JUMPDEST PUSH2 0x5283 DUP2 PUSH2 0x5269 JUMP JUMPDEST DUP3 MSTORE POP POP JUMP JUMPDEST PUSH0 PUSH1 0x20 DUP3 ADD SWAP1 POP PUSH2 0x529C PUSH0 DUP4 ADD DUP5 PUSH2 0x527A JUMP JUMPDEST SWAP3 SWAP2 POP POP JUMP JUMPDEST PUSH0 DUP2 MLOAD SWAP1 POP SWAP2 SWAP1 POP JUMP JUMPDEST PUSH0 DUP3 DUP3 MSTORE PUSH1 0x20 DUP3 ADD SWAP1 POP SWAP3 SWAP2 POP POP JUMP JUMPDEST DUP3 DUP2 DUP4 MCOPY PUSH0 DUP4 DUP4 ADD MSTORE POP POP POP JUMP JUMPDEST PUSH0 PUSH1 0x1F NOT PUSH1 0x1F DUP4 ADD AND SWAP1 POP SWAP2 SWAP1 POP JUMP JUMPDEST PUSH0 PUSH2 0x52E4 DUP3 PUSH2 0x52A2 JUMP JUMPDEST PUSH2 0x52EE DUP2 DUP6 PUSH2 0x52AC JUMP JUMPDEST SWAP4 POP PUSH2 0x52FE DUP2 DUP6 PUSH1 0x20 DUP7 ADD PUSH2 0x52BC JUMP JUMPDEST PUSH2 0x5307 DUP2 PUSH2 0x52CA JUMP JUMPDEST DUP5 ADD SWAP2 POP POP SWAP3 SWAP2 POP POP JUMP JUMPDEST PUSH0 PUSH1 0x20 DUP3 ADD SWAP1 POP DUP2 DUP2 SUB PUSH0 DUP4 ADD MSTORE PUSH2 0x532A DUP2 DUP5 PUSH2 0x52DA JUMP JUMPDEST SWAP1 POP SWAP3 SWAP2 POP POP JUMP JUMPDEST PUSH0 PUSH1 0x40 MLOAD SWAP1 POP SWAP1 JUMP JUMPDEST PUSH0 DUP1 REVERT JUMPDEST PUSH0 DUP1 REVERT JUMPDEST PUSH2 0x534C DUP2 PUSH2 0x5269 JUMP JUMPDEST DUP2 EQ PUSH2 0x5356 JUMPI PUSH0 DUP1 REVERT JUMPDEST POP JUMP JUMPDEST PUSH0 DUP2 CALLDATALOAD SWAP1 POP PUSH2 0x5367 DUP2 PUSH2 0x5343 JUMP JUMPDEST SWAP3 SWAP2 POP POP JUMP JUMPDEST PUSH0 DUP2 SWAP1 POP SWAP2 SWAP1 POP JUMP JUMPDEST PUSH2 0x537F DUP2 PUSH2 0x536D JUMP JUMPDEST DUP2 EQ PUSH2 0x5389 JUMPI PUSH0 DUP1 REVERT JUMPDEST POP JUMP JUMPDEST PUSH0 DUP2 CALLDATALOAD SWAP1 POP PUSH2 0x539A DUP2 PUSH2 0x5376 JUMP JUMPDEST SWAP3 SWAP2 POP POP JUMP JUMPDEST PUSH0 DUP1 PUSH1 0x40 DUP4 DUP6 SUB SLT ISZERO PUSH2 0x53B6 JUMPI PUSH2 0x53B5 PUSH2 0x533B JUMP JUMPDEST JUMPDEST PUSH0 PUSH2 0x53C3 DUP6 DUP3 DUP7 ADD PUSH2 0x5359 JUMP JUMPDEST SWAP3 POP POP PUSH1 0x20 PUSH2 0x53D4 DUP6 DUP3 DUP7 ADD PUSH2 0x538C JUMP JUMPDEST SWAP2 POP POP SWAP3 POP SWAP3 SWAP1 POP JUMP JUMPDEST PUSH0 DUP2 ISZERO ISZERO SWAP1 POP SWAP2 SWAP1 POP JUMP JUMPDEST PUSH2 0x53F2 DUP2 PUSH2 0x53DE JUMP JUMPDEST DUP3 MSTORE POP POP JUMP JUMPDEST PUSH0 PUSH1 0x20 DUP3 ADD SWAP1 POP PUSH2 0x540B PUSH0 DUP4 ADD DUP5 PUSH2 0x53E9 JUMP JUMPDEST SWAP3 SWAP2 POP POP JUMP JUMPDEST PUSH0 PUSH1 0x20 DUP3 DUP5 SUB SLT ISZERO PUSH2 0x5426 JUMPI PUSH2 0x5425 PUSH2 0x533B JUMP JUMPDEST JUMPDEST PUSH0 PUSH2 0x5433 DUP5 DUP3 DUP6 ADD PUSH2 0x538C JUMP JUMPDEST SWAP2 POP POP SWAP3 SWAP2 POP POP JUMP JUMPDEST PUSH2 0x5445 DUP2 PUSH2 0x536D JUMP JUMPDEST DUP3 MSTORE POP POP JUMP JUMPDEST PUSH0 PUSH1 0x20 DUP3 ADD SWAP1 POP PUSH2 0x545E PUSH0 DUP4 ADD DUP5 PUSH2 0x543C JUMP JUMPDEST SWAP3 SWAP2 POP POP JUMP JUMPDEST PUSH0 PUSH1 0x20 DUP3 DUP5 SUB SLT ISZERO PUSH2 0x5479 JUMPI PUSH2 0x5478 PUSH2 0x533B JUMP JUMPDEST JUMPDEST PUSH0 PUSH2 0x5486 DUP5 DUP3 DUP6 ADD PUSH2 0x5359 JUMP JUMPDEST SWAP2 POP POP SWAP3 SWAP2 POP POP JUMP JUMPDEST PUSH0 PUSH2 0x5499 DUP3 PUSH2 0x5269 JUMP JUMPDEST SWAP1 POP SWAP2 SWAP1 POP JUMP JUMPDEST PUSH2 0x54A9 DUP2 PUSH2 0x548F JUMP JUMPDEST DUP2 EQ PUSH2 0x54B3 JUMPI PUSH0 DUP1 REVERT JUMPDEST POP JUMP JUMPDEST PUSH0 DUP2 CALLDATALOAD SWAP1 POP PUSH2 0x54C4 DUP2 PUSH2 0x54A0 JUMP JUMPDEST SWAP3 SWAP2 POP POP JUMP JUMPDEST PUSH0 PUSH2 0x54D4 DUP3 PUSH2 0x5269 JUMP JUMPDEST SWAP1 POP SWAP2 SWAP1 POP JUMP JUMPDEST PUSH2 0x54E4 DUP2 PUSH2 0x54CA JUMP JUMPDEST DUP2 EQ PUSH2 0x54EE JUMPI PUSH0 DUP1 REVERT JUMPDEST POP JUMP JUMPDEST PUSH0 DUP2 CALLDATALOAD SWAP1 POP PUSH2 0x54FF DUP2 PUSH2 0x54DB JUMP JUMPDEST SWAP3 SWAP2 POP POP JUMP JUMPDEST PUSH0 DUP1 REVERT JUMPDEST PUSH0 DUP1 REVERT JUMPDEST PUSH32 0x4E487B7100000000000000000000000000000000000000000000000000000000 PUSH0 MSTORE PUSH1 0x41 PUSH1 0x4 MSTORE PUSH1 0x24 PUSH0 REVERT JUMPDEST PUSH2 0x5543 DUP3 PUSH2 0x52CA JUMP JUMPDEST DUP2 ADD DUP2 DUP2 LT PUSH8 0xFFFFFFFFFFFFFFFF DUP3 GT OR ISZERO PUSH2 0x5562 JUMPI PUSH2 0x5561 PUSH2 0x550D JUMP JUMPDEST JUMPDEST DUP1 PUSH1 0x40 MSTORE POP POP POP JUMP JUMPDEST PUSH0 PUSH2 0x5574 PUSH2 0x5332 JUMP JUMPDEST SWAP1 POP PUSH2 0x5580 DUP3 DUP3 PUSH2 0x553A JUMP JUMPDEST SWAP2 SWAP1 POP JUMP JUMPDEST PUSH0 PUSH8 0xFFFFFFFFFFFFFFFF DUP3 GT ISZERO PUSH2 0x559F JUMPI PUSH2 0x559E PUSH2 0x550D JUMP JUMPDEST JUMPDEST PUSH2 0x55A8 DUP3 PUSH2 0x52CA JUMP JUMPDEST SWAP1 POP PUSH1 0x20 DUP2 ADD SWAP1 POP SWAP2 SWAP1 POP JUMP JUMPDEST DUP3 DUP2 DUP4 CALLDATACOPY PUSH0 DUP4 DUP4 ADD MSTORE POP POP POP JUMP JUMPDEST PUSH0 PUSH2 0x55D5 PUSH2 0x55D0 DUP5 PUSH2 0x5585 JUMP JUMPDEST PUSH2 0x556B JUMP JUMPDEST SWAP1 POP DUP3 DUP2 MSTORE PUSH1 0x20 DUP2 ADD DUP5 DUP5 DUP5 ADD GT ISZERO PUSH2 0x55F1 JUMPI PUSH2 0x55F0 PUSH2 0x5509 JUMP JUMPDEST JUMPDEST PUSH2 0x55FC DUP5 DUP3 DUP6 PUSH2 0x55B5 JUMP JUMPDEST POP SWAP4 SWAP3 POP POP POP JUMP JUMPDEST PUSH0 DUP3 PUSH1 0x1F DUP4 ADD SLT PUSH2 0x5618 JUMPI PUSH2 0x5617 PUSH2 0x5505 JUMP JUMPDEST JUMPDEST DUP2 CALLDATALOAD PUSH2 0x5628 DUP5 DUP3 PUSH1 0x20 DUP7 ADD PUSH2 0x55C3 JUMP JUMPDEST SWAP2 POP POP SWAP3 SWAP2 POP POP JUMP JUMPDEST PUSH0 PUSH1 0xFF DUP3 AND SWAP1 POP SWAP2 SWAP1 POP JUMP JUMPDEST PUSH2 0x5646 DUP2 PUSH2 0x5631 JUMP JUMPDEST DUP2 EQ PUSH2 0x5650 JUMPI PUSH0 DUP1 REVERT JUMPDEST POP JUMP JUMPDEST PUSH0 DUP2 CALLDATALOAD SWAP1 POP PUSH2 0x5661 DUP2 PUSH2 0x563D JUMP JUMPDEST SWAP3 SWAP2 POP POP JUMP JUMPDEST PUSH0 DUP1 PUSH0 DUP1 PUSH0 DUP1 PUSH0 PUSH1 0xE0 DUP9 DUP11 SUB SLT ISZERO PUSH2 0x5682 JUMPI PUSH2 0x5681 PUSH2 0x533B JUMP JUMPDEST JUMPDEST PUSH0 PUSH2 0x568F DUP11 DUP3 DUP12 ADD PUSH2 0x5359 JUMP JUMPDEST SWAP8 POP POP PUSH1 0x20 PUSH2 0x56A0 DUP11 DUP3 DUP12 ADD PUSH2 0x54B6 JUMP JUMPDEST SWAP7 POP POP PUSH1 0x40 PUSH2 0x56B1 DUP11 DUP3 DUP12 ADD PUSH2 0x54F1 JUMP JUMPDEST SWAP6 POP POP PUSH1 0x60 PUSH2 0x56C2 DUP11 DUP3 DUP12 ADD PUSH2 0x538C JUMP JUMPDEST SWAP5 POP POP PUSH1 0x80 DUP9 ADD CALLDATALOAD PUSH8 0xFFFFFFFFFFFFFFFF DUP2 GT ISZERO PUSH2 0x56E3 JUMPI PUSH2 0x56E2 PUSH2 0x533F JUMP JUMPDEST JUMPDEST PUSH2 0x56EF DUP11 DUP3 DUP12 ADD PUSH2 0x5604 JUMP JUMPDEST SWAP4 POP POP PUSH1 0xA0 DUP9 ADD CALLDATALOAD PUSH8 0xFFFFFFFFFFFFFFFF DUP2 GT ISZERO PUSH2 0x5710 JUMPI PUSH2 0x570F PUSH2 0x533F JUMP JUMPDEST JUMPDEST PUSH2 0x571C DUP11 DUP3 DUP12 ADD PUSH2 0x5604 JUMP JUMPDEST SWAP3 POP POP PUSH1 0xC0 PUSH2 0x572D DUP11 DUP3 DUP12 ADD PUSH2 0x5653 JUMP JUMPDEST SWAP2 POP POP SWAP3 SWAP6 SWAP9 SWAP2 SWAP5 SWAP8 POP SWAP3 SWAP6 POP JUMP JUMPDEST PUSH0 PUSH2 0x5746 DUP3 PUSH2 0x5269 JUMP JUMPDEST SWAP1 POP SWAP2 SWAP1 POP JUMP JUMPDEST PUSH2 0x5756 DUP2 PUSH2 0x573C JUMP JUMPDEST DUP2 EQ PUSH2 0x5760 JUMPI PUSH0 DUP1 REVERT JUMPDEST POP JUMP JUMPDEST PUSH0 DUP2 CALLDATALOAD SWAP1 POP PUSH2 0x5771 DUP2 PUSH2 0x574D JUMP JUMPDEST SWAP3 SWAP2 POP POP JUMP JUMPDEST PUSH0 PUSH1 0x20 DUP3 DUP5 SUB SLT ISZERO PUSH2 0x578C JUMPI PUSH2 0x578B PUSH2 0x533B JUMP JUMPDEST JUMPDEST PUSH0 PUSH2 0x5799 DUP5 DUP3 DUP6 ADD PUSH2 0x5763 JUMP JUMPDEST SWAP2 POP POP SWAP3 SWAP2 POP POP JUMP JUMPDEST PUSH0 DUP1 PUSH0 PUSH1 0x60 DUP5 DUP7 SUB SLT ISZERO PUSH2 0x57B9 JUMPI PUSH2 0x57B8 PUSH2 0x533B JUMP JUMPDEST JUMPDEST PUSH0 PUSH2 0x57C6 DUP7 DUP3 DUP8 ADD PUSH2 0x5359 JUMP JUMPDEST SWAP4 POP POP PUSH1 0x20 PUSH2 0x57D7 DUP7 DUP3 DUP8 ADD PUSH2 0x5359 JUMP JUMPDEST SWAP3 POP POP PUSH1 0x40 PUSH2 0x57E8 DUP7 DUP3 DUP8 ADD PUSH2 0x538C JUMP JUMPDEST SWAP2 POP POP SWAP3 POP SWAP3 POP SWAP3 JUMP JUMPDEST PUSH0 PUSH2 0x57FC DUP3 PUSH2 0x524A JUMP JUMPDEST SWAP1 POP SWAP2 SWAP1 POP JUMP JUMPDEST PUSH2 0x580C DUP2 PUSH2 0x57F2 JUMP JUMPDEST DUP3 MSTORE POP POP JUMP JUMPDEST PUSH0 PUSH1 0x20 DUP3 ADD SWAP1 POP PUSH2 0x5825 PUSH0 DUP4 ADD DUP5 PUSH2 0x5803 JUMP JUMPDEST SWAP3 SWAP2 POP POP JUMP JUMPDEST PUSH2 0x5834 DUP2 PUSH2 0x5631 JUMP JUMPDEST DUP3 MSTORE POP POP JUMP JUMPDEST PUSH0 PUSH1 0x20 DUP3 ADD SWAP1 POP PUSH2 0x584D PUSH0 DUP4 ADD DUP5 PUSH2 0x582B JUMP JUMPDEST SWAP3 SWAP2 POP POP JUMP JUMPDEST PUSH0 PUSH1 0x20 DUP3 DUP5 SUB SLT ISZERO PUSH2 0x5868 JUMPI PUSH2 0x5867 PUSH2 0x533B JUMP JUMPDEST JUMPDEST PUSH0 PUSH2 0x5875 DUP5 DUP3 DUP6 ADD PUSH2 0x54B6 JUMP JUMPDEST SWAP2 POP POP SWAP3 SWAP2 POP POP JUMP JUMPDEST PUSH0 DUP2 SWAP1 POP SWAP2 SWAP1 POP JUMP JUMPDEST PUSH0 PUSH2 0x58A1 PUSH2 0x589C PUSH2 0x5897 DUP5 PUSH2 0x524A JUMP JUMPDEST PUSH2 0x587E JUMP JUMPDEST PUSH2 0x524A JUMP JUMPDEST SWAP1 POP SWAP2 SWAP1 POP JUMP JUMPDEST PUSH0 PUSH2 0x58B2 DUP3 PUSH2 0x5887 JUMP JUMPDEST SWAP1 POP SWAP2 SWAP1 POP JUMP JUMPDEST PUSH0 PUSH2 0x58C3 DUP3 PUSH2 0x58A8 JUMP JUMPDEST SWAP1 POP SWAP2 SWAP1 POP JUMP JUMPDEST PUSH2 0x58D3 DUP2 PUSH2 0x58B9 JUMP JUMPDEST DUP3 MSTORE POP POP JUMP JUMPDEST PUSH0 PUSH1 0x20 DUP3 ADD SWAP1 POP PUSH2 0x58EC PUSH0 DUP4 ADD DUP5 PUSH2 0x58CA JUMP JUMPDEST SWAP3 SWAP2 POP POP JUMP JUMPDEST PUSH0 DUP1 PUSH0 DUP1 PUSH0 DUP1 PUSH1 0xC0 DUP8 DUP10 SUB SLT ISZERO PUSH2 0x590C JUMPI PUSH2 0x590B PUSH2 0x533B JUMP JUMPDEST JUMPDEST PUSH0 PUSH2 0x5919 DUP10 DUP3 DUP11 ADD PUSH2 0x54B6 JUMP JUMPDEST SWAP7 POP POP PUSH1 0x20 PUSH2 0x592A DUP10 DUP3 DUP11 ADD PUSH2 0x54F1 JUMP JUMPDEST SWAP6 POP POP PUSH1 0x40 PUSH2 0x593B DUP10 DUP3 DUP11 ADD PUSH2 0x538C JUMP JUMPDEST SWAP5 POP POP PUSH1 0x60 DUP8 ADD CALLDATALOAD PUSH8 0xFFFFFFFFFFFFFFFF DUP2 GT ISZERO PUSH2 0x595C JUMPI PUSH2 0x595B PUSH2 0x533F JUMP JUMPDEST JUMPDEST PUSH2 0x5968 DUP10 DUP3 DUP11 ADD PUSH2 0x5604 JUMP JUMPDEST SWAP4 POP POP PUSH1 0x80 DUP8 ADD CALLDATALOAD PUSH8 0xFFFFFFFFFFFFFFFF DUP2 GT ISZERO PUSH2 0x5989 JUMPI PUSH2 0x5988 PUSH2 0x533F JUMP JUMPDEST JUMPDEST PUSH2 0x5995 DUP10 DUP3 DUP11 ADD PUSH2 0x5604 JUMP JUMPDEST SWAP3 POP POP PUSH1 0xA0 PUSH2 0x59A6 DUP10 DUP3 DUP11 ADD PUSH2 0x5653 JUMP JUMPDEST SWAP2 POP POP SWAP3 SWAP6 POP SWAP3 SWAP6 POP SWAP3 SWAP6 JUMP JUMPDEST PUSH2 0x59BC DUP2 PUSH2 0x57F2 JUMP JUMPDEST DUP2 EQ PUSH2 0x59C6 JUMPI PUSH0 DUP1 REVERT JUMPDEST POP JUMP JUMPDEST PUSH0 DUP2 CALLDATALOAD SWAP1 POP PUSH2 0x59D7 DUP2 PUSH2 0x59B3 JUMP JUMPDEST SWAP3 SWAP2 POP POP JUMP JUMPDEST PUSH0 PUSH1 0x20 DUP3 DUP5 SUB SLT ISZERO PUSH2 0x59F2 JUMPI PUSH2 0x59F1 PUSH2 0x533B JUMP JUMPDEST JUMPDEST PUSH0 PUSH2 0x59FF DUP5 DUP3 DUP6 ADD PUSH2 0x59C9 JUMP JUMPDEST SWAP2 POP POP SWAP3 SWAP2 POP POP JUMP JUMPDEST PUSH0 PUSH1 0x80 DUP3 ADD SWAP1 POP PUSH2 0x5A1B PUSH0 DUP4 ADD DUP8 PUSH2 0x543C JUMP JUMPDEST PUSH2 0x5A28 PUSH1 0x20 DUP4 ADD DUP7 PUSH2 0x543C JUMP JUMPDEST PUSH2 0x5A35 PUSH1 0x40 DUP4 ADD DUP6 PUSH2 0x543C JUMP JUMPDEST PUSH2 0x5A42 PUSH1 0x60 DUP4 ADD DUP5 PUSH2 0x543C JUMP JUMPDEST SWAP6 SWAP5 POP POP POP POP POP JUMP JUMPDEST PUSH0 DUP1 PUSH1 0x40 DUP4 DUP6 SUB SLT ISZERO PUSH2 0x5A61 JUMPI PUSH2 0x5A60 PUSH2 0x533B JUMP JUMPDEST JUMPDEST PUSH0 PUSH2 0x5A6E DUP6 DUP3 DUP7 ADD PUSH2 0x5359 JUMP JUMPDEST SWAP3 POP POP PUSH1 0x20 PUSH2 0x5A7F DUP6 DUP3 DUP7 ADD PUSH2 0x5359 JUMP JUMPDEST SWAP2 POP POP SWAP3 POP SWAP3 SWAP1 POP JUMP JUMPDEST PUSH0 PUSH1 0x20 DUP3 DUP5 SUB SLT ISZERO PUSH2 0x5A9E JUMPI PUSH2 0x5A9D PUSH2 0x533B JUMP JUMPDEST JUMPDEST PUSH0 PUSH2 0x5AAB DUP5 DUP3 DUP6 ADD PUSH2 0x54F1 JUMP JUMPDEST SWAP2 POP POP SWAP3 SWAP2 POP POP JUMP JUMPDEST PUSH0 PUSH2 0x5ABE DUP3 PUSH2 0x58A8 JUMP JUMPDEST SWAP1 POP SWAP2 SWAP1 POP JUMP JUMPDEST PUSH2 0x5ACE DUP2 PUSH2 0x5AB4 JUMP JUMPDEST DUP3 MSTORE POP POP JUMP JUMPDEST PUSH0 PUSH1 0x20 DUP3 ADD SWAP1 POP PUSH2 0x5AE7 PUSH0 DUP4 ADD DUP5 PUSH2 0x5AC5 JUMP JUMPDEST SWAP3 SWAP2 POP POP JUMP JUMPDEST PUSH0 PUSH2 0x5AF7 DUP3 PUSH2 0x5269 JUMP JUMPDEST SWAP1 POP SWAP2 SWAP1 POP JUMP JUMPDEST PUSH2 0x5B07 DUP2 PUSH2 0x5AED JUMP JUMPDEST DUP2 EQ PUSH2 0x5B11 JUMPI PUSH0 DUP1 REVERT JUMPDEST POP JUMP JUMPDEST PUSH0 DUP2 CALLDATALOAD SWAP1 POP PUSH2 0x5B22 DUP2 PUSH2 0x5AFE JUMP JUMPDEST SWAP3 SWAP2 POP POP JUMP JUMPDEST PUSH0 DUP1 PUSH0 PUSH1 0x60 DUP5 DUP7 SUB SLT ISZERO PUSH2 0x5B3F JUMPI PUSH2 0x5B3E PUSH2 0x533B JUMP JUMPDEST JUMPDEST PUSH0 PUSH2 0x5B4C DUP7 DUP3 DUP8 ADD PUSH2 0x5359 JUMP JUMPDEST SWAP4 POP POP PUSH1 0x20 PUSH2 0x5B5D DUP7 DUP3 DUP8 ADD PUSH2 0x538C JUMP JUMPDEST SWAP3 POP POP PUSH1 0x40 PUSH2 0x5B6E DUP7 DUP3 DUP8 ADD PUSH2 0x5B14 JUMP JUMPDEST SWAP2 POP POP SWAP3 POP SWAP3 POP SWAP3 JUMP JUMPDEST PUSH32 0x4E487B7100000000000000000000000000000000000000000000000000000000 PUSH0 MSTORE PUSH1 0x22 PUSH1 0x4 MSTORE PUSH1 0x24 PUSH0 REVERT JUMPDEST PUSH0 PUSH1 0x2 DUP3 DIV SWAP1 POP PUSH1 0x1 DUP3 AND DUP1 PUSH2 0x5BBC JUMPI PUSH1 0x7F DUP3 AND SWAP2 POP JUMPDEST PUSH1 0x20 DUP3 LT DUP2 SUB PUSH2 0x5BCF JUMPI PUSH2 0x5BCE PUSH2 0x5B78 JUMP JUMPDEST JUMPDEST POP SWAP2 SWAP1 POP JUMP JUMPDEST PUSH32 0x72652D656E746572656400000000000000000000000000000000000000000000 PUSH0 DUP3 ADD MSTORE POP JUMP JUMPDEST PUSH0 PUSH2 0x5C09 PUSH1 0xA DUP4 PUSH2 0x52AC JUMP JUMPDEST SWAP2 POP PUSH2 0x5C14 DUP3 PUSH2 0x5BD5 JUMP JUMPDEST PUSH1 0x20 DUP3 ADD SWAP1 POP SWAP2 SWAP1 POP JUMP JUMPDEST PUSH0 PUSH1 0x20 DUP3 ADD SWAP1 POP DUP2 DUP2 SUB PUSH0 DUP4 ADD MSTORE PUSH2 0x5C36 DUP2 PUSH2 0x5BFD JUMP JUMPDEST SWAP1 POP SWAP2 SWAP1 POP JUMP JUMPDEST PUSH0 DUP2 MLOAD SWAP1 POP PUSH2 0x5C4B DUP2 PUSH2 0x5376 JUMP JUMPDEST SWAP3 SWAP2 POP POP JUMP JUMPDEST PUSH0 PUSH1 0x20 DUP3 DUP5 SUB SLT ISZERO PUSH2 0x5C66 JUMPI PUSH2 0x5C65 PUSH2 0x533B JUMP JUMPDEST JUMPDEST PUSH0 PUSH2 0x5C73 DUP5 DUP3 DUP6 ADD PUSH2 0x5C3D JUMP JUMPDEST SWAP2 POP POP SWAP3 SWAP2 POP POP JUMP JUMPDEST PUSH32 0x4345726332303A3A7377656570546F6B656E3A206F6E6C792061646D696E2063 PUSH0 DUP3 ADD MSTORE PUSH32 0x616E20737765657020746F6B656E730000000000000000000000000000000000 PUSH1 0x20 DUP3 ADD MSTORE POP JUMP JUMPDEST PUSH0 PUSH2 0x5CD6 PUSH1 0x2F DUP4 PUSH2 0x52AC JUMP JUMPDEST SWAP2 POP PUSH2 0x5CE1 DUP3 PUSH2 0x5C7C JUMP JUMPDEST PUSH1 0x40 DUP3 ADD SWAP1 POP SWAP2 SWAP1 POP JUMP JUMPDEST PUSH0 PUSH1 0x20 DUP3 ADD SWAP1 POP DUP2 DUP2 SUB PUSH0 DUP4 ADD MSTORE PUSH2 0x5D03 DUP2 PUSH2 0x5CCA JUMP JUMPDEST SWAP1 POP SWAP2 SWAP1 POP JUMP JUMPDEST PUSH32 0x4345726332303A3A7377656570546F6B656E3A2063616E206E6F742073776565 PUSH0 DUP3 ADD MSTORE PUSH32 0x7020756E6465726C79696E6720746F6B656E0000000000000000000000000000 PUSH1 0x20 DUP3 ADD MSTORE POP JUMP JUMPDEST PUSH0 PUSH2 0x5D64 PUSH1 0x32 DUP4 PUSH2 0x52AC JUMP JUMPDEST SWAP2 POP PUSH2 0x5D6F DUP3 PUSH2 0x5D0A JUMP JUMPDEST PUSH1 0x40 DUP3 ADD SWAP1 POP SWAP2 SWAP1 POP JUMP JUMPDEST PUSH0 PUSH1 0x20 DUP3 ADD SWAP1 POP DUP2 DUP2 SUB PUSH0 DUP4 ADD MSTORE PUSH2 0x5D91 DUP2 PUSH2 0x5D58 JUMP JUMPDEST SWAP1 POP SWAP2 SWAP1 POP JUMP JUMPDEST PUSH0 PUSH2 0x5DA2 DUP3 PUSH2 0x58A8 JUMP JUMPDEST SWAP1 POP SWAP2 SWAP1 POP JUMP JUMPDEST PUSH2 0x5DB2 DUP2 PUSH2 0x5D98 JUMP JUMPDEST DUP3 MSTORE POP POP JUMP JUMPDEST PUSH0 PUSH1 0x40 DUP3 ADD SWAP1 POP PUSH2 0x5DCB PUSH0 DUP4 ADD DUP6 PUSH2 0x5DA9 JUMP JUMPDEST PUSH2 0x5DD8 PUSH1 0x20 DUP4 ADD DUP5 PUSH2 0x543C JUMP JUMPDEST SWAP4 SWAP3 POP POP POP JUMP JUMPDEST PUSH2 0x5DE8 DUP2 PUSH2 0x53DE JUMP JUMPDEST DUP2 EQ PUSH2 0x5DF2 JUMPI PUSH0 DUP1 REVERT JUMPDEST POP JUMP JUMPDEST PUSH0 DUP2 MLOAD SWAP1 POP PUSH2 0x5E03 DUP2 PUSH2 0x5DDF JUMP JUMPDEST SWAP3 SWAP2 POP POP JUMP JUMPDEST PUSH0 PUSH1 0x20 DUP3 DUP5 SUB SLT ISZERO PUSH2 0x5E1E JUMPI PUSH2 0x5E1D PUSH2 0x533B JUMP JUMPDEST JUMPDEST PUSH0 PUSH2 0x5E2B DUP5 DUP3 DUP6 ADD PUSH2 0x5DF5 JUMP JUMPDEST SWAP2 POP POP SWAP3 SWAP2 POP POP JUMP JUMPDEST PUSH32 0x6D61726B6572206D6574686F642072657475726E65642066616C736500000000 PUSH0 DUP3 ADD MSTORE POP JUMP JUMPDEST PUSH0 PUSH2 0x5E68 PUSH1 0x1C DUP4 PUSH2 0x52AC JUMP JUMPDEST SWAP2 POP PUSH2 0x5E73 DUP3 PUSH2 0x5E34 JUMP JUMPDEST PUSH1 0x20 DUP3 ADD SWAP1 POP SWAP2 SWAP1 POP JUMP JUMPDEST PUSH0 PUSH1 0x20 DUP3 ADD SWAP1 POP DUP2 DUP2 SUB PUSH0 DUP4 ADD MSTORE PUSH2 0x5E95 DUP2 PUSH2 0x5E5C JUMP JUMPDEST SWAP1 POP SWAP2 SWAP1 POP JUMP JUMPDEST PUSH0 PUSH1 0x40 DUP3 ADD SWAP1 POP PUSH2 0x5EAF PUSH0 DUP4 ADD DUP6 PUSH2 0x58CA JUMP JUMPDEST PUSH2 0x5EBC PUSH1 0x20 DUP4 ADD DUP5 PUSH2 0x58CA JUMP JUMPDEST SWAP4 SWAP3 POP POP POP JUMP JUMPDEST PUSH32 0x6F6E6C79207468652061646D696E206D6179207365742074686520636F6D702D PUSH0 DUP3 ADD MSTORE PUSH32 0x6C696B652064656C656761746500000000000000000000000000000000000000 PUSH1 0x20 DUP3 ADD MSTORE POP JUMP JUMPDEST PUSH0 PUSH2 0x5F1D PUSH1 0x2D DUP4 PUSH2 0x52AC JUMP JUMPDEST SWAP2 POP PUSH2 0x5F28 DUP3 PUSH2 0x5EC3 JUMP JUMPDEST PUSH1 0x40 DUP3 ADD SWAP1 POP SWAP2 SWAP1 POP JUMP JUMPDEST PUSH0 PUSH1 0x20 DUP3 ADD SWAP1 POP DUP2 DUP2 SUB PUSH0 DUP4 ADD MSTORE PUSH2 0x5F4A DUP2 PUSH2 0x5F11 JUMP JUMPDEST SWAP1 POP SWAP2 SWAP1 POP JUMP JUMPDEST PUSH32 0x6F6E6C792061646D696E206D617920696E697469616C697A6520746865206D61 PUSH0 DUP3 ADD MSTORE PUSH32 0x726B657400000000000000000000000000000000000000000000000000000000 PUSH1 0x20 DUP3 ADD MSTORE POP JUMP JUMPDEST PUSH0 PUSH2 0x5FAB PUSH1 0x24 DUP4 PUSH2 0x52AC JUMP JUMPDEST SWAP2 POP PUSH2 0x5FB6 DUP3 PUSH2 0x5F51 JUMP JUMPDEST PUSH1 0x40 DUP3 ADD SWAP1 POP SWAP2 SWAP1 POP JUMP JUMPDEST PUSH0 PUSH1 0x20 DUP3 ADD SWAP1 POP DUP2 DUP2 SUB PUSH0 DUP4 ADD MSTORE PUSH2 0x5FD8 DUP2 PUSH2 0x5F9F JUMP JUMPDEST SWAP1 POP SWAP2 SWAP1 POP JUMP JUMPDEST PUSH32 0x6D61726B6574206D6179206F6E6C7920626520696E697469616C697A6564206F PUSH0 DUP3 ADD MSTORE PUSH32 0x6E63650000000000000000000000000000000000000000000000000000000000 PUSH1 0x20 DUP3 ADD MSTORE POP JUMP JUMPDEST PUSH0 PUSH2 0x6039 PUSH1 0x23 DUP4 PUSH2 0x52AC JUMP JUMPDEST SWAP2 POP PUSH2 0x6044 DUP3 PUSH2 0x5FDF JUMP JUMPDEST PUSH1 0x40 DUP3 ADD SWAP1 POP SWAP2 SWAP1 POP JUMP JUMPDEST PUSH0 PUSH1 0x20 DUP3 ADD SWAP1 POP DUP2 DUP2 SUB PUSH0 DUP4 ADD MSTORE PUSH2 0x6066 DUP2 PUSH2 0x602D JUMP JUMPDEST SWAP1 POP SWAP2 SWAP1 POP JUMP JUMPDEST PUSH32 0x696E697469616C2065786368616E67652072617465206D757374206265206772 PUSH0 DUP3 ADD MSTORE PUSH32 0x6561746572207468616E207A65726F2E00000000000000000000000000000000 PUSH1 0x20 DUP3 ADD MSTORE POP JUMP JUMPDEST PUSH0 PUSH2 0x60C7 PUSH1 0x30 DUP4 PUSH2 0x52AC JUMP JUMPDEST SWAP2 POP PUSH2 0x60D2 DUP3 PUSH2 0x606D JUMP JUMPDEST PUSH1 0x40 DUP3 ADD SWAP1 POP SWAP2 SWAP1 POP JUMP JUMPDEST PUSH0 PUSH1 0x20 DUP3 ADD SWAP1 POP DUP2 DUP2 SUB PUSH0 DUP4 ADD MSTORE PUSH2 0x60F4 DUP2 PUSH2 0x60BB JUMP JUMPDEST SWAP1 POP SWAP2 SWAP1 POP JUMP JUMPDEST PUSH32 0x73657474696E6720636F6D7074726F6C6C6572206661696C6564000000000000 PUSH0 DUP3 ADD MSTORE POP JUMP JUMPDEST PUSH0 PUSH2 0x612F PUSH1 0x1A DUP4 PUSH2 0x52AC JUMP JUMPDEST SWAP2 POP PUSH2 0x613A DUP3 PUSH2 0x60FB JUMP JUMPDEST PUSH1 0x20 DUP3 ADD SWAP1 POP SWAP2 SWAP1 POP JUMP JUMPDEST PUSH0 PUSH1 0x20 DUP3 ADD SWAP1 POP DUP2 DUP2 SUB PUSH0 DUP4 ADD MSTORE PUSH2 0x615C DUP2 PUSH2 0x6123 JUMP JUMPDEST SWAP1 POP SWAP2 SWAP1 POP JUMP JUMPDEST PUSH32 0x73657474696E6720696E7465726573742072617465206D6F64656C206661696C PUSH0 DUP3 ADD MSTORE PUSH32 0x6564000000000000000000000000000000000000000000000000000000000000 PUSH1 0x20 DUP3 ADD MSTORE POP JUMP JUMPDEST PUSH0 PUSH2 0x61BD PUSH1 0x22 DUP4 PUSH2 0x52AC JUMP JUMPDEST SWAP2 POP PUSH2 0x61C8 DUP3 PUSH2 0x6163 JUMP JUMPDEST PUSH1 0x40 DUP3 ADD SWAP1 POP SWAP2 SWAP1 POP JUMP JUMPDEST PUSH0 PUSH1 0x20 DUP3 ADD SWAP1 POP DUP2 DUP2 SUB PUSH0 DUP4 ADD MSTORE PUSH2 0x61EA DUP2 PUSH2 0x61B1 JUMP JUMPDEST SWAP1 POP SWAP2 SWAP1 POP JUMP JUMPDEST PUSH0 DUP2 SWAP1 POP DUP2 PUSH0 MSTORE PUSH1 0x20 PUSH0 KECCAK256 SWAP1 POP SWAP2 SWAP1 POP JUMP JUMPDEST PUSH0 PUSH1 0x20 PUSH1 0x1F DUP4 ADD DIV SWAP1 POP SWAP2 SWAP1 POP JUMP JUMPDEST PUSH0 DUP3 DUP3 SHL SWAP1 POP SWAP3 SWAP2 POP POP JUMP JUMPDEST PUSH0 PUSH1 0x8 DUP4 MUL PUSH2 0x624D PUSH32 0xFFFFFFFFFFFFFFFFFFFFFFFFFFFFFFFFFFFFFFFFFFFFFFFFFFFFFFFFFFFFFFFF DUP3 PUSH2 0x6212 JUMP JUMPDEST PUSH2 0x6257 DUP7 DUP4 PUSH2 0x6212 JUMP JUMPDEST SWAP6 POP DUP1 NOT DUP5 AND SWAP4 POP DUP1 DUP7 AND DUP5 OR SWAP3 POP POP POP SWAP4 SWAP3 POP POP POP JUMP JUMPDEST PUSH0 PUSH2 0x6289 PUSH2 0x6284 PUSH2 0x627F DUP5 PUSH2 0x536D JUMP JUMPDEST PUSH2 0x587E JUMP JUMPDEST PUSH2 0x536D JUMP JUMPDEST SWAP1 POP SWAP2 SWAP1 POP JUMP JUMPDEST PUSH0 DUP2 SWAP1 POP SWAP2 SWAP1 POP JUMP JUMPDEST PUSH2 0x62A2 DUP4 PUSH2 0x626F JUMP JUMPDEST PUSH2 0x62B6 PUSH2 0x62AE DUP3 PUSH2 0x6290 JUMP JUMPDEST DUP5 DUP5 SLOAD PUSH2 0x621E JUMP JUMPDEST DUP3 SSTORE POP POP POP POP JUMP JUMPDEST PUSH0 SWAP1 JUMP JUMPDEST PUSH2 0x62CA PUSH2 0x62BE JUMP JUMPDEST PUSH2 0x62D5 DUP2 DUP5 DUP5 PUSH2 0x6299 JUMP JUMPDEST POP POP POP JUMP JUMPDEST JUMPDEST DUP2 DUP2 LT ISZERO PUSH2 0x62F8 JUMPI PUSH2 0x62ED PUSH0 DUP3 PUSH2 0x62C2 JUMP JUMPDEST PUSH1 0x1 DUP2 ADD SWAP1 POP PUSH2 0x62DB JUMP JUMPDEST POP POP JUMP JUMPDEST PUSH1 0x1F DUP3 GT ISZERO PUSH2 0x633D JUMPI PUSH2 0x630E DUP2 PUSH2 0x61F1 JUMP JUMPDEST PUSH2 0x6317 DUP5 PUSH2 0x6203 JUMP JUMPDEST DUP2 ADD PUSH1 0x20 DUP6 LT ISZERO PUSH2 0x6326 JUMPI DUP2 SWAP1 POP JUMPDEST PUSH2 0x633A PUSH2 0x6332 DUP6 PUSH2 0x6203 JUMP JUMPDEST DUP4 ADD DUP3 PUSH2 0x62DA JUMP JUMPDEST POP POP JUMPDEST POP POP POP JUMP JUMPDEST PUSH0 DUP3 DUP3 SHR SWAP1 POP SWAP3 SWAP2 POP POP JUMP JUMPDEST PUSH0 PUSH2 0x635D PUSH0 NOT DUP5 PUSH1 0x8 MUL PUSH2 0x6342 JUMP JUMPDEST NOT DUP1 DUP4 AND SWAP2 POP POP SWAP3 SWAP2 POP POP JUMP JUMPDEST PUSH0 PUSH2 0x6375 DUP4 DUP4 PUSH2 0x634E JUMP JUMPDEST SWAP2 POP DUP3 PUSH1 0x2 MUL DUP3 OR SWAP1 POP SWAP3 SWAP2 POP POP JUMP JUMPDEST PUSH2 0x638E DUP3 PUSH2 0x52A2 JUMP JUMPDEST PUSH8 0xFFFFFFFFFFFFFFFF DUP2 GT ISZERO PUSH2 0x63A7 JUMPI PUSH2 0x63A6 PUSH2 0x550D JUMP JUMPDEST JUMPDEST PUSH2 0x63B1 DUP3 SLOAD PUSH2 0x5BA5 JUMP JUMPDEST PUSH2 0x63BC DUP3 DUP3 DUP6 PUSH2 0x62FC JUMP JUMPDEST PUSH0 PUSH1 0x20 SWAP1 POP PUSH1 0x1F DUP4 GT PUSH1 0x1 DUP2 EQ PUSH2 0x63ED JUMPI PUSH0 DUP5 ISZERO PUSH2 0x63DB JUMPI DUP3 DUP8 ADD MLOAD SWAP1 POP JUMPDEST PUSH2 0x63E5 DUP6 DUP3 PUSH2 0x636A JUMP JUMPDEST DUP7 SSTORE POP PUSH2 0x644C JUMP JUMPDEST PUSH1 0x1F NOT DUP5 AND PUSH2 0x63FB DUP7 PUSH2 0x61F1 JUMP JUMPDEST PUSH0 JUMPDEST DUP3 DUP2 LT ISZERO PUSH2 0x6422 JUMPI DUP5 DUP10 ADD MLOAD DUP3 SSTORE PUSH1 0x1 DUP3 ADD SWAP2 POP PUSH1 0x20 DUP6 ADD SWAP5 POP PUSH1 0x20 DUP2 ADD SWAP1 POP PUSH2 0x63FD JUMP JUMPDEST DUP7 DUP4 LT ISZERO PUSH2 0x643F JUMPI DUP5 DUP10 ADD MLOAD PUSH2 0x643B PUSH1 0x1F DUP10 AND DUP3 PUSH2 0x634E JUMP JUMPDEST DUP4 SSTORE POP JUMPDEST PUSH1 0x1 PUSH1 0x2 DUP9 MUL ADD DUP9 SSTORE POP POP POP JUMPDEST POP POP POP POP POP POP JUMP JUMPDEST PUSH32 0x4E487B7100000000000000000000000000000000000000000000000000000000 PUSH0 MSTORE PUSH1 0x11 PUSH1 0x4 MSTORE PUSH1 0x24 PUSH0 REVERT JUMPDEST PUSH0 PUSH2 0x648B DUP3 PUSH2 0x536D JUMP JUMPDEST SWAP2 POP PUSH2 0x6496 DUP4 PUSH2 0x536D JUMP JUMPDEST SWAP3 POP DUP3 DUP3 MUL PUSH2 0x64A4 DUP2 PUSH2 0x536D JUMP JUMPDEST SWAP2 POP DUP3 DUP3 DIV DUP5 EQ DUP4 ISZERO OR PUSH2 0x64BB JUMPI PUSH2 0x64BA PUSH2 0x6454 JUMP JUMPDEST JUMPDEST POP SWAP3 SWAP2 POP POP JUMP JUMPDEST PUSH32 0x4E487B7100000000000000000000000000000000000000000000000000000000 PUSH0 MSTORE PUSH1 0x12 PUSH1 0x4 MSTORE PUSH1 0x24 PUSH0 REVERT JUMPDEST PUSH0 PUSH2 0x64F9 DUP3 PUSH2 0x536D JUMP JUMPDEST SWAP2 POP PUSH2 0x6504 DUP4 PUSH2 0x536D JUMP JUMPDEST SWAP3 POP DUP3 PUSH2 0x6514 JUMPI PUSH2 0x6513 PUSH2 0x64C2 JUMP JUMPDEST JUMPDEST DUP3 DUP3 DIV SWAP1 POP SWAP3 SWAP2 POP POP JUMP JUMPDEST PUSH0 PUSH1 0x60 DUP3 ADD SWAP1 POP PUSH2 0x6532 PUSH0 DUP4 ADD DUP7 PUSH2 0x543C JUMP JUMPDEST PUSH2 0x653F PUSH1 0x20 DUP4 ADD DUP6 PUSH2 0x543C JUMP JUMPDEST PUSH2 0x654C PUSH1 0x40 DUP4 ADD DUP5 PUSH2 0x543C JUMP JUMPDEST SWAP5 SWAP4 POP POP POP POP JUMP JUMPDEST PUSH32 0x626F72726F772072617465206973206162737572646C79206869676800000000 PUSH0 DUP3 ADD MSTORE POP JUMP JUMPDEST PUSH0 PUSH2 0x6588 PUSH1 0x1C DUP4 PUSH2 0x52AC JUMP JUMPDEST SWAP2 POP PUSH2 0x6593 DUP3 PUSH2 0x6554 JUMP JUMPDEST PUSH1 0x20 DUP3 ADD SWAP1 POP SWAP2 SWAP1 POP JUMP JUMPDEST PUSH0 PUSH1 0x20 DUP3 ADD SWAP1 POP DUP2 DUP2 SUB PUSH0 DUP4 ADD MSTORE PUSH2 0x65B5 DUP2 PUSH2 0x657C JUMP JUMPDEST SWAP1 POP SWAP2 SWAP1 POP JUMP JUMPDEST PUSH0 PUSH2 0x65C6 DUP3 PUSH2 0x536D JUMP JUMPDEST SWAP2 POP PUSH2 0x65D1 DUP4 PUSH2 0x536D JUMP JUMPDEST SWAP3 POP DUP3 DUP3 SUB SWAP1 POP DUP2 DUP2 GT ISZERO PUSH2 0x65E9 JUMPI PUSH2 0x65E8 PUSH2 0x6454 JUMP JUMPDEST JUMPDEST SWAP3 SWAP2 POP POP JUMP JUMPDEST PUSH0 PUSH2 0x65F9 DUP3 PUSH2 0x536D JUMP JUMPDEST SWAP2 POP PUSH2 0x6604 DUP4 PUSH2 0x536D JUMP JUMPDEST SWAP3 POP DUP3 DUP3 ADD SWAP1 POP DUP1 DUP3 GT ISZERO PUSH2 0x661C JUMPI PUSH2 0x661B PUSH2 0x6454 JUMP JUMPDEST JUMPDEST SWAP3 SWAP2 POP POP JUMP JUMPDEST PUSH0 PUSH1 0x40 DUP3 ADD SWAP1 POP PUSH2 0x6635 PUSH0 DUP4 ADD DUP6 PUSH2 0x527A JUMP JUMPDEST PUSH2 0x6642 PUSH1 0x20 DUP4 ADD DUP5 PUSH2 0x5DA9 JUMP JUMPDEST SWAP4 SWAP3 POP POP POP JUMP JUMPDEST PUSH32 0x4345524332302063616E206F6E6C7920636F6C6C65637420666565732066726F PUSH0 DUP3 ADD MSTORE PUSH32 0x6D20756E6465726C79696E6720746F6B656E2100000000000000000000000000 PUSH1 0x20 DUP3 ADD MSTORE POP JUMP JUMPDEST PUSH0 PUSH2 0x66A3 PUSH1 0x33 DUP4 PUSH2 0x52AC JUMP JUMPDEST SWAP2 POP PUSH2 0x66AE DUP3 PUSH2 0x6649 JUMP JUMPDEST PUSH1 0x40 DUP3 ADD SWAP1 POP SWAP2 SWAP1 POP JUMP JUMPDEST PUSH0 PUSH1 0x20 DUP3 ADD SWAP1 POP DUP2 DUP2 SUB PUSH0 DUP4 ADD MSTORE PUSH2 0x66D0 DUP2 PUSH2 0x6697 JUMP JUMPDEST SWAP1 POP SWAP2 SWAP1 POP JUMP JUMPDEST PUSH0 PUSH1 0x40 DUP3 ADD SWAP1 POP PUSH2 0x66EA PUSH0 DUP4 ADD DUP6 PUSH2 0x527A JUMP JUMPDEST PUSH2 0x66F7 PUSH1 0x20 DUP4 ADD DUP5 PUSH2 0x543C JUMP JUMPDEST SWAP4 SWAP3 POP POP POP JUMP JUMPDEST PUSH32 0x4F6E6C79207468652041646D696E2063616E207365742074686520666565546F PUSH0 DUP3 ADD MSTORE PUSH32 0x2100000000000000000000000000000000000000000000000000000000000000 PUSH1 0x20 DUP3 ADD MSTORE POP JUMP JUMPDEST PUSH0 PUSH2 0x6758 PUSH1 0x21 DUP4 PUSH2 0x52AC JUMP JUMPDEST SWAP2 POP PUSH2 0x6763 DUP3 PUSH2 0x66FE JUMP JUMPDEST PUSH1 0x40 DUP3 ADD SWAP1 POP SWAP2 SWAP1 POP JUMP JUMPDEST PUSH0 PUSH1 0x20 DUP3 ADD SWAP1 POP DUP2 DUP2 SUB PUSH0 DUP4 ADD MSTORE PUSH2 0x6785 DUP2 PUSH2 0x674C JUMP JUMPDEST SWAP1 POP SWAP2 SWAP1 POP JUMP JUMPDEST PUSH0 PUSH1 0x80 DUP3 ADD SWAP1 POP PUSH2 0x679F PUSH0 DUP4 ADD DUP8 PUSH2 0x527A JUMP JUMPDEST PUSH2 0x67AC PUSH1 0x20 DUP4 ADD DUP7 PUSH2 0x527A JUMP JUMPDEST PUSH2 0x67B9 PUSH1 0x40 DUP4 ADD DUP6 PUSH2 0x527A JUMP JUMPDEST PUSH2 0x67C6 PUSH1 0x60 DUP4 ADD DUP5 PUSH2 0x543C JUMP JUMPDEST SWAP6 SWAP5 POP POP POP POP POP JUMP JUMPDEST PUSH0 PUSH1 0x60 DUP3 ADD SWAP1 POP PUSH2 0x67E2 PUSH0 DUP4 ADD DUP7 PUSH2 0x5DA9 JUMP JUMPDEST PUSH2 0x67EF PUSH1 0x20 DUP4 ADD DUP6 PUSH2 0x543C JUMP JUMPDEST PUSH2 0x67FC PUSH1 0x40 DUP4 ADD DUP5 PUSH2 0x543C JUMP JUMPDEST SWAP5 SWAP4 POP POP POP POP JUMP JUMPDEST PUSH0 PUSH1 0x40 DUP3 ADD SWAP1 POP PUSH2 0x6817 PUSH0 DUP4 ADD DUP6 PUSH2 0x5AC5 JUMP JUMPDEST PUSH2 0x6824 PUSH1 0x20 DUP4 ADD DUP5 PUSH2 0x5AC5 JUMP JUMPDEST SWAP4 SWAP3 POP POP POP JUMP JUMPDEST PUSH0 PUSH1 0xA0 DUP3 ADD SWAP1 POP PUSH2 0x683E PUSH0 DUP4 ADD DUP9 PUSH2 0x527A JUMP JUMPDEST PUSH2 0x684B PUSH1 0x20 DUP4 ADD DUP8 PUSH2 0x527A JUMP JUMPDEST PUSH2 0x6858 PUSH1 0x40 DUP4 ADD DUP7 PUSH2 0x527A JUMP JUMPDEST PUSH2 0x6865 PUSH1 0x60 DUP4 ADD DUP6 PUSH2 0x527A JUMP JUMPDEST PUSH2 0x6872 PUSH1 0x80 DUP4 ADD DUP5 PUSH2 0x543C JUMP JUMPDEST SWAP7 SWAP6 POP POP POP POP POP POP JUMP JUMPDEST PUSH0 PUSH1 0x60 DUP3 ADD SWAP1 POP PUSH2 0x688F PUSH0 DUP4 ADD DUP7 PUSH2 0x527A JUMP JUMPDEST PUSH2 0x689C PUSH1 0x20 DUP4 ADD DUP6 PUSH2 0x543C JUMP JUMPDEST PUSH2 0x68A9 PUSH1 0x40 DUP4 ADD DUP5 PUSH2 0x543C JUMP JUMPDEST SWAP5 SWAP4 POP POP POP POP JUMP JUMPDEST PUSH0 PUSH1 0x40 DUP3 ADD SWAP1 POP PUSH2 0x68C4 PUSH0 DUP4 ADD DUP6 PUSH2 0x543C JUMP JUMPDEST PUSH2 0x68D1 PUSH1 0x20 DUP4 ADD DUP5 PUSH2 0x543C JUMP JUMPDEST SWAP4 SWAP3 POP POP POP JUMP JUMPDEST PUSH0 PUSH1 0xA0 DUP3 ADD SWAP1 POP PUSH2 0x68EB PUSH0 DUP4 ADD DUP9 PUSH2 0x527A JUMP JUMPDEST PUSH2 0x68F8 PUSH1 0x20 DUP4 ADD DUP8 PUSH2 0x527A JUMP JUMPDEST PUSH2 0x6905 PUSH1 0x40 DUP4 ADD DUP7 PUSH2 0x543C JUMP JUMPDEST PUSH2 0x6912 PUSH1 0x60 DUP4 ADD DUP6 PUSH2 0x543C JUMP JUMPDEST PUSH2 0x691F PUSH1 0x80 DUP4 ADD DUP5 PUSH2 0x543C JUMP JUMPDEST SWAP7 SWAP6 POP POP POP POP POP POP JUMP JUMPDEST PUSH32 0x544F4B454E5F5452414E534645525F4F55545F4641494C454400000000000000 PUSH0 DUP3 ADD MSTORE POP JUMP JUMPDEST PUSH0 PUSH2 0x695D PUSH1 0x19 DUP4 PUSH2 0x52AC JUMP JUMPDEST SWAP2 POP PUSH2 0x6968 DUP3 PUSH2 0x6929 JUMP JUMPDEST PUSH1 0x20 DUP3 ADD SWAP1 POP SWAP2 SWAP1 POP JUMP JUMPDEST PUSH0 PUSH1 0x20 DUP3 ADD SWAP1 POP DUP2 DUP2 SUB PUSH0 DUP4 ADD MSTORE PUSH2 0x698A DUP2 PUSH2 0x6951 JUMP JUMPDEST SWAP1 POP SWAP2 SWAP1 POP JUMP JUMPDEST PUSH32 0x6F6E65206F662072656465656D546F6B656E73496E206F722072656465656D41 PUSH0 DUP3 ADD MSTORE PUSH32 0x6D6F756E74496E206D757374206265207A65726F000000000000000000000000 PUSH1 0x20 DUP3 ADD MSTORE POP JUMP JUMPDEST PUSH0 PUSH2 0x69EB PUSH1 0x34 DUP4 PUSH2 0x52AC JUMP JUMPDEST SWAP2 POP PUSH2 0x69F6 DUP3 PUSH2 0x6991 JUMP JUMPDEST PUSH1 0x40 DUP3 ADD SWAP1 POP SWAP2 SWAP1 POP JUMP JUMPDEST PUSH0 PUSH1 0x20 DUP3 ADD SWAP1 POP DUP2 DUP2 SUB PUSH0 DUP4 ADD MSTORE PUSH2 0x6A18 DUP2 PUSH2 0x69DF JUMP JUMPDEST SWAP1 POP SWAP2 SWAP1 POP JUMP JUMPDEST PUSH0 PUSH1 0x60 DUP3 ADD SWAP1 POP PUSH2 0x6A32 PUSH0 DUP4 ADD DUP7 PUSH2 0x527A JUMP JUMPDEST PUSH2 0x6A3F PUSH1 0x20 DUP4 ADD DUP6 PUSH2 0x5DA9 JUMP JUMPDEST PUSH2 0x6A4C PUSH1 0x40 DUP4 ADD DUP5 PUSH2 0x543C JUMP JUMPDEST SWAP5 SWAP4 POP POP POP POP JUMP JUMPDEST PUSH0 PUSH1 0x80 DUP3 ADD SWAP1 POP PUSH2 0x6A67 PUSH0 DUP4 ADD DUP8 PUSH2 0x527A JUMP JUMPDEST PUSH2 0x6A74 PUSH1 0x20 DUP4 ADD DUP7 PUSH2 0x5DA9 JUMP JUMPDEST PUSH2 0x6A81 PUSH1 0x40 DUP4 ADD DUP6 PUSH2 0x543C JUMP JUMPDEST PUSH2 0x6A8E PUSH1 0x60 DUP4 ADD DUP5 PUSH2 0x543C JUMP JUMPDEST SWAP6 SWAP5 POP POP POP POP POP JUMP JUMPDEST PUSH0 PUSH1 0x60 DUP3 ADD SWAP1 POP PUSH2 0x6AAA PUSH0 DUP4 ADD DUP7 PUSH2 0x527A JUMP JUMPDEST PUSH2 0x6AB7 PUSH1 0x20 DUP4 ADD DUP6 PUSH2 0x527A JUMP JUMPDEST PUSH2 0x6AC4 PUSH1 0x40 DUP4 ADD DUP5 PUSH2 0x543C JUMP JUMPDEST SWAP5 SWAP4 POP POP POP POP JUMP JUMPDEST PUSH0 PUSH1 0x80 DUP3 ADD SWAP1 POP PUSH2 0x6ADF PUSH0 DUP4 ADD DUP8 PUSH2 0x5DA9 JUMP JUMPDEST PUSH2 0x6AEC PUSH1 0x20 DUP4 ADD DUP7 PUSH2 0x543C JUMP JUMPDEST PUSH2 0x6AF9 PUSH1 0x40 DUP4 ADD DUP6 PUSH2 0x543C JUMP JUMPDEST PUSH2 0x6B06 PUSH1 0x60 DUP4 ADD DUP5 PUSH2 0x543C JUMP JUMPDEST SWAP6 SWAP5 POP POP POP POP POP JUMP JUMPDEST PUSH0 DUP1 PUSH1 0x40 DUP4 DUP6 SUB SLT ISZERO PUSH2 0x6B25 JUMPI PUSH2 0x6B24 PUSH2 0x533B JUMP JUMPDEST JUMPDEST PUSH0 PUSH2 0x6B32 DUP6 DUP3 DUP7 ADD PUSH2 0x5C3D JUMP JUMPDEST SWAP3 POP POP PUSH1 0x20 PUSH2 0x6B43 DUP6 DUP3 DUP7 ADD PUSH2 0x5C3D JUMP JUMPDEST SWAP2 POP POP SWAP3 POP SWAP3 SWAP1 POP JUMP JUMPDEST PUSH32 0x4C49515549444154455F434F4D5054524F4C4C45525F43414C43554C4154455F PUSH0 DUP3 ADD MSTORE PUSH32 0x414D4F554E545F5345495A455F4641494C454400000000000000000000000000 PUSH1 0x20 DUP3 ADD MSTORE POP JUMP JUMPDEST PUSH0 PUSH2 0x6BA7 PUSH1 0x33 DUP4 PUSH2 0x52AC JUMP JUMPDEST SWAP2 POP PUSH2 0x6BB2 DUP3 PUSH2 0x6B4D JUMP JUMPDEST PUSH1 0x40 DUP3 ADD SWAP1 POP SWAP2 SWAP1 POP JUMP JUMPDEST PUSH0 PUSH1 0x20 DUP3 ADD SWAP1 POP DUP2 DUP2 SUB PUSH0 DUP4 ADD MSTORE PUSH2 0x6BD4 DUP2 PUSH2 0x6B9B JUMP JUMPDEST SWAP1 POP SWAP2 SWAP1 POP JUMP JUMPDEST PUSH32 0x4C49515549444154455F5345495A455F544F4F5F4D5543480000000000000000 PUSH0 DUP3 ADD MSTORE POP JUMP JUMPDEST PUSH0 PUSH2 0x6C0F PUSH1 0x18 DUP4 PUSH2 0x52AC JUMP JUMPDEST SWAP2 POP PUSH2 0x6C1A DUP3 PUSH2 0x6BDB JUMP JUMPDEST PUSH1 0x20 DUP3 ADD SWAP1 POP SWAP2 SWAP1 POP JUMP JUMPDEST PUSH0 PUSH1 0x20 DUP3 ADD SWAP1 POP DUP2 DUP2 SUB PUSH0 DUP4 ADD MSTORE PUSH2 0x6C3C DUP2 PUSH2 0x6C03 JUMP JUMPDEST SWAP1 POP SWAP2 SWAP1 POP JUMP JUMPDEST PUSH32 0x746F6B656E207365697A757265206661696C6564000000000000000000000000 PUSH0 DUP3 ADD MSTORE POP JUMP JUMPDEST PUSH0 PUSH2 0x6C77 PUSH1 0x14 DUP4 PUSH2 0x52AC JUMP JUMPDEST SWAP2 POP PUSH2 0x6C82 DUP3 PUSH2 0x6C43 JUMP JUMPDEST PUSH1 0x20 DUP3 ADD SWAP1 POP SWAP2 SWAP1 POP JUMP JUMPDEST PUSH0 PUSH1 0x20 DUP3 ADD SWAP1 POP DUP2 DUP2 SUB PUSH0 DUP4 ADD MSTORE PUSH2 0x6CA4 DUP2 PUSH2 0x6C6B JUMP JUMPDEST SWAP1 POP SWAP2 SWAP1 POP JUMP JUMPDEST PUSH0 PUSH1 0xA0 DUP3 ADD SWAP1 POP PUSH2 0x6CBE PUSH0 DUP4 ADD DUP9 PUSH2 0x527A JUMP JUMPDEST PUSH2 0x6CCB PUSH1 0x20 DUP4 ADD DUP8 PUSH2 0x527A JUMP JUMPDEST PUSH2 0x6CD8 PUSH1 0x40 DUP4 ADD DUP7 PUSH2 0x543C JUMP JUMPDEST PUSH2 0x6CE5 PUSH1 0x60 DUP4 ADD DUP6 PUSH2 0x527A JUMP JUMPDEST PUSH2 0x6CF2 PUSH1 0x80 DUP4 ADD DUP5 PUSH2 0x543C JUMP JUMPDEST SWAP7 SWAP6 POP POP POP POP POP POP JUMP JUMPDEST PUSH32 0x544F4B454E5F5452414E534645525F494E5F4641494C45440000000000000000 PUSH0 DUP3 ADD MSTORE POP JUMP JUMPDEST PUSH0 PUSH2 0x6D30 PUSH1 0x18 DUP4 PUSH2 0x52AC JUMP JUMPDEST SWAP2 POP PUSH2 0x6D3B DUP3 PUSH2 0x6CFC JUMP JUMPDEST PUSH1 0x20 DUP3 ADD SWAP1 POP SWAP2 SWAP1 POP JUMP JUMPDEST PUSH0 PUSH1 0x20 DUP3 ADD SWAP1 POP DUP2 DUP2 SUB PUSH0 DUP4 ADD MSTORE PUSH2 0x6D5D DUP2 PUSH2 0x6D24 JUMP JUMPDEST SWAP1 POP SWAP2 SWAP1 POP JUMP INVALID LOG2 PUSH5 0x6970667358 0x22 SLT KECCAK256 GASLIMIT PUSH11 0x8D545FBC356A5A0FE41AEF MUL PUSH21 0x33212BB86EFEEF9ABA156185F2BEF695D564736F6C PUSH4 0x4300081A STOP CALLER "
		},
		"gasEstimates": {
			"creation": {
				"codeDepositCost": "5611600",
				"executionCost": "6813",
				"totalCost": "5618413"
			},
			"external": {
				"NO_ERROR()": "436",
				"_acceptAdmin()": "infinite",
				"_addReserves(uint256)": "infinite",
				"_delegateCompLikeTo(address)": "infinite",
				"_mintFee(address,uint256)": "infinite",
				"_reduceReserves(uint256)": "infinite",
				"_setComptroller(address)": "infinite",
				"_setInterestRateModel(address)": "infinite",
				"_setPendingAdmin(address)": "infinite",
				"_setReserveFactor(uint256)": "infinite",
				"accrualBlockNumber()": "2492",
				"accrueInterest()": "infinite",
				"admin()": "2625",
				"allowance(address,address)": "infinite",
				"approve(address,uint256)": "infinite",
				"balanceOf(address)": "2940",
				"balanceOfUnderlying(address)": "infinite",
				"borrow(uint256)": "infinite",
				"borrowBalanceCurrent(address)": "infinite",
				"borrowBalanceStored(address)": "infinite",
				"borrowIndex()": "2537",
				"borrowRatePerBlock()": "infinite",
				"comptroller()": "infinite",
				"decimals()": "2535",
				"exchangeRateCurrent()": "infinite",
				"exchangeRateStored()": "infinite",
				"feeTo()": "2578",
				"getAccountSnapshot(address)": "infinite",
				"getCash()": "infinite",
				"initialize(address,address,address,uint256,string,string,uint8)": "infinite",
				"initialize(address,address,uint256,string,string,uint8)": "infinite",
				"interestRateModel()": "infinite",
				"isCToken()": "463",
				"liquidateBorrow(address,uint256,address)": "infinite",
				"mint(uint256)": "infinite",
				"mintFee()": "2516",
				"name()": "infinite",
				"pendingAdmin()": "2642",
				"protocolSeizeShareMantissa()": "415",
				"redeem(uint256)": "infinite",
				"redeemUnderlying(uint256)": "infinite",
				"repayBorrow(uint256)": "infinite",
				"repayBorrowBehalf(address,uint256)": "infinite",
				"reserveFactorMantissa()": "2538",
				"seize(address,address,uint256)": "infinite",
				"setFeeTo(address)": "27024",
				"supplyRatePerBlock()": "infinite",
				"sweepToken(address)": "infinite",
				"symbol()": "infinite",
				"totalBorrows()": "2537",
				"totalBorrowsCurrent()": "infinite",
				"totalReserves()": "2538",
				"totalSupply()": "2494",
				"transfer(address,uint256)": "infinite",
				"transferFrom(address,address,uint256)": "infinite",
				"underlying()": "2597"
			},
			"internal": {
				"doTransferIn(address,uint256)": "infinite",
				"doTransferOut(address payable,uint256)": "infinite",
				"getCashPrior()": "infinite"
			}
		},
		"methodIdentifiers": {
			"NO_ERROR()": "69ab3250",
			"_acceptAdmin()": "e9c714f2",
			"_addReserves(uint256)": "3e941010",
			"_delegateCompLikeTo(address)": "7f1e06be",
			"_mintFee(address,uint256)": "cb477964",
			"_reduceReserves(uint256)": "601a0bf1",
			"_setComptroller(address)": "4576b5db",
			"_setInterestRateModel(address)": "f2b3abbd",
			"_setPendingAdmin(address)": "b71d1a0c",
			"_setReserveFactor(uint256)": "fca7820b",
			"accrualBlockNumber()": "6c540baf",
			"accrueInterest()": "a6afed95",
			"admin()": "f851a440",
			"allowance(address,address)": "dd62ed3e",
			"approve(address,uint256)": "095ea7b3",
			"balanceOf(address)": "70a08231",
			"balanceOfUnderlying(address)": "3af9e669",
			"borrow(uint256)": "c5ebeaec",
			"borrowBalanceCurrent(address)": "17bfdfbc",
			"borrowBalanceStored(address)": "95dd9193",
			"borrowIndex()": "aa5af0fd",
			"borrowRatePerBlock()": "f8f9da28",
			"comptroller()": "5fe3b567",
			"decimals()": "313ce567",
			"exchangeRateCurrent()": "bd6d894d",
			"exchangeRateStored()": "182df0f5",
			"feeTo()": "017e7e58",
			"getAccountSnapshot(address)": "c37f68e2",
			"getCash()": "3b1d21a2",
			"initialize(address,address,address,uint256,string,string,uint8)": "1a31d465",
			"initialize(address,address,uint256,string,string,uint8)": "99d8c1b4",
			"interestRateModel()": "f3fdb15a",
			"isCToken()": "fe9c44ae",
			"liquidateBorrow(address,uint256,address)": "f5e3c462",
			"mint(uint256)": "a0712d68",
			"mintFee()": "13966db5",
			"name()": "06fdde03",
			"pendingAdmin()": "26782247",
			"protocolSeizeShareMantissa()": "6752e702",
			"redeem(uint256)": "db006a75",
			"redeemUnderlying(uint256)": "852a12e3",
			"repayBorrow(uint256)": "0e752702",
			"repayBorrowBehalf(address,uint256)": "2608f818",
			"reserveFactorMantissa()": "173b9904",
			"seize(address,address,uint256)": "b2a02ff1",
			"setFeeTo(address)": "f46901ed",
			"supplyRatePerBlock()": "ae9d70b0",
			"sweepToken(address)": "1be19560",
			"symbol()": "95d89b41",
			"totalBorrows()": "47bd3718",
			"totalBorrowsCurrent()": "73acee98",
			"totalReserves()": "8f840ddd",
			"totalSupply()": "18160ddd",
			"transfer(address,uint256)": "a9059cbb",
			"transferFrom(address,address,uint256)": "23b872dd",
			"underlying()": "6f307dc3"
		}
	},
	"abi": [
		{
			"inputs": [],
			"name": "AcceptAdminPendingAdminCheck",
			"type": "error"
		},
		{
			"inputs": [
				{
					"internalType": "uint256",
					"name": "actualAddAmount",
					"type": "uint256"
				}
			],
			"name": "AddReservesFactorFreshCheck",
			"type": "error"
		},
		{
			"inputs": [],
			"name": "BorrowCashNotAvailable",
			"type": "error"
		},
		{
			"inputs": [
				{
					"internalType": "uint256",
					"name": "errorCode",
					"type": "uint256"
				}
			],
			"name": "BorrowComptrollerRejection",
			"type": "error"
		},
		{
			"inputs": [],
			"name": "BorrowFreshnessCheck",
			"type": "error"
		},
		{
			"inputs": [
				{
					"internalType": "uint256",
					"name": "errorCode",
					"type": "uint256"
				}
			],
			"name": "LiquidateAccrueBorrowInterestFailed",
			"type": "error"
		},
		{
			"inputs": [
				{
					"internalType": "uint256",
					"name": "errorCode",
					"type": "uint256"
				}
			],
			"name": "LiquidateAccrueCollateralInterestFailed",
			"type": "error"
		},
		{
			"inputs": [],
			"name": "LiquidateCloseAmountIsUintMax",
			"type": "error"
		},
		{
			"inputs": [],
			"name": "LiquidateCloseAmountIsZero",
			"type": "error"
		},
		{
			"inputs": [],
			"name": "LiquidateCollateralFreshnessCheck",
			"type": "error"
		},
		{
			"inputs": [
				{
					"internalType": "uint256",
					"name": "errorCode",
					"type": "uint256"
				}
			],
			"name": "LiquidateComptrollerRejection",
			"type": "error"
		},
		{
			"inputs": [],
			"name": "LiquidateFreshnessCheck",
			"type": "error"
		},
		{
			"inputs": [],
			"name": "LiquidateLiquidatorIsBorrower",
			"type": "error"
		},
		{
			"inputs": [
				{
					"internalType": "uint256",
					"name": "errorCode",
					"type": "uint256"
				}
			],
			"name": "LiquidateRepayBorrowFreshFailed",
			"type": "error"
		},
		{
			"inputs": [
				{
					"internalType": "uint256",
					"name": "errorCode",
					"type": "uint256"
				}
			],
			"name": "LiquidateSeizeComptrollerRejection",
			"type": "error"
		},
		{
			"inputs": [],
			"name": "LiquidateSeizeLiquidatorIsBorrower",
			"type": "error"
		},
		{
			"inputs": [
				{
					"internalType": "uint256",
					"name": "errorCode",
					"type": "uint256"
				}
			],
			"name": "MintComptrollerRejection",
			"type": "error"
		},
		{
			"inputs": [],
			"name": "MintFreshnessCheck",
			"type": "error"
		},
		{
			"inputs": [
				{
					"internalType": "uint256",
					"name": "errorCode",
					"type": "uint256"
				}
			],
			"name": "RedeemComptrollerRejection",
			"type": "error"
		},
		{
			"inputs": [],
			"name": "RedeemFreshnessCheck",
			"type": "error"
		},
		{
			"inputs": [],
			"name": "RedeemTransferOutNotPossible",
			"type": "error"
		},
		{
			"inputs": [],
			"name": "ReduceReservesAdminCheck",
			"type": "error"
		},
		{
			"inputs": [],
			"name": "ReduceReservesCashNotAvailable",
			"type": "error"
		},
		{
			"inputs": [],
			"name": "ReduceReservesCashValidation",
			"type": "error"
		},
		{
			"inputs": [],
			"name": "ReduceReservesFreshCheck",
			"type": "error"
		},
		{
			"inputs": [
				{
					"internalType": "uint256",
					"name": "errorCode",
					"type": "uint256"
				}
			],
			"name": "RepayBorrowComptrollerRejection",
			"type": "error"
		},
		{
			"inputs": [],
			"name": "RepayBorrowFreshnessCheck",
			"type": "error"
		},
		{
			"inputs": [],
			"name": "SetComptrollerOwnerCheck",
			"type": "error"
		},
		{
			"inputs": [],
			"name": "SetInterestRateModelFreshCheck",
			"type": "error"
		},
		{
			"inputs": [],
			"name": "SetInterestRateModelOwnerCheck",
			"type": "error"
		},
		{
			"inputs": [],
			"name": "SetPendingAdminOwnerCheck",
			"type": "error"
		},
		{
			"inputs": [],
			"name": "SetReserveFactorAdminCheck",
			"type": "error"
		},
		{
			"inputs": [],
			"name": "SetReserveFactorBoundsCheck",
			"type": "error"
		},
		{
			"inputs": [],
			"name": "SetReserveFactorFreshCheck",
			"type": "error"
		},
		{
			"inputs": [
				{
					"internalType": "uint256",
					"name": "errorCode",
					"type": "uint256"
				}
			],
			"name": "TransferComptrollerRejection",
			"type": "error"
		},
		{
			"inputs": [],
			"name": "TransferNotAllowed",
			"type": "error"
		},
		{
			"inputs": [],
			"name": "TransferNotEnough",
			"type": "error"
		},
		{
			"inputs": [],
			"name": "TransferTooMuch",
			"type": "error"
		},
		{
			"anonymous": false,
			"inputs": [
				{
					"indexed": false,
					"internalType": "uint256",
					"name": "cashPrior",
					"type": "uint256"
				},
				{
					"indexed": false,
					"internalType": "uint256",
					"name": "interestAccumulated",
					"type": "uint256"
				},
				{
					"indexed": false,
					"internalType": "uint256",
					"name": "borrowIndex",
					"type": "uint256"
				},
				{
					"indexed": false,
					"internalType": "uint256",
					"name": "totalBorrows",
					"type": "uint256"
				}
			],
			"name": "AccrueInterest",
			"type": "event"
		},
		{
			"anonymous": false,
			"inputs": [
				{
					"indexed": true,
					"internalType": "address",
					"name": "owner",
					"type": "address"
				},
				{
					"indexed": true,
					"internalType": "address",
					"name": "spender",
					"type": "address"
				},
				{
					"indexed": false,
					"internalType": "uint256",
					"name": "amount",
					"type": "uint256"
				}
			],
			"name": "Approval",
			"type": "event"
		},
		{
			"anonymous": false,
			"inputs": [
				{
					"indexed": false,
					"internalType": "address",
					"name": "borrower",
					"type": "address"
				},
				{
					"indexed": false,
					"internalType": "uint256",
					"name": "borrowAmount",
					"type": "uint256"
				},
				{
					"indexed": false,
					"internalType": "uint256",
					"name": "accountBorrows",
					"type": "uint256"
				},
				{
					"indexed": false,
					"internalType": "uint256",
					"name": "totalBorrows",
					"type": "uint256"
				}
			],
			"name": "Borrow",
			"type": "event"
		},
		{
			"anonymous": false,
			"inputs": [
				{
					"indexed": false,
					"internalType": "address",
					"name": "liquidator",
					"type": "address"
				},
				{
					"indexed": false,
					"internalType": "address",
					"name": "borrower",
					"type": "address"
				},
				{
					"indexed": false,
					"internalType": "uint256",
					"name": "repayAmount",
					"type": "uint256"
				},
				{
					"indexed": false,
					"internalType": "address",
					"name": "cTokenCollateral",
					"type": "address"
				},
				{
					"indexed": false,
					"internalType": "uint256",
					"name": "seizeTokens",
					"type": "uint256"
				}
			],
			"name": "LiquidateBorrow",
			"type": "event"
		},
		{
			"anonymous": false,
			"inputs": [
				{
					"indexed": false,
					"internalType": "address",
					"name": "minter",
					"type": "address"
				},
				{
					"indexed": false,
					"internalType": "uint256",
					"name": "mintAmount",
					"type": "uint256"
				},
				{
					"indexed": false,
					"internalType": "uint256",
					"name": "mintTokens",
					"type": "uint256"
				}
			],
			"name": "Mint",
			"type": "event"
		},
		{
			"anonymous": false,
			"inputs": [
				{
					"indexed": false,
					"internalType": "address",
					"name": "oldAdmin",
					"type": "address"
				},
				{
					"indexed": false,
					"internalType": "address",
					"name": "newAdmin",
					"type": "address"
				}
			],
			"name": "NewAdmin",
			"type": "event"
		},
		{
			"anonymous": false,
			"inputs": [
				{
					"indexed": false,
					"internalType": "contract ComptrollerInterface",
					"name": "oldComptroller",
					"type": "address"
				},
				{
					"indexed": false,
					"internalType": "contract ComptrollerInterface",
					"name": "newComptroller",
					"type": "address"
				}
			],
			"name": "NewComptroller",
			"type": "event"
		},
		{
			"anonymous": false,
			"inputs": [
				{
					"indexed": false,
					"internalType": "contract InterestRateModel",
					"name": "oldInterestRateModel",
					"type": "address"
				},
				{
					"indexed": false,
					"internalType": "contract InterestRateModel",
					"name": "newInterestRateModel",
					"type": "address"
				}
			],
			"name": "NewMarketInterestRateModel",
			"type": "event"
		},
		{
			"anonymous": false,
			"inputs": [
				{
					"indexed": false,
					"internalType": "address",
					"name": "oldPendingAdmin",
					"type": "address"
				},
				{
					"indexed": false,
					"internalType": "address",
					"name": "newPendingAdmin",
					"type": "address"
				}
			],
			"name": "NewPendingAdmin",
			"type": "event"
		},
		{
			"anonymous": false,
			"inputs": [
				{
					"indexed": false,
					"internalType": "uint256",
					"name": "oldReserveFactorMantissa",
					"type": "uint256"
				},
				{
					"indexed": false,
					"internalType": "uint256",
					"name": "newReserveFactorMantissa",
					"type": "uint256"
				}
			],
			"name": "NewReserveFactor",
			"type": "event"
		},
		{
			"anonymous": false,
			"inputs": [
				{
					"indexed": false,
					"internalType": "address",
					"name": "redeemer",
					"type": "address"
				},
				{
					"indexed": false,
					"internalType": "uint256",
					"name": "redeemAmount",
					"type": "uint256"
				},
				{
					"indexed": false,
					"internalType": "uint256",
					"name": "redeemTokens",
					"type": "uint256"
				}
			],
			"name": "Redeem",
			"type": "event"
		},
		{
			"anonymous": false,
			"inputs": [
				{
					"indexed": false,
					"internalType": "address",
					"name": "payer",
					"type": "address"
				},
				{
					"indexed": false,
					"internalType": "address",
					"name": "borrower",
					"type": "address"
				},
				{
					"indexed": false,
					"internalType": "uint256",
					"name": "repayAmount",
					"type": "uint256"
				},
				{
					"indexed": false,
					"internalType": "uint256",
					"name": "accountBorrows",
					"type": "uint256"
				},
				{
					"indexed": false,
					"internalType": "uint256",
					"name": "totalBorrows",
					"type": "uint256"
				}
			],
			"name": "RepayBorrow",
			"type": "event"
		},
		{
			"anonymous": false,
			"inputs": [
				{
					"indexed": false,
					"internalType": "address",
					"name": "benefactor",
					"type": "address"
				},
				{
					"indexed": false,
					"internalType": "uint256",
					"name": "addAmount",
					"type": "uint256"
				},
				{
					"indexed": false,
					"internalType": "uint256",
					"name": "newTotalReserves",
					"type": "uint256"
				}
			],
			"name": "ReservesAdded",
			"type": "event"
		},
		{
			"anonymous": false,
			"inputs": [
				{
					"indexed": false,
					"internalType": "address",
					"name": "admin",
					"type": "address"
				},
				{
					"indexed": false,
					"internalType": "uint256",
					"name": "reduceAmount",
					"type": "uint256"
				},
				{
					"indexed": false,
					"internalType": "uint256",
					"name": "newTotalReserves",
					"type": "uint256"
				}
			],
			"name": "ReservesReduced",
			"type": "event"
		},
		{
			"anonymous": false,
			"inputs": [
				{
					"indexed": true,
					"internalType": "address",
					"name": "from",
					"type": "address"
				},
				{
					"indexed": true,
					"internalType": "address",
					"name": "to",
					"type": "address"
				},
				{
					"indexed": false,
					"internalType": "uint256",
					"name": "amount",
					"type": "uint256"
				}
			],
			"name": "Transfer",
			"type": "event"
		},
		{
			"inputs": [],
			"name": "NO_ERROR",
			"outputs": [
				{
					"internalType": "uint256",
					"name": "",
					"type": "uint256"
				}
			],
			"stateMutability": "view",
			"type": "function"
		},
		{
			"inputs": [],
			"name": "_acceptAdmin",
			"outputs": [
				{
					"internalType": "uint256",
					"name": "",
					"type": "uint256"
				}
			],
			"stateMutability": "nonpayable",
			"type": "function"
		},
		{
			"inputs": [
				{
					"internalType": "uint256",
					"name": "addAmount",
					"type": "uint256"
				}
			],
			"name": "_addReserves",
			"outputs": [
				{
					"internalType": "uint256",
					"name": "",
					"type": "uint256"
				}
			],
			"stateMutability": "nonpayable",
			"type": "function"
		},
		{
			"inputs": [
				{
					"internalType": "address",
					"name": "compLikeDelegatee",
					"type": "address"
				}
			],
			"name": "_delegateCompLikeTo",
			"outputs": [],
			"stateMutability": "nonpayable",
			"type": "function"
		},
		{
			"inputs": [
				{
					"internalType": "address",
					"name": "underlying",
					"type": "address"
				},
				{
					"internalType": "uint256",
					"name": "amount",
					"type": "uint256"
				}
			],
			"name": "_mintFee",
			"outputs": [],
			"stateMutability": "nonpayable",
			"type": "function"
		},
		{
			"inputs": [
				{
					"internalType": "uint256",
					"name": "reduceAmount",
					"type": "uint256"
				}
			],
			"name": "_reduceReserves",
			"outputs": [
				{
					"internalType": "uint256",
					"name": "",
					"type": "uint256"
				}
			],
			"stateMutability": "nonpayable",
			"type": "function"
		},
		{
			"inputs": [
				{
					"internalType": "contract ComptrollerInterface",
					"name": "newComptroller",
					"type": "address"
				}
			],
			"name": "_setComptroller",
			"outputs": [
				{
					"internalType": "uint256",
					"name": "",
					"type": "uint256"
				}
			],
			"stateMutability": "nonpayable",
			"type": "function"
		},
		{
			"inputs": [
				{
					"internalType": "contract InterestRateModel",
					"name": "newInterestRateModel",
					"type": "address"
				}
			],
			"name": "_setInterestRateModel",
			"outputs": [
				{
					"internalType": "uint256",
					"name": "",
					"type": "uint256"
				}
			],
			"stateMutability": "nonpayable",
			"type": "function"
		},
		{
			"inputs": [
				{
					"internalType": "address payable",
					"name": "newPendingAdmin",
					"type": "address"
				}
			],
			"name": "_setPendingAdmin",
			"outputs": [
				{
					"internalType": "uint256",
					"name": "",
					"type": "uint256"
				}
			],
			"stateMutability": "nonpayable",
			"type": "function"
		},
		{
			"inputs": [
				{
					"internalType": "uint256",
					"name": "newReserveFactorMantissa",
					"type": "uint256"
				}
			],
			"name": "_setReserveFactor",
			"outputs": [
				{
					"internalType": "uint256",
					"name": "",
					"type": "uint256"
				}
			],
			"stateMutability": "nonpayable",
			"type": "function"
		},
		{
			"inputs": [],
			"name": "accrualBlockNumber",
			"outputs": [
				{
					"internalType": "uint256",
					"name": "",
					"type": "uint256"
				}
			],
			"stateMutability": "view",
			"type": "function"
		},
		{
			"inputs": [],
			"name": "accrueInterest",
			"outputs": [
				{
					"internalType": "uint256",
					"name": "",
					"type": "uint256"
				}
			],
			"stateMutability": "nonpayable",
			"type": "function"
		},
		{
			"inputs": [],
			"name": "admin",
			"outputs": [
				{
					"internalType": "address payable",
					"name": "",
					"type": "address"
				}
			],
			"stateMutability": "view",
			"type": "function"
		},
		{
			"inputs": [
				{
					"internalType": "address",
					"name": "owner",
					"type": "address"
				},
				{
					"internalType": "address",
					"name": "spender",
					"type": "address"
				}
			],
			"name": "allowance",
			"outputs": [
				{
					"internalType": "uint256",
					"name": "",
					"type": "uint256"
				}
			],
			"stateMutability": "view",
			"type": "function"
		},
		{
			"inputs": [
				{
					"internalType": "address",
					"name": "spender",
					"type": "address"
				},
				{
					"internalType": "uint256",
					"name": "amount",
					"type": "uint256"
				}
			],
			"name": "approve",
			"outputs": [
				{
					"internalType": "bool",
					"name": "",
					"type": "bool"
				}
			],
			"stateMutability": "nonpayable",
			"type": "function"
		},
		{
			"inputs": [
				{
					"internalType": "address",
					"name": "owner",
					"type": "address"
				}
			],
			"name": "balanceOf",
			"outputs": [
				{
					"internalType": "uint256",
					"name": "",
					"type": "uint256"
				}
			],
			"stateMutability": "view",
			"type": "function"
		},
		{
			"inputs": [
				{
					"internalType": "address",
					"name": "owner",
					"type": "address"
				}
			],
			"name": "balanceOfUnderlying",
			"outputs": [
				{
					"internalType": "uint256",
					"name": "",
					"type": "uint256"
				}
			],
			"stateMutability": "nonpayable",
			"type": "function"
		},
		{
			"inputs": [
				{
					"internalType": "uint256",
					"name": "borrowAmount",
					"type": "uint256"
				}
			],
			"name": "borrow",
			"outputs": [
				{
					"internalType": "uint256",
					"name": "",
					"type": "uint256"
				}
			],
			"stateMutability": "nonpayable",
			"type": "function"
		},
		{
			"inputs": [
				{
					"internalType": "address",
					"name": "account",
					"type": "address"
				}
			],
			"name": "borrowBalanceCurrent",
			"outputs": [
				{
					"internalType": "uint256",
					"name": "",
					"type": "uint256"
				}
			],
			"stateMutability": "nonpayable",
			"type": "function"
		},
		{
			"inputs": [
				{
					"internalType": "address",
					"name": "account",
					"type": "address"
				}
			],
			"name": "borrowBalanceStored",
			"outputs": [
				{
					"internalType": "uint256",
					"name": "",
					"type": "uint256"
				}
			],
			"stateMutability": "view",
			"type": "function"
		},
		{
			"inputs": [],
			"name": "borrowIndex",
			"outputs": [
				{
					"internalType": "uint256",
					"name": "",
					"type": "uint256"
				}
			],
			"stateMutability": "view",
			"type": "function"
		},
		{
			"inputs": [],
			"name": "borrowRatePerBlock",
			"outputs": [
				{
					"internalType": "uint256",
					"name": "",
					"type": "uint256"
				}
			],
			"stateMutability": "view",
			"type": "function"
		},
		{
			"inputs": [],
			"name": "comptroller",
			"outputs": [
				{
					"internalType": "contract ComptrollerInterface",
					"name": "",
					"type": "address"
				}
			],
			"stateMutability": "view",
			"type": "function"
		},
		{
			"inputs": [],
			"name": "decimals",
			"outputs": [
				{
					"internalType": "uint8",
					"name": "",
					"type": "uint8"
				}
			],
			"stateMutability": "view",
			"type": "function"
		},
		{
			"inputs": [],
			"name": "exchangeRateCurrent",
			"outputs": [
				{
					"internalType": "uint256",
					"name": "",
					"type": "uint256"
				}
			],
			"stateMutability": "nonpayable",
			"type": "function"
		},
		{
			"inputs": [],
			"name": "exchangeRateStored",
			"outputs": [
				{
					"internalType": "uint256",
					"name": "",
					"type": "uint256"
				}
			],
			"stateMutability": "view",
			"type": "function"
		},
		{
			"inputs": [],
			"name": "feeTo",
			"outputs": [
				{
					"internalType": "address",
					"name": "",
					"type": "address"
				}
			],
			"stateMutability": "view",
			"type": "function"
		},
		{
			"inputs": [
				{
					"internalType": "address",
					"name": "account",
					"type": "address"
				}
			],
			"name": "getAccountSnapshot",
			"outputs": [
				{
					"internalType": "uint256",
					"name": "",
					"type": "uint256"
				},
				{
					"internalType": "uint256",
					"name": "",
					"type": "uint256"
				},
				{
					"internalType": "uint256",
					"name": "",
					"type": "uint256"
				},
				{
					"internalType": "uint256",
					"name": "",
					"type": "uint256"
				}
			],
			"stateMutability": "view",
			"type": "function"
		},
		{
			"inputs": [],
			"name": "getCash",
			"outputs": [
				{
					"internalType": "uint256",
					"name": "",
					"type": "uint256"
				}
			],
			"stateMutability": "view",
			"type": "function"
		},
		{
			"inputs": [
				{
					"internalType": "address",
					"name": "underlying_",
					"type": "address"
				},
				{
					"internalType": "contract ComptrollerInterface",
					"name": "comptroller_",
					"type": "address"
				},
				{
					"internalType": "contract InterestRateModel",
					"name": "interestRateModel_",
					"type": "address"
				},
				{
					"internalType": "uint256",
					"name": "initialExchangeRateMantissa_",
					"type": "uint256"
				},
				{
					"internalType": "string",
					"name": "name_",
					"type": "string"
				},
				{
					"internalType": "string",
					"name": "symbol_",
					"type": "string"
				},
				{
					"internalType": "uint8",
					"name": "decimals_",
					"type": "uint8"
				}
			],
			"name": "initialize",
			"outputs": [],
			"stateMutability": "nonpayable",
			"type": "function"
		},
		{
			"inputs": [
				{
					"internalType": "contract ComptrollerInterface",
					"name": "comptroller_",
					"type": "address"
				},
				{
					"internalType": "contract InterestRateModel",
					"name": "interestRateModel_",
					"type": "address"
				},
				{
					"internalType": "uint256",
					"name": "initialExchangeRateMantissa_",
					"type": "uint256"
				},
				{
					"internalType": "string",
					"name": "name_",
					"type": "string"
				},
				{
					"internalType": "string",
					"name": "symbol_",
					"type": "string"
				},
				{
					"internalType": "uint8",
					"name": "decimals_",
					"type": "uint8"
				}
			],
			"name": "initialize",
			"outputs": [],
			"stateMutability": "nonpayable",
			"type": "function"
		},
		{
			"inputs": [],
			"name": "interestRateModel",
			"outputs": [
				{
					"internalType": "contract InterestRateModel",
					"name": "",
					"type": "address"
				}
			],
			"stateMutability": "view",
			"type": "function"
		},
		{
			"inputs": [],
			"name": "isCToken",
			"outputs": [
				{
					"internalType": "bool",
					"name": "",
					"type": "bool"
				}
			],
			"stateMutability": "view",
			"type": "function"
		},
		{
			"inputs": [
				{
					"internalType": "address",
					"name": "borrower",
					"type": "address"
				},
				{
					"internalType": "uint256",
					"name": "repayAmount",
					"type": "uint256"
				},
				{
					"internalType": "contract CTokenInterface",
					"name": "cTokenCollateral",
					"type": "address"
				}
			],
			"name": "liquidateBorrow",
			"outputs": [
				{
					"internalType": "uint256",
					"name": "",
					"type": "uint256"
				}
			],
			"stateMutability": "nonpayable",
			"type": "function"
		},
		{
			"inputs": [
				{
					"internalType": "uint256",
					"name": "mintAmount",
					"type": "uint256"
				}
			],
			"name": "mint",
			"outputs": [
				{
					"internalType": "uint256",
					"name": "",
					"type": "uint256"
				}
			],
			"stateMutability": "nonpayable",
			"type": "function"
		},
		{
			"inputs": [],
			"name": "mintFee",
			"outputs": [
				{
					"internalType": "uint256",
					"name": "",
					"type": "uint256"
				}
			],
			"stateMutability": "view",
			"type": "function"
		},
		{
			"inputs": [],
			"name": "name",
			"outputs": [
				{
					"internalType": "string",
					"name": "",
					"type": "string"
				}
			],
			"stateMutability": "view",
			"type": "function"
		},
		{
			"inputs": [],
			"name": "pendingAdmin",
			"outputs": [
				{
					"internalType": "address payable",
					"name": "",
					"type": "address"
				}
			],
			"stateMutability": "view",
			"type": "function"
		},
		{
			"inputs": [],
			"name": "protocolSeizeShareMantissa",
			"outputs": [
				{
					"internalType": "uint256",
					"name": "",
					"type": "uint256"
				}
			],
			"stateMutability": "view",
			"type": "function"
		},
		{
			"inputs": [
				{
					"internalType": "uint256",
					"name": "redeemTokens",
					"type": "uint256"
				}
			],
			"name": "redeem",
			"outputs": [
				{
					"internalType": "uint256",
					"name": "",
					"type": "uint256"
				}
			],
			"stateMutability": "nonpayable",
			"type": "function"
		},
		{
			"inputs": [
				{
					"internalType": "uint256",
					"name": "redeemAmount",
					"type": "uint256"
				}
			],
			"name": "redeemUnderlying",
			"outputs": [
				{
					"internalType": "uint256",
					"name": "",
					"type": "uint256"
				}
			],
			"stateMutability": "nonpayable",
			"type": "function"
		},
		{
			"inputs": [
				{
					"internalType": "uint256",
					"name": "repayAmount",
					"type": "uint256"
				}
			],
			"name": "repayBorrow",
			"outputs": [
				{
					"internalType": "uint256",
					"name": "",
					"type": "uint256"
				}
			],
			"stateMutability": "nonpayable",
			"type": "function"
		},
		{
			"inputs": [
				{
					"internalType": "address",
					"name": "borrower",
					"type": "address"
				},
				{
					"internalType": "uint256",
					"name": "repayAmount",
					"type": "uint256"
				}
			],
			"name": "repayBorrowBehalf",
			"outputs": [
				{
					"internalType": "uint256",
					"name": "",
					"type": "uint256"
				}
			],
			"stateMutability": "nonpayable",
			"type": "function"
		},
		{
			"inputs": [],
			"name": "reserveFactorMantissa",
			"outputs": [
				{
					"internalType": "uint256",
					"name": "",
					"type": "uint256"
				}
			],
			"stateMutability": "view",
			"type": "function"
		},
		{
			"inputs": [
				{
					"internalType": "address",
					"name": "liquidator",
					"type": "address"
				},
				{
					"internalType": "address",
					"name": "borrower",
					"type": "address"
				},
				{
					"internalType": "uint256",
					"name": "seizeTokens",
					"type": "uint256"
				}
			],
			"name": "seize",
			"outputs": [
				{
					"internalType": "uint256",
					"name": "",
					"type": "uint256"
				}
			],
			"stateMutability": "nonpayable",
			"type": "function"
		},
		{
			"inputs": [
				{
					"internalType": "address",
					"name": "_feeTo",
					"type": "address"
				}
			],
			"name": "setFeeTo",
			"outputs": [],
			"stateMutability": "nonpayable",
			"type": "function"
		},
		{
			"inputs": [],
			"name": "supplyRatePerBlock",
			"outputs": [
				{
					"internalType": "uint256",
					"name": "",
					"type": "uint256"
				}
			],
			"stateMutability": "view",
			"type": "function"
		},
		{
			"inputs": [
				{
					"internalType": "contract EIP20NonStandardInterface",
					"name": "token",
					"type": "address"
				}
			],
			"name": "sweepToken",
			"outputs": [],
			"stateMutability": "nonpayable",
			"type": "function"
		},
		{
			"inputs": [],
			"name": "symbol",
			"outputs": [
				{
					"internalType": "string",
					"name": "",
					"type": "string"
				}
			],
			"stateMutability": "view",
			"type": "function"
		},
		{
			"inputs": [],
			"name": "totalBorrows",
			"outputs": [
				{
					"internalType": "uint256",
					"name": "",
					"type": "uint256"
				}
			],
			"stateMutability": "view",
			"type": "function"
		},
		{
			"inputs": [],
			"name": "totalBorrowsCurrent",
			"outputs": [
				{
					"internalType": "uint256",
					"name": "",
					"type": "uint256"
				}
			],
			"stateMutability": "nonpayable",
			"type": "function"
		},
		{
			"inputs": [],
			"name": "totalReserves",
			"outputs": [
				{
					"internalType": "uint256",
					"name": "",
					"type": "uint256"
				}
			],
			"stateMutability": "view",
			"type": "function"
		},
		{
			"inputs": [],
			"name": "totalSupply",
			"outputs": [
				{
					"internalType": "uint256",
					"name": "",
					"type": "uint256"
				}
			],
			"stateMutability": "view",
			"type": "function"
		},
		{
			"inputs": [
				{
					"internalType": "address",
					"name": "dst",
					"type": "address"
				},
				{
					"internalType": "uint256",
					"name": "amount",
					"type": "uint256"
				}
			],
			"name": "transfer",
			"outputs": [
				{
					"internalType": "bool",
					"name": "",
					"type": "bool"
				}
			],
			"stateMutability": "nonpayable",
			"type": "function"
		},
		{
			"inputs": [
				{
					"internalType": "address",
					"name": "src",
					"type": "address"
				},
				{
					"internalType": "address",
					"name": "dst",
					"type": "address"
				},
				{
					"internalType": "uint256",
					"name": "amount",
					"type": "uint256"
				}
			],
			"name": "transferFrom",
			"outputs": [
				{
					"internalType": "bool",
					"name": "",
					"type": "bool"
				}
			],
			"stateMutability": "nonpayable",
			"type": "function"
		},
		{
			"inputs": [],
			"name": "underlying",
			"outputs": [
				{
					"internalType": "address",
					"name": "",
					"type": "address"
				}
			],
			"stateMutability": "view",
			"type": "function"
		}
	]
}