{
	"data": {
		"bytecode": {
			"linkReferences": {},
			"object": "6080604052348015600e575f80fd5b50335f806101000a81548173ffffffffffffffffffffffffffffffffffffffff021916908373ffffffffffffffffffffffffffffffffffffffff160217905550619f9f8061005b5f395ff3fe608060405234801561000f575f80fd5b5060043610610488575f3560e01c8063731f0c2b11610260578063b21be7fd1161014f578063dce15449116100cc578063e9af029211610090578063e9af029214610ffb578063eabe7d9114611017578063ede4edd014611047578063f00a7a9214611077578063f4a433c014611095578063f851a440146110c557610488565b8063dce1544914610f41578063dcfbc0c714610f71578063e4028eee14610f8f578063e6653f3d14610fbf578063e875544614610fdd57610488565b8063c488847b11610113578063c488847b14610e50578063ca0af04314610e81578063cc7ebdc414610eb1578063d02f735114610ee1578063da3d454c14610f1157610488565b8063b21be7fd14610d72578063bb82aa5e14610da2578063bdcdc25814610dc0578063bea6b8b814610df0578063c299823814610e2057610488565b806394b2294b116101dd578063a8b43948116101a1578063a8b4394814610ccc578063aa90075414610ce8578063abfceffc14610d06578063ac0b0bb714610d36578063b0772d0b14610d5457610488565b806394b2294b14610c12578063986ab83814610c305780639d1b5a0a14610c60578063a76b3fda14610c7e578063a7f0e23114610cae57610488565b80638c57804e116102245780638c57804e14610b1f5780638e8f294b14610b505780638ebf636414610b82578063929fe9a114610bb257806394543c1514610be257610488565b8063731f0c2b14610a67578063741b252514610a975780637dc0d1d014610ab357806385b7beb814610ad157806387f7630314610b0157610488565b80634a5844321161037c5780635ec88c79116102f95780636a56947e116102bd5780636a56947e1461099e5780636aa875b5146109ba5780636b79c38d146109ea5780636d154ea514610a1b5780636d35bf9114610a4b57610488565b80635ec88c79146108d45780635f5af1aa146109065780635fc7e71e14610936578063607ef6c1146109665780636810dfa61461098257610488565b806351dff9891161034057806351dff9891461082057806352d84d1e1461083c57806355ee1fe11461086c578063598ee1cb1461089c5780635c778605146108b857610488565b80634a584432146107405780634ada90af146107705780634e79238f1461078e5780634ef4c3e1146107c05780634fd42e17146107f057610488565b8063267822471161040a5780633bcf7ec1116103ce5780633bcf7ec11461069c5780633c94786f146106cc57806341c728b9146106ea57806342cbb15c1461070657806347ef3b3b1461072457610488565b806326782247146105e657806327efe3cb146106045780632d70db7814610620578063317b0b7714610650578063391957d71461068057610488565b80631d7b33d7116104515780631d7b33d71461052e5780631ededc911461055e57806321af45691461057a57806324008a621461059857806324a3d622146105c857610488565b80627e3dd21461048c57806316b95e8f146104aa57806318c882a5146104c65780631c3db2e0146104f65780631d504dc614610512575b5f80fd5b6104946110e3565b6040516104a191906177e8565b60405180910390f35b6104c460048036038101906104bf91906178c8565b6110e8565b005b6104e060048036038101906104db91906179db565b611478565b6040516104ed91906177e8565b60405180910390f35b610510600480360381019061050b9190617b8b565b61171a565b005b61052c60048036038101906105279190617c31565b6117c7565b005b61054860048036038101906105439190617c5c565b611953565b6040516105559190617c9f565b60405180910390f35b61057860048036038101906105739190617ce2565b611968565b005b61058261197f565b60405161058f9190617d68565b60405180910390f35b6105b260048036038101906105ad9190617d81565b6119a4565b6040516105bf9190617c9f565b60405180910390f35b6105d0611ac2565b6040516105dd9190617d68565b60405180910390f35b6105ee611ae7565b6040516105fb9190617d68565b60405180910390f35b61061e60048036038101906106199190617de5565b611b0c565b005b61063a60048036038101906106359190617e23565b611be0565b60405161064791906177e8565b60405180910390f35b61066a60048036038101906106659190617e4e565b611dba565b6040516106779190617c9f565b60405180910390f35b61069a60048036038101906106959190617c5c565b611eac565b005b6106b660048036038101906106b191906179db565b611fdb565b6040516106c391906177e8565b60405180910390f35b6106d461227d565b6040516106e191906177e8565b60405180910390f35b61070460048036038101906106ff9190617e79565b612290565b005b61070e6122a6565b60405161071b9190617c9f565b60405180910390f35b61073e60048036038101906107399190617edd565b6122ad565b005b61075a60048036038101906107559190617c5c565b6122c5565b6040516107679190617c9f565b60405180910390f35b6107786122da565b6040516107859190617c9f565b60405180910390f35b6107a860048036038101906107a39190617e79565b6122e0565b6040516107b793929190617f66565b60405180910390f35b6107da60048036038101906107d59190617f9b565b612320565b6040516107e79190617c9f565b60405180910390f35b61080a60048036038101906108059190617e4e565b61244f565b6040516108179190617c9f565b60405180910390f35b61083a60048036038101906108359190617e79565b612518565b005b61085660048036038101906108519190617e4e565b61256c565b6040516108639190618046565b60405180910390f35b6108866004803603810190610881919061809a565b6125a7565b6040516108939190617c9f565b60405180910390f35b6108b660048036038101906108b19190617de5565b6126c8565b005b6108d260048036038101906108cd9190617f9b565b612842565b005b6108ee60048036038101906108e99190617c5c565b612857565b6040516108fd93929190617f66565b60405180910390f35b610920600480360381019061091b9190617c5c565b612894565b60405161092d9190617c9f565b60405180910390f35b610950600480360381019061094b91906180c5565b6129d6565b60405161095d9190617c9f565b60405180910390f35b610980600480360381019061097b9190618191565b612c4d565b005b61099c600480360381019061099791906182cf565b612ebd565b005b6109b860048036038101906109b39190617d81565b61319c565b005b6109d460048036038101906109cf9190617c5c565b6131b2565b6040516109e19190617c9f565b60405180910390f35b610a0460048036038101906109ff9190617c5c565b6131c7565b604051610a129291906183bf565b60405180910390f35b610a356004803603810190610a309190617c5c565b61321d565b604051610a4291906177e8565b60405180910390f35b610a656004803603810190610a6091906180c5565b61323a565b005b610a816004803603810190610a7c9190617c5c565b613251565b604051610a8e91906177e8565b60405180910390f35b610ab16004803603810190610aac9190617c5c565b61326e565b005b610abb6133fb565b604051610ac89190618406565b60405180910390f35b610aeb6004803603810190610ae69190617c5c565b613420565b604051610af89190617c9f565b60405180910390f35b610b09613435565b604051610b1691906177e8565b60405180910390f35b610b396004803603810190610b349190617c5c565b613448565b604051610b479291906183bf565b60405180910390f35b610b6a6004803603810190610b659190617c5c565b61349e565b604051610b799392919061841f565b60405180910390f35b610b9c6004803603810190610b979190617e23565b6134dc565b604051610ba991906177e8565b60405180910390f35b610bcc6004803603810190610bc79190618454565b6136b6565b604051610bd991906177e8565b60405180910390f35b610bfc6004803603810190610bf79190618492565b613747565b604051610c0991906177e8565b60405180910390f35b610c1a61386a565b604051610c279190617c9f565b60405180910390f35b610c4a6004803603810190610c459190617c5c565b613870565b604051610c579190617c9f565b60405180910390f35b610c68613885565b604051610c759190617d68565b60405180910390f35b610c986004803603810190610c939190618492565b6138a0565b604051610ca59190617c9f565b60405180910390f35b610cb6613ac6565b604051610cc391906184bd565b60405180910390f35b610ce66004803603810190610ce19190618596565b613ad9565b005b610cf0613be9565b604051610cfd9190617c9f565b60405180910390f35b610d206004803603810190610d1b9190617c5c565b613bef565b604051610d2d91906186f1565b60405180910390f35b610d3e613cbc565b604051610d4b91906177e8565b60405180910390f35b610d5c613ccf565b604051610d6991906186f1565b60405180910390f35b610d8c6004803603810190610d879190618711565b613d5a565b604051610d999190617c9f565b60405180910390f35b610daa613d7a565b604051610db79190617d68565b60405180910390f35b610dda6004803603810190610dd59190617d81565b613d9f565b604051610de79190617c9f565b60405180910390f35b610e0a6004803603810190610e059190617c5c565b613e65565b604051610e179190617c9f565b60405180910390f35b610e3a6004803603810190610e35919061874f565b613e7a565b604051610e47919061884d565b60405180910390f35b610e6a6004803603810190610e659190617f9b565b613f49565b604051610e7892919061886d565b60405180910390f35b610e9b6004803603810190610e969190618711565b6141d0565b604051610ea89190617c9f565b60405180910390f35b610ecb6004803603810190610ec69190617c5c565b6141f0565b604051610ed89190617c9f565b60405180910390f35b610efb6004803603810190610ef691906180c5565b614205565b604051610f089190617c9f565b60405180910390f35b610f2b6004803603810190610f269190617f9b565b614479565b604051610f389190617c9f565b60405180910390f35b610f5b6004803603810190610f569190617de5565b614a4c565b604051610f689190618046565b60405180910390f35b610f79614a94565b604051610f869190617d68565b60405180910390f35b610fa96004803603810190610fa49190618894565b614ab9565b604051610fb69190617c9f565b60405180910390f35b610fc7614d07565b604051610fd491906177e8565b60405180910390f35b610fe5614d1a565b604051610ff29190617c9f565b60405180910390f35b61101560048036038101906110109190617c5c565b614d20565b005b611031600480360381019061102c9190617f9b565b614db0565b60405161103e9190617c9f565b60405180910390f35b611061600480360381019061105c9190617c5c565b614e1b565b60405161106e9190617c9f565b60405180910390f35b61107f6152fa565b60405161108c91906177e8565b60405180910390f35b6110af60048036038101906110aa9190617c5c565b61530c565b6040516110bc9190617c9f565b60405180910390f35b6110cd615321565b6040516110da9190617d68565b60405180910390f35b600181565b5f8054906101000a900473ffffffffffffffffffffffffffffffffffffffff1673ffffffffffffffffffffffffffffffffffffffff163373ffffffffffffffffffffffffffffffffffffffff1614611175576040517f08c379a000000000000000000000000000000000000000000000000000000000815260040161116c90618952565b60405180910390fd5b601b5f9054906101000a900460ff16156111c4576040517f08c379a00000000000000000000000000000000000000000000000000000000081526004016111bb906189e0565b60405180910390fd5b81819050848490501461120c576040517f08c379a000000000000000000000000000000000000000000000000000000000815260040161120390618a48565b60405180910390fd5b5f805f805f5b88889050811015611453578888828181106112305761122f618a66565b5b90506020020160208101906112459190617c5c565b945060145f8673ffffffffffffffffffffffffffffffffffffffff1673ffffffffffffffffffffffffffffffffffffffff1681526020019081526020015f2054935086868281811061129a57611299618a66565b5b905060200201359250838311156113a1575f84846112b89190618ac0565b90505f601c5f8873ffffffffffffffffffffffffffffffffffffffff1673ffffffffffffffffffffffffffffffffffffffff1681526020019081526020015f205490505f6113068284615344565b905080601c5f8a73ffffffffffffffffffffffffffffffffffffffff1673ffffffffffffffffffffffffffffffffffffffff1681526020019081526020015f20819055508773ffffffffffffffffffffffffffffffffffffffff167f17fea09d9a7ca41b2f9f9118f18f44848a62e9c70d55dd4385131eb2cf1b7e47838360405161139292919061886d565b60405180910390a28695505050505b5f831115611448576113b38484615359565b91508160145f8773ffffffffffffffffffffffffffffffffffffffff1673ffffffffffffffffffffffffffffffffffffffff1681526020019081526020015f20819055508473ffffffffffffffffffffffffffffffffffffffff167f4a5c134e28b537a76546993ea37f3b60d9190476df7356d3842aa40902e20f04858460405161143f92919061886d565b60405180910390a25b806001019050611212565b506001601b5f6101000a81548160ff0219169083151502179055505050505050505050565b5f60095f8473ffffffffffffffffffffffffffffffffffffffff1673ffffffffffffffffffffffffffffffffffffffff1681526020019081526020015f205f015f9054906101000a900460ff16611504576040517f08c379a00000000000000000000000000000000000000000000000000000000081526004016114fb90618b63565b60405180910390fd5b600a5f9054906101000a900473ffffffffffffffffffffffffffffffffffffffff1673ffffffffffffffffffffffffffffffffffffffff163373ffffffffffffffffffffffffffffffffffffffff1614806115a957505f8054906101000a900473ffffffffffffffffffffffffffffffffffffffff1673ffffffffffffffffffffffffffffffffffffffff163373ffffffffffffffffffffffffffffffffffffffff16145b6115e8576040517f08c379a00000000000000000000000000000000000000000000000000000000081526004016115df90618bf1565b60405180910390fd5b5f8054906101000a900473ffffffffffffffffffffffffffffffffffffffff1673ffffffffffffffffffffffffffffffffffffffff163373ffffffffffffffffffffffffffffffffffffffff161480611645575060011515821515145b611684576040517f08c379a000000000000000000000000000000000000000000000000000000000815260040161167b90618c59565b60405180910390fd5b81600c5f8573ffffffffffffffffffffffffffffffffffffffff1673ffffffffffffffffffffffffffffffffffffffff1681526020019081526020015f205f6101000a81548160ff0219169083151502179055507f71aec636243f9709bb0007ae15e9afb8150ab01716d75fd7573be5cc096e03b08383604051611709929190618cc1565b60405180910390a181905092915050565b5f600167ffffffffffffffff81111561173657611735617a53565b5b6040519080825280602002602001820160405280156117645781602001602082028036833780820191505090505b50905082815f8151811061177b5761177a618a66565b5b602002602001019073ffffffffffffffffffffffffffffffffffffffff16908173ffffffffffffffffffffffffffffffffffffffff16815250506117c28183600180612ebd565b505050565b8073ffffffffffffffffffffffffffffffffffffffff1663f851a4406040518163ffffffff1660e01b8152600401602060405180830381865afa158015611810573d5f803e3d5ffd5b505050506040513d601f19601f820116820180604052508101906118349190618d0f565b73ffffffffffffffffffffffffffffffffffffffff163373ffffffffffffffffffffffffffffffffffffffff16146118a1576040517f08c379a000000000000000000000000000000000000000000000000000000000815260040161189890618daa565b60405180910390fd5b5f8173ffffffffffffffffffffffffffffffffffffffff1663c1e803346040518163ffffffff1660e01b81526004016020604051808303815f875af11580156118ec573d5f803e3d5ffd5b505050506040513d601f19601f820116820180604052508101906119109190618ddc565b14611950576040517f08c379a000000000000000000000000000000000000000000000000000000000815260040161194790618e51565b60405180910390fd5b50565b600f602052805f5260405f205f915090505481565b5f15611978576007546007819055505b5050505050565b60155f9054906101000a900473ffffffffffffffffffffffffffffffffffffffff1681565b5f60095f8673ffffffffffffffffffffffffffffffffffffffff1673ffffffffffffffffffffffffffffffffffffffff1681526020019081526020015f205f015f9054906101000a900460ff16611a105760096011811115611a0957611a08618e6f565b5b9050611aba565b5f60405180602001604052808773ffffffffffffffffffffffffffffffffffffffff1663aa5af0fd6040518163ffffffff1660e01b8152600401602060405180830381865afa158015611a65573d5f803e3d5ffd5b505050506040513d601f19601f82011682018060405250810190611a899190618ddc565b8152509050611a98868261536e565b611aa3868583615675565b5f6011811115611ab657611ab5618e6f565b5b9150505b949350505050565b600a5f9054906101000a900473ffffffffffffffffffffffffffffffffffffffff1681565b60015f9054906101000a900473ffffffffffffffffffffffffffffffffffffffff1681565b611b14615a17565b611b53576040517f08c379a0000000000000000000000000000000000000000000000000000000008152600401611b4a90618ee6565b60405180910390fd5b5f611b5e8383615ac3565b90505f8114611ba2576040517f08c379a0000000000000000000000000000000000000000000000000000000008152600401611b9990618f4e565b60405180910390fd5b7f98b2f82a3a07f223a0be64b3d0f47711c64dccd1feafb94aa28156b38cd9695c8383604051611bd3929190618f6c565b60405180910390a1505050565b5f600a5f9054906101000a900473ffffffffffffffffffffffffffffffffffffffff1673ffffffffffffffffffffffffffffffffffffffff163373ffffffffffffffffffffffffffffffffffffffff161480611c8657505f8054906101000a900473ffffffffffffffffffffffffffffffffffffffff1673ffffffffffffffffffffffffffffffffffffffff163373ffffffffffffffffffffffffffffffffffffffff16145b611cc5576040517f08c379a0000000000000000000000000000000000000000000000000000000008152600401611cbc90618bf1565b60405180910390fd5b5f8054906101000a900473ffffffffffffffffffffffffffffffffffffffff1673ffffffffffffffffffffffffffffffffffffffff163373ffffffffffffffffffffffffffffffffffffffff161480611d22575060011515821515145b611d61576040517f08c379a0000000000000000000000000000000000000000000000000000000008152600401611d5890618c59565b60405180910390fd5b81600a60176101000a81548160ff0219169083151502179055507fef159d9a32b2472e32b098f954f3ce62d232939f1c207070b584df1814de2de082604051611daa9190618fdd565b60405180910390a1819050919050565b5f805f9054906101000a900473ffffffffffffffffffffffffffffffffffffffff1673ffffffffffffffffffffffffffffffffffffffff163373ffffffffffffffffffffffffffffffffffffffff1614611e49576040517f08c379a0000000000000000000000000000000000000000000000000000000008152600401611e4090619053565b60405180910390fd5b5f6005549050826005819055507f3b9670cf975d26958e754b57098eaa2ac914d8d2a31b83257997b9f346110fd981600554604051611e8992919061886d565b60405180910390a15f6011811115611ea457611ea3618e6f565b5b915050919050565b5f8054906101000a900473ffffffffffffffffffffffffffffffffffffffff1673ffffffffffffffffffffffffffffffffffffffff163373ffffffffffffffffffffffffffffffffffffffff1614611f39576040517f08c379a0000000000000000000000000000000000000000000000000000000008152600401611f30906190e1565b60405180910390fd5b5f60155f9054906101000a900473ffffffffffffffffffffffffffffffffffffffff1690508160155f6101000a81548173ffffffffffffffffffffffffffffffffffffffff021916908373ffffffffffffffffffffffffffffffffffffffff1602179055507feda98690e518e9a05f8ec6837663e188211b2da8f4906648b323f2c1d4434e298183604051611fcf9291906190ff565b60405180910390a15050565b5f60095f8473ffffffffffffffffffffffffffffffffffffffff1673ffffffffffffffffffffffffffffffffffffffff1681526020019081526020015f205f015f9054906101000a900460ff16612067576040517f08c379a000000000000000000000000000000000000000000000000000000000815260040161205e90618b63565b60405180910390fd5b600a5f9054906101000a900473ffffffffffffffffffffffffffffffffffffffff1673ffffffffffffffffffffffffffffffffffffffff163373ffffffffffffffffffffffffffffffffffffffff16148061210c57505f8054906101000a900473ffffffffffffffffffffffffffffffffffffffff1673ffffffffffffffffffffffffffffffffffffffff163373ffffffffffffffffffffffffffffffffffffffff16145b61214b576040517f08c379a000000000000000000000000000000000000000000000000000000000815260040161214290618bf1565b60405180910390fd5b5f8054906101000a900473ffffffffffffffffffffffffffffffffffffffff1673ffffffffffffffffffffffffffffffffffffffff163373ffffffffffffffffffffffffffffffffffffffff1614806121a8575060011515821515145b6121e7576040517f08c379a00000000000000000000000000000000000000000000000000000000081526004016121de90618c59565b60405180910390fd5b81600b5f8573ffffffffffffffffffffffffffffffffffffffff1673ffffffffffffffffffffffffffffffffffffffff1681526020019081526020015f205f6101000a81548160ff0219169083151502179055507f71aec636243f9709bb0007ae15e9afb8150ab01716d75fd7573be5cc096e03b0838360405161226c929190619170565b60405180910390a181905092915050565b600a60149054906101000a900460ff1681565b5f156122a0576007546007819055505b50505050565b5f43905090565b5f156122bd576007546007819055505b505050505050565b6016602052805f5260405f205f915090505481565b60065481565b5f805f805f806122f28a8a8a8a615bf0565b92509250925082601181111561230b5761230a618e6f565b5b82829550955095505050509450945094915050565b5f600b5f8573ffffffffffffffffffffffffffffffffffffffff1673ffffffffffffffffffffffffffffffffffffffff1681526020019081526020015f205f9054906101000a900460ff16156123ab576040517f08c379a00000000000000000000000000000000000000000000000000000000081526004016123a2906191f4565b60405180910390fd5b60095f8573ffffffffffffffffffffffffffffffffffffffff1673ffffffffffffffffffffffffffffffffffffffff1681526020019081526020015f205f015f9054906101000a900460ff16612416576009601181111561240f5761240e618e6f565b5b9050612448565b61241f84616029565b612428846162b6565b61243284846165b3565b5f601181111561244557612444618e6f565b5b90505b9392505050565b5f805f9054906101000a900473ffffffffffffffffffffffffffffffffffffffff1673ffffffffffffffffffffffffffffffffffffffff163373ffffffffffffffffffffffffffffffffffffffff16146124b6576124af6001600b61694b565b9050612513565b5f6006549050826006819055507faeba5a6c40a8ac138134bff1aaa65debf25971188a58804bad717f82f0ec131681846040516124f492919061886d565b60405180910390a15f601181111561250f5761250e618e6f565b5b9150505b919050565b5f8114801561252657505f82115b15612566576040517f08c379a000000000000000000000000000000000000000000000000000000000815260040161255d9061925c565b60405180910390fd5b50505050565b600d818154811061257b575f80fd5b905f5260205f20015f915054906101000a900473ffffffffffffffffffffffffffffffffffffffff1681565b5f805f9054906101000a900473ffffffffffffffffffffffffffffffffffffffff1673ffffffffffffffffffffffffffffffffffffffff163373ffffffffffffffffffffffffffffffffffffffff161461260e576126076001601061694b565b90506126c3565b5f60045f9054906101000a900473ffffffffffffffffffffffffffffffffffffffff1690508260045f6101000a81548173ffffffffffffffffffffffffffffffffffffffff021916908373ffffffffffffffffffffffffffffffffffffffff1602179055507fd52b2b9b7e9ee655fcb95d2e5b9e0c9f69e7ef2b8e9d2d0ea78402d576d22e2281846040516126a492919061927a565b60405180910390a15f60118111156126bf576126be618e6f565b5b9150505b919050565b6126d0615a17565b61270f576040517f08c379a0000000000000000000000000000000000000000000000000000000008152600401612706906192eb565b60405180910390fd5b6127188261326e565b5f81036127645760185f8373ffffffffffffffffffffffffffffffffffffffff1673ffffffffffffffffffffffffffffffffffffffff1681526020019081526020015f205f90556127ae565b61276c6122a6565b60185f8473ffffffffffffffffffffffffffffffffffffffff1673ffffffffffffffffffffffffffffffffffffffff1681526020019081526020015f20819055505b8060175f8473ffffffffffffffffffffffffffffffffffffffff1673ffffffffffffffffffffffffffffffffffffffff1681526020019081526020015f20819055508173ffffffffffffffffffffffffffffffffffffffff167f386537fa92edc3319af95f1f904dcf1900021e4f3f4e08169a577a09076e66b3826040516128369190617c9f565b60405180910390a25050565b5f15612852576007546007819055505b505050565b5f805f805f80612869875f805f615bf0565b92509250925082601181111561288257612881618e6f565b5b82829550955095505050509193909250565b5f805f9054906101000a900473ffffffffffffffffffffffffffffffffffffffff1673ffffffffffffffffffffffffffffffffffffffff163373ffffffffffffffffffffffffffffffffffffffff16146128fb576128f46001601361694b565b90506129d1565b5f600a5f9054906101000a900473ffffffffffffffffffffffffffffffffffffffff16905082600a5f6101000a81548173ffffffffffffffffffffffffffffffffffffffff021916908373ffffffffffffffffffffffffffffffffffffffff1602179055507f0613b6ee6a04f0d09f390e4d9318894b9f6ac7fd83897cd8d18896ba579c401e81600a5f9054906101000a900473ffffffffffffffffffffffffffffffffffffffff166040516129b29291906190ff565b60405180910390a15f60118111156129cd576129cc618e6f565b5b9150505b919050565b5f60095f8773ffffffffffffffffffffffffffffffffffffffff1673ffffffffffffffffffffffffffffffffffffffff1681526020019081526020015f205f015f9054906101000a900460ff161580612a78575060095f8673ffffffffffffffffffffffffffffffffffffffff1673ffffffffffffffffffffffffffffffffffffffff1681526020019081526020015f205f015f9054906101000a900460ff16155b15612a985760096011811115612a9157612a90618e6f565b5b9050612c44565b5f8673ffffffffffffffffffffffffffffffffffffffff166395dd9193856040518263ffffffff1660e01b8152600401612ad29190617d68565b602060405180830381865afa158015612aed573d5f803e3d5ffd5b505050506040513d601f19601f82011682018060405250810190612b119190618ddc565b9050612b1c87613747565b15612b695782811015612b64576040517f08c379a0000000000000000000000000000000000000000000000000000000008152600401612b5b90619379565b60405180910390fd5b612c2d565b5f80612b74866169c6565b92505091505f6011811115612b8c57612b8b618e6f565b5b826011811115612b9f57612b9e618e6f565b5b14612bc157816011811115612bb757612bb6618e6f565b5b9350505050612c44565b5f8103612be65760036011811115612bdc57612bdb618e6f565b5b9350505050612c44565b5f612c016040518060200160405280600554815250856169e2565b905080861115612c2957601180811115612c1e57612c1d618e6f565b5b945050505050612c44565b5050505b5f6011811115612c4057612c3f618e6f565b5b9150505b95945050505050565b5f8054906101000a900473ffffffffffffffffffffffffffffffffffffffff1673ffffffffffffffffffffffffffffffffffffffff163373ffffffffffffffffffffffffffffffffffffffff161480612cf2575060155f9054906101000a900473ffffffffffffffffffffffffffffffffffffffff1673ffffffffffffffffffffffffffffffffffffffff163373ffffffffffffffffffffffffffffffffffffffff16145b612d31576040517f08c379a0000000000000000000000000000000000000000000000000000000008152600401612d2890619407565b60405180910390fd5b5f8484905090505f8383905090505f8214158015612d4e57508082145b612d8d576040517f08c379a0000000000000000000000000000000000000000000000000000000008152600401612d849061946f565b60405180910390fd5b5f5b82811015612eb457848482818110612daa57612da9618a66565b5b9050602002013560165f898985818110612dc757612dc6618a66565b5b9050602002016020810190612ddc9190618492565b73ffffffffffffffffffffffffffffffffffffffff1673ffffffffffffffffffffffffffffffffffffffff1681526020019081526020015f2081905550868682818110612e2c57612e2b618a66565b5b9050602002016020810190612e419190618492565b73ffffffffffffffffffffffffffffffffffffffff167f6f1951b2aad10f3fc81b86d91105b413a5b3f847a34bbc5ce1904201b14438f6868684818110612e8b57612e8a618a66565b5b90506020020135604051612e9f9190617c9f565b60405180910390a28080600101915050612d8f565b50505050505050565b5f5b83518110156130a6575f848281518110612edc57612edb618a66565b5b6020026020010151905060095f8273ffffffffffffffffffffffffffffffffffffffff1673ffffffffffffffffffffffffffffffffffffffff1681526020019081526020015f205f015f9054906101000a900460ff16612f71576040517f08c379a0000000000000000000000000000000000000000000000000000000008152600401612f68906194d7565b60405180910390fd5b6001151584151503613045575f60405180602001604052808373ffffffffffffffffffffffffffffffffffffffff1663aa5af0fd6040518163ffffffff1660e01b8152600401602060405180830381865afa158015612fd2573d5f803e3d5ffd5b505050506040513d601f19601f82011682018060405250810190612ff69190618ddc565b8152509050613005828261536e565b5f5b8751811015613042576130358389838151811061302757613026618a66565b5b602002602001015184615675565b8080600101915050613007565b50505b60011515831515036130985761305a816162b6565b5f5b8651811015613096576130898288838151811061307c5761307b618a66565b5b60200260200101516165b3565b808060010191505061305c565b505b508080600101915050612ebf565b505f5b84518110156131955761312d8582815181106130c8576130c7618a66565b5b602002602001015160145f8885815181106130e6576130e5618a66565b5b602002602001015173ffffffffffffffffffffffffffffffffffffffff1673ffffffffffffffffffffffffffffffffffffffff1681526020019081526020015f2054615ac3565b60145f87848151811061314357613142618a66565b5b602002602001015173ffffffffffffffffffffffffffffffffffffffff1673ffffffffffffffffffffffffffffffffffffffff1681526020019081526020015f208190555080806001019150506130a9565b5050505050565b5f156131ac576007546007819055505b50505050565b601a602052805f5260405f205f915090505481565b6010602052805f5260405f205f91509050805f015f9054906101000a90047bffffffffffffffffffffffffffffffffffffffffffffffffffffffff1690805f01601c9054906101000a900463ffffffff16905082565b600c602052805f5260405f205f915054906101000a900460ff1681565b5f1561324a576007546007819055505b5050505050565b600b602052805f5260405f205f915054906101000a900460ff1681565b5f60175f8373ffffffffffffffffffffffffffffffffffffffff1673ffffffffffffffffffffffffffffffffffffffff1681526020019081526020015f205490505f6132b86122a6565b90505f6133028260185f8773ffffffffffffffffffffffffffffffffffffffff1673ffffffffffffffffffffffffffffffffffffffff1681526020019081526020015f2054615359565b90505f8111801561331257505f83115b156133f5575f6133228285616a02565b90505f61336c60145f8873ffffffffffffffffffffffffffffffffffffffff1673ffffffffffffffffffffffffffffffffffffffff1681526020019081526020015f205483615344565b90508060145f8873ffffffffffffffffffffffffffffffffffffffff1673ffffffffffffffffffffffffffffffffffffffff1681526020019081526020015f20819055508360185f8873ffffffffffffffffffffffffffffffffffffffff1673ffffffffffffffffffffffffffffffffffffffff1681526020019081526020015f208190555050505b50505050565b60045f9054906101000a900473ffffffffffffffffffffffffffffffffffffffff1681565b601c602052805f5260405f205f915090505481565b600a60169054906101000a900460ff1681565b6011602052805f5260405f205f91509050805f015f9054906101000a90047bffffffffffffffffffffffffffffffffffffffffffffffffffffffff1690805f01601c9054906101000a900463ffffffff16905082565b6009602052805f5260405f205f91509050805f015f9054906101000a900460ff1690806001015490806003015f9054906101000a900460ff16905083565b5f600a5f9054906101000a900473ffffffffffffffffffffffffffffffffffffffff1673ffffffffffffffffffffffffffffffffffffffff163373ffffffffffffffffffffffffffffffffffffffff16148061358257505f8054906101000a900473ffffffffffffffffffffffffffffffffffffffff1673ffffffffffffffffffffffffffffffffffffffff163373ffffffffffffffffffffffffffffffffffffffff16145b6135c1576040517f08c379a00000000000000000000000000000000000000000000000000000000081526004016135b890618bf1565b60405180910390fd5b5f8054906101000a900473ffffffffffffffffffffffffffffffffffffffff1673ffffffffffffffffffffffffffffffffffffffff163373ffffffffffffffffffffffffffffffffffffffff16148061361e575060011515821515145b61365d576040517f08c379a000000000000000000000000000000000000000000000000000000000815260040161365490618c59565b60405180910390fd5b81600a60166101000a81548160ff0219169083151502179055507fef159d9a32b2472e32b098f954f3ce62d232939f1c207070b584df1814de2de0826040516136a6919061953f565b60405180910390a1819050919050565b5f60095f8373ffffffffffffffffffffffffffffffffffffffff1673ffffffffffffffffffffffffffffffffffffffff1681526020019081526020015f206002015f8473ffffffffffffffffffffffffffffffffffffffff1673ffffffffffffffffffffffffffffffffffffffff1681526020019081526020015f205f9054906101000a900460ff16905092915050565b5f8060095f8473ffffffffffffffffffffffffffffffffffffffff1673ffffffffffffffffffffffffffffffffffffffff1681526020019081526020015f20600101541480156137e4575060011515600c5f8473ffffffffffffffffffffffffffffffffffffffff1673ffffffffffffffffffffffffffffffffffffffff1681526020019081526020015f205f9054906101000a900460ff161515145b80156138635750670de0b6b3a76400008273ffffffffffffffffffffffffffffffffffffffff1663173b99046040518163ffffffff1660e01b8152600401602060405180830381865afa15801561383d573d5f803e3d5ffd5b505050506040513d601f19601f820116820180604052508101906138619190618ddc565b145b9050919050565b60075481565b6017602052805f5260405f205f915090505481565b5f73c00e94cb662c3520282e6f5717214004a7f26888905090565b5f805f9054906101000a900473ffffffffffffffffffffffffffffffffffffffff1673ffffffffffffffffffffffffffffffffffffffff163373ffffffffffffffffffffffffffffffffffffffff1614613907576139006001601261694b565b9050613ac1565b60095f8373ffffffffffffffffffffffffffffffffffffffff1673ffffffffffffffffffffffffffffffffffffffff1681526020019081526020015f205f015f9054906101000a900460ff161561396b57613964600a601161694b565b9050613ac1565b8173ffffffffffffffffffffffffffffffffffffffff1663fe9c44ae6040518163ffffffff1660e01b8152600401602060405180830381865afa1580156139b4573d5f803e3d5ffd5b505050506040513d601f19601f820116820180604052508101906139d8919061957f565b505f60095f8473ffffffffffffffffffffffffffffffffffffffff1673ffffffffffffffffffffffffffffffffffffffff1681526020019081526020015f2090506001815f015f6101000a81548160ff0219169083151502179055505f816003015f6101000a81548160ff0219169083151502179055505f8160010181905550613a6183616a17565b613a6a83616b40565b613a7383616029565b7fcf583bb0c569eb967f806b11601c4cb93c10310485c67add5f8362c2f212321f83604051613aa29190618046565b60405180910390a15f6011811115613abd57613abc618e6f565b5b9150505b919050565b6ec097ce7bc90715b34b9f100000000081565b613ae1615a17565b613b20576040517f08c379a0000000000000000000000000000000000000000000000000000000008152600401613b17906192eb565b60405180910390fd5b5f83519050825181148015613b355750815181145b613b74576040517f08c379a0000000000000000000000000000000000000000000000000000000008152600401613b6b9061961a565b60405180910390fd5b5f5b81811015613be257613bd7858281518110613b9457613b93618a66565b5b6020026020010151858381518110613baf57613bae618a66565b5b6020026020010151858481518110613bca57613bc9618a66565b5b6020026020010151616db1565b806001019050613b76565b5050505050565b600e5481565b60605f60085f8473ffffffffffffffffffffffffffffffffffffffff1673ffffffffffffffffffffffffffffffffffffffff1681526020019081526020015f20805480602002602001604051908101604052809291908181526020018280548015613cac57602002820191905f5260205f20905b815f9054906101000a900473ffffffffffffffffffffffffffffffffffffffff1673ffffffffffffffffffffffffffffffffffffffff1681526020019060010190808311613c63575b5050505050905080915050919050565b600a60179054906101000a900460ff1681565b6060600d805480602002602001604051908101604052809291908181526020018280548015613d5057602002820191905f5260205f20905b815f9054906101000a900473ffffffffffffffffffffffffffffffffffffffff1673ffffffffffffffffffffffffffffffffffffffff1681526020019060010190808311613d07575b5050505050905090565b6012602052815f5260405f20602052805f5260405f205f91509150505481565b60025f9054906101000a900473ffffffffffffffffffffffffffffffffffffffff1681565b5f600a60169054906101000a900460ff1615613df0576040517f08c379a0000000000000000000000000000000000000000000000000000000008152600401613de790619682565b60405180910390fd5b5f613dfc868685617082565b90505f6011811115613e1157613e10618e6f565b5b8114613e205780915050613e5d565b613e2986616029565b613e32866162b6565b613e3c86866165b3565b613e4686856165b3565b5f6011811115613e5957613e58618e6f565b5b9150505b949350505050565b6018602052805f5260405f205f915090505481565b60605f825190505f8167ffffffffffffffff811115613e9c57613e9b617a53565b5b604051908082528060200260200182016040528015613eca5781602001602082028036833780820191505090505b5090505f5b82811015613f3e575f858281518110613eeb57613eea618a66565b5b60200260200101519050613eff8133617232565b6011811115613f1157613f10618e6f565b5b838381518110613f2457613f23618a66565b5b602002602001018181525050508080600101915050613ecf565b508092505050919050565b5f805f60045f9054906101000a900473ffffffffffffffffffffffffffffffffffffffff1673ffffffffffffffffffffffffffffffffffffffff1663fc57d4df876040518263ffffffff1660e01b8152600401613fa69190618046565b602060405180830381865afa158015613fc1573d5f803e3d5ffd5b505050506040513d601f19601f82011682018060405250810190613fe59190618ddc565b90505f60045f9054906101000a900473ffffffffffffffffffffffffffffffffffffffff1673ffffffffffffffffffffffffffffffffffffffff1663fc57d4df876040518263ffffffff1660e01b81526004016140429190618046565b602060405180830381865afa15801561405d573d5f803e3d5ffd5b505050506040513d601f19601f820116820180604052508101906140819190618ddc565b90505f82148061409057505f81145b156140b557600d60118111156140a9576140a8618e6f565b5b5f9350935050506141c8565b5f8673ffffffffffffffffffffffffffffffffffffffff1663182df0f56040518163ffffffff1660e01b8152600401602060405180830381865afa1580156140ff573d5f803e3d5ffd5b505050506040513d601f19601f820116820180604052508101906141239190618ddc565b90505f61412e617745565b614136617745565b61413e617745565b614166604051806020016040528060065481525060405180602001604052808a815250617427565b925061418e604051806020016040528088815250604051806020016040528088815250617427565b915061419a8383617468565b90506141a6818b6169e2565b93505f60118111156141bb576141ba618e6f565b5b8498509850505050505050505b935093915050565b6013602052815f5260405f20602052805f5260405f205f91509150505481565b6014602052805f5260405f205f915090505481565b5f600a60179054906101000a900460ff1615614256576040517f08c379a000000000000000000000000000000000000000000000000000000000815260040161424d906196ea565b60405180910390fd5b60095f8773ffffffffffffffffffffffffffffffffffffffff1673ffffffffffffffffffffffffffffffffffffffff1681526020019081526020015f205f015f9054906101000a900460ff1615806142f7575060095f8673ffffffffffffffffffffffffffffffffffffffff1673ffffffffffffffffffffffffffffffffffffffff1681526020019081526020015f205f015f9054906101000a900460ff16155b1561431757600960118111156143105761430f618e6f565b5b9050614470565b8473ffffffffffffffffffffffffffffffffffffffff16635fe3b5676040518163ffffffff1660e01b8152600401602060405180830381865afa158015614360573d5f803e3d5ffd5b505050506040513d601f19601f820116820180604052508101906143849190619743565b73ffffffffffffffffffffffffffffffffffffffff168673ffffffffffffffffffffffffffffffffffffffff16635fe3b5676040518163ffffffff1660e01b8152600401602060405180830381865afa1580156143e3573d5f803e3d5ffd5b505050506040513d601f19601f820116820180604052508101906144079190619743565b73ffffffffffffffffffffffffffffffffffffffff161461443d576002601181111561443657614435618e6f565b5b9050614470565b614446866162b6565b61445086846165b3565b61445a86856165b3565b5f601181111561446d5761446c618e6f565b5b90505b95945050505050565b5f600c5f8573ffffffffffffffffffffffffffffffffffffffff1673ffffffffffffffffffffffffffffffffffffffff1681526020019081526020015f205f9054906101000a900460ff1615614504576040517f08c379a00000000000000000000000000000000000000000000000000000000081526004016144fb906197b8565b60405180910390fd5b60095f8573ffffffffffffffffffffffffffffffffffffffff1673ffffffffffffffffffffffffffffffffffffffff1681526020019081526020015f205f015f9054906101000a900460ff1661456f576009601181111561456857614567618e6f565b5b9050614a45565b60095f8573ffffffffffffffffffffffffffffffffffffffff1673ffffffffffffffffffffffffffffffffffffffff1681526020019081526020015f206002015f8473ffffffffffffffffffffffffffffffffffffffff1673ffffffffffffffffffffffffffffffffffffffff1681526020019081526020015f205f9054906101000a900460ff16614753578373ffffffffffffffffffffffffffffffffffffffff163373ffffffffffffffffffffffffffffffffffffffff1614614669576040517f08c379a000000000000000000000000000000000000000000000000000000000815260040161466090619820565b60405180910390fd5b5f6146743385617232565b90505f601181111561468957614688618e6f565b5b81601181111561469c5761469b618e6f565b5b146146bc578060118111156146b4576146b3618e6f565b5b915050614a45565b60095f8673ffffffffffffffffffffffffffffffffffffffff1673ffffffffffffffffffffffffffffffffffffffff1681526020019081526020015f206002015f8573ffffffffffffffffffffffffffffffffffffffff1673ffffffffffffffffffffffffffffffffffffffff1681526020019081526020015f205f9054906101000a900460ff166147515761475061983e565b5b505b5f60045f9054906101000a900473ffffffffffffffffffffffffffffffffffffffff1673ffffffffffffffffffffffffffffffffffffffff1663fc57d4df866040518263ffffffff1660e01b81526004016147ae9190618046565b602060405180830381865afa1580156147c9573d5f803e3d5ffd5b505050506040513d601f19601f820116820180604052508101906147ed9190618ddc565b0361480d57600d601181111561480657614805618e6f565b5b9050614a45565b5f60165f8673ffffffffffffffffffffffffffffffffffffffff1673ffffffffffffffffffffffffffffffffffffffff1681526020019081526020015f205490505f8114614917575f8573ffffffffffffffffffffffffffffffffffffffff166347bd37186040518163ffffffff1660e01b8152600401602060405180830381865afa15801561489f573d5f803e3d5ffd5b505050506040513d601f19601f820116820180604052508101906148c39190618ddc565b90505f6148d08286615344565b9050828110614914576040517f08c379a000000000000000000000000000000000000000000000000000000000815260040161490b906198b5565b60405180910390fd5b50505b5f8061492586885f88615bf0565b92505091505f601181111561493d5761493c618e6f565b5b8260118111156149505761494f618e6f565b5b146149725781601181111561496857614967618e6f565b5b9350505050614a45565b5f811115614998576004601181111561498e5761498d618e6f565b5b9350505050614a45565b5f60405180602001604052808973ffffffffffffffffffffffffffffffffffffffff1663aa5af0fd6040518163ffffffff1660e01b8152600401602060405180830381865afa1580156149ed573d5f803e3d5ffd5b505050506040513d601f19601f82011682018060405250810190614a119190618ddc565b8152509050614a20888261536e565b614a2b888883615675565b5f6011811115614a3e57614a3d618e6f565b5b9450505050505b9392505050565b6008602052815f5260405f208181548110614a65575f80fd5b905f5260205f20015f915091509054906101000a900473ffffffffffffffffffffffffffffffffffffffff1681565b60035f9054906101000a900473ffffffffffffffffffffffffffffffffffffffff1681565b5f805f9054906101000a900473ffffffffffffffffffffffffffffffffffffffff1673ffffffffffffffffffffffffffffffffffffffff163373ffffffffffffffffffffffffffffffffffffffff1614614b2057614b196001600661694b565b9050614d01565b5f60095f8573ffffffffffffffffffffffffffffffffffffffff1673ffffffffffffffffffffffffffffffffffffffff1681526020019081526020015f209050805f015f9054906101000a900460ff16614b8857614b806009600761694b565b915050614d01565b5f60405180602001604052808581525090505f6040518060200160405280670c7d713b49da00008152509050614bbe81836174a7565b15614bd957614bcf6006600861694b565b9350505050614d01565b5f8514158015614c8057505f60045f9054906101000a900473ffffffffffffffffffffffffffffffffffffffff1673ffffffffffffffffffffffffffffffffffffffff1663fc57d4df886040518263ffffffff1660e01b8152600401614c3f9190618046565b602060405180830381865afa158015614c5a573d5f803e3d5ffd5b505050506040513d601f19601f82011682018060405250810190614c7e9190618ddc565b145b15614c9b57614c91600d600961694b565b9350505050614d01565b5f836001015490508584600101819055507f70483e6592cd5182d45ac970e05bc62cdcc90e9d8ef2c2dbe686cf383bcd7fc5878288604051614cdf939291906198d3565b60405180910390a15f6011811115614cfa57614cf9618e6f565b5b9450505050505b92915050565b600a60159054906101000a900460ff1681565b60055481565b614dad81600d805480602002602001604051908101604052809291908181526020018280548015614da357602002820191905f5260205f20905b815f9054906101000a900473ffffffffffffffffffffffffffffffffffffffff1673ffffffffffffffffffffffffffffffffffffffff1681526020019060010190808311614d5a575b505050505061171a565b50565b5f80614dbd858585617082565b90505f6011811115614dd257614dd1618e6f565b5b8114614de15780915050614e14565b614dea856162b6565b614df485856165b3565b614dfd85616029565b5f6011811115614e1057614e0f618e6f565b5b9150505b9392505050565b5f808290505f805f8373ffffffffffffffffffffffffffffffffffffffff1663c37f68e2336040518263ffffffff1660e01b8152600401614e5c9190617d68565b608060405180830381865afa158015614e77573d5f803e3d5ffd5b505050506040513d601f19601f82011682018060405250810190614e9b9190619908565b509250925092505f8314614ee4576040517f08c379a0000000000000000000000000000000000000000000000000000000008152600401614edb906199dc565b60405180910390fd5b5f8114614f0257614ef7600c600261694b565b9450505050506152f5565b5f614f0e873385617082565b90505f8114614f3057614f24600e6003836174b9565b955050505050506152f5565b5f60095f8773ffffffffffffffffffffffffffffffffffffffff1673ffffffffffffffffffffffffffffffffffffffff1681526020019081526020015f209050806002015f3373ffffffffffffffffffffffffffffffffffffffff1673ffffffffffffffffffffffffffffffffffffffff1681526020019081526020015f205f9054906101000a900460ff16614fe0575f6011811115614fd357614fd2618e6f565b5b96505050505050506152f5565b806002015f3373ffffffffffffffffffffffffffffffffffffffff1673ffffffffffffffffffffffffffffffffffffffff1681526020019081526020015f205f6101000a81549060ff02191690555f60085f3373ffffffffffffffffffffffffffffffffffffffff1673ffffffffffffffffffffffffffffffffffffffff1681526020019081526020015f208054806020026020016040519081016040528092919081815260200182805480156150e957602002820191905f5260205f20905b815f9054906101000a900473ffffffffffffffffffffffffffffffffffffffff1673ffffffffffffffffffffffffffffffffffffffff16815260200190600101908083116150a0575b505050505090505f815190505f8190505f5b82811015615165578973ffffffffffffffffffffffffffffffffffffffff1684828151811061512d5761512c618a66565b5b602002602001015173ffffffffffffffffffffffffffffffffffffffff160361515857809150615165565b80806001019150506150fb565b508181106151765761517561983e565b5b5f60085f3373ffffffffffffffffffffffffffffffffffffffff1673ffffffffffffffffffffffffffffffffffffffff1681526020019081526020015f20905080600182805490506151c89190618ac0565b815481106151d9576151d8618a66565b5b905f5260205f20015f9054906101000a900473ffffffffffffffffffffffffffffffffffffffff1681838154811061521457615213618a66565b5b905f5260205f20015f6101000a81548173ffffffffffffffffffffffffffffffffffffffff021916908373ffffffffffffffffffffffffffffffffffffffff1602179055508080548061526a576152696199fa565b5b600190038181905f5260205f20015f6101000a81549073ffffffffffffffffffffffffffffffffffffffff021916905590557fe699a64c18b07ac5b7301aa273f36a2287239eb9501d81950672794afba29a0d8a336040516152cd929190619a27565b60405180910390a15f60118111156152e8576152e7618e6f565b5b9a50505050505050505050505b919050565b601b5f9054906101000a900460ff1681565b6019602052805f5260405f205f915090505481565b5f8054906101000a900473ffffffffffffffffffffffffffffffffffffffff1681565b5f81836153519190619a4e565b905092915050565b5f81836153669190618ac0565b905092915050565b5f60115f8473ffffffffffffffffffffffffffffffffffffffff1673ffffffffffffffffffffffffffffffffffffffff1681526020019081526020015f2090505f60195f8573ffffffffffffffffffffffffffffffffffffffff1673ffffffffffffffffffffffffffffffffffffffff1681526020019081526020015f205490505f6154366153fb6122a6565b6040518060400160405280601c81526020017f626c6f636b206e756d6265722065786365656473203332206269747300000000815250617535565b90505f6154628263ffffffff16855f01601c9054906101000a900463ffffffff1663ffffffff16615359565b90505f8111801561547257505f83115b15615641575f6154ee8773ffffffffffffffffffffffffffffffffffffffff166347bd37186040518163ffffffff1660e01b8152600401602060405180830381865afa1580156154c4573d5f803e3d5ffd5b505050506040513d601f19601f820116820180604052508101906154e89190618ddc565b8761758a565b90505f6154fb8386616a02565b90505f8083116155195760405180602001604052805f815250615524565b61552382846175b1565b5b90506155c761558960405180602001604052808a5f015f9054906101000a90047bffffffffffffffffffffffffffffffffffffffffffffffffffffffff167bffffffffffffffffffffffffffffffffffffffffffffffffffffffff16815250836175f1565b5f01516040518060400160405280601a81526020017f6e657720696e646578206578636565647320323234206269747300000000000081525061761f565b875f015f6101000a8154817bffffffffffffffffffffffffffffffffffffffffffffffffffffffff02191690837bffffffffffffffffffffffffffffffffffffffffffffffffffffffff16021790555084875f01601c6101000a81548163ffffffff021916908363ffffffff16021790555050505061566d565b5f81111561566c5781845f01601c6101000a81548163ffffffff021916908363ffffffff1602179055505b5b505050505050565b5f60115f8573ffffffffffffffffffffffffffffffffffffffff1673ffffffffffffffffffffffffffffffffffffffff1681526020019081526020015f2090505f815f015f9054906101000a90047bffffffffffffffffffffffffffffffffffffffffffffffffffffffff167bffffffffffffffffffffffffffffffffffffffffffffffffffffffff1690505f60135f8773ffffffffffffffffffffffffffffffffffffffff1673ffffffffffffffffffffffffffffffffffffffff1681526020019081526020015f205f8673ffffffffffffffffffffffffffffffffffffffff1673ffffffffffffffffffffffffffffffffffffffff1681526020019081526020015f205490508160135f8873ffffffffffffffffffffffffffffffffffffffff1673ffffffffffffffffffffffffffffffffffffffff1681526020019081526020015f205f8773ffffffffffffffffffffffffffffffffffffffff1673ffffffffffffffffffffffffffffffffffffffff1681526020019081526020015f20819055505f8114801561583657506ec097ce7bc90715b34b9f10000000007bffffffffffffffffffffffffffffffffffffffffffffffffffffffff168210155b1561586c576ec097ce7bc90715b34b9f10000000007bffffffffffffffffffffffffffffffffffffffffffffffffffffffff1690505b5f60405180602001604052806158828585615359565b81525090505f6159098873ffffffffffffffffffffffffffffffffffffffff166395dd9193896040518263ffffffff1660e01b81526004016158c49190617d68565b602060405180830381865afa1580156158df573d5f803e3d5ffd5b505050506040513d601f19601f820116820180604052508101906159039190618ddc565b8761758a565b90505f615916828461768c565b90505f61596060145f8b73ffffffffffffffffffffffffffffffffffffffff1673ffffffffffffffffffffffffffffffffffffffff1681526020019081526020015f205483615344565b90508060145f8b73ffffffffffffffffffffffffffffffffffffffff1673ffffffffffffffffffffffffffffffffffffffff1681526020019081526020015f20819055508873ffffffffffffffffffffffffffffffffffffffff168a73ffffffffffffffffffffffffffffffffffffffff167f1fc3ecc087d8d2d15e23d0032af5a47059c3892d003d8e139fdcb6bb327c99a68489604051615a0392919061886d565b60405180910390a350505050505050505050565b5f805f9054906101000a900473ffffffffffffffffffffffffffffffffffffffff1673ffffffffffffffffffffffffffffffffffffffff163373ffffffffffffffffffffffffffffffffffffffff161480615abe575060025f9054906101000a900473ffffffffffffffffffffffffffffffffffffffff1673ffffffffffffffffffffffffffffffffffffffff163373ffffffffffffffffffffffffffffffffffffffff16145b905090565b5f80615acd613885565b90505f8173ffffffffffffffffffffffffffffffffffffffff166370a08231306040518263ffffffff1660e01b8152600401615b099190617d68565b602060405180830381865afa158015615b24573d5f803e3d5ffd5b505050506040513d601f19601f82011682018060405250810190615b489190618ddc565b90505f84118015615b595750808411155b15615be4578173ffffffffffffffffffffffffffffffffffffffff1663a9059cbb86866040518363ffffffff1660e01b8152600401615b99929190618f6c565b6020604051808303815f875af1158015615bb5573d5f803e3d5ffd5b505050506040513d601f19601f82011682018060405250810190615bd9919061957f565b505f92505050615bea565b83925050505b92915050565b5f805f615bfb617757565b5f8060085f8b73ffffffffffffffffffffffffffffffffffffffff1673ffffffffffffffffffffffffffffffffffffffff1681526020019081526020015f20805480602002602001604051908101604052809291908181526020018280548015615cb757602002820191905f5260205f20905b815f9054906101000a900473ffffffffffffffffffffffffffffffffffffffff1673ffffffffffffffffffffffffffffffffffffffff1681526020019060010190808311615c6e575b505050505090505f5b8151811015615fcd575f828281518110615cdd57615cdc618a66565b5b602002602001015190508073ffffffffffffffffffffffffffffffffffffffff1663c37f68e28d6040518263ffffffff1660e01b8152600401615d209190617d68565b608060405180830381865afa158015615d3b573d5f803e3d5ffd5b505050506040513d601f19601f82011682018060405250810190615d5f9190619908565b88604001896060018a608001838152508381525083815250839750505050505f8414615d9957600f5f80975097509750505050505061601f565b604051806020016040528060095f8473ffffffffffffffffffffffffffffffffffffffff1673ffffffffffffffffffffffffffffffffffffffff1681526020019081526020015f20600101548152508560c00181905250604051806020016040528086608001518152508560e0018190525060045f9054906101000a900473ffffffffffffffffffffffffffffffffffffffff1673ffffffffffffffffffffffffffffffffffffffff1663fc57d4df826040518263ffffffff1660e01b8152600401615e659190618046565b602060405180830381865afa158015615e80573d5f803e3d5ffd5b505050506040513d601f19601f82011682018060405250810190615ea49190618ddc565b8560a00181815250505f8560a0015103615ecc57600d5f80975097509750505050505061601f565b60405180602001604052808660a00151815250856101000181905250615f08615efd8660c001518760e00151617427565b866101000151617427565b856101200181905250615f288561012001518660400151875f01516176bc565b855f018181525050615f48856101000151866060015187602001516176bc565b8560200181815250508a73ffffffffffffffffffffffffffffffffffffffff168173ffffffffffffffffffffffffffffffffffffffff1603615fbf57615f988561012001518b87602001516176bc565b856020018181525050615fb58561010001518a87602001516176bc565b8560200181815250505b508080600101915050615cc0565b508260200151835f01511115616000575f8360200151845f0151615ff19190618ac0565b5f95509550955050505061601f565b5f80845f015185602001516160159190618ac0565b9550955095505050505b9450945094915050565b5f8173ffffffffffffffffffffffffffffffffffffffff16636f307dc36040518163ffffffff1660e01b8152600401602060405180830381865afa158015616073573d5f803e3d5ffd5b505050506040513d601f19601f820116820180604052508101906160979190618d0f565b90505f8173ffffffffffffffffffffffffffffffffffffffff1663313ce5676040518163ffffffff1660e01b8152600401602060405180830381865afa1580156160e3573d5f803e3d5ffd5b505050506040513d601f19601f820116820180604052508101906161079190619ab7565b90505f6002826161179190619ae2565b600a6161239190619c45565b90505f8373ffffffffffffffffffffffffffffffffffffffff166370a08231306040518263ffffffff1660e01b815260040161615f9190617d68565b602060405180830381865afa15801561617a573d5f803e3d5ffd5b505050506040513d601f19601f8201168201806040525081019061619e9190618ddc565b90505f8573ffffffffffffffffffffffffffffffffffffffff166318160ddd6040518163ffffffff1660e01b8152600401602060405180830381865afa1580156161ea573d5f803e3d5ffd5b505050506040513d601f19601f8201168201806040525081019061620e9190618ddc565b905080838361621d9190619a4e565b10156162ae578573ffffffffffffffffffffffffffffffffffffffff167fa7a39dddda9ee8843070f2a6f51adc9477566ef2fc432c878a5d0bcbc4f42a5d838360405161626b92919061886d565b60405180910390a26040517f08c379a00000000000000000000000000000000000000000000000000000000081526004016162a590619cff565b60405180910390fd5b505050505050565b5f60105f8373ffffffffffffffffffffffffffffffffffffffff1673ffffffffffffffffffffffffffffffffffffffff1681526020019081526020015f2090505f601a5f8473ffffffffffffffffffffffffffffffffffffffff1673ffffffffffffffffffffffffffffffffffffffff1681526020019081526020015f205490505f61637e6163436122a6565b6040518060400160405280601c81526020017f626c6f636b206e756d6265722065786365656473203332206269747300000000815250617535565b90505f6163aa8263ffffffff16855f01601c9054906101000a900463ffffffff1663ffffffff16615359565b90505f811180156163ba57505f83115b15616580575f8573ffffffffffffffffffffffffffffffffffffffff166318160ddd6040518163ffffffff1660e01b8152600401602060405180830381865afa158015616409573d5f803e3d5ffd5b505050506040513d601f19601f8201168201806040525081019061642d9190618ddc565b90505f61643a8386616a02565b90505f8083116164585760405180602001604052805f815250616463565b61646282846175b1565b5b90506165066164c860405180602001604052808a5f015f9054906101000a90047bffffffffffffffffffffffffffffffffffffffffffffffffffffffff167bffffffffffffffffffffffffffffffffffffffffffffffffffffffff16815250836175f1565b5f01516040518060400160405280601a81526020017f6e657720696e646578206578636565647320323234206269747300000000000081525061761f565b875f015f6101000a8154817bffffffffffffffffffffffffffffffffffffffffffffffffffffffff02191690837bffffffffffffffffffffffffffffffffffffffffffffffffffffffff16021790555084875f01601c6101000a81548163ffffffff021916908363ffffffff1602179055505050506165ac565b5f8111156165ab5781845f01601c6101000a81548163ffffffff021916908363ffffffff1602179055505b5b5050505050565b5f60105f8473ffffffffffffffffffffffffffffffffffffffff1673ffffffffffffffffffffffffffffffffffffffff1681526020019081526020015f2090505f815f015f9054906101000a90047bffffffffffffffffffffffffffffffffffffffffffffffffffffffff167bffffffffffffffffffffffffffffffffffffffffffffffffffffffff1690505f60125f8673ffffffffffffffffffffffffffffffffffffffff1673ffffffffffffffffffffffffffffffffffffffff1681526020019081526020015f205f8573ffffffffffffffffffffffffffffffffffffffff1673ffffffffffffffffffffffffffffffffffffffff1681526020019081526020015f205490508160125f8773ffffffffffffffffffffffffffffffffffffffff1673ffffffffffffffffffffffffffffffffffffffff1681526020019081526020015f205f8673ffffffffffffffffffffffffffffffffffffffff1673ffffffffffffffffffffffffffffffffffffffff1681526020019081526020015f20819055505f8114801561677457506ec097ce7bc90715b34b9f10000000007bffffffffffffffffffffffffffffffffffffffffffffffffffffffff168210155b156167aa576ec097ce7bc90715b34b9f10000000007bffffffffffffffffffffffffffffffffffffffffffffffffffffffff1690505b5f60405180602001604052806167c08585615359565b81525090505f8673ffffffffffffffffffffffffffffffffffffffff166370a08231876040518263ffffffff1660e01b81526004016167ff9190617d68565b602060405180830381865afa15801561681a573d5f803e3d5ffd5b505050506040513d601f19601f8201168201806040525081019061683e9190618ddc565b90505f61684b828461768c565b90505f61689560145f8a73ffffffffffffffffffffffffffffffffffffffff1673ffffffffffffffffffffffffffffffffffffffff1681526020019081526020015f205483615344565b90508060145f8a73ffffffffffffffffffffffffffffffffffffffff1673ffffffffffffffffffffffffffffffffffffffff1681526020019081526020015f20819055508773ffffffffffffffffffffffffffffffffffffffff168973ffffffffffffffffffffffffffffffffffffffff167f2caecd17d02f56fa897705dcc740da2d237c373f70686f4e0d9bd3bf0400ea7a848960405161693892919061886d565b60405180910390a3505050505050505050565b5f7f45b96fe442630264581b197e84bbada861235052c5a1aadfff9ea4e40a969aa08360118111156169805761697f618e6f565b5b83601381111561699357616992618e6f565b5b5f6040516169a393929190619d56565b60405180910390a18260118111156169be576169bd618e6f565b5b905092915050565b5f805f6169d5845f805f615bf0565b9250925092509193909250565b5f806169ee84846176e6565b90506169f981617711565b91505092915050565b5f8183616a0f9190619d8b565b905092915050565b5f5b600d80549050811015616adc578173ffffffffffffffffffffffffffffffffffffffff16600d8281548110616a5157616a50618a66565b5b905f5260205f20015f9054906101000a900473ffffffffffffffffffffffffffffffffffffffff1673ffffffffffffffffffffffffffffffffffffffff1603616acf576040517f08c379a0000000000000000000000000000000000000000000000000000000008152600401616ac690619e16565b60405180910390fd5b8080600101915050616a19565b50600d81908060018154018082558091505060019003905f5260205f20015f9091909190916101000a81548173ffffffffffffffffffffffffffffffffffffffff021916908373ffffffffffffffffffffffffffffffffffffffff16021790555050565b5f616b87616b4c6122a6565b6040518060400160405280601c81526020017f626c6f636b206e756d6265722065786365656473203332206269747300000000815250617535565b90505f60105f8473ffffffffffffffffffffffffffffffffffffffff1673ffffffffffffffffffffffffffffffffffffffff1681526020019081526020015f2090505f60115f8573ffffffffffffffffffffffffffffffffffffffff1673ffffffffffffffffffffffffffffffffffffffff1681526020019081526020015f2090505f825f015f9054906101000a90047bffffffffffffffffffffffffffffffffffffffffffffffffffffffff167bffffffffffffffffffffffffffffffffffffffffffffffffffffffff1603616cb9576ec097ce7bc90715b34b9f1000000000825f015f6101000a8154817bffffffffffffffffffffffffffffffffffffffffffffffffffffffff02191690837bffffffffffffffffffffffffffffffffffffffffffffffffffffffff1602179055505b5f815f015f9054906101000a90047bffffffffffffffffffffffffffffffffffffffffffffffffffffffff167bffffffffffffffffffffffffffffffffffffffffffffffffffffffff1603616d69576ec097ce7bc90715b34b9f1000000000815f015f6101000a8154817bffffffffffffffffffffffffffffffffffffffffffffffffffffffff02191690837bffffffffffffffffffffffffffffffffffffffffffffffffffffffff1602179055505b82815f01601c6101000a81548163ffffffff021916908363ffffffff1602179055825f01601c6101000a81548163ffffffff021916908363ffffffff16021790555050505050565b5f60095f8573ffffffffffffffffffffffffffffffffffffffff1673ffffffffffffffffffffffffffffffffffffffff1681526020019081526020015f209050805f015f9054906101000a900460ff16616e40576040517f08c379a0000000000000000000000000000000000000000000000000000000008152600401616e3790619e7e565b60405180910390fd5b82601a5f8673ffffffffffffffffffffffffffffffffffffffff1673ffffffffffffffffffffffffffffffffffffffff1681526020019081526020015f205414616f1e57616e8d846162b6565b82601a5f8673ffffffffffffffffffffffffffffffffffffffff1673ffffffffffffffffffffffffffffffffffffffff1681526020019081526020015f20819055508373ffffffffffffffffffffffffffffffffffffffff167fdeafccd0c0b768b2529f7dcbbe58e155d6023059150b7490ed4535cc3744b92d84604051616f159190617c9f565b60405180910390a25b8160195f8673ffffffffffffffffffffffffffffffffffffffff1673ffffffffffffffffffffffffffffffffffffffff1681526020019081526020015f20541461707c575f60405180602001604052808673ffffffffffffffffffffffffffffffffffffffff1663aa5af0fd6040518163ffffffff1660e01b8152600401602060405180830381865afa158015616fb7573d5f803e3d5ffd5b505050506040513d601f19601f82011682018060405250810190616fdb9190618ddc565b8152509050616fea858261536e565b8260195f8773ffffffffffffffffffffffffffffffffffffffff1673ffffffffffffffffffffffffffffffffffffffff1681526020019081526020015f20819055508473ffffffffffffffffffffffffffffffffffffffff167f20af8e791cc98f74b2d7a391c80980ca8e5aebf3d4060bf581997b6acae2e537846040516170729190617c9f565b60405180910390a2505b50505050565b5f60095f8573ffffffffffffffffffffffffffffffffffffffff1673ffffffffffffffffffffffffffffffffffffffff1681526020019081526020015f205f015f9054906101000a900460ff166170ee57600960118111156170e7576170e6618e6f565b5b905061722b565b60095f8573ffffffffffffffffffffffffffffffffffffffff1673ffffffffffffffffffffffffffffffffffffffff1681526020019081526020015f206002015f8473ffffffffffffffffffffffffffffffffffffffff1673ffffffffffffffffffffffffffffffffffffffff1681526020019081526020015f205f9054906101000a900460ff16617194575f601181111561718d5761718c618e6f565b5b905061722b565b5f806171a28587865f615bf0565b92505091505f60118111156171ba576171b9618e6f565b5b8260118111156171cd576171cc618e6f565b5b146171ee578160118111156171e5576171e4618e6f565b5b9250505061722b565b5f811115617213576004601181111561720a57617209618e6f565b5b9250505061722b565b5f601181111561722657617225618e6f565b5b925050505b9392505050565b5f8060095f8573ffffffffffffffffffffffffffffffffffffffff1673ffffffffffffffffffffffffffffffffffffffff1681526020019081526020015f209050805f015f9054906101000a900460ff16617291576009915050617421565b60011515816002015f8573ffffffffffffffffffffffffffffffffffffffff1673ffffffffffffffffffffffffffffffffffffffff1681526020019081526020015f205f9054906101000a900460ff161515036172f1575f915050617421565b6001816002015f8573ffffffffffffffffffffffffffffffffffffffff1673ffffffffffffffffffffffffffffffffffffffff1681526020019081526020015f205f6101000a81548160ff02191690831515021790555060085f8473ffffffffffffffffffffffffffffffffffffffff1673ffffffffffffffffffffffffffffffffffffffff1681526020019081526020015f2084908060018154018082558091505060019003905f5260205f20015f9091909190916101000a81548173ffffffffffffffffffffffffffffffffffffffff021916908373ffffffffffffffffffffffffffffffffffffffff1602179055507f3ab23ab0d51cccc0c3085aec51f99228625aa1a922b3a8ca89a26b0f2027a1a58484604051617414929190619a27565b60405180910390a15f9150505b92915050565b61742f617745565b6040518060200160405280670de0b6b3a7640000617453865f0151865f0151616a02565b61745d9190619ec9565b815250905092915050565b617470617745565b604051806020016040528061749c617493865f0151670de0b6b3a7640000616a02565b855f0151617730565b815250905092915050565b5f815f0151835f015110905092915050565b5f7f45b96fe442630264581b197e84bbada861235052c5a1aadfff9ea4e40a969aa08460118111156174ee576174ed618e6f565b5b84601381111561750157617500618e6f565b5b8460405161751193929190617f66565b60405180910390a183601181111561752c5761752b618e6f565b5b90509392505050565b5f64010000000083108290617580576040517f08c379a00000000000000000000000000000000000000000000000000000000081526004016175779190619f49565b60405180910390fd5b5082905092915050565b5f6175a96175a084670de0b6b3a7640000616a02565b835f0151617730565b905092915050565b6175b96177bc565b60405180602001604052806175e66175e0866ec097ce7bc90715b34b9f1000000000616a02565b85617730565b815250905092915050565b6175f96177bc565b6040518060200160405280617614855f0151855f0151615344565b815250905092915050565b5f7c010000000000000000000000000000000000000000000000000000000083108290617682576040517f08c379a00000000000000000000000000000000000000000000000000000000081526004016176799190619f49565b60405180910390fd5b5082905092915050565b5f6ec097ce7bc90715b34b9f10000000006176aa84845f0151616a02565b6176b49190619ec9565b905092915050565b5f806176c885856176e6565b90506176dc6176d682617711565b84615344565b9150509392505050565b6176ee617745565b6040518060200160405280617706855f015185616a02565b815250905092915050565b5f670de0b6b3a7640000825f01516177299190619ec9565b9050919050565b5f818361773d9190619ec9565b905092915050565b60405180602001604052805f81525090565b6040518061014001604052805f81526020015f81526020015f81526020015f81526020015f81526020015f815260200161778f617745565b815260200161779c617745565b81526020016177a9617745565b81526020016177b6617745565b81525090565b60405180602001604052805f81525090565b5f8115159050919050565b6177e2816177ce565b82525050565b5f6020820190506177fb5f8301846177d9565b92915050565b5f604051905090565b5f80fd5b5f80fd5b5f80fd5b5f80fd5b5f80fd5b5f8083601f84011261783357617832617812565b5b8235905067ffffffffffffffff8111156178505761784f617816565b5b60208301915083602082028301111561786c5761786b61781a565b5b9250929050565b5f8083601f84011261788857617887617812565b5b8235905067ffffffffffffffff8111156178a5576178a4617816565b5b6020830191508360208202830111156178c1576178c061781a565b5b9250929050565b5f805f80604085870312156178e0576178df61780a565b5b5f85013567ffffffffffffffff8111156178fd576178fc61780e565b5b6179098782880161781e565b9450945050602085013567ffffffffffffffff81111561792c5761792b61780e565b5b61793887828801617873565b925092505092959194509250565b5f73ffffffffffffffffffffffffffffffffffffffff82169050919050565b5f61796f82617946565b9050919050565b5f61798082617965565b9050919050565b61799081617976565b811461799a575f80fd5b50565b5f813590506179ab81617987565b92915050565b6179ba816177ce565b81146179c4575f80fd5b50565b5f813590506179d5816179b1565b92915050565b5f80604083850312156179f1576179f061780a565b5b5f6179fe8582860161799d565b9250506020617a0f858286016179c7565b9150509250929050565b617a2281617965565b8114617a2c575f80fd5b50565b5f81359050617a3d81617a19565b92915050565b5f601f19601f8301169050919050565b7f4e487b71000000000000000000000000000000000000000000000000000000005f52604160045260245ffd5b617a8982617a43565b810181811067ffffffffffffffff82111715617aa857617aa7617a53565b5b80604052505050565b5f617aba617801565b9050617ac68282617a80565b919050565b5f67ffffffffffffffff821115617ae557617ae4617a53565b5b602082029050602081019050919050565b5f617b08617b0384617acb565b617ab1565b90508083825260208201905060208402830185811115617b2b57617b2a61781a565b5b835b81811015617b545780617b40888261799d565b845260208401935050602081019050617b2d565b5050509392505050565b5f82601f830112617b7257617b71617812565b5b8135617b82848260208601617af6565b91505092915050565b5f8060408385031215617ba157617ba061780a565b5b5f617bae85828601617a2f565b925050602083013567ffffffffffffffff811115617bcf57617bce61780e565b5b617bdb85828601617b5e565b9150509250929050565b5f617bef82617946565b9050919050565b5f617c0082617be5565b9050919050565b617c1081617bf6565b8114617c1a575f80fd5b50565b5f81359050617c2b81617c07565b92915050565b5f60208284031215617c4657617c4561780a565b5b5f617c5384828501617c1d565b91505092915050565b5f60208284031215617c7157617c7061780a565b5b5f617c7e84828501617a2f565b91505092915050565b5f819050919050565b617c9981617c87565b82525050565b5f602082019050617cb25f830184617c90565b92915050565b617cc181617c87565b8114617ccb575f80fd5b50565b5f81359050617cdc81617cb8565b92915050565b5f805f805f60a08688031215617cfb57617cfa61780a565b5b5f617d0888828901617a2f565b9550506020617d1988828901617a2f565b9450506040617d2a88828901617a2f565b9350506060617d3b88828901617cce565b9250506080617d4c88828901617cce565b9150509295509295909350565b617d6281617965565b82525050565b5f602082019050617d7b5f830184617d59565b92915050565b5f805f8060808587031215617d9957617d9861780a565b5b5f617da687828801617a2f565b9450506020617db787828801617a2f565b9350506040617dc887828801617a2f565b9250506060617dd987828801617cce565b91505092959194509250565b5f8060408385031215617dfb57617dfa61780a565b5b5f617e0885828601617a2f565b9250506020617e1985828601617cce565b9150509250929050565b5f60208284031215617e3857617e3761780a565b5b5f617e45848285016179c7565b91505092915050565b5f60208284031215617e6357617e6261780a565b5b5f617e7084828501617cce565b91505092915050565b5f805f8060808587031215617e9157617e9061780a565b5b5f617e9e87828801617a2f565b9450506020617eaf87828801617a2f565b9350506040617ec087828801617cce565b9250506060617ed187828801617cce565b91505092959194509250565b5f805f805f8060c08789031215617ef757617ef661780a565b5b5f617f0489828a01617a2f565b9650506020617f1589828a01617a2f565b9550506040617f2689828a01617a2f565b9450506060617f3789828a01617a2f565b9350506080617f4889828a01617cce565b92505060a0617f5989828a01617cce565b9150509295509295509295565b5f606082019050617f795f830186617c90565b617f866020830185617c90565b617f936040830184617c90565b949350505050565b5f805f60608486031215617fb257617fb161780a565b5b5f617fbf86828701617a2f565b9350506020617fd086828701617a2f565b9250506040617fe186828701617cce565b9150509250925092565b5f819050919050565b5f61800e61800961800484617946565b617feb565b617946565b9050919050565b5f61801f82617ff4565b9050919050565b5f61803082618015565b9050919050565b61804081618026565b82525050565b5f6020820190506180595f830184618037565b92915050565b5f61806982617965565b9050919050565b6180798161805f565b8114618083575f80fd5b50565b5f8135905061809481618070565b92915050565b5f602082840312156180af576180ae61780a565b5b5f6180bc84828501618086565b91505092915050565b5f805f805f60a086880312156180de576180dd61780a565b5b5f6180eb88828901617a2f565b95505060206180fc88828901617a2f565b945050604061810d88828901617a2f565b935050606061811e88828901617a2f565b925050608061812f88828901617cce565b9150509295509295909350565b5f8083601f84011261815157618150617812565b5b8235905067ffffffffffffffff81111561816e5761816d617816565b5b60208301915083602082028301111561818a5761818961781a565b5b9250929050565b5f805f80604085870312156181a9576181a861780a565b5b5f85013567ffffffffffffffff8111156181c6576181c561780e565b5b6181d28782880161813c565b9450945050602085013567ffffffffffffffff8111156181f5576181f461780e565b5b61820187828801617873565b925092505092959194509250565b5f67ffffffffffffffff82111561822957618228617a53565b5b602082029050602081019050919050565b5f61824c6182478461820f565b617ab1565b9050808382526020820190506020840283018581111561826f5761826e61781a565b5b835b8181101561829857806182848882617a2f565b845260208401935050602081019050618271565b5050509392505050565b5f82601f8301126182b6576182b5617812565b5b81356182c684826020860161823a565b91505092915050565b5f805f80608085870312156182e7576182e661780a565b5b5f85013567ffffffffffffffff8111156183045761830361780e565b5b618310878288016182a2565b945050602085013567ffffffffffffffff8111156183315761833061780e565b5b61833d87828801617b5e565b935050604061834e878288016179c7565b925050606061835f878288016179c7565b91505092959194509250565b5f7bffffffffffffffffffffffffffffffffffffffffffffffffffffffff82169050919050565b61839b8161836b565b82525050565b5f63ffffffff82169050919050565b6183b9816183a1565b82525050565b5f6040820190506183d25f830185618392565b6183df60208301846183b0565b9392505050565b5f6183f082618015565b9050919050565b618400816183e6565b82525050565b5f6020820190506184195f8301846183f7565b92915050565b5f6060820190506184325f8301866177d9565b61843f6020830185617c90565b61844c60408301846177d9565b949350505050565b5f806040838503121561846a5761846961780a565b5b5f61847785828601617a2f565b92505060206184888582860161799d565b9150509250929050565b5f602082840312156184a7576184a661780a565b5b5f6184b48482850161799d565b91505092915050565b5f6020820190506184d05f830184618392565b92915050565b5f67ffffffffffffffff8211156184f0576184ef617a53565b5b602082029050602081019050919050565b5f61851361850e846184d6565b617ab1565b905080838252602082019050602084028301858111156185365761853561781a565b5b835b8181101561855f578061854b8882617cce565b845260208401935050602081019050618538565b5050509392505050565b5f82601f83011261857d5761857c617812565b5b813561858d848260208601618501565b91505092915050565b5f805f606084860312156185ad576185ac61780a565b5b5f84013567ffffffffffffffff8111156185ca576185c961780e565b5b6185d686828701617b5e565b935050602084013567ffffffffffffffff8111156185f7576185f661780e565b5b61860386828701618569565b925050604084013567ffffffffffffffff8111156186245761862361780e565b5b61863086828701618569565b9150509250925092565b5f81519050919050565b5f82825260208201905092915050565b5f819050602082019050919050565b61866c81618026565b82525050565b5f61867d8383618663565b60208301905092915050565b5f602082019050919050565b5f61869f8261863a565b6186a98185618644565b93506186b483618654565b805f5b838110156186e45781516186cb8882618672565b97506186d683618689565b9250506001810190506186b7565b5085935050505092915050565b5f6020820190508181035f8301526187098184618695565b905092915050565b5f80604083850312156187275761872661780a565b5b5f61873485828601617a2f565b925050602061874585828601617a2f565b9150509250929050565b5f602082840312156187645761876361780a565b5b5f82013567ffffffffffffffff8111156187815761878061780e565b5b61878d848285016182a2565b91505092915050565b5f81519050919050565b5f82825260208201905092915050565b5f819050602082019050919050565b6187c881617c87565b82525050565b5f6187d983836187bf565b60208301905092915050565b5f602082019050919050565b5f6187fb82618796565b61880581856187a0565b9350618810836187b0565b805f5b8381101561884057815161882788826187ce565b9750618832836187e5565b925050600181019050618813565b5085935050505092915050565b5f6020820190508181035f83015261886581846187f1565b905092915050565b5f6040820190506188805f830185617c90565b61888d6020830184617c90565b9392505050565b5f80604083850312156188aa576188a961780a565b5b5f6188b78582860161799d565b92505060206188c885828601617cce565b9150509250929050565b5f82825260208201905092915050565b7f4f6e6c792061646d696e2063616e2063616c6c20746869732066756e6374696f5f8201527f6e00000000000000000000000000000000000000000000000000000000000000602082015250565b5f61893c6021836188d2565b9150618947826188e2565b604082019050919050565b5f6020820190508181035f83015261896981618930565b9050919050565b7f416c72656164792065786563757465642074686973206f6e652d6f66662066755f8201527f6e6374696f6e0000000000000000000000000000000000000000000000000000602082015250565b5f6189ca6026836188d2565b91506189d582618970565b604082019050919050565b5f6020820190508181035f8301526189f7816189be565b9050919050565b7f496e76616c696420696e707574000000000000000000000000000000000000005f82015250565b5f618a32600d836188d2565b9150618a3d826189fe565b602082019050919050565b5f6020820190508181035f830152618a5f81618a26565b9050919050565b7f4e487b71000000000000000000000000000000000000000000000000000000005f52603260045260245ffd5b7f4e487b71000000000000000000000000000000000000000000000000000000005f52601160045260245ffd5b5f618aca82617c87565b9150618ad583617c87565b9250828203905081811115618aed57618aec618a93565b5b92915050565b7f63616e6e6f742070617573652061206d61726b65742074686174206973206e6f5f8201527f74206c6973746564000000000000000000000000000000000000000000000000602082015250565b5f618b4d6028836188d2565b9150618b5882618af3565b604082019050919050565b5f6020820190508181035f830152618b7a81618b41565b9050919050565b7f6f6e6c7920706175736520677561726469616e20616e642061646d696e2063615f8201527f6e20706175736500000000000000000000000000000000000000000000000000602082015250565b5f618bdb6027836188d2565b9150618be682618b81565b604082019050919050565b5f6020820190508181035f830152618c0881618bcf565b9050919050565b7f6f6e6c792061646d696e2063616e20756e7061757365000000000000000000005f82015250565b5f618c436016836188d2565b9150618c4e82618c0f565b602082019050919050565b5f6020820190508181035f830152618c7081618c37565b9050919050565b7f426f72726f7700000000000000000000000000000000000000000000000000005f82015250565b5f618cab6006836188d2565b9150618cb682618c77565b602082019050919050565b5f606082019050618cd45f830185618037565b8181036020830152618ce581618c9f565b9050618cf460408301846177d9565b9392505050565b5f81519050618d0981617a19565b92915050565b5f60208284031215618d2457618d2361780a565b5b5f618d3184828501618cfb565b91505092915050565b7f6f6e6c7920756e6974726f6c6c65722061646d696e2063616e206368616e67655f8201527f20627261696e7300000000000000000000000000000000000000000000000000602082015250565b5f618d946027836188d2565b9150618d9f82618d3a565b604082019050919050565b5f6020820190508181035f830152618dc181618d88565b9050919050565b5f81519050618dd681617cb8565b92915050565b5f60208284031215618df157618df061780a565b5b5f618dfe84828501618dc8565b91505092915050565b7f6368616e6765206e6f7420617574686f72697a656400000000000000000000005f82015250565b5f618e3b6015836188d2565b9150618e4682618e07565b602082019050919050565b5f6020820190508181035f830152618e6881618e2f565b9050919050565b7f4e487b71000000000000000000000000000000000000000000000000000000005f52602160045260245ffd5b7f6f6e6c792061646d696e2063616e206772616e7420636f6d70000000000000005f82015250565b5f618ed06019836188d2565b9150618edb82618e9c565b602082019050919050565b5f6020820190508181035f830152618efd81618ec4565b9050919050565b7f696e73756666696369656e7420636f6d7020666f72206772616e7400000000005f82015250565b5f618f38601b836188d2565b9150618f4382618f04565b602082019050919050565b5f6020820190508181035f830152618f6581618f2c565b9050919050565b5f604082019050618f7f5f830185617d59565b618f8c6020830184617c90565b9392505050565b7f5365697a650000000000000000000000000000000000000000000000000000005f82015250565b5f618fc76005836188d2565b9150618fd282618f93565b602082019050919050565b5f6040820190508181035f830152618ff481618fbb565b905061900360208301846177d9565b92915050565b7f6f6e6c792061646d696e2063616e2073657420636c6f736520666163746f72005f82015250565b5f61903d601f836188d2565b915061904882619009565b602082019050919050565b5f6020820190508181035f83015261906a81619031565b9050919050565b7f6f6e6c792061646d696e2063616e2073657420626f72726f77206361702067755f8201527f61726469616e0000000000000000000000000000000000000000000000000000602082015250565b5f6190cb6026836188d2565b91506190d682619071565b604082019050919050565b5f6020820190508181035f8301526190f8816190bf565b9050919050565b5f6040820190506191125f830185617d59565b61911f6020830184617d59565b9392505050565b7f4d696e74000000000000000000000000000000000000000000000000000000005f82015250565b5f61915a6004836188d2565b915061916582619126565b602082019050919050565b5f6060820190506191835f830185618037565b81810360208301526191948161914e565b90506191a360408301846177d9565b9392505050565b7f6d696e74206973207061757365640000000000000000000000000000000000005f82015250565b5f6191de600e836188d2565b91506191e9826191aa565b602082019050919050565b5f6020820190508181035f83015261920b816191d2565b9050919050565b7f72656465656d546f6b656e73207a65726f0000000000000000000000000000005f82015250565b5f6192466011836188d2565b915061925182619212565b602082019050919050565b5f6020820190508181035f8301526192738161923a565b9050919050565b5f60408201905061928d5f8301856183f7565b61929a60208301846183f7565b9392505050565b7f6f6e6c792061646d696e2063616e2073657420636f6d702073706565640000005f82015250565b5f6192d5601d836188d2565b91506192e0826192a1565b602082019050919050565b5f6020820190508181035f830152619302816192c9565b9050919050565b7f43616e206e6f74207265706179206d6f7265207468616e2074686520746f74615f8201527f6c20626f72726f77000000000000000000000000000000000000000000000000602082015250565b5f6193636028836188d2565b915061936e82619309565b604082019050919050565b5f6020820190508181035f83015261939081619357565b9050919050565b7f6f6e6c792061646d696e206f7220626f72726f772063617020677561726469615f8201527f6e2063616e2073657420626f72726f7720636170730000000000000000000000602082015250565b5f6193f16035836188d2565b91506193fc82619397565b604082019050919050565b5f6020820190508181035f83015261941e816193e5565b9050919050565b7f696e76616c696420696e707574000000000000000000000000000000000000005f82015250565b5f619459600d836188d2565b915061946482619425565b602082019050919050565b5f6020820190508181035f8301526194868161944d565b9050919050565b7f6d61726b6574206d757374206265206c697374656400000000000000000000005f82015250565b5f6194c16015836188d2565b91506194cc8261948d565b602082019050919050565b5f6020820190508181035f8301526194ee816194b5565b9050919050565b7f5472616e736665720000000000000000000000000000000000000000000000005f82015250565b5f6195296008836188d2565b9150619534826194f5565b602082019050919050565b5f6040820190508181035f8301526195568161951d565b905061956560208301846177d9565b92915050565b5f81519050619579816179b1565b92915050565b5f602082840312156195945761959361780a565b5b5f6195a18482850161956b565b91505092915050565b7f436f6d7074726f6c6c65723a3a5f736574436f6d7053706565647320696e76615f8201527f6c696420696e7075740000000000000000000000000000000000000000000000602082015250565b5f6196046029836188d2565b915061960f826195aa565b604082019050919050565b5f6020820190508181035f830152619631816195f8565b9050919050565b7f7472616e736665722069732070617573656400000000000000000000000000005f82015250565b5f61966c6012836188d2565b915061967782619638565b602082019050919050565b5f6020820190508181035f83015261969981619660565b9050919050565b7f7365697a652069732070617573656400000000000000000000000000000000005f82015250565b5f6196d4600f836188d2565b91506196df826196a0565b602082019050919050565b5f6020820190508181035f830152619701816196c8565b9050919050565b5f61971282617965565b9050919050565b61972281619708565b811461972c575f80fd5b50565b5f8151905061973d81619719565b92915050565b5f602082840312156197585761975761780a565b5b5f6197658482850161972f565b91505092915050565b7f626f72726f7720697320706175736564000000000000000000000000000000005f82015250565b5f6197a26010836188d2565b91506197ad8261976e565b602082019050919050565b5f6020820190508181035f8301526197cf81619796565b9050919050565b7f73656e646572206d7573742062652063546f6b656e00000000000000000000005f82015250565b5f61980a6015836188d2565b9150619815826197d6565b602082019050919050565b5f6020820190508181035f830152619837816197fe565b9050919050565b7f4e487b71000000000000000000000000000000000000000000000000000000005f52600160045260245ffd5b7f6d61726b657420626f72726f77206361702072656163686564000000000000005f82015250565b5f61989f6019836188d2565b91506198aa8261986b565b602082019050919050565b5f6020820190508181035f8301526198cc81619893565b9050919050565b5f6060820190506198e65f830186618037565b6198f36020830185617c90565b6199006040830184617c90565b949350505050565b5f805f80608085870312156199205761991f61780a565b5b5f61992d87828801618dc8565b945050602061993e87828801618dc8565b935050604061994f87828801618dc8565b925050606061996087828801618dc8565b91505092959194509250565b7f657869744d61726b65743a206765744163636f756e74536e617073686f7420665f8201527f61696c6564000000000000000000000000000000000000000000000000000000602082015250565b5f6199c66025836188d2565b91506199d18261996c565b604082019050919050565b5f6020820190508181035f8301526199f3816199ba565b9050919050565b7f4e487b71000000000000000000000000000000000000000000000000000000005f52603160045260245ffd5b5f604082019050619a3a5f830185618037565b619a476020830184617d59565b9392505050565b5f619a5882617c87565b9150619a6383617c87565b9250828201905080821115619a7b57619a7a618a93565b5b92915050565b5f60ff82169050919050565b619a9681619a81565b8114619aa0575f80fd5b50565b5f81519050619ab181619a8d565b92915050565b5f60208284031215619acc57619acb61780a565b5b5f619ad984828501619aa3565b91505092915050565b5f619aec82619a81565b9150619af783619a81565b9250828203905060ff811115619b1057619b0f618a93565b5b92915050565b5f8160011c9050919050565b5f808291508390505b6001851115619b6b57808604811115619b4757619b46618a93565b5b6001851615619b565780820291505b8081029050619b6485619b16565b9450619b2b565b94509492505050565b5f82619b835760019050619c3e565b81619b90575f9050619c3e565b8160018114619ba65760028114619bb057619bdf565b6001915050619c3e565b60ff841115619bc257619bc1618a93565b5b8360020a915084821115619bd957619bd8618a93565b5b50619c3e565b5060208310610133831016604e8410600b8410161715619c145782820a905083811115619c0f57619c0e618a93565b5b619c3e565b619c218484846001619b22565b92509050818404811115619c3857619c37618a93565b5b81810290505b9392505050565b5f619c4f82617c87565b9150619c5a83619a81565b9250619c877fffffffffffffffffffffffffffffffffffffffffffffffffffffffffffffffff8484619b74565b905092915050565b7f416e74692d646f6e6174696f6e2067756172643a20756e6465726c79696e67205f8201527f62616c616e6365206c657373207468616e20746f74616c20737570706c790000602082015250565b5f619ce9603e836188d2565b9150619cf482619c8f565b604082019050919050565b5f6020820190508181035f830152619d1681619cdd565b9050919050565b5f819050919050565b5f619d40619d3b619d3684619d1d565b617feb565b617c87565b9050919050565b619d5081619d26565b82525050565b5f606082019050619d695f830186617c90565b619d766020830185617c90565b619d836040830184619d47565b949350505050565b5f619d9582617c87565b9150619da083617c87565b9250828202619dae81617c87565b91508282048414831517619dc557619dc4618a93565b5b5092915050565b7f6d61726b657420616c72656164792061646465640000000000000000000000005f82015250565b5f619e006014836188d2565b9150619e0b82619dcc565b602082019050919050565b5f6020820190508181035f830152619e2d81619df4565b9050919050565b7f636f6d70206d61726b6574206973206e6f74206c6973746564000000000000005f82015250565b5f619e686019836188d2565b9150619e7382619e34565b602082019050919050565b5f6020820190508181035f830152619e9581619e5c565b9050919050565b7f4e487b71000000000000000000000000000000000000000000000000000000005f52601260045260245ffd5b5f619ed382617c87565b9150619ede83617c87565b925082619eee57619eed619e9c565b5b828204905092915050565b5f81519050919050565b8281835e5f83830152505050565b5f619f1b82619ef9565b619f2581856188d2565b9350619f35818560208601619f03565b619f3e81617a43565b840191505092915050565b5f6020820190508181035f830152619f618184619f11565b90509291505056fea264697066735822122083330c8fbb5fb36ef85256562a21f43b48eeb9bba7dd22d6d348cb53a90144de64736f6c634300081a0033",
			"opcodes": "PUSH1 0x80 PUSH1 0x40 MSTORE CALLVALUE DUP1 ISZERO PUSH1 0xE JUMPI PUSH0 DUP1 REVERT JUMPDEST POP CALLER PUSH0 DUP1 PUSH2 0x100 EXP DUP2 SLOAD DUP2 PUSH20 0xFFFFFFFFFFFFFFFFFFFFFFFFFFFFFFFFFFFFFFFF MUL NOT AND SWAP1 DUP4 PUSH20 0xFFFFFFFFFFFFFFFFFFFFFFFFFFFFFFFFFFFFFFFF AND MUL OR SWAP1 SSTORE POP PUSH2 0x9F9F DUP1 PUSH2 0x5B PUSH0 CODECOPY PUSH0 RETURN INVALID PUSH1 0x80 PUSH1 0x40 MSTORE CALLVALUE DUP1 ISZERO PUSH2 0xF JUMPI PUSH0 DUP1 REVERT JUMPDEST POP PUSH1 0x4 CALLDATASIZE LT PUSH2 0x488 JUMPI PUSH0 CALLDATALOAD PUSH1 0xE0 SHR DUP1 PUSH4 0x731F0C2B GT PUSH2 0x260 JUMPI DUP1 PUSH4 0xB21BE7FD GT PUSH2 0x14F JUMPI DUP1 PUSH4 0xDCE15449 GT PUSH2 0xCC JUMPI DUP1 PUSH4 0xE9AF0292 GT PUSH2 0x90 JUMPI DUP1 PUSH4 0xE9AF0292 EQ PUSH2 0xFFB JUMPI DUP1 PUSH4 0xEABE7D91 EQ PUSH2 0x1017 JUMPI DUP1 PUSH4 0xEDE4EDD0 EQ PUSH2 0x1047 JUMPI DUP1 PUSH4 0xF00A7A92 EQ PUSH2 0x1077 JUMPI DUP1 PUSH4 0xF4A433C0 EQ PUSH2 0x1095 JUMPI DUP1 PUSH4 0xF851A440 EQ PUSH2 0x10C5 JUMPI PUSH2 0x488 JUMP JUMPDEST DUP1 PUSH4 0xDCE15449 EQ PUSH2 0xF41 JUMPI DUP1 PUSH4 0xDCFBC0C7 EQ PUSH2 0xF71 JUMPI DUP1 PUSH4 0xE4028EEE EQ PUSH2 0xF8F JUMPI DUP1 PUSH4 0xE6653F3D EQ PUSH2 0xFBF JUMPI DUP1 PUSH4 0xE8755446 EQ PUSH2 0xFDD JUMPI PUSH2 0x488 JUMP JUMPDEST DUP1 PUSH4 0xC488847B GT PUSH2 0x113 JUMPI DUP1 PUSH4 0xC488847B EQ PUSH2 0xE50 JUMPI DUP1 PUSH4 0xCA0AF043 EQ PUSH2 0xE81 JUMPI DUP1 PUSH4 0xCC7EBDC4 EQ PUSH2 0xEB1 JUMPI DUP1 PUSH4 0xD02F7351 EQ PUSH2 0xEE1 JUMPI DUP1 PUSH4 0xDA3D454C EQ PUSH2 0xF11 JUMPI PUSH2 0x488 JUMP JUMPDEST DUP1 PUSH4 0xB21BE7FD EQ PUSH2 0xD72 JUMPI DUP1 PUSH4 0xBB82AA5E EQ PUSH2 0xDA2 JUMPI DUP1 PUSH4 0xBDCDC258 EQ PUSH2 0xDC0 JUMPI DUP1 PUSH4 0xBEA6B8B8 EQ PUSH2 0xDF0 JUMPI DUP1 PUSH4 0xC2998238 EQ PUSH2 0xE20 JUMPI PUSH2 0x488 JUMP JUMPDEST DUP1 PUSH4 0x94B2294B GT PUSH2 0x1DD JUMPI DUP1 PUSH4 0xA8B43948 GT PUSH2 0x1A1 JUMPI DUP1 PUSH4 0xA8B43948 EQ PUSH2 0xCCC JUMPI DUP1 PUSH4 0xAA900754 EQ PUSH2 0xCE8 JUMPI DUP1 PUSH4 0xABFCEFFC EQ PUSH2 0xD06 JUMPI DUP1 PUSH4 0xAC0B0BB7 EQ PUSH2 0xD36 JUMPI DUP1 PUSH4 0xB0772D0B EQ PUSH2 0xD54 JUMPI PUSH2 0x488 JUMP JUMPDEST DUP1 PUSH4 0x94B2294B EQ PUSH2 0xC12 JUMPI DUP1 PUSH4 0x986AB838 EQ PUSH2 0xC30 JUMPI DUP1 PUSH4 0x9D1B5A0A EQ PUSH2 0xC60 JUMPI DUP1 PUSH4 0xA76B3FDA EQ PUSH2 0xC7E JUMPI DUP1 PUSH4 0xA7F0E231 EQ PUSH2 0xCAE JUMPI PUSH2 0x488 JUMP JUMPDEST DUP1 PUSH4 0x8C57804E GT PUSH2 0x224 JUMPI DUP1 PUSH4 0x8C57804E EQ PUSH2 0xB1F JUMPI DUP1 PUSH4 0x8E8F294B EQ PUSH2 0xB50 JUMPI DUP1 PUSH4 0x8EBF6364 EQ PUSH2 0xB82 JUMPI DUP1 PUSH4 0x929FE9A1 EQ PUSH2 0xBB2 JUMPI DUP1 PUSH4 0x94543C15 EQ PUSH2 0xBE2 JUMPI PUSH2 0x488 JUMP JUMPDEST DUP1 PUSH4 0x731F0C2B EQ PUSH2 0xA67 JUMPI DUP1 PUSH4 0x741B2525 EQ PUSH2 0xA97 JUMPI DUP1 PUSH4 0x7DC0D1D0 EQ PUSH2 0xAB3 JUMPI DUP1 PUSH4 0x85B7BEB8 EQ PUSH2 0xAD1 JUMPI DUP1 PUSH4 0x87F76303 EQ PUSH2 0xB01 JUMPI PUSH2 0x488 JUMP JUMPDEST DUP1 PUSH4 0x4A584432 GT PUSH2 0x37C JUMPI DUP1 PUSH4 0x5EC88C79 GT PUSH2 0x2F9 JUMPI DUP1 PUSH4 0x6A56947E GT PUSH2 0x2BD JUMPI DUP1 PUSH4 0x6A56947E EQ PUSH2 0x99E JUMPI DUP1 PUSH4 0x6AA875B5 EQ PUSH2 0x9BA JUMPI DUP1 PUSH4 0x6B79C38D EQ PUSH2 0x9EA JUMPI DUP1 PUSH4 0x6D154EA5 EQ PUSH2 0xA1B JUMPI DUP1 PUSH4 0x6D35BF91 EQ PUSH2 0xA4B JUMPI PUSH2 0x488 JUMP JUMPDEST DUP1 PUSH4 0x5EC88C79 EQ PUSH2 0x8D4 JUMPI DUP1 PUSH4 0x5F5AF1AA EQ PUSH2 0x906 JUMPI DUP1 PUSH4 0x5FC7E71E EQ PUSH2 0x936 JUMPI DUP1 PUSH4 0x607EF6C1 EQ PUSH2 0x966 JUMPI DUP1 PUSH4 0x6810DFA6 EQ PUSH2 0x982 JUMPI PUSH2 0x488 JUMP JUMPDEST DUP1 PUSH4 0x51DFF989 GT PUSH2 0x340 JUMPI DUP1 PUSH4 0x51DFF989 EQ PUSH2 0x820 JUMPI DUP1 PUSH4 0x52D84D1E EQ PUSH2 0x83C JUMPI DUP1 PUSH4 0x55EE1FE1 EQ PUSH2 0x86C JUMPI DUP1 PUSH4 0x598EE1CB EQ PUSH2 0x89C JUMPI DUP1 PUSH4 0x5C778605 EQ PUSH2 0x8B8 JUMPI PUSH2 0x488 JUMP JUMPDEST DUP1 PUSH4 0x4A584432 EQ PUSH2 0x740 JUMPI DUP1 PUSH4 0x4ADA90AF EQ PUSH2 0x770 JUMPI DUP1 PUSH4 0x4E79238F EQ PUSH2 0x78E JUMPI DUP1 PUSH4 0x4EF4C3E1 EQ PUSH2 0x7C0 JUMPI DUP1 PUSH4 0x4FD42E17 EQ PUSH2 0x7F0 JUMPI PUSH2 0x488 JUMP JUMPDEST DUP1 PUSH4 0x26782247 GT PUSH2 0x40A JUMPI DUP1 PUSH4 0x3BCF7EC1 GT PUSH2 0x3CE JUMPI DUP1 PUSH4 0x3BCF7EC1 EQ PUSH2 0x69C JUMPI DUP1 PUSH4 0x3C94786F EQ PUSH2 0x6CC JUMPI DUP1 PUSH4 0x41C728B9 EQ PUSH2 0x6EA JUMPI DUP1 PUSH4 0x42CBB15C EQ PUSH2 0x706 JUMPI DUP1 PUSH4 0x47EF3B3B EQ PUSH2 0x724 JUMPI PUSH2 0x488 JUMP JUMPDEST DUP1 PUSH4 0x26782247 EQ PUSH2 0x5E6 JUMPI DUP1 PUSH4 0x27EFE3CB EQ PUSH2 0x604 JUMPI DUP1 PUSH4 0x2D70DB78 EQ PUSH2 0x620 JUMPI DUP1 PUSH4 0x317B0B77 EQ PUSH2 0x650 JUMPI DUP1 PUSH4 0x391957D7 EQ PUSH2 0x680 JUMPI PUSH2 0x488 JUMP JUMPDEST DUP1 PUSH4 0x1D7B33D7 GT PUSH2 0x451 JUMPI DUP1 PUSH4 0x1D7B33D7 EQ PUSH2 0x52E JUMPI DUP1 PUSH4 0x1EDEDC91 EQ PUSH2 0x55E JUMPI DUP1 PUSH4 0x21AF4569 EQ PUSH2 0x57A JUMPI DUP1 PUSH4 0x24008A62 EQ PUSH2 0x598 JUMPI DUP1 PUSH4 0x24A3D622 EQ PUSH2 0x5C8 JUMPI PUSH2 0x488 JUMP JUMPDEST DUP1 PUSH3 0x7E3DD2 EQ PUSH2 0x48C JUMPI DUP1 PUSH4 0x16B95E8F EQ PUSH2 0x4AA JUMPI DUP1 PUSH4 0x18C882A5 EQ PUSH2 0x4C6 JUMPI DUP1 PUSH4 0x1C3DB2E0 EQ PUSH2 0x4F6 JUMPI DUP1 PUSH4 0x1D504DC6 EQ PUSH2 0x512 JUMPI JUMPDEST PUSH0 DUP1 REVERT JUMPDEST PUSH2 0x494 PUSH2 0x10E3 JUMP JUMPDEST PUSH1 0x40 MLOAD PUSH2 0x4A1 SWAP2 SWAP1 PUSH2 0x77E8 JUMP JUMPDEST PUSH1 0x40 MLOAD DUP1 SWAP2 SUB SWAP1 RETURN JUMPDEST PUSH2 0x4C4 PUSH1 0x4 DUP1 CALLDATASIZE SUB DUP2 ADD SWAP1 PUSH2 0x4BF SWAP2 SWAP1 PUSH2 0x78C8 JUMP JUMPDEST PUSH2 0x10E8 JUMP JUMPDEST STOP JUMPDEST PUSH2 0x4E0 PUSH1 0x4 DUP1 CALLDATASIZE SUB DUP2 ADD SWAP1 PUSH2 0x4DB SWAP2 SWAP1 PUSH2 0x79DB JUMP JUMPDEST PUSH2 0x1478 JUMP JUMPDEST PUSH1 0x40 MLOAD PUSH2 0x4ED SWAP2 SWAP1 PUSH2 0x77E8 JUMP JUMPDEST PUSH1 0x40 MLOAD DUP1 SWAP2 SUB SWAP1 RETURN JUMPDEST PUSH2 0x510 PUSH1 0x4 DUP1 CALLDATASIZE SUB DUP2 ADD SWAP1 PUSH2 0x50B SWAP2 SWAP1 PUSH2 0x7B8B JUMP JUMPDEST PUSH2 0x171A JUMP JUMPDEST STOP JUMPDEST PUSH2 0x52C PUSH1 0x4 DUP1 CALLDATASIZE SUB DUP2 ADD SWAP1 PUSH2 0x527 SWAP2 SWAP1 PUSH2 0x7C31 JUMP JUMPDEST PUSH2 0x17C7 JUMP JUMPDEST STOP JUMPDEST PUSH2 0x548 PUSH1 0x4 DUP1 CALLDATASIZE SUB DUP2 ADD SWAP1 PUSH2 0x543 SWAP2 SWAP1 PUSH2 0x7C5C JUMP JUMPDEST PUSH2 0x1953 JUMP JUMPDEST PUSH1 0x40 MLOAD PUSH2 0x555 SWAP2 SWAP1 PUSH2 0x7C9F JUMP JUMPDEST PUSH1 0x40 MLOAD DUP1 SWAP2 SUB SWAP1 RETURN JUMPDEST PUSH2 0x578 PUSH1 0x4 DUP1 CALLDATASIZE SUB DUP2 ADD SWAP1 PUSH2 0x573 SWAP2 SWAP1 PUSH2 0x7CE2 JUMP JUMPDEST PUSH2 0x1968 JUMP JUMPDEST STOP JUMPDEST PUSH2 0x582 PUSH2 0x197F JUMP JUMPDEST PUSH1 0x40 MLOAD PUSH2 0x58F SWAP2 SWAP1 PUSH2 0x7D68 JUMP JUMPDEST PUSH1 0x40 MLOAD DUP1 SWAP2 SUB SWAP1 RETURN JUMPDEST PUSH2 0x5B2 PUSH1 0x4 DUP1 CALLDATASIZE SUB DUP2 ADD SWAP1 PUSH2 0x5AD SWAP2 SWAP1 PUSH2 0x7D81 JUMP JUMPDEST PUSH2 0x19A4 JUMP JUMPDEST PUSH1 0x40 MLOAD PUSH2 0x5BF SWAP2 SWAP1 PUSH2 0x7C9F JUMP JUMPDEST PUSH1 0x40 MLOAD DUP1 SWAP2 SUB SWAP1 RETURN JUMPDEST PUSH2 0x5D0 PUSH2 0x1AC2 JUMP JUMPDEST PUSH1 0x40 MLOAD PUSH2 0x5DD SWAP2 SWAP1 PUSH2 0x7D68 JUMP JUMPDEST PUSH1 0x40 MLOAD DUP1 SWAP2 SUB SWAP1 RETURN JUMPDEST PUSH2 0x5EE PUSH2 0x1AE7 JUMP JUMPDEST PUSH1 0x40 MLOAD PUSH2 0x5FB SWAP2 SWAP1 PUSH2 0x7D68 JUMP JUMPDEST PUSH1 0x40 MLOAD DUP1 SWAP2 SUB SWAP1 RETURN JUMPDEST PUSH2 0x61E PUSH1 0x4 DUP1 CALLDATASIZE SUB DUP2 ADD SWAP1 PUSH2 0x619 SWAP2 SWAP1 PUSH2 0x7DE5 JUMP JUMPDEST PUSH2 0x1B0C JUMP JUMPDEST STOP JUMPDEST PUSH2 0x63A PUSH1 0x4 DUP1 CALLDATASIZE SUB DUP2 ADD SWAP1 PUSH2 0x635 SWAP2 SWAP1 PUSH2 0x7E23 JUMP JUMPDEST PUSH2 0x1BE0 JUMP JUMPDEST PUSH1 0x40 MLOAD PUSH2 0x647 SWAP2 SWAP1 PUSH2 0x77E8 JUMP JUMPDEST PUSH1 0x40 MLOAD DUP1 SWAP2 SUB SWAP1 RETURN JUMPDEST PUSH2 0x66A PUSH1 0x4 DUP1 CALLDATASIZE SUB DUP2 ADD SWAP1 PUSH2 0x665 SWAP2 SWAP1 PUSH2 0x7E4E JUMP JUMPDEST PUSH2 0x1DBA JUMP JUMPDEST PUSH1 0x40 MLOAD PUSH2 0x677 SWAP2 SWAP1 PUSH2 0x7C9F JUMP JUMPDEST PUSH1 0x40 MLOAD DUP1 SWAP2 SUB SWAP1 RETURN JUMPDEST PUSH2 0x69A PUSH1 0x4 DUP1 CALLDATASIZE SUB DUP2 ADD SWAP1 PUSH2 0x695 SWAP2 SWAP1 PUSH2 0x7C5C JUMP JUMPDEST PUSH2 0x1EAC JUMP JUMPDEST STOP JUMPDEST PUSH2 0x6B6 PUSH1 0x4 DUP1 CALLDATASIZE SUB DUP2 ADD SWAP1 PUSH2 0x6B1 SWAP2 SWAP1 PUSH2 0x79DB JUMP JUMPDEST PUSH2 0x1FDB JUMP JUMPDEST PUSH1 0x40 MLOAD PUSH2 0x6C3 SWAP2 SWAP1 PUSH2 0x77E8 JUMP JUMPDEST PUSH1 0x40 MLOAD DUP1 SWAP2 SUB SWAP1 RETURN JUMPDEST PUSH2 0x6D4 PUSH2 0x227D JUMP JUMPDEST PUSH1 0x40 MLOAD PUSH2 0x6E1 SWAP2 SWAP1 PUSH2 0x77E8 JUMP JUMPDEST PUSH1 0x40 MLOAD DUP1 SWAP2 SUB SWAP1 RETURN JUMPDEST PUSH2 0x704 PUSH1 0x4 DUP1 CALLDATASIZE SUB DUP2 ADD SWAP1 PUSH2 0x6FF SWAP2 SWAP1 PUSH2 0x7E79 JUMP JUMPDEST PUSH2 0x2290 JUMP JUMPDEST STOP JUMPDEST PUSH2 0x70E PUSH2 0x22A6 JUMP JUMPDEST PUSH1 0x40 MLOAD PUSH2 0x71B SWAP2 SWAP1 PUSH2 0x7C9F JUMP JUMPDEST PUSH1 0x40 MLOAD DUP1 SWAP2 SUB SWAP1 RETURN JUMPDEST PUSH2 0x73E PUSH1 0x4 DUP1 CALLDATASIZE SUB DUP2 ADD SWAP1 PUSH2 0x739 SWAP2 SWAP1 PUSH2 0x7EDD JUMP JUMPDEST PUSH2 0x22AD JUMP JUMPDEST STOP JUMPDEST PUSH2 0x75A PUSH1 0x4 DUP1 CALLDATASIZE SUB DUP2 ADD SWAP1 PUSH2 0x755 SWAP2 SWAP1 PUSH2 0x7C5C JUMP JUMPDEST PUSH2 0x22C5 JUMP JUMPDEST PUSH1 0x40 MLOAD PUSH2 0x767 SWAP2 SWAP1 PUSH2 0x7C9F JUMP JUMPDEST PUSH1 0x40 MLOAD DUP1 SWAP2 SUB SWAP1 RETURN JUMPDEST PUSH2 0x778 PUSH2 0x22DA JUMP JUMPDEST PUSH1 0x40 MLOAD PUSH2 0x785 SWAP2 SWAP1 PUSH2 0x7C9F JUMP JUMPDEST PUSH1 0x40 MLOAD DUP1 SWAP2 SUB SWAP1 RETURN JUMPDEST PUSH2 0x7A8 PUSH1 0x4 DUP1 CALLDATASIZE SUB DUP2 ADD SWAP1 PUSH2 0x7A3 SWAP2 SWAP1 PUSH2 0x7E79 JUMP JUMPDEST PUSH2 0x22E0 JUMP JUMPDEST PUSH1 0x40 MLOAD PUSH2 0x7B7 SWAP4 SWAP3 SWAP2 SWAP1 PUSH2 0x7F66 JUMP JUMPDEST PUSH1 0x40 MLOAD DUP1 SWAP2 SUB SWAP1 RETURN JUMPDEST PUSH2 0x7DA PUSH1 0x4 DUP1 CALLDATASIZE SUB DUP2 ADD SWAP1 PUSH2 0x7D5 SWAP2 SWAP1 PUSH2 0x7F9B JUMP JUMPDEST PUSH2 0x2320 JUMP JUMPDEST PUSH1 0x40 MLOAD PUSH2 0x7E7 SWAP2 SWAP1 PUSH2 0x7C9F JUMP JUMPDEST PUSH1 0x40 MLOAD DUP1 SWAP2 SUB SWAP1 RETURN JUMPDEST PUSH2 0x80A PUSH1 0x4 DUP1 CALLDATASIZE SUB DUP2 ADD SWAP1 PUSH2 0x805 SWAP2 SWAP1 PUSH2 0x7E4E JUMP JUMPDEST PUSH2 0x244F JUMP JUMPDEST PUSH1 0x40 MLOAD PUSH2 0x817 SWAP2 SWAP1 PUSH2 0x7C9F JUMP JUMPDEST PUSH1 0x40 MLOAD DUP1 SWAP2 SUB SWAP1 RETURN JUMPDEST PUSH2 0x83A PUSH1 0x4 DUP1 CALLDATASIZE SUB DUP2 ADD SWAP1 PUSH2 0x835 SWAP2 SWAP1 PUSH2 0x7E79 JUMP JUMPDEST PUSH2 0x2518 JUMP JUMPDEST STOP JUMPDEST PUSH2 0x856 PUSH1 0x4 DUP1 CALLDATASIZE SUB DUP2 ADD SWAP1 PUSH2 0x851 SWAP2 SWAP1 PUSH2 0x7E4E JUMP JUMPDEST PUSH2 0x256C JUMP JUMPDEST PUSH1 0x40 MLOAD PUSH2 0x863 SWAP2 SWAP1 PUSH2 0x8046 JUMP JUMPDEST PUSH1 0x40 MLOAD DUP1 SWAP2 SUB SWAP1 RETURN JUMPDEST PUSH2 0x886 PUSH1 0x4 DUP1 CALLDATASIZE SUB DUP2 ADD SWAP1 PUSH2 0x881 SWAP2 SWAP1 PUSH2 0x809A JUMP JUMPDEST PUSH2 0x25A7 JUMP JUMPDEST PUSH1 0x40 MLOAD PUSH2 0x893 SWAP2 SWAP1 PUSH2 0x7C9F JUMP JUMPDEST PUSH1 0x40 MLOAD DUP1 SWAP2 SUB SWAP1 RETURN JUMPDEST PUSH2 0x8B6 PUSH1 0x4 DUP1 CALLDATASIZE SUB DUP2 ADD SWAP1 PUSH2 0x8B1 SWAP2 SWAP1 PUSH2 0x7DE5 JUMP JUMPDEST PUSH2 0x26C8 JUMP JUMPDEST STOP JUMPDEST PUSH2 0x8D2 PUSH1 0x4 DUP1 CALLDATASIZE SUB DUP2 ADD SWAP1 PUSH2 0x8CD SWAP2 SWAP1 PUSH2 0x7F9B JUMP JUMPDEST PUSH2 0x2842 JUMP JUMPDEST STOP JUMPDEST PUSH2 0x8EE PUSH1 0x4 DUP1 CALLDATASIZE SUB DUP2 ADD SWAP1 PUSH2 0x8E9 SWAP2 SWAP1 PUSH2 0x7C5C JUMP JUMPDEST PUSH2 0x2857 JUMP JUMPDEST PUSH1 0x40 MLOAD PUSH2 0x8FD SWAP4 SWAP3 SWAP2 SWAP1 PUSH2 0x7F66 JUMP JUMPDEST PUSH1 0x40 MLOAD DUP1 SWAP2 SUB SWAP1 RETURN JUMPDEST PUSH2 0x920 PUSH1 0x4 DUP1 CALLDATASIZE SUB DUP2 ADD SWAP1 PUSH2 0x91B SWAP2 SWAP1 PUSH2 0x7C5C JUMP JUMPDEST PUSH2 0x2894 JUMP JUMPDEST PUSH1 0x40 MLOAD PUSH2 0x92D SWAP2 SWAP1 PUSH2 0x7C9F JUMP JUMPDEST PUSH1 0x40 MLOAD DUP1 SWAP2 SUB SWAP1 RETURN JUMPDEST PUSH2 0x950 PUSH1 0x4 DUP1 CALLDATASIZE SUB DUP2 ADD SWAP1 PUSH2 0x94B SWAP2 SWAP1 PUSH2 0x80C5 JUMP JUMPDEST PUSH2 0x29D6 JUMP JUMPDEST PUSH1 0x40 MLOAD PUSH2 0x95D SWAP2 SWAP1 PUSH2 0x7C9F JUMP JUMPDEST PUSH1 0x40 MLOAD DUP1 SWAP2 SUB SWAP1 RETURN JUMPDEST PUSH2 0x980 PUSH1 0x4 DUP1 CALLDATASIZE SUB DUP2 ADD SWAP1 PUSH2 0x97B SWAP2 SWAP1 PUSH2 0x8191 JUMP JUMPDEST PUSH2 0x2C4D JUMP JUMPDEST STOP JUMPDEST PUSH2 0x99C PUSH1 0x4 DUP1 CALLDATASIZE SUB DUP2 ADD SWAP1 PUSH2 0x997 SWAP2 SWAP1 PUSH2 0x82CF JUMP JUMPDEST PUSH2 0x2EBD JUMP JUMPDEST STOP JUMPDEST PUSH2 0x9B8 PUSH1 0x4 DUP1 CALLDATASIZE SUB DUP2 ADD SWAP1 PUSH2 0x9B3 SWAP2 SWAP1 PUSH2 0x7D81 JUMP JUMPDEST PUSH2 0x319C JUMP JUMPDEST STOP JUMPDEST PUSH2 0x9D4 PUSH1 0x4 DUP1 CALLDATASIZE SUB DUP2 ADD SWAP1 PUSH2 0x9CF SWAP2 SWAP1 PUSH2 0x7C5C JUMP JUMPDEST PUSH2 0x31B2 JUMP JUMPDEST PUSH1 0x40 MLOAD PUSH2 0x9E1 SWAP2 SWAP1 PUSH2 0x7C9F JUMP JUMPDEST PUSH1 0x40 MLOAD DUP1 SWAP2 SUB SWAP1 RETURN JUMPDEST PUSH2 0xA04 PUSH1 0x4 DUP1 CALLDATASIZE SUB DUP2 ADD SWAP1 PUSH2 0x9FF SWAP2 SWAP1 PUSH2 0x7C5C JUMP JUMPDEST PUSH2 0x31C7 JUMP JUMPDEST PUSH1 0x40 MLOAD PUSH2 0xA12 SWAP3 SWAP2 SWAP1 PUSH2 0x83BF JUMP JUMPDEST PUSH1 0x40 MLOAD DUP1 SWAP2 SUB SWAP1 RETURN JUMPDEST PUSH2 0xA35 PUSH1 0x4 DUP1 CALLDATASIZE SUB DUP2 ADD SWAP1 PUSH2 0xA30 SWAP2 SWAP1 PUSH2 0x7C5C JUMP JUMPDEST PUSH2 0x321D JUMP JUMPDEST PUSH1 0x40 MLOAD PUSH2 0xA42 SWAP2 SWAP1 PUSH2 0x77E8 JUMP JUMPDEST PUSH1 0x40 MLOAD DUP1 SWAP2 SUB SWAP1 RETURN JUMPDEST PUSH2 0xA65 PUSH1 0x4 DUP1 CALLDATASIZE SUB DUP2 ADD SWAP1 PUSH2 0xA60 SWAP2 SWAP1 PUSH2 0x80C5 JUMP JUMPDEST PUSH2 0x323A JUMP JUMPDEST STOP JUMPDEST PUSH2 0xA81 PUSH1 0x4 DUP1 CALLDATASIZE SUB DUP2 ADD SWAP1 PUSH2 0xA7C SWAP2 SWAP1 PUSH2 0x7C5C JUMP JUMPDEST PUSH2 0x3251 JUMP JUMPDEST PUSH1 0x40 MLOAD PUSH2 0xA8E SWAP2 SWAP1 PUSH2 0x77E8 JUMP JUMPDEST PUSH1 0x40 MLOAD DUP1 SWAP2 SUB SWAP1 RETURN JUMPDEST PUSH2 0xAB1 PUSH1 0x4 DUP1 CALLDATASIZE SUB DUP2 ADD SWAP1 PUSH2 0xAAC SWAP2 SWAP1 PUSH2 0x7C5C JUMP JUMPDEST PUSH2 0x326E JUMP JUMPDEST STOP JUMPDEST PUSH2 0xABB PUSH2 0x33FB JUMP JUMPDEST PUSH1 0x40 MLOAD PUSH2 0xAC8 SWAP2 SWAP1 PUSH2 0x8406 JUMP JUMPDEST PUSH1 0x40 MLOAD DUP1 SWAP2 SUB SWAP1 RETURN JUMPDEST PUSH2 0xAEB PUSH1 0x4 DUP1 CALLDATASIZE SUB DUP2 ADD SWAP1 PUSH2 0xAE6 SWAP2 SWAP1 PUSH2 0x7C5C JUMP JUMPDEST PUSH2 0x3420 JUMP JUMPDEST PUSH1 0x40 MLOAD PUSH2 0xAF8 SWAP2 SWAP1 PUSH2 0x7C9F JUMP JUMPDEST PUSH1 0x40 MLOAD DUP1 SWAP2 SUB SWAP1 RETURN JUMPDEST PUSH2 0xB09 PUSH2 0x3435 JUMP JUMPDEST PUSH1 0x40 MLOAD PUSH2 0xB16 SWAP2 SWAP1 PUSH2 0x77E8 JUMP JUMPDEST PUSH1 0x40 MLOAD DUP1 SWAP2 SUB SWAP1 RETURN JUMPDEST PUSH2 0xB39 PUSH1 0x4 DUP1 CALLDATASIZE SUB DUP2 ADD SWAP1 PUSH2 0xB34 SWAP2 SWAP1 PUSH2 0x7C5C JUMP JUMPDEST PUSH2 0x3448 JUMP JUMPDEST PUSH1 0x40 MLOAD PUSH2 0xB47 SWAP3 SWAP2 SWAP1 PUSH2 0x83BF JUMP JUMPDEST PUSH1 0x40 MLOAD DUP1 SWAP2 SUB SWAP1 RETURN JUMPDEST PUSH2 0xB6A PUSH1 0x4 DUP1 CALLDATASIZE SUB DUP2 ADD SWAP1 PUSH2 0xB65 SWAP2 SWAP1 PUSH2 0x7C5C JUMP JUMPDEST PUSH2 0x349E JUMP JUMPDEST PUSH1 0x40 MLOAD PUSH2 0xB79 SWAP4 SWAP3 SWAP2 SWAP1 PUSH2 0x841F JUMP JUMPDEST PUSH1 0x40 MLOAD DUP1 SWAP2 SUB SWAP1 RETURN JUMPDEST PUSH2 0xB9C PUSH1 0x4 DUP1 CALLDATASIZE SUB DUP2 ADD SWAP1 PUSH2 0xB97 SWAP2 SWAP1 PUSH2 0x7E23 JUMP JUMPDEST PUSH2 0x34DC JUMP JUMPDEST PUSH1 0x40 MLOAD PUSH2 0xBA9 SWAP2 SWAP1 PUSH2 0x77E8 JUMP JUMPDEST PUSH1 0x40 MLOAD DUP1 SWAP2 SUB SWAP1 RETURN JUMPDEST PUSH2 0xBCC PUSH1 0x4 DUP1 CALLDATASIZE SUB DUP2 ADD SWAP1 PUSH2 0xBC7 SWAP2 SWAP1 PUSH2 0x8454 JUMP JUMPDEST PUSH2 0x36B6 JUMP JUMPDEST PUSH1 0x40 MLOAD PUSH2 0xBD9 SWAP2 SWAP1 PUSH2 0x77E8 JUMP JUMPDEST PUSH1 0x40 MLOAD DUP1 SWAP2 SUB SWAP1 RETURN JUMPDEST PUSH2 0xBFC PUSH1 0x4 DUP1 CALLDATASIZE SUB DUP2 ADD SWAP1 PUSH2 0xBF7 SWAP2 SWAP1 PUSH2 0x8492 JUMP JUMPDEST PUSH2 0x3747 JUMP JUMPDEST PUSH1 0x40 MLOAD PUSH2 0xC09 SWAP2 SWAP1 PUSH2 0x77E8 JUMP JUMPDEST PUSH1 0x40 MLOAD DUP1 SWAP2 SUB SWAP1 RETURN JUMPDEST PUSH2 0xC1A PUSH2 0x386A JUMP JUMPDEST PUSH1 0x40 MLOAD PUSH2 0xC27 SWAP2 SWAP1 PUSH2 0x7C9F JUMP JUMPDEST PUSH1 0x40 MLOAD DUP1 SWAP2 SUB SWAP1 RETURN JUMPDEST PUSH2 0xC4A PUSH1 0x4 DUP1 CALLDATASIZE SUB DUP2 ADD SWAP1 PUSH2 0xC45 SWAP2 SWAP1 PUSH2 0x7C5C JUMP JUMPDEST PUSH2 0x3870 JUMP JUMPDEST PUSH1 0x40 MLOAD PUSH2 0xC57 SWAP2 SWAP1 PUSH2 0x7C9F JUMP JUMPDEST PUSH1 0x40 MLOAD DUP1 SWAP2 SUB SWAP1 RETURN JUMPDEST PUSH2 0xC68 PUSH2 0x3885 JUMP JUMPDEST PUSH1 0x40 MLOAD PUSH2 0xC75 SWAP2 SWAP1 PUSH2 0x7D68 JUMP JUMPDEST PUSH1 0x40 MLOAD DUP1 SWAP2 SUB SWAP1 RETURN JUMPDEST PUSH2 0xC98 PUSH1 0x4 DUP1 CALLDATASIZE SUB DUP2 ADD SWAP1 PUSH2 0xC93 SWAP2 SWAP1 PUSH2 0x8492 JUMP JUMPDEST PUSH2 0x38A0 JUMP JUMPDEST PUSH1 0x40 MLOAD PUSH2 0xCA5 SWAP2 SWAP1 PUSH2 0x7C9F JUMP JUMPDEST PUSH1 0x40 MLOAD DUP1 SWAP2 SUB SWAP1 RETURN JUMPDEST PUSH2 0xCB6 PUSH2 0x3AC6 JUMP JUMPDEST PUSH1 0x40 MLOAD PUSH2 0xCC3 SWAP2 SWAP1 PUSH2 0x84BD JUMP JUMPDEST PUSH1 0x40 MLOAD DUP1 SWAP2 SUB SWAP1 RETURN JUMPDEST PUSH2 0xCE6 PUSH1 0x4 DUP1 CALLDATASIZE SUB DUP2 ADD SWAP1 PUSH2 0xCE1 SWAP2 SWAP1 PUSH2 0x8596 JUMP JUMPDEST PUSH2 0x3AD9 JUMP JUMPDEST STOP JUMPDEST PUSH2 0xCF0 PUSH2 0x3BE9 JUMP JUMPDEST PUSH1 0x40 MLOAD PUSH2 0xCFD SWAP2 SWAP1 PUSH2 0x7C9F JUMP JUMPDEST PUSH1 0x40 MLOAD DUP1 SWAP2 SUB SWAP1 RETURN JUMPDEST PUSH2 0xD20 PUSH1 0x4 DUP1 CALLDATASIZE SUB DUP2 ADD SWAP1 PUSH2 0xD1B SWAP2 SWAP1 PUSH2 0x7C5C JUMP JUMPDEST PUSH2 0x3BEF JUMP JUMPDEST PUSH1 0x40 MLOAD PUSH2 0xD2D SWAP2 SWAP1 PUSH2 0x86F1 JUMP JUMPDEST PUSH1 0x40 MLOAD DUP1 SWAP2 SUB SWAP1 RETURN JUMPDEST PUSH2 0xD3E PUSH2 0x3CBC JUMP JUMPDEST PUSH1 0x40 MLOAD PUSH2 0xD4B SWAP2 SWAP1 PUSH2 0x77E8 JUMP JUMPDEST PUSH1 0x40 MLOAD DUP1 SWAP2 SUB SWAP1 RETURN JUMPDEST PUSH2 0xD5C PUSH2 0x3CCF JUMP JUMPDEST PUSH1 0x40 MLOAD PUSH2 0xD69 SWAP2 SWAP1 PUSH2 0x86F1 JUMP JUMPDEST PUSH1 0x40 MLOAD DUP1 SWAP2 SUB SWAP1 RETURN JUMPDEST PUSH2 0xD8C PUSH1 0x4 DUP1 CALLDATASIZE SUB DUP2 ADD SWAP1 PUSH2 0xD87 SWAP2 SWAP1 PUSH2 0x8711 JUMP JUMPDEST PUSH2 0x3D5A JUMP JUMPDEST PUSH1 0x40 MLOAD PUSH2 0xD99 SWAP2 SWAP1 PUSH2 0x7C9F JUMP JUMPDEST PUSH1 0x40 MLOAD DUP1 SWAP2 SUB SWAP1 RETURN JUMPDEST PUSH2 0xDAA PUSH2 0x3D7A JUMP JUMPDEST PUSH1 0x40 MLOAD PUSH2 0xDB7 SWAP2 SWAP1 PUSH2 0x7D68 JUMP JUMPDEST PUSH1 0x40 MLOAD DUP1 SWAP2 SUB SWAP1 RETURN JUMPDEST PUSH2 0xDDA PUSH1 0x4 DUP1 CALLDATASIZE SUB DUP2 ADD SWAP1 PUSH2 0xDD5 SWAP2 SWAP1 PUSH2 0x7D81 JUMP JUMPDEST PUSH2 0x3D9F JUMP JUMPDEST PUSH1 0x40 MLOAD PUSH2 0xDE7 SWAP2 SWAP1 PUSH2 0x7C9F JUMP JUMPDEST PUSH1 0x40 MLOAD DUP1 SWAP2 SUB SWAP1 RETURN JUMPDEST PUSH2 0xE0A PUSH1 0x4 DUP1 CALLDATASIZE SUB DUP2 ADD SWAP1 PUSH2 0xE05 SWAP2 SWAP1 PUSH2 0x7C5C JUMP JUMPDEST PUSH2 0x3E65 JUMP JUMPDEST PUSH1 0x40 MLOAD PUSH2 0xE17 SWAP2 SWAP1 PUSH2 0x7C9F JUMP JUMPDEST PUSH1 0x40 MLOAD DUP1 SWAP2 SUB SWAP1 RETURN JUMPDEST PUSH2 0xE3A PUSH1 0x4 DUP1 CALLDATASIZE SUB DUP2 ADD SWAP1 PUSH2 0xE35 SWAP2 SWAP1 PUSH2 0x874F JUMP JUMPDEST PUSH2 0x3E7A JUMP JUMPDEST PUSH1 0x40 MLOAD PUSH2 0xE47 SWAP2 SWAP1 PUSH2 0x884D JUMP JUMPDEST PUSH1 0x40 MLOAD DUP1 SWAP2 SUB SWAP1 RETURN JUMPDEST PUSH2 0xE6A PUSH1 0x4 DUP1 CALLDATASIZE SUB DUP2 ADD SWAP1 PUSH2 0xE65 SWAP2 SWAP1 PUSH2 0x7F9B JUMP JUMPDEST PUSH2 0x3F49 JUMP JUMPDEST PUSH1 0x40 MLOAD PUSH2 0xE78 SWAP3 SWAP2 SWAP1 PUSH2 0x886D JUMP JUMPDEST PUSH1 0x40 MLOAD DUP1 SWAP2 SUB SWAP1 RETURN JUMPDEST PUSH2 0xE9B PUSH1 0x4 DUP1 CALLDATASIZE SUB DUP2 ADD SWAP1 PUSH2 0xE96 SWAP2 SWAP1 PUSH2 0x8711 JUMP JUMPDEST PUSH2 0x41D0 JUMP JUMPDEST PUSH1 0x40 MLOAD PUSH2 0xEA8 SWAP2 SWAP1 PUSH2 0x7C9F JUMP JUMPDEST PUSH1 0x40 MLOAD DUP1 SWAP2 SUB SWAP1 RETURN JUMPDEST PUSH2 0xECB PUSH1 0x4 DUP1 CALLDATASIZE SUB DUP2 ADD SWAP1 PUSH2 0xEC6 SWAP2 SWAP1 PUSH2 0x7C5C JUMP JUMPDEST PUSH2 0x41F0 JUMP JUMPDEST PUSH1 0x40 MLOAD PUSH2 0xED8 SWAP2 SWAP1 PUSH2 0x7C9F JUMP JUMPDEST PUSH1 0x40 MLOAD DUP1 SWAP2 SUB SWAP1 RETURN JUMPDEST PUSH2 0xEFB PUSH1 0x4 DUP1 CALLDATASIZE SUB DUP2 ADD SWAP1 PUSH2 0xEF6 SWAP2 SWAP1 PUSH2 0x80C5 JUMP JUMPDEST PUSH2 0x4205 JUMP JUMPDEST PUSH1 0x40 MLOAD PUSH2 0xF08 SWAP2 SWAP1 PUSH2 0x7C9F JUMP JUMPDEST PUSH1 0x40 MLOAD DUP1 SWAP2 SUB SWAP1 RETURN JUMPDEST PUSH2 0xF2B PUSH1 0x4 DUP1 CALLDATASIZE SUB DUP2 ADD SWAP1 PUSH2 0xF26 SWAP2 SWAP1 PUSH2 0x7F9B JUMP JUMPDEST PUSH2 0x4479 JUMP JUMPDEST PUSH1 0x40 MLOAD PUSH2 0xF38 SWAP2 SWAP1 PUSH2 0x7C9F JUMP JUMPDEST PUSH1 0x40 MLOAD DUP1 SWAP2 SUB SWAP1 RETURN JUMPDEST PUSH2 0xF5B PUSH1 0x4 DUP1 CALLDATASIZE SUB DUP2 ADD SWAP1 PUSH2 0xF56 SWAP2 SWAP1 PUSH2 0x7DE5 JUMP JUMPDEST PUSH2 0x4A4C JUMP JUMPDEST PUSH1 0x40 MLOAD PUSH2 0xF68 SWAP2 SWAP1 PUSH2 0x8046 JUMP JUMPDEST PUSH1 0x40 MLOAD DUP1 SWAP2 SUB SWAP1 RETURN JUMPDEST PUSH2 0xF79 PUSH2 0x4A94 JUMP JUMPDEST PUSH1 0x40 MLOAD PUSH2 0xF86 SWAP2 SWAP1 PUSH2 0x7D68 JUMP JUMPDEST PUSH1 0x40 MLOAD DUP1 SWAP2 SUB SWAP1 RETURN JUMPDEST PUSH2 0xFA9 PUSH1 0x4 DUP1 CALLDATASIZE SUB DUP2 ADD SWAP1 PUSH2 0xFA4 SWAP2 SWAP1 PUSH2 0x8894 JUMP JUMPDEST PUSH2 0x4AB9 JUMP JUMPDEST PUSH1 0x40 MLOAD PUSH2 0xFB6 SWAP2 SWAP1 PUSH2 0x7C9F JUMP JUMPDEST PUSH1 0x40 MLOAD DUP1 SWAP2 SUB SWAP1 RETURN JUMPDEST PUSH2 0xFC7 PUSH2 0x4D07 JUMP JUMPDEST PUSH1 0x40 MLOAD PUSH2 0xFD4 SWAP2 SWAP1 PUSH2 0x77E8 JUMP JUMPDEST PUSH1 0x40 MLOAD DUP1 SWAP2 SUB SWAP1 RETURN JUMPDEST PUSH2 0xFE5 PUSH2 0x4D1A JUMP JUMPDEST PUSH1 0x40 MLOAD PUSH2 0xFF2 SWAP2 SWAP1 PUSH2 0x7C9F JUMP JUMPDEST PUSH1 0x40 MLOAD DUP1 SWAP2 SUB SWAP1 RETURN JUMPDEST PUSH2 0x1015 PUSH1 0x4 DUP1 CALLDATASIZE SUB DUP2 ADD SWAP1 PUSH2 0x1010 SWAP2 SWAP1 PUSH2 0x7C5C JUMP JUMPDEST PUSH2 0x4D20 JUMP JUMPDEST STOP JUMPDEST PUSH2 0x1031 PUSH1 0x4 DUP1 CALLDATASIZE SUB DUP2 ADD SWAP1 PUSH2 0x102C SWAP2 SWAP1 PUSH2 0x7F9B JUMP JUMPDEST PUSH2 0x4DB0 JUMP JUMPDEST PUSH1 0x40 MLOAD PUSH2 0x103E SWAP2 SWAP1 PUSH2 0x7C9F JUMP JUMPDEST PUSH1 0x40 MLOAD DUP1 SWAP2 SUB SWAP1 RETURN JUMPDEST PUSH2 0x1061 PUSH1 0x4 DUP1 CALLDATASIZE SUB DUP2 ADD SWAP1 PUSH2 0x105C SWAP2 SWAP1 PUSH2 0x7C5C JUMP JUMPDEST PUSH2 0x4E1B JUMP JUMPDEST PUSH1 0x40 MLOAD PUSH2 0x106E SWAP2 SWAP1 PUSH2 0x7C9F JUMP JUMPDEST PUSH1 0x40 MLOAD DUP1 SWAP2 SUB SWAP1 RETURN JUMPDEST PUSH2 0x107F PUSH2 0x52FA JUMP JUMPDEST PUSH1 0x40 MLOAD PUSH2 0x108C SWAP2 SWAP1 PUSH2 0x77E8 JUMP JUMPDEST PUSH1 0x40 MLOAD DUP1 SWAP2 SUB SWAP1 RETURN JUMPDEST PUSH2 0x10AF PUSH1 0x4 DUP1 CALLDATASIZE SUB DUP2 ADD SWAP1 PUSH2 0x10AA SWAP2 SWAP1 PUSH2 0x7C5C JUMP JUMPDEST PUSH2 0x530C JUMP JUMPDEST PUSH1 0x40 MLOAD PUSH2 0x10BC SWAP2 SWAP1 PUSH2 0x7C9F JUMP JUMPDEST PUSH1 0x40 MLOAD DUP1 SWAP2 SUB SWAP1 RETURN JUMPDEST PUSH2 0x10CD PUSH2 0x5321 JUMP JUMPDEST PUSH1 0x40 MLOAD PUSH2 0x10DA SWAP2 SWAP1 PUSH2 0x7D68 JUMP JUMPDEST PUSH1 0x40 MLOAD DUP1 SWAP2 SUB SWAP1 RETURN JUMPDEST PUSH1 0x1 DUP2 JUMP JUMPDEST PUSH0 DUP1 SLOAD SWAP1 PUSH2 0x100 EXP SWAP1 DIV PUSH20 0xFFFFFFFFFFFFFFFFFFFFFFFFFFFFFFFFFFFFFFFF AND PUSH20 0xFFFFFFFFFFFFFFFFFFFFFFFFFFFFFFFFFFFFFFFF AND CALLER PUSH20 0xFFFFFFFFFFFFFFFFFFFFFFFFFFFFFFFFFFFFFFFF AND EQ PUSH2 0x1175 JUMPI PUSH1 0x40 MLOAD PUSH32 0x8C379A000000000000000000000000000000000000000000000000000000000 DUP2 MSTORE PUSH1 0x4 ADD PUSH2 0x116C SWAP1 PUSH2 0x8952 JUMP JUMPDEST PUSH1 0x40 MLOAD DUP1 SWAP2 SUB SWAP1 REVERT JUMPDEST PUSH1 0x1B PUSH0 SWAP1 SLOAD SWAP1 PUSH2 0x100 EXP SWAP1 DIV PUSH1 0xFF AND ISZERO PUSH2 0x11C4 JUMPI PUSH1 0x40 MLOAD PUSH32 0x8C379A000000000000000000000000000000000000000000000000000000000 DUP2 MSTORE PUSH1 0x4 ADD PUSH2 0x11BB SWAP1 PUSH2 0x89E0 JUMP JUMPDEST PUSH1 0x40 MLOAD DUP1 SWAP2 SUB SWAP1 REVERT JUMPDEST DUP2 DUP2 SWAP1 POP DUP5 DUP5 SWAP1 POP EQ PUSH2 0x120C JUMPI PUSH1 0x40 MLOAD PUSH32 0x8C379A000000000000000000000000000000000000000000000000000000000 DUP2 MSTORE PUSH1 0x4 ADD PUSH2 0x1203 SWAP1 PUSH2 0x8A48 JUMP JUMPDEST PUSH1 0x40 MLOAD DUP1 SWAP2 SUB SWAP1 REVERT JUMPDEST PUSH0 DUP1 PUSH0 DUP1 PUSH0 JUMPDEST DUP9 DUP9 SWAP1 POP DUP2 LT ISZERO PUSH2 0x1453 JUMPI DUP9 DUP9 DUP3 DUP2 DUP2 LT PUSH2 0x1230 JUMPI PUSH2 0x122F PUSH2 0x8A66 JUMP JUMPDEST JUMPDEST SWAP1 POP PUSH1 0x20 MUL ADD PUSH1 0x20 DUP2 ADD SWAP1 PUSH2 0x1245 SWAP2 SWAP1 PUSH2 0x7C5C JUMP JUMPDEST SWAP5 POP PUSH1 0x14 PUSH0 DUP7 PUSH20 0xFFFFFFFFFFFFFFFFFFFFFFFFFFFFFFFFFFFFFFFF AND PUSH20 0xFFFFFFFFFFFFFFFFFFFFFFFFFFFFFFFFFFFFFFFF AND DUP2 MSTORE PUSH1 0x20 ADD SWAP1 DUP2 MSTORE PUSH1 0x20 ADD PUSH0 KECCAK256 SLOAD SWAP4 POP DUP7 DUP7 DUP3 DUP2 DUP2 LT PUSH2 0x129A JUMPI PUSH2 0x1299 PUSH2 0x8A66 JUMP JUMPDEST JUMPDEST SWAP1 POP PUSH1 0x20 MUL ADD CALLDATALOAD SWAP3 POP DUP4 DUP4 GT ISZERO PUSH2 0x13A1 JUMPI PUSH0 DUP5 DUP5 PUSH2 0x12B8 SWAP2 SWAP1 PUSH2 0x8AC0 JUMP JUMPDEST SWAP1 POP PUSH0 PUSH1 0x1C PUSH0 DUP9 PUSH20 0xFFFFFFFFFFFFFFFFFFFFFFFFFFFFFFFFFFFFFFFF AND PUSH20 0xFFFFFFFFFFFFFFFFFFFFFFFFFFFFFFFFFFFFFFFF AND DUP2 MSTORE PUSH1 0x20 ADD SWAP1 DUP2 MSTORE PUSH1 0x20 ADD PUSH0 KECCAK256 SLOAD SWAP1 POP PUSH0 PUSH2 0x1306 DUP3 DUP5 PUSH2 0x5344 JUMP JUMPDEST SWAP1 POP DUP1 PUSH1 0x1C PUSH0 DUP11 PUSH20 0xFFFFFFFFFFFFFFFFFFFFFFFFFFFFFFFFFFFFFFFF AND PUSH20 0xFFFFFFFFFFFFFFFFFFFFFFFFFFFFFFFFFFFFFFFF AND DUP2 MSTORE PUSH1 0x20 ADD SWAP1 DUP2 MSTORE PUSH1 0x20 ADD PUSH0 KECCAK256 DUP2 SWAP1 SSTORE POP DUP8 PUSH20 0xFFFFFFFFFFFFFFFFFFFFFFFFFFFFFFFFFFFFFFFF AND PUSH32 0x17FEA09D9A7CA41B2F9F9118F18F44848A62E9C70D55DD4385131EB2CF1B7E47 DUP4 DUP4 PUSH1 0x40 MLOAD PUSH2 0x1392 SWAP3 SWAP2 SWAP1 PUSH2 0x886D JUMP JUMPDEST PUSH1 0x40 MLOAD DUP1 SWAP2 SUB SWAP1 LOG2 DUP7 SWAP6 POP POP POP POP JUMPDEST PUSH0 DUP4 GT ISZERO PUSH2 0x1448 JUMPI PUSH2 0x13B3 DUP5 DUP5 PUSH2 0x5359 JUMP JUMPDEST SWAP2 POP DUP2 PUSH1 0x14 PUSH0 DUP8 PUSH20 0xFFFFFFFFFFFFFFFFFFFFFFFFFFFFFFFFFFFFFFFF AND PUSH20 0xFFFFFFFFFFFFFFFFFFFFFFFFFFFFFFFFFFFFFFFF AND DUP2 MSTORE PUSH1 0x20 ADD SWAP1 DUP2 MSTORE PUSH1 0x20 ADD PUSH0 KECCAK256 DUP2 SWAP1 SSTORE POP DUP5 PUSH20 0xFFFFFFFFFFFFFFFFFFFFFFFFFFFFFFFFFFFFFFFF AND PUSH32 0x4A5C134E28B537A76546993EA37F3B60D9190476DF7356D3842AA40902E20F04 DUP6 DUP5 PUSH1 0x40 MLOAD PUSH2 0x143F SWAP3 SWAP2 SWAP1 PUSH2 0x886D JUMP JUMPDEST PUSH1 0x40 MLOAD DUP1 SWAP2 SUB SWAP1 LOG2 JUMPDEST DUP1 PUSH1 0x1 ADD SWAP1 POP PUSH2 0x1212 JUMP JUMPDEST POP PUSH1 0x1 PUSH1 0x1B PUSH0 PUSH2 0x100 EXP DUP2 SLOAD DUP2 PUSH1 0xFF MUL NOT AND SWAP1 DUP4 ISZERO ISZERO MUL OR SWAP1 SSTORE POP POP POP POP POP POP POP POP POP JUMP JUMPDEST PUSH0 PUSH1 0x9 PUSH0 DUP5 PUSH20 0xFFFFFFFFFFFFFFFFFFFFFFFFFFFFFFFFFFFFFFFF AND PUSH20 0xFFFFFFFFFFFFFFFFFFFFFFFFFFFFFFFFFFFFFFFF AND DUP2 MSTORE PUSH1 0x20 ADD SWAP1 DUP2 MSTORE PUSH1 0x20 ADD PUSH0 KECCAK256 PUSH0 ADD PUSH0 SWAP1 SLOAD SWAP1 PUSH2 0x100 EXP SWAP1 DIV PUSH1 0xFF AND PUSH2 0x1504 JUMPI PUSH1 0x40 MLOAD PUSH32 0x8C379A000000000000000000000000000000000000000000000000000000000 DUP2 MSTORE PUSH1 0x4 ADD PUSH2 0x14FB SWAP1 PUSH2 0x8B63 JUMP JUMPDEST PUSH1 0x40 MLOAD DUP1 SWAP2 SUB SWAP1 REVERT JUMPDEST PUSH1 0xA PUSH0 SWAP1 SLOAD SWAP1 PUSH2 0x100 EXP SWAP1 DIV PUSH20 0xFFFFFFFFFFFFFFFFFFFFFFFFFFFFFFFFFFFFFFFF AND PUSH20 0xFFFFFFFFFFFFFFFFFFFFFFFFFFFFFFFFFFFFFFFF AND CALLER PUSH20 0xFFFFFFFFFFFFFFFFFFFFFFFFFFFFFFFFFFFFFFFF AND EQ DUP1 PUSH2 0x15A9 JUMPI POP PUSH0 DUP1 SLOAD SWAP1 PUSH2 0x100 EXP SWAP1 DIV PUSH20 0xFFFFFFFFFFFFFFFFFFFFFFFFFFFFFFFFFFFFFFFF AND PUSH20 0xFFFFFFFFFFFFFFFFFFFFFFFFFFFFFFFFFFFFFFFF AND CALLER PUSH20 0xFFFFFFFFFFFFFFFFFFFFFFFFFFFFFFFFFFFFFFFF AND EQ JUMPDEST PUSH2 0x15E8 JUMPI PUSH1 0x40 MLOAD PUSH32 0x8C379A000000000000000000000000000000000000000000000000000000000 DUP2 MSTORE PUSH1 0x4 ADD PUSH2 0x15DF SWAP1 PUSH2 0x8BF1 JUMP JUMPDEST PUSH1 0x40 MLOAD DUP1 SWAP2 SUB SWAP1 REVERT JUMPDEST PUSH0 DUP1 SLOAD SWAP1 PUSH2 0x100 EXP SWAP1 DIV PUSH20 0xFFFFFFFFFFFFFFFFFFFFFFFFFFFFFFFFFFFFFFFF AND PUSH20 0xFFFFFFFFFFFFFFFFFFFFFFFFFFFFFFFFFFFFFFFF AND CALLER PUSH20 0xFFFFFFFFFFFFFFFFFFFFFFFFFFFFFFFFFFFFFFFF AND EQ DUP1 PUSH2 0x1645 JUMPI POP PUSH1 0x1 ISZERO ISZERO DUP3 ISZERO ISZERO EQ JUMPDEST PUSH2 0x1684 JUMPI PUSH1 0x40 MLOAD PUSH32 0x8C379A000000000000000000000000000000000000000000000000000000000 DUP2 MSTORE PUSH1 0x4 ADD PUSH2 0x167B SWAP1 PUSH2 0x8C59 JUMP JUMPDEST PUSH1 0x40 MLOAD DUP1 SWAP2 SUB SWAP1 REVERT JUMPDEST DUP2 PUSH1 0xC PUSH0 DUP6 PUSH20 0xFFFFFFFFFFFFFFFFFFFFFFFFFFFFFFFFFFFFFFFF AND PUSH20 0xFFFFFFFFFFFFFFFFFFFFFFFFFFFFFFFFFFFFFFFF AND DUP2 MSTORE PUSH1 0x20 ADD SWAP1 DUP2 MSTORE PUSH1 0x20 ADD PUSH0 KECCAK256 PUSH0 PUSH2 0x100 EXP DUP2 SLOAD DUP2 PUSH1 0xFF MUL NOT AND SWAP1 DUP4 ISZERO ISZERO MUL OR SWAP1 SSTORE POP PUSH32 0x71AEC636243F9709BB0007AE15E9AFB8150AB01716D75FD7573BE5CC096E03B0 DUP4 DUP4 PUSH1 0x40 MLOAD PUSH2 0x1709 SWAP3 SWAP2 SWAP1 PUSH2 0x8CC1 JUMP JUMPDEST PUSH1 0x40 MLOAD DUP1 SWAP2 SUB SWAP1 LOG1 DUP2 SWAP1 POP SWAP3 SWAP2 POP POP JUMP JUMPDEST PUSH0 PUSH1 0x1 PUSH8 0xFFFFFFFFFFFFFFFF DUP2 GT ISZERO PUSH2 0x1736 JUMPI PUSH2 0x1735 PUSH2 0x7A53 JUMP JUMPDEST JUMPDEST PUSH1 0x40 MLOAD SWAP1 DUP1 DUP3 MSTORE DUP1 PUSH1 0x20 MUL PUSH1 0x20 ADD DUP3 ADD PUSH1 0x40 MSTORE DUP1 ISZERO PUSH2 0x1764 JUMPI DUP2 PUSH1 0x20 ADD PUSH1 0x20 DUP3 MUL DUP1 CALLDATASIZE DUP4 CALLDATACOPY DUP1 DUP3 ADD SWAP2 POP POP SWAP1 POP JUMPDEST POP SWAP1 POP DUP3 DUP2 PUSH0 DUP2 MLOAD DUP2 LT PUSH2 0x177B JUMPI PUSH2 0x177A PUSH2 0x8A66 JUMP JUMPDEST JUMPDEST PUSH1 0x20 MUL PUSH1 0x20 ADD ADD SWAP1 PUSH20 0xFFFFFFFFFFFFFFFFFFFFFFFFFFFFFFFFFFFFFFFF AND SWAP1 DUP2 PUSH20 0xFFFFFFFFFFFFFFFFFFFFFFFFFFFFFFFFFFFFFFFF AND DUP2 MSTORE POP POP PUSH2 0x17C2 DUP2 DUP4 PUSH1 0x1 DUP1 PUSH2 0x2EBD JUMP JUMPDEST POP POP POP JUMP JUMPDEST DUP1 PUSH20 0xFFFFFFFFFFFFFFFFFFFFFFFFFFFFFFFFFFFFFFFF AND PUSH4 0xF851A440 PUSH1 0x40 MLOAD DUP2 PUSH4 0xFFFFFFFF AND PUSH1 0xE0 SHL DUP2 MSTORE PUSH1 0x4 ADD PUSH1 0x20 PUSH1 0x40 MLOAD DUP1 DUP4 SUB DUP2 DUP7 GAS STATICCALL ISZERO DUP1 ISZERO PUSH2 0x1810 JUMPI RETURNDATASIZE PUSH0 DUP1 RETURNDATACOPY RETURNDATASIZE PUSH0 REVERT JUMPDEST POP POP POP POP PUSH1 0x40 MLOAD RETURNDATASIZE PUSH1 0x1F NOT PUSH1 0x1F DUP3 ADD AND DUP3 ADD DUP1 PUSH1 0x40 MSTORE POP DUP2 ADD SWAP1 PUSH2 0x1834 SWAP2 SWAP1 PUSH2 0x8D0F JUMP JUMPDEST PUSH20 0xFFFFFFFFFFFFFFFFFFFFFFFFFFFFFFFFFFFFFFFF AND CALLER PUSH20 0xFFFFFFFFFFFFFFFFFFFFFFFFFFFFFFFFFFFFFFFF AND EQ PUSH2 0x18A1 JUMPI PUSH1 0x40 MLOAD PUSH32 0x8C379A000000000000000000000000000000000000000000000000000000000 DUP2 MSTORE PUSH1 0x4 ADD PUSH2 0x1898 SWAP1 PUSH2 0x8DAA JUMP JUMPDEST PUSH1 0x40 MLOAD DUP1 SWAP2 SUB SWAP1 REVERT JUMPDEST PUSH0 DUP2 PUSH20 0xFFFFFFFFFFFFFFFFFFFFFFFFFFFFFFFFFFFFFFFF AND PUSH4 0xC1E80334 PUSH1 0x40 MLOAD DUP2 PUSH4 0xFFFFFFFF AND PUSH1 0xE0 SHL DUP2 MSTORE PUSH1 0x4 ADD PUSH1 0x20 PUSH1 0x40 MLOAD DUP1 DUP4 SUB DUP2 PUSH0 DUP8 GAS CALL ISZERO DUP1 ISZERO PUSH2 0x18EC JUMPI RETURNDATASIZE PUSH0 DUP1 RETURNDATACOPY RETURNDATASIZE PUSH0 REVERT JUMPDEST POP POP POP POP PUSH1 0x40 MLOAD RETURNDATASIZE PUSH1 0x1F NOT PUSH1 0x1F DUP3 ADD AND DUP3 ADD DUP1 PUSH1 0x40 MSTORE POP DUP2 ADD SWAP1 PUSH2 0x1910 SWAP2 SWAP1 PUSH2 0x8DDC JUMP JUMPDEST EQ PUSH2 0x1950 JUMPI PUSH1 0x40 MLOAD PUSH32 0x8C379A000000000000000000000000000000000000000000000000000000000 DUP2 MSTORE PUSH1 0x4 ADD PUSH2 0x1947 SWAP1 PUSH2 0x8E51 JUMP JUMPDEST PUSH1 0x40 MLOAD DUP1 SWAP2 SUB SWAP1 REVERT JUMPDEST POP JUMP JUMPDEST PUSH1 0xF PUSH1 0x20 MSTORE DUP1 PUSH0 MSTORE PUSH1 0x40 PUSH0 KECCAK256 PUSH0 SWAP2 POP SWAP1 POP SLOAD DUP2 JUMP JUMPDEST PUSH0 ISZERO PUSH2 0x1978 JUMPI PUSH1 0x7 SLOAD PUSH1 0x7 DUP2 SWAP1 SSTORE POP JUMPDEST POP POP POP POP POP JUMP JUMPDEST PUSH1 0x15 PUSH0 SWAP1 SLOAD SWAP1 PUSH2 0x100 EXP SWAP1 DIV PUSH20 0xFFFFFFFFFFFFFFFFFFFFFFFFFFFFFFFFFFFFFFFF AND DUP2 JUMP JUMPDEST PUSH0 PUSH1 0x9 PUSH0 DUP7 PUSH20 0xFFFFFFFFFFFFFFFFFFFFFFFFFFFFFFFFFFFFFFFF AND PUSH20 0xFFFFFFFFFFFFFFFFFFFFFFFFFFFFFFFFFFFFFFFF AND DUP2 MSTORE PUSH1 0x20 ADD SWAP1 DUP2 MSTORE PUSH1 0x20 ADD PUSH0 KECCAK256 PUSH0 ADD PUSH0 SWAP1 SLOAD SWAP1 PUSH2 0x100 EXP SWAP1 DIV PUSH1 0xFF AND PUSH2 0x1A10 JUMPI PUSH1 0x9 PUSH1 0x11 DUP2 GT ISZERO PUSH2 0x1A09 JUMPI PUSH2 0x1A08 PUSH2 0x8E6F JUMP JUMPDEST JUMPDEST SWAP1 POP PUSH2 0x1ABA JUMP JUMPDEST PUSH0 PUSH1 0x40 MLOAD DUP1 PUSH1 0x20 ADD PUSH1 0x40 MSTORE DUP1 DUP8 PUSH20 0xFFFFFFFFFFFFFFFFFFFFFFFFFFFFFFFFFFFFFFFF AND PUSH4 0xAA5AF0FD PUSH1 0x40 MLOAD DUP2 PUSH4 0xFFFFFFFF AND PUSH1 0xE0 SHL DUP2 MSTORE PUSH1 0x4 ADD PUSH1 0x20 PUSH1 0x40 MLOAD DUP1 DUP4 SUB DUP2 DUP7 GAS STATICCALL ISZERO DUP1 ISZERO PUSH2 0x1A65 JUMPI RETURNDATASIZE PUSH0 DUP1 RETURNDATACOPY RETURNDATASIZE PUSH0 REVERT JUMPDEST POP POP POP POP PUSH1 0x40 MLOAD RETURNDATASIZE PUSH1 0x1F NOT PUSH1 0x1F DUP3 ADD AND DUP3 ADD DUP1 PUSH1 0x40 MSTORE POP DUP2 ADD SWAP1 PUSH2 0x1A89 SWAP2 SWAP1 PUSH2 0x8DDC JUMP JUMPDEST DUP2 MSTORE POP SWAP1 POP PUSH2 0x1A98 DUP7 DUP3 PUSH2 0x536E JUMP JUMPDEST PUSH2 0x1AA3 DUP7 DUP6 DUP4 PUSH2 0x5675 JUMP JUMPDEST PUSH0 PUSH1 0x11 DUP2 GT ISZERO PUSH2 0x1AB6 JUMPI PUSH2 0x1AB5 PUSH2 0x8E6F JUMP JUMPDEST JUMPDEST SWAP2 POP POP JUMPDEST SWAP5 SWAP4 POP POP POP POP JUMP JUMPDEST PUSH1 0xA PUSH0 SWAP1 SLOAD SWAP1 PUSH2 0x100 EXP SWAP1 DIV PUSH20 0xFFFFFFFFFFFFFFFFFFFFFFFFFFFFFFFFFFFFFFFF AND DUP2 JUMP JUMPDEST PUSH1 0x1 PUSH0 SWAP1 SLOAD SWAP1 PUSH2 0x100 EXP SWAP1 DIV PUSH20 0xFFFFFFFFFFFFFFFFFFFFFFFFFFFFFFFFFFFFFFFF AND DUP2 JUMP JUMPDEST PUSH2 0x1B14 PUSH2 0x5A17 JUMP JUMPDEST PUSH2 0x1B53 JUMPI PUSH1 0x40 MLOAD PUSH32 0x8C379A000000000000000000000000000000000000000000000000000000000 DUP2 MSTORE PUSH1 0x4 ADD PUSH2 0x1B4A SWAP1 PUSH2 0x8EE6 JUMP JUMPDEST PUSH1 0x40 MLOAD DUP1 SWAP2 SUB SWAP1 REVERT JUMPDEST PUSH0 PUSH2 0x1B5E DUP4 DUP4 PUSH2 0x5AC3 JUMP JUMPDEST SWAP1 POP PUSH0 DUP2 EQ PUSH2 0x1BA2 JUMPI PUSH1 0x40 MLOAD PUSH32 0x8C379A000000000000000000000000000000000000000000000000000000000 DUP2 MSTORE PUSH1 0x4 ADD PUSH2 0x1B99 SWAP1 PUSH2 0x8F4E JUMP JUMPDEST PUSH1 0x40 MLOAD DUP1 SWAP2 SUB SWAP1 REVERT JUMPDEST PUSH32 0x98B2F82A3A07F223A0BE64B3D0F47711C64DCCD1FEAFB94AA28156B38CD9695C DUP4 DUP4 PUSH1 0x40 MLOAD PUSH2 0x1BD3 SWAP3 SWAP2 SWAP1 PUSH2 0x8F6C JUMP JUMPDEST PUSH1 0x40 MLOAD DUP1 SWAP2 SUB SWAP1 LOG1 POP POP POP JUMP JUMPDEST PUSH0 PUSH1 0xA PUSH0 SWAP1 SLOAD SWAP1 PUSH2 0x100 EXP SWAP1 DIV PUSH20 0xFFFFFFFFFFFFFFFFFFFFFFFFFFFFFFFFFFFFFFFF AND PUSH20 0xFFFFFFFFFFFFFFFFFFFFFFFFFFFFFFFFFFFFFFFF AND CALLER PUSH20 0xFFFFFFFFFFFFFFFFFFFFFFFFFFFFFFFFFFFFFFFF AND EQ DUP1 PUSH2 0x1C86 JUMPI POP PUSH0 DUP1 SLOAD SWAP1 PUSH2 0x100 EXP SWAP1 DIV PUSH20 0xFFFFFFFFFFFFFFFFFFFFFFFFFFFFFFFFFFFFFFFF AND PUSH20 0xFFFFFFFFFFFFFFFFFFFFFFFFFFFFFFFFFFFFFFFF AND CALLER PUSH20 0xFFFFFFFFFFFFFFFFFFFFFFFFFFFFFFFFFFFFFFFF AND EQ JUMPDEST PUSH2 0x1CC5 JUMPI PUSH1 0x40 MLOAD PUSH32 0x8C379A000000000000000000000000000000000000000000000000000000000 DUP2 MSTORE PUSH1 0x4 ADD PUSH2 0x1CBC SWAP1 PUSH2 0x8BF1 JUMP JUMPDEST PUSH1 0x40 MLOAD DUP1 SWAP2 SUB SWAP1 REVERT JUMPDEST PUSH0 DUP1 SLOAD SWAP1 PUSH2 0x100 EXP SWAP1 DIV PUSH20 0xFFFFFFFFFFFFFFFFFFFFFFFFFFFFFFFFFFFFFFFF AND PUSH20 0xFFFFFFFFFFFFFFFFFFFFFFFFFFFFFFFFFFFFFFFF AND CALLER PUSH20 0xFFFFFFFFFFFFFFFFFFFFFFFFFFFFFFFFFFFFFFFF AND EQ DUP1 PUSH2 0x1D22 JUMPI POP PUSH1 0x1 ISZERO ISZERO DUP3 ISZERO ISZERO EQ JUMPDEST PUSH2 0x1D61 JUMPI PUSH1 0x40 MLOAD PUSH32 0x8C379A000000000000000000000000000000000000000000000000000000000 DUP2 MSTORE PUSH1 0x4 ADD PUSH2 0x1D58 SWAP1 PUSH2 0x8C59 JUMP JUMPDEST PUSH1 0x40 MLOAD DUP1 SWAP2 SUB SWAP1 REVERT JUMPDEST DUP2 PUSH1 0xA PUSH1 0x17 PUSH2 0x100 EXP DUP2 SLOAD DUP2 PUSH1 0xFF MUL NOT AND SWAP1 DUP4 ISZERO ISZERO MUL OR SWAP1 SSTORE POP PUSH32 0xEF159D9A32B2472E32B098F954F3CE62D232939F1C207070B584DF1814DE2DE0 DUP3 PUSH1 0x40 MLOAD PUSH2 0x1DAA SWAP2 SWAP1 PUSH2 0x8FDD JUMP JUMPDEST PUSH1 0x40 MLOAD DUP1 SWAP2 SUB SWAP1 LOG1 DUP2 SWAP1 POP SWAP2 SWAP1 POP JUMP JUMPDEST PUSH0 DUP1 PUSH0 SWAP1 SLOAD SWAP1 PUSH2 0x100 EXP SWAP1 DIV PUSH20 0xFFFFFFFFFFFFFFFFFFFFFFFFFFFFFFFFFFFFFFFF AND PUSH20 0xFFFFFFFFFFFFFFFFFFFFFFFFFFFFFFFFFFFFFFFF AND CALLER PUSH20 0xFFFFFFFFFFFFFFFFFFFFFFFFFFFFFFFFFFFFFFFF AND EQ PUSH2 0x1E49 JUMPI PUSH1 0x40 MLOAD PUSH32 0x8C379A000000000000000000000000000000000000000000000000000000000 DUP2 MSTORE PUSH1 0x4 ADD PUSH2 0x1E40 SWAP1 PUSH2 0x9053 JUMP JUMPDEST PUSH1 0x40 MLOAD DUP1 SWAP2 SUB SWAP1 REVERT JUMPDEST PUSH0 PUSH1 0x5 SLOAD SWAP1 POP DUP3 PUSH1 0x5 DUP2 SWAP1 SSTORE POP PUSH32 0x3B9670CF975D26958E754B57098EAA2AC914D8D2A31B83257997B9F346110FD9 DUP2 PUSH1 0x5 SLOAD PUSH1 0x40 MLOAD PUSH2 0x1E89 SWAP3 SWAP2 SWAP1 PUSH2 0x886D JUMP JUMPDEST PUSH1 0x40 MLOAD DUP1 SWAP2 SUB SWAP1 LOG1 PUSH0 PUSH1 0x11 DUP2 GT ISZERO PUSH2 0x1EA4 JUMPI PUSH2 0x1EA3 PUSH2 0x8E6F JUMP JUMPDEST JUMPDEST SWAP2 POP POP SWAP2 SWAP1 POP JUMP JUMPDEST PUSH0 DUP1 SLOAD SWAP1 PUSH2 0x100 EXP SWAP1 DIV PUSH20 0xFFFFFFFFFFFFFFFFFFFFFFFFFFFFFFFFFFFFFFFF AND PUSH20 0xFFFFFFFFFFFFFFFFFFFFFFFFFFFFFFFFFFFFFFFF AND CALLER PUSH20 0xFFFFFFFFFFFFFFFFFFFFFFFFFFFFFFFFFFFFFFFF AND EQ PUSH2 0x1F39 JUMPI PUSH1 0x40 MLOAD PUSH32 0x8C379A000000000000000000000000000000000000000000000000000000000 DUP2 MSTORE PUSH1 0x4 ADD PUSH2 0x1F30 SWAP1 PUSH2 0x90E1 JUMP JUMPDEST PUSH1 0x40 MLOAD DUP1 SWAP2 SUB SWAP1 REVERT JUMPDEST PUSH0 PUSH1 0x15 PUSH0 SWAP1 SLOAD SWAP1 PUSH2 0x100 EXP SWAP1 DIV PUSH20 0xFFFFFFFFFFFFFFFFFFFFFFFFFFFFFFFFFFFFFFFF AND SWAP1 POP DUP2 PUSH1 0x15 PUSH0 PUSH2 0x100 EXP DUP2 SLOAD DUP2 PUSH20 0xFFFFFFFFFFFFFFFFFFFFFFFFFFFFFFFFFFFFFFFF MUL NOT AND SWAP1 DUP4 PUSH20 0xFFFFFFFFFFFFFFFFFFFFFFFFFFFFFFFFFFFFFFFF AND MUL OR SWAP1 SSTORE POP PUSH32 0xEDA98690E518E9A05F8EC6837663E188211B2DA8F4906648B323F2C1D4434E29 DUP2 DUP4 PUSH1 0x40 MLOAD PUSH2 0x1FCF SWAP3 SWAP2 SWAP1 PUSH2 0x90FF JUMP JUMPDEST PUSH1 0x40 MLOAD DUP1 SWAP2 SUB SWAP1 LOG1 POP POP JUMP JUMPDEST PUSH0 PUSH1 0x9 PUSH0 DUP5 PUSH20 0xFFFFFFFFFFFFFFFFFFFFFFFFFFFFFFFFFFFFFFFF AND PUSH20 0xFFFFFFFFFFFFFFFFFFFFFFFFFFFFFFFFFFFFFFFF AND DUP2 MSTORE PUSH1 0x20 ADD SWAP1 DUP2 MSTORE PUSH1 0x20 ADD PUSH0 KECCAK256 PUSH0 ADD PUSH0 SWAP1 SLOAD SWAP1 PUSH2 0x100 EXP SWAP1 DIV PUSH1 0xFF AND PUSH2 0x2067 JUMPI PUSH1 0x40 MLOAD PUSH32 0x8C379A000000000000000000000000000000000000000000000000000000000 DUP2 MSTORE PUSH1 0x4 ADD PUSH2 0x205E SWAP1 PUSH2 0x8B63 JUMP JUMPDEST PUSH1 0x40 MLOAD DUP1 SWAP2 SUB SWAP1 REVERT JUMPDEST PUSH1 0xA PUSH0 SWAP1 SLOAD SWAP1 PUSH2 0x100 EXP SWAP1 DIV PUSH20 0xFFFFFFFFFFFFFFFFFFFFFFFFFFFFFFFFFFFFFFFF AND PUSH20 0xFFFFFFFFFFFFFFFFFFFFFFFFFFFFFFFFFFFFFFFF AND CALLER PUSH20 0xFFFFFFFFFFFFFFFFFFFFFFFFFFFFFFFFFFFFFFFF AND EQ DUP1 PUSH2 0x210C JUMPI POP PUSH0 DUP1 SLOAD SWAP1 PUSH2 0x100 EXP SWAP1 DIV PUSH20 0xFFFFFFFFFFFFFFFFFFFFFFFFFFFFFFFFFFFFFFFF AND PUSH20 0xFFFFFFFFFFFFFFFFFFFFFFFFFFFFFFFFFFFFFFFF AND CALLER PUSH20 0xFFFFFFFFFFFFFFFFFFFFFFFFFFFFFFFFFFFFFFFF AND EQ JUMPDEST PUSH2 0x214B JUMPI PUSH1 0x40 MLOAD PUSH32 0x8C379A000000000000000000000000000000000000000000000000000000000 DUP2 MSTORE PUSH1 0x4 ADD PUSH2 0x2142 SWAP1 PUSH2 0x8BF1 JUMP JUMPDEST PUSH1 0x40 MLOAD DUP1 SWAP2 SUB SWAP1 REVERT JUMPDEST PUSH0 DUP1 SLOAD SWAP1 PUSH2 0x100 EXP SWAP1 DIV PUSH20 0xFFFFFFFFFFFFFFFFFFFFFFFFFFFFFFFFFFFFFFFF AND PUSH20 0xFFFFFFFFFFFFFFFFFFFFFFFFFFFFFFFFFFFFFFFF AND CALLER PUSH20 0xFFFFFFFFFFFFFFFFFFFFFFFFFFFFFFFFFFFFFFFF AND EQ DUP1 PUSH2 0x21A8 JUMPI POP PUSH1 0x1 ISZERO ISZERO DUP3 ISZERO ISZERO EQ JUMPDEST PUSH2 0x21E7 JUMPI PUSH1 0x40 MLOAD PUSH32 0x8C379A000000000000000000000000000000000000000000000000000000000 DUP2 MSTORE PUSH1 0x4 ADD PUSH2 0x21DE SWAP1 PUSH2 0x8C59 JUMP JUMPDEST PUSH1 0x40 MLOAD DUP1 SWAP2 SUB SWAP1 REVERT JUMPDEST DUP2 PUSH1 0xB PUSH0 DUP6 PUSH20 0xFFFFFFFFFFFFFFFFFFFFFFFFFFFFFFFFFFFFFFFF AND PUSH20 0xFFFFFFFFFFFFFFFFFFFFFFFFFFFFFFFFFFFFFFFF AND DUP2 MSTORE PUSH1 0x20 ADD SWAP1 DUP2 MSTORE PUSH1 0x20 ADD PUSH0 KECCAK256 PUSH0 PUSH2 0x100 EXP DUP2 SLOAD DUP2 PUSH1 0xFF MUL NOT AND SWAP1 DUP4 ISZERO ISZERO MUL OR SWAP1 SSTORE POP PUSH32 0x71AEC636243F9709BB0007AE15E9AFB8150AB01716D75FD7573BE5CC096E03B0 DUP4 DUP4 PUSH1 0x40 MLOAD PUSH2 0x226C SWAP3 SWAP2 SWAP1 PUSH2 0x9170 JUMP JUMPDEST PUSH1 0x40 MLOAD DUP1 SWAP2 SUB SWAP1 LOG1 DUP2 SWAP1 POP SWAP3 SWAP2 POP POP JUMP JUMPDEST PUSH1 0xA PUSH1 0x14 SWAP1 SLOAD SWAP1 PUSH2 0x100 EXP SWAP1 DIV PUSH1 0xFF AND DUP2 JUMP JUMPDEST PUSH0 ISZERO PUSH2 0x22A0 JUMPI PUSH1 0x7 SLOAD PUSH1 0x7 DUP2 SWAP1 SSTORE POP JUMPDEST POP POP POP POP JUMP JUMPDEST PUSH0 NUMBER SWAP1 POP SWAP1 JUMP JUMPDEST PUSH0 ISZERO PUSH2 0x22BD JUMPI PUSH1 0x7 SLOAD PUSH1 0x7 DUP2 SWAP1 SSTORE POP JUMPDEST POP POP POP POP POP POP JUMP JUMPDEST PUSH1 0x16 PUSH1 0x20 MSTORE DUP1 PUSH0 MSTORE PUSH1 0x40 PUSH0 KECCAK256 PUSH0 SWAP2 POP SWAP1 POP SLOAD DUP2 JUMP JUMPDEST PUSH1 0x6 SLOAD DUP2 JUMP JUMPDEST PUSH0 DUP1 PUSH0 DUP1 PUSH0 DUP1 PUSH2 0x22F2 DUP11 DUP11 DUP11 DUP11 PUSH2 0x5BF0 JUMP JUMPDEST SWAP3 POP SWAP3 POP SWAP3 POP DUP3 PUSH1 0x11 DUP2 GT ISZERO PUSH2 0x230B JUMPI PUSH2 0x230A PUSH2 0x8E6F JUMP JUMPDEST JUMPDEST DUP3 DUP3 SWAP6 POP SWAP6 POP SWAP6 POP POP POP POP SWAP5 POP SWAP5 POP SWAP5 SWAP2 POP POP JUMP JUMPDEST PUSH0 PUSH1 0xB PUSH0 DUP6 PUSH20 0xFFFFFFFFFFFFFFFFFFFFFFFFFFFFFFFFFFFFFFFF AND PUSH20 0xFFFFFFFFFFFFFFFFFFFFFFFFFFFFFFFFFFFFFFFF AND DUP2 MSTORE PUSH1 0x20 ADD SWAP1 DUP2 MSTORE PUSH1 0x20 ADD PUSH0 KECCAK256 PUSH0 SWAP1 SLOAD SWAP1 PUSH2 0x100 EXP SWAP1 DIV PUSH1 0xFF AND ISZERO PUSH2 0x23AB JUMPI PUSH1 0x40 MLOAD PUSH32 0x8C379A000000000000000000000000000000000000000000000000000000000 DUP2 MSTORE PUSH1 0x4 ADD PUSH2 0x23A2 SWAP1 PUSH2 0x91F4 JUMP JUMPDEST PUSH1 0x40 MLOAD DUP1 SWAP2 SUB SWAP1 REVERT JUMPDEST PUSH1 0x9 PUSH0 DUP6 PUSH20 0xFFFFFFFFFFFFFFFFFFFFFFFFFFFFFFFFFFFFFFFF AND PUSH20 0xFFFFFFFFFFFFFFFFFFFFFFFFFFFFFFFFFFFFFFFF AND DUP2 MSTORE PUSH1 0x20 ADD SWAP1 DUP2 MSTORE PUSH1 0x20 ADD PUSH0 KECCAK256 PUSH0 ADD PUSH0 SWAP1 SLOAD SWAP1 PUSH2 0x100 EXP SWAP1 DIV PUSH1 0xFF AND PUSH2 0x2416 JUMPI PUSH1 0x9 PUSH1 0x11 DUP2 GT ISZERO PUSH2 0x240F JUMPI PUSH2 0x240E PUSH2 0x8E6F JUMP JUMPDEST JUMPDEST SWAP1 POP PUSH2 0x2448 JUMP JUMPDEST PUSH2 0x241F DUP5 PUSH2 0x6029 JUMP JUMPDEST PUSH2 0x2428 DUP5 PUSH2 0x62B6 JUMP JUMPDEST PUSH2 0x2432 DUP5 DUP5 PUSH2 0x65B3 JUMP JUMPDEST PUSH0 PUSH1 0x11 DUP2 GT ISZERO PUSH2 0x2445 JUMPI PUSH2 0x2444 PUSH2 0x8E6F JUMP JUMPDEST JUMPDEST SWAP1 POP JUMPDEST SWAP4 SWAP3 POP POP POP JUMP JUMPDEST PUSH0 DUP1 PUSH0 SWAP1 SLOAD SWAP1 PUSH2 0x100 EXP SWAP1 DIV PUSH20 0xFFFFFFFFFFFFFFFFFFFFFFFFFFFFFFFFFFFFFFFF AND PUSH20 0xFFFFFFFFFFFFFFFFFFFFFFFFFFFFFFFFFFFFFFFF AND CALLER PUSH20 0xFFFFFFFFFFFFFFFFFFFFFFFFFFFFFFFFFFFFFFFF AND EQ PUSH2 0x24B6 JUMPI PUSH2 0x24AF PUSH1 0x1 PUSH1 0xB PUSH2 0x694B JUMP JUMPDEST SWAP1 POP PUSH2 0x2513 JUMP JUMPDEST PUSH0 PUSH1 0x6 SLOAD SWAP1 POP DUP3 PUSH1 0x6 DUP2 SWAP1 SSTORE POP PUSH32 0xAEBA5A6C40A8AC138134BFF1AAA65DEBF25971188A58804BAD717F82F0EC1316 DUP2 DUP5 PUSH1 0x40 MLOAD PUSH2 0x24F4 SWAP3 SWAP2 SWAP1 PUSH2 0x886D JUMP JUMPDEST PUSH1 0x40 MLOAD DUP1 SWAP2 SUB SWAP1 LOG1 PUSH0 PUSH1 0x11 DUP2 GT ISZERO PUSH2 0x250F JUMPI PUSH2 0x250E PUSH2 0x8E6F JUMP JUMPDEST JUMPDEST SWAP2 POP POP JUMPDEST SWAP2 SWAP1 POP JUMP JUMPDEST PUSH0 DUP2 EQ DUP1 ISZERO PUSH2 0x2526 JUMPI POP PUSH0 DUP3 GT JUMPDEST ISZERO PUSH2 0x2566 JUMPI PUSH1 0x40 MLOAD PUSH32 0x8C379A000000000000000000000000000000000000000000000000000000000 DUP2 MSTORE PUSH1 0x4 ADD PUSH2 0x255D SWAP1 PUSH2 0x925C JUMP JUMPDEST PUSH1 0x40 MLOAD DUP1 SWAP2 SUB SWAP1 REVERT JUMPDEST POP POP POP POP JUMP JUMPDEST PUSH1 0xD DUP2 DUP2 SLOAD DUP2 LT PUSH2 0x257B JUMPI PUSH0 DUP1 REVERT JUMPDEST SWAP1 PUSH0 MSTORE PUSH1 0x20 PUSH0 KECCAK256 ADD PUSH0 SWAP2 POP SLOAD SWAP1 PUSH2 0x100 EXP SWAP1 DIV PUSH20 0xFFFFFFFFFFFFFFFFFFFFFFFFFFFFFFFFFFFFFFFF AND DUP2 JUMP JUMPDEST PUSH0 DUP1 PUSH0 SWAP1 SLOAD SWAP1 PUSH2 0x100 EXP SWAP1 DIV PUSH20 0xFFFFFFFFFFFFFFFFFFFFFFFFFFFFFFFFFFFFFFFF AND PUSH20 0xFFFFFFFFFFFFFFFFFFFFFFFFFFFFFFFFFFFFFFFF AND CALLER PUSH20 0xFFFFFFFFFFFFFFFFFFFFFFFFFFFFFFFFFFFFFFFF AND EQ PUSH2 0x260E JUMPI PUSH2 0x2607 PUSH1 0x1 PUSH1 0x10 PUSH2 0x694B JUMP JUMPDEST SWAP1 POP PUSH2 0x26C3 JUMP JUMPDEST PUSH0 PUSH1 0x4 PUSH0 SWAP1 SLOAD SWAP1 PUSH2 0x100 EXP SWAP1 DIV PUSH20 0xFFFFFFFFFFFFFFFFFFFFFFFFFFFFFFFFFFFFFFFF AND SWAP1 POP DUP3 PUSH1 0x4 PUSH0 PUSH2 0x100 EXP DUP2 SLOAD DUP2 PUSH20 0xFFFFFFFFFFFFFFFFFFFFFFFFFFFFFFFFFFFFFFFF MUL NOT AND SWAP1 DUP4 PUSH20 0xFFFFFFFFFFFFFFFFFFFFFFFFFFFFFFFFFFFFFFFF AND MUL OR SWAP1 SSTORE POP PUSH32 0xD52B2B9B7E9EE655FCB95D2E5B9E0C9F69E7EF2B8E9D2D0EA78402D576D22E22 DUP2 DUP5 PUSH1 0x40 MLOAD PUSH2 0x26A4 SWAP3 SWAP2 SWAP1 PUSH2 0x927A JUMP JUMPDEST PUSH1 0x40 MLOAD DUP1 SWAP2 SUB SWAP1 LOG1 PUSH0 PUSH1 0x11 DUP2 GT ISZERO PUSH2 0x26BF JUMPI PUSH2 0x26BE PUSH2 0x8E6F JUMP JUMPDEST JUMPDEST SWAP2 POP POP JUMPDEST SWAP2 SWAP1 POP JUMP JUMPDEST PUSH2 0x26D0 PUSH2 0x5A17 JUMP JUMPDEST PUSH2 0x270F JUMPI PUSH1 0x40 MLOAD PUSH32 0x8C379A000000000000000000000000000000000000000000000000000000000 DUP2 MSTORE PUSH1 0x4 ADD PUSH2 0x2706 SWAP1 PUSH2 0x92EB JUMP JUMPDEST PUSH1 0x40 MLOAD DUP1 SWAP2 SUB SWAP1 REVERT JUMPDEST PUSH2 0x2718 DUP3 PUSH2 0x326E JUMP JUMPDEST PUSH0 DUP2 SUB PUSH2 0x2764 JUMPI PUSH1 0x18 PUSH0 DUP4 PUSH20 0xFFFFFFFFFFFFFFFFFFFFFFFFFFFFFFFFFFFFFFFF AND PUSH20 0xFFFFFFFFFFFFFFFFFFFFFFFFFFFFFFFFFFFFFFFF AND DUP2 MSTORE PUSH1 0x20 ADD SWAP1 DUP2 MSTORE PUSH1 0x20 ADD PUSH0 KECCAK256 PUSH0 SWAP1 SSTORE PUSH2 0x27AE JUMP JUMPDEST PUSH2 0x276C PUSH2 0x22A6 JUMP JUMPDEST PUSH1 0x18 PUSH0 DUP5 PUSH20 0xFFFFFFFFFFFFFFFFFFFFFFFFFFFFFFFFFFFFFFFF AND PUSH20 0xFFFFFFFFFFFFFFFFFFFFFFFFFFFFFFFFFFFFFFFF AND DUP2 MSTORE PUSH1 0x20 ADD SWAP1 DUP2 MSTORE PUSH1 0x20 ADD PUSH0 KECCAK256 DUP2 SWAP1 SSTORE POP JUMPDEST DUP1 PUSH1 0x17 PUSH0 DUP5 PUSH20 0xFFFFFFFFFFFFFFFFFFFFFFFFFFFFFFFFFFFFFFFF AND PUSH20 0xFFFFFFFFFFFFFFFFFFFFFFFFFFFFFFFFFFFFFFFF AND DUP2 MSTORE PUSH1 0x20 ADD SWAP1 DUP2 MSTORE PUSH1 0x20 ADD PUSH0 KECCAK256 DUP2 SWAP1 SSTORE POP DUP2 PUSH20 0xFFFFFFFFFFFFFFFFFFFFFFFFFFFFFFFFFFFFFFFF AND PUSH32 0x386537FA92EDC3319AF95F1F904DCF1900021E4F3F4E08169A577A09076E66B3 DUP3 PUSH1 0x40 MLOAD PUSH2 0x2836 SWAP2 SWAP1 PUSH2 0x7C9F JUMP JUMPDEST PUSH1 0x40 MLOAD DUP1 SWAP2 SUB SWAP1 LOG2 POP POP JUMP JUMPDEST PUSH0 ISZERO PUSH2 0x2852 JUMPI PUSH1 0x7 SLOAD PUSH1 0x7 DUP2 SWAP1 SSTORE POP JUMPDEST POP POP POP JUMP JUMPDEST PUSH0 DUP1 PUSH0 DUP1 PUSH0 DUP1 PUSH2 0x2869 DUP8 PUSH0 DUP1 PUSH0 PUSH2 0x5BF0 JUMP JUMPDEST SWAP3 POP SWAP3 POP SWAP3 POP DUP3 PUSH1 0x11 DUP2 GT ISZERO PUSH2 0x2882 JUMPI PUSH2 0x2881 PUSH2 0x8E6F JUMP JUMPDEST JUMPDEST DUP3 DUP3 SWAP6 POP SWAP6 POP SWAP6 POP POP POP POP SWAP2 SWAP4 SWAP1 SWAP3 POP JUMP JUMPDEST PUSH0 DUP1 PUSH0 SWAP1 SLOAD SWAP1 PUSH2 0x100 EXP SWAP1 DIV PUSH20 0xFFFFFFFFFFFFFFFFFFFFFFFFFFFFFFFFFFFFFFFF AND PUSH20 0xFFFFFFFFFFFFFFFFFFFFFFFFFFFFFFFFFFFFFFFF AND CALLER PUSH20 0xFFFFFFFFFFFFFFFFFFFFFFFFFFFFFFFFFFFFFFFF AND EQ PUSH2 0x28FB JUMPI PUSH2 0x28F4 PUSH1 0x1 PUSH1 0x13 PUSH2 0x694B JUMP JUMPDEST SWAP1 POP PUSH2 0x29D1 JUMP JUMPDEST PUSH0 PUSH1 0xA PUSH0 SWAP1 SLOAD SWAP1 PUSH2 0x100 EXP SWAP1 DIV PUSH20 0xFFFFFFFFFFFFFFFFFFFFFFFFFFFFFFFFFFFFFFFF AND SWAP1 POP DUP3 PUSH1 0xA PUSH0 PUSH2 0x100 EXP DUP2 SLOAD DUP2 PUSH20 0xFFFFFFFFFFFFFFFFFFFFFFFFFFFFFFFFFFFFFFFF MUL NOT AND SWAP1 DUP4 PUSH20 0xFFFFFFFFFFFFFFFFFFFFFFFFFFFFFFFFFFFFFFFF AND MUL OR SWAP1 SSTORE POP PUSH32 0x613B6EE6A04F0D09F390E4D9318894B9F6AC7FD83897CD8D18896BA579C401E DUP2 PUSH1 0xA PUSH0 SWAP1 SLOAD SWAP1 PUSH2 0x100 EXP SWAP1 DIV PUSH20 0xFFFFFFFFFFFFFFFFFFFFFFFFFFFFFFFFFFFFFFFF AND PUSH1 0x40 MLOAD PUSH2 0x29B2 SWAP3 SWAP2 SWAP1 PUSH2 0x90FF JUMP JUMPDEST PUSH1 0x40 MLOAD DUP1 SWAP2 SUB SWAP1 LOG1 PUSH0 PUSH1 0x11 DUP2 GT ISZERO PUSH2 0x29CD JUMPI PUSH2 0x29CC PUSH2 0x8E6F JUMP JUMPDEST JUMPDEST SWAP2 POP POP JUMPDEST SWAP2 SWAP1 POP JUMP JUMPDEST PUSH0 PUSH1 0x9 PUSH0 DUP8 PUSH20 0xFFFFFFFFFFFFFFFFFFFFFFFFFFFFFFFFFFFFFFFF AND PUSH20 0xFFFFFFFFFFFFFFFFFFFFFFFFFFFFFFFFFFFFFFFF AND DUP2 MSTORE PUSH1 0x20 ADD SWAP1 DUP2 MSTORE PUSH1 0x20 ADD PUSH0 KECCAK256 PUSH0 ADD PUSH0 SWAP1 SLOAD SWAP1 PUSH2 0x100 EXP SWAP1 DIV PUSH1 0xFF AND ISZERO DUP1 PUSH2 0x2A78 JUMPI POP PUSH1 0x9 PUSH0 DUP7 PUSH20 0xFFFFFFFFFFFFFFFFFFFFFFFFFFFFFFFFFFFFFFFF AND PUSH20 0xFFFFFFFFFFFFFFFFFFFFFFFFFFFFFFFFFFFFFFFF AND DUP2 MSTORE PUSH1 0x20 ADD SWAP1 DUP2 MSTORE PUSH1 0x20 ADD PUSH0 KECCAK256 PUSH0 ADD PUSH0 SWAP1 SLOAD SWAP1 PUSH2 0x100 EXP SWAP1 DIV PUSH1 0xFF AND ISZERO JUMPDEST ISZERO PUSH2 0x2A98 JUMPI PUSH1 0x9 PUSH1 0x11 DUP2 GT ISZERO PUSH2 0x2A91 JUMPI PUSH2 0x2A90 PUSH2 0x8E6F JUMP JUMPDEST JUMPDEST SWAP1 POP PUSH2 0x2C44 JUMP JUMPDEST PUSH0 DUP7 PUSH20 0xFFFFFFFFFFFFFFFFFFFFFFFFFFFFFFFFFFFFFFFF AND PUSH4 0x95DD9193 DUP6 PUSH1 0x40 MLOAD DUP3 PUSH4 0xFFFFFFFF AND PUSH1 0xE0 SHL DUP2 MSTORE PUSH1 0x4 ADD PUSH2 0x2AD2 SWAP2 SWAP1 PUSH2 0x7D68 JUMP JUMPDEST PUSH1 0x20 PUSH1 0x40 MLOAD DUP1 DUP4 SUB DUP2 DUP7 GAS STATICCALL ISZERO DUP1 ISZERO PUSH2 0x2AED JUMPI RETURNDATASIZE PUSH0 DUP1 RETURNDATACOPY RETURNDATASIZE PUSH0 REVERT JUMPDEST POP POP POP POP PUSH1 0x40 MLOAD RETURNDATASIZE PUSH1 0x1F NOT PUSH1 0x1F DUP3 ADD AND DUP3 ADD DUP1 PUSH1 0x40 MSTORE POP DUP2 ADD SWAP1 PUSH2 0x2B11 SWAP2 SWAP1 PUSH2 0x8DDC JUMP JUMPDEST SWAP1 POP PUSH2 0x2B1C DUP8 PUSH2 0x3747 JUMP JUMPDEST ISZERO PUSH2 0x2B69 JUMPI DUP3 DUP2 LT ISZERO PUSH2 0x2B64 JUMPI PUSH1 0x40 MLOAD PUSH32 0x8C379A000000000000000000000000000000000000000000000000000000000 DUP2 MSTORE PUSH1 0x4 ADD PUSH2 0x2B5B SWAP1 PUSH2 0x9379 JUMP JUMPDEST PUSH1 0x40 MLOAD DUP1 SWAP2 SUB SWAP1 REVERT JUMPDEST PUSH2 0x2C2D JUMP JUMPDEST PUSH0 DUP1 PUSH2 0x2B74 DUP7 PUSH2 0x69C6 JUMP JUMPDEST SWAP3 POP POP SWAP2 POP PUSH0 PUSH1 0x11 DUP2 GT ISZERO PUSH2 0x2B8C JUMPI PUSH2 0x2B8B PUSH2 0x8E6F JUMP JUMPDEST JUMPDEST DUP3 PUSH1 0x11 DUP2 GT ISZERO PUSH2 0x2B9F JUMPI PUSH2 0x2B9E PUSH2 0x8E6F JUMP JUMPDEST JUMPDEST EQ PUSH2 0x2BC1 JUMPI DUP2 PUSH1 0x11 DUP2 GT ISZERO PUSH2 0x2BB7 JUMPI PUSH2 0x2BB6 PUSH2 0x8E6F JUMP JUMPDEST JUMPDEST SWAP4 POP POP POP POP PUSH2 0x2C44 JUMP JUMPDEST PUSH0 DUP2 SUB PUSH2 0x2BE6 JUMPI PUSH1 0x3 PUSH1 0x11 DUP2 GT ISZERO PUSH2 0x2BDC JUMPI PUSH2 0x2BDB PUSH2 0x8E6F JUMP JUMPDEST JUMPDEST SWAP4 POP POP POP POP PUSH2 0x2C44 JUMP JUMPDEST PUSH0 PUSH2 0x2C01 PUSH1 0x40 MLOAD DUP1 PUSH1 0x20 ADD PUSH1 0x40 MSTORE DUP1 PUSH1 0x5 SLOAD DUP2 MSTORE POP DUP6 PUSH2 0x69E2 JUMP JUMPDEST SWAP1 POP DUP1 DUP7 GT ISZERO PUSH2 0x2C29 JUMPI PUSH1 0x11 DUP1 DUP2 GT ISZERO PUSH2 0x2C1E JUMPI PUSH2 0x2C1D PUSH2 0x8E6F JUMP JUMPDEST JUMPDEST SWAP5 POP POP POP POP POP PUSH2 0x2C44 JUMP JUMPDEST POP POP POP JUMPDEST PUSH0 PUSH1 0x11 DUP2 GT ISZERO PUSH2 0x2C40 JUMPI PUSH2 0x2C3F PUSH2 0x8E6F JUMP JUMPDEST JUMPDEST SWAP2 POP POP JUMPDEST SWAP6 SWAP5 POP POP POP POP POP JUMP JUMPDEST PUSH0 DUP1 SLOAD SWAP1 PUSH2 0x100 EXP SWAP1 DIV PUSH20 0xFFFFFFFFFFFFFFFFFFFFFFFFFFFFFFFFFFFFFFFF AND PUSH20 0xFFFFFFFFFFFFFFFFFFFFFFFFFFFFFFFFFFFFFFFF AND CALLER PUSH20 0xFFFFFFFFFFFFFFFFFFFFFFFFFFFFFFFFFFFFFFFF AND EQ DUP1 PUSH2 0x2CF2 JUMPI POP PUSH1 0x15 PUSH0 SWAP1 SLOAD SWAP1 PUSH2 0x100 EXP SWAP1 DIV PUSH20 0xFFFFFFFFFFFFFFFFFFFFFFFFFFFFFFFFFFFFFFFF AND PUSH20 0xFFFFFFFFFFFFFFFFFFFFFFFFFFFFFFFFFFFFFFFF AND CALLER PUSH20 0xFFFFFFFFFFFFFFFFFFFFFFFFFFFFFFFFFFFFFFFF AND EQ JUMPDEST PUSH2 0x2D31 JUMPI PUSH1 0x40 MLOAD PUSH32 0x8C379A000000000000000000000000000000000000000000000000000000000 DUP2 MSTORE PUSH1 0x4 ADD PUSH2 0x2D28 SWAP1 PUSH2 0x9407 JUMP JUMPDEST PUSH1 0x40 MLOAD DUP1 SWAP2 SUB SWAP1 REVERT JUMPDEST PUSH0 DUP5 DUP5 SWAP1 POP SWAP1 POP PUSH0 DUP4 DUP4 SWAP1 POP SWAP1 POP PUSH0 DUP3 EQ ISZERO DUP1 ISZERO PUSH2 0x2D4E JUMPI POP DUP1 DUP3 EQ JUMPDEST PUSH2 0x2D8D JUMPI PUSH1 0x40 MLOAD PUSH32 0x8C379A000000000000000000000000000000000000000000000000000000000 DUP2 MSTORE PUSH1 0x4 ADD PUSH2 0x2D84 SWAP1 PUSH2 0x946F JUMP JUMPDEST PUSH1 0x40 MLOAD DUP1 SWAP2 SUB SWAP1 REVERT JUMPDEST PUSH0 JUMPDEST DUP3 DUP2 LT ISZERO PUSH2 0x2EB4 JUMPI DUP5 DUP5 DUP3 DUP2 DUP2 LT PUSH2 0x2DAA JUMPI PUSH2 0x2DA9 PUSH2 0x8A66 JUMP JUMPDEST JUMPDEST SWAP1 POP PUSH1 0x20 MUL ADD CALLDATALOAD PUSH1 0x16 PUSH0 DUP10 DUP10 DUP6 DUP2 DUP2 LT PUSH2 0x2DC7 JUMPI PUSH2 0x2DC6 PUSH2 0x8A66 JUMP JUMPDEST JUMPDEST SWAP1 POP PUSH1 0x20 MUL ADD PUSH1 0x20 DUP2 ADD SWAP1 PUSH2 0x2DDC SWAP2 SWAP1 PUSH2 0x8492 JUMP JUMPDEST PUSH20 0xFFFFFFFFFFFFFFFFFFFFFFFFFFFFFFFFFFFFFFFF AND PUSH20 0xFFFFFFFFFFFFFFFFFFFFFFFFFFFFFFFFFFFFFFFF AND DUP2 MSTORE PUSH1 0x20 ADD SWAP1 DUP2 MSTORE PUSH1 0x20 ADD PUSH0 KECCAK256 DUP2 SWAP1 SSTORE POP DUP7 DUP7 DUP3 DUP2 DUP2 LT PUSH2 0x2E2C JUMPI PUSH2 0x2E2B PUSH2 0x8A66 JUMP JUMPDEST JUMPDEST SWAP1 POP PUSH1 0x20 MUL ADD PUSH1 0x20 DUP2 ADD SWAP1 PUSH2 0x2E41 SWAP2 SWAP1 PUSH2 0x8492 JUMP JUMPDEST PUSH20 0xFFFFFFFFFFFFFFFFFFFFFFFFFFFFFFFFFFFFFFFF AND PUSH32 0x6F1951B2AAD10F3FC81B86D91105B413A5B3F847A34BBC5CE1904201B14438F6 DUP7 DUP7 DUP5 DUP2 DUP2 LT PUSH2 0x2E8B JUMPI PUSH2 0x2E8A PUSH2 0x8A66 JUMP JUMPDEST JUMPDEST SWAP1 POP PUSH1 0x20 MUL ADD CALLDATALOAD PUSH1 0x40 MLOAD PUSH2 0x2E9F SWAP2 SWAP1 PUSH2 0x7C9F JUMP JUMPDEST PUSH1 0x40 MLOAD DUP1 SWAP2 SUB SWAP1 LOG2 DUP1 DUP1 PUSH1 0x1 ADD SWAP2 POP POP PUSH2 0x2D8F JUMP JUMPDEST POP POP POP POP POP POP POP JUMP JUMPDEST PUSH0 JUMPDEST DUP4 MLOAD DUP2 LT ISZERO PUSH2 0x30A6 JUMPI PUSH0 DUP5 DUP3 DUP2 MLOAD DUP2 LT PUSH2 0x2EDC JUMPI PUSH2 0x2EDB PUSH2 0x8A66 JUMP JUMPDEST JUMPDEST PUSH1 0x20 MUL PUSH1 0x20 ADD ADD MLOAD SWAP1 POP PUSH1 0x9 PUSH0 DUP3 PUSH20 0xFFFFFFFFFFFFFFFFFFFFFFFFFFFFFFFFFFFFFFFF AND PUSH20 0xFFFFFFFFFFFFFFFFFFFFFFFFFFFFFFFFFFFFFFFF AND DUP2 MSTORE PUSH1 0x20 ADD SWAP1 DUP2 MSTORE PUSH1 0x20 ADD PUSH0 KECCAK256 PUSH0 ADD PUSH0 SWAP1 SLOAD SWAP1 PUSH2 0x100 EXP SWAP1 DIV PUSH1 0xFF AND PUSH2 0x2F71 JUMPI PUSH1 0x40 MLOAD PUSH32 0x8C379A000000000000000000000000000000000000000000000000000000000 DUP2 MSTORE PUSH1 0x4 ADD PUSH2 0x2F68 SWAP1 PUSH2 0x94D7 JUMP JUMPDEST PUSH1 0x40 MLOAD DUP1 SWAP2 SUB SWAP1 REVERT JUMPDEST PUSH1 0x1 ISZERO ISZERO DUP5 ISZERO ISZERO SUB PUSH2 0x3045 JUMPI PUSH0 PUSH1 0x40 MLOAD DUP1 PUSH1 0x20 ADD PUSH1 0x40 MSTORE DUP1 DUP4 PUSH20 0xFFFFFFFFFFFFFFFFFFFFFFFFFFFFFFFFFFFFFFFF AND PUSH4 0xAA5AF0FD PUSH1 0x40 MLOAD DUP2 PUSH4 0xFFFFFFFF AND PUSH1 0xE0 SHL DUP2 MSTORE PUSH1 0x4 ADD PUSH1 0x20 PUSH1 0x40 MLOAD DUP1 DUP4 SUB DUP2 DUP7 GAS STATICCALL ISZERO DUP1 ISZERO PUSH2 0x2FD2 JUMPI RETURNDATASIZE PUSH0 DUP1 RETURNDATACOPY RETURNDATASIZE PUSH0 REVERT JUMPDEST POP POP POP POP PUSH1 0x40 MLOAD RETURNDATASIZE PUSH1 0x1F NOT PUSH1 0x1F DUP3 ADD AND DUP3 ADD DUP1 PUSH1 0x40 MSTORE POP DUP2 ADD SWAP1 PUSH2 0x2FF6 SWAP2 SWAP1 PUSH2 0x8DDC JUMP JUMPDEST DUP2 MSTORE POP SWAP1 POP PUSH2 0x3005 DUP3 DUP3 PUSH2 0x536E JUMP JUMPDEST PUSH0 JUMPDEST DUP8 MLOAD DUP2 LT ISZERO PUSH2 0x3042 JUMPI PUSH2 0x3035 DUP4 DUP10 DUP4 DUP2 MLOAD DUP2 LT PUSH2 0x3027 JUMPI PUSH2 0x3026 PUSH2 0x8A66 JUMP JUMPDEST JUMPDEST PUSH1 0x20 MUL PUSH1 0x20 ADD ADD MLOAD DUP5 PUSH2 0x5675 JUMP JUMPDEST DUP1 DUP1 PUSH1 0x1 ADD SWAP2 POP POP PUSH2 0x3007 JUMP JUMPDEST POP POP JUMPDEST PUSH1 0x1 ISZERO ISZERO DUP4 ISZERO ISZERO SUB PUSH2 0x3098 JUMPI PUSH2 0x305A DUP2 PUSH2 0x62B6 JUMP JUMPDEST PUSH0 JUMPDEST DUP7 MLOAD DUP2 LT ISZERO PUSH2 0x3096 JUMPI PUSH2 0x3089 DUP3 DUP9 DUP4 DUP2 MLOAD DUP2 LT PUSH2 0x307C JUMPI PUSH2 0x307B PUSH2 0x8A66 JUMP JUMPDEST JUMPDEST PUSH1 0x20 MUL PUSH1 0x20 ADD ADD MLOAD PUSH2 0x65B3 JUMP JUMPDEST DUP1 DUP1 PUSH1 0x1 ADD SWAP2 POP POP PUSH2 0x305C JUMP JUMPDEST POP JUMPDEST POP DUP1 DUP1 PUSH1 0x1 ADD SWAP2 POP POP PUSH2 0x2EBF JUMP JUMPDEST POP PUSH0 JUMPDEST DUP5 MLOAD DUP2 LT ISZERO PUSH2 0x3195 JUMPI PUSH2 0x312D DUP6 DUP3 DUP2 MLOAD DUP2 LT PUSH2 0x30C8 JUMPI PUSH2 0x30C7 PUSH2 0x8A66 JUMP JUMPDEST JUMPDEST PUSH1 0x20 MUL PUSH1 0x20 ADD ADD MLOAD PUSH1 0x14 PUSH0 DUP9 DUP6 DUP2 MLOAD DUP2 LT PUSH2 0x30E6 JUMPI PUSH2 0x30E5 PUSH2 0x8A66 JUMP JUMPDEST JUMPDEST PUSH1 0x20 MUL PUSH1 0x20 ADD ADD MLOAD PUSH20 0xFFFFFFFFFFFFFFFFFFFFFFFFFFFFFFFFFFFFFFFF AND PUSH20 0xFFFFFFFFFFFFFFFFFFFFFFFFFFFFFFFFFFFFFFFF AND DUP2 MSTORE PUSH1 0x20 ADD SWAP1 DUP2 MSTORE PUSH1 0x20 ADD PUSH0 KECCAK256 SLOAD PUSH2 0x5AC3 JUMP JUMPDEST PUSH1 0x14 PUSH0 DUP8 DUP5 DUP2 MLOAD DUP2 LT PUSH2 0x3143 JUMPI PUSH2 0x3142 PUSH2 0x8A66 JUMP JUMPDEST JUMPDEST PUSH1 0x20 MUL PUSH1 0x20 ADD ADD MLOAD PUSH20 0xFFFFFFFFFFFFFFFFFFFFFFFFFFFFFFFFFFFFFFFF AND PUSH20 0xFFFFFFFFFFFFFFFFFFFFFFFFFFFFFFFFFFFFFFFF AND DUP2 MSTORE PUSH1 0x20 ADD SWAP1 DUP2 MSTORE PUSH1 0x20 ADD PUSH0 KECCAK256 DUP2 SWAP1 SSTORE POP DUP1 DUP1 PUSH1 0x1 ADD SWAP2 POP POP PUSH2 0x30A9 JUMP JUMPDEST POP POP POP POP POP JUMP JUMPDEST PUSH0 ISZERO PUSH2 0x31AC JUMPI PUSH1 0x7 SLOAD PUSH1 0x7 DUP2 SWAP1 SSTORE POP JUMPDEST POP POP POP POP JUMP JUMPDEST PUSH1 0x1A PUSH1 0x20 MSTORE DUP1 PUSH0 MSTORE PUSH1 0x40 PUSH0 KECCAK256 PUSH0 SWAP2 POP SWAP1 POP SLOAD DUP2 JUMP JUMPDEST PUSH1 0x10 PUSH1 0x20 MSTORE DUP1 PUSH0 MSTORE PUSH1 0x40 PUSH0 KECCAK256 PUSH0 SWAP2 POP SWAP1 POP DUP1 PUSH0 ADD PUSH0 SWAP1 SLOAD SWAP1 PUSH2 0x100 EXP SWAP1 DIV PUSH28 0xFFFFFFFFFFFFFFFFFFFFFFFFFFFFFFFFFFFFFFFFFFFFFFFFFFFFFFFF AND SWAP1 DUP1 PUSH0 ADD PUSH1 0x1C SWAP1 SLOAD SWAP1 PUSH2 0x100 EXP SWAP1 DIV PUSH4 0xFFFFFFFF AND SWAP1 POP DUP3 JUMP JUMPDEST PUSH1 0xC PUSH1 0x20 MSTORE DUP1 PUSH0 MSTORE PUSH1 0x40 PUSH0 KECCAK256 PUSH0 SWAP2 POP SLOAD SWAP1 PUSH2 0x100 EXP SWAP1 DIV PUSH1 0xFF AND DUP2 JUMP JUMPDEST PUSH0 ISZERO PUSH2 0x324A JUMPI PUSH1 0x7 SLOAD PUSH1 0x7 DUP2 SWAP1 SSTORE POP JUMPDEST POP POP POP POP POP JUMP JUMPDEST PUSH1 0xB PUSH1 0x20 MSTORE DUP1 PUSH0 MSTORE PUSH1 0x40 PUSH0 KECCAK256 PUSH0 SWAP2 POP SLOAD SWAP1 PUSH2 0x100 EXP SWAP1 DIV PUSH1 0xFF AND DUP2 JUMP JUMPDEST PUSH0 PUSH1 0x17 PUSH0 DUP4 PUSH20 0xFFFFFFFFFFFFFFFFFFFFFFFFFFFFFFFFFFFFFFFF AND PUSH20 0xFFFFFFFFFFFFFFFFFFFFFFFFFFFFFFFFFFFFFFFF AND DUP2 MSTORE PUSH1 0x20 ADD SWAP1 DUP2 MSTORE PUSH1 0x20 ADD PUSH0 KECCAK256 SLOAD SWAP1 POP PUSH0 PUSH2 0x32B8 PUSH2 0x22A6 JUMP JUMPDEST SWAP1 POP PUSH0 PUSH2 0x3302 DUP3 PUSH1 0x18 PUSH0 DUP8 PUSH20 0xFFFFFFFFFFFFFFFFFFFFFFFFFFFFFFFFFFFFFFFF AND PUSH20 0xFFFFFFFFFFFFFFFFFFFFFFFFFFFFFFFFFFFFFFFF AND DUP2 MSTORE PUSH1 0x20 ADD SWAP1 DUP2 MSTORE PUSH1 0x20 ADD PUSH0 KECCAK256 SLOAD PUSH2 0x5359 JUMP JUMPDEST SWAP1 POP PUSH0 DUP2 GT DUP1 ISZERO PUSH2 0x3312 JUMPI POP PUSH0 DUP4 GT JUMPDEST ISZERO PUSH2 0x33F5 JUMPI PUSH0 PUSH2 0x3322 DUP3 DUP6 PUSH2 0x6A02 JUMP JUMPDEST SWAP1 POP PUSH0 PUSH2 0x336C PUSH1 0x14 PUSH0 DUP9 PUSH20 0xFFFFFFFFFFFFFFFFFFFFFFFFFFFFFFFFFFFFFFFF AND PUSH20 0xFFFFFFFFFFFFFFFFFFFFFFFFFFFFFFFFFFFFFFFF AND DUP2 MSTORE PUSH1 0x20 ADD SWAP1 DUP2 MSTORE PUSH1 0x20 ADD PUSH0 KECCAK256 SLOAD DUP4 PUSH2 0x5344 JUMP JUMPDEST SWAP1 POP DUP1 PUSH1 0x14 PUSH0 DUP9 PUSH20 0xFFFFFFFFFFFFFFFFFFFFFFFFFFFFFFFFFFFFFFFF AND PUSH20 0xFFFFFFFFFFFFFFFFFFFFFFFFFFFFFFFFFFFFFFFF AND DUP2 MSTORE PUSH1 0x20 ADD SWAP1 DUP2 MSTORE PUSH1 0x20 ADD PUSH0 KECCAK256 DUP2 SWAP1 SSTORE POP DUP4 PUSH1 0x18 PUSH0 DUP9 PUSH20 0xFFFFFFFFFFFFFFFFFFFFFFFFFFFFFFFFFFFFFFFF AND PUSH20 0xFFFFFFFFFFFFFFFFFFFFFFFFFFFFFFFFFFFFFFFF AND DUP2 MSTORE PUSH1 0x20 ADD SWAP1 DUP2 MSTORE PUSH1 0x20 ADD PUSH0 KECCAK256 DUP2 SWAP1 SSTORE POP POP POP JUMPDEST POP POP POP POP JUMP JUMPDEST PUSH1 0x4 PUSH0 SWAP1 SLOAD SWAP1 PUSH2 0x100 EXP SWAP1 DIV PUSH20 0xFFFFFFFFFFFFFFFFFFFFFFFFFFFFFFFFFFFFFFFF AND DUP2 JUMP JUMPDEST PUSH1 0x1C PUSH1 0x20 MSTORE DUP1 PUSH0 MSTORE PUSH1 0x40 PUSH0 KECCAK256 PUSH0 SWAP2 POP SWAP1 POP SLOAD DUP2 JUMP JUMPDEST PUSH1 0xA PUSH1 0x16 SWAP1 SLOAD SWAP1 PUSH2 0x100 EXP SWAP1 DIV PUSH1 0xFF AND DUP2 JUMP JUMPDEST PUSH1 0x11 PUSH1 0x20 MSTORE DUP1 PUSH0 MSTORE PUSH1 0x40 PUSH0 KECCAK256 PUSH0 SWAP2 POP SWAP1 POP DUP1 PUSH0 ADD PUSH0 SWAP1 SLOAD SWAP1 PUSH2 0x100 EXP SWAP1 DIV PUSH28 0xFFFFFFFFFFFFFFFFFFFFFFFFFFFFFFFFFFFFFFFFFFFFFFFFFFFFFFFF AND SWAP1 DUP1 PUSH0 ADD PUSH1 0x1C SWAP1 SLOAD SWAP1 PUSH2 0x100 EXP SWAP1 DIV PUSH4 0xFFFFFFFF AND SWAP1 POP DUP3 JUMP JUMPDEST PUSH1 0x9 PUSH1 0x20 MSTORE DUP1 PUSH0 MSTORE PUSH1 0x40 PUSH0 KECCAK256 PUSH0 SWAP2 POP SWAP1 POP DUP1 PUSH0 ADD PUSH0 SWAP1 SLOAD SWAP1 PUSH2 0x100 EXP SWAP1 DIV PUSH1 0xFF AND SWAP1 DUP1 PUSH1 0x1 ADD SLOAD SWAP1 DUP1 PUSH1 0x3 ADD PUSH0 SWAP1 SLOAD SWAP1 PUSH2 0x100 EXP SWAP1 DIV PUSH1 0xFF AND SWAP1 POP DUP4 JUMP JUMPDEST PUSH0 PUSH1 0xA PUSH0 SWAP1 SLOAD SWAP1 PUSH2 0x100 EXP SWAP1 DIV PUSH20 0xFFFFFFFFFFFFFFFFFFFFFFFFFFFFFFFFFFFFFFFF AND PUSH20 0xFFFFFFFFFFFFFFFFFFFFFFFFFFFFFFFFFFFFFFFF AND CALLER PUSH20 0xFFFFFFFFFFFFFFFFFFFFFFFFFFFFFFFFFFFFFFFF AND EQ DUP1 PUSH2 0x3582 JUMPI POP PUSH0 DUP1 SLOAD SWAP1 PUSH2 0x100 EXP SWAP1 DIV PUSH20 0xFFFFFFFFFFFFFFFFFFFFFFFFFFFFFFFFFFFFFFFF AND PUSH20 0xFFFFFFFFFFFFFFFFFFFFFFFFFFFFFFFFFFFFFFFF AND CALLER PUSH20 0xFFFFFFFFFFFFFFFFFFFFFFFFFFFFFFFFFFFFFFFF AND EQ JUMPDEST PUSH2 0x35C1 JUMPI PUSH1 0x40 MLOAD PUSH32 0x8C379A000000000000000000000000000000000000000000000000000000000 DUP2 MSTORE PUSH1 0x4 ADD PUSH2 0x35B8 SWAP1 PUSH2 0x8BF1 JUMP JUMPDEST PUSH1 0x40 MLOAD DUP1 SWAP2 SUB SWAP1 REVERT JUMPDEST PUSH0 DUP1 SLOAD SWAP1 PUSH2 0x100 EXP SWAP1 DIV PUSH20 0xFFFFFFFFFFFFFFFFFFFFFFFFFFFFFFFFFFFFFFFF AND PUSH20 0xFFFFFFFFFFFFFFFFFFFFFFFFFFFFFFFFFFFFFFFF AND CALLER PUSH20 0xFFFFFFFFFFFFFFFFFFFFFFFFFFFFFFFFFFFFFFFF AND EQ DUP1 PUSH2 0x361E JUMPI POP PUSH1 0x1 ISZERO ISZERO DUP3 ISZERO ISZERO EQ JUMPDEST PUSH2 0x365D JUMPI PUSH1 0x40 MLOAD PUSH32 0x8C379A000000000000000000000000000000000000000000000000000000000 DUP2 MSTORE PUSH1 0x4 ADD PUSH2 0x3654 SWAP1 PUSH2 0x8C59 JUMP JUMPDEST PUSH1 0x40 MLOAD DUP1 SWAP2 SUB SWAP1 REVERT JUMPDEST DUP2 PUSH1 0xA PUSH1 0x16 PUSH2 0x100 EXP DUP2 SLOAD DUP2 PUSH1 0xFF MUL NOT AND SWAP1 DUP4 ISZERO ISZERO MUL OR SWAP1 SSTORE POP PUSH32 0xEF159D9A32B2472E32B098F954F3CE62D232939F1C207070B584DF1814DE2DE0 DUP3 PUSH1 0x40 MLOAD PUSH2 0x36A6 SWAP2 SWAP1 PUSH2 0x953F JUMP JUMPDEST PUSH1 0x40 MLOAD DUP1 SWAP2 SUB SWAP1 LOG1 DUP2 SWAP1 POP SWAP2 SWAP1 POP JUMP JUMPDEST PUSH0 PUSH1 0x9 PUSH0 DUP4 PUSH20 0xFFFFFFFFFFFFFFFFFFFFFFFFFFFFFFFFFFFFFFFF AND PUSH20 0xFFFFFFFFFFFFFFFFFFFFFFFFFFFFFFFFFFFFFFFF AND DUP2 MSTORE PUSH1 0x20 ADD SWAP1 DUP2 MSTORE PUSH1 0x20 ADD PUSH0 KECCAK256 PUSH1 0x2 ADD PUSH0 DUP5 PUSH20 0xFFFFFFFFFFFFFFFFFFFFFFFFFFFFFFFFFFFFFFFF AND PUSH20 0xFFFFFFFFFFFFFFFFFFFFFFFFFFFFFFFFFFFFFFFF AND DUP2 MSTORE PUSH1 0x20 ADD SWAP1 DUP2 MSTORE PUSH1 0x20 ADD PUSH0 KECCAK256 PUSH0 SWAP1 SLOAD SWAP1 PUSH2 0x100 EXP SWAP1 DIV PUSH1 0xFF AND SWAP1 POP SWAP3 SWAP2 POP POP JUMP JUMPDEST PUSH0 DUP1 PUSH1 0x9 PUSH0 DUP5 PUSH20 0xFFFFFFFFFFFFFFFFFFFFFFFFFFFFFFFFFFFFFFFF AND PUSH20 0xFFFFFFFFFFFFFFFFFFFFFFFFFFFFFFFFFFFFFFFF AND DUP2 MSTORE PUSH1 0x20 ADD SWAP1 DUP2 MSTORE PUSH1 0x20 ADD PUSH0 KECCAK256 PUSH1 0x1 ADD SLOAD EQ DUP1 ISZERO PUSH2 0x37E4 JUMPI POP PUSH1 0x1 ISZERO ISZERO PUSH1 0xC PUSH0 DUP5 PUSH20 0xFFFFFFFFFFFFFFFFFFFFFFFFFFFFFFFFFFFFFFFF AND PUSH20 0xFFFFFFFFFFFFFFFFFFFFFFFFFFFFFFFFFFFFFFFF AND DUP2 MSTORE PUSH1 0x20 ADD SWAP1 DUP2 MSTORE PUSH1 0x20 ADD PUSH0 KECCAK256 PUSH0 SWAP1 SLOAD SWAP1 PUSH2 0x100 EXP SWAP1 DIV PUSH1 0xFF AND ISZERO ISZERO EQ JUMPDEST DUP1 ISZERO PUSH2 0x3863 JUMPI POP PUSH8 0xDE0B6B3A7640000 DUP3 PUSH20 0xFFFFFFFFFFFFFFFFFFFFFFFFFFFFFFFFFFFFFFFF AND PUSH4 0x173B9904 PUSH1 0x40 MLOAD DUP2 PUSH4 0xFFFFFFFF AND PUSH1 0xE0 SHL DUP2 MSTORE PUSH1 0x4 ADD PUSH1 0x20 PUSH1 0x40 MLOAD DUP1 DUP4 SUB DUP2 DUP7 GAS STATICCALL ISZERO DUP1 ISZERO PUSH2 0x383D JUMPI RETURNDATASIZE PUSH0 DUP1 RETURNDATACOPY RETURNDATASIZE PUSH0 REVERT JUMPDEST POP POP POP POP PUSH1 0x40 MLOAD RETURNDATASIZE PUSH1 0x1F NOT PUSH1 0x1F DUP3 ADD AND DUP3 ADD DUP1 PUSH1 0x40 MSTORE POP DUP2 ADD SWAP1 PUSH2 0x3861 SWAP2 SWAP1 PUSH2 0x8DDC JUMP JUMPDEST EQ JUMPDEST SWAP1 POP SWAP2 SWAP1 POP JUMP JUMPDEST PUSH1 0x7 SLOAD DUP2 JUMP JUMPDEST PUSH1 0x17 PUSH1 0x20 MSTORE DUP1 PUSH0 MSTORE PUSH1 0x40 PUSH0 KECCAK256 PUSH0 SWAP2 POP SWAP1 POP SLOAD DUP2 JUMP JUMPDEST PUSH0 PUSH20 0xC00E94CB662C3520282E6F5717214004A7F26888 SWAP1 POP SWAP1 JUMP JUMPDEST PUSH0 DUP1 PUSH0 SWAP1 SLOAD SWAP1 PUSH2 0x100 EXP SWAP1 DIV PUSH20 0xFFFFFFFFFFFFFFFFFFFFFFFFFFFFFFFFFFFFFFFF AND PUSH20 0xFFFFFFFFFFFFFFFFFFFFFFFFFFFFFFFFFFFFFFFF AND CALLER PUSH20 0xFFFFFFFFFFFFFFFFFFFFFFFFFFFFFFFFFFFFFFFF AND EQ PUSH2 0x3907 JUMPI PUSH2 0x3900 PUSH1 0x1 PUSH1 0x12 PUSH2 0x694B JUMP JUMPDEST SWAP1 POP PUSH2 0x3AC1 JUMP JUMPDEST PUSH1 0x9 PUSH0 DUP4 PUSH20 0xFFFFFFFFFFFFFFFFFFFFFFFFFFFFFFFFFFFFFFFF AND PUSH20 0xFFFFFFFFFFFFFFFFFFFFFFFFFFFFFFFFFFFFFFFF AND DUP2 MSTORE PUSH1 0x20 ADD SWAP1 DUP2 MSTORE PUSH1 0x20 ADD PUSH0 KECCAK256 PUSH0 ADD PUSH0 SWAP1 SLOAD SWAP1 PUSH2 0x100 EXP SWAP1 DIV PUSH1 0xFF AND ISZERO PUSH2 0x396B JUMPI PUSH2 0x3964 PUSH1 0xA PUSH1 0x11 PUSH2 0x694B JUMP JUMPDEST SWAP1 POP PUSH2 0x3AC1 JUMP JUMPDEST DUP2 PUSH20 0xFFFFFFFFFFFFFFFFFFFFFFFFFFFFFFFFFFFFFFFF AND PUSH4 0xFE9C44AE PUSH1 0x40 MLOAD DUP2 PUSH4 0xFFFFFFFF AND PUSH1 0xE0 SHL DUP2 MSTORE PUSH1 0x4 ADD PUSH1 0x20 PUSH1 0x40 MLOAD DUP1 DUP4 SUB DUP2 DUP7 GAS STATICCALL ISZERO DUP1 ISZERO PUSH2 0x39B4 JUMPI RETURNDATASIZE PUSH0 DUP1 RETURNDATACOPY RETURNDATASIZE PUSH0 REVERT JUMPDEST POP POP POP POP PUSH1 0x40 MLOAD RETURNDATASIZE PUSH1 0x1F NOT PUSH1 0x1F DUP3 ADD AND DUP3 ADD DUP1 PUSH1 0x40 MSTORE POP DUP2 ADD SWAP1 PUSH2 0x39D8 SWAP2 SWAP1 PUSH2 0x957F JUMP JUMPDEST POP PUSH0 PUSH1 0x9 PUSH0 DUP5 PUSH20 0xFFFFFFFFFFFFFFFFFFFFFFFFFFFFFFFFFFFFFFFF AND PUSH20 0xFFFFFFFFFFFFFFFFFFFFFFFFFFFFFFFFFFFFFFFF AND DUP2 MSTORE PUSH1 0x20 ADD SWAP1 DUP2 MSTORE PUSH1 0x20 ADD PUSH0 KECCAK256 SWAP1 POP PUSH1 0x1 DUP2 PUSH0 ADD PUSH0 PUSH2 0x100 EXP DUP2 SLOAD DUP2 PUSH1 0xFF MUL NOT AND SWAP1 DUP4 ISZERO ISZERO MUL OR SWAP1 SSTORE POP PUSH0 DUP2 PUSH1 0x3 ADD PUSH0 PUSH2 0x100 EXP DUP2 SLOAD DUP2 PUSH1 0xFF MUL NOT AND SWAP1 DUP4 ISZERO ISZERO MUL OR SWAP1 SSTORE POP PUSH0 DUP2 PUSH1 0x1 ADD DUP2 SWAP1 SSTORE POP PUSH2 0x3A61 DUP4 PUSH2 0x6A17 JUMP JUMPDEST PUSH2 0x3A6A DUP4 PUSH2 0x6B40 JUMP JUMPDEST PUSH2 0x3A73 DUP4 PUSH2 0x6029 JUMP JUMPDEST PUSH32 0xCF583BB0C569EB967F806B11601C4CB93C10310485C67ADD5F8362C2F212321F DUP4 PUSH1 0x40 MLOAD PUSH2 0x3AA2 SWAP2 SWAP1 PUSH2 0x8046 JUMP JUMPDEST PUSH1 0x40 MLOAD DUP1 SWAP2 SUB SWAP1 LOG1 PUSH0 PUSH1 0x11 DUP2 GT ISZERO PUSH2 0x3ABD JUMPI PUSH2 0x3ABC PUSH2 0x8E6F JUMP JUMPDEST JUMPDEST SWAP2 POP POP JUMPDEST SWAP2 SWAP1 POP JUMP JUMPDEST PUSH15 0xC097CE7BC90715B34B9F1000000000 DUP2 JUMP JUMPDEST PUSH2 0x3AE1 PUSH2 0x5A17 JUMP JUMPDEST PUSH2 0x3B20 JUMPI PUSH1 0x40 MLOAD PUSH32 0x8C379A000000000000000000000000000000000000000000000000000000000 DUP2 MSTORE PUSH1 0x4 ADD PUSH2 0x3B17 SWAP1 PUSH2 0x92EB JUMP JUMPDEST PUSH1 0x40 MLOAD DUP1 SWAP2 SUB SWAP1 REVERT JUMPDEST PUSH0 DUP4 MLOAD SWAP1 POP DUP3 MLOAD DUP2 EQ DUP1 ISZERO PUSH2 0x3B35 JUMPI POP DUP2 MLOAD DUP2 EQ JUMPDEST PUSH2 0x3B74 JUMPI PUSH1 0x40 MLOAD PUSH32 0x8C379A000000000000000000000000000000000000000000000000000000000 DUP2 MSTORE PUSH1 0x4 ADD PUSH2 0x3B6B SWAP1 PUSH2 0x961A JUMP JUMPDEST PUSH1 0x40 MLOAD DUP1 SWAP2 SUB SWAP1 REVERT JUMPDEST PUSH0 JUMPDEST DUP2 DUP2 LT ISZERO PUSH2 0x3BE2 JUMPI PUSH2 0x3BD7 DUP6 DUP3 DUP2 MLOAD DUP2 LT PUSH2 0x3B94 JUMPI PUSH2 0x3B93 PUSH2 0x8A66 JUMP JUMPDEST JUMPDEST PUSH1 0x20 MUL PUSH1 0x20 ADD ADD MLOAD DUP6 DUP4 DUP2 MLOAD DUP2 LT PUSH2 0x3BAF JUMPI PUSH2 0x3BAE PUSH2 0x8A66 JUMP JUMPDEST JUMPDEST PUSH1 0x20 MUL PUSH1 0x20 ADD ADD MLOAD DUP6 DUP5 DUP2 MLOAD DUP2 LT PUSH2 0x3BCA JUMPI PUSH2 0x3BC9 PUSH2 0x8A66 JUMP JUMPDEST JUMPDEST PUSH1 0x20 MUL PUSH1 0x20 ADD ADD MLOAD PUSH2 0x6DB1 JUMP JUMPDEST DUP1 PUSH1 0x1 ADD SWAP1 POP PUSH2 0x3B76 JUMP JUMPDEST POP POP POP POP POP JUMP JUMPDEST PUSH1 0xE SLOAD DUP2 JUMP JUMPDEST PUSH1 0x60 PUSH0 PUSH1 0x8 PUSH0 DUP5 PUSH20 0xFFFFFFFFFFFFFFFFFFFFFFFFFFFFFFFFFFFFFFFF AND PUSH20 0xFFFFFFFFFFFFFFFFFFFFFFFFFFFFFFFFFFFFFFFF AND DUP2 MSTORE PUSH1 0x20 ADD SWAP1 DUP2 MSTORE PUSH1 0x20 ADD PUSH0 KECCAK256 DUP1 SLOAD DUP1 PUSH1 0x20 MUL PUSH1 0x20 ADD PUSH1 0x40 MLOAD SWAP1 DUP2 ADD PUSH1 0x40 MSTORE DUP1 SWAP3 SWAP2 SWAP1 DUP2 DUP2 MSTORE PUSH1 0x20 ADD DUP3 DUP1 SLOAD DUP1 ISZERO PUSH2 0x3CAC JUMPI PUSH1 0x20 MUL DUP3 ADD SWAP2 SWAP1 PUSH0 MSTORE PUSH1 0x20 PUSH0 KECCAK256 SWAP1 JUMPDEST DUP2 PUSH0 SWAP1 SLOAD SWAP1 PUSH2 0x100 EXP SWAP1 DIV PUSH20 0xFFFFFFFFFFFFFFFFFFFFFFFFFFFFFFFFFFFFFFFF AND PUSH20 0xFFFFFFFFFFFFFFFFFFFFFFFFFFFFFFFFFFFFFFFF AND DUP2 MSTORE PUSH1 0x20 ADD SWAP1 PUSH1 0x1 ADD SWAP1 DUP1 DUP4 GT PUSH2 0x3C63 JUMPI JUMPDEST POP POP POP POP POP SWAP1 POP DUP1 SWAP2 POP POP SWAP2 SWAP1 POP JUMP JUMPDEST PUSH1 0xA PUSH1 0x17 SWAP1 SLOAD SWAP1 PUSH2 0x100 EXP SWAP1 DIV PUSH1 0xFF AND DUP2 JUMP JUMPDEST PUSH1 0x60 PUSH1 0xD DUP1 SLOAD DUP1 PUSH1 0x20 MUL PUSH1 0x20 ADD PUSH1 0x40 MLOAD SWAP1 DUP2 ADD PUSH1 0x40 MSTORE DUP1 SWAP3 SWAP2 SWAP1 DUP2 DUP2 MSTORE PUSH1 0x20 ADD DUP3 DUP1 SLOAD DUP1 ISZERO PUSH2 0x3D50 JUMPI PUSH1 0x20 MUL DUP3 ADD SWAP2 SWAP1 PUSH0 MSTORE PUSH1 0x20 PUSH0 KECCAK256 SWAP1 JUMPDEST DUP2 PUSH0 SWAP1 SLOAD SWAP1 PUSH2 0x100 EXP SWAP1 DIV PUSH20 0xFFFFFFFFFFFFFFFFFFFFFFFFFFFFFFFFFFFFFFFF AND PUSH20 0xFFFFFFFFFFFFFFFFFFFFFFFFFFFFFFFFFFFFFFFF AND DUP2 MSTORE PUSH1 0x20 ADD SWAP1 PUSH1 0x1 ADD SWAP1 DUP1 DUP4 GT PUSH2 0x3D07 JUMPI JUMPDEST POP POP POP POP POP SWAP1 POP SWAP1 JUMP JUMPDEST PUSH1 0x12 PUSH1 0x20 MSTORE DUP2 PUSH0 MSTORE PUSH1 0x40 PUSH0 KECCAK256 PUSH1 0x20 MSTORE DUP1 PUSH0 MSTORE PUSH1 0x40 PUSH0 KECCAK256 PUSH0 SWAP2 POP SWAP2 POP POP SLOAD DUP2 JUMP JUMPDEST PUSH1 0x2 PUSH0 SWAP1 SLOAD SWAP1 PUSH2 0x100 EXP SWAP1 DIV PUSH20 0xFFFFFFFFFFFFFFFFFFFFFFFFFFFFFFFFFFFFFFFF AND DUP2 JUMP JUMPDEST PUSH0 PUSH1 0xA PUSH1 0x16 SWAP1 SLOAD SWAP1 PUSH2 0x100 EXP SWAP1 DIV PUSH1 0xFF AND ISZERO PUSH2 0x3DF0 JUMPI PUSH1 0x40 MLOAD PUSH32 0x8C379A000000000000000000000000000000000000000000000000000000000 DUP2 MSTORE PUSH1 0x4 ADD PUSH2 0x3DE7 SWAP1 PUSH2 0x9682 JUMP JUMPDEST PUSH1 0x40 MLOAD DUP1 SWAP2 SUB SWAP1 REVERT JUMPDEST PUSH0 PUSH2 0x3DFC DUP7 DUP7 DUP6 PUSH2 0x7082 JUMP JUMPDEST SWAP1 POP PUSH0 PUSH1 0x11 DUP2 GT ISZERO PUSH2 0x3E11 JUMPI PUSH2 0x3E10 PUSH2 0x8E6F JUMP JUMPDEST JUMPDEST DUP2 EQ PUSH2 0x3E20 JUMPI DUP1 SWAP2 POP POP PUSH2 0x3E5D JUMP JUMPDEST PUSH2 0x3E29 DUP7 PUSH2 0x6029 JUMP JUMPDEST PUSH2 0x3E32 DUP7 PUSH2 0x62B6 JUMP JUMPDEST PUSH2 0x3E3C DUP7 DUP7 PUSH2 0x65B3 JUMP JUMPDEST PUSH2 0x3E46 DUP7 DUP6 PUSH2 0x65B3 JUMP JUMPDEST PUSH0 PUSH1 0x11 DUP2 GT ISZERO PUSH2 0x3E59 JUMPI PUSH2 0x3E58 PUSH2 0x8E6F JUMP JUMPDEST JUMPDEST SWAP2 POP POP JUMPDEST SWAP5 SWAP4 POP POP POP POP JUMP JUMPDEST PUSH1 0x18 PUSH1 0x20 MSTORE DUP1 PUSH0 MSTORE PUSH1 0x40 PUSH0 KECCAK256 PUSH0 SWAP2 POP SWAP1 POP SLOAD DUP2 JUMP JUMPDEST PUSH1 0x60 PUSH0 DUP3 MLOAD SWAP1 POP PUSH0 DUP2 PUSH8 0xFFFFFFFFFFFFFFFF DUP2 GT ISZERO PUSH2 0x3E9C JUMPI PUSH2 0x3E9B PUSH2 0x7A53 JUMP JUMPDEST JUMPDEST PUSH1 0x40 MLOAD SWAP1 DUP1 DUP3 MSTORE DUP1 PUSH1 0x20 MUL PUSH1 0x20 ADD DUP3 ADD PUSH1 0x40 MSTORE DUP1 ISZERO PUSH2 0x3ECA JUMPI DUP2 PUSH1 0x20 ADD PUSH1 0x20 DUP3 MUL DUP1 CALLDATASIZE DUP4 CALLDATACOPY DUP1 DUP3 ADD SWAP2 POP POP SWAP1 POP JUMPDEST POP SWAP1 POP PUSH0 JUMPDEST DUP3 DUP2 LT ISZERO PUSH2 0x3F3E JUMPI PUSH0 DUP6 DUP3 DUP2 MLOAD DUP2 LT PUSH2 0x3EEB JUMPI PUSH2 0x3EEA PUSH2 0x8A66 JUMP JUMPDEST JUMPDEST PUSH1 0x20 MUL PUSH1 0x20 ADD ADD MLOAD SWAP1 POP PUSH2 0x3EFF DUP2 CALLER PUSH2 0x7232 JUMP JUMPDEST PUSH1 0x11 DUP2 GT ISZERO PUSH2 0x3F11 JUMPI PUSH2 0x3F10 PUSH2 0x8E6F JUMP JUMPDEST JUMPDEST DUP4 DUP4 DUP2 MLOAD DUP2 LT PUSH2 0x3F24 JUMPI PUSH2 0x3F23 PUSH2 0x8A66 JUMP JUMPDEST JUMPDEST PUSH1 0x20 MUL PUSH1 0x20 ADD ADD DUP2 DUP2 MSTORE POP POP POP DUP1 DUP1 PUSH1 0x1 ADD SWAP2 POP POP PUSH2 0x3ECF JUMP JUMPDEST POP DUP1 SWAP3 POP POP POP SWAP2 SWAP1 POP JUMP JUMPDEST PUSH0 DUP1 PUSH0 PUSH1 0x4 PUSH0 SWAP1 SLOAD SWAP1 PUSH2 0x100 EXP SWAP1 DIV PUSH20 0xFFFFFFFFFFFFFFFFFFFFFFFFFFFFFFFFFFFFFFFF AND PUSH20 0xFFFFFFFFFFFFFFFFFFFFFFFFFFFFFFFFFFFFFFFF AND PUSH4 0xFC57D4DF DUP8 PUSH1 0x40 MLOAD DUP3 PUSH4 0xFFFFFFFF AND PUSH1 0xE0 SHL DUP2 MSTORE PUSH1 0x4 ADD PUSH2 0x3FA6 SWAP2 SWAP1 PUSH2 0x8046 JUMP JUMPDEST PUSH1 0x20 PUSH1 0x40 MLOAD DUP1 DUP4 SUB DUP2 DUP7 GAS STATICCALL ISZERO DUP1 ISZERO PUSH2 0x3FC1 JUMPI RETURNDATASIZE PUSH0 DUP1 RETURNDATACOPY RETURNDATASIZE PUSH0 REVERT JUMPDEST POP POP POP POP PUSH1 0x40 MLOAD RETURNDATASIZE PUSH1 0x1F NOT PUSH1 0x1F DUP3 ADD AND DUP3 ADD DUP1 PUSH1 0x40 MSTORE POP DUP2 ADD SWAP1 PUSH2 0x3FE5 SWAP2 SWAP1 PUSH2 0x8DDC JUMP JUMPDEST SWAP1 POP PUSH0 PUSH1 0x4 PUSH0 SWAP1 SLOAD SWAP1 PUSH2 0x100 EXP SWAP1 DIV PUSH20 0xFFFFFFFFFFFFFFFFFFFFFFFFFFFFFFFFFFFFFFFF AND PUSH20 0xFFFFFFFFFFFFFFFFFFFFFFFFFFFFFFFFFFFFFFFF AND PUSH4 0xFC57D4DF DUP8 PUSH1 0x40 MLOAD DUP3 PUSH4 0xFFFFFFFF AND PUSH1 0xE0 SHL DUP2 MSTORE PUSH1 0x4 ADD PUSH2 0x4042 SWAP2 SWAP1 PUSH2 0x8046 JUMP JUMPDEST PUSH1 0x20 PUSH1 0x40 MLOAD DUP1 DUP4 SUB DUP2 DUP7 GAS STATICCALL ISZERO DUP1 ISZERO PUSH2 0x405D JUMPI RETURNDATASIZE PUSH0 DUP1 RETURNDATACOPY RETURNDATASIZE PUSH0 REVERT JUMPDEST POP POP POP POP PUSH1 0x40 MLOAD RETURNDATASIZE PUSH1 0x1F NOT PUSH1 0x1F DUP3 ADD AND DUP3 ADD DUP1 PUSH1 0x40 MSTORE POP DUP2 ADD SWAP1 PUSH2 0x4081 SWAP2 SWAP1 PUSH2 0x8DDC JUMP JUMPDEST SWAP1 POP PUSH0 DUP3 EQ DUP1 PUSH2 0x4090 JUMPI POP PUSH0 DUP2 EQ JUMPDEST ISZERO PUSH2 0x40B5 JUMPI PUSH1 0xD PUSH1 0x11 DUP2 GT ISZERO PUSH2 0x40A9 JUMPI PUSH2 0x40A8 PUSH2 0x8E6F JUMP JUMPDEST JUMPDEST PUSH0 SWAP4 POP SWAP4 POP POP POP PUSH2 0x41C8 JUMP JUMPDEST PUSH0 DUP7 PUSH20 0xFFFFFFFFFFFFFFFFFFFFFFFFFFFFFFFFFFFFFFFF AND PUSH4 0x182DF0F5 PUSH1 0x40 MLOAD DUP2 PUSH4 0xFFFFFFFF AND PUSH1 0xE0 SHL DUP2 MSTORE PUSH1 0x4 ADD PUSH1 0x20 PUSH1 0x40 MLOAD DUP1 DUP4 SUB DUP2 DUP7 GAS STATICCALL ISZERO DUP1 ISZERO PUSH2 0x40FF JUMPI RETURNDATASIZE PUSH0 DUP1 RETURNDATACOPY RETURNDATASIZE PUSH0 REVERT JUMPDEST POP POP POP POP PUSH1 0x40 MLOAD RETURNDATASIZE PUSH1 0x1F NOT PUSH1 0x1F DUP3 ADD AND DUP3 ADD DUP1 PUSH1 0x40 MSTORE POP DUP2 ADD SWAP1 PUSH2 0x4123 SWAP2 SWAP1 PUSH2 0x8DDC JUMP JUMPDEST SWAP1 POP PUSH0 PUSH2 0x412E PUSH2 0x7745 JUMP JUMPDEST PUSH2 0x4136 PUSH2 0x7745 JUMP JUMPDEST PUSH2 0x413E PUSH2 0x7745 JUMP JUMPDEST PUSH2 0x4166 PUSH1 0x40 MLOAD DUP1 PUSH1 0x20 ADD PUSH1 0x40 MSTORE DUP1 PUSH1 0x6 SLOAD DUP2 MSTORE POP PUSH1 0x40 MLOAD DUP1 PUSH1 0x20 ADD PUSH1 0x40 MSTORE DUP1 DUP11 DUP2 MSTORE POP PUSH2 0x7427 JUMP JUMPDEST SWAP3 POP PUSH2 0x418E PUSH1 0x40 MLOAD DUP1 PUSH1 0x20 ADD PUSH1 0x40 MSTORE DUP1 DUP9 DUP2 MSTORE POP PUSH1 0x40 MLOAD DUP1 PUSH1 0x20 ADD PUSH1 0x40 MSTORE DUP1 DUP9 DUP2 MSTORE POP PUSH2 0x7427 JUMP JUMPDEST SWAP2 POP PUSH2 0x419A DUP4 DUP4 PUSH2 0x7468 JUMP JUMPDEST SWAP1 POP PUSH2 0x41A6 DUP2 DUP12 PUSH2 0x69E2 JUMP JUMPDEST SWAP4 POP PUSH0 PUSH1 0x11 DUP2 GT ISZERO PUSH2 0x41BB JUMPI PUSH2 0x41BA PUSH2 0x8E6F JUMP JUMPDEST JUMPDEST DUP5 SWAP9 POP SWAP9 POP POP POP POP POP POP POP POP JUMPDEST SWAP4 POP SWAP4 SWAP2 POP POP JUMP JUMPDEST PUSH1 0x13 PUSH1 0x20 MSTORE DUP2 PUSH0 MSTORE PUSH1 0x40 PUSH0 KECCAK256 PUSH1 0x20 MSTORE DUP1 PUSH0 MSTORE PUSH1 0x40 PUSH0 KECCAK256 PUSH0 SWAP2 POP SWAP2 POP POP SLOAD DUP2 JUMP JUMPDEST PUSH1 0x14 PUSH1 0x20 MSTORE DUP1 PUSH0 MSTORE PUSH1 0x40 PUSH0 KECCAK256 PUSH0 SWAP2 POP SWAP1 POP SLOAD DUP2 JUMP JUMPDEST PUSH0 PUSH1 0xA PUSH1 0x17 SWAP1 SLOAD SWAP1 PUSH2 0x100 EXP SWAP1 DIV PUSH1 0xFF AND ISZERO PUSH2 0x4256 JUMPI PUSH1 0x40 MLOAD PUSH32 0x8C379A000000000000000000000000000000000000000000000000000000000 DUP2 MSTORE PUSH1 0x4 ADD PUSH2 0x424D SWAP1 PUSH2 0x96EA JUMP JUMPDEST PUSH1 0x40 MLOAD DUP1 SWAP2 SUB SWAP1 REVERT JUMPDEST PUSH1 0x9 PUSH0 DUP8 PUSH20 0xFFFFFFFFFFFFFFFFFFFFFFFFFFFFFFFFFFFFFFFF AND PUSH20 0xFFFFFFFFFFFFFFFFFFFFFFFFFFFFFFFFFFFFFFFF AND DUP2 MSTORE PUSH1 0x20 ADD SWAP1 DUP2 MSTORE PUSH1 0x20 ADD PUSH0 KECCAK256 PUSH0 ADD PUSH0 SWAP1 SLOAD SWAP1 PUSH2 0x100 EXP SWAP1 DIV PUSH1 0xFF AND ISZERO DUP1 PUSH2 0x42F7 JUMPI POP PUSH1 0x9 PUSH0 DUP7 PUSH20 0xFFFFFFFFFFFFFFFFFFFFFFFFFFFFFFFFFFFFFFFF AND PUSH20 0xFFFFFFFFFFFFFFFFFFFFFFFFFFFFFFFFFFFFFFFF AND DUP2 MSTORE PUSH1 0x20 ADD SWAP1 DUP2 MSTORE PUSH1 0x20 ADD PUSH0 KECCAK256 PUSH0 ADD PUSH0 SWAP1 SLOAD SWAP1 PUSH2 0x100 EXP SWAP1 DIV PUSH1 0xFF AND ISZERO JUMPDEST ISZERO PUSH2 0x4317 JUMPI PUSH1 0x9 PUSH1 0x11 DUP2 GT ISZERO PUSH2 0x4310 JUMPI PUSH2 0x430F PUSH2 0x8E6F JUMP JUMPDEST JUMPDEST SWAP1 POP PUSH2 0x4470 JUMP JUMPDEST DUP5 PUSH20 0xFFFFFFFFFFFFFFFFFFFFFFFFFFFFFFFFFFFFFFFF AND PUSH4 0x5FE3B567 PUSH1 0x40 MLOAD DUP2 PUSH4 0xFFFFFFFF AND PUSH1 0xE0 SHL DUP2 MSTORE PUSH1 0x4 ADD PUSH1 0x20 PUSH1 0x40 MLOAD DUP1 DUP4 SUB DUP2 DUP7 GAS STATICCALL ISZERO DUP1 ISZERO PUSH2 0x4360 JUMPI RETURNDATASIZE PUSH0 DUP1 RETURNDATACOPY RETURNDATASIZE PUSH0 REVERT JUMPDEST POP POP POP POP PUSH1 0x40 MLOAD RETURNDATASIZE PUSH1 0x1F NOT PUSH1 0x1F DUP3 ADD AND DUP3 ADD DUP1 PUSH1 0x40 MSTORE POP DUP2 ADD SWAP1 PUSH2 0x4384 SWAP2 SWAP1 PUSH2 0x9743 JUMP JUMPDEST PUSH20 0xFFFFFFFFFFFFFFFFFFFFFFFFFFFFFFFFFFFFFFFF AND DUP7 PUSH20 0xFFFFFFFFFFFFFFFFFFFFFFFFFFFFFFFFFFFFFFFF AND PUSH4 0x5FE3B567 PUSH1 0x40 MLOAD DUP2 PUSH4 0xFFFFFFFF AND PUSH1 0xE0 SHL DUP2 MSTORE PUSH1 0x4 ADD PUSH1 0x20 PUSH1 0x40 MLOAD DUP1 DUP4 SUB DUP2 DUP7 GAS STATICCALL ISZERO DUP1 ISZERO PUSH2 0x43E3 JUMPI RETURNDATASIZE PUSH0 DUP1 RETURNDATACOPY RETURNDATASIZE PUSH0 REVERT JUMPDEST POP POP POP POP PUSH1 0x40 MLOAD RETURNDATASIZE PUSH1 0x1F NOT PUSH1 0x1F DUP3 ADD AND DUP3 ADD DUP1 PUSH1 0x40 MSTORE POP DUP2 ADD SWAP1 PUSH2 0x4407 SWAP2 SWAP1 PUSH2 0x9743 JUMP JUMPDEST PUSH20 0xFFFFFFFFFFFFFFFFFFFFFFFFFFFFFFFFFFFFFFFF AND EQ PUSH2 0x443D JUMPI PUSH1 0x2 PUSH1 0x11 DUP2 GT ISZERO PUSH2 0x4436 JUMPI PUSH2 0x4435 PUSH2 0x8E6F JUMP JUMPDEST JUMPDEST SWAP1 POP PUSH2 0x4470 JUMP JUMPDEST PUSH2 0x4446 DUP7 PUSH2 0x62B6 JUMP JUMPDEST PUSH2 0x4450 DUP7 DUP5 PUSH2 0x65B3 JUMP JUMPDEST PUSH2 0x445A DUP7 DUP6 PUSH2 0x65B3 JUMP JUMPDEST PUSH0 PUSH1 0x11 DUP2 GT ISZERO PUSH2 0x446D JUMPI PUSH2 0x446C PUSH2 0x8E6F JUMP JUMPDEST JUMPDEST SWAP1 POP JUMPDEST SWAP6 SWAP5 POP POP POP POP POP JUMP JUMPDEST PUSH0 PUSH1 0xC PUSH0 DUP6 PUSH20 0xFFFFFFFFFFFFFFFFFFFFFFFFFFFFFFFFFFFFFFFF AND PUSH20 0xFFFFFFFFFFFFFFFFFFFFFFFFFFFFFFFFFFFFFFFF AND DUP2 MSTORE PUSH1 0x20 ADD SWAP1 DUP2 MSTORE PUSH1 0x20 ADD PUSH0 KECCAK256 PUSH0 SWAP1 SLOAD SWAP1 PUSH2 0x100 EXP SWAP1 DIV PUSH1 0xFF AND ISZERO PUSH2 0x4504 JUMPI PUSH1 0x40 MLOAD PUSH32 0x8C379A000000000000000000000000000000000000000000000000000000000 DUP2 MSTORE PUSH1 0x4 ADD PUSH2 0x44FB SWAP1 PUSH2 0x97B8 JUMP JUMPDEST PUSH1 0x40 MLOAD DUP1 SWAP2 SUB SWAP1 REVERT JUMPDEST PUSH1 0x9 PUSH0 DUP6 PUSH20 0xFFFFFFFFFFFFFFFFFFFFFFFFFFFFFFFFFFFFFFFF AND PUSH20 0xFFFFFFFFFFFFFFFFFFFFFFFFFFFFFFFFFFFFFFFF AND DUP2 MSTORE PUSH1 0x20 ADD SWAP1 DUP2 MSTORE PUSH1 0x20 ADD PUSH0 KECCAK256 PUSH0 ADD PUSH0 SWAP1 SLOAD SWAP1 PUSH2 0x100 EXP SWAP1 DIV PUSH1 0xFF AND PUSH2 0x456F JUMPI PUSH1 0x9 PUSH1 0x11 DUP2 GT ISZERO PUSH2 0x4568 JUMPI PUSH2 0x4567 PUSH2 0x8E6F JUMP JUMPDEST JUMPDEST SWAP1 POP PUSH2 0x4A45 JUMP JUMPDEST PUSH1 0x9 PUSH0 DUP6 PUSH20 0xFFFFFFFFFFFFFFFFFFFFFFFFFFFFFFFFFFFFFFFF AND PUSH20 0xFFFFFFFFFFFFFFFFFFFFFFFFFFFFFFFFFFFFFFFF AND DUP2 MSTORE PUSH1 0x20 ADD SWAP1 DUP2 MSTORE PUSH1 0x20 ADD PUSH0 KECCAK256 PUSH1 0x2 ADD PUSH0 DUP5 PUSH20 0xFFFFFFFFFFFFFFFFFFFFFFFFFFFFFFFFFFFFFFFF AND PUSH20 0xFFFFFFFFFFFFFFFFFFFFFFFFFFFFFFFFFFFFFFFF AND DUP2 MSTORE PUSH1 0x20 ADD SWAP1 DUP2 MSTORE PUSH1 0x20 ADD PUSH0 KECCAK256 PUSH0 SWAP1 SLOAD SWAP1 PUSH2 0x100 EXP SWAP1 DIV PUSH1 0xFF AND PUSH2 0x4753 JUMPI DUP4 PUSH20 0xFFFFFFFFFFFFFFFFFFFFFFFFFFFFFFFFFFFFFFFF AND CALLER PUSH20 0xFFFFFFFFFFFFFFFFFFFFFFFFFFFFFFFFFFFFFFFF AND EQ PUSH2 0x4669 JUMPI PUSH1 0x40 MLOAD PUSH32 0x8C379A000000000000000000000000000000000000000000000000000000000 DUP2 MSTORE PUSH1 0x4 ADD PUSH2 0x4660 SWAP1 PUSH2 0x9820 JUMP JUMPDEST PUSH1 0x40 MLOAD DUP1 SWAP2 SUB SWAP1 REVERT JUMPDEST PUSH0 PUSH2 0x4674 CALLER DUP6 PUSH2 0x7232 JUMP JUMPDEST SWAP1 POP PUSH0 PUSH1 0x11 DUP2 GT ISZERO PUSH2 0x4689 JUMPI PUSH2 0x4688 PUSH2 0x8E6F JUMP JUMPDEST JUMPDEST DUP2 PUSH1 0x11 DUP2 GT ISZERO PUSH2 0x469C JUMPI PUSH2 0x469B PUSH2 0x8E6F JUMP JUMPDEST JUMPDEST EQ PUSH2 0x46BC JUMPI DUP1 PUSH1 0x11 DUP2 GT ISZERO PUSH2 0x46B4 JUMPI PUSH2 0x46B3 PUSH2 0x8E6F JUMP JUMPDEST JUMPDEST SWAP2 POP POP PUSH2 0x4A45 JUMP JUMPDEST PUSH1 0x9 PUSH0 DUP7 PUSH20 0xFFFFFFFFFFFFFFFFFFFFFFFFFFFFFFFFFFFFFFFF AND PUSH20 0xFFFFFFFFFFFFFFFFFFFFFFFFFFFFFFFFFFFFFFFF AND DUP2 MSTORE PUSH1 0x20 ADD SWAP1 DUP2 MSTORE PUSH1 0x20 ADD PUSH0 KECCAK256 PUSH1 0x2 ADD PUSH0 DUP6 PUSH20 0xFFFFFFFFFFFFFFFFFFFFFFFFFFFFFFFFFFFFFFFF AND PUSH20 0xFFFFFFFFFFFFFFFFFFFFFFFFFFFFFFFFFFFFFFFF AND DUP2 MSTORE PUSH1 0x20 ADD SWAP1 DUP2 MSTORE PUSH1 0x20 ADD PUSH0 KECCAK256 PUSH0 SWAP1 SLOAD SWAP1 PUSH2 0x100 EXP SWAP1 DIV PUSH1 0xFF AND PUSH2 0x4751 JUMPI PUSH2 0x4750 PUSH2 0x983E JUMP JUMPDEST JUMPDEST POP JUMPDEST PUSH0 PUSH1 0x4 PUSH0 SWAP1 SLOAD SWAP1 PUSH2 0x100 EXP SWAP1 DIV PUSH20 0xFFFFFFFFFFFFFFFFFFFFFFFFFFFFFFFFFFFFFFFF AND PUSH20 0xFFFFFFFFFFFFFFFFFFFFFFFFFFFFFFFFFFFFFFFF AND PUSH4 0xFC57D4DF DUP7 PUSH1 0x40 MLOAD DUP3 PUSH4 0xFFFFFFFF AND PUSH1 0xE0 SHL DUP2 MSTORE PUSH1 0x4 ADD PUSH2 0x47AE SWAP2 SWAP1 PUSH2 0x8046 JUMP JUMPDEST PUSH1 0x20 PUSH1 0x40 MLOAD DUP1 DUP4 SUB DUP2 DUP7 GAS STATICCALL ISZERO DUP1 ISZERO PUSH2 0x47C9 JUMPI RETURNDATASIZE PUSH0 DUP1 RETURNDATACOPY RETURNDATASIZE PUSH0 REVERT JUMPDEST POP POP POP POP PUSH1 0x40 MLOAD RETURNDATASIZE PUSH1 0x1F NOT PUSH1 0x1F DUP3 ADD AND DUP3 ADD DUP1 PUSH1 0x40 MSTORE POP DUP2 ADD SWAP1 PUSH2 0x47ED SWAP2 SWAP1 PUSH2 0x8DDC JUMP JUMPDEST SUB PUSH2 0x480D JUMPI PUSH1 0xD PUSH1 0x11 DUP2 GT ISZERO PUSH2 0x4806 JUMPI PUSH2 0x4805 PUSH2 0x8E6F JUMP JUMPDEST JUMPDEST SWAP1 POP PUSH2 0x4A45 JUMP JUMPDEST PUSH0 PUSH1 0x16 PUSH0 DUP7 PUSH20 0xFFFFFFFFFFFFFFFFFFFFFFFFFFFFFFFFFFFFFFFF AND PUSH20 0xFFFFFFFFFFFFFFFFFFFFFFFFFFFFFFFFFFFFFFFF AND DUP2 MSTORE PUSH1 0x20 ADD SWAP1 DUP2 MSTORE PUSH1 0x20 ADD PUSH0 KECCAK256 SLOAD SWAP1 POP PUSH0 DUP2 EQ PUSH2 0x4917 JUMPI PUSH0 DUP6 PUSH20 0xFFFFFFFFFFFFFFFFFFFFFFFFFFFFFFFFFFFFFFFF AND PUSH4 0x47BD3718 PUSH1 0x40 MLOAD DUP2 PUSH4 0xFFFFFFFF AND PUSH1 0xE0 SHL DUP2 MSTORE PUSH1 0x4 ADD PUSH1 0x20 PUSH1 0x40 MLOAD DUP1 DUP4 SUB DUP2 DUP7 GAS STATICCALL ISZERO DUP1 ISZERO PUSH2 0x489F JUMPI RETURNDATASIZE PUSH0 DUP1 RETURNDATACOPY RETURNDATASIZE PUSH0 REVERT JUMPDEST POP POP POP POP PUSH1 0x40 MLOAD RETURNDATASIZE PUSH1 0x1F NOT PUSH1 0x1F DUP3 ADD AND DUP3 ADD DUP1 PUSH1 0x40 MSTORE POP DUP2 ADD SWAP1 PUSH2 0x48C3 SWAP2 SWAP1 PUSH2 0x8DDC JUMP JUMPDEST SWAP1 POP PUSH0 PUSH2 0x48D0 DUP3 DUP7 PUSH2 0x5344 JUMP JUMPDEST SWAP1 POP DUP3 DUP2 LT PUSH2 0x4914 JUMPI PUSH1 0x40 MLOAD PUSH32 0x8C379A000000000000000000000000000000000000000000000000000000000 DUP2 MSTORE PUSH1 0x4 ADD PUSH2 0x490B SWAP1 PUSH2 0x98B5 JUMP JUMPDEST PUSH1 0x40 MLOAD DUP1 SWAP2 SUB SWAP1 REVERT JUMPDEST POP POP JUMPDEST PUSH0 DUP1 PUSH2 0x4925 DUP7 DUP9 PUSH0 DUP9 PUSH2 0x5BF0 JUMP JUMPDEST SWAP3 POP POP SWAP2 POP PUSH0 PUSH1 0x11 DUP2 GT ISZERO PUSH2 0x493D JUMPI PUSH2 0x493C PUSH2 0x8E6F JUMP JUMPDEST JUMPDEST DUP3 PUSH1 0x11 DUP2 GT ISZERO PUSH2 0x4950 JUMPI PUSH2 0x494F PUSH2 0x8E6F JUMP JUMPDEST JUMPDEST EQ PUSH2 0x4972 JUMPI DUP2 PUSH1 0x11 DUP2 GT ISZERO PUSH2 0x4968 JUMPI PUSH2 0x4967 PUSH2 0x8E6F JUMP JUMPDEST JUMPDEST SWAP4 POP POP POP POP PUSH2 0x4A45 JUMP JUMPDEST PUSH0 DUP2 GT ISZERO PUSH2 0x4998 JUMPI PUSH1 0x4 PUSH1 0x11 DUP2 GT ISZERO PUSH2 0x498E JUMPI PUSH2 0x498D PUSH2 0x8E6F JUMP JUMPDEST JUMPDEST SWAP4 POP POP POP POP PUSH2 0x4A45 JUMP JUMPDEST PUSH0 PUSH1 0x40 MLOAD DUP1 PUSH1 0x20 ADD PUSH1 0x40 MSTORE DUP1 DUP10 PUSH20 0xFFFFFFFFFFFFFFFFFFFFFFFFFFFFFFFFFFFFFFFF AND PUSH4 0xAA5AF0FD PUSH1 0x40 MLOAD DUP2 PUSH4 0xFFFFFFFF AND PUSH1 0xE0 SHL DUP2 MSTORE PUSH1 0x4 ADD PUSH1 0x20 PUSH1 0x40 MLOAD DUP1 DUP4 SUB DUP2 DUP7 GAS STATICCALL ISZERO DUP1 ISZERO PUSH2 0x49ED JUMPI RETURNDATASIZE PUSH0 DUP1 RETURNDATACOPY RETURNDATASIZE PUSH0 REVERT JUMPDEST POP POP POP POP PUSH1 0x40 MLOAD RETURNDATASIZE PUSH1 0x1F NOT PUSH1 0x1F DUP3 ADD AND DUP3 ADD DUP1 PUSH1 0x40 MSTORE POP DUP2 ADD SWAP1 PUSH2 0x4A11 SWAP2 SWAP1 PUSH2 0x8DDC JUMP JUMPDEST DUP2 MSTORE POP SWAP1 POP PUSH2 0x4A20 DUP9 DUP3 PUSH2 0x536E JUMP JUMPDEST PUSH2 0x4A2B DUP9 DUP9 DUP4 PUSH2 0x5675 JUMP JUMPDEST PUSH0 PUSH1 0x11 DUP2 GT ISZERO PUSH2 0x4A3E JUMPI PUSH2 0x4A3D PUSH2 0x8E6F JUMP JUMPDEST JUMPDEST SWAP5 POP POP POP POP POP JUMPDEST SWAP4 SWAP3 POP POP POP JUMP JUMPDEST PUSH1 0x8 PUSH1 0x20 MSTORE DUP2 PUSH0 MSTORE PUSH1 0x40 PUSH0 KECCAK256 DUP2 DUP2 SLOAD DUP2 LT PUSH2 0x4A65 JUMPI PUSH0 DUP1 REVERT JUMPDEST SWAP1 PUSH0 MSTORE PUSH1 0x20 PUSH0 KECCAK256 ADD PUSH0 SWAP2 POP SWAP2 POP SWAP1 SLOAD SWAP1 PUSH2 0x100 EXP SWAP1 DIV PUSH20 0xFFFFFFFFFFFFFFFFFFFFFFFFFFFFFFFFFFFFFFFF AND DUP2 JUMP JUMPDEST PUSH1 0x3 PUSH0 SWAP1 SLOAD SWAP1 PUSH2 0x100 EXP SWAP1 DIV PUSH20 0xFFFFFFFFFFFFFFFFFFFFFFFFFFFFFFFFFFFFFFFF AND DUP2 JUMP JUMPDEST PUSH0 DUP1 PUSH0 SWAP1 SLOAD SWAP1 PUSH2 0x100 EXP SWAP1 DIV PUSH20 0xFFFFFFFFFFFFFFFFFFFFFFFFFFFFFFFFFFFFFFFF AND PUSH20 0xFFFFFFFFFFFFFFFFFFFFFFFFFFFFFFFFFFFFFFFF AND CALLER PUSH20 0xFFFFFFFFFFFFFFFFFFFFFFFFFFFFFFFFFFFFFFFF AND EQ PUSH2 0x4B20 JUMPI PUSH2 0x4B19 PUSH1 0x1 PUSH1 0x6 PUSH2 0x694B JUMP JUMPDEST SWAP1 POP PUSH2 0x4D01 JUMP JUMPDEST PUSH0 PUSH1 0x9 PUSH0 DUP6 PUSH20 0xFFFFFFFFFFFFFFFFFFFFFFFFFFFFFFFFFFFFFFFF AND PUSH20 0xFFFFFFFFFFFFFFFFFFFFFFFFFFFFFFFFFFFFFFFF AND DUP2 MSTORE PUSH1 0x20 ADD SWAP1 DUP2 MSTORE PUSH1 0x20 ADD PUSH0 KECCAK256 SWAP1 POP DUP1 PUSH0 ADD PUSH0 SWAP1 SLOAD SWAP1 PUSH2 0x100 EXP SWAP1 DIV PUSH1 0xFF AND PUSH2 0x4B88 JUMPI PUSH2 0x4B80 PUSH1 0x9 PUSH1 0x7 PUSH2 0x694B JUMP JUMPDEST SWAP2 POP POP PUSH2 0x4D01 JUMP JUMPDEST PUSH0 PUSH1 0x40 MLOAD DUP1 PUSH1 0x20 ADD PUSH1 0x40 MSTORE DUP1 DUP6 DUP2 MSTORE POP SWAP1 POP PUSH0 PUSH1 0x40 MLOAD DUP1 PUSH1 0x20 ADD PUSH1 0x40 MSTORE DUP1 PUSH8 0xC7D713B49DA0000 DUP2 MSTORE POP SWAP1 POP PUSH2 0x4BBE DUP2 DUP4 PUSH2 0x74A7 JUMP JUMPDEST ISZERO PUSH2 0x4BD9 JUMPI PUSH2 0x4BCF PUSH1 0x6 PUSH1 0x8 PUSH2 0x694B JUMP JUMPDEST SWAP4 POP POP POP POP PUSH2 0x4D01 JUMP JUMPDEST PUSH0 DUP6 EQ ISZERO DUP1 ISZERO PUSH2 0x4C80 JUMPI POP PUSH0 PUSH1 0x4 PUSH0 SWAP1 SLOAD SWAP1 PUSH2 0x100 EXP SWAP1 DIV PUSH20 0xFFFFFFFFFFFFFFFFFFFFFFFFFFFFFFFFFFFFFFFF AND PUSH20 0xFFFFFFFFFFFFFFFFFFFFFFFFFFFFFFFFFFFFFFFF AND PUSH4 0xFC57D4DF DUP9 PUSH1 0x40 MLOAD DUP3 PUSH4 0xFFFFFFFF AND PUSH1 0xE0 SHL DUP2 MSTORE PUSH1 0x4 ADD PUSH2 0x4C3F SWAP2 SWAP1 PUSH2 0x8046 JUMP JUMPDEST PUSH1 0x20 PUSH1 0x40 MLOAD DUP1 DUP4 SUB DUP2 DUP7 GAS STATICCALL ISZERO DUP1 ISZERO PUSH2 0x4C5A JUMPI RETURNDATASIZE PUSH0 DUP1 RETURNDATACOPY RETURNDATASIZE PUSH0 REVERT JUMPDEST POP POP POP POP PUSH1 0x40 MLOAD RETURNDATASIZE PUSH1 0x1F NOT PUSH1 0x1F DUP3 ADD AND DUP3 ADD DUP1 PUSH1 0x40 MSTORE POP DUP2 ADD SWAP1 PUSH2 0x4C7E SWAP2 SWAP1 PUSH2 0x8DDC JUMP JUMPDEST EQ JUMPDEST ISZERO PUSH2 0x4C9B JUMPI PUSH2 0x4C91 PUSH1 0xD PUSH1 0x9 PUSH2 0x694B JUMP JUMPDEST SWAP4 POP POP POP POP PUSH2 0x4D01 JUMP JUMPDEST PUSH0 DUP4 PUSH1 0x1 ADD SLOAD SWAP1 POP DUP6 DUP5 PUSH1 0x1 ADD DUP2 SWAP1 SSTORE POP PUSH32 0x70483E6592CD5182D45AC970E05BC62CDCC90E9D8EF2C2DBE686CF383BCD7FC5 DUP8 DUP3 DUP9 PUSH1 0x40 MLOAD PUSH2 0x4CDF SWAP4 SWAP3 SWAP2 SWAP1 PUSH2 0x98D3 JUMP JUMPDEST PUSH1 0x40 MLOAD DUP1 SWAP2 SUB SWAP1 LOG1 PUSH0 PUSH1 0x11 DUP2 GT ISZERO PUSH2 0x4CFA JUMPI PUSH2 0x4CF9 PUSH2 0x8E6F JUMP JUMPDEST JUMPDEST SWAP5 POP POP POP POP POP JUMPDEST SWAP3 SWAP2 POP POP JUMP JUMPDEST PUSH1 0xA PUSH1 0x15 SWAP1 SLOAD SWAP1 PUSH2 0x100 EXP SWAP1 DIV PUSH1 0xFF AND DUP2 JUMP JUMPDEST PUSH1 0x5 SLOAD DUP2 JUMP JUMPDEST PUSH2 0x4DAD DUP2 PUSH1 0xD DUP1 SLOAD DUP1 PUSH1 0x20 MUL PUSH1 0x20 ADD PUSH1 0x40 MLOAD SWAP1 DUP2 ADD PUSH1 0x40 MSTORE DUP1 SWAP3 SWAP2 SWAP1 DUP2 DUP2 MSTORE PUSH1 0x20 ADD DUP3 DUP1 SLOAD DUP1 ISZERO PUSH2 0x4DA3 JUMPI PUSH1 0x20 MUL DUP3 ADD SWAP2 SWAP1 PUSH0 MSTORE PUSH1 0x20 PUSH0 KECCAK256 SWAP1 JUMPDEST DUP2 PUSH0 SWAP1 SLOAD SWAP1 PUSH2 0x100 EXP SWAP1 DIV PUSH20 0xFFFFFFFFFFFFFFFFFFFFFFFFFFFFFFFFFFFFFFFF AND PUSH20 0xFFFFFFFFFFFFFFFFFFFFFFFFFFFFFFFFFFFFFFFF AND DUP2 MSTORE PUSH1 0x20 ADD SWAP1 PUSH1 0x1 ADD SWAP1 DUP1 DUP4 GT PUSH2 0x4D5A JUMPI JUMPDEST POP POP POP POP POP PUSH2 0x171A JUMP JUMPDEST POP JUMP JUMPDEST PUSH0 DUP1 PUSH2 0x4DBD DUP6 DUP6 DUP6 PUSH2 0x7082 JUMP JUMPDEST SWAP1 POP PUSH0 PUSH1 0x11 DUP2 GT ISZERO PUSH2 0x4DD2 JUMPI PUSH2 0x4DD1 PUSH2 0x8E6F JUMP JUMPDEST JUMPDEST DUP2 EQ PUSH2 0x4DE1 JUMPI DUP1 SWAP2 POP POP PUSH2 0x4E14 JUMP JUMPDEST PUSH2 0x4DEA DUP6 PUSH2 0x62B6 JUMP JUMPDEST PUSH2 0x4DF4 DUP6 DUP6 PUSH2 0x65B3 JUMP JUMPDEST PUSH2 0x4DFD DUP6 PUSH2 0x6029 JUMP JUMPDEST PUSH0 PUSH1 0x11 DUP2 GT ISZERO PUSH2 0x4E10 JUMPI PUSH2 0x4E0F PUSH2 0x8E6F JUMP JUMPDEST JUMPDEST SWAP2 POP POP JUMPDEST SWAP4 SWAP3 POP POP POP JUMP JUMPDEST PUSH0 DUP1 DUP3 SWAP1 POP PUSH0 DUP1 PUSH0 DUP4 PUSH20 0xFFFFFFFFFFFFFFFFFFFFFFFFFFFFFFFFFFFFFFFF AND PUSH4 0xC37F68E2 CALLER PUSH1 0x40 MLOAD DUP3 PUSH4 0xFFFFFFFF AND PUSH1 0xE0 SHL DUP2 MSTORE PUSH1 0x4 ADD PUSH2 0x4E5C SWAP2 SWAP1 PUSH2 0x7D68 JUMP JUMPDEST PUSH1 0x80 PUSH1 0x40 MLOAD DUP1 DUP4 SUB DUP2 DUP7 GAS STATICCALL ISZERO DUP1 ISZERO PUSH2 0x4E77 JUMPI RETURNDATASIZE PUSH0 DUP1 RETURNDATACOPY RETURNDATASIZE PUSH0 REVERT JUMPDEST POP POP POP POP PUSH1 0x40 MLOAD RETURNDATASIZE PUSH1 0x1F NOT PUSH1 0x1F DUP3 ADD AND DUP3 ADD DUP1 PUSH1 0x40 MSTORE POP DUP2 ADD SWAP1 PUSH2 0x4E9B SWAP2 SWAP1 PUSH2 0x9908 JUMP JUMPDEST POP SWAP3 POP SWAP3 POP SWAP3 POP PUSH0 DUP4 EQ PUSH2 0x4EE4 JUMPI PUSH1 0x40 MLOAD PUSH32 0x8C379A000000000000000000000000000000000000000000000000000000000 DUP2 MSTORE PUSH1 0x4 ADD PUSH2 0x4EDB SWAP1 PUSH2 0x99DC JUMP JUMPDEST PUSH1 0x40 MLOAD DUP1 SWAP2 SUB SWAP1 REVERT JUMPDEST PUSH0 DUP2 EQ PUSH2 0x4F02 JUMPI PUSH2 0x4EF7 PUSH1 0xC PUSH1 0x2 PUSH2 0x694B JUMP JUMPDEST SWAP5 POP POP POP POP POP PUSH2 0x52F5 JUMP JUMPDEST PUSH0 PUSH2 0x4F0E DUP8 CALLER DUP6 PUSH2 0x7082 JUMP JUMPDEST SWAP1 POP PUSH0 DUP2 EQ PUSH2 0x4F30 JUMPI PUSH2 0x4F24 PUSH1 0xE PUSH1 0x3 DUP4 PUSH2 0x74B9 JUMP JUMPDEST SWAP6 POP POP POP POP POP POP PUSH2 0x52F5 JUMP JUMPDEST PUSH0 PUSH1 0x9 PUSH0 DUP8 PUSH20 0xFFFFFFFFFFFFFFFFFFFFFFFFFFFFFFFFFFFFFFFF AND PUSH20 0xFFFFFFFFFFFFFFFFFFFFFFFFFFFFFFFFFFFFFFFF AND DUP2 MSTORE PUSH1 0x20 ADD SWAP1 DUP2 MSTORE PUSH1 0x20 ADD PUSH0 KECCAK256 SWAP1 POP DUP1 PUSH1 0x2 ADD PUSH0 CALLER PUSH20 0xFFFFFFFFFFFFFFFFFFFFFFFFFFFFFFFFFFFFFFFF AND PUSH20 0xFFFFFFFFFFFFFFFFFFFFFFFFFFFFFFFFFFFFFFFF AND DUP2 MSTORE PUSH1 0x20 ADD SWAP1 DUP2 MSTORE PUSH1 0x20 ADD PUSH0 KECCAK256 PUSH0 SWAP1 SLOAD SWAP1 PUSH2 0x100 EXP SWAP1 DIV PUSH1 0xFF AND PUSH2 0x4FE0 JUMPI PUSH0 PUSH1 0x11 DUP2 GT ISZERO PUSH2 0x4FD3 JUMPI PUSH2 0x4FD2 PUSH2 0x8E6F JUMP JUMPDEST JUMPDEST SWAP7 POP POP POP POP POP POP POP PUSH2 0x52F5 JUMP JUMPDEST DUP1 PUSH1 0x2 ADD PUSH0 CALLER PUSH20 0xFFFFFFFFFFFFFFFFFFFFFFFFFFFFFFFFFFFFFFFF AND PUSH20 0xFFFFFFFFFFFFFFFFFFFFFFFFFFFFFFFFFFFFFFFF AND DUP2 MSTORE PUSH1 0x20 ADD SWAP1 DUP2 MSTORE PUSH1 0x20 ADD PUSH0 KECCAK256 PUSH0 PUSH2 0x100 EXP DUP2 SLOAD SWAP1 PUSH1 0xFF MUL NOT AND SWAP1 SSTORE PUSH0 PUSH1 0x8 PUSH0 CALLER PUSH20 0xFFFFFFFFFFFFFFFFFFFFFFFFFFFFFFFFFFFFFFFF AND PUSH20 0xFFFFFFFFFFFFFFFFFFFFFFFFFFFFFFFFFFFFFFFF AND DUP2 MSTORE PUSH1 0x20 ADD SWAP1 DUP2 MSTORE PUSH1 0x20 ADD PUSH0 KECCAK256 DUP1 SLOAD DUP1 PUSH1 0x20 MUL PUSH1 0x20 ADD PUSH1 0x40 MLOAD SWAP1 DUP2 ADD PUSH1 0x40 MSTORE DUP1 SWAP3 SWAP2 SWAP1 DUP2 DUP2 MSTORE PUSH1 0x20 ADD DUP3 DUP1 SLOAD DUP1 ISZERO PUSH2 0x50E9 JUMPI PUSH1 0x20 MUL DUP3 ADD SWAP2 SWAP1 PUSH0 MSTORE PUSH1 0x20 PUSH0 KECCAK256 SWAP1 JUMPDEST DUP2 PUSH0 SWAP1 SLOAD SWAP1 PUSH2 0x100 EXP SWAP1 DIV PUSH20 0xFFFFFFFFFFFFFFFFFFFFFFFFFFFFFFFFFFFFFFFF AND PUSH20 0xFFFFFFFFFFFFFFFFFFFFFFFFFFFFFFFFFFFFFFFF AND DUP2 MSTORE PUSH1 0x20 ADD SWAP1 PUSH1 0x1 ADD SWAP1 DUP1 DUP4 GT PUSH2 0x50A0 JUMPI JUMPDEST POP POP POP POP POP SWAP1 POP PUSH0 DUP2 MLOAD SWAP1 POP PUSH0 DUP2 SWAP1 POP PUSH0 JUMPDEST DUP3 DUP2 LT ISZERO PUSH2 0x5165 JUMPI DUP10 PUSH20 0xFFFFFFFFFFFFFFFFFFFFFFFFFFFFFFFFFFFFFFFF AND DUP5 DUP3 DUP2 MLOAD DUP2 LT PUSH2 0x512D JUMPI PUSH2 0x512C PUSH2 0x8A66 JUMP JUMPDEST JUMPDEST PUSH1 0x20 MUL PUSH1 0x20 ADD ADD MLOAD PUSH20 0xFFFFFFFFFFFFFFFFFFFFFFFFFFFFFFFFFFFFFFFF AND SUB PUSH2 0x5158 JUMPI DUP1 SWAP2 POP PUSH2 0x5165 JUMP JUMPDEST DUP1 DUP1 PUSH1 0x1 ADD SWAP2 POP POP PUSH2 0x50FB JUMP JUMPDEST POP DUP2 DUP2 LT PUSH2 0x5176 JUMPI PUSH2 0x5175 PUSH2 0x983E JUMP JUMPDEST JUMPDEST PUSH0 PUSH1 0x8 PUSH0 CALLER PUSH20 0xFFFFFFFFFFFFFFFFFFFFFFFFFFFFFFFFFFFFFFFF AND PUSH20 0xFFFFFFFFFFFFFFFFFFFFFFFFFFFFFFFFFFFFFFFF AND DUP2 MSTORE PUSH1 0x20 ADD SWAP1 DUP2 MSTORE PUSH1 0x20 ADD PUSH0 KECCAK256 SWAP1 POP DUP1 PUSH1 0x1 DUP3 DUP1 SLOAD SWAP1 POP PUSH2 0x51C8 SWAP2 SWAP1 PUSH2 0x8AC0 JUMP JUMPDEST DUP2 SLOAD DUP2 LT PUSH2 0x51D9 JUMPI PUSH2 0x51D8 PUSH2 0x8A66 JUMP JUMPDEST JUMPDEST SWAP1 PUSH0 MSTORE PUSH1 0x20 PUSH0 KECCAK256 ADD PUSH0 SWAP1 SLOAD SWAP1 PUSH2 0x100 EXP SWAP1 DIV PUSH20 0xFFFFFFFFFFFFFFFFFFFFFFFFFFFFFFFFFFFFFFFF AND DUP2 DUP4 DUP2 SLOAD DUP2 LT PUSH2 0x5214 JUMPI PUSH2 0x5213 PUSH2 0x8A66 JUMP JUMPDEST JUMPDEST SWAP1 PUSH0 MSTORE PUSH1 0x20 PUSH0 KECCAK256 ADD PUSH0 PUSH2 0x100 EXP DUP2 SLOAD DUP2 PUSH20 0xFFFFFFFFFFFFFFFFFFFFFFFFFFFFFFFFFFFFFFFF MUL NOT AND SWAP1 DUP4 PUSH20 0xFFFFFFFFFFFFFFFFFFFFFFFFFFFFFFFFFFFFFFFF AND MUL OR SWAP1 SSTORE POP DUP1 DUP1 SLOAD DUP1 PUSH2 0x526A JUMPI PUSH2 0x5269 PUSH2 0x99FA JUMP JUMPDEST JUMPDEST PUSH1 0x1 SWAP1 SUB DUP2 DUP2 SWAP1 PUSH0 MSTORE PUSH1 0x20 PUSH0 KECCAK256 ADD PUSH0 PUSH2 0x100 EXP DUP2 SLOAD SWAP1 PUSH20 0xFFFFFFFFFFFFFFFFFFFFFFFFFFFFFFFFFFFFFFFF MUL NOT AND SWAP1 SSTORE SWAP1 SSTORE PUSH32 0xE699A64C18B07AC5B7301AA273F36A2287239EB9501D81950672794AFBA29A0D DUP11 CALLER PUSH1 0x40 MLOAD PUSH2 0x52CD SWAP3 SWAP2 SWAP1 PUSH2 0x9A27 JUMP JUMPDEST PUSH1 0x40 MLOAD DUP1 SWAP2 SUB SWAP1 LOG1 PUSH0 PUSH1 0x11 DUP2 GT ISZERO PUSH2 0x52E8 JUMPI PUSH2 0x52E7 PUSH2 0x8E6F JUMP JUMPDEST JUMPDEST SWAP11 POP POP POP POP POP POP POP POP POP POP POP JUMPDEST SWAP2 SWAP1 POP JUMP JUMPDEST PUSH1 0x1B PUSH0 SWAP1 SLOAD SWAP1 PUSH2 0x100 EXP SWAP1 DIV PUSH1 0xFF AND DUP2 JUMP JUMPDEST PUSH1 0x19 PUSH1 0x20 MSTORE DUP1 PUSH0 MSTORE PUSH1 0x40 PUSH0 KECCAK256 PUSH0 SWAP2 POP SWAP1 POP SLOAD DUP2 JUMP JUMPDEST PUSH0 DUP1 SLOAD SWAP1 PUSH2 0x100 EXP SWAP1 DIV PUSH20 0xFFFFFFFFFFFFFFFFFFFFFFFFFFFFFFFFFFFFFFFF AND DUP2 JUMP JUMPDEST PUSH0 DUP2 DUP4 PUSH2 0x5351 SWAP2 SWAP1 PUSH2 0x9A4E JUMP JUMPDEST SWAP1 POP SWAP3 SWAP2 POP POP JUMP JUMPDEST PUSH0 DUP2 DUP4 PUSH2 0x5366 SWAP2 SWAP1 PUSH2 0x8AC0 JUMP JUMPDEST SWAP1 POP SWAP3 SWAP2 POP POP JUMP JUMPDEST PUSH0 PUSH1 0x11 PUSH0 DUP5 PUSH20 0xFFFFFFFFFFFFFFFFFFFFFFFFFFFFFFFFFFFFFFFF AND PUSH20 0xFFFFFFFFFFFFFFFFFFFFFFFFFFFFFFFFFFFFFFFF AND DUP2 MSTORE PUSH1 0x20 ADD SWAP1 DUP2 MSTORE PUSH1 0x20 ADD PUSH0 KECCAK256 SWAP1 POP PUSH0 PUSH1 0x19 PUSH0 DUP6 PUSH20 0xFFFFFFFFFFFFFFFFFFFFFFFFFFFFFFFFFFFFFFFF AND PUSH20 0xFFFFFFFFFFFFFFFFFFFFFFFFFFFFFFFFFFFFFFFF AND DUP2 MSTORE PUSH1 0x20 ADD SWAP1 DUP2 MSTORE PUSH1 0x20 ADD PUSH0 KECCAK256 SLOAD SWAP1 POP PUSH0 PUSH2 0x5436 PUSH2 0x53FB PUSH2 0x22A6 JUMP JUMPDEST PUSH1 0x40 MLOAD DUP1 PUSH1 0x40 ADD PUSH1 0x40 MSTORE DUP1 PUSH1 0x1C DUP2 MSTORE PUSH1 0x20 ADD PUSH32 0x626C6F636B206E756D6265722065786365656473203332206269747300000000 DUP2 MSTORE POP PUSH2 0x7535 JUMP JUMPDEST SWAP1 POP PUSH0 PUSH2 0x5462 DUP3 PUSH4 0xFFFFFFFF AND DUP6 PUSH0 ADD PUSH1 0x1C SWAP1 SLOAD SWAP1 PUSH2 0x100 EXP SWAP1 DIV PUSH4 0xFFFFFFFF AND PUSH4 0xFFFFFFFF AND PUSH2 0x5359 JUMP JUMPDEST SWAP1 POP PUSH0 DUP2 GT DUP1 ISZERO PUSH2 0x5472 JUMPI POP PUSH0 DUP4 GT JUMPDEST ISZERO PUSH2 0x5641 JUMPI PUSH0 PUSH2 0x54EE DUP8 PUSH20 0xFFFFFFFFFFFFFFFFFFFFFFFFFFFFFFFFFFFFFFFF AND PUSH4 0x47BD3718 PUSH1 0x40 MLOAD DUP2 PUSH4 0xFFFFFFFF AND PUSH1 0xE0 SHL DUP2 MSTORE PUSH1 0x4 ADD PUSH1 0x20 PUSH1 0x40 MLOAD DUP1 DUP4 SUB DUP2 DUP7 GAS STATICCALL ISZERO DUP1 ISZERO PUSH2 0x54C4 JUMPI RETURNDATASIZE PUSH0 DUP1 RETURNDATACOPY RETURNDATASIZE PUSH0 REVERT JUMPDEST POP POP POP POP PUSH1 0x40 MLOAD RETURNDATASIZE PUSH1 0x1F NOT PUSH1 0x1F DUP3 ADD AND DUP3 ADD DUP1 PUSH1 0x40 MSTORE POP DUP2 ADD SWAP1 PUSH2 0x54E8 SWAP2 SWAP1 PUSH2 0x8DDC JUMP JUMPDEST DUP8 PUSH2 0x758A JUMP JUMPDEST SWAP1 POP PUSH0 PUSH2 0x54FB DUP4 DUP7 PUSH2 0x6A02 JUMP JUMPDEST SWAP1 POP PUSH0 DUP1 DUP4 GT PUSH2 0x5519 JUMPI PUSH1 0x40 MLOAD DUP1 PUSH1 0x20 ADD PUSH1 0x40 MSTORE DUP1 PUSH0 DUP2 MSTORE POP PUSH2 0x5524 JUMP JUMPDEST PUSH2 0x5523 DUP3 DUP5 PUSH2 0x75B1 JUMP JUMPDEST JUMPDEST SWAP1 POP PUSH2 0x55C7 PUSH2 0x5589 PUSH1 0x40 MLOAD DUP1 PUSH1 0x20 ADD PUSH1 0x40 MSTORE DUP1 DUP11 PUSH0 ADD PUSH0 SWAP1 SLOAD SWAP1 PUSH2 0x100 EXP SWAP1 DIV PUSH28 0xFFFFFFFFFFFFFFFFFFFFFFFFFFFFFFFFFFFFFFFFFFFFFFFFFFFFFFFF AND PUSH28 0xFFFFFFFFFFFFFFFFFFFFFFFFFFFFFFFFFFFFFFFFFFFFFFFFFFFFFFFF AND DUP2 MSTORE POP DUP4 PUSH2 0x75F1 JUMP JUMPDEST PUSH0 ADD MLOAD PUSH1 0x40 MLOAD DUP1 PUSH1 0x40 ADD PUSH1 0x40 MSTORE DUP1 PUSH1 0x1A DUP2 MSTORE PUSH1 0x20 ADD PUSH32 0x6E657720696E6465782065786365656473203232342062697473000000000000 DUP2 MSTORE POP PUSH2 0x761F JUMP JUMPDEST DUP8 PUSH0 ADD PUSH0 PUSH2 0x100 EXP DUP2 SLOAD DUP2 PUSH28 0xFFFFFFFFFFFFFFFFFFFFFFFFFFFFFFFFFFFFFFFFFFFFFFFFFFFFFFFF MUL NOT AND SWAP1 DUP4 PUSH28 0xFFFFFFFFFFFFFFFFFFFFFFFFFFFFFFFFFFFFFFFFFFFFFFFFFFFFFFFF AND MUL OR SWAP1 SSTORE POP DUP5 DUP8 PUSH0 ADD PUSH1 0x1C PUSH2 0x100 EXP DUP2 SLOAD DUP2 PUSH4 0xFFFFFFFF MUL NOT AND SWAP1 DUP4 PUSH4 0xFFFFFFFF AND MUL OR SWAP1 SSTORE POP POP POP POP PUSH2 0x566D JUMP JUMPDEST PUSH0 DUP2 GT ISZERO PUSH2 0x566C JUMPI DUP2 DUP5 PUSH0 ADD PUSH1 0x1C PUSH2 0x100 EXP DUP2 SLOAD DUP2 PUSH4 0xFFFFFFFF MUL NOT AND SWAP1 DUP4 PUSH4 0xFFFFFFFF AND MUL OR SWAP1 SSTORE POP JUMPDEST JUMPDEST POP POP POP POP POP POP JUMP JUMPDEST PUSH0 PUSH1 0x11 PUSH0 DUP6 PUSH20 0xFFFFFFFFFFFFFFFFFFFFFFFFFFFFFFFFFFFFFFFF AND PUSH20 0xFFFFFFFFFFFFFFFFFFFFFFFFFFFFFFFFFFFFFFFF AND DUP2 MSTORE PUSH1 0x20 ADD SWAP1 DUP2 MSTORE PUSH1 0x20 ADD PUSH0 KECCAK256 SWAP1 POP PUSH0 DUP2 PUSH0 ADD PUSH0 SWAP1 SLOAD SWAP1 PUSH2 0x100 EXP SWAP1 DIV PUSH28 0xFFFFFFFFFFFFFFFFFFFFFFFFFFFFFFFFFFFFFFFFFFFFFFFFFFFFFFFF AND PUSH28 0xFFFFFFFFFFFFFFFFFFFFFFFFFFFFFFFFFFFFFFFFFFFFFFFFFFFFFFFF AND SWAP1 POP PUSH0 PUSH1 0x13 PUSH0 DUP8 PUSH20 0xFFFFFFFFFFFFFFFFFFFFFFFFFFFFFFFFFFFFFFFF AND PUSH20 0xFFFFFFFFFFFFFFFFFFFFFFFFFFFFFFFFFFFFFFFF AND DUP2 MSTORE PUSH1 0x20 ADD SWAP1 DUP2 MSTORE PUSH1 0x20 ADD PUSH0 KECCAK256 PUSH0 DUP7 PUSH20 0xFFFFFFFFFFFFFFFFFFFFFFFFFFFFFFFFFFFFFFFF AND PUSH20 0xFFFFFFFFFFFFFFFFFFFFFFFFFFFFFFFFFFFFFFFF AND DUP2 MSTORE PUSH1 0x20 ADD SWAP1 DUP2 MSTORE PUSH1 0x20 ADD PUSH0 KECCAK256 SLOAD SWAP1 POP DUP2 PUSH1 0x13 PUSH0 DUP9 PUSH20 0xFFFFFFFFFFFFFFFFFFFFFFFFFFFFFFFFFFFFFFFF AND PUSH20 0xFFFFFFFFFFFFFFFFFFFFFFFFFFFFFFFFFFFFFFFF AND DUP2 MSTORE PUSH1 0x20 ADD SWAP1 DUP2 MSTORE PUSH1 0x20 ADD PUSH0 KECCAK256 PUSH0 DUP8 PUSH20 0xFFFFFFFFFFFFFFFFFFFFFFFFFFFFFFFFFFFFFFFF AND PUSH20 0xFFFFFFFFFFFFFFFFFFFFFFFFFFFFFFFFFFFFFFFF AND DUP2 MSTORE PUSH1 0x20 ADD SWAP1 DUP2 MSTORE PUSH1 0x20 ADD PUSH0 KECCAK256 DUP2 SWAP1 SSTORE POP PUSH0 DUP2 EQ DUP1 ISZERO PUSH2 0x5836 JUMPI POP PUSH15 0xC097CE7BC90715B34B9F1000000000 PUSH28 0xFFFFFFFFFFFFFFFFFFFFFFFFFFFFFFFFFFFFFFFFFFFFFFFFFFFFFFFF AND DUP3 LT ISZERO JUMPDEST ISZERO PUSH2 0x586C JUMPI PUSH15 0xC097CE7BC90715B34B9F1000000000 PUSH28 0xFFFFFFFFFFFFFFFFFFFFFFFFFFFFFFFFFFFFFFFFFFFFFFFFFFFFFFFF AND SWAP1 POP JUMPDEST PUSH0 PUSH1 0x40 MLOAD DUP1 PUSH1 0x20 ADD PUSH1 0x40 MSTORE DUP1 PUSH2 0x5882 DUP6 DUP6 PUSH2 0x5359 JUMP JUMPDEST DUP2 MSTORE POP SWAP1 POP PUSH0 PUSH2 0x5909 DUP9 PUSH20 0xFFFFFFFFFFFFFFFFFFFFFFFFFFFFFFFFFFFFFFFF AND PUSH4 0x95DD9193 DUP10 PUSH1 0x40 MLOAD DUP3 PUSH4 0xFFFFFFFF AND PUSH1 0xE0 SHL DUP2 MSTORE PUSH1 0x4 ADD PUSH2 0x58C4 SWAP2 SWAP1 PUSH2 0x7D68 JUMP JUMPDEST PUSH1 0x20 PUSH1 0x40 MLOAD DUP1 DUP4 SUB DUP2 DUP7 GAS STATICCALL ISZERO DUP1 ISZERO PUSH2 0x58DF JUMPI RETURNDATASIZE PUSH0 DUP1 RETURNDATACOPY RETURNDATASIZE PUSH0 REVERT JUMPDEST POP POP POP POP PUSH1 0x40 MLOAD RETURNDATASIZE PUSH1 0x1F NOT PUSH1 0x1F DUP3 ADD AND DUP3 ADD DUP1 PUSH1 0x40 MSTORE POP DUP2 ADD SWAP1 PUSH2 0x5903 SWAP2 SWAP1 PUSH2 0x8DDC JUMP JUMPDEST DUP8 PUSH2 0x758A JUMP JUMPDEST SWAP1 POP PUSH0 PUSH2 0x5916 DUP3 DUP5 PUSH2 0x768C JUMP JUMPDEST SWAP1 POP PUSH0 PUSH2 0x5960 PUSH1 0x14 PUSH0 DUP12 PUSH20 0xFFFFFFFFFFFFFFFFFFFFFFFFFFFFFFFFFFFFFFFF AND PUSH20 0xFFFFFFFFFFFFFFFFFFFFFFFFFFFFFFFFFFFFFFFF AND DUP2 MSTORE PUSH1 0x20 ADD SWAP1 DUP2 MSTORE PUSH1 0x20 ADD PUSH0 KECCAK256 SLOAD DUP4 PUSH2 0x5344 JUMP JUMPDEST SWAP1 POP DUP1 PUSH1 0x14 PUSH0 DUP12 PUSH20 0xFFFFFFFFFFFFFFFFFFFFFFFFFFFFFFFFFFFFFFFF AND PUSH20 0xFFFFFFFFFFFFFFFFFFFFFFFFFFFFFFFFFFFFFFFF AND DUP2 MSTORE PUSH1 0x20 ADD SWAP1 DUP2 MSTORE PUSH1 0x20 ADD PUSH0 KECCAK256 DUP2 SWAP1 SSTORE POP DUP9 PUSH20 0xFFFFFFFFFFFFFFFFFFFFFFFFFFFFFFFFFFFFFFFF AND DUP11 PUSH20 0xFFFFFFFFFFFFFFFFFFFFFFFFFFFFFFFFFFFFFFFF AND PUSH32 0x1FC3ECC087D8D2D15E23D0032AF5A47059C3892D003D8E139FDCB6BB327C99A6 DUP5 DUP10 PUSH1 0x40 MLOAD PUSH2 0x5A03 SWAP3 SWAP2 SWAP1 PUSH2 0x886D JUMP JUMPDEST PUSH1 0x40 MLOAD DUP1 SWAP2 SUB SWAP1 LOG3 POP POP POP POP POP POP POP POP POP POP JUMP JUMPDEST PUSH0 DUP1 PUSH0 SWAP1 SLOAD SWAP1 PUSH2 0x100 EXP SWAP1 DIV PUSH20 0xFFFFFFFFFFFFFFFFFFFFFFFFFFFFFFFFFFFFFFFF AND PUSH20 0xFFFFFFFFFFFFFFFFFFFFFFFFFFFFFFFFFFFFFFFF AND CALLER PUSH20 0xFFFFFFFFFFFFFFFFFFFFFFFFFFFFFFFFFFFFFFFF AND EQ DUP1 PUSH2 0x5ABE JUMPI POP PUSH1 0x2 PUSH0 SWAP1 SLOAD SWAP1 PUSH2 0x100 EXP SWAP1 DIV PUSH20 0xFFFFFFFFFFFFFFFFFFFFFFFFFFFFFFFFFFFFFFFF AND PUSH20 0xFFFFFFFFFFFFFFFFFFFFFFFFFFFFFFFFFFFFFFFF AND CALLER PUSH20 0xFFFFFFFFFFFFFFFFFFFFFFFFFFFFFFFFFFFFFFFF AND EQ JUMPDEST SWAP1 POP SWAP1 JUMP JUMPDEST PUSH0 DUP1 PUSH2 0x5ACD PUSH2 0x3885 JUMP JUMPDEST SWAP1 POP PUSH0 DUP2 PUSH20 0xFFFFFFFFFFFFFFFFFFFFFFFFFFFFFFFFFFFFFFFF AND PUSH4 0x70A08231 ADDRESS PUSH1 0x40 MLOAD DUP3 PUSH4 0xFFFFFFFF AND PUSH1 0xE0 SHL DUP2 MSTORE PUSH1 0x4 ADD PUSH2 0x5B09 SWAP2 SWAP1 PUSH2 0x7D68 JUMP JUMPDEST PUSH1 0x20 PUSH1 0x40 MLOAD DUP1 DUP4 SUB DUP2 DUP7 GAS STATICCALL ISZERO DUP1 ISZERO PUSH2 0x5B24 JUMPI RETURNDATASIZE PUSH0 DUP1 RETURNDATACOPY RETURNDATASIZE PUSH0 REVERT JUMPDEST POP POP POP POP PUSH1 0x40 MLOAD RETURNDATASIZE PUSH1 0x1F NOT PUSH1 0x1F DUP3 ADD AND DUP3 ADD DUP1 PUSH1 0x40 MSTORE POP DUP2 ADD SWAP1 PUSH2 0x5B48 SWAP2 SWAP1 PUSH2 0x8DDC JUMP JUMPDEST SWAP1 POP PUSH0 DUP5 GT DUP1 ISZERO PUSH2 0x5B59 JUMPI POP DUP1 DUP5 GT ISZERO JUMPDEST ISZERO PUSH2 0x5BE4 JUMPI DUP2 PUSH20 0xFFFFFFFFFFFFFFFFFFFFFFFFFFFFFFFFFFFFFFFF AND PUSH4 0xA9059CBB DUP7 DUP7 PUSH1 0x40 MLOAD DUP4 PUSH4 0xFFFFFFFF AND PUSH1 0xE0 SHL DUP2 MSTORE PUSH1 0x4 ADD PUSH2 0x5B99 SWAP3 SWAP2 SWAP1 PUSH2 0x8F6C JUMP JUMPDEST PUSH1 0x20 PUSH1 0x40 MLOAD DUP1 DUP4 SUB DUP2 PUSH0 DUP8 GAS CALL ISZERO DUP1 ISZERO PUSH2 0x5BB5 JUMPI RETURNDATASIZE PUSH0 DUP1 RETURNDATACOPY RETURNDATASIZE PUSH0 REVERT JUMPDEST POP POP POP POP PUSH1 0x40 MLOAD RETURNDATASIZE PUSH1 0x1F NOT PUSH1 0x1F DUP3 ADD AND DUP3 ADD DUP1 PUSH1 0x40 MSTORE POP DUP2 ADD SWAP1 PUSH2 0x5BD9 SWAP2 SWAP1 PUSH2 0x957F JUMP JUMPDEST POP PUSH0 SWAP3 POP POP POP PUSH2 0x5BEA JUMP JUMPDEST DUP4 SWAP3 POP POP POP JUMPDEST SWAP3 SWAP2 POP POP JUMP JUMPDEST PUSH0 DUP1 PUSH0 PUSH2 0x5BFB PUSH2 0x7757 JUMP JUMPDEST PUSH0 DUP1 PUSH1 0x8 PUSH0 DUP12 PUSH20 0xFFFFFFFFFFFFFFFFFFFFFFFFFFFFFFFFFFFFFFFF AND PUSH20 0xFFFFFFFFFFFFFFFFFFFFFFFFFFFFFFFFFFFFFFFF AND DUP2 MSTORE PUSH1 0x20 ADD SWAP1 DUP2 MSTORE PUSH1 0x20 ADD PUSH0 KECCAK256 DUP1 SLOAD DUP1 PUSH1 0x20 MUL PUSH1 0x20 ADD PUSH1 0x40 MLOAD SWAP1 DUP2 ADD PUSH1 0x40 MSTORE DUP1 SWAP3 SWAP2 SWAP1 DUP2 DUP2 MSTORE PUSH1 0x20 ADD DUP3 DUP1 SLOAD DUP1 ISZERO PUSH2 0x5CB7 JUMPI PUSH1 0x20 MUL DUP3 ADD SWAP2 SWAP1 PUSH0 MSTORE PUSH1 0x20 PUSH0 KECCAK256 SWAP1 JUMPDEST DUP2 PUSH0 SWAP1 SLOAD SWAP1 PUSH2 0x100 EXP SWAP1 DIV PUSH20 0xFFFFFFFFFFFFFFFFFFFFFFFFFFFFFFFFFFFFFFFF AND PUSH20 0xFFFFFFFFFFFFFFFFFFFFFFFFFFFFFFFFFFFFFFFF AND DUP2 MSTORE PUSH1 0x20 ADD SWAP1 PUSH1 0x1 ADD SWAP1 DUP1 DUP4 GT PUSH2 0x5C6E JUMPI JUMPDEST POP POP POP POP POP SWAP1 POP PUSH0 JUMPDEST DUP2 MLOAD DUP2 LT ISZERO PUSH2 0x5FCD JUMPI PUSH0 DUP3 DUP3 DUP2 MLOAD DUP2 LT PUSH2 0x5CDD JUMPI PUSH2 0x5CDC PUSH2 0x8A66 JUMP JUMPDEST JUMPDEST PUSH1 0x20 MUL PUSH1 0x20 ADD ADD MLOAD SWAP1 POP DUP1 PUSH20 0xFFFFFFFFFFFFFFFFFFFFFFFFFFFFFFFFFFFFFFFF AND PUSH4 0xC37F68E2 DUP14 PUSH1 0x40 MLOAD DUP3 PUSH4 0xFFFFFFFF AND PUSH1 0xE0 SHL DUP2 MSTORE PUSH1 0x4 ADD PUSH2 0x5D20 SWAP2 SWAP1 PUSH2 0x7D68 JUMP JUMPDEST PUSH1 0x80 PUSH1 0x40 MLOAD DUP1 DUP4 SUB DUP2 DUP7 GAS STATICCALL ISZERO DUP1 ISZERO PUSH2 0x5D3B JUMPI RETURNDATASIZE PUSH0 DUP1 RETURNDATACOPY RETURNDATASIZE PUSH0 REVERT JUMPDEST POP POP POP POP PUSH1 0x40 MLOAD RETURNDATASIZE PUSH1 0x1F NOT PUSH1 0x1F DUP3 ADD AND DUP3 ADD DUP1 PUSH1 0x40 MSTORE POP DUP2 ADD SWAP1 PUSH2 0x5D5F SWAP2 SWAP1 PUSH2 0x9908 JUMP JUMPDEST DUP9 PUSH1 0x40 ADD DUP10 PUSH1 0x60 ADD DUP11 PUSH1 0x80 ADD DUP4 DUP2 MSTORE POP DUP4 DUP2 MSTORE POP DUP4 DUP2 MSTORE POP DUP4 SWAP8 POP POP POP POP POP PUSH0 DUP5 EQ PUSH2 0x5D99 JUMPI PUSH1 0xF PUSH0 DUP1 SWAP8 POP SWAP8 POP SWAP8 POP POP POP POP POP POP PUSH2 0x601F JUMP JUMPDEST PUSH1 0x40 MLOAD DUP1 PUSH1 0x20 ADD PUSH1 0x40 MSTORE DUP1 PUSH1 0x9 PUSH0 DUP5 PUSH20 0xFFFFFFFFFFFFFFFFFFFFFFFFFFFFFFFFFFFFFFFF AND PUSH20 0xFFFFFFFFFFFFFFFFFFFFFFFFFFFFFFFFFFFFFFFF AND DUP2 MSTORE PUSH1 0x20 ADD SWAP1 DUP2 MSTORE PUSH1 0x20 ADD PUSH0 KECCAK256 PUSH1 0x1 ADD SLOAD DUP2 MSTORE POP DUP6 PUSH1 0xC0 ADD DUP2 SWAP1 MSTORE POP PUSH1 0x40 MLOAD DUP1 PUSH1 0x20 ADD PUSH1 0x40 MSTORE DUP1 DUP7 PUSH1 0x80 ADD MLOAD DUP2 MSTORE POP DUP6 PUSH1 0xE0 ADD DUP2 SWAP1 MSTORE POP PUSH1 0x4 PUSH0 SWAP1 SLOAD SWAP1 PUSH2 0x100 EXP SWAP1 DIV PUSH20 0xFFFFFFFFFFFFFFFFFFFFFFFFFFFFFFFFFFFFFFFF AND PUSH20 0xFFFFFFFFFFFFFFFFFFFFFFFFFFFFFFFFFFFFFFFF AND PUSH4 0xFC57D4DF DUP3 PUSH1 0x40 MLOAD DUP3 PUSH4 0xFFFFFFFF AND PUSH1 0xE0 SHL DUP2 MSTORE PUSH1 0x4 ADD PUSH2 0x5E65 SWAP2 SWAP1 PUSH2 0x8046 JUMP JUMPDEST PUSH1 0x20 PUSH1 0x40 MLOAD DUP1 DUP4 SUB DUP2 DUP7 GAS STATICCALL ISZERO DUP1 ISZERO PUSH2 0x5E80 JUMPI RETURNDATASIZE PUSH0 DUP1 RETURNDATACOPY RETURNDATASIZE PUSH0 REVERT JUMPDEST POP POP POP POP PUSH1 0x40 MLOAD RETURNDATASIZE PUSH1 0x1F NOT PUSH1 0x1F DUP3 ADD AND DUP3 ADD DUP1 PUSH1 0x40 MSTORE POP DUP2 ADD SWAP1 PUSH2 0x5EA4 SWAP2 SWAP1 PUSH2 0x8DDC JUMP JUMPDEST DUP6 PUSH1 0xA0 ADD DUP2 DUP2 MSTORE POP POP PUSH0 DUP6 PUSH1 0xA0 ADD MLOAD SUB PUSH2 0x5ECC JUMPI PUSH1 0xD PUSH0 DUP1 SWAP8 POP SWAP8 POP SWAP8 POP POP POP POP POP POP PUSH2 0x601F JUMP JUMPDEST PUSH1 0x40 MLOAD DUP1 PUSH1 0x20 ADD PUSH1 0x40 MSTORE DUP1 DUP7 PUSH1 0xA0 ADD MLOAD DUP2 MSTORE POP DUP6 PUSH2 0x100 ADD DUP2 SWAP1 MSTORE POP PUSH2 0x5F08 PUSH2 0x5EFD DUP7 PUSH1 0xC0 ADD MLOAD DUP8 PUSH1 0xE0 ADD MLOAD PUSH2 0x7427 JUMP JUMPDEST DUP7 PUSH2 0x100 ADD MLOAD PUSH2 0x7427 JUMP JUMPDEST DUP6 PUSH2 0x120 ADD DUP2 SWAP1 MSTORE POP PUSH2 0x5F28 DUP6 PUSH2 0x120 ADD MLOAD DUP7 PUSH1 0x40 ADD MLOAD DUP8 PUSH0 ADD MLOAD PUSH2 0x76BC JUMP JUMPDEST DUP6 PUSH0 ADD DUP2 DUP2 MSTORE POP POP PUSH2 0x5F48 DUP6 PUSH2 0x100 ADD MLOAD DUP7 PUSH1 0x60 ADD MLOAD DUP8 PUSH1 0x20 ADD MLOAD PUSH2 0x76BC JUMP JUMPDEST DUP6 PUSH1 0x20 ADD DUP2 DUP2 MSTORE POP POP DUP11 PUSH20 0xFFFFFFFFFFFFFFFFFFFFFFFFFFFFFFFFFFFFFFFF AND DUP2 PUSH20 0xFFFFFFFFFFFFFFFFFFFFFFFFFFFFFFFFFFFFFFFF AND SUB PUSH2 0x5FBF JUMPI PUSH2 0x5F98 DUP6 PUSH2 0x120 ADD MLOAD DUP12 DUP8 PUSH1 0x20 ADD MLOAD PUSH2 0x76BC JUMP JUMPDEST DUP6 PUSH1 0x20 ADD DUP2 DUP2 MSTORE POP POP PUSH2 0x5FB5 DUP6 PUSH2 0x100 ADD MLOAD DUP11 DUP8 PUSH1 0x20 ADD MLOAD PUSH2 0x76BC JUMP JUMPDEST DUP6 PUSH1 0x20 ADD DUP2 DUP2 MSTORE POP POP JUMPDEST POP DUP1 DUP1 PUSH1 0x1 ADD SWAP2 POP POP PUSH2 0x5CC0 JUMP JUMPDEST POP DUP3 PUSH1 0x20 ADD MLOAD DUP4 PUSH0 ADD MLOAD GT ISZERO PUSH2 0x6000 JUMPI PUSH0 DUP4 PUSH1 0x20 ADD MLOAD DUP5 PUSH0 ADD MLOAD PUSH2 0x5FF1 SWAP2 SWAP1 PUSH2 0x8AC0 JUMP JUMPDEST PUSH0 SWAP6 POP SWAP6 POP SWAP6 POP POP POP POP PUSH2 0x601F JUMP JUMPDEST PUSH0 DUP1 DUP5 PUSH0 ADD MLOAD DUP6 PUSH1 0x20 ADD MLOAD PUSH2 0x6015 SWAP2 SWAP1 PUSH2 0x8AC0 JUMP JUMPDEST SWAP6 POP SWAP6 POP SWAP6 POP POP POP POP JUMPDEST SWAP5 POP SWAP5 POP SWAP5 SWAP2 POP POP JUMP JUMPDEST PUSH0 DUP2 PUSH20 0xFFFFFFFFFFFFFFFFFFFFFFFFFFFFFFFFFFFFFFFF AND PUSH4 0x6F307DC3 PUSH1 0x40 MLOAD DUP2 PUSH4 0xFFFFFFFF AND PUSH1 0xE0 SHL DUP2 MSTORE PUSH1 0x4 ADD PUSH1 0x20 PUSH1 0x40 MLOAD DUP1 DUP4 SUB DUP2 DUP7 GAS STATICCALL ISZERO DUP1 ISZERO PUSH2 0x6073 JUMPI RETURNDATASIZE PUSH0 DUP1 RETURNDATACOPY RETURNDATASIZE PUSH0 REVERT JUMPDEST POP POP POP POP PUSH1 0x40 MLOAD RETURNDATASIZE PUSH1 0x1F NOT PUSH1 0x1F DUP3 ADD AND DUP3 ADD DUP1 PUSH1 0x40 MSTORE POP DUP2 ADD SWAP1 PUSH2 0x6097 SWAP2 SWAP1 PUSH2 0x8D0F JUMP JUMPDEST SWAP1 POP PUSH0 DUP2 PUSH20 0xFFFFFFFFFFFFFFFFFFFFFFFFFFFFFFFFFFFFFFFF AND PUSH4 0x313CE567 PUSH1 0x40 MLOAD DUP2 PUSH4 0xFFFFFFFF AND PUSH1 0xE0 SHL DUP2 MSTORE PUSH1 0x4 ADD PUSH1 0x20 PUSH1 0x40 MLOAD DUP1 DUP4 SUB DUP2 DUP7 GAS STATICCALL ISZERO DUP1 ISZERO PUSH2 0x60E3 JUMPI RETURNDATASIZE PUSH0 DUP1 RETURNDATACOPY RETURNDATASIZE PUSH0 REVERT JUMPDEST POP POP POP POP PUSH1 0x40 MLOAD RETURNDATASIZE PUSH1 0x1F NOT PUSH1 0x1F DUP3 ADD AND DUP3 ADD DUP1 PUSH1 0x40 MSTORE POP DUP2 ADD SWAP1 PUSH2 0x6107 SWAP2 SWAP1 PUSH2 0x9AB7 JUMP JUMPDEST SWAP1 POP PUSH0 PUSH1 0x2 DUP3 PUSH2 0x6117 SWAP2 SWAP1 PUSH2 0x9AE2 JUMP JUMPDEST PUSH1 0xA PUSH2 0x6123 SWAP2 SWAP1 PUSH2 0x9C45 JUMP JUMPDEST SWAP1 POP PUSH0 DUP4 PUSH20 0xFFFFFFFFFFFFFFFFFFFFFFFFFFFFFFFFFFFFFFFF AND PUSH4 0x70A08231 ADDRESS PUSH1 0x40 MLOAD DUP3 PUSH4 0xFFFFFFFF AND PUSH1 0xE0 SHL DUP2 MSTORE PUSH1 0x4 ADD PUSH2 0x615F SWAP2 SWAP1 PUSH2 0x7D68 JUMP JUMPDEST PUSH1 0x20 PUSH1 0x40 MLOAD DUP1 DUP4 SUB DUP2 DUP7 GAS STATICCALL ISZERO DUP1 ISZERO PUSH2 0x617A JUMPI RETURNDATASIZE PUSH0 DUP1 RETURNDATACOPY RETURNDATASIZE PUSH0 REVERT JUMPDEST POP POP POP POP PUSH1 0x40 MLOAD RETURNDATASIZE PUSH1 0x1F NOT PUSH1 0x1F DUP3 ADD AND DUP3 ADD DUP1 PUSH1 0x40 MSTORE POP DUP2 ADD SWAP1 PUSH2 0x619E SWAP2 SWAP1 PUSH2 0x8DDC JUMP JUMPDEST SWAP1 POP PUSH0 DUP6 PUSH20 0xFFFFFFFFFFFFFFFFFFFFFFFFFFFFFFFFFFFFFFFF AND PUSH4 0x18160DDD PUSH1 0x40 MLOAD DUP2 PUSH4 0xFFFFFFFF AND PUSH1 0xE0 SHL DUP2 MSTORE PUSH1 0x4 ADD PUSH1 0x20 PUSH1 0x40 MLOAD DUP1 DUP4 SUB DUP2 DUP7 GAS STATICCALL ISZERO DUP1 ISZERO PUSH2 0x61EA JUMPI RETURNDATASIZE PUSH0 DUP1 RETURNDATACOPY RETURNDATASIZE PUSH0 REVERT JUMPDEST POP POP POP POP PUSH1 0x40 MLOAD RETURNDATASIZE PUSH1 0x1F NOT PUSH1 0x1F DUP3 ADD AND DUP3 ADD DUP1 PUSH1 0x40 MSTORE POP DUP2 ADD SWAP1 PUSH2 0x620E SWAP2 SWAP1 PUSH2 0x8DDC JUMP JUMPDEST SWAP1 POP DUP1 DUP4 DUP4 PUSH2 0x621D SWAP2 SWAP1 PUSH2 0x9A4E JUMP JUMPDEST LT ISZERO PUSH2 0x62AE JUMPI DUP6 PUSH20 0xFFFFFFFFFFFFFFFFFFFFFFFFFFFFFFFFFFFFFFFF AND PUSH32 0xA7A39DDDDA9EE8843070F2A6F51ADC9477566EF2FC432C878A5D0BCBC4F42A5D DUP4 DUP4 PUSH1 0x40 MLOAD PUSH2 0x626B SWAP3 SWAP2 SWAP1 PUSH2 0x886D JUMP JUMPDEST PUSH1 0x40 MLOAD DUP1 SWAP2 SUB SWAP1 LOG2 PUSH1 0x40 MLOAD PUSH32 0x8C379A000000000000000000000000000000000000000000000000000000000 DUP2 MSTORE PUSH1 0x4 ADD PUSH2 0x62A5 SWAP1 PUSH2 0x9CFF JUMP JUMPDEST PUSH1 0x40 MLOAD DUP1 SWAP2 SUB SWAP1 REVERT JUMPDEST POP POP POP POP POP POP JUMP JUMPDEST PUSH0 PUSH1 0x10 PUSH0 DUP4 PUSH20 0xFFFFFFFFFFFFFFFFFFFFFFFFFFFFFFFFFFFFFFFF AND PUSH20 0xFFFFFFFFFFFFFFFFFFFFFFFFFFFFFFFFFFFFFFFF AND DUP2 MSTORE PUSH1 0x20 ADD SWAP1 DUP2 MSTORE PUSH1 0x20 ADD PUSH0 KECCAK256 SWAP1 POP PUSH0 PUSH1 0x1A PUSH0 DUP5 PUSH20 0xFFFFFFFFFFFFFFFFFFFFFFFFFFFFFFFFFFFFFFFF AND PUSH20 0xFFFFFFFFFFFFFFFFFFFFFFFFFFFFFFFFFFFFFFFF AND DUP2 MSTORE PUSH1 0x20 ADD SWAP1 DUP2 MSTORE PUSH1 0x20 ADD PUSH0 KECCAK256 SLOAD SWAP1 POP PUSH0 PUSH2 0x637E PUSH2 0x6343 PUSH2 0x22A6 JUMP JUMPDEST PUSH1 0x40 MLOAD DUP1 PUSH1 0x40 ADD PUSH1 0x40 MSTORE DUP1 PUSH1 0x1C DUP2 MSTORE PUSH1 0x20 ADD PUSH32 0x626C6F636B206E756D6265722065786365656473203332206269747300000000 DUP2 MSTORE POP PUSH2 0x7535 JUMP JUMPDEST SWAP1 POP PUSH0 PUSH2 0x63AA DUP3 PUSH4 0xFFFFFFFF AND DUP6 PUSH0 ADD PUSH1 0x1C SWAP1 SLOAD SWAP1 PUSH2 0x100 EXP SWAP1 DIV PUSH4 0xFFFFFFFF AND PUSH4 0xFFFFFFFF AND PUSH2 0x5359 JUMP JUMPDEST SWAP1 POP PUSH0 DUP2 GT DUP1 ISZERO PUSH2 0x63BA JUMPI POP PUSH0 DUP4 GT JUMPDEST ISZERO PUSH2 0x6580 JUMPI PUSH0 DUP6 PUSH20 0xFFFFFFFFFFFFFFFFFFFFFFFFFFFFFFFFFFFFFFFF AND PUSH4 0x18160DDD PUSH1 0x40 MLOAD DUP2 PUSH4 0xFFFFFFFF AND PUSH1 0xE0 SHL DUP2 MSTORE PUSH1 0x4 ADD PUSH1 0x20 PUSH1 0x40 MLOAD DUP1 DUP4 SUB DUP2 DUP7 GAS STATICCALL ISZERO DUP1 ISZERO PUSH2 0x6409 JUMPI RETURNDATASIZE PUSH0 DUP1 RETURNDATACOPY RETURNDATASIZE PUSH0 REVERT JUMPDEST POP POP POP POP PUSH1 0x40 MLOAD RETURNDATASIZE PUSH1 0x1F NOT PUSH1 0x1F DUP3 ADD AND DUP3 ADD DUP1 PUSH1 0x40 MSTORE POP DUP2 ADD SWAP1 PUSH2 0x642D SWAP2 SWAP1 PUSH2 0x8DDC JUMP JUMPDEST SWAP1 POP PUSH0 PUSH2 0x643A DUP4 DUP7 PUSH2 0x6A02 JUMP JUMPDEST SWAP1 POP PUSH0 DUP1 DUP4 GT PUSH2 0x6458 JUMPI PUSH1 0x40 MLOAD DUP1 PUSH1 0x20 ADD PUSH1 0x40 MSTORE DUP1 PUSH0 DUP2 MSTORE POP PUSH2 0x6463 JUMP JUMPDEST PUSH2 0x6462 DUP3 DUP5 PUSH2 0x75B1 JUMP JUMPDEST JUMPDEST SWAP1 POP PUSH2 0x6506 PUSH2 0x64C8 PUSH1 0x40 MLOAD DUP1 PUSH1 0x20 ADD PUSH1 0x40 MSTORE DUP1 DUP11 PUSH0 ADD PUSH0 SWAP1 SLOAD SWAP1 PUSH2 0x100 EXP SWAP1 DIV PUSH28 0xFFFFFFFFFFFFFFFFFFFFFFFFFFFFFFFFFFFFFFFFFFFFFFFFFFFFFFFF AND PUSH28 0xFFFFFFFFFFFFFFFFFFFFFFFFFFFFFFFFFFFFFFFFFFFFFFFFFFFFFFFF AND DUP2 MSTORE POP DUP4 PUSH2 0x75F1 JUMP JUMPDEST PUSH0 ADD MLOAD PUSH1 0x40 MLOAD DUP1 PUSH1 0x40 ADD PUSH1 0x40 MSTORE DUP1 PUSH1 0x1A DUP2 MSTORE PUSH1 0x20 ADD PUSH32 0x6E657720696E6465782065786365656473203232342062697473000000000000 DUP2 MSTORE POP PUSH2 0x761F JUMP JUMPDEST DUP8 PUSH0 ADD PUSH0 PUSH2 0x100 EXP DUP2 SLOAD DUP2 PUSH28 0xFFFFFFFFFFFFFFFFFFFFFFFFFFFFFFFFFFFFFFFFFFFFFFFFFFFFFFFF MUL NOT AND SWAP1 DUP4 PUSH28 0xFFFFFFFFFFFFFFFFFFFFFFFFFFFFFFFFFFFFFFFFFFFFFFFFFFFFFFFF AND MUL OR SWAP1 SSTORE POP DUP5 DUP8 PUSH0 ADD PUSH1 0x1C PUSH2 0x100 EXP DUP2 SLOAD DUP2 PUSH4 0xFFFFFFFF MUL NOT AND SWAP1 DUP4 PUSH4 0xFFFFFFFF AND MUL OR SWAP1 SSTORE POP POP POP POP PUSH2 0x65AC JUMP JUMPDEST PUSH0 DUP2 GT ISZERO PUSH2 0x65AB JUMPI DUP2 DUP5 PUSH0 ADD PUSH1 0x1C PUSH2 0x100 EXP DUP2 SLOAD DUP2 PUSH4 0xFFFFFFFF MUL NOT AND SWAP1 DUP4 PUSH4 0xFFFFFFFF AND MUL OR SWAP1 SSTORE POP JUMPDEST JUMPDEST POP POP POP POP POP JUMP JUMPDEST PUSH0 PUSH1 0x10 PUSH0 DUP5 PUSH20 0xFFFFFFFFFFFFFFFFFFFFFFFFFFFFFFFFFFFFFFFF AND PUSH20 0xFFFFFFFFFFFFFFFFFFFFFFFFFFFFFFFFFFFFFFFF AND DUP2 MSTORE PUSH1 0x20 ADD SWAP1 DUP2 MSTORE PUSH1 0x20 ADD PUSH0 KECCAK256 SWAP1 POP PUSH0 DUP2 PUSH0 ADD PUSH0 SWAP1 SLOAD SWAP1 PUSH2 0x100 EXP SWAP1 DIV PUSH28 0xFFFFFFFFFFFFFFFFFFFFFFFFFFFFFFFFFFFFFFFFFFFFFFFFFFFFFFFF AND PUSH28 0xFFFFFFFFFFFFFFFFFFFFFFFFFFFFFFFFFFFFFFFFFFFFFFFFFFFFFFFF AND SWAP1 POP PUSH0 PUSH1 0x12 PUSH0 DUP7 PUSH20 0xFFFFFFFFFFFFFFFFFFFFFFFFFFFFFFFFFFFFFFFF AND PUSH20 0xFFFFFFFFFFFFFFFFFFFFFFFFFFFFFFFFFFFFFFFF AND DUP2 MSTORE PUSH1 0x20 ADD SWAP1 DUP2 MSTORE PUSH1 0x20 ADD PUSH0 KECCAK256 PUSH0 DUP6 PUSH20 0xFFFFFFFFFFFFFFFFFFFFFFFFFFFFFFFFFFFFFFFF AND PUSH20 0xFFFFFFFFFFFFFFFFFFFFFFFFFFFFFFFFFFFFFFFF AND DUP2 MSTORE PUSH1 0x20 ADD SWAP1 DUP2 MSTORE PUSH1 0x20 ADD PUSH0 KECCAK256 SLOAD SWAP1 POP DUP2 PUSH1 0x12 PUSH0 DUP8 PUSH20 0xFFFFFFFFFFFFFFFFFFFFFFFFFFFFFFFFFFFFFFFF AND PUSH20 0xFFFFFFFFFFFFFFFFFFFFFFFFFFFFFFFFFFFFFFFF AND DUP2 MSTORE PUSH1 0x20 ADD SWAP1 DUP2 MSTORE PUSH1 0x20 ADD PUSH0 KECCAK256 PUSH0 DUP7 PUSH20 0xFFFFFFFFFFFFFFFFFFFFFFFFFFFFFFFFFFFFFFFF AND PUSH20 0xFFFFFFFFFFFFFFFFFFFFFFFFFFFFFFFFFFFFFFFF AND DUP2 MSTORE PUSH1 0x20 ADD SWAP1 DUP2 MSTORE PUSH1 0x20 ADD PUSH0 KECCAK256 DUP2 SWAP1 SSTORE POP PUSH0 DUP2 EQ DUP1 ISZERO PUSH2 0x6774 JUMPI POP PUSH15 0xC097CE7BC90715B34B9F1000000000 PUSH28 0xFFFFFFFFFFFFFFFFFFFFFFFFFFFFFFFFFFFFFFFFFFFFFFFFFFFFFFFF AND DUP3 LT ISZERO JUMPDEST ISZERO PUSH2 0x67AA JUMPI PUSH15 0xC097CE7BC90715B34B9F1000000000 PUSH28 0xFFFFFFFFFFFFFFFFFFFFFFFFFFFFFFFFFFFFFFFFFFFFFFFFFFFFFFFF AND SWAP1 POP JUMPDEST PUSH0 PUSH1 0x40 MLOAD DUP1 PUSH1 0x20 ADD PUSH1 0x40 MSTORE DUP1 PUSH2 0x67C0 DUP6 DUP6 PUSH2 0x5359 JUMP JUMPDEST DUP2 MSTORE POP SWAP1 POP PUSH0 DUP7 PUSH20 0xFFFFFFFFFFFFFFFFFFFFFFFFFFFFFFFFFFFFFFFF AND PUSH4 0x70A08231 DUP8 PUSH1 0x40 MLOAD DUP3 PUSH4 0xFFFFFFFF AND PUSH1 0xE0 SHL DUP2 MSTORE PUSH1 0x4 ADD PUSH2 0x67FF SWAP2 SWAP1 PUSH2 0x7D68 JUMP JUMPDEST PUSH1 0x20 PUSH1 0x40 MLOAD DUP1 DUP4 SUB DUP2 DUP7 GAS STATICCALL ISZERO DUP1 ISZERO PUSH2 0x681A JUMPI RETURNDATASIZE PUSH0 DUP1 RETURNDATACOPY RETURNDATASIZE PUSH0 REVERT JUMPDEST POP POP POP POP PUSH1 0x40 MLOAD RETURNDATASIZE PUSH1 0x1F NOT PUSH1 0x1F DUP3 ADD AND DUP3 ADD DUP1 PUSH1 0x40 MSTORE POP DUP2 ADD SWAP1 PUSH2 0x683E SWAP2 SWAP1 PUSH2 0x8DDC JUMP JUMPDEST SWAP1 POP PUSH0 PUSH2 0x684B DUP3 DUP5 PUSH2 0x768C JUMP JUMPDEST SWAP1 POP PUSH0 PUSH2 0x6895 PUSH1 0x14 PUSH0 DUP11 PUSH20 0xFFFFFFFFFFFFFFFFFFFFFFFFFFFFFFFFFFFFFFFF AND PUSH20 0xFFFFFFFFFFFFFFFFFFFFFFFFFFFFFFFFFFFFFFFF AND DUP2 MSTORE PUSH1 0x20 ADD SWAP1 DUP2 MSTORE PUSH1 0x20 ADD PUSH0 KECCAK256 SLOAD DUP4 PUSH2 0x5344 JUMP JUMPDEST SWAP1 POP DUP1 PUSH1 0x14 PUSH0 DUP11 PUSH20 0xFFFFFFFFFFFFFFFFFFFFFFFFFFFFFFFFFFFFFFFF AND PUSH20 0xFFFFFFFFFFFFFFFFFFFFFFFFFFFFFFFFFFFFFFFF AND DUP2 MSTORE PUSH1 0x20 ADD SWAP1 DUP2 MSTORE PUSH1 0x20 ADD PUSH0 KECCAK256 DUP2 SWAP1 SSTORE POP DUP8 PUSH20 0xFFFFFFFFFFFFFFFFFFFFFFFFFFFFFFFFFFFFFFFF AND DUP10 PUSH20 0xFFFFFFFFFFFFFFFFFFFFFFFFFFFFFFFFFFFFFFFF AND PUSH32 0x2CAECD17D02F56FA897705DCC740DA2D237C373F70686F4E0D9BD3BF0400EA7A DUP5 DUP10 PUSH1 0x40 MLOAD PUSH2 0x6938 SWAP3 SWAP2 SWAP1 PUSH2 0x886D JUMP JUMPDEST PUSH1 0x40 MLOAD DUP1 SWAP2 SUB SWAP1 LOG3 POP POP POP POP POP POP POP POP POP JUMP JUMPDEST PUSH0 PUSH32 0x45B96FE442630264581B197E84BBADA861235052C5A1AADFFF9EA4E40A969AA0 DUP4 PUSH1 0x11 DUP2 GT ISZERO PUSH2 0x6980 JUMPI PUSH2 0x697F PUSH2 0x8E6F JUMP JUMPDEST JUMPDEST DUP4 PUSH1 0x13 DUP2 GT ISZERO PUSH2 0x6993 JUMPI PUSH2 0x6992 PUSH2 0x8E6F JUMP JUMPDEST JUMPDEST PUSH0 PUSH1 0x40 MLOAD PUSH2 0x69A3 SWAP4 SWAP3 SWAP2 SWAP1 PUSH2 0x9D56 JUMP JUMPDEST PUSH1 0x40 MLOAD DUP1 SWAP2 SUB SWAP1 LOG1 DUP3 PUSH1 0x11 DUP2 GT ISZERO PUSH2 0x69BE JUMPI PUSH2 0x69BD PUSH2 0x8E6F JUMP JUMPDEST JUMPDEST SWAP1 POP SWAP3 SWAP2 POP POP JUMP JUMPDEST PUSH0 DUP1 PUSH0 PUSH2 0x69D5 DUP5 PUSH0 DUP1 PUSH0 PUSH2 0x5BF0 JUMP JUMPDEST SWAP3 POP SWAP3 POP SWAP3 POP SWAP2 SWAP4 SWAP1 SWAP3 POP JUMP JUMPDEST PUSH0 DUP1 PUSH2 0x69EE DUP5 DUP5 PUSH2 0x76E6 JUMP JUMPDEST SWAP1 POP PUSH2 0x69F9 DUP2 PUSH2 0x7711 JUMP JUMPDEST SWAP2 POP POP SWAP3 SWAP2 POP POP JUMP JUMPDEST PUSH0 DUP2 DUP4 PUSH2 0x6A0F SWAP2 SWAP1 PUSH2 0x9D8B JUMP JUMPDEST SWAP1 POP SWAP3 SWAP2 POP POP JUMP JUMPDEST PUSH0 JUMPDEST PUSH1 0xD DUP1 SLOAD SWAP1 POP DUP2 LT ISZERO PUSH2 0x6ADC JUMPI DUP2 PUSH20 0xFFFFFFFFFFFFFFFFFFFFFFFFFFFFFFFFFFFFFFFF AND PUSH1 0xD DUP3 DUP2 SLOAD DUP2 LT PUSH2 0x6A51 JUMPI PUSH2 0x6A50 PUSH2 0x8A66 JUMP JUMPDEST JUMPDEST SWAP1 PUSH0 MSTORE PUSH1 0x20 PUSH0 KECCAK256 ADD PUSH0 SWAP1 SLOAD SWAP1 PUSH2 0x100 EXP SWAP1 DIV PUSH20 0xFFFFFFFFFFFFFFFFFFFFFFFFFFFFFFFFFFFFFFFF AND PUSH20 0xFFFFFFFFFFFFFFFFFFFFFFFFFFFFFFFFFFFFFFFF AND SUB PUSH2 0x6ACF JUMPI PUSH1 0x40 MLOAD PUSH32 0x8C379A000000000000000000000000000000000000000000000000000000000 DUP2 MSTORE PUSH1 0x4 ADD PUSH2 0x6AC6 SWAP1 PUSH2 0x9E16 JUMP JUMPDEST PUSH1 0x40 MLOAD DUP1 SWAP2 SUB SWAP1 REVERT JUMPDEST DUP1 DUP1 PUSH1 0x1 ADD SWAP2 POP POP PUSH2 0x6A19 JUMP JUMPDEST POP PUSH1 0xD DUP2 SWAP1 DUP1 PUSH1 0x1 DUP2 SLOAD ADD DUP1 DUP3 SSTORE DUP1 SWAP2 POP POP PUSH1 0x1 SWAP1 SUB SWAP1 PUSH0 MSTORE PUSH1 0x20 PUSH0 KECCAK256 ADD PUSH0 SWAP1 SWAP2 SWAP1 SWAP2 SWAP1 SWAP2 PUSH2 0x100 EXP DUP2 SLOAD DUP2 PUSH20 0xFFFFFFFFFFFFFFFFFFFFFFFFFFFFFFFFFFFFFFFF MUL NOT AND SWAP1 DUP4 PUSH20 0xFFFFFFFFFFFFFFFFFFFFFFFFFFFFFFFFFFFFFFFF AND MUL OR SWAP1 SSTORE POP POP JUMP JUMPDEST PUSH0 PUSH2 0x6B87 PUSH2 0x6B4C PUSH2 0x22A6 JUMP JUMPDEST PUSH1 0x40 MLOAD DUP1 PUSH1 0x40 ADD PUSH1 0x40 MSTORE DUP1 PUSH1 0x1C DUP2 MSTORE PUSH1 0x20 ADD PUSH32 0x626C6F636B206E756D6265722065786365656473203332206269747300000000 DUP2 MSTORE POP PUSH2 0x7535 JUMP JUMPDEST SWAP1 POP PUSH0 PUSH1 0x10 PUSH0 DUP5 PUSH20 0xFFFFFFFFFFFFFFFFFFFFFFFFFFFFFFFFFFFFFFFF AND PUSH20 0xFFFFFFFFFFFFFFFFFFFFFFFFFFFFFFFFFFFFFFFF AND DUP2 MSTORE PUSH1 0x20 ADD SWAP1 DUP2 MSTORE PUSH1 0x20 ADD PUSH0 KECCAK256 SWAP1 POP PUSH0 PUSH1 0x11 PUSH0 DUP6 PUSH20 0xFFFFFFFFFFFFFFFFFFFFFFFFFFFFFFFFFFFFFFFF AND PUSH20 0xFFFFFFFFFFFFFFFFFFFFFFFFFFFFFFFFFFFFFFFF AND DUP2 MSTORE PUSH1 0x20 ADD SWAP1 DUP2 MSTORE PUSH1 0x20 ADD PUSH0 KECCAK256 SWAP1 POP PUSH0 DUP3 PUSH0 ADD PUSH0 SWAP1 SLOAD SWAP1 PUSH2 0x100 EXP SWAP1 DIV PUSH28 0xFFFFFFFFFFFFFFFFFFFFFFFFFFFFFFFFFFFFFFFFFFFFFFFFFFFFFFFF AND PUSH28 0xFFFFFFFFFFFFFFFFFFFFFFFFFFFFFFFFFFFFFFFFFFFFFFFFFFFFFFFF AND SUB PUSH2 0x6CB9 JUMPI PUSH15 0xC097CE7BC90715B34B9F1000000000 DUP3 PUSH0 ADD PUSH0 PUSH2 0x100 EXP DUP2 SLOAD DUP2 PUSH28 0xFFFFFFFFFFFFFFFFFFFFFFFFFFFFFFFFFFFFFFFFFFFFFFFFFFFFFFFF MUL NOT AND SWAP1 DUP4 PUSH28 0xFFFFFFFFFFFFFFFFFFFFFFFFFFFFFFFFFFFFFFFFFFFFFFFFFFFFFFFF AND MUL OR SWAP1 SSTORE POP JUMPDEST PUSH0 DUP2 PUSH0 ADD PUSH0 SWAP1 SLOAD SWAP1 PUSH2 0x100 EXP SWAP1 DIV PUSH28 0xFFFFFFFFFFFFFFFFFFFFFFFFFFFFFFFFFFFFFFFFFFFFFFFFFFFFFFFF AND PUSH28 0xFFFFFFFFFFFFFFFFFFFFFFFFFFFFFFFFFFFFFFFFFFFFFFFFFFFFFFFF AND SUB PUSH2 0x6D69 JUMPI PUSH15 0xC097CE7BC90715B34B9F1000000000 DUP2 PUSH0 ADD PUSH0 PUSH2 0x100 EXP DUP2 SLOAD DUP2 PUSH28 0xFFFFFFFFFFFFFFFFFFFFFFFFFFFFFFFFFFFFFFFFFFFFFFFFFFFFFFFF MUL NOT AND SWAP1 DUP4 PUSH28 0xFFFFFFFFFFFFFFFFFFFFFFFFFFFFFFFFFFFFFFFFFFFFFFFFFFFFFFFF AND MUL OR SWAP1 SSTORE POP JUMPDEST DUP3 DUP2 PUSH0 ADD PUSH1 0x1C PUSH2 0x100 EXP DUP2 SLOAD DUP2 PUSH4 0xFFFFFFFF MUL NOT AND SWAP1 DUP4 PUSH4 0xFFFFFFFF AND MUL OR SWAP1 SSTORE DUP3 PUSH0 ADD PUSH1 0x1C PUSH2 0x100 EXP DUP2 SLOAD DUP2 PUSH4 0xFFFFFFFF MUL NOT AND SWAP1 DUP4 PUSH4 0xFFFFFFFF AND MUL OR SWAP1 SSTORE POP POP POP POP POP JUMP JUMPDEST PUSH0 PUSH1 0x9 PUSH0 DUP6 PUSH20 0xFFFFFFFFFFFFFFFFFFFFFFFFFFFFFFFFFFFFFFFF AND PUSH20 0xFFFFFFFFFFFFFFFFFFFFFFFFFFFFFFFFFFFFFFFF AND DUP2 MSTORE PUSH1 0x20 ADD SWAP1 DUP2 MSTORE PUSH1 0x20 ADD PUSH0 KECCAK256 SWAP1 POP DUP1 PUSH0 ADD PUSH0 SWAP1 SLOAD SWAP1 PUSH2 0x100 EXP SWAP1 DIV PUSH1 0xFF AND PUSH2 0x6E40 JUMPI PUSH1 0x40 MLOAD PUSH32 0x8C379A000000000000000000000000000000000000000000000000000000000 DUP2 MSTORE PUSH1 0x4 ADD PUSH2 0x6E37 SWAP1 PUSH2 0x9E7E JUMP JUMPDEST PUSH1 0x40 MLOAD DUP1 SWAP2 SUB SWAP1 REVERT JUMPDEST DUP3 PUSH1 0x1A PUSH0 DUP7 PUSH20 0xFFFFFFFFFFFFFFFFFFFFFFFFFFFFFFFFFFFFFFFF AND PUSH20 0xFFFFFFFFFFFFFFFFFFFFFFFFFFFFFFFFFFFFFFFF AND DUP2 MSTORE PUSH1 0x20 ADD SWAP1 DUP2 MSTORE PUSH1 0x20 ADD PUSH0 KECCAK256 SLOAD EQ PUSH2 0x6F1E JUMPI PUSH2 0x6E8D DUP5 PUSH2 0x62B6 JUMP JUMPDEST DUP3 PUSH1 0x1A PUSH0 DUP7 PUSH20 0xFFFFFFFFFFFFFFFFFFFFFFFFFFFFFFFFFFFFFFFF AND PUSH20 0xFFFFFFFFFFFFFFFFFFFFFFFFFFFFFFFFFFFFFFFF AND DUP2 MSTORE PUSH1 0x20 ADD SWAP1 DUP2 MSTORE PUSH1 0x20 ADD PUSH0 KECCAK256 DUP2 SWAP1 SSTORE POP DUP4 PUSH20 0xFFFFFFFFFFFFFFFFFFFFFFFFFFFFFFFFFFFFFFFF AND PUSH32 0xDEAFCCD0C0B768B2529F7DCBBE58E155D6023059150B7490ED4535CC3744B92D DUP5 PUSH1 0x40 MLOAD PUSH2 0x6F15 SWAP2 SWAP1 PUSH2 0x7C9F JUMP JUMPDEST PUSH1 0x40 MLOAD DUP1 SWAP2 SUB SWAP1 LOG2 JUMPDEST DUP2 PUSH1 0x19 PUSH0 DUP7 PUSH20 0xFFFFFFFFFFFFFFFFFFFFFFFFFFFFFFFFFFFFFFFF AND PUSH20 0xFFFFFFFFFFFFFFFFFFFFFFFFFFFFFFFFFFFFFFFF AND DUP2 MSTORE PUSH1 0x20 ADD SWAP1 DUP2 MSTORE PUSH1 0x20 ADD PUSH0 KECCAK256 SLOAD EQ PUSH2 0x707C JUMPI PUSH0 PUSH1 0x40 MLOAD DUP1 PUSH1 0x20 ADD PUSH1 0x40 MSTORE DUP1 DUP7 PUSH20 0xFFFFFFFFFFFFFFFFFFFFFFFFFFFFFFFFFFFFFFFF AND PUSH4 0xAA5AF0FD PUSH1 0x40 MLOAD DUP2 PUSH4 0xFFFFFFFF AND PUSH1 0xE0 SHL DUP2 MSTORE PUSH1 0x4 ADD PUSH1 0x20 PUSH1 0x40 MLOAD DUP1 DUP4 SUB DUP2 DUP7 GAS STATICCALL ISZERO DUP1 ISZERO PUSH2 0x6FB7 JUMPI RETURNDATASIZE PUSH0 DUP1 RETURNDATACOPY RETURNDATASIZE PUSH0 REVERT JUMPDEST POP POP POP POP PUSH1 0x40 MLOAD RETURNDATASIZE PUSH1 0x1F NOT PUSH1 0x1F DUP3 ADD AND DUP3 ADD DUP1 PUSH1 0x40 MSTORE POP DUP2 ADD SWAP1 PUSH2 0x6FDB SWAP2 SWAP1 PUSH2 0x8DDC JUMP JUMPDEST DUP2 MSTORE POP SWAP1 POP PUSH2 0x6FEA DUP6 DUP3 PUSH2 0x536E JUMP JUMPDEST DUP3 PUSH1 0x19 PUSH0 DUP8 PUSH20 0xFFFFFFFFFFFFFFFFFFFFFFFFFFFFFFFFFFFFFFFF AND PUSH20 0xFFFFFFFFFFFFFFFFFFFFFFFFFFFFFFFFFFFFFFFF AND DUP2 MSTORE PUSH1 0x20 ADD SWAP1 DUP2 MSTORE PUSH1 0x20 ADD PUSH0 KECCAK256 DUP2 SWAP1 SSTORE POP DUP5 PUSH20 0xFFFFFFFFFFFFFFFFFFFFFFFFFFFFFFFFFFFFFFFF AND PUSH32 0x20AF8E791CC98F74B2D7A391C80980CA8E5AEBF3D4060BF581997B6ACAE2E537 DUP5 PUSH1 0x40 MLOAD PUSH2 0x7072 SWAP2 SWAP1 PUSH2 0x7C9F JUMP JUMPDEST PUSH1 0x40 MLOAD DUP1 SWAP2 SUB SWAP1 LOG2 POP JUMPDEST POP POP POP POP JUMP JUMPDEST PUSH0 PUSH1 0x9 PUSH0 DUP6 PUSH20 0xFFFFFFFFFFFFFFFFFFFFFFFFFFFFFFFFFFFFFFFF AND PUSH20 0xFFFFFFFFFFFFFFFFFFFFFFFFFFFFFFFFFFFFFFFF AND DUP2 MSTORE PUSH1 0x20 ADD SWAP1 DUP2 MSTORE PUSH1 0x20 ADD PUSH0 KECCAK256 PUSH0 ADD PUSH0 SWAP1 SLOAD SWAP1 PUSH2 0x100 EXP SWAP1 DIV PUSH1 0xFF AND PUSH2 0x70EE JUMPI PUSH1 0x9 PUSH1 0x11 DUP2 GT ISZERO PUSH2 0x70E7 JUMPI PUSH2 0x70E6 PUSH2 0x8E6F JUMP JUMPDEST JUMPDEST SWAP1 POP PUSH2 0x722B JUMP JUMPDEST PUSH1 0x9 PUSH0 DUP6 PUSH20 0xFFFFFFFFFFFFFFFFFFFFFFFFFFFFFFFFFFFFFFFF AND PUSH20 0xFFFFFFFFFFFFFFFFFFFFFFFFFFFFFFFFFFFFFFFF AND DUP2 MSTORE PUSH1 0x20 ADD SWAP1 DUP2 MSTORE PUSH1 0x20 ADD PUSH0 KECCAK256 PUSH1 0x2 ADD PUSH0 DUP5 PUSH20 0xFFFFFFFFFFFFFFFFFFFFFFFFFFFFFFFFFFFFFFFF AND PUSH20 0xFFFFFFFFFFFFFFFFFFFFFFFFFFFFFFFFFFFFFFFF AND DUP2 MSTORE PUSH1 0x20 ADD SWAP1 DUP2 MSTORE PUSH1 0x20 ADD PUSH0 KECCAK256 PUSH0 SWAP1 SLOAD SWAP1 PUSH2 0x100 EXP SWAP1 DIV PUSH1 0xFF AND PUSH2 0x7194 JUMPI PUSH0 PUSH1 0x11 DUP2 GT ISZERO PUSH2 0x718D JUMPI PUSH2 0x718C PUSH2 0x8E6F JUMP JUMPDEST JUMPDEST SWAP1 POP PUSH2 0x722B JUMP JUMPDEST PUSH0 DUP1 PUSH2 0x71A2 DUP6 DUP8 DUP7 PUSH0 PUSH2 0x5BF0 JUMP JUMPDEST SWAP3 POP POP SWAP2 POP PUSH0 PUSH1 0x11 DUP2 GT ISZERO PUSH2 0x71BA JUMPI PUSH2 0x71B9 PUSH2 0x8E6F JUMP JUMPDEST JUMPDEST DUP3 PUSH1 0x11 DUP2 GT ISZERO PUSH2 0x71CD JUMPI PUSH2 0x71CC PUSH2 0x8E6F JUMP JUMPDEST JUMPDEST EQ PUSH2 0x71EE JUMPI DUP2 PUSH1 0x11 DUP2 GT ISZERO PUSH2 0x71E5 JUMPI PUSH2 0x71E4 PUSH2 0x8E6F JUMP JUMPDEST JUMPDEST SWAP3 POP POP POP PUSH2 0x722B JUMP JUMPDEST PUSH0 DUP2 GT ISZERO PUSH2 0x7213 JUMPI PUSH1 0x4 PUSH1 0x11 DUP2 GT ISZERO PUSH2 0x720A JUMPI PUSH2 0x7209 PUSH2 0x8E6F JUMP JUMPDEST JUMPDEST SWAP3 POP POP POP PUSH2 0x722B JUMP JUMPDEST PUSH0 PUSH1 0x11 DUP2 GT ISZERO PUSH2 0x7226 JUMPI PUSH2 0x7225 PUSH2 0x8E6F JUMP JUMPDEST JUMPDEST SWAP3 POP POP POP JUMPDEST SWAP4 SWAP3 POP POP POP JUMP JUMPDEST PUSH0 DUP1 PUSH1 0x9 PUSH0 DUP6 PUSH20 0xFFFFFFFFFFFFFFFFFFFFFFFFFFFFFFFFFFFFFFFF AND PUSH20 0xFFFFFFFFFFFFFFFFFFFFFFFFFFFFFFFFFFFFFFFF AND DUP2 MSTORE PUSH1 0x20 ADD SWAP1 DUP2 MSTORE PUSH1 0x20 ADD PUSH0 KECCAK256 SWAP1 POP DUP1 PUSH0 ADD PUSH0 SWAP1 SLOAD SWAP1 PUSH2 0x100 EXP SWAP1 DIV PUSH1 0xFF AND PUSH2 0x7291 JUMPI PUSH1 0x9 SWAP2 POP POP PUSH2 0x7421 JUMP JUMPDEST PUSH1 0x1 ISZERO ISZERO DUP2 PUSH1 0x2 ADD PUSH0 DUP6 PUSH20 0xFFFFFFFFFFFFFFFFFFFFFFFFFFFFFFFFFFFFFFFF AND PUSH20 0xFFFFFFFFFFFFFFFFFFFFFFFFFFFFFFFFFFFFFFFF AND DUP2 MSTORE PUSH1 0x20 ADD SWAP1 DUP2 MSTORE PUSH1 0x20 ADD PUSH0 KECCAK256 PUSH0 SWAP1 SLOAD SWAP1 PUSH2 0x100 EXP SWAP1 DIV PUSH1 0xFF AND ISZERO ISZERO SUB PUSH2 0x72F1 JUMPI PUSH0 SWAP2 POP POP PUSH2 0x7421 JUMP JUMPDEST PUSH1 0x1 DUP2 PUSH1 0x2 ADD PUSH0 DUP6 PUSH20 0xFFFFFFFFFFFFFFFFFFFFFFFFFFFFFFFFFFFFFFFF AND PUSH20 0xFFFFFFFFFFFFFFFFFFFFFFFFFFFFFFFFFFFFFFFF AND DUP2 MSTORE PUSH1 0x20 ADD SWAP1 DUP2 MSTORE PUSH1 0x20 ADD PUSH0 KECCAK256 PUSH0 PUSH2 0x100 EXP DUP2 SLOAD DUP2 PUSH1 0xFF MUL NOT AND SWAP1 DUP4 ISZERO ISZERO MUL OR SWAP1 SSTORE POP PUSH1 0x8 PUSH0 DUP5 PUSH20 0xFFFFFFFFFFFFFFFFFFFFFFFFFFFFFFFFFFFFFFFF AND PUSH20 0xFFFFFFFFFFFFFFFFFFFFFFFFFFFFFFFFFFFFFFFF AND DUP2 MSTORE PUSH1 0x20 ADD SWAP1 DUP2 MSTORE PUSH1 0x20 ADD PUSH0 KECCAK256 DUP5 SWAP1 DUP1 PUSH1 0x1 DUP2 SLOAD ADD DUP1 DUP3 SSTORE DUP1 SWAP2 POP POP PUSH1 0x1 SWAP1 SUB SWAP1 PUSH0 MSTORE PUSH1 0x20 PUSH0 KECCAK256 ADD PUSH0 SWAP1 SWAP2 SWAP1 SWAP2 SWAP1 SWAP2 PUSH2 0x100 EXP DUP2 SLOAD DUP2 PUSH20 0xFFFFFFFFFFFFFFFFFFFFFFFFFFFFFFFFFFFFFFFF MUL NOT AND SWAP1 DUP4 PUSH20 0xFFFFFFFFFFFFFFFFFFFFFFFFFFFFFFFFFFFFFFFF AND MUL OR SWAP1 SSTORE POP PUSH32 0x3AB23AB0D51CCCC0C3085AEC51F99228625AA1A922B3A8CA89A26B0F2027A1A5 DUP5 DUP5 PUSH1 0x40 MLOAD PUSH2 0x7414 SWAP3 SWAP2 SWAP1 PUSH2 0x9A27 JUMP JUMPDEST PUSH1 0x40 MLOAD DUP1 SWAP2 SUB SWAP1 LOG1 PUSH0 SWAP2 POP POP JUMPDEST SWAP3 SWAP2 POP POP JUMP JUMPDEST PUSH2 0x742F PUSH2 0x7745 JUMP JUMPDEST PUSH1 0x40 MLOAD DUP1 PUSH1 0x20 ADD PUSH1 0x40 MSTORE DUP1 PUSH8 0xDE0B6B3A7640000 PUSH2 0x7453 DUP7 PUSH0 ADD MLOAD DUP7 PUSH0 ADD MLOAD PUSH2 0x6A02 JUMP JUMPDEST PUSH2 0x745D SWAP2 SWAP1 PUSH2 0x9EC9 JUMP JUMPDEST DUP2 MSTORE POP SWAP1 POP SWAP3 SWAP2 POP POP JUMP JUMPDEST PUSH2 0x7470 PUSH2 0x7745 JUMP JUMPDEST PUSH1 0x40 MLOAD DUP1 PUSH1 0x20 ADD PUSH1 0x40 MSTORE DUP1 PUSH2 0x749C PUSH2 0x7493 DUP7 PUSH0 ADD MLOAD PUSH8 0xDE0B6B3A7640000 PUSH2 0x6A02 JUMP JUMPDEST DUP6 PUSH0 ADD MLOAD PUSH2 0x7730 JUMP JUMPDEST DUP2 MSTORE POP SWAP1 POP SWAP3 SWAP2 POP POP JUMP JUMPDEST PUSH0 DUP2 PUSH0 ADD MLOAD DUP4 PUSH0 ADD MLOAD LT SWAP1 POP SWAP3 SWAP2 POP POP JUMP JUMPDEST PUSH0 PUSH32 0x45B96FE442630264581B197E84BBADA861235052C5A1AADFFF9EA4E40A969AA0 DUP5 PUSH1 0x11 DUP2 GT ISZERO PUSH2 0x74EE JUMPI PUSH2 0x74ED PUSH2 0x8E6F JUMP JUMPDEST JUMPDEST DUP5 PUSH1 0x13 DUP2 GT ISZERO PUSH2 0x7501 JUMPI PUSH2 0x7500 PUSH2 0x8E6F JUMP JUMPDEST JUMPDEST DUP5 PUSH1 0x40 MLOAD PUSH2 0x7511 SWAP4 SWAP3 SWAP2 SWAP1 PUSH2 0x7F66 JUMP JUMPDEST PUSH1 0x40 MLOAD DUP1 SWAP2 SUB SWAP1 LOG1 DUP4 PUSH1 0x11 DUP2 GT ISZERO PUSH2 0x752C JUMPI PUSH2 0x752B PUSH2 0x8E6F JUMP JUMPDEST JUMPDEST SWAP1 POP SWAP4 SWAP3 POP POP POP JUMP JUMPDEST PUSH0 PUSH5 0x100000000 DUP4 LT DUP3 SWAP1 PUSH2 0x7580 JUMPI PUSH1 0x40 MLOAD PUSH32 0x8C379A000000000000000000000000000000000000000000000000000000000 DUP2 MSTORE PUSH1 0x4 ADD PUSH2 0x7577 SWAP2 SWAP1 PUSH2 0x9F49 JUMP JUMPDEST PUSH1 0x40 MLOAD DUP1 SWAP2 SUB SWAP1 REVERT JUMPDEST POP DUP3 SWAP1 POP SWAP3 SWAP2 POP POP JUMP JUMPDEST PUSH0 PUSH2 0x75A9 PUSH2 0x75A0 DUP5 PUSH8 0xDE0B6B3A7640000 PUSH2 0x6A02 JUMP JUMPDEST DUP4 PUSH0 ADD MLOAD PUSH2 0x7730 JUMP JUMPDEST SWAP1 POP SWAP3 SWAP2 POP POP JUMP JUMPDEST PUSH2 0x75B9 PUSH2 0x77BC JUMP JUMPDEST PUSH1 0x40 MLOAD DUP1 PUSH1 0x20 ADD PUSH1 0x40 MSTORE DUP1 PUSH2 0x75E6 PUSH2 0x75E0 DUP7 PUSH15 0xC097CE7BC90715B34B9F1000000000 PUSH2 0x6A02 JUMP JUMPDEST DUP6 PUSH2 0x7730 JUMP JUMPDEST DUP2 MSTORE POP SWAP1 POP SWAP3 SWAP2 POP POP JUMP JUMPDEST PUSH2 0x75F9 PUSH2 0x77BC JUMP JUMPDEST PUSH1 0x40 MLOAD DUP1 PUSH1 0x20 ADD PUSH1 0x40 MSTORE DUP1 PUSH2 0x7614 DUP6 PUSH0 ADD MLOAD DUP6 PUSH0 ADD MLOAD PUSH2 0x5344 JUMP JUMPDEST DUP2 MSTORE POP SWAP1 POP SWAP3 SWAP2 POP POP JUMP JUMPDEST PUSH0 PUSH29 0x100000000000000000000000000000000000000000000000000000000 DUP4 LT DUP3 SWAP1 PUSH2 0x7682 JUMPI PUSH1 0x40 MLOAD PUSH32 0x8C379A000000000000000000000000000000000000000000000000000000000 DUP2 MSTORE PUSH1 0x4 ADD PUSH2 0x7679 SWAP2 SWAP1 PUSH2 0x9F49 JUMP JUMPDEST PUSH1 0x40 MLOAD DUP1 SWAP2 SUB SWAP1 REVERT JUMPDEST POP DUP3 SWAP1 POP SWAP3 SWAP2 POP POP JUMP JUMPDEST PUSH0 PUSH15 0xC097CE7BC90715B34B9F1000000000 PUSH2 0x76AA DUP5 DUP5 PUSH0 ADD MLOAD PUSH2 0x6A02 JUMP JUMPDEST PUSH2 0x76B4 SWAP2 SWAP1 PUSH2 0x9EC9 JUMP JUMPDEST SWAP1 POP SWAP3 SWAP2 POP POP JUMP JUMPDEST PUSH0 DUP1 PUSH2 0x76C8 DUP6 DUP6 PUSH2 0x76E6 JUMP JUMPDEST SWAP1 POP PUSH2 0x76DC PUSH2 0x76D6 DUP3 PUSH2 0x7711 JUMP JUMPDEST DUP5 PUSH2 0x5344 JUMP JUMPDEST SWAP2 POP POP SWAP4 SWAP3 POP POP POP JUMP JUMPDEST PUSH2 0x76EE PUSH2 0x7745 JUMP JUMPDEST PUSH1 0x40 MLOAD DUP1 PUSH1 0x20 ADD PUSH1 0x40 MSTORE DUP1 PUSH2 0x7706 DUP6 PUSH0 ADD MLOAD DUP6 PUSH2 0x6A02 JUMP JUMPDEST DUP2 MSTORE POP SWAP1 POP SWAP3 SWAP2 POP POP JUMP JUMPDEST PUSH0 PUSH8 0xDE0B6B3A7640000 DUP3 PUSH0 ADD MLOAD PUSH2 0x7729 SWAP2 SWAP1 PUSH2 0x9EC9 JUMP JUMPDEST SWAP1 POP SWAP2 SWAP1 POP JUMP JUMPDEST PUSH0 DUP2 DUP4 PUSH2 0x773D SWAP2 SWAP1 PUSH2 0x9EC9 JUMP JUMPDEST SWAP1 POP SWAP3 SWAP2 POP POP JUMP JUMPDEST PUSH1 0x40 MLOAD DUP1 PUSH1 0x20 ADD PUSH1 0x40 MSTORE DUP1 PUSH0 DUP2 MSTORE POP SWAP1 JUMP JUMPDEST PUSH1 0x40 MLOAD DUP1 PUSH2 0x140 ADD PUSH1 0x40 MSTORE DUP1 PUSH0 DUP2 MSTORE PUSH1 0x20 ADD PUSH0 DUP2 MSTORE PUSH1 0x20 ADD PUSH0 DUP2 MSTORE PUSH1 0x20 ADD PUSH0 DUP2 MSTORE PUSH1 0x20 ADD PUSH0 DUP2 MSTORE PUSH1 0x20 ADD PUSH0 DUP2 MSTORE PUSH1 0x20 ADD PUSH2 0x778F PUSH2 0x7745 JUMP JUMPDEST DUP2 MSTORE PUSH1 0x20 ADD PUSH2 0x779C PUSH2 0x7745 JUMP JUMPDEST DUP2 MSTORE PUSH1 0x20 ADD PUSH2 0x77A9 PUSH2 0x7745 JUMP JUMPDEST DUP2 MSTORE PUSH1 0x20 ADD PUSH2 0x77B6 PUSH2 0x7745 JUMP JUMPDEST DUP2 MSTORE POP SWAP1 JUMP JUMPDEST PUSH1 0x40 MLOAD DUP1 PUSH1 0x20 ADD PUSH1 0x40 MSTORE DUP1 PUSH0 DUP2 MSTORE POP SWAP1 JUMP JUMPDEST PUSH0 DUP2 ISZERO ISZERO SWAP1 POP SWAP2 SWAP1 POP JUMP JUMPDEST PUSH2 0x77E2 DUP2 PUSH2 0x77CE JUMP JUMPDEST DUP3 MSTORE POP POP JUMP JUMPDEST PUSH0 PUSH1 0x20 DUP3 ADD SWAP1 POP PUSH2 0x77FB PUSH0 DUP4 ADD DUP5 PUSH2 0x77D9 JUMP JUMPDEST SWAP3 SWAP2 POP POP JUMP JUMPDEST PUSH0 PUSH1 0x40 MLOAD SWAP1 POP SWAP1 JUMP JUMPDEST PUSH0 DUP1 REVERT JUMPDEST PUSH0 DUP1 REVERT JUMPDEST PUSH0 DUP1 REVERT JUMPDEST PUSH0 DUP1 REVERT JUMPDEST PUSH0 DUP1 REVERT JUMPDEST PUSH0 DUP1 DUP4 PUSH1 0x1F DUP5 ADD SLT PUSH2 0x7833 JUMPI PUSH2 0x7832 PUSH2 0x7812 JUMP JUMPDEST JUMPDEST DUP3 CALLDATALOAD SWAP1 POP PUSH8 0xFFFFFFFFFFFFFFFF DUP2 GT ISZERO PUSH2 0x7850 JUMPI PUSH2 0x784F PUSH2 0x7816 JUMP JUMPDEST JUMPDEST PUSH1 0x20 DUP4 ADD SWAP2 POP DUP4 PUSH1 0x20 DUP3 MUL DUP4 ADD GT ISZERO PUSH2 0x786C JUMPI PUSH2 0x786B PUSH2 0x781A JUMP JUMPDEST JUMPDEST SWAP3 POP SWAP3 SWAP1 POP JUMP JUMPDEST PUSH0 DUP1 DUP4 PUSH1 0x1F DUP5 ADD SLT PUSH2 0x7888 JUMPI PUSH2 0x7887 PUSH2 0x7812 JUMP JUMPDEST JUMPDEST DUP3 CALLDATALOAD SWAP1 POP PUSH8 0xFFFFFFFFFFFFFFFF DUP2 GT ISZERO PUSH2 0x78A5 JUMPI PUSH2 0x78A4 PUSH2 0x7816 JUMP JUMPDEST JUMPDEST PUSH1 0x20 DUP4 ADD SWAP2 POP DUP4 PUSH1 0x20 DUP3 MUL DUP4 ADD GT ISZERO PUSH2 0x78C1 JUMPI PUSH2 0x78C0 PUSH2 0x781A JUMP JUMPDEST JUMPDEST SWAP3 POP SWAP3 SWAP1 POP JUMP JUMPDEST PUSH0 DUP1 PUSH0 DUP1 PUSH1 0x40 DUP6 DUP8 SUB SLT ISZERO PUSH2 0x78E0 JUMPI PUSH2 0x78DF PUSH2 0x780A JUMP JUMPDEST JUMPDEST PUSH0 DUP6 ADD CALLDATALOAD PUSH8 0xFFFFFFFFFFFFFFFF DUP2 GT ISZERO PUSH2 0x78FD JUMPI PUSH2 0x78FC PUSH2 0x780E JUMP JUMPDEST JUMPDEST PUSH2 0x7909 DUP8 DUP3 DUP9 ADD PUSH2 0x781E JUMP JUMPDEST SWAP5 POP SWAP5 POP POP PUSH1 0x20 DUP6 ADD CALLDATALOAD PUSH8 0xFFFFFFFFFFFFFFFF DUP2 GT ISZERO PUSH2 0x792C JUMPI PUSH2 0x792B PUSH2 0x780E JUMP JUMPDEST JUMPDEST PUSH2 0x7938 DUP8 DUP3 DUP9 ADD PUSH2 0x7873 JUMP JUMPDEST SWAP3 POP SWAP3 POP POP SWAP3 SWAP6 SWAP2 SWAP5 POP SWAP3 POP JUMP JUMPDEST PUSH0 PUSH20 0xFFFFFFFFFFFFFFFFFFFFFFFFFFFFFFFFFFFFFFFF DUP3 AND SWAP1 POP SWAP2 SWAP1 POP JUMP JUMPDEST PUSH0 PUSH2 0x796F DUP3 PUSH2 0x7946 JUMP JUMPDEST SWAP1 POP SWAP2 SWAP1 POP JUMP JUMPDEST PUSH0 PUSH2 0x7980 DUP3 PUSH2 0x7965 JUMP JUMPDEST SWAP1 POP SWAP2 SWAP1 POP JUMP JUMPDEST PUSH2 0x7990 DUP2 PUSH2 0x7976 JUMP JUMPDEST DUP2 EQ PUSH2 0x799A JUMPI PUSH0 DUP1 REVERT JUMPDEST POP JUMP JUMPDEST PUSH0 DUP2 CALLDATALOAD SWAP1 POP PUSH2 0x79AB DUP2 PUSH2 0x7987 JUMP JUMPDEST SWAP3 SWAP2 POP POP JUMP JUMPDEST PUSH2 0x79BA DUP2 PUSH2 0x77CE JUMP JUMPDEST DUP2 EQ PUSH2 0x79C4 JUMPI PUSH0 DUP1 REVERT JUMPDEST POP JUMP JUMPDEST PUSH0 DUP2 CALLDATALOAD SWAP1 POP PUSH2 0x79D5 DUP2 PUSH2 0x79B1 JUMP JUMPDEST SWAP3 SWAP2 POP POP JUMP JUMPDEST PUSH0 DUP1 PUSH1 0x40 DUP4 DUP6 SUB SLT ISZERO PUSH2 0x79F1 JUMPI PUSH2 0x79F0 PUSH2 0x780A JUMP JUMPDEST JUMPDEST PUSH0 PUSH2 0x79FE DUP6 DUP3 DUP7 ADD PUSH2 0x799D JUMP JUMPDEST SWAP3 POP POP PUSH1 0x20 PUSH2 0x7A0F DUP6 DUP3 DUP7 ADD PUSH2 0x79C7 JUMP JUMPDEST SWAP2 POP POP SWAP3 POP SWAP3 SWAP1 POP JUMP JUMPDEST PUSH2 0x7A22 DUP2 PUSH2 0x7965 JUMP JUMPDEST DUP2 EQ PUSH2 0x7A2C JUMPI PUSH0 DUP1 REVERT JUMPDEST POP JUMP JUMPDEST PUSH0 DUP2 CALLDATALOAD SWAP1 POP PUSH2 0x7A3D DUP2 PUSH2 0x7A19 JUMP JUMPDEST SWAP3 SWAP2 POP POP JUMP JUMPDEST PUSH0 PUSH1 0x1F NOT PUSH1 0x1F DUP4 ADD AND SWAP1 POP SWAP2 SWAP1 POP JUMP JUMPDEST PUSH32 0x4E487B7100000000000000000000000000000000000000000000000000000000 PUSH0 MSTORE PUSH1 0x41 PUSH1 0x4 MSTORE PUSH1 0x24 PUSH0 REVERT JUMPDEST PUSH2 0x7A89 DUP3 PUSH2 0x7A43 JUMP JUMPDEST DUP2 ADD DUP2 DUP2 LT PUSH8 0xFFFFFFFFFFFFFFFF DUP3 GT OR ISZERO PUSH2 0x7AA8 JUMPI PUSH2 0x7AA7 PUSH2 0x7A53 JUMP JUMPDEST JUMPDEST DUP1 PUSH1 0x40 MSTORE POP POP POP JUMP JUMPDEST PUSH0 PUSH2 0x7ABA PUSH2 0x7801 JUMP JUMPDEST SWAP1 POP PUSH2 0x7AC6 DUP3 DUP3 PUSH2 0x7A80 JUMP JUMPDEST SWAP2 SWAP1 POP JUMP JUMPDEST PUSH0 PUSH8 0xFFFFFFFFFFFFFFFF DUP3 GT ISZERO PUSH2 0x7AE5 JUMPI PUSH2 0x7AE4 PUSH2 0x7A53 JUMP JUMPDEST JUMPDEST PUSH1 0x20 DUP3 MUL SWAP1 POP PUSH1 0x20 DUP2 ADD SWAP1 POP SWAP2 SWAP1 POP JUMP JUMPDEST PUSH0 PUSH2 0x7B08 PUSH2 0x7B03 DUP5 PUSH2 0x7ACB JUMP JUMPDEST PUSH2 0x7AB1 JUMP JUMPDEST SWAP1 POP DUP1 DUP4 DUP3 MSTORE PUSH1 0x20 DUP3 ADD SWAP1 POP PUSH1 0x20 DUP5 MUL DUP4 ADD DUP6 DUP2 GT ISZERO PUSH2 0x7B2B JUMPI PUSH2 0x7B2A PUSH2 0x781A JUMP JUMPDEST JUMPDEST DUP4 JUMPDEST DUP2 DUP2 LT ISZERO PUSH2 0x7B54 JUMPI DUP1 PUSH2 0x7B40 DUP9 DUP3 PUSH2 0x799D JUMP JUMPDEST DUP5 MSTORE PUSH1 0x20 DUP5 ADD SWAP4 POP POP PUSH1 0x20 DUP2 ADD SWAP1 POP PUSH2 0x7B2D JUMP JUMPDEST POP POP POP SWAP4 SWAP3 POP POP POP JUMP JUMPDEST PUSH0 DUP3 PUSH1 0x1F DUP4 ADD SLT PUSH2 0x7B72 JUMPI PUSH2 0x7B71 PUSH2 0x7812 JUMP JUMPDEST JUMPDEST DUP2 CALLDATALOAD PUSH2 0x7B82 DUP5 DUP3 PUSH1 0x20 DUP7 ADD PUSH2 0x7AF6 JUMP JUMPDEST SWAP2 POP POP SWAP3 SWAP2 POP POP JUMP JUMPDEST PUSH0 DUP1 PUSH1 0x40 DUP4 DUP6 SUB SLT ISZERO PUSH2 0x7BA1 JUMPI PUSH2 0x7BA0 PUSH2 0x780A JUMP JUMPDEST JUMPDEST PUSH0 PUSH2 0x7BAE DUP6 DUP3 DUP7 ADD PUSH2 0x7A2F JUMP JUMPDEST SWAP3 POP POP PUSH1 0x20 DUP4 ADD CALLDATALOAD PUSH8 0xFFFFFFFFFFFFFFFF DUP2 GT ISZERO PUSH2 0x7BCF JUMPI PUSH2 0x7BCE PUSH2 0x780E JUMP JUMPDEST JUMPDEST PUSH2 0x7BDB DUP6 DUP3 DUP7 ADD PUSH2 0x7B5E JUMP JUMPDEST SWAP2 POP POP SWAP3 POP SWAP3 SWAP1 POP JUMP JUMPDEST PUSH0 PUSH2 0x7BEF DUP3 PUSH2 0x7946 JUMP JUMPDEST SWAP1 POP SWAP2 SWAP1 POP JUMP JUMPDEST PUSH0 PUSH2 0x7C00 DUP3 PUSH2 0x7BE5 JUMP JUMPDEST SWAP1 POP SWAP2 SWAP1 POP JUMP JUMPDEST PUSH2 0x7C10 DUP2 PUSH2 0x7BF6 JUMP JUMPDEST DUP2 EQ PUSH2 0x7C1A JUMPI PUSH0 DUP1 REVERT JUMPDEST POP JUMP JUMPDEST PUSH0 DUP2 CALLDATALOAD SWAP1 POP PUSH2 0x7C2B DUP2 PUSH2 0x7C07 JUMP JUMPDEST SWAP3 SWAP2 POP POP JUMP JUMPDEST PUSH0 PUSH1 0x20 DUP3 DUP5 SUB SLT ISZERO PUSH2 0x7C46 JUMPI PUSH2 0x7C45 PUSH2 0x780A JUMP JUMPDEST JUMPDEST PUSH0 PUSH2 0x7C53 DUP5 DUP3 DUP6 ADD PUSH2 0x7C1D JUMP JUMPDEST SWAP2 POP POP SWAP3 SWAP2 POP POP JUMP JUMPDEST PUSH0 PUSH1 0x20 DUP3 DUP5 SUB SLT ISZERO PUSH2 0x7C71 JUMPI PUSH2 0x7C70 PUSH2 0x780A JUMP JUMPDEST JUMPDEST PUSH0 PUSH2 0x7C7E DUP5 DUP3 DUP6 ADD PUSH2 0x7A2F JUMP JUMPDEST SWAP2 POP POP SWAP3 SWAP2 POP POP JUMP JUMPDEST PUSH0 DUP2 SWAP1 POP SWAP2 SWAP1 POP JUMP JUMPDEST PUSH2 0x7C99 DUP2 PUSH2 0x7C87 JUMP JUMPDEST DUP3 MSTORE POP POP JUMP JUMPDEST PUSH0 PUSH1 0x20 DUP3 ADD SWAP1 POP PUSH2 0x7CB2 PUSH0 DUP4 ADD DUP5 PUSH2 0x7C90 JUMP JUMPDEST SWAP3 SWAP2 POP POP JUMP JUMPDEST PUSH2 0x7CC1 DUP2 PUSH2 0x7C87 JUMP JUMPDEST DUP2 EQ PUSH2 0x7CCB JUMPI PUSH0 DUP1 REVERT JUMPDEST POP JUMP JUMPDEST PUSH0 DUP2 CALLDATALOAD SWAP1 POP PUSH2 0x7CDC DUP2 PUSH2 0x7CB8 JUMP JUMPDEST SWAP3 SWAP2 POP POP JUMP JUMPDEST PUSH0 DUP1 PUSH0 DUP1 PUSH0 PUSH1 0xA0 DUP7 DUP9 SUB SLT ISZERO PUSH2 0x7CFB JUMPI PUSH2 0x7CFA PUSH2 0x780A JUMP JUMPDEST JUMPDEST PUSH0 PUSH2 0x7D08 DUP9 DUP3 DUP10 ADD PUSH2 0x7A2F JUMP JUMPDEST SWAP6 POP POP PUSH1 0x20 PUSH2 0x7D19 DUP9 DUP3 DUP10 ADD PUSH2 0x7A2F JUMP JUMPDEST SWAP5 POP POP PUSH1 0x40 PUSH2 0x7D2A DUP9 DUP3 DUP10 ADD PUSH2 0x7A2F JUMP JUMPDEST SWAP4 POP POP PUSH1 0x60 PUSH2 0x7D3B DUP9 DUP3 DUP10 ADD PUSH2 0x7CCE JUMP JUMPDEST SWAP3 POP POP PUSH1 0x80 PUSH2 0x7D4C DUP9 DUP3 DUP10 ADD PUSH2 0x7CCE JUMP JUMPDEST SWAP2 POP POP SWAP3 SWAP6 POP SWAP3 SWAP6 SWAP1 SWAP4 POP JUMP JUMPDEST PUSH2 0x7D62 DUP2 PUSH2 0x7965 JUMP JUMPDEST DUP3 MSTORE POP POP JUMP JUMPDEST PUSH0 PUSH1 0x20 DUP3 ADD SWAP1 POP PUSH2 0x7D7B PUSH0 DUP4 ADD DUP5 PUSH2 0x7D59 JUMP JUMPDEST SWAP3 SWAP2 POP POP JUMP JUMPDEST PUSH0 DUP1 PUSH0 DUP1 PUSH1 0x80 DUP6 DUP8 SUB SLT ISZERO PUSH2 0x7D99 JUMPI PUSH2 0x7D98 PUSH2 0x780A JUMP JUMPDEST JUMPDEST PUSH0 PUSH2 0x7DA6 DUP8 DUP3 DUP9 ADD PUSH2 0x7A2F JUMP JUMPDEST SWAP5 POP POP PUSH1 0x20 PUSH2 0x7DB7 DUP8 DUP3 DUP9 ADD PUSH2 0x7A2F JUMP JUMPDEST SWAP4 POP POP PUSH1 0x40 PUSH2 0x7DC8 DUP8 DUP3 DUP9 ADD PUSH2 0x7A2F JUMP JUMPDEST SWAP3 POP POP PUSH1 0x60 PUSH2 0x7DD9 DUP8 DUP3 DUP9 ADD PUSH2 0x7CCE JUMP JUMPDEST SWAP2 POP POP SWAP3 SWAP6 SWAP2 SWAP5 POP SWAP3 POP JUMP JUMPDEST PUSH0 DUP1 PUSH1 0x40 DUP4 DUP6 SUB SLT ISZERO PUSH2 0x7DFB JUMPI PUSH2 0x7DFA PUSH2 0x780A JUMP JUMPDEST JUMPDEST PUSH0 PUSH2 0x7E08 DUP6 DUP3 DUP7 ADD PUSH2 0x7A2F JUMP JUMPDEST SWAP3 POP POP PUSH1 0x20 PUSH2 0x7E19 DUP6 DUP3 DUP7 ADD PUSH2 0x7CCE JUMP JUMPDEST SWAP2 POP POP SWAP3 POP SWAP3 SWAP1 POP JUMP JUMPDEST PUSH0 PUSH1 0x20 DUP3 DUP5 SUB SLT ISZERO PUSH2 0x7E38 JUMPI PUSH2 0x7E37 PUSH2 0x780A JUMP JUMPDEST JUMPDEST PUSH0 PUSH2 0x7E45 DUP5 DUP3 DUP6 ADD PUSH2 0x79C7 JUMP JUMPDEST SWAP2 POP POP SWAP3 SWAP2 POP POP JUMP JUMPDEST PUSH0 PUSH1 0x20 DUP3 DUP5 SUB SLT ISZERO PUSH2 0x7E63 JUMPI PUSH2 0x7E62 PUSH2 0x780A JUMP JUMPDEST JUMPDEST PUSH0 PUSH2 0x7E70 DUP5 DUP3 DUP6 ADD PUSH2 0x7CCE JUMP JUMPDEST SWAP2 POP POP SWAP3 SWAP2 POP POP JUMP JUMPDEST PUSH0 DUP1 PUSH0 DUP1 PUSH1 0x80 DUP6 DUP8 SUB SLT ISZERO PUSH2 0x7E91 JUMPI PUSH2 0x7E90 PUSH2 0x780A JUMP JUMPDEST JUMPDEST PUSH0 PUSH2 0x7E9E DUP8 DUP3 DUP9 ADD PUSH2 0x7A2F JUMP JUMPDEST SWAP5 POP POP PUSH1 0x20 PUSH2 0x7EAF DUP8 DUP3 DUP9 ADD PUSH2 0x7A2F JUMP JUMPDEST SWAP4 POP POP PUSH1 0x40 PUSH2 0x7EC0 DUP8 DUP3 DUP9 ADD PUSH2 0x7CCE JUMP JUMPDEST SWAP3 POP POP PUSH1 0x60 PUSH2 0x7ED1 DUP8 DUP3 DUP9 ADD PUSH2 0x7CCE JUMP JUMPDEST SWAP2 POP POP SWAP3 SWAP6 SWAP2 SWAP5 POP SWAP3 POP JUMP JUMPDEST PUSH0 DUP1 PUSH0 DUP1 PUSH0 DUP1 PUSH1 0xC0 DUP8 DUP10 SUB SLT ISZERO PUSH2 0x7EF7 JUMPI PUSH2 0x7EF6 PUSH2 0x780A JUMP JUMPDEST JUMPDEST PUSH0 PUSH2 0x7F04 DUP10 DUP3 DUP11 ADD PUSH2 0x7A2F JUMP JUMPDEST SWAP7 POP POP PUSH1 0x20 PUSH2 0x7F15 DUP10 DUP3 DUP11 ADD PUSH2 0x7A2F JUMP JUMPDEST SWAP6 POP POP PUSH1 0x40 PUSH2 0x7F26 DUP10 DUP3 DUP11 ADD PUSH2 0x7A2F JUMP JUMPDEST SWAP5 POP POP PUSH1 0x60 PUSH2 0x7F37 DUP10 DUP3 DUP11 ADD PUSH2 0x7A2F JUMP JUMPDEST SWAP4 POP POP PUSH1 0x80 PUSH2 0x7F48 DUP10 DUP3 DUP11 ADD PUSH2 0x7CCE JUMP JUMPDEST SWAP3 POP POP PUSH1 0xA0 PUSH2 0x7F59 DUP10 DUP3 DUP11 ADD PUSH2 0x7CCE JUMP JUMPDEST SWAP2 POP POP SWAP3 SWAP6 POP SWAP3 SWAP6 POP SWAP3 SWAP6 JUMP JUMPDEST PUSH0 PUSH1 0x60 DUP3 ADD SWAP1 POP PUSH2 0x7F79 PUSH0 DUP4 ADD DUP7 PUSH2 0x7C90 JUMP JUMPDEST PUSH2 0x7F86 PUSH1 0x20 DUP4 ADD DUP6 PUSH2 0x7C90 JUMP JUMPDEST PUSH2 0x7F93 PUSH1 0x40 DUP4 ADD DUP5 PUSH2 0x7C90 JUMP JUMPDEST SWAP5 SWAP4 POP POP POP POP JUMP JUMPDEST PUSH0 DUP1 PUSH0 PUSH1 0x60 DUP5 DUP7 SUB SLT ISZERO PUSH2 0x7FB2 JUMPI PUSH2 0x7FB1 PUSH2 0x780A JUMP JUMPDEST JUMPDEST PUSH0 PUSH2 0x7FBF DUP7 DUP3 DUP8 ADD PUSH2 0x7A2F JUMP JUMPDEST SWAP4 POP POP PUSH1 0x20 PUSH2 0x7FD0 DUP7 DUP3 DUP8 ADD PUSH2 0x7A2F JUMP JUMPDEST SWAP3 POP POP PUSH1 0x40 PUSH2 0x7FE1 DUP7 DUP3 DUP8 ADD PUSH2 0x7CCE JUMP JUMPDEST SWAP2 POP POP SWAP3 POP SWAP3 POP SWAP3 JUMP JUMPDEST PUSH0 DUP2 SWAP1 POP SWAP2 SWAP1 POP JUMP JUMPDEST PUSH0 PUSH2 0x800E PUSH2 0x8009 PUSH2 0x8004 DUP5 PUSH2 0x7946 JUMP JUMPDEST PUSH2 0x7FEB JUMP JUMPDEST PUSH2 0x7946 JUMP JUMPDEST SWAP1 POP SWAP2 SWAP1 POP JUMP JUMPDEST PUSH0 PUSH2 0x801F DUP3 PUSH2 0x7FF4 JUMP JUMPDEST SWAP1 POP SWAP2 SWAP1 POP JUMP JUMPDEST PUSH0 PUSH2 0x8030 DUP3 PUSH2 0x8015 JUMP JUMPDEST SWAP1 POP SWAP2 SWAP1 POP JUMP JUMPDEST PUSH2 0x8040 DUP2 PUSH2 0x8026 JUMP JUMPDEST DUP3 MSTORE POP POP JUMP JUMPDEST PUSH0 PUSH1 0x20 DUP3 ADD SWAP1 POP PUSH2 0x8059 PUSH0 DUP4 ADD DUP5 PUSH2 0x8037 JUMP JUMPDEST SWAP3 SWAP2 POP POP JUMP JUMPDEST PUSH0 PUSH2 0x8069 DUP3 PUSH2 0x7965 JUMP JUMPDEST SWAP1 POP SWAP2 SWAP1 POP JUMP JUMPDEST PUSH2 0x8079 DUP2 PUSH2 0x805F JUMP JUMPDEST DUP2 EQ PUSH2 0x8083 JUMPI PUSH0 DUP1 REVERT JUMPDEST POP JUMP JUMPDEST PUSH0 DUP2 CALLDATALOAD SWAP1 POP PUSH2 0x8094 DUP2 PUSH2 0x8070 JUMP JUMPDEST SWAP3 SWAP2 POP POP JUMP JUMPDEST PUSH0 PUSH1 0x20 DUP3 DUP5 SUB SLT ISZERO PUSH2 0x80AF JUMPI PUSH2 0x80AE PUSH2 0x780A JUMP JUMPDEST JUMPDEST PUSH0 PUSH2 0x80BC DUP5 DUP3 DUP6 ADD PUSH2 0x8086 JUMP JUMPDEST SWAP2 POP POP SWAP3 SWAP2 POP POP JUMP JUMPDEST PUSH0 DUP1 PUSH0 DUP1 PUSH0 PUSH1 0xA0 DUP7 DUP9 SUB SLT ISZERO PUSH2 0x80DE JUMPI PUSH2 0x80DD PUSH2 0x780A JUMP JUMPDEST JUMPDEST PUSH0 PUSH2 0x80EB DUP9 DUP3 DUP10 ADD PUSH2 0x7A2F JUMP JUMPDEST SWAP6 POP POP PUSH1 0x20 PUSH2 0x80FC DUP9 DUP3 DUP10 ADD PUSH2 0x7A2F JUMP JUMPDEST SWAP5 POP POP PUSH1 0x40 PUSH2 0x810D DUP9 DUP3 DUP10 ADD PUSH2 0x7A2F JUMP JUMPDEST SWAP4 POP POP PUSH1 0x60 PUSH2 0x811E DUP9 DUP3 DUP10 ADD PUSH2 0x7A2F JUMP JUMPDEST SWAP3 POP POP PUSH1 0x80 PUSH2 0x812F DUP9 DUP3 DUP10 ADD PUSH2 0x7CCE JUMP JUMPDEST SWAP2 POP POP SWAP3 SWAP6 POP SWAP3 SWAP6 SWAP1 SWAP4 POP JUMP JUMPDEST PUSH0 DUP1 DUP4 PUSH1 0x1F DUP5 ADD SLT PUSH2 0x8151 JUMPI PUSH2 0x8150 PUSH2 0x7812 JUMP JUMPDEST JUMPDEST DUP3 CALLDATALOAD SWAP1 POP PUSH8 0xFFFFFFFFFFFFFFFF DUP2 GT ISZERO PUSH2 0x816E JUMPI PUSH2 0x816D PUSH2 0x7816 JUMP JUMPDEST JUMPDEST PUSH1 0x20 DUP4 ADD SWAP2 POP DUP4 PUSH1 0x20 DUP3 MUL DUP4 ADD GT ISZERO PUSH2 0x818A JUMPI PUSH2 0x8189 PUSH2 0x781A JUMP JUMPDEST JUMPDEST SWAP3 POP SWAP3 SWAP1 POP JUMP JUMPDEST PUSH0 DUP1 PUSH0 DUP1 PUSH1 0x40 DUP6 DUP8 SUB SLT ISZERO PUSH2 0x81A9 JUMPI PUSH2 0x81A8 PUSH2 0x780A JUMP JUMPDEST JUMPDEST PUSH0 DUP6 ADD CALLDATALOAD PUSH8 0xFFFFFFFFFFFFFFFF DUP2 GT ISZERO PUSH2 0x81C6 JUMPI PUSH2 0x81C5 PUSH2 0x780E JUMP JUMPDEST JUMPDEST PUSH2 0x81D2 DUP8 DUP3 DUP9 ADD PUSH2 0x813C JUMP JUMPDEST SWAP5 POP SWAP5 POP POP PUSH1 0x20 DUP6 ADD CALLDATALOAD PUSH8 0xFFFFFFFFFFFFFFFF DUP2 GT ISZERO PUSH2 0x81F5 JUMPI PUSH2 0x81F4 PUSH2 0x780E JUMP JUMPDEST JUMPDEST PUSH2 0x8201 DUP8 DUP3 DUP9 ADD PUSH2 0x7873 JUMP JUMPDEST SWAP3 POP SWAP3 POP POP SWAP3 SWAP6 SWAP2 SWAP5 POP SWAP3 POP JUMP JUMPDEST PUSH0 PUSH8 0xFFFFFFFFFFFFFFFF DUP3 GT ISZERO PUSH2 0x8229 JUMPI PUSH2 0x8228 PUSH2 0x7A53 JUMP JUMPDEST JUMPDEST PUSH1 0x20 DUP3 MUL SWAP1 POP PUSH1 0x20 DUP2 ADD SWAP1 POP SWAP2 SWAP1 POP JUMP JUMPDEST PUSH0 PUSH2 0x824C PUSH2 0x8247 DUP5 PUSH2 0x820F JUMP JUMPDEST PUSH2 0x7AB1 JUMP JUMPDEST SWAP1 POP DUP1 DUP4 DUP3 MSTORE PUSH1 0x20 DUP3 ADD SWAP1 POP PUSH1 0x20 DUP5 MUL DUP4 ADD DUP6 DUP2 GT ISZERO PUSH2 0x826F JUMPI PUSH2 0x826E PUSH2 0x781A JUMP JUMPDEST JUMPDEST DUP4 JUMPDEST DUP2 DUP2 LT ISZERO PUSH2 0x8298 JUMPI DUP1 PUSH2 0x8284 DUP9 DUP3 PUSH2 0x7A2F JUMP JUMPDEST DUP5 MSTORE PUSH1 0x20 DUP5 ADD SWAP4 POP POP PUSH1 0x20 DUP2 ADD SWAP1 POP PUSH2 0x8271 JUMP JUMPDEST POP POP POP SWAP4 SWAP3 POP POP POP JUMP JUMPDEST PUSH0 DUP3 PUSH1 0x1F DUP4 ADD SLT PUSH2 0x82B6 JUMPI PUSH2 0x82B5 PUSH2 0x7812 JUMP JUMPDEST JUMPDEST DUP2 CALLDATALOAD PUSH2 0x82C6 DUP5 DUP3 PUSH1 0x20 DUP7 ADD PUSH2 0x823A JUMP JUMPDEST SWAP2 POP POP SWAP3 SWAP2 POP POP JUMP JUMPDEST PUSH0 DUP1 PUSH0 DUP1 PUSH1 0x80 DUP6 DUP8 SUB SLT ISZERO PUSH2 0x82E7 JUMPI PUSH2 0x82E6 PUSH2 0x780A JUMP JUMPDEST JUMPDEST PUSH0 DUP6 ADD CALLDATALOAD PUSH8 0xFFFFFFFFFFFFFFFF DUP2 GT ISZERO PUSH2 0x8304 JUMPI PUSH2 0x8303 PUSH2 0x780E JUMP JUMPDEST JUMPDEST PUSH2 0x8310 DUP8 DUP3 DUP9 ADD PUSH2 0x82A2 JUMP JUMPDEST SWAP5 POP POP PUSH1 0x20 DUP6 ADD CALLDATALOAD PUSH8 0xFFFFFFFFFFFFFFFF DUP2 GT ISZERO PUSH2 0x8331 JUMPI PUSH2 0x8330 PUSH2 0x780E JUMP JUMPDEST JUMPDEST PUSH2 0x833D DUP8 DUP3 DUP9 ADD PUSH2 0x7B5E JUMP JUMPDEST SWAP4 POP POP PUSH1 0x40 PUSH2 0x834E DUP8 DUP3 DUP9 ADD PUSH2 0x79C7 JUMP JUMPDEST SWAP3 POP POP PUSH1 0x60 PUSH2 0x835F DUP8 DUP3 DUP9 ADD PUSH2 0x79C7 JUMP JUMPDEST SWAP2 POP POP SWAP3 SWAP6 SWAP2 SWAP5 POP SWAP3 POP JUMP JUMPDEST PUSH0 PUSH28 0xFFFFFFFFFFFFFFFFFFFFFFFFFFFFFFFFFFFFFFFFFFFFFFFFFFFFFFFF DUP3 AND SWAP1 POP SWAP2 SWAP1 POP JUMP JUMPDEST PUSH2 0x839B DUP2 PUSH2 0x836B JUMP JUMPDEST DUP3 MSTORE POP POP JUMP JUMPDEST PUSH0 PUSH4 0xFFFFFFFF DUP3 AND SWAP1 POP SWAP2 SWAP1 POP JUMP JUMPDEST PUSH2 0x83B9 DUP2 PUSH2 0x83A1 JUMP JUMPDEST DUP3 MSTORE POP POP JUMP JUMPDEST PUSH0 PUSH1 0x40 DUP3 ADD SWAP1 POP PUSH2 0x83D2 PUSH0 DUP4 ADD DUP6 PUSH2 0x8392 JUMP JUMPDEST PUSH2 0x83DF PUSH1 0x20 DUP4 ADD DUP5 PUSH2 0x83B0 JUMP JUMPDEST SWAP4 SWAP3 POP POP POP JUMP JUMPDEST PUSH0 PUSH2 0x83F0 DUP3 PUSH2 0x8015 JUMP JUMPDEST SWAP1 POP SWAP2 SWAP1 POP JUMP JUMPDEST PUSH2 0x8400 DUP2 PUSH2 0x83E6 JUMP JUMPDEST DUP3 MSTORE POP POP JUMP JUMPDEST PUSH0 PUSH1 0x20 DUP3 ADD SWAP1 POP PUSH2 0x8419 PUSH0 DUP4 ADD DUP5 PUSH2 0x83F7 JUMP JUMPDEST SWAP3 SWAP2 POP POP JUMP JUMPDEST PUSH0 PUSH1 0x60 DUP3 ADD SWAP1 POP PUSH2 0x8432 PUSH0 DUP4 ADD DUP7 PUSH2 0x77D9 JUMP JUMPDEST PUSH2 0x843F PUSH1 0x20 DUP4 ADD DUP6 PUSH2 0x7C90 JUMP JUMPDEST PUSH2 0x844C PUSH1 0x40 DUP4 ADD DUP5 PUSH2 0x77D9 JUMP JUMPDEST SWAP5 SWAP4 POP POP POP POP JUMP JUMPDEST PUSH0 DUP1 PUSH1 0x40 DUP4 DUP6 SUB SLT ISZERO PUSH2 0x846A JUMPI PUSH2 0x8469 PUSH2 0x780A JUMP JUMPDEST JUMPDEST PUSH0 PUSH2 0x8477 DUP6 DUP3 DUP7 ADD PUSH2 0x7A2F JUMP JUMPDEST SWAP3 POP POP PUSH1 0x20 PUSH2 0x8488 DUP6 DUP3 DUP7 ADD PUSH2 0x799D JUMP JUMPDEST SWAP2 POP POP SWAP3 POP SWAP3 SWAP1 POP JUMP JUMPDEST PUSH0 PUSH1 0x20 DUP3 DUP5 SUB SLT ISZERO PUSH2 0x84A7 JUMPI PUSH2 0x84A6 PUSH2 0x780A JUMP JUMPDEST JUMPDEST PUSH0 PUSH2 0x84B4 DUP5 DUP3 DUP6 ADD PUSH2 0x799D JUMP JUMPDEST SWAP2 POP POP SWAP3 SWAP2 POP POP JUMP JUMPDEST PUSH0 PUSH1 0x20 DUP3 ADD SWAP1 POP PUSH2 0x84D0 PUSH0 DUP4 ADD DUP5 PUSH2 0x8392 JUMP JUMPDEST SWAP3 SWAP2 POP POP JUMP JUMPDEST PUSH0 PUSH8 0xFFFFFFFFFFFFFFFF DUP3 GT ISZERO PUSH2 0x84F0 JUMPI PUSH2 0x84EF PUSH2 0x7A53 JUMP JUMPDEST JUMPDEST PUSH1 0x20 DUP3 MUL SWAP1 POP PUSH1 0x20 DUP2 ADD SWAP1 POP SWAP2 SWAP1 POP JUMP JUMPDEST PUSH0 PUSH2 0x8513 PUSH2 0x850E DUP5 PUSH2 0x84D6 JUMP JUMPDEST PUSH2 0x7AB1 JUMP JUMPDEST SWAP1 POP DUP1 DUP4 DUP3 MSTORE PUSH1 0x20 DUP3 ADD SWAP1 POP PUSH1 0x20 DUP5 MUL DUP4 ADD DUP6 DUP2 GT ISZERO PUSH2 0x8536 JUMPI PUSH2 0x8535 PUSH2 0x781A JUMP JUMPDEST JUMPDEST DUP4 JUMPDEST DUP2 DUP2 LT ISZERO PUSH2 0x855F JUMPI DUP1 PUSH2 0x854B DUP9 DUP3 PUSH2 0x7CCE JUMP JUMPDEST DUP5 MSTORE PUSH1 0x20 DUP5 ADD SWAP4 POP POP PUSH1 0x20 DUP2 ADD SWAP1 POP PUSH2 0x8538 JUMP JUMPDEST POP POP POP SWAP4 SWAP3 POP POP POP JUMP JUMPDEST PUSH0 DUP3 PUSH1 0x1F DUP4 ADD SLT PUSH2 0x857D JUMPI PUSH2 0x857C PUSH2 0x7812 JUMP JUMPDEST JUMPDEST DUP2 CALLDATALOAD PUSH2 0x858D DUP5 DUP3 PUSH1 0x20 DUP7 ADD PUSH2 0x8501 JUMP JUMPDEST SWAP2 POP POP SWAP3 SWAP2 POP POP JUMP JUMPDEST PUSH0 DUP1 PUSH0 PUSH1 0x60 DUP5 DUP7 SUB SLT ISZERO PUSH2 0x85AD JUMPI PUSH2 0x85AC PUSH2 0x780A JUMP JUMPDEST JUMPDEST PUSH0 DUP5 ADD CALLDATALOAD PUSH8 0xFFFFFFFFFFFFFFFF DUP2 GT ISZERO PUSH2 0x85CA JUMPI PUSH2 0x85C9 PUSH2 0x780E JUMP JUMPDEST JUMPDEST PUSH2 0x85D6 DUP7 DUP3 DUP8 ADD PUSH2 0x7B5E JUMP JUMPDEST SWAP4 POP POP PUSH1 0x20 DUP5 ADD CALLDATALOAD PUSH8 0xFFFFFFFFFFFFFFFF DUP2 GT ISZERO PUSH2 0x85F7 JUMPI PUSH2 0x85F6 PUSH2 0x780E JUMP JUMPDEST JUMPDEST PUSH2 0x8603 DUP7 DUP3 DUP8 ADD PUSH2 0x8569 JUMP JUMPDEST SWAP3 POP POP PUSH1 0x40 DUP5 ADD CALLDATALOAD PUSH8 0xFFFFFFFFFFFFFFFF DUP2 GT ISZERO PUSH2 0x8624 JUMPI PUSH2 0x8623 PUSH2 0x780E JUMP JUMPDEST JUMPDEST PUSH2 0x8630 DUP7 DUP3 DUP8 ADD PUSH2 0x8569 JUMP JUMPDEST SWAP2 POP POP SWAP3 POP SWAP3 POP SWAP3 JUMP JUMPDEST PUSH0 DUP2 MLOAD SWAP1 POP SWAP2 SWAP1 POP JUMP JUMPDEST PUSH0 DUP3 DUP3 MSTORE PUSH1 0x20 DUP3 ADD SWAP1 POP SWAP3 SWAP2 POP POP JUMP JUMPDEST PUSH0 DUP2 SWAP1 POP PUSH1 0x20 DUP3 ADD SWAP1 POP SWAP2 SWAP1 POP JUMP JUMPDEST PUSH2 0x866C DUP2 PUSH2 0x8026 JUMP JUMPDEST DUP3 MSTORE POP POP JUMP JUMPDEST PUSH0 PUSH2 0x867D DUP4 DUP4 PUSH2 0x8663 JUMP JUMPDEST PUSH1 0x20 DUP4 ADD SWAP1 POP SWAP3 SWAP2 POP POP JUMP JUMPDEST PUSH0 PUSH1 0x20 DUP3 ADD SWAP1 POP SWAP2 SWAP1 POP JUMP JUMPDEST PUSH0 PUSH2 0x869F DUP3 PUSH2 0x863A JUMP JUMPDEST PUSH2 0x86A9 DUP2 DUP6 PUSH2 0x8644 JUMP JUMPDEST SWAP4 POP PUSH2 0x86B4 DUP4 PUSH2 0x8654 JUMP JUMPDEST DUP1 PUSH0 JUMPDEST DUP4 DUP2 LT ISZERO PUSH2 0x86E4 JUMPI DUP2 MLOAD PUSH2 0x86CB DUP9 DUP3 PUSH2 0x8672 JUMP JUMPDEST SWAP8 POP PUSH2 0x86D6 DUP4 PUSH2 0x8689 JUMP JUMPDEST SWAP3 POP POP PUSH1 0x1 DUP2 ADD SWAP1 POP PUSH2 0x86B7 JUMP JUMPDEST POP DUP6 SWAP4 POP POP POP POP SWAP3 SWAP2 POP POP JUMP JUMPDEST PUSH0 PUSH1 0x20 DUP3 ADD SWAP1 POP DUP2 DUP2 SUB PUSH0 DUP4 ADD MSTORE PUSH2 0x8709 DUP2 DUP5 PUSH2 0x8695 JUMP JUMPDEST SWAP1 POP SWAP3 SWAP2 POP POP JUMP JUMPDEST PUSH0 DUP1 PUSH1 0x40 DUP4 DUP6 SUB SLT ISZERO PUSH2 0x8727 JUMPI PUSH2 0x8726 PUSH2 0x780A JUMP JUMPDEST JUMPDEST PUSH0 PUSH2 0x8734 DUP6 DUP3 DUP7 ADD PUSH2 0x7A2F JUMP JUMPDEST SWAP3 POP POP PUSH1 0x20 PUSH2 0x8745 DUP6 DUP3 DUP7 ADD PUSH2 0x7A2F JUMP JUMPDEST SWAP2 POP POP SWAP3 POP SWAP3 SWAP1 POP JUMP JUMPDEST PUSH0 PUSH1 0x20 DUP3 DUP5 SUB SLT ISZERO PUSH2 0x8764 JUMPI PUSH2 0x8763 PUSH2 0x780A JUMP JUMPDEST JUMPDEST PUSH0 DUP3 ADD CALLDATALOAD PUSH8 0xFFFFFFFFFFFFFFFF DUP2 GT ISZERO PUSH2 0x8781 JUMPI PUSH2 0x8780 PUSH2 0x780E JUMP JUMPDEST JUMPDEST PUSH2 0x878D DUP5 DUP3 DUP6 ADD PUSH2 0x82A2 JUMP JUMPDEST SWAP2 POP POP SWAP3 SWAP2 POP POP JUMP JUMPDEST PUSH0 DUP2 MLOAD SWAP1 POP SWAP2 SWAP1 POP JUMP JUMPDEST PUSH0 DUP3 DUP3 MSTORE PUSH1 0x20 DUP3 ADD SWAP1 POP SWAP3 SWAP2 POP POP JUMP JUMPDEST PUSH0 DUP2 SWAP1 POP PUSH1 0x20 DUP3 ADD SWAP1 POP SWAP2 SWAP1 POP JUMP JUMPDEST PUSH2 0x87C8 DUP2 PUSH2 0x7C87 JUMP JUMPDEST DUP3 MSTORE POP POP JUMP JUMPDEST PUSH0 PUSH2 0x87D9 DUP4 DUP4 PUSH2 0x87BF JUMP JUMPDEST PUSH1 0x20 DUP4 ADD SWAP1 POP SWAP3 SWAP2 POP POP JUMP JUMPDEST PUSH0 PUSH1 0x20 DUP3 ADD SWAP1 POP SWAP2 SWAP1 POP JUMP JUMPDEST PUSH0 PUSH2 0x87FB DUP3 PUSH2 0x8796 JUMP JUMPDEST PUSH2 0x8805 DUP2 DUP6 PUSH2 0x87A0 JUMP JUMPDEST SWAP4 POP PUSH2 0x8810 DUP4 PUSH2 0x87B0 JUMP JUMPDEST DUP1 PUSH0 JUMPDEST DUP4 DUP2 LT ISZERO PUSH2 0x8840 JUMPI DUP2 MLOAD PUSH2 0x8827 DUP9 DUP3 PUSH2 0x87CE JUMP JUMPDEST SWAP8 POP PUSH2 0x8832 DUP4 PUSH2 0x87E5 JUMP JUMPDEST SWAP3 POP POP PUSH1 0x1 DUP2 ADD SWAP1 POP PUSH2 0x8813 JUMP JUMPDEST POP DUP6 SWAP4 POP POP POP POP SWAP3 SWAP2 POP POP JUMP JUMPDEST PUSH0 PUSH1 0x20 DUP3 ADD SWAP1 POP DUP2 DUP2 SUB PUSH0 DUP4 ADD MSTORE PUSH2 0x8865 DUP2 DUP5 PUSH2 0x87F1 JUMP JUMPDEST SWAP1 POP SWAP3 SWAP2 POP POP JUMP JUMPDEST PUSH0 PUSH1 0x40 DUP3 ADD SWAP1 POP PUSH2 0x8880 PUSH0 DUP4 ADD DUP6 PUSH2 0x7C90 JUMP JUMPDEST PUSH2 0x888D PUSH1 0x20 DUP4 ADD DUP5 PUSH2 0x7C90 JUMP JUMPDEST SWAP4 SWAP3 POP POP POP JUMP JUMPDEST PUSH0 DUP1 PUSH1 0x40 DUP4 DUP6 SUB SLT ISZERO PUSH2 0x88AA JUMPI PUSH2 0x88A9 PUSH2 0x780A JUMP JUMPDEST JUMPDEST PUSH0 PUSH2 0x88B7 DUP6 DUP3 DUP7 ADD PUSH2 0x799D JUMP JUMPDEST SWAP3 POP POP PUSH1 0x20 PUSH2 0x88C8 DUP6 DUP3 DUP7 ADD PUSH2 0x7CCE JUMP JUMPDEST SWAP2 POP POP SWAP3 POP SWAP3 SWAP1 POP JUMP JUMPDEST PUSH0 DUP3 DUP3 MSTORE PUSH1 0x20 DUP3 ADD SWAP1 POP SWAP3 SWAP2 POP POP JUMP JUMPDEST PUSH32 0x4F6E6C792061646D696E2063616E2063616C6C20746869732066756E6374696F PUSH0 DUP3 ADD MSTORE PUSH32 0x6E00000000000000000000000000000000000000000000000000000000000000 PUSH1 0x20 DUP3 ADD MSTORE POP JUMP JUMPDEST PUSH0 PUSH2 0x893C PUSH1 0x21 DUP4 PUSH2 0x88D2 JUMP JUMPDEST SWAP2 POP PUSH2 0x8947 DUP3 PUSH2 0x88E2 JUMP JUMPDEST PUSH1 0x40 DUP3 ADD SWAP1 POP SWAP2 SWAP1 POP JUMP JUMPDEST PUSH0 PUSH1 0x20 DUP3 ADD SWAP1 POP DUP2 DUP2 SUB PUSH0 DUP4 ADD MSTORE PUSH2 0x8969 DUP2 PUSH2 0x8930 JUMP JUMPDEST SWAP1 POP SWAP2 SWAP1 POP JUMP JUMPDEST PUSH32 0x416C72656164792065786563757465642074686973206F6E652D6F6666206675 PUSH0 DUP3 ADD MSTORE PUSH32 0x6E6374696F6E0000000000000000000000000000000000000000000000000000 PUSH1 0x20 DUP3 ADD MSTORE POP JUMP JUMPDEST PUSH0 PUSH2 0x89CA PUSH1 0x26 DUP4 PUSH2 0x88D2 JUMP JUMPDEST SWAP2 POP PUSH2 0x89D5 DUP3 PUSH2 0x8970 JUMP JUMPDEST PUSH1 0x40 DUP3 ADD SWAP1 POP SWAP2 SWAP1 POP JUMP JUMPDEST PUSH0 PUSH1 0x20 DUP3 ADD SWAP1 POP DUP2 DUP2 SUB PUSH0 DUP4 ADD MSTORE PUSH2 0x89F7 DUP2 PUSH2 0x89BE JUMP JUMPDEST SWAP1 POP SWAP2 SWAP1 POP JUMP JUMPDEST PUSH32 0x496E76616C696420696E70757400000000000000000000000000000000000000 PUSH0 DUP3 ADD MSTORE POP JUMP JUMPDEST PUSH0 PUSH2 0x8A32 PUSH1 0xD DUP4 PUSH2 0x88D2 JUMP JUMPDEST SWAP2 POP PUSH2 0x8A3D DUP3 PUSH2 0x89FE JUMP JUMPDEST PUSH1 0x20 DUP3 ADD SWAP1 POP SWAP2 SWAP1 POP JUMP JUMPDEST PUSH0 PUSH1 0x20 DUP3 ADD SWAP1 POP DUP2 DUP2 SUB PUSH0 DUP4 ADD MSTORE PUSH2 0x8A5F DUP2 PUSH2 0x8A26 JUMP JUMPDEST SWAP1 POP SWAP2 SWAP1 POP JUMP JUMPDEST PUSH32 0x4E487B7100000000000000000000000000000000000000000000000000000000 PUSH0 MSTORE PUSH1 0x32 PUSH1 0x4 MSTORE PUSH1 0x24 PUSH0 REVERT JUMPDEST PUSH32 0x4E487B7100000000000000000000000000000000000000000000000000000000 PUSH0 MSTORE PUSH1 0x11 PUSH1 0x4 MSTORE PUSH1 0x24 PUSH0 REVERT JUMPDEST PUSH0 PUSH2 0x8ACA DUP3 PUSH2 0x7C87 JUMP JUMPDEST SWAP2 POP PUSH2 0x8AD5 DUP4 PUSH2 0x7C87 JUMP JUMPDEST SWAP3 POP DUP3 DUP3 SUB SWAP1 POP DUP2 DUP2 GT ISZERO PUSH2 0x8AED JUMPI PUSH2 0x8AEC PUSH2 0x8A93 JUMP JUMPDEST JUMPDEST SWAP3 SWAP2 POP POP JUMP JUMPDEST PUSH32 0x63616E6E6F742070617573652061206D61726B65742074686174206973206E6F PUSH0 DUP3 ADD MSTORE PUSH32 0x74206C6973746564000000000000000000000000000000000000000000000000 PUSH1 0x20 DUP3 ADD MSTORE POP JUMP JUMPDEST PUSH0 PUSH2 0x8B4D PUSH1 0x28 DUP4 PUSH2 0x88D2 JUMP JUMPDEST SWAP2 POP PUSH2 0x8B58 DUP3 PUSH2 0x8AF3 JUMP JUMPDEST PUSH1 0x40 DUP3 ADD SWAP1 POP SWAP2 SWAP1 POP JUMP JUMPDEST PUSH0 PUSH1 0x20 DUP3 ADD SWAP1 POP DUP2 DUP2 SUB PUSH0 DUP4 ADD MSTORE PUSH2 0x8B7A DUP2 PUSH2 0x8B41 JUMP JUMPDEST SWAP1 POP SWAP2 SWAP1 POP JUMP JUMPDEST PUSH32 0x6F6E6C7920706175736520677561726469616E20616E642061646D696E206361 PUSH0 DUP3 ADD MSTORE PUSH32 0x6E20706175736500000000000000000000000000000000000000000000000000 PUSH1 0x20 DUP3 ADD MSTORE POP JUMP JUMPDEST PUSH0 PUSH2 0x8BDB PUSH1 0x27 DUP4 PUSH2 0x88D2 JUMP JUMPDEST SWAP2 POP PUSH2 0x8BE6 DUP3 PUSH2 0x8B81 JUMP JUMPDEST PUSH1 0x40 DUP3 ADD SWAP1 POP SWAP2 SWAP1 POP JUMP JUMPDEST PUSH0 PUSH1 0x20 DUP3 ADD SWAP1 POP DUP2 DUP2 SUB PUSH0 DUP4 ADD MSTORE PUSH2 0x8C08 DUP2 PUSH2 0x8BCF JUMP JUMPDEST SWAP1 POP SWAP2 SWAP1 POP JUMP JUMPDEST PUSH32 0x6F6E6C792061646D696E2063616E20756E706175736500000000000000000000 PUSH0 DUP3 ADD MSTORE POP JUMP JUMPDEST PUSH0 PUSH2 0x8C43 PUSH1 0x16 DUP4 PUSH2 0x88D2 JUMP JUMPDEST SWAP2 POP PUSH2 0x8C4E DUP3 PUSH2 0x8C0F JUMP JUMPDEST PUSH1 0x20 DUP3 ADD SWAP1 POP SWAP2 SWAP1 POP JUMP JUMPDEST PUSH0 PUSH1 0x20 DUP3 ADD SWAP1 POP DUP2 DUP2 SUB PUSH0 DUP4 ADD MSTORE PUSH2 0x8C70 DUP2 PUSH2 0x8C37 JUMP JUMPDEST SWAP1 POP SWAP2 SWAP1 POP JUMP JUMPDEST PUSH32 0x426F72726F770000000000000000000000000000000000000000000000000000 PUSH0 DUP3 ADD MSTORE POP JUMP JUMPDEST PUSH0 PUSH2 0x8CAB PUSH1 0x6 DUP4 PUSH2 0x88D2 JUMP JUMPDEST SWAP2 POP PUSH2 0x8CB6 DUP3 PUSH2 0x8C77 JUMP JUMPDEST PUSH1 0x20 DUP3 ADD SWAP1 POP SWAP2 SWAP1 POP JUMP JUMPDEST PUSH0 PUSH1 0x60 DUP3 ADD SWAP1 POP PUSH2 0x8CD4 PUSH0 DUP4 ADD DUP6 PUSH2 0x8037 JUMP JUMPDEST DUP2 DUP2 SUB PUSH1 0x20 DUP4 ADD MSTORE PUSH2 0x8CE5 DUP2 PUSH2 0x8C9F JUMP JUMPDEST SWAP1 POP PUSH2 0x8CF4 PUSH1 0x40 DUP4 ADD DUP5 PUSH2 0x77D9 JUMP JUMPDEST SWAP4 SWAP3 POP POP POP JUMP JUMPDEST PUSH0 DUP2 MLOAD SWAP1 POP PUSH2 0x8D09 DUP2 PUSH2 0x7A19 JUMP JUMPDEST SWAP3 SWAP2 POP POP JUMP JUMPDEST PUSH0 PUSH1 0x20 DUP3 DUP5 SUB SLT ISZERO PUSH2 0x8D24 JUMPI PUSH2 0x8D23 PUSH2 0x780A JUMP JUMPDEST JUMPDEST PUSH0 PUSH2 0x8D31 DUP5 DUP3 DUP6 ADD PUSH2 0x8CFB JUMP JUMPDEST SWAP2 POP POP SWAP3 SWAP2 POP POP JUMP JUMPDEST PUSH32 0x6F6E6C7920756E6974726F6C6C65722061646D696E2063616E206368616E6765 PUSH0 DUP3 ADD MSTORE PUSH32 0x20627261696E7300000000000000000000000000000000000000000000000000 PUSH1 0x20 DUP3 ADD MSTORE POP JUMP JUMPDEST PUSH0 PUSH2 0x8D94 PUSH1 0x27 DUP4 PUSH2 0x88D2 JUMP JUMPDEST SWAP2 POP PUSH2 0x8D9F DUP3 PUSH2 0x8D3A JUMP JUMPDEST PUSH1 0x40 DUP3 ADD SWAP1 POP SWAP2 SWAP1 POP JUMP JUMPDEST PUSH0 PUSH1 0x20 DUP3 ADD SWAP1 POP DUP2 DUP2 SUB PUSH0 DUP4 ADD MSTORE PUSH2 0x8DC1 DUP2 PUSH2 0x8D88 JUMP JUMPDEST SWAP1 POP SWAP2 SWAP1 POP JUMP JUMPDEST PUSH0 DUP2 MLOAD SWAP1 POP PUSH2 0x8DD6 DUP2 PUSH2 0x7CB8 JUMP JUMPDEST SWAP3 SWAP2 POP POP JUMP JUMPDEST PUSH0 PUSH1 0x20 DUP3 DUP5 SUB SLT ISZERO PUSH2 0x8DF1 JUMPI PUSH2 0x8DF0 PUSH2 0x780A JUMP JUMPDEST JUMPDEST PUSH0 PUSH2 0x8DFE DUP5 DUP3 DUP6 ADD PUSH2 0x8DC8 JUMP JUMPDEST SWAP2 POP POP SWAP3 SWAP2 POP POP JUMP JUMPDEST PUSH32 0x6368616E6765206E6F7420617574686F72697A65640000000000000000000000 PUSH0 DUP3 ADD MSTORE POP JUMP JUMPDEST PUSH0 PUSH2 0x8E3B PUSH1 0x15 DUP4 PUSH2 0x88D2 JUMP JUMPDEST SWAP2 POP PUSH2 0x8E46 DUP3 PUSH2 0x8E07 JUMP JUMPDEST PUSH1 0x20 DUP3 ADD SWAP1 POP SWAP2 SWAP1 POP JUMP JUMPDEST PUSH0 PUSH1 0x20 DUP3 ADD SWAP1 POP DUP2 DUP2 SUB PUSH0 DUP4 ADD MSTORE PUSH2 0x8E68 DUP2 PUSH2 0x8E2F JUMP JUMPDEST SWAP1 POP SWAP2 SWAP1 POP JUMP JUMPDEST PUSH32 0x4E487B7100000000000000000000000000000000000000000000000000000000 PUSH0 MSTORE PUSH1 0x21 PUSH1 0x4 MSTORE PUSH1 0x24 PUSH0 REVERT JUMPDEST PUSH32 0x6F6E6C792061646D696E2063616E206772616E7420636F6D7000000000000000 PUSH0 DUP3 ADD MSTORE POP JUMP JUMPDEST PUSH0 PUSH2 0x8ED0 PUSH1 0x19 DUP4 PUSH2 0x88D2 JUMP JUMPDEST SWAP2 POP PUSH2 0x8EDB DUP3 PUSH2 0x8E9C JUMP JUMPDEST PUSH1 0x20 DUP3 ADD SWAP1 POP SWAP2 SWAP1 POP JUMP JUMPDEST PUSH0 PUSH1 0x20 DUP3 ADD SWAP1 POP DUP2 DUP2 SUB PUSH0 DUP4 ADD MSTORE PUSH2 0x8EFD DUP2 PUSH2 0x8EC4 JUMP JUMPDEST SWAP1 POP SWAP2 SWAP1 POP JUMP JUMPDEST PUSH32 0x696E73756666696369656E7420636F6D7020666F72206772616E740000000000 PUSH0 DUP3 ADD MSTORE POP JUMP JUMPDEST PUSH0 PUSH2 0x8F38 PUSH1 0x1B DUP4 PUSH2 0x88D2 JUMP JUMPDEST SWAP2 POP PUSH2 0x8F43 DUP3 PUSH2 0x8F04 JUMP JUMPDEST PUSH1 0x20 DUP3 ADD SWAP1 POP SWAP2 SWAP1 POP JUMP JUMPDEST PUSH0 PUSH1 0x20 DUP3 ADD SWAP1 POP DUP2 DUP2 SUB PUSH0 DUP4 ADD MSTORE PUSH2 0x8F65 DUP2 PUSH2 0x8F2C JUMP JUMPDEST SWAP1 POP SWAP2 SWAP1 POP JUMP JUMPDEST PUSH0 PUSH1 0x40 DUP3 ADD SWAP1 POP PUSH2 0x8F7F PUSH0 DUP4 ADD DUP6 PUSH2 0x7D59 JUMP JUMPDEST PUSH2 0x8F8C PUSH1 0x20 DUP4 ADD DUP5 PUSH2 0x7C90 JUMP JUMPDEST SWAP4 SWAP3 POP POP POP JUMP JUMPDEST PUSH32 0x5365697A65000000000000000000000000000000000000000000000000000000 PUSH0 DUP3 ADD MSTORE POP JUMP JUMPDEST PUSH0 PUSH2 0x8FC7 PUSH1 0x5 DUP4 PUSH2 0x88D2 JUMP JUMPDEST SWAP2 POP PUSH2 0x8FD2 DUP3 PUSH2 0x8F93 JUMP JUMPDEST PUSH1 0x20 DUP3 ADD SWAP1 POP SWAP2 SWAP1 POP JUMP JUMPDEST PUSH0 PUSH1 0x40 DUP3 ADD SWAP1 POP DUP2 DUP2 SUB PUSH0 DUP4 ADD MSTORE PUSH2 0x8FF4 DUP2 PUSH2 0x8FBB JUMP JUMPDEST SWAP1 POP PUSH2 0x9003 PUSH1 0x20 DUP4 ADD DUP5 PUSH2 0x77D9 JUMP JUMPDEST SWAP3 SWAP2 POP POP JUMP JUMPDEST PUSH32 0x6F6E6C792061646D696E2063616E2073657420636C6F736520666163746F7200 PUSH0 DUP3 ADD MSTORE POP JUMP JUMPDEST PUSH0 PUSH2 0x903D PUSH1 0x1F DUP4 PUSH2 0x88D2 JUMP JUMPDEST SWAP2 POP PUSH2 0x9048 DUP3 PUSH2 0x9009 JUMP JUMPDEST PUSH1 0x20 DUP3 ADD SWAP1 POP SWAP2 SWAP1 POP JUMP JUMPDEST PUSH0 PUSH1 0x20 DUP3 ADD SWAP1 POP DUP2 DUP2 SUB PUSH0 DUP4 ADD MSTORE PUSH2 0x906A DUP2 PUSH2 0x9031 JUMP JUMPDEST SWAP1 POP SWAP2 SWAP1 POP JUMP JUMPDEST PUSH32 0x6F6E6C792061646D696E2063616E2073657420626F72726F7720636170206775 PUSH0 DUP3 ADD MSTORE PUSH32 0x61726469616E0000000000000000000000000000000000000000000000000000 PUSH1 0x20 DUP3 ADD MSTORE POP JUMP JUMPDEST PUSH0 PUSH2 0x90CB PUSH1 0x26 DUP4 PUSH2 0x88D2 JUMP JUMPDEST SWAP2 POP PUSH2 0x90D6 DUP3 PUSH2 0x9071 JUMP JUMPDEST PUSH1 0x40 DUP3 ADD SWAP1 POP SWAP2 SWAP1 POP JUMP JUMPDEST PUSH0 PUSH1 0x20 DUP3 ADD SWAP1 POP DUP2 DUP2 SUB PUSH0 DUP4 ADD MSTORE PUSH2 0x90F8 DUP2 PUSH2 0x90BF JUMP JUMPDEST SWAP1 POP SWAP2 SWAP1 POP JUMP JUMPDEST PUSH0 PUSH1 0x40 DUP3 ADD SWAP1 POP PUSH2 0x9112 PUSH0 DUP4 ADD DUP6 PUSH2 0x7D59 JUMP JUMPDEST PUSH2 0x911F PUSH1 0x20 DUP4 ADD DUP5 PUSH2 0x7D59 JUMP JUMPDEST SWAP4 SWAP3 POP POP POP JUMP JUMPDEST PUSH32 0x4D696E7400000000000000000000000000000000000000000000000000000000 PUSH0 DUP3 ADD MSTORE POP JUMP JUMPDEST PUSH0 PUSH2 0x915A PUSH1 0x4 DUP4 PUSH2 0x88D2 JUMP JUMPDEST SWAP2 POP PUSH2 0x9165 DUP3 PUSH2 0x9126 JUMP JUMPDEST PUSH1 0x20 DUP3 ADD SWAP1 POP SWAP2 SWAP1 POP JUMP JUMPDEST PUSH0 PUSH1 0x60 DUP3 ADD SWAP1 POP PUSH2 0x9183 PUSH0 DUP4 ADD DUP6 PUSH2 0x8037 JUMP JUMPDEST DUP2 DUP2 SUB PUSH1 0x20 DUP4 ADD MSTORE PUSH2 0x9194 DUP2 PUSH2 0x914E JUMP JUMPDEST SWAP1 POP PUSH2 0x91A3 PUSH1 0x40 DUP4 ADD DUP5 PUSH2 0x77D9 JUMP JUMPDEST SWAP4 SWAP3 POP POP POP JUMP JUMPDEST PUSH32 0x6D696E7420697320706175736564000000000000000000000000000000000000 PUSH0 DUP3 ADD MSTORE POP JUMP JUMPDEST PUSH0 PUSH2 0x91DE PUSH1 0xE DUP4 PUSH2 0x88D2 JUMP JUMPDEST SWAP2 POP PUSH2 0x91E9 DUP3 PUSH2 0x91AA JUMP JUMPDEST PUSH1 0x20 DUP3 ADD SWAP1 POP SWAP2 SWAP1 POP JUMP JUMPDEST PUSH0 PUSH1 0x20 DUP3 ADD SWAP1 POP DUP2 DUP2 SUB PUSH0 DUP4 ADD MSTORE PUSH2 0x920B DUP2 PUSH2 0x91D2 JUMP JUMPDEST SWAP1 POP SWAP2 SWAP1 POP JUMP JUMPDEST PUSH32 0x72656465656D546F6B656E73207A65726F000000000000000000000000000000 PUSH0 DUP3 ADD MSTORE POP JUMP JUMPDEST PUSH0 PUSH2 0x9246 PUSH1 0x11 DUP4 PUSH2 0x88D2 JUMP JUMPDEST SWAP2 POP PUSH2 0x9251 DUP3 PUSH2 0x9212 JUMP JUMPDEST PUSH1 0x20 DUP3 ADD SWAP1 POP SWAP2 SWAP1 POP JUMP JUMPDEST PUSH0 PUSH1 0x20 DUP3 ADD SWAP1 POP DUP2 DUP2 SUB PUSH0 DUP4 ADD MSTORE PUSH2 0x9273 DUP2 PUSH2 0x923A JUMP JUMPDEST SWAP1 POP SWAP2 SWAP1 POP JUMP JUMPDEST PUSH0 PUSH1 0x40 DUP3 ADD SWAP1 POP PUSH2 0x928D PUSH0 DUP4 ADD DUP6 PUSH2 0x83F7 JUMP JUMPDEST PUSH2 0x929A PUSH1 0x20 DUP4 ADD DUP5 PUSH2 0x83F7 JUMP JUMPDEST SWAP4 SWAP3 POP POP POP JUMP JUMPDEST PUSH32 0x6F6E6C792061646D696E2063616E2073657420636F6D70207370656564000000 PUSH0 DUP3 ADD MSTORE POP JUMP JUMPDEST PUSH0 PUSH2 0x92D5 PUSH1 0x1D DUP4 PUSH2 0x88D2 JUMP JUMPDEST SWAP2 POP PUSH2 0x92E0 DUP3 PUSH2 0x92A1 JUMP JUMPDEST PUSH1 0x20 DUP3 ADD SWAP1 POP SWAP2 SWAP1 POP JUMP JUMPDEST PUSH0 PUSH1 0x20 DUP3 ADD SWAP1 POP DUP2 DUP2 SUB PUSH0 DUP4 ADD MSTORE PUSH2 0x9302 DUP2 PUSH2 0x92C9 JUMP JUMPDEST SWAP1 POP SWAP2 SWAP1 POP JUMP JUMPDEST PUSH32 0x43616E206E6F74207265706179206D6F7265207468616E2074686520746F7461 PUSH0 DUP3 ADD MSTORE PUSH32 0x6C20626F72726F77000000000000000000000000000000000000000000000000 PUSH1 0x20 DUP3 ADD MSTORE POP JUMP JUMPDEST PUSH0 PUSH2 0x9363 PUSH1 0x28 DUP4 PUSH2 0x88D2 JUMP JUMPDEST SWAP2 POP PUSH2 0x936E DUP3 PUSH2 0x9309 JUMP JUMPDEST PUSH1 0x40 DUP3 ADD SWAP1 POP SWAP2 SWAP1 POP JUMP JUMPDEST PUSH0 PUSH1 0x20 DUP3 ADD SWAP1 POP DUP2 DUP2 SUB PUSH0 DUP4 ADD MSTORE PUSH2 0x9390 DUP2 PUSH2 0x9357 JUMP JUMPDEST SWAP1 POP SWAP2 SWAP1 POP JUMP JUMPDEST PUSH32 0x6F6E6C792061646D696E206F7220626F72726F77206361702067756172646961 PUSH0 DUP3 ADD MSTORE PUSH32 0x6E2063616E2073657420626F72726F7720636170730000000000000000000000 PUSH1 0x20 DUP3 ADD MSTORE POP JUMP JUMPDEST PUSH0 PUSH2 0x93F1 PUSH1 0x35 DUP4 PUSH2 0x88D2 JUMP JUMPDEST SWAP2 POP PUSH2 0x93FC DUP3 PUSH2 0x9397 JUMP JUMPDEST PUSH1 0x40 DUP3 ADD SWAP1 POP SWAP2 SWAP1 POP JUMP JUMPDEST PUSH0 PUSH1 0x20 DUP3 ADD SWAP1 POP DUP2 DUP2 SUB PUSH0 DUP4 ADD MSTORE PUSH2 0x941E DUP2 PUSH2 0x93E5 JUMP JUMPDEST SWAP1 POP SWAP2 SWAP1 POP JUMP JUMPDEST PUSH32 0x696E76616C696420696E70757400000000000000000000000000000000000000 PUSH0 DUP3 ADD MSTORE POP JUMP JUMPDEST PUSH0 PUSH2 0x9459 PUSH1 0xD DUP4 PUSH2 0x88D2 JUMP JUMPDEST SWAP2 POP PUSH2 0x9464 DUP3 PUSH2 0x9425 JUMP JUMPDEST PUSH1 0x20 DUP3 ADD SWAP1 POP SWAP2 SWAP1 POP JUMP JUMPDEST PUSH0 PUSH1 0x20 DUP3 ADD SWAP1 POP DUP2 DUP2 SUB PUSH0 DUP4 ADD MSTORE PUSH2 0x9486 DUP2 PUSH2 0x944D JUMP JUMPDEST SWAP1 POP SWAP2 SWAP1 POP JUMP JUMPDEST PUSH32 0x6D61726B6574206D757374206265206C69737465640000000000000000000000 PUSH0 DUP3 ADD MSTORE POP JUMP JUMPDEST PUSH0 PUSH2 0x94C1 PUSH1 0x15 DUP4 PUSH2 0x88D2 JUMP JUMPDEST SWAP2 POP PUSH2 0x94CC DUP3 PUSH2 0x948D JUMP JUMPDEST PUSH1 0x20 DUP3 ADD SWAP1 POP SWAP2 SWAP1 POP JUMP JUMPDEST PUSH0 PUSH1 0x20 DUP3 ADD SWAP1 POP DUP2 DUP2 SUB PUSH0 DUP4 ADD MSTORE PUSH2 0x94EE DUP2 PUSH2 0x94B5 JUMP JUMPDEST SWAP1 POP SWAP2 SWAP1 POP JUMP JUMPDEST PUSH32 0x5472616E73666572000000000000000000000000000000000000000000000000 PUSH0 DUP3 ADD MSTORE POP JUMP JUMPDEST PUSH0 PUSH2 0x9529 PUSH1 0x8 DUP4 PUSH2 0x88D2 JUMP JUMPDEST SWAP2 POP PUSH2 0x9534 DUP3 PUSH2 0x94F5 JUMP JUMPDEST PUSH1 0x20 DUP3 ADD SWAP1 POP SWAP2 SWAP1 POP JUMP JUMPDEST PUSH0 PUSH1 0x40 DUP3 ADD SWAP1 POP DUP2 DUP2 SUB PUSH0 DUP4 ADD MSTORE PUSH2 0x9556 DUP2 PUSH2 0x951D JUMP JUMPDEST SWAP1 POP PUSH2 0x9565 PUSH1 0x20 DUP4 ADD DUP5 PUSH2 0x77D9 JUMP JUMPDEST SWAP3 SWAP2 POP POP JUMP JUMPDEST PUSH0 DUP2 MLOAD SWAP1 POP PUSH2 0x9579 DUP2 PUSH2 0x79B1 JUMP JUMPDEST SWAP3 SWAP2 POP POP JUMP JUMPDEST PUSH0 PUSH1 0x20 DUP3 DUP5 SUB SLT ISZERO PUSH2 0x9594 JUMPI PUSH2 0x9593 PUSH2 0x780A JUMP JUMPDEST JUMPDEST PUSH0 PUSH2 0x95A1 DUP5 DUP3 DUP6 ADD PUSH2 0x956B JUMP JUMPDEST SWAP2 POP POP SWAP3 SWAP2 POP POP JUMP JUMPDEST PUSH32 0x436F6D7074726F6C6C65723A3A5F736574436F6D7053706565647320696E7661 PUSH0 DUP3 ADD MSTORE PUSH32 0x6C696420696E7075740000000000000000000000000000000000000000000000 PUSH1 0x20 DUP3 ADD MSTORE POP JUMP JUMPDEST PUSH0 PUSH2 0x9604 PUSH1 0x29 DUP4 PUSH2 0x88D2 JUMP JUMPDEST SWAP2 POP PUSH2 0x960F DUP3 PUSH2 0x95AA JUMP JUMPDEST PUSH1 0x40 DUP3 ADD SWAP1 POP SWAP2 SWAP1 POP JUMP JUMPDEST PUSH0 PUSH1 0x20 DUP3 ADD SWAP1 POP DUP2 DUP2 SUB PUSH0 DUP4 ADD MSTORE PUSH2 0x9631 DUP2 PUSH2 0x95F8 JUMP JUMPDEST SWAP1 POP SWAP2 SWAP1 POP JUMP JUMPDEST PUSH32 0x7472616E73666572206973207061757365640000000000000000000000000000 PUSH0 DUP3 ADD MSTORE POP JUMP JUMPDEST PUSH0 PUSH2 0x966C PUSH1 0x12 DUP4 PUSH2 0x88D2 JUMP JUMPDEST SWAP2 POP PUSH2 0x9677 DUP3 PUSH2 0x9638 JUMP JUMPDEST PUSH1 0x20 DUP3 ADD SWAP1 POP SWAP2 SWAP1 POP JUMP JUMPDEST PUSH0 PUSH1 0x20 DUP3 ADD SWAP1 POP DUP2 DUP2 SUB PUSH0 DUP4 ADD MSTORE PUSH2 0x9699 DUP2 PUSH2 0x9660 JUMP JUMPDEST SWAP1 POP SWAP2 SWAP1 POP JUMP JUMPDEST PUSH32 0x7365697A65206973207061757365640000000000000000000000000000000000 PUSH0 DUP3 ADD MSTORE POP JUMP JUMPDEST PUSH0 PUSH2 0x96D4 PUSH1 0xF DUP4 PUSH2 0x88D2 JUMP JUMPDEST SWAP2 POP PUSH2 0x96DF DUP3 PUSH2 0x96A0 JUMP JUMPDEST PUSH1 0x20 DUP3 ADD SWAP1 POP SWAP2 SWAP1 POP JUMP JUMPDEST PUSH0 PUSH1 0x20 DUP3 ADD SWAP1 POP DUP2 DUP2 SUB PUSH0 DUP4 ADD MSTORE PUSH2 0x9701 DUP2 PUSH2 0x96C8 JUMP JUMPDEST SWAP1 POP SWAP2 SWAP1 POP JUMP JUMPDEST PUSH0 PUSH2 0x9712 DUP3 PUSH2 0x7965 JUMP JUMPDEST SWAP1 POP SWAP2 SWAP1 POP JUMP JUMPDEST PUSH2 0x9722 DUP2 PUSH2 0x9708 JUMP JUMPDEST DUP2 EQ PUSH2 0x972C JUMPI PUSH0 DUP1 REVERT JUMPDEST POP JUMP JUMPDEST PUSH0 DUP2 MLOAD SWAP1 POP PUSH2 0x973D DUP2 PUSH2 0x9719 JUMP JUMPDEST SWAP3 SWAP2 POP POP JUMP JUMPDEST PUSH0 PUSH1 0x20 DUP3 DUP5 SUB SLT ISZERO PUSH2 0x9758 JUMPI PUSH2 0x9757 PUSH2 0x780A JUMP JUMPDEST JUMPDEST PUSH0 PUSH2 0x9765 DUP5 DUP3 DUP6 ADD PUSH2 0x972F JUMP JUMPDEST SWAP2 POP POP SWAP3 SWAP2 POP POP JUMP JUMPDEST PUSH32 0x626F72726F772069732070617573656400000000000000000000000000000000 PUSH0 DUP3 ADD MSTORE POP JUMP JUMPDEST PUSH0 PUSH2 0x97A2 PUSH1 0x10 DUP4 PUSH2 0x88D2 JUMP JUMPDEST SWAP2 POP PUSH2 0x97AD DUP3 PUSH2 0x976E JUMP JUMPDEST PUSH1 0x20 DUP3 ADD SWAP1 POP SWAP2 SWAP1 POP JUMP JUMPDEST PUSH0 PUSH1 0x20 DUP3 ADD SWAP1 POP DUP2 DUP2 SUB PUSH0 DUP4 ADD MSTORE PUSH2 0x97CF DUP2 PUSH2 0x9796 JUMP JUMPDEST SWAP1 POP SWAP2 SWAP1 POP JUMP JUMPDEST PUSH32 0x73656E646572206D7573742062652063546F6B656E0000000000000000000000 PUSH0 DUP3 ADD MSTORE POP JUMP JUMPDEST PUSH0 PUSH2 0x980A PUSH1 0x15 DUP4 PUSH2 0x88D2 JUMP JUMPDEST SWAP2 POP PUSH2 0x9815 DUP3 PUSH2 0x97D6 JUMP JUMPDEST PUSH1 0x20 DUP3 ADD SWAP1 POP SWAP2 SWAP1 POP JUMP JUMPDEST PUSH0 PUSH1 0x20 DUP3 ADD SWAP1 POP DUP2 DUP2 SUB PUSH0 DUP4 ADD MSTORE PUSH2 0x9837 DUP2 PUSH2 0x97FE JUMP JUMPDEST SWAP1 POP SWAP2 SWAP1 POP JUMP JUMPDEST PUSH32 0x4E487B7100000000000000000000000000000000000000000000000000000000 PUSH0 MSTORE PUSH1 0x1 PUSH1 0x4 MSTORE PUSH1 0x24 PUSH0 REVERT JUMPDEST PUSH32 0x6D61726B657420626F72726F7720636170207265616368656400000000000000 PUSH0 DUP3 ADD MSTORE POP JUMP JUMPDEST PUSH0 PUSH2 0x989F PUSH1 0x19 DUP4 PUSH2 0x88D2 JUMP JUMPDEST SWAP2 POP PUSH2 0x98AA DUP3 PUSH2 0x986B JUMP JUMPDEST PUSH1 0x20 DUP3 ADD SWAP1 POP SWAP2 SWAP1 POP JUMP JUMPDEST PUSH0 PUSH1 0x20 DUP3 ADD SWAP1 POP DUP2 DUP2 SUB PUSH0 DUP4 ADD MSTORE PUSH2 0x98CC DUP2 PUSH2 0x9893 JUMP JUMPDEST SWAP1 POP SWAP2 SWAP1 POP JUMP JUMPDEST PUSH0 PUSH1 0x60 DUP3 ADD SWAP1 POP PUSH2 0x98E6 PUSH0 DUP4 ADD DUP7 PUSH2 0x8037 JUMP JUMPDEST PUSH2 0x98F3 PUSH1 0x20 DUP4 ADD DUP6 PUSH2 0x7C90 JUMP JUMPDEST PUSH2 0x9900 PUSH1 0x40 DUP4 ADD DUP5 PUSH2 0x7C90 JUMP JUMPDEST SWAP5 SWAP4 POP POP POP POP JUMP JUMPDEST PUSH0 DUP1 PUSH0 DUP1 PUSH1 0x80 DUP6 DUP8 SUB SLT ISZERO PUSH2 0x9920 JUMPI PUSH2 0x991F PUSH2 0x780A JUMP JUMPDEST JUMPDEST PUSH0 PUSH2 0x992D DUP8 DUP3 DUP9 ADD PUSH2 0x8DC8 JUMP JUMPDEST SWAP5 POP POP PUSH1 0x20 PUSH2 0x993E DUP8 DUP3 DUP9 ADD PUSH2 0x8DC8 JUMP JUMPDEST SWAP4 POP POP PUSH1 0x40 PUSH2 0x994F DUP8 DUP3 DUP9 ADD PUSH2 0x8DC8 JUMP JUMPDEST SWAP3 POP POP PUSH1 0x60 PUSH2 0x9960 DUP8 DUP3 DUP9 ADD PUSH2 0x8DC8 JUMP JUMPDEST SWAP2 POP POP SWAP3 SWAP6 SWAP2 SWAP5 POP SWAP3 POP JUMP JUMPDEST PUSH32 0x657869744D61726B65743A206765744163636F756E74536E617073686F742066 PUSH0 DUP3 ADD MSTORE PUSH32 0x61696C6564000000000000000000000000000000000000000000000000000000 PUSH1 0x20 DUP3 ADD MSTORE POP JUMP JUMPDEST PUSH0 PUSH2 0x99C6 PUSH1 0x25 DUP4 PUSH2 0x88D2 JUMP JUMPDEST SWAP2 POP PUSH2 0x99D1 DUP3 PUSH2 0x996C JUMP JUMPDEST PUSH1 0x40 DUP3 ADD SWAP1 POP SWAP2 SWAP1 POP JUMP JUMPDEST PUSH0 PUSH1 0x20 DUP3 ADD SWAP1 POP DUP2 DUP2 SUB PUSH0 DUP4 ADD MSTORE PUSH2 0x99F3 DUP2 PUSH2 0x99BA JUMP JUMPDEST SWAP1 POP SWAP2 SWAP1 POP JUMP JUMPDEST PUSH32 0x4E487B7100000000000000000000000000000000000000000000000000000000 PUSH0 MSTORE PUSH1 0x31 PUSH1 0x4 MSTORE PUSH1 0x24 PUSH0 REVERT JUMPDEST PUSH0 PUSH1 0x40 DUP3 ADD SWAP1 POP PUSH2 0x9A3A PUSH0 DUP4 ADD DUP6 PUSH2 0x8037 JUMP JUMPDEST PUSH2 0x9A47 PUSH1 0x20 DUP4 ADD DUP5 PUSH2 0x7D59 JUMP JUMPDEST SWAP4 SWAP3 POP POP POP JUMP JUMPDEST PUSH0 PUSH2 0x9A58 DUP3 PUSH2 0x7C87 JUMP JUMPDEST SWAP2 POP PUSH2 0x9A63 DUP4 PUSH2 0x7C87 JUMP JUMPDEST SWAP3 POP DUP3 DUP3 ADD SWAP1 POP DUP1 DUP3 GT ISZERO PUSH2 0x9A7B JUMPI PUSH2 0x9A7A PUSH2 0x8A93 JUMP JUMPDEST JUMPDEST SWAP3 SWAP2 POP POP JUMP JUMPDEST PUSH0 PUSH1 0xFF DUP3 AND SWAP1 POP SWAP2 SWAP1 POP JUMP JUMPDEST PUSH2 0x9A96 DUP2 PUSH2 0x9A81 JUMP JUMPDEST DUP2 EQ PUSH2 0x9AA0 JUMPI PUSH0 DUP1 REVERT JUMPDEST POP JUMP JUMPDEST PUSH0 DUP2 MLOAD SWAP1 POP PUSH2 0x9AB1 DUP2 PUSH2 0x9A8D JUMP JUMPDEST SWAP3 SWAP2 POP POP JUMP JUMPDEST PUSH0 PUSH1 0x20 DUP3 DUP5 SUB SLT ISZERO PUSH2 0x9ACC JUMPI PUSH2 0x9ACB PUSH2 0x780A JUMP JUMPDEST JUMPDEST PUSH0 PUSH2 0x9AD9 DUP5 DUP3 DUP6 ADD PUSH2 0x9AA3 JUMP JUMPDEST SWAP2 POP POP SWAP3 SWAP2 POP POP JUMP JUMPDEST PUSH0 PUSH2 0x9AEC DUP3 PUSH2 0x9A81 JUMP JUMPDEST SWAP2 POP PUSH2 0x9AF7 DUP4 PUSH2 0x9A81 JUMP JUMPDEST SWAP3 POP DUP3 DUP3 SUB SWAP1 POP PUSH1 0xFF DUP2 GT ISZERO PUSH2 0x9B10 JUMPI PUSH2 0x9B0F PUSH2 0x8A93 JUMP JUMPDEST JUMPDEST SWAP3 SWAP2 POP POP JUMP JUMPDEST PUSH0 DUP2 PUSH1 0x1 SHR SWAP1 POP SWAP2 SWAP1 POP JUMP JUMPDEST PUSH0 DUP1 DUP3 SWAP2 POP DUP4 SWAP1 POP JUMPDEST PUSH1 0x1 DUP6 GT ISZERO PUSH2 0x9B6B JUMPI DUP1 DUP7 DIV DUP2 GT ISZERO PUSH2 0x9B47 JUMPI PUSH2 0x9B46 PUSH2 0x8A93 JUMP JUMPDEST JUMPDEST PUSH1 0x1 DUP6 AND ISZERO PUSH2 0x9B56 JUMPI DUP1 DUP3 MUL SWAP2 POP JUMPDEST DUP1 DUP2 MUL SWAP1 POP PUSH2 0x9B64 DUP6 PUSH2 0x9B16 JUMP JUMPDEST SWAP5 POP PUSH2 0x9B2B JUMP JUMPDEST SWAP5 POP SWAP5 SWAP3 POP POP POP JUMP JUMPDEST PUSH0 DUP3 PUSH2 0x9B83 JUMPI PUSH1 0x1 SWAP1 POP PUSH2 0x9C3E JUMP JUMPDEST DUP2 PUSH2 0x9B90 JUMPI PUSH0 SWAP1 POP PUSH2 0x9C3E JUMP JUMPDEST DUP2 PUSH1 0x1 DUP2 EQ PUSH2 0x9BA6 JUMPI PUSH1 0x2 DUP2 EQ PUSH2 0x9BB0 JUMPI PUSH2 0x9BDF JUMP JUMPDEST PUSH1 0x1 SWAP2 POP POP PUSH2 0x9C3E JUMP JUMPDEST PUSH1 0xFF DUP5 GT ISZERO PUSH2 0x9BC2 JUMPI PUSH2 0x9BC1 PUSH2 0x8A93 JUMP JUMPDEST JUMPDEST DUP4 PUSH1 0x2 EXP SWAP2 POP DUP5 DUP3 GT ISZERO PUSH2 0x9BD9 JUMPI PUSH2 0x9BD8 PUSH2 0x8A93 JUMP JUMPDEST JUMPDEST POP PUSH2 0x9C3E JUMP JUMPDEST POP PUSH1 0x20 DUP4 LT PUSH2 0x133 DUP4 LT AND PUSH1 0x4E DUP5 LT PUSH1 0xB DUP5 LT AND OR ISZERO PUSH2 0x9C14 JUMPI DUP3 DUP3 EXP SWAP1 POP DUP4 DUP2 GT ISZERO PUSH2 0x9C0F JUMPI PUSH2 0x9C0E PUSH2 0x8A93 JUMP JUMPDEST JUMPDEST PUSH2 0x9C3E JUMP JUMPDEST PUSH2 0x9C21 DUP5 DUP5 DUP5 PUSH1 0x1 PUSH2 0x9B22 JUMP JUMPDEST SWAP3 POP SWAP1 POP DUP2 DUP5 DIV DUP2 GT ISZERO PUSH2 0x9C38 JUMPI PUSH2 0x9C37 PUSH2 0x8A93 JUMP JUMPDEST JUMPDEST DUP2 DUP2 MUL SWAP1 POP JUMPDEST SWAP4 SWAP3 POP POP POP JUMP JUMPDEST PUSH0 PUSH2 0x9C4F DUP3 PUSH2 0x7C87 JUMP JUMPDEST SWAP2 POP PUSH2 0x9C5A DUP4 PUSH2 0x9A81 JUMP JUMPDEST SWAP3 POP PUSH2 0x9C87 PUSH32 0xFFFFFFFFFFFFFFFFFFFFFFFFFFFFFFFFFFFFFFFFFFFFFFFFFFFFFFFFFFFFFFFF DUP5 DUP5 PUSH2 0x9B74 JUMP JUMPDEST SWAP1 POP SWAP3 SWAP2 POP POP JUMP JUMPDEST PUSH32 0x416E74692D646F6E6174696F6E2067756172643A20756E6465726C79696E6720 PUSH0 DUP3 ADD MSTORE PUSH32 0x62616C616E6365206C657373207468616E20746F74616C20737570706C790000 PUSH1 0x20 DUP3 ADD MSTORE POP JUMP JUMPDEST PUSH0 PUSH2 0x9CE9 PUSH1 0x3E DUP4 PUSH2 0x88D2 JUMP JUMPDEST SWAP2 POP PUSH2 0x9CF4 DUP3 PUSH2 0x9C8F JUMP JUMPDEST PUSH1 0x40 DUP3 ADD SWAP1 POP SWAP2 SWAP1 POP JUMP JUMPDEST PUSH0 PUSH1 0x20 DUP3 ADD SWAP1 POP DUP2 DUP2 SUB PUSH0 DUP4 ADD MSTORE PUSH2 0x9D16 DUP2 PUSH2 0x9CDD JUMP JUMPDEST SWAP1 POP SWAP2 SWAP1 POP JUMP JUMPDEST PUSH0 DUP2 SWAP1 POP SWAP2 SWAP1 POP JUMP JUMPDEST PUSH0 PUSH2 0x9D40 PUSH2 0x9D3B PUSH2 0x9D36 DUP5 PUSH2 0x9D1D JUMP JUMPDEST PUSH2 0x7FEB JUMP JUMPDEST PUSH2 0x7C87 JUMP JUMPDEST SWAP1 POP SWAP2 SWAP1 POP JUMP JUMPDEST PUSH2 0x9D50 DUP2 PUSH2 0x9D26 JUMP JUMPDEST DUP3 MSTORE POP POP JUMP JUMPDEST PUSH0 PUSH1 0x60 DUP3 ADD SWAP1 POP PUSH2 0x9D69 PUSH0 DUP4 ADD DUP7 PUSH2 0x7C90 JUMP JUMPDEST PUSH2 0x9D76 PUSH1 0x20 DUP4 ADD DUP6 PUSH2 0x7C90 JUMP JUMPDEST PUSH2 0x9D83 PUSH1 0x40 DUP4 ADD DUP5 PUSH2 0x9D47 JUMP JUMPDEST SWAP5 SWAP4 POP POP POP POP JUMP JUMPDEST PUSH0 PUSH2 0x9D95 DUP3 PUSH2 0x7C87 JUMP JUMPDEST SWAP2 POP PUSH2 0x9DA0 DUP4 PUSH2 0x7C87 JUMP JUMPDEST SWAP3 POP DUP3 DUP3 MUL PUSH2 0x9DAE DUP2 PUSH2 0x7C87 JUMP JUMPDEST SWAP2 POP DUP3 DUP3 DIV DUP5 EQ DUP4 ISZERO OR PUSH2 0x9DC5 JUMPI PUSH2 0x9DC4 PUSH2 0x8A93 JUMP JUMPDEST JUMPDEST POP SWAP3 SWAP2 POP POP JUMP JUMPDEST PUSH32 0x6D61726B657420616C7265616479206164646564000000000000000000000000 PUSH0 DUP3 ADD MSTORE POP JUMP JUMPDEST PUSH0 PUSH2 0x9E00 PUSH1 0x14 DUP4 PUSH2 0x88D2 JUMP JUMPDEST SWAP2 POP PUSH2 0x9E0B DUP3 PUSH2 0x9DCC JUMP JUMPDEST PUSH1 0x20 DUP3 ADD SWAP1 POP SWAP2 SWAP1 POP JUMP JUMPDEST PUSH0 PUSH1 0x20 DUP3 ADD SWAP1 POP DUP2 DUP2 SUB PUSH0 DUP4 ADD MSTORE PUSH2 0x9E2D DUP2 PUSH2 0x9DF4 JUMP JUMPDEST SWAP1 POP SWAP2 SWAP1 POP JUMP JUMPDEST PUSH32 0x636F6D70206D61726B6574206973206E6F74206C697374656400000000000000 PUSH0 DUP3 ADD MSTORE POP JUMP JUMPDEST PUSH0 PUSH2 0x9E68 PUSH1 0x19 DUP4 PUSH2 0x88D2 JUMP JUMPDEST SWAP2 POP PUSH2 0x9E73 DUP3 PUSH2 0x9E34 JUMP JUMPDEST PUSH1 0x20 DUP3 ADD SWAP1 POP SWAP2 SWAP1 POP JUMP JUMPDEST PUSH0 PUSH1 0x20 DUP3 ADD SWAP1 POP DUP2 DUP2 SUB PUSH0 DUP4 ADD MSTORE PUSH2 0x9E95 DUP2 PUSH2 0x9E5C JUMP JUMPDEST SWAP1 POP SWAP2 SWAP1 POP JUMP JUMPDEST PUSH32 0x4E487B7100000000000000000000000000000000000000000000000000000000 PUSH0 MSTORE PUSH1 0x12 PUSH1 0x4 MSTORE PUSH1 0x24 PUSH0 REVERT JUMPDEST PUSH0 PUSH2 0x9ED3 DUP3 PUSH2 0x7C87 JUMP JUMPDEST SWAP2 POP PUSH2 0x9EDE DUP4 PUSH2 0x7C87 JUMP JUMPDEST SWAP3 POP DUP3 PUSH2 0x9EEE JUMPI PUSH2 0x9EED PUSH2 0x9E9C JUMP JUMPDEST JUMPDEST DUP3 DUP3 DIV SWAP1 POP SWAP3 SWAP2 POP POP JUMP JUMPDEST PUSH0 DUP2 MLOAD SWAP1 POP SWAP2 SWAP1 POP JUMP JUMPDEST DUP3 DUP2 DUP4 MCOPY PUSH0 DUP4 DUP4 ADD MSTORE POP POP POP JUMP JUMPDEST PUSH0 PUSH2 0x9F1B DUP3 PUSH2 0x9EF9 JUMP JUMPDEST PUSH2 0x9F25 DUP2 DUP6 PUSH2 0x88D2 JUMP JUMPDEST SWAP4 POP PUSH2 0x9F35 DUP2 DUP6 PUSH1 0x20 DUP7 ADD PUSH2 0x9F03 JUMP JUMPDEST PUSH2 0x9F3E DUP2 PUSH2 0x7A43 JUMP JUMPDEST DUP5 ADD SWAP2 POP POP SWAP3 SWAP2 POP POP JUMP JUMPDEST PUSH0 PUSH1 0x20 DUP3 ADD SWAP1 POP DUP2 DUP2 SUB PUSH0 DUP4 ADD MSTORE PUSH2 0x9F61 DUP2 DUP5 PUSH2 0x9F11 JUMP JUMPDEST SWAP1 POP SWAP3 SWAP2 POP POP JUMP INVALID LOG2 PUSH5 0x6970667358 0x22 SLT KECCAK256 DUP4 CALLER 0xC DUP16 0xBB PUSH0 0xB3 PUSH15 0xF85256562A21F43B48EEB9BBA7DD22 0xD6 0xD3 BASEFEE 0xCB MSTORE8 0xA9 ADD PREVRANDAO 0xDE PUSH5 0x736F6C6343 STOP ADDMOD BYTE STOP CALLER "
		},
		"gasEstimates": {
			"creation": {
				"codeDepositCost": "8172600",
				"executionCost": "35161",
				"totalCost": "8207761"
			},
			"external": {
				"_become(address)": "infinite",
				"_borrowGuardianPaused()": "2650",
				"_grantComp(address,uint256)": "infinite",
				"_mintGuardianPaused()": "2607",
				"_setBorrowCapGuardian(address)": "infinite",
				"_setBorrowPaused(address,bool)": "infinite",
				"_setCloseFactor(uint256)": "infinite",
				"_setCollateralFactor(address,uint256)": "infinite",
				"_setCompSpeeds(address[],uint256[],uint256[])": "infinite",
				"_setContributorCompSpeed(address,uint256)": "infinite",
				"_setLiquidationIncentive(uint256)": "infinite",
				"_setMarketBorrowCaps(address[],uint256[])": "infinite",
				"_setMintPaused(address,bool)": "infinite",
				"_setPauseGuardian(address)": "infinite",
				"_setPriceOracle(address)": "infinite",
				"_setSeizePaused(bool)": "infinite",
				"_setTransferPaused(bool)": "infinite",
				"_supportMarket(address)": "infinite",
				"accountAssets(address,uint256)": "infinite",
				"admin()": "2681",
				"allMarkets(uint256)": "infinite",
				"borrowAllowed(address,address,uint256)": "infinite",
				"borrowCapGuardian()": "2621",
				"borrowCaps(address)": "2871",
				"borrowGuardianPaused(address)": "2966",
				"borrowVerify(address,address,uint256)": "infinite",
				"checkMembership(address,address)": "infinite",
				"claimComp(address)": "infinite",
				"claimComp(address,address[])": "infinite",
				"claimComp(address[],address[],bool,bool)": "infinite",
				"closeFactorMantissa()": "2580",
				"compAccrued(address)": "2913",
				"compBorrowSpeeds(address)": "2956",
				"compBorrowState(address)": "5226",
				"compBorrowerIndex(address,address)": "infinite",
				"compContributorSpeeds(address)": "2892",
				"compInitialIndex()": "487",
				"compRate()": "2514",
				"compReceivable(address)": "2937",
				"compSpeeds(address)": "2871",
				"compSupplierIndex(address,address)": "infinite",
				"compSupplySpeeds(address)": "2891",
				"compSupplyState(address)": "5269",
				"comptrollerImplementation()": "2598",
				"enterMarkets(address[])": "infinite",
				"exitMarket(address)": "infinite",
				"fixBadAccruals(address[],uint256[])": "infinite",
				"getAccountLiquidity(address)": "infinite",
				"getAllMarkets()": "infinite",
				"getAssetsIn(address)": "infinite",
				"getBlockNumber()": "465",
				"getCompAddress()": "492",
				"getHypotheticalAccountLiquidity(address,address,uint256,uint256)": "infinite",
				"isComptroller()": "401",
				"isDeprecated(address)": "infinite",
				"lastContributorBlock(address)": "2936",
				"liquidateBorrowAllowed(address,address,address,address,uint256)": "infinite",
				"liquidateBorrowVerify(address,address,address,address,uint256,uint256)": "infinite",
				"liquidateCalculateSeizeTokens(address,address,uint256)": "infinite",
				"liquidationIncentiveMantissa()": "2516",
				"markets(address)": "infinite",
				"maxAssets()": "2493",
				"mintAllowed(address,address,uint256)": "infinite",
				"mintGuardianPaused(address)": "2902",
				"mintVerify(address,address,uint256,uint256)": "infinite",
				"oracle()": "infinite",
				"pauseGuardian()": "2665",
				"pendingAdmin()": "2577",
				"pendingComptrollerImplementation()": "2597",
				"proposal65FixExecuted()": "2598",
				"redeemAllowed(address,address,uint256)": "infinite",
				"redeemVerify(address,address,uint256,uint256)": "infinite",
				"repayBorrowAllowed(address,address,address,uint256)": "infinite",
				"repayBorrowVerify(address,address,address,uint256,uint256)": "infinite",
				"seizeAllowed(address,address,address,address,uint256)": "infinite",
				"seizeGuardianPaused()": "2650",
				"seizeVerify(address,address,address,address,uint256)": "infinite",
				"transferAllowed(address,address,address,uint256)": "infinite",
				"transferGuardianPaused()": "2674",
				"transferVerify(address,address,address,uint256)": "infinite",
				"updateContributorRewards(address)": "infinite"
			},
			"internal": {
				"_addMarketInternal(address)": "infinite",
				"_antiDonationGuard(address)": "infinite",
				"_initializeMarket(address)": "infinite",
				"addToMarketInternal(contract CToken,address)": "infinite",
				"adminOrInitializing()": "4348",
				"distributeBorrowerComp(address,address,struct ExponentialNoError.Exp memory)": "infinite",
				"distributeSupplierComp(address,address)": "infinite",
				"getAccountLiquidityInternal(address)": "infinite",
				"getHypotheticalAccountLiquidityInternal(address,contract CToken,uint256,uint256)": "infinite",
				"grantCompInternal(address,uint256)": "infinite",
				"redeemAllowedInternal(address,address,uint256)": "infinite",
				"setCompSpeedInternal(contract CToken,uint256,uint256)": "infinite",
				"updateCompBorrowIndex(address,struct ExponentialNoError.Exp memory)": "infinite",
				"updateCompSupplyIndex(address)": "infinite"
			}
		},
		"methodIdentifiers": {
			"_become(address)": "1d504dc6",
			"_borrowGuardianPaused()": "e6653f3d",
			"_grantComp(address,uint256)": "27efe3cb",
			"_mintGuardianPaused()": "3c94786f",
			"_setBorrowCapGuardian(address)": "391957d7",
			"_setBorrowPaused(address,bool)": "18c882a5",
			"_setCloseFactor(uint256)": "317b0b77",
			"_setCollateralFactor(address,uint256)": "e4028eee",
			"_setCompSpeeds(address[],uint256[],uint256[])": "a8b43948",
			"_setContributorCompSpeed(address,uint256)": "598ee1cb",
			"_setLiquidationIncentive(uint256)": "4fd42e17",
			"_setMarketBorrowCaps(address[],uint256[])": "607ef6c1",
			"_setMintPaused(address,bool)": "3bcf7ec1",
			"_setPauseGuardian(address)": "5f5af1aa",
			"_setPriceOracle(address)": "55ee1fe1",
			"_setSeizePaused(bool)": "2d70db78",
			"_setTransferPaused(bool)": "8ebf6364",
			"_supportMarket(address)": "a76b3fda",
			"accountAssets(address,uint256)": "dce15449",
			"admin()": "f851a440",
			"allMarkets(uint256)": "52d84d1e",
			"borrowAllowed(address,address,uint256)": "da3d454c",
			"borrowCapGuardian()": "21af4569",
			"borrowCaps(address)": "4a584432",
			"borrowGuardianPaused(address)": "6d154ea5",
			"borrowVerify(address,address,uint256)": "5c778605",
			"checkMembership(address,address)": "929fe9a1",
			"claimComp(address)": "e9af0292",
			"claimComp(address,address[])": "1c3db2e0",
			"claimComp(address[],address[],bool,bool)": "6810dfa6",
			"closeFactorMantissa()": "e8755446",
			"compAccrued(address)": "cc7ebdc4",
			"compBorrowSpeeds(address)": "f4a433c0",
			"compBorrowState(address)": "8c57804e",
			"compBorrowerIndex(address,address)": "ca0af043",
			"compContributorSpeeds(address)": "986ab838",
			"compInitialIndex()": "a7f0e231",
			"compRate()": "aa900754",
			"compReceivable(address)": "85b7beb8",
			"compSpeeds(address)": "1d7b33d7",
			"compSupplierIndex(address,address)": "b21be7fd",
			"compSupplySpeeds(address)": "6aa875b5",
			"compSupplyState(address)": "6b79c38d",
			"comptrollerImplementation()": "bb82aa5e",
			"enterMarkets(address[])": "c2998238",
			"exitMarket(address)": "ede4edd0",
			"fixBadAccruals(address[],uint256[])": "16b95e8f",
			"getAccountLiquidity(address)": "5ec88c79",
			"getAllMarkets()": "b0772d0b",
			"getAssetsIn(address)": "abfceffc",
			"getBlockNumber()": "42cbb15c",
			"getCompAddress()": "9d1b5a0a",
			"getHypotheticalAccountLiquidity(address,address,uint256,uint256)": "4e79238f",
			"isComptroller()": "007e3dd2",
			"isDeprecated(address)": "94543c15",
			"lastContributorBlock(address)": "bea6b8b8",
			"liquidateBorrowAllowed(address,address,address,address,uint256)": "5fc7e71e",
			"liquidateBorrowVerify(address,address,address,address,uint256,uint256)": "47ef3b3b",
			"liquidateCalculateSeizeTokens(address,address,uint256)": "c488847b",
			"liquidationIncentiveMantissa()": "4ada90af",
			"markets(address)": "8e8f294b",
			"maxAssets()": "94b2294b",
			"mintAllowed(address,address,uint256)": "4ef4c3e1",
			"mintGuardianPaused(address)": "731f0c2b",
			"mintVerify(address,address,uint256,uint256)": "41c728b9",
			"oracle()": "7dc0d1d0",
			"pauseGuardian()": "24a3d622",
			"pendingAdmin()": "26782247",
			"pendingComptrollerImplementation()": "dcfbc0c7",
			"proposal65FixExecuted()": "f00a7a92",
			"redeemAllowed(address,address,uint256)": "eabe7d91",
			"redeemVerify(address,address,uint256,uint256)": "51dff989",
			"repayBorrowAllowed(address,address,address,uint256)": "24008a62",
			"repayBorrowVerify(address,address,address,uint256,uint256)": "1ededc91",
			"seizeAllowed(address,address,address,address,uint256)": "d02f7351",
			"seizeGuardianPaused()": "ac0b0bb7",
			"seizeVerify(address,address,address,address,uint256)": "6d35bf91",
			"transferAllowed(address,address,address,uint256)": "bdcdc258",
			"transferGuardianPaused()": "87f76303",
			"transferVerify(address,address,address,uint256)": "6a56947e",
			"updateContributorRewards(address)": "741b2525"
		}
	},
	"abi": [
		{
			"inputs": [],
			"stateMutability": "nonpayable",
			"type": "constructor"
		},
		{
			"anonymous": false,
			"inputs": [
				{
					"indexed": false,
					"internalType": "string",
					"name": "action",
					"type": "string"
				},
				{
					"indexed": false,
					"internalType": "bool",
					"name": "pauseState",
					"type": "bool"
				}
			],
			"name": "ActionPaused",
			"type": "event"
		},
		{
			"anonymous": false,
			"inputs": [
				{
					"indexed": false,
					"internalType": "contract CToken",
					"name": "cToken",
					"type": "address"
				},
				{
					"indexed": false,
					"internalType": "string",
					"name": "action",
					"type": "string"
				},
				{
					"indexed": false,
					"internalType": "bool",
					"name": "pauseState",
					"type": "bool"
				}
			],
			"name": "ActionPaused",
			"type": "event"
		},
		{
			"anonymous": false,
			"inputs": [
				{
					"indexed": true,
					"internalType": "address",
					"name": "cToken",
					"type": "address"
				},
				{
					"indexed": false,
					"internalType": "uint256",
					"name": "underlyingBalance",
					"type": "uint256"
				},
				{
					"indexed": false,
					"internalType": "uint256",
					"name": "totalSupply",
					"type": "uint256"
				}
			],
			"name": "AntiDonationCheckFailed",
			"type": "event"
		},
		{
			"anonymous": false,
			"inputs": [
				{
					"indexed": true,
					"internalType": "address",
					"name": "user",
					"type": "address"
				},
				{
					"indexed": false,
					"internalType": "uint256",
					"name": "oldCompAccrued",
					"type": "uint256"
				},
				{
					"indexed": false,
					"internalType": "uint256",
					"name": "newCompAccrued",
					"type": "uint256"
				}
			],
			"name": "CompAccruedAdjusted",
			"type": "event"
		},
		{
			"anonymous": false,
			"inputs": [
				{
					"indexed": true,
					"internalType": "contract CToken",
					"name": "cToken",
					"type": "address"
				},
				{
					"indexed": false,
					"internalType": "uint256",
					"name": "newSpeed",
					"type": "uint256"
				}
			],
			"name": "CompBorrowSpeedUpdated",
			"type": "event"
		},
		{
			"anonymous": false,
			"inputs": [
				{
					"indexed": false,
					"internalType": "address",
					"name": "recipient",
					"type": "address"
				},
				{
					"indexed": false,
					"internalType": "uint256",
					"name": "amount",
					"type": "uint256"
				}
			],
			"name": "CompGranted",
			"type": "event"
		},
		{
			"anonymous": false,
			"inputs": [
				{
					"indexed": true,
					"internalType": "address",
					"name": "user",
					"type": "address"
				},
				{
					"indexed": false,
					"internalType": "uint256",
					"name": "oldCompReceivable",
					"type": "uint256"
				},
				{
					"indexed": false,
					"internalType": "uint256",
					"name": "newCompReceivable",
					"type": "uint256"
				}
			],
			"name": "CompReceivableUpdated",
			"type": "event"
		},
		{
			"anonymous": false,
			"inputs": [
				{
					"indexed": true,
					"internalType": "contract CToken",
					"name": "cToken",
					"type": "address"
				},
				{
					"indexed": false,
					"internalType": "uint256",
					"name": "newSpeed",
					"type": "uint256"
				}
			],
			"name": "CompSupplySpeedUpdated",
			"type": "event"
		},
		{
			"anonymous": false,
			"inputs": [
				{
					"indexed": true,
					"internalType": "address",
					"name": "contributor",
					"type": "address"
				},
				{
					"indexed": false,
					"internalType": "uint256",
					"name": "newSpeed",
					"type": "uint256"
				}
			],
			"name": "ContributorCompSpeedUpdated",
			"type": "event"
		},
		{
			"anonymous": false,
			"inputs": [
				{
					"indexed": true,
					"internalType": "contract CToken",
					"name": "cToken",
					"type": "address"
				},
				{
					"indexed": true,
					"internalType": "address",
					"name": "borrower",
					"type": "address"
				},
				{
					"indexed": false,
					"internalType": "uint256",
					"name": "compDelta",
					"type": "uint256"
				},
				{
					"indexed": false,
					"internalType": "uint256",
					"name": "compBorrowIndex",
					"type": "uint256"
				}
			],
			"name": "DistributedBorrowerComp",
			"type": "event"
		},
		{
			"anonymous": false,
			"inputs": [
				{
					"indexed": true,
					"internalType": "contract CToken",
					"name": "cToken",
					"type": "address"
				},
				{
					"indexed": true,
					"internalType": "address",
					"name": "supplier",
					"type": "address"
				},
				{
					"indexed": false,
					"internalType": "uint256",
					"name": "compDelta",
					"type": "uint256"
				},
				{
					"indexed": false,
					"internalType": "uint256",
					"name": "compSupplyIndex",
					"type": "uint256"
				}
			],
			"name": "DistributedSupplierComp",
			"type": "event"
		},
		{
			"anonymous": false,
			"inputs": [
				{
					"indexed": false,
					"internalType": "uint256",
					"name": "error",
					"type": "uint256"
				},
				{
					"indexed": false,
					"internalType": "uint256",
					"name": "info",
					"type": "uint256"
				},
				{
					"indexed": false,
					"internalType": "uint256",
					"name": "detail",
					"type": "uint256"
				}
			],
			"name": "Failure",
			"type": "event"
		},
		{
			"anonymous": false,
			"inputs": [
				{
					"indexed": false,
					"internalType": "contract CToken",
					"name": "cToken",
					"type": "address"
				},
				{
					"indexed": false,
					"internalType": "address",
					"name": "account",
					"type": "address"
				}
			],
			"name": "MarketEntered",
			"type": "event"
		},
		{
			"anonymous": false,
			"inputs": [
				{
					"indexed": false,
					"internalType": "contract CToken",
					"name": "cToken",
					"type": "address"
				},
				{
					"indexed": false,
					"internalType": "address",
					"name": "account",
					"type": "address"
				}
			],
			"name": "MarketExited",
			"type": "event"
		},
		{
			"anonymous": false,
			"inputs": [
				{
					"indexed": false,
					"internalType": "contract CToken",
					"name": "cToken",
					"type": "address"
				}
			],
			"name": "MarketListed",
			"type": "event"
		},
		{
			"anonymous": false,
			"inputs": [
				{
					"indexed": true,
					"internalType": "contract CToken",
					"name": "cToken",
					"type": "address"
				},
				{
					"indexed": false,
					"internalType": "uint256",
					"name": "newBorrowCap",
					"type": "uint256"
				}
			],
			"name": "NewBorrowCap",
			"type": "event"
		},
		{
			"anonymous": false,
			"inputs": [
				{
					"indexed": false,
					"internalType": "address",
					"name": "oldBorrowCapGuardian",
					"type": "address"
				},
				{
					"indexed": false,
					"internalType": "address",
					"name": "newBorrowCapGuardian",
					"type": "address"
				}
			],
			"name": "NewBorrowCapGuardian",
			"type": "event"
		},
		{
			"anonymous": false,
			"inputs": [
				{
					"indexed": false,
					"internalType": "uint256",
					"name": "oldCloseFactorMantissa",
					"type": "uint256"
				},
				{
					"indexed": false,
					"internalType": "uint256",
					"name": "newCloseFactorMantissa",
					"type": "uint256"
				}
			],
			"name": "NewCloseFactor",
			"type": "event"
		},
		{
			"anonymous": false,
			"inputs": [
				{
					"indexed": false,
					"internalType": "contract CToken",
					"name": "cToken",
					"type": "address"
				},
				{
					"indexed": false,
					"internalType": "uint256",
					"name": "oldCollateralFactorMantissa",
					"type": "uint256"
				},
				{
					"indexed": false,
					"internalType": "uint256",
					"name": "newCollateralFactorMantissa",
					"type": "uint256"
				}
			],
			"name": "NewCollateralFactor",
			"type": "event"
		},
		{
			"anonymous": false,
			"inputs": [
				{
					"indexed": false,
					"internalType": "uint256",
					"name": "oldLiquidationIncentiveMantissa",
					"type": "uint256"
				},
				{
					"indexed": false,
					"internalType": "uint256",
					"name": "newLiquidationIncentiveMantissa",
					"type": "uint256"
				}
			],
			"name": "NewLiquidationIncentive",
			"type": "event"
		},
		{
			"anonymous": false,
			"inputs": [
				{
					"indexed": false,
					"internalType": "address",
					"name": "oldPauseGuardian",
					"type": "address"
				},
				{
					"indexed": false,
					"internalType": "address",
					"name": "newPauseGuardian",
					"type": "address"
				}
			],
			"name": "NewPauseGuardian",
			"type": "event"
		},
		{
			"anonymous": false,
			"inputs": [
				{
					"indexed": false,
					"internalType": "contract PriceOracle",
					"name": "oldPriceOracle",
					"type": "address"
				},
				{
					"indexed": false,
					"internalType": "contract PriceOracle",
					"name": "newPriceOracle",
					"type": "address"
				}
			],
			"name": "NewPriceOracle",
			"type": "event"
		},
		{
			"inputs": [
				{
					"internalType": "contract Unitroller",
					"name": "unitroller",
					"type": "address"
				}
			],
			"name": "_become",
			"outputs": [],
			"stateMutability": "nonpayable",
			"type": "function"
		},
		{
			"inputs": [],
			"name": "_borrowGuardianPaused",
			"outputs": [
				{
					"internalType": "bool",
					"name": "",
					"type": "bool"
				}
			],
			"stateMutability": "view",
			"type": "function"
		},
		{
			"inputs": [
				{
					"internalType": "address",
					"name": "recipient",
					"type": "address"
				},
				{
					"internalType": "uint256",
					"name": "amount",
					"type": "uint256"
				}
			],
			"name": "_grantComp",
			"outputs": [],
			"stateMutability": "nonpayable",
			"type": "function"
		},
		{
			"inputs": [],
			"name": "_mintGuardianPaused",
			"outputs": [
				{
					"internalType": "bool",
					"name": "",
					"type": "bool"
				}
			],
			"stateMutability": "view",
			"type": "function"
		},
		{
			"inputs": [
				{
					"internalType": "address",
					"name": "newBorrowCapGuardian",
					"type": "address"
				}
			],
			"name": "_setBorrowCapGuardian",
			"outputs": [],
			"stateMutability": "nonpayable",
			"type": "function"
		},
		{
			"inputs": [
				{
					"internalType": "contract CToken",
					"name": "cToken",
					"type": "address"
				},
				{
					"internalType": "bool",
					"name": "state",
					"type": "bool"
				}
			],
			"name": "_setBorrowPaused",
			"outputs": [
				{
					"internalType": "bool",
					"name": "",
					"type": "bool"
				}
			],
			"stateMutability": "nonpayable",
			"type": "function"
		},
		{
			"inputs": [
				{
					"internalType": "uint256",
					"name": "newCloseFactorMantissa",
					"type": "uint256"
				}
			],
			"name": "_setCloseFactor",
			"outputs": [
				{
					"internalType": "uint256",
					"name": "",
					"type": "uint256"
				}
			],
			"stateMutability": "nonpayable",
			"type": "function"
		},
		{
			"inputs": [
				{
					"internalType": "contract CToken",
					"name": "cToken",
					"type": "address"
				},
				{
					"internalType": "uint256",
					"name": "newCollateralFactorMantissa",
					"type": "uint256"
				}
			],
			"name": "_setCollateralFactor",
			"outputs": [
				{
					"internalType": "uint256",
					"name": "",
					"type": "uint256"
				}
			],
			"stateMutability": "nonpayable",
			"type": "function"
		},
		{
			"inputs": [
				{
					"internalType": "contract CToken[]",
					"name": "cTokens",
					"type": "address[]"
				},
				{
					"internalType": "uint256[]",
					"name": "supplySpeeds",
					"type": "uint256[]"
				},
				{
					"internalType": "uint256[]",
					"name": "borrowSpeeds",
					"type": "uint256[]"
				}
			],
			"name": "_setCompSpeeds",
			"outputs": [],
			"stateMutability": "nonpayable",
			"type": "function"
		},
		{
			"inputs": [
				{
					"internalType": "address",
					"name": "contributor",
					"type": "address"
				},
				{
					"internalType": "uint256",
					"name": "compSpeed",
					"type": "uint256"
				}
			],
			"name": "_setContributorCompSpeed",
			"outputs": [],
			"stateMutability": "nonpayable",
			"type": "function"
		},
		{
			"inputs": [
				{
					"internalType": "uint256",
					"name": "newLiquidationIncentiveMantissa",
					"type": "uint256"
				}
			],
			"name": "_setLiquidationIncentive",
			"outputs": [
				{
					"internalType": "uint256",
					"name": "",
					"type": "uint256"
				}
			],
			"stateMutability": "nonpayable",
			"type": "function"
		},
		{
			"inputs": [
				{
					"internalType": "contract CToken[]",
					"name": "cTokens",
					"type": "address[]"
				},
				{
					"internalType": "uint256[]",
					"name": "newBorrowCaps",
					"type": "uint256[]"
				}
			],
			"name": "_setMarketBorrowCaps",
			"outputs": [],
			"stateMutability": "nonpayable",
			"type": "function"
		},
		{
			"inputs": [
				{
					"internalType": "contract CToken",
					"name": "cToken",
					"type": "address"
				},
				{
					"internalType": "bool",
					"name": "state",
					"type": "bool"
				}
			],
			"name": "_setMintPaused",
			"outputs": [
				{
					"internalType": "bool",
					"name": "",
					"type": "bool"
				}
			],
			"stateMutability": "nonpayable",
			"type": "function"
		},
		{
			"inputs": [
				{
					"internalType": "address",
					"name": "newPauseGuardian",
					"type": "address"
				}
			],
			"name": "_setPauseGuardian",
			"outputs": [
				{
					"internalType": "uint256",
					"name": "",
					"type": "uint256"
				}
			],
			"stateMutability": "nonpayable",
			"type": "function"
		},
		{
			"inputs": [
				{
					"internalType": "contract PriceOracle",
					"name": "newOracle",
					"type": "address"
				}
			],
			"name": "_setPriceOracle",
			"outputs": [
				{
					"internalType": "uint256",
					"name": "",
					"type": "uint256"
				}
			],
			"stateMutability": "nonpayable",
			"type": "function"
		},
		{
			"inputs": [
				{
					"internalType": "bool",
					"name": "state",
					"type": "bool"
				}
			],
			"name": "_setSeizePaused",
			"outputs": [
				{
					"internalType": "bool",
					"name": "",
					"type": "bool"
				}
			],
			"stateMutability": "nonpayable",
			"type": "function"
		},
		{
			"inputs": [
				{
					"internalType": "bool",
					"name": "state",
					"type": "bool"
				}
			],
			"name": "_setTransferPaused",
			"outputs": [
				{
					"internalType": "bool",
					"name": "",
					"type": "bool"
				}
			],
			"stateMutability": "nonpayable",
			"type": "function"
		},
		{
			"inputs": [
				{
					"internalType": "contract CToken",
					"name": "cToken",
					"type": "address"
				}
			],
			"name": "_supportMarket",
			"outputs": [
				{
					"internalType": "uint256",
					"name": "",
					"type": "uint256"
				}
			],
			"stateMutability": "nonpayable",
			"type": "function"
		},
		{
			"inputs": [
				{
					"internalType": "address",
					"name": "",
					"type": "address"
				},
				{
					"internalType": "uint256",
					"name": "",
					"type": "uint256"
				}
			],
			"name": "accountAssets",
			"outputs": [
				{
					"internalType": "contract CToken",
					"name": "",
					"type": "address"
				}
			],
			"stateMutability": "view",
			"type": "function"
		},
		{
			"inputs": [],
			"name": "admin",
			"outputs": [
				{
					"internalType": "address",
					"name": "",
					"type": "address"
				}
			],
			"stateMutability": "view",
			"type": "function"
		},
		{
			"inputs": [
				{
					"internalType": "uint256",
					"name": "",
					"type": "uint256"
				}
			],
			"name": "allMarkets",
			"outputs": [
				{
					"internalType": "contract CToken",
					"name": "",
					"type": "address"
				}
			],
			"stateMutability": "view",
			"type": "function"
		},
		{
			"inputs": [
				{
					"internalType": "address",
					"name": "cToken",
					"type": "address"
				},
				{
					"internalType": "address",
					"name": "borrower",
					"type": "address"
				},
				{
					"internalType": "uint256",
					"name": "borrowAmount",
					"type": "uint256"
				}
			],
			"name": "borrowAllowed",
			"outputs": [
				{
					"internalType": "uint256",
					"name": "",
					"type": "uint256"
				}
			],
			"stateMutability": "nonpayable",
			"type": "function"
		},
		{
			"inputs": [],
			"name": "borrowCapGuardian",
			"outputs": [
				{
					"internalType": "address",
					"name": "",
					"type": "address"
				}
			],
			"stateMutability": "view",
			"type": "function"
		},
		{
			"inputs": [
				{
					"internalType": "address",
					"name": "",
					"type": "address"
				}
			],
			"name": "borrowCaps",
			"outputs": [
				{
					"internalType": "uint256",
					"name": "",
					"type": "uint256"
				}
			],
			"stateMutability": "view",
			"type": "function"
		},
		{
			"inputs": [
				{
					"internalType": "address",
					"name": "",
					"type": "address"
				}
			],
			"name": "borrowGuardianPaused",
			"outputs": [
				{
					"internalType": "bool",
					"name": "",
					"type": "bool"
				}
			],
			"stateMutability": "view",
			"type": "function"
		},
		{
			"inputs": [
				{
					"internalType": "address",
					"name": "cToken",
					"type": "address"
				},
				{
					"internalType": "address",
					"name": "borrower",
					"type": "address"
				},
				{
					"internalType": "uint256",
					"name": "borrowAmount",
					"type": "uint256"
				}
			],
			"name": "borrowVerify",
			"outputs": [],
			"stateMutability": "nonpayable",
			"type": "function"
		},
		{
			"inputs": [
				{
					"internalType": "address",
					"name": "account",
					"type": "address"
				},
				{
					"internalType": "contract CToken",
					"name": "cToken",
					"type": "address"
				}
			],
			"name": "checkMembership",
			"outputs": [
				{
					"internalType": "bool",
					"name": "",
					"type": "bool"
				}
			],
			"stateMutability": "view",
			"type": "function"
		},
		{
			"inputs": [
				{
					"internalType": "address",
					"name": "holder",
					"type": "address"
				},
				{
					"internalType": "contract CToken[]",
					"name": "cTokens",
					"type": "address[]"
				}
			],
			"name": "claimComp",
			"outputs": [],
			"stateMutability": "nonpayable",
			"type": "function"
		},
		{
			"inputs": [
				{
					"internalType": "address[]",
					"name": "holders",
					"type": "address[]"
				},
				{
					"internalType": "contract CToken[]",
					"name": "cTokens",
					"type": "address[]"
				},
				{
					"internalType": "bool",
					"name": "borrowers",
					"type": "bool"
				},
				{
					"internalType": "bool",
					"name": "suppliers",
					"type": "bool"
				}
			],
			"name": "claimComp",
			"outputs": [],
			"stateMutability": "nonpayable",
			"type": "function"
		},
		{
			"inputs": [
				{
					"internalType": "address",
					"name": "holder",
					"type": "address"
				}
			],
			"name": "claimComp",
			"outputs": [],
			"stateMutability": "nonpayable",
			"type": "function"
		},
		{
			"inputs": [],
			"name": "closeFactorMantissa",
			"outputs": [
				{
					"internalType": "uint256",
					"name": "",
					"type": "uint256"
				}
			],
			"stateMutability": "view",
			"type": "function"
		},
		{
			"inputs": [
				{
					"internalType": "address",
					"name": "",
					"type": "address"
				}
			],
			"name": "compAccrued",
			"outputs": [
				{
					"internalType": "uint256",
					"name": "",
					"type": "uint256"
				}
			],
			"stateMutability": "view",
			"type": "function"
		},
		{
			"inputs": [
				{
					"internalType": "address",
					"name": "",
					"type": "address"
				}
			],
			"name": "compBorrowSpeeds",
			"outputs": [
				{
					"internalType": "uint256",
					"name": "",
					"type": "uint256"
				}
			],
			"stateMutability": "view",
			"type": "function"
		},
		{
			"inputs": [
				{
					"internalType": "address",
					"name": "",
					"type": "address"
				}
			],
			"name": "compBorrowState",
			"outputs": [
				{
					"internalType": "uint224",
					"name": "index",
					"type": "uint224"
				},
				{
					"internalType": "uint32",
					"name": "block",
					"type": "uint32"
				}
			],
			"stateMutability": "view",
			"type": "function"
		},
		{
			"inputs": [
				{
					"internalType": "address",
					"name": "",
					"type": "address"
				},
				{
					"internalType": "address",
					"name": "",
					"type": "address"
				}
			],
			"name": "compBorrowerIndex",
			"outputs": [
				{
					"internalType": "uint256",
					"name": "",
					"type": "uint256"
				}
			],
			"stateMutability": "view",
			"type": "function"
		},
		{
			"inputs": [
				{
					"internalType": "address",
					"name": "",
					"type": "address"
				}
			],
			"name": "compContributorSpeeds",
			"outputs": [
				{
					"internalType": "uint256",
					"name": "",
					"type": "uint256"
				}
			],
			"stateMutability": "view",
			"type": "function"
		},
		{
			"inputs": [],
			"name": "compInitialIndex",
			"outputs": [
				{
					"internalType": "uint224",
					"name": "",
					"type": "uint224"
				}
			],
			"stateMutability": "view",
			"type": "function"
		},
		{
			"inputs": [],
			"name": "compRate",
			"outputs": [
				{
					"internalType": "uint256",
					"name": "",
					"type": "uint256"
				}
			],
			"stateMutability": "view",
			"type": "function"
		},
		{
			"inputs": [
				{
					"internalType": "address",
					"name": "",
					"type": "address"
				}
			],
			"name": "compReceivable",
			"outputs": [
				{
					"internalType": "uint256",
					"name": "",
					"type": "uint256"
				}
			],
			"stateMutability": "view",
			"type": "function"
		},
		{
			"inputs": [
				{
					"internalType": "address",
					"name": "",
					"type": "address"
				}
			],
			"name": "compSpeeds",
			"outputs": [
				{
					"internalType": "uint256",
					"name": "",
					"type": "uint256"
				}
			],
			"stateMutability": "view",
			"type": "function"
		},
		{
			"inputs": [
				{
					"internalType": "address",
					"name": "",
					"type": "address"
				},
				{
					"internalType": "address",
					"name": "",
					"type": "address"
				}
			],
			"name": "compSupplierIndex",
			"outputs": [
				{
					"internalType": "uint256",
					"name": "",
					"type": "uint256"
				}
			],
			"stateMutability": "view",
			"type": "function"
		},
		{
			"inputs": [
				{
					"internalType": "address",
					"name": "",
					"type": "address"
				}
			],
			"name": "compSupplySpeeds",
			"outputs": [
				{
					"internalType": "uint256",
					"name": "",
					"type": "uint256"
				}
			],
			"stateMutability": "view",
			"type": "function"
		},
		{
			"inputs": [
				{
					"internalType": "address",
					"name": "",
					"type": "address"
				}
			],
			"name": "compSupplyState",
			"outputs": [
				{
					"internalType": "uint224",
					"name": "index",
					"type": "uint224"
				},
				{
					"internalType": "uint32",
					"name": "block",
					"type": "uint32"
				}
			],
			"stateMutability": "view",
			"type": "function"
		},
		{
			"inputs": [],
			"name": "comptrollerImplementation",
			"outputs": [
				{
					"internalType": "address",
					"name": "",
					"type": "address"
				}
			],
			"stateMutability": "view",
			"type": "function"
		},
		{
			"inputs": [
				{
					"internalType": "address[]",
					"name": "cTokens",
					"type": "address[]"
				}
			],
			"name": "enterMarkets",
			"outputs": [
				{
					"internalType": "uint256[]",
					"name": "",
					"type": "uint256[]"
				}
			],
			"stateMutability": "nonpayable",
			"type": "function"
		},
		{
			"inputs": [
				{
					"internalType": "address",
					"name": "cTokenAddress",
					"type": "address"
				}
			],
			"name": "exitMarket",
			"outputs": [
				{
					"internalType": "uint256",
					"name": "",
					"type": "uint256"
				}
			],
			"stateMutability": "nonpayable",
			"type": "function"
		},
		{
			"inputs": [
				{
					"internalType": "address[]",
					"name": "affectedUsers",
					"type": "address[]"
				},
				{
					"internalType": "uint256[]",
					"name": "amounts",
					"type": "uint256[]"
				}
			],
			"name": "fixBadAccruals",
			"outputs": [],
			"stateMutability": "nonpayable",
			"type": "function"
		},
		{
			"inputs": [
				{
					"internalType": "address",
					"name": "account",
					"type": "address"
				}
			],
			"name": "getAccountLiquidity",
			"outputs": [
				{
					"internalType": "uint256",
					"name": "",
					"type": "uint256"
				},
				{
					"internalType": "uint256",
					"name": "",
					"type": "uint256"
				},
				{
					"internalType": "uint256",
					"name": "",
					"type": "uint256"
				}
			],
			"stateMutability": "view",
			"type": "function"
		},
		{
			"inputs": [],
			"name": "getAllMarkets",
			"outputs": [
				{
					"internalType": "contract CToken[]",
					"name": "",
					"type": "address[]"
				}
			],
			"stateMutability": "view",
			"type": "function"
		},
		{
			"inputs": [
				{
					"internalType": "address",
					"name": "account",
					"type": "address"
				}
			],
			"name": "getAssetsIn",
			"outputs": [
				{
					"internalType": "contract CToken[]",
					"name": "",
					"type": "address[]"
				}
			],
			"stateMutability": "view",
			"type": "function"
		},
		{
			"inputs": [],
			"name": "getBlockNumber",
			"outputs": [
				{
					"internalType": "uint256",
					"name": "",
					"type": "uint256"
				}
			],
			"stateMutability": "view",
			"type": "function"
		},
		{
			"inputs": [],
			"name": "getCompAddress",
			"outputs": [
				{
					"internalType": "address",
					"name": "",
					"type": "address"
				}
			],
			"stateMutability": "view",
			"type": "function"
		},
		{
			"inputs": [
				{
					"internalType": "address",
					"name": "account",
					"type": "address"
				},
				{
					"internalType": "address",
					"name": "cTokenModify",
					"type": "address"
				},
				{
					"internalType": "uint256",
					"name": "redeemTokens",
					"type": "uint256"
				},
				{
					"internalType": "uint256",
					"name": "borrowAmount",
					"type": "uint256"
				}
			],
			"name": "getHypotheticalAccountLiquidity",
			"outputs": [
				{
					"internalType": "uint256",
					"name": "",
					"type": "uint256"
				},
				{
					"internalType": "uint256",
					"name": "",
					"type": "uint256"
				},
				{
					"internalType": "uint256",
					"name": "",
					"type": "uint256"
				}
			],
			"stateMutability": "view",
			"type": "function"
		},
		{
			"inputs": [],
			"name": "isComptroller",
			"outputs": [
				{
					"internalType": "bool",
					"name": "",
					"type": "bool"
				}
			],
			"stateMutability": "view",
			"type": "function"
		},
		{
			"inputs": [
				{
					"internalType": "contract CToken",
					"name": "cToken",
					"type": "address"
				}
			],
			"name": "isDeprecated",
			"outputs": [
				{
					"internalType": "bool",
					"name": "",
					"type": "bool"
				}
			],
			"stateMutability": "view",
			"type": "function"
		},
		{
			"inputs": [
				{
					"internalType": "address",
					"name": "",
					"type": "address"
				}
			],
			"name": "lastContributorBlock",
			"outputs": [
				{
					"internalType": "uint256",
					"name": "",
					"type": "uint256"
				}
			],
			"stateMutability": "view",
			"type": "function"
		},
		{
			"inputs": [
				{
					"internalType": "address",
					"name": "cTokenBorrowed",
					"type": "address"
				},
				{
					"internalType": "address",
					"name": "cTokenCollateral",
					"type": "address"
				},
				{
					"internalType": "address",
					"name": "liquidator",
					"type": "address"
				},
				{
					"internalType": "address",
					"name": "borrower",
					"type": "address"
				},
				{
					"internalType": "uint256",
					"name": "repayAmount",
					"type": "uint256"
				}
			],
			"name": "liquidateBorrowAllowed",
			"outputs": [
				{
					"internalType": "uint256",
					"name": "",
					"type": "uint256"
				}
			],
			"stateMutability": "nonpayable",
			"type": "function"
		},
		{
			"inputs": [
				{
					"internalType": "address",
					"name": "cTokenBorrowed",
					"type": "address"
				},
				{
					"internalType": "address",
					"name": "cTokenCollateral",
					"type": "address"
				},
				{
					"internalType": "address",
					"name": "liquidator",
					"type": "address"
				},
				{
					"internalType": "address",
					"name": "borrower",
					"type": "address"
				},
				{
					"internalType": "uint256",
					"name": "actualRepayAmount",
					"type": "uint256"
				},
				{
					"internalType": "uint256",
					"name": "seizeTokens",
					"type": "uint256"
				}
			],
			"name": "liquidateBorrowVerify",
			"outputs": [],
			"stateMutability": "nonpayable",
			"type": "function"
		},
		{
			"inputs": [
				{
					"internalType": "address",
					"name": "cTokenBorrowed",
					"type": "address"
				},
				{
					"internalType": "address",
					"name": "cTokenCollateral",
					"type": "address"
				},
				{
					"internalType": "uint256",
					"name": "actualRepayAmount",
					"type": "uint256"
				}
			],
			"name": "liquidateCalculateSeizeTokens",
			"outputs": [
				{
					"internalType": "uint256",
					"name": "",
					"type": "uint256"
				},
				{
					"internalType": "uint256",
					"name": "",
					"type": "uint256"
				}
			],
			"stateMutability": "view",
			"type": "function"
		},
		{
			"inputs": [],
			"name": "liquidationIncentiveMantissa",
			"outputs": [
				{
					"internalType": "uint256",
					"name": "",
					"type": "uint256"
				}
			],
			"stateMutability": "view",
			"type": "function"
		},
		{
			"inputs": [
				{
					"internalType": "address",
					"name": "",
					"type": "address"
				}
			],
			"name": "markets",
			"outputs": [
				{
					"internalType": "bool",
					"name": "isListed",
					"type": "bool"
				},
				{
					"internalType": "uint256",
					"name": "collateralFactorMantissa",
					"type": "uint256"
				},
				{
					"internalType": "bool",
					"name": "isComped",
					"type": "bool"
				}
			],
			"stateMutability": "view",
			"type": "function"
		},
		{
			"inputs": [],
			"name": "maxAssets",
			"outputs": [
				{
					"internalType": "uint256",
					"name": "",
					"type": "uint256"
				}
			],
			"stateMutability": "view",
			"type": "function"
		},
		{
			"inputs": [
				{
					"internalType": "address",
					"name": "cToken",
					"type": "address"
				},
				{
					"internalType": "address",
					"name": "minter",
					"type": "address"
				},
				{
					"internalType": "uint256",
					"name": "mintAmount",
					"type": "uint256"
				}
			],
			"name": "mintAllowed",
			"outputs": [
				{
					"internalType": "uint256",
					"name": "",
					"type": "uint256"
				}
			],
			"stateMutability": "nonpayable",
			"type": "function"
		},
		{
			"inputs": [
				{
					"internalType": "address",
					"name": "",
					"type": "address"
				}
			],
			"name": "mintGuardianPaused",
			"outputs": [
				{
					"internalType": "bool",
					"name": "",
					"type": "bool"
				}
			],
			"stateMutability": "view",
			"type": "function"
		},
		{
			"inputs": [
				{
					"internalType": "address",
					"name": "cToken",
					"type": "address"
				},
				{
					"internalType": "address",
					"name": "minter",
					"type": "address"
				},
				{
					"internalType": "uint256",
					"name": "actualMintAmount",
					"type": "uint256"
				},
				{
					"internalType": "uint256",
					"name": "mintTokens",
					"type": "uint256"
				}
			],
			"name": "mintVerify",
			"outputs": [],
			"stateMutability": "nonpayable",
			"type": "function"
		},
		{
			"inputs": [],
			"name": "oracle",
			"outputs": [
				{
					"internalType": "contract PriceOracle",
					"name": "",
					"type": "address"
				}
			],
			"stateMutability": "view",
			"type": "function"
		},
		{
			"inputs": [],
			"name": "pauseGuardian",
			"outputs": [
				{
					"internalType": "address",
					"name": "",
					"type": "address"
				}
			],
			"stateMutability": "view",
			"type": "function"
		},
		{
			"inputs": [],
			"name": "pendingAdmin",
			"outputs": [
				{
					"internalType": "address",
					"name": "",
					"type": "address"
				}
			],
			"stateMutability": "view",
			"type": "function"
		},
		{
			"inputs": [],
			"name": "pendingComptrollerImplementation",
			"outputs": [
				{
					"internalType": "address",
					"name": "",
					"type": "address"
				}
			],
			"stateMutability": "view",
			"type": "function"
		},
		{
			"inputs": [],
			"name": "proposal65FixExecuted",
			"outputs": [
				{
					"internalType": "bool",
					"name": "",
					"type": "bool"
				}
			],
			"stateMutability": "view",
			"type": "function"
		},
		{
			"inputs": [
				{
					"internalType": "address",
					"name": "cToken",
					"type": "address"
				},
				{
					"internalType": "address",
					"name": "redeemer",
					"type": "address"
				},
				{
					"internalType": "uint256",
					"name": "redeemTokens",
					"type": "uint256"
				}
			],
			"name": "redeemAllowed",
			"outputs": [
				{
					"internalType": "uint256",
					"name": "",
					"type": "uint256"
				}
			],
			"stateMutability": "nonpayable",
			"type": "function"
		},
		{
			"inputs": [
				{
					"internalType": "address",
					"name": "cToken",
					"type": "address"
				},
				{
					"internalType": "address",
					"name": "redeemer",
					"type": "address"
				},
				{
					"internalType": "uint256",
					"name": "redeemAmount",
					"type": "uint256"
				},
				{
					"internalType": "uint256",
					"name": "redeemTokens",
					"type": "uint256"
				}
			],
			"name": "redeemVerify",
			"outputs": [],
			"stateMutability": "nonpayable",
			"type": "function"
		},
		{
			"inputs": [
				{
					"internalType": "address",
					"name": "cToken",
					"type": "address"
				},
				{
					"internalType": "address",
					"name": "payer",
					"type": "address"
				},
				{
					"internalType": "address",
					"name": "borrower",
					"type": "address"
				},
				{
					"internalType": "uint256",
					"name": "repayAmount",
					"type": "uint256"
				}
			],
			"name": "repayBorrowAllowed",
			"outputs": [
				{
					"internalType": "uint256",
					"name": "",
					"type": "uint256"
				}
			],
			"stateMutability": "nonpayable",
			"type": "function"
		},
		{
			"inputs": [
				{
					"internalType": "address",
					"name": "cToken",
					"type": "address"
				},
				{
					"internalType": "address",
					"name": "payer",
					"type": "address"
				},
				{
					"internalType": "address",
					"name": "borrower",
					"type": "address"
				},
				{
					"internalType": "uint256",
					"name": "actualRepayAmount",
					"type": "uint256"
				},
				{
					"internalType": "uint256",
					"name": "borrowerIndex",
					"type": "uint256"
				}
			],
			"name": "repayBorrowVerify",
			"outputs": [],
			"stateMutability": "nonpayable",
			"type": "function"
		},
		{
			"inputs": [
				{
					"internalType": "address",
					"name": "cTokenCollateral",
					"type": "address"
				},
				{
					"internalType": "address",
					"name": "cTokenBorrowed",
					"type": "address"
				},
				{
					"internalType": "address",
					"name": "liquidator",
					"type": "address"
				},
				{
					"internalType": "address",
					"name": "borrower",
					"type": "address"
				},
				{
					"internalType": "uint256",
					"name": "seizeTokens",
					"type": "uint256"
				}
			],
			"name": "seizeAllowed",
			"outputs": [
				{
					"internalType": "uint256",
					"name": "",
					"type": "uint256"
				}
			],
			"stateMutability": "nonpayable",
			"type": "function"
		},
		{
			"inputs": [],
			"name": "seizeGuardianPaused",
			"outputs": [
				{
					"internalType": "bool",
					"name": "",
					"type": "bool"
				}
			],
			"stateMutability": "view",
			"type": "function"
		},
		{
			"inputs": [
				{
					"internalType": "address",
					"name": "cTokenCollateral",
					"type": "address"
				},
				{
					"internalType": "address",
					"name": "cTokenBorrowed",
					"type": "address"
				},
				{
					"internalType": "address",
					"name": "liquidator",
					"type": "address"
				},
				{
					"internalType": "address",
					"name": "borrower",
					"type": "address"
				},
				{
					"internalType": "uint256",
					"name": "seizeTokens",
					"type": "uint256"
				}
			],
			"name": "seizeVerify",
			"outputs": [],
			"stateMutability": "nonpayable",
			"type": "function"
		},
		{
			"inputs": [
				{
					"internalType": "address",
					"name": "cToken",
					"type": "address"
				},
				{
					"internalType": "address",
					"name": "src",
					"type": "address"
				},
				{
					"internalType": "address",
					"name": "dst",
					"type": "address"
				},
				{
					"internalType": "uint256",
					"name": "transferTokens",
					"type": "uint256"
				}
			],
			"name": "transferAllowed",
			"outputs": [
				{
					"internalType": "uint256",
					"name": "",
					"type": "uint256"
				}
			],
			"stateMutability": "nonpayable",
			"type": "function"
		},
		{
			"inputs": [],
			"name": "transferGuardianPaused",
			"outputs": [
				{
					"internalType": "bool",
					"name": "",
					"type": "bool"
				}
			],
			"stateMutability": "view",
			"type": "function"
		},
		{
			"inputs": [
				{
					"internalType": "address",
					"name": "cToken",
					"type": "address"
				},
				{
					"internalType": "address",
					"name": "src",
					"type": "address"
				},
				{
					"internalType": "address",
					"name": "dst",
					"type": "address"
				},
				{
					"internalType": "uint256",
					"name": "transferTokens",
					"type": "uint256"
				}
			],
			"name": "transferVerify",
			"outputs": [],
			"stateMutability": "nonpayable",
			"type": "function"
		},
		{
			"inputs": [
				{
					"internalType": "address",
					"name": "contributor",
					"type": "address"
				}
			],
			"name": "updateContributorRewards",
			"outputs": [],
			"stateMutability": "nonpayable",
			"type": "function"
		}
	]
}