{
  "_format": "hh-sol-artifact-1",
  "contractName": "Comptroller",
  "sourceName": "contracts/libraries/comptroller/Comptroller.sol",
  "abi": [
    {
      "inputs": [],
      "stateMutability": "nonpayable",
      "type": "constructor"
    },
    {
      "anonymous": false,
      "inputs": [
        {
          "indexed": false,
          "internalType": "string",
          "name": "action",
          "type": "string"
        },
        {
          "indexed": false,
          "internalType": "bool",
          "name": "pauseState",
          "type": "bool"
        }
      ],
      "name": "ActionPaused",
      "type": "event"
    },
    {
      "anonymous": false,
      "inputs": [
        {
          "indexed": false,
          "internalType": "contract CToken",
          "name": "cToken",
          "type": "address"
        },
        {
          "indexed": false,
          "internalType": "string",
          "name": "action",
          "type": "string"
        },
        {
          "indexed": false,
          "internalType": "bool",
          "name": "pauseState",
          "type": "bool"
        }
      ],
      "name": "ActionPaused",
      "type": "event"
    },
    {
      "anonymous": false,
      "inputs": [
        {
          "indexed": true,
          "internalType": "address",
          "name": "cToken",
          "type": "address"
        },
        {
          "indexed": false,
          "internalType": "uint256",
          "name": "underlyingBalance",
          "type": "uint256"
        },
        {
          "indexed": false,
          "internalType": "uint256",
          "name": "totalSupply",
          "type": "uint256"
        }
      ],
      "name": "AntiDonationCheckFailed",
      "type": "event"
    },
    {
      "anonymous": false,
      "inputs": [
        {
          "indexed": true,
          "internalType": "address",
          "name": "user",
          "type": "address"
        },
        {
          "indexed": false,
          "internalType": "uint256",
          "name": "oldCompAccrued",
          "type": "uint256"
        },
        {
          "indexed": false,
          "internalType": "uint256",
          "name": "newCompAccrued",
          "type": "uint256"
        }
      ],
      "name": "CompAccruedAdjusted",
      "type": "event"
    },
    {
      "anonymous": false,
      "inputs": [
        {
          "indexed": true,
          "internalType": "contract CToken",
          "name": "cToken",
          "type": "address"
        },
        {
          "indexed": false,
          "internalType": "uint256",
          "name": "newSpeed",
          "type": "uint256"
        }
      ],
      "name": "CompBorrowSpeedUpdated",
      "type": "event"
    },
    {
      "anonymous": false,
      "inputs": [
        {
          "indexed": false,
          "internalType": "address",
          "name": "recipient",
          "type": "address"
        },
        {
          "indexed": false,
          "internalType": "uint256",
          "name": "amount",
          "type": "uint256"
        }
      ],
      "name": "CompGranted",
      "type": "event"
    },
    {
      "anonymous": false,
      "inputs": [
        {
          "indexed": true,
          "internalType": "address",
          "name": "user",
          "type": "address"
        },
        {
          "indexed": false,
          "internalType": "uint256",
          "name": "oldCompReceivable",
          "type": "uint256"
        },
        {
          "indexed": false,
          "internalType": "uint256",
          "name": "newCompReceivable",
          "type": "uint256"
        }
      ],
      "name": "CompReceivableUpdated",
      "type": "event"
    },
    {
      "anonymous": false,
      "inputs": [
        {
          "indexed": true,
          "internalType": "contract CToken",
          "name": "cToken",
          "type": "address"
        },
        {
          "indexed": false,
          "internalType": "uint256",
          "name": "newSpeed",
          "type": "uint256"
        }
      ],
      "name": "CompSupplySpeedUpdated",
      "type": "event"
    },
    {
      "anonymous": false,
      "inputs": [
        {
          "indexed": true,
          "internalType": "address",
          "name": "contributor",
          "type": "address"
        },
        {
          "indexed": false,
          "internalType": "uint256",
          "name": "newSpeed",
          "type": "uint256"
        }
      ],
      "name": "ContributorCompSpeedUpdated",
      "type": "event"
    },
    {
      "anonymous": false,
      "inputs": [
        {
          "indexed": true,
          "internalType": "contract CToken",
          "name": "cToken",
          "type": "address"
        },
        {
          "indexed": true,
          "internalType": "address",
          "name": "borrower",
          "type": "address"
        },
        {
          "indexed": false,
          "internalType": "uint256",
          "name": "compDelta",
          "type": "uint256"
        },
        {
          "indexed": false,
          "internalType": "uint256",
          "name": "compBorrowIndex",
          "type": "uint256"
        }
      ],
      "name": "DistributedBorrowerComp",
      "type": "event"
    },
    {
      "anonymous": false,
      "inputs": [
        {
          "indexed": true,
          "internalType": "contract CToken",
          "name": "cToken",
          "type": "address"
        },
        {
          "indexed": true,
          "internalType": "address",
          "name": "supplier",
          "type": "address"
        },
        {
          "indexed": false,
          "internalType": "uint256",
          "name": "compDelta",
          "type": "uint256"
        },
        {
          "indexed": false,
          "internalType": "uint256",
          "name": "compSupplyIndex",
          "type": "uint256"
        }
      ],
      "name": "DistributedSupplierComp",
      "type": "event"
    },
    {
      "anonymous": false,
      "inputs": [
        {
          "indexed": false,
          "internalType": "uint256",
          "name": "error",
          "type": "uint256"
        },
        {
          "indexed": false,
          "internalType": "uint256",
          "name": "info",
          "type": "uint256"
        },
        {
          "indexed": false,
          "internalType": "uint256",
          "name": "detail",
          "type": "uint256"
        }
      ],
      "name": "Failure",
      "type": "event"
    },
    {
      "anonymous": false,
      "inputs": [
        {
          "indexed": false,
          "internalType": "contract CToken",
          "name": "cToken",
          "type": "address"
        },
        {
          "indexed": false,
          "internalType": "address",
          "name": "account",
          "type": "address"
        }
      ],
      "name": "MarketEntered",
      "type": "event"
    },
    {
      "anonymous": false,
      "inputs": [
        {
          "indexed": false,
          "internalType": "contract CToken",
          "name": "cToken",
          "type": "address"
        },
        {
          "indexed": false,
          "internalType": "address",
          "name": "account",
          "type": "address"
        }
      ],
      "name": "MarketExited",
      "type": "event"
    },
    {
      "anonymous": false,
      "inputs": [
        {
          "indexed": false,
          "internalType": "contract CToken",
          "name": "cToken",
          "type": "address"
        }
      ],
      "name": "MarketListed",
      "type": "event"
    },
    {
      "anonymous": false,
      "inputs": [
        {
          "indexed": true,
          "internalType": "contract CToken",
          "name": "cToken",
          "type": "address"
        },
        {
          "indexed": false,
          "internalType": "uint256",
          "name": "newBorrowCap",
          "type": "uint256"
        }
      ],
      "name": "NewBorrowCap",
      "type": "event"
    },
    {
      "anonymous": false,
      "inputs": [
        {
          "indexed": false,
          "internalType": "address",
          "name": "oldBorrowCapGuardian",
          "type": "address"
        },
        {
          "indexed": false,
          "internalType": "address",
          "name": "newBorrowCapGuardian",
          "type": "address"
        }
      ],
      "name": "NewBorrowCapGuardian",
      "type": "event"
    },
    {
      "anonymous": false,
      "inputs": [
        {
          "indexed": false,
          "internalType": "uint256",
          "name": "oldCloseFactorMantissa",
          "type": "uint256"
        },
        {
          "indexed": false,
          "internalType": "uint256",
          "name": "newCloseFactorMantissa",
          "type": "uint256"
        }
      ],
      "name": "NewCloseFactor",
      "type": "event"
    },
    {
      "anonymous": false,
      "inputs": [
        {
          "indexed": false,
          "internalType": "contract CToken",
          "name": "cToken",
          "type": "address"
        },
        {
          "indexed": false,
          "internalType": "uint256",
          "name": "oldCollateralFactorMantissa",
          "type": "uint256"
        },
        {
          "indexed": false,
          "internalType": "uint256",
          "name": "newCollateralFactorMantissa",
          "type": "uint256"
        }
      ],
      "name": "NewCollateralFactor",
      "type": "event"
    },
    {
      "anonymous": false,
      "inputs": [
        {
          "indexed": false,
          "internalType": "uint256",
          "name": "oldLiquidationIncentiveMantissa",
          "type": "uint256"
        },
        {
          "indexed": false,
          "internalType": "uint256",
          "name": "newLiquidationIncentiveMantissa",
          "type": "uint256"
        }
      ],
      "name": "NewLiquidationIncentive",
      "type": "event"
    },
    {
      "anonymous": false,
      "inputs": [
        {
          "indexed": false,
          "internalType": "address",
          "name": "oldPauseGuardian",
          "type": "address"
        },
        {
          "indexed": false,
          "internalType": "address",
          "name": "newPauseGuardian",
          "type": "address"
        }
      ],
      "name": "NewPauseGuardian",
      "type": "event"
    },
    {
      "anonymous": false,
      "inputs": [
        {
          "indexed": false,
          "internalType": "contract PriceOracle",
          "name": "oldPriceOracle",
          "type": "address"
        },
        {
          "indexed": false,
          "internalType": "contract PriceOracle",
          "name": "newPriceOracle",
          "type": "address"
        }
      ],
      "name": "NewPriceOracle",
      "type": "event"
    },
    {
      "inputs": [
        {
          "internalType": "contract Unitroller",
          "name": "unitroller",
          "type": "address"
        }
      ],
      "name": "_become",
      "outputs": [],
      "stateMutability": "nonpayable",
      "type": "function"
    },
    {
      "inputs": [],
      "name": "_borrowGuardianPaused",
      "outputs": [
        {
          "internalType": "bool",
          "name": "",
          "type": "bool"
        }
      ],
      "stateMutability": "view",
      "type": "function"
    },
    {
      "inputs": [
        {
          "internalType": "address",
          "name": "recipient",
          "type": "address"
        },
        {
          "internalType": "uint256",
          "name": "amount",
          "type": "uint256"
        }
      ],
      "name": "_grantComp",
      "outputs": [],
      "stateMutability": "nonpayable",
      "type": "function"
    },
    {
      "inputs": [],
      "name": "_mintGuardianPaused",
      "outputs": [
        {
          "internalType": "bool",
          "name": "",
          "type": "bool"
        }
      ],
      "stateMutability": "view",
      "type": "function"
    },
    {
      "inputs": [
        {
          "internalType": "address",
          "name": "newBorrowCapGuardian",
          "type": "address"
        }
      ],
      "name": "_setBorrowCapGuardian",
      "outputs": [],
      "stateMutability": "nonpayable",
      "type": "function"
    },
    {
      "inputs": [
        {
          "internalType": "contract CToken",
          "name": "cToken",
          "type": "address"
        },
        {
          "internalType": "bool",
          "name": "state",
          "type": "bool"
        }
      ],
      "name": "_setBorrowPaused",
      "outputs": [
        {
          "internalType": "bool",
          "name": "",
          "type": "bool"
        }
      ],
      "stateMutability": "nonpayable",
      "type": "function"
    },
    {
      "inputs": [
        {
          "internalType": "uint256",
          "name": "newCloseFactorMantissa",
          "type": "uint256"
        }
      ],
      "name": "_setCloseFactor",
      "outputs": [
        {
          "internalType": "uint256",
          "name": "",
          "type": "uint256"
        }
      ],
      "stateMutability": "nonpayable",
      "type": "function"
    },
    {
      "inputs": [
        {
          "internalType": "contract CToken",
          "name": "cToken",
          "type": "address"
        },
        {
          "internalType": "uint256",
          "name": "newCollateralFactorMantissa",
          "type": "uint256"
        }
      ],
      "name": "_setCollateralFactor",
      "outputs": [
        {
          "internalType": "uint256",
          "name": "",
          "type": "uint256"
        }
      ],
      "stateMutability": "nonpayable",
      "type": "function"
    },
    {
      "inputs": [
        {
          "internalType": "contract CToken[]",
          "name": "cTokens",
          "type": "address[]"
        },
        {
          "internalType": "uint256[]",
          "name": "supplySpeeds",
          "type": "uint256[]"
        },
        {
          "internalType": "uint256[]",
          "name": "borrowSpeeds",
          "type": "uint256[]"
        }
      ],
      "name": "_setCompSpeeds",
      "outputs": [],
      "stateMutability": "nonpayable",
      "type": "function"
    },
    {
      "inputs": [
        {
          "internalType": "address",
          "name": "contributor",
          "type": "address"
        },
        {
          "internalType": "uint256",
          "name": "compSpeed",
          "type": "uint256"
        }
      ],
      "name": "_setContributorCompSpeed",
      "outputs": [],
      "stateMutability": "nonpayable",
      "type": "function"
    },
    {
      "inputs": [
        {
          "internalType": "uint256",
          "name": "newLiquidationIncentiveMantissa",
          "type": "uint256"
        }
      ],
      "name": "_setLiquidationIncentive",
      "outputs": [
        {
          "internalType": "uint256",
          "name": "",
          "type": "uint256"
        }
      ],
      "stateMutability": "nonpayable",
      "type": "function"
    },
    {
      "inputs": [
        {
          "internalType": "contract CToken[]",
          "name": "cTokens",
          "type": "address[]"
        },
        {
          "internalType": "uint256[]",
          "name": "newBorrowCaps",
          "type": "uint256[]"
        }
      ],
      "name": "_setMarketBorrowCaps",
      "outputs": [],
      "stateMutability": "nonpayable",
      "type": "function"
    },
    {
      "inputs": [
        {
          "internalType": "contract CToken",
          "name": "cToken",
          "type": "address"
        },
        {
          "internalType": "bool",
          "name": "state",
          "type": "bool"
        }
      ],
      "name": "_setMintPaused",
      "outputs": [
        {
          "internalType": "bool",
          "name": "",
          "type": "bool"
        }
      ],
      "stateMutability": "nonpayable",
      "type": "function"
    },
    {
      "inputs": [
        {
          "internalType": "address",
          "name": "newPauseGuardian",
          "type": "address"
        }
      ],
      "name": "_setPauseGuardian",
      "outputs": [
        {
          "internalType": "uint256",
          "name": "",
          "type": "uint256"
        }
      ],
      "stateMutability": "nonpayable",
      "type": "function"
    },
    {
      "inputs": [
        {
          "internalType": "contract PriceOracle",
          "name": "newOracle",
          "type": "address"
        }
      ],
      "name": "_setPriceOracle",
      "outputs": [
        {
          "internalType": "uint256",
          "name": "",
          "type": "uint256"
        }
      ],
      "stateMutability": "nonpayable",
      "type": "function"
    },
    {
      "inputs": [
        {
          "internalType": "bool",
          "name": "state",
          "type": "bool"
        }
      ],
      "name": "_setSeizePaused",
      "outputs": [
        {
          "internalType": "bool",
          "name": "",
          "type": "bool"
        }
      ],
      "stateMutability": "nonpayable",
      "type": "function"
    },
    {
      "inputs": [
        {
          "internalType": "bool",
          "name": "state",
          "type": "bool"
        }
      ],
      "name": "_setTransferPaused",
      "outputs": [
        {
          "internalType": "bool",
          "name": "",
          "type": "bool"
        }
      ],
      "stateMutability": "nonpayable",
      "type": "function"
    },
    {
      "inputs": [
        {
          "internalType": "contract CToken",
          "name": "cToken",
          "type": "address"
        }
      ],
      "name": "_supportMarket",
      "outputs": [
        {
          "internalType": "uint256",
          "name": "",
          "type": "uint256"
        }
      ],
      "stateMutability": "nonpayable",
      "type": "function"
    },
    {
      "inputs": [
        {
          "internalType": "address",
          "name": "",
          "type": "address"
        },
        {
          "internalType": "uint256",
          "name": "",
          "type": "uint256"
        }
      ],
      "name": "accountAssets",
      "outputs": [
        {
          "internalType": "contract CToken",
          "name": "",
          "type": "address"
        }
      ],
      "stateMutability": "view",
      "type": "function"
    },
    {
      "inputs": [],
      "name": "admin",
      "outputs": [
        {
          "internalType": "address",
          "name": "",
          "type": "address"
        }
      ],
      "stateMutability": "view",
      "type": "function"
    },
    {
      "inputs": [
        {
          "internalType": "uint256",
          "name": "",
          "type": "uint256"
        }
      ],
      "name": "allMarkets",
      "outputs": [
        {
          "internalType": "contract CToken",
          "name": "",
          "type": "address"
        }
      ],
      "stateMutability": "view",
      "type": "function"
    },
    {
      "inputs": [
        {
          "internalType": "address",
          "name": "cToken",
          "type": "address"
        },
        {
          "internalType": "address",
          "name": "borrower",
          "type": "address"
        },
        {
          "internalType": "uint256",
          "name": "borrowAmount",
          "type": "uint256"
        }
      ],
      "name": "borrowAllowed",
      "outputs": [
        {
          "internalType": "uint256",
          "name": "",
          "type": "uint256"
        }
      ],
      "stateMutability": "nonpayable",
      "type": "function"
    },
    {
      "inputs": [],
      "name": "borrowCapGuardian",
      "outputs": [
        {
          "internalType": "address",
          "name": "",
          "type": "address"
        }
      ],
      "stateMutability": "view",
      "type": "function"
    },
    {
      "inputs": [
        {
          "internalType": "address",
          "name": "",
          "type": "address"
        }
      ],
      "name": "borrowCaps",
      "outputs": [
        {
          "internalType": "uint256",
          "name": "",
          "type": "uint256"
        }
      ],
      "stateMutability": "view",
      "type": "function"
    },
    {
      "inputs": [
        {
          "internalType": "address",
          "name": "",
          "type": "address"
        }
      ],
      "name": "borrowGuardianPaused",
      "outputs": [
        {
          "internalType": "bool",
          "name": "",
          "type": "bool"
        }
      ],
      "stateMutability": "view",
      "type": "function"
    },
    {
      "inputs": [
        {
          "internalType": "address",
          "name": "cToken",
          "type": "address"
        },
        {
          "internalType": "address",
          "name": "borrower",
          "type": "address"
        },
        {
          "internalType": "uint256",
          "name": "borrowAmount",
          "type": "uint256"
        }
      ],
      "name": "borrowVerify",
      "outputs": [],
      "stateMutability": "nonpayable",
      "type": "function"
    },
    {
      "inputs": [
        {
          "internalType": "address",
          "name": "account",
          "type": "address"
        },
        {
          "internalType": "contract CToken",
          "name": "cToken",
          "type": "address"
        }
      ],
      "name": "checkMembership",
      "outputs": [
        {
          "internalType": "bool",
          "name": "",
          "type": "bool"
        }
      ],
      "stateMutability": "view",
      "type": "function"
    },
    {
      "inputs": [
        {
          "internalType": "address",
          "name": "holder",
          "type": "address"
        },
        {
          "internalType": "contract CToken[]",
          "name": "cTokens",
          "type": "address[]"
        }
      ],
      "name": "claimComp",
      "outputs": [],
      "stateMutability": "nonpayable",
      "type": "function"
    },
    {
      "inputs": [
        {
          "internalType": "address[]",
          "name": "holders",
          "type": "address[]"
        },
        {
          "internalType": "contract CToken[]",
          "name": "cTokens",
          "type": "address[]"
        },
        {
          "internalType": "bool",
          "name": "borrowers",
          "type": "bool"
        },
        {
          "internalType": "bool",
          "name": "suppliers",
          "type": "bool"
        }
      ],
      "name": "claimComp",
      "outputs": [],
      "stateMutability": "nonpayable",
      "type": "function"
    },
    {
      "inputs": [
        {
          "internalType": "address",
          "name": "holder",
          "type": "address"
        }
      ],
      "name": "claimComp",
      "outputs": [],
      "stateMutability": "nonpayable",
      "type": "function"
    },
    {
      "inputs": [],
      "name": "closeFactorMantissa",
      "outputs": [
        {
          "internalType": "uint256",
          "name": "",
          "type": "uint256"
        }
      ],
      "stateMutability": "view",
      "type": "function"
    },
    {
      "inputs": [
        {
          "internalType": "address",
          "name": "",
          "type": "address"
        }
      ],
      "name": "compAccrued",
      "outputs": [
        {
          "internalType": "uint256",
          "name": "",
          "type": "uint256"
        }
      ],
      "stateMutability": "view",
      "type": "function"
    },
    {
      "inputs": [
        {
          "internalType": "address",
          "name": "",
          "type": "address"
        }
      ],
      "name": "compBorrowSpeeds",
      "outputs": [
        {
          "internalType": "uint256",
          "name": "",
          "type": "uint256"
        }
      ],
      "stateMutability": "view",
      "type": "function"
    },
    {
      "inputs": [
        {
          "internalType": "address",
          "name": "",
          "type": "address"
        }
      ],
      "name": "compBorrowState",
      "outputs": [
        {
          "internalType": "uint224",
          "name": "index",
          "type": "uint224"
        },
        {
          "internalType": "uint32",
          "name": "block",
          "type": "uint32"
        }
      ],
      "stateMutability": "view",
      "type": "function"
    },
    {
      "inputs": [
        {
          "internalType": "address",
          "name": "",
          "type": "address"
        },
        {
          "internalType": "address",
          "name": "",
          "type": "address"
        }
      ],
      "name": "compBorrowerIndex",
      "outputs": [
        {
          "internalType": "uint256",
          "name": "",
          "type": "uint256"
        }
      ],
      "stateMutability": "view",
      "type": "function"
    },
    {
      "inputs": [
        {
          "internalType": "address",
          "name": "",
          "type": "address"
        }
      ],
      "name": "compContributorSpeeds",
      "outputs": [
        {
          "internalType": "uint256",
          "name": "",
          "type": "uint256"
        }
      ],
      "stateMutability": "view",
      "type": "function"
    },
    {
      "inputs": [],
      "name": "compInitialIndex",
      "outputs": [
        {
          "internalType": "uint224",
          "name": "",
          "type": "uint224"
        }
      ],
      "stateMutability": "view",
      "type": "function"
    },
    {
      "inputs": [],
      "name": "compRate",
      "outputs": [
        {
          "internalType": "uint256",
          "name": "",
          "type": "uint256"
        }
      ],
      "stateMutability": "view",
      "type": "function"
    },
    {
      "inputs": [
        {
          "internalType": "address",
          "name": "",
          "type": "address"
        }
      ],
      "name": "compReceivable",
      "outputs": [
        {
          "internalType": "uint256",
          "name": "",
          "type": "uint256"
        }
      ],
      "stateMutability": "view",
      "type": "function"
    },
    {
      "inputs": [
        {
          "internalType": "address",
          "name": "",
          "type": "address"
        }
      ],
      "name": "compSpeeds",
      "outputs": [
        {
          "internalType": "uint256",
          "name": "",
          "type": "uint256"
        }
      ],
      "stateMutability": "view",
      "type": "function"
    },
    {
      "inputs": [
        {
          "internalType": "address",
          "name": "",
          "type": "address"
        },
        {
          "internalType": "address",
          "name": "",
          "type": "address"
        }
      ],
      "name": "compSupplierIndex",
      "outputs": [
        {
          "internalType": "uint256",
          "name": "",
          "type": "uint256"
        }
      ],
      "stateMutability": "view",
      "type": "function"
    },
    {
      "inputs": [
        {
          "internalType": "address",
          "name": "",
          "type": "address"
        }
      ],
      "name": "compSupplySpeeds",
      "outputs": [
        {
          "internalType": "uint256",
          "name": "",
          "type": "uint256"
        }
      ],
      "stateMutability": "view",
      "type": "function"
    },
    {
      "inputs": [
        {
          "internalType": "address",
          "name": "",
          "type": "address"
        }
      ],
      "name": "compSupplyState",
      "outputs": [
        {
          "internalType": "uint224",
          "name": "index",
          "type": "uint224"
        },
        {
          "internalType": "uint32",
          "name": "block",
          "type": "uint32"
        }
      ],
      "stateMutability": "view",
      "type": "function"
    },
    {
      "inputs": [],
      "name": "comptrollerImplementation",
      "outputs": [
        {
          "internalType": "address",
          "name": "",
          "type": "address"
        }
      ],
      "stateMutability": "view",
      "type": "function"
    },
    {
      "inputs": [
        {
          "internalType": "address[]",
          "name": "cTokens",
          "type": "address[]"
        }
      ],
      "name": "enterMarkets",
      "outputs": [
        {
          "internalType": "uint256[]",
          "name": "",
          "type": "uint256[]"
        }
      ],
      "stateMutability": "nonpayable",
      "type": "function"
    },
    {
      "inputs": [
        {
          "internalType": "address",
          "name": "cTokenAddress",
          "type": "address"
        }
      ],
      "name": "exitMarket",
      "outputs": [
        {
          "internalType": "uint256",
          "name": "",
          "type": "uint256"
        }
      ],
      "stateMutability": "nonpayable",
      "type": "function"
    },
    {
      "inputs": [
        {
          "internalType": "address[]",
          "name": "affectedUsers",
          "type": "address[]"
        },
        {
          "internalType": "uint256[]",
          "name": "amounts",
          "type": "uint256[]"
        }
      ],
      "name": "fixBadAccruals",
      "outputs": [],
      "stateMutability": "nonpayable",
      "type": "function"
    },
    {
      "inputs": [
        {
          "internalType": "address",
          "name": "account",
          "type": "address"
        }
      ],
      "name": "getAccountLiquidity",
      "outputs": [
        {
          "internalType": "uint256",
          "name": "",
          "type": "uint256"
        },
        {
          "internalType": "uint256",
          "name": "",
          "type": "uint256"
        },
        {
          "internalType": "uint256",
          "name": "",
          "type": "uint256"
        }
      ],
      "stateMutability": "view",
      "type": "function"
    },
    {
      "inputs": [],
      "name": "getAllMarkets",
      "outputs": [
        {
          "internalType": "contract CToken[]",
          "name": "",
          "type": "address[]"
        }
      ],
      "stateMutability": "view",
      "type": "function"
    },
    {
      "inputs": [
        {
          "internalType": "address",
          "name": "account",
          "type": "address"
        }
      ],
      "name": "getAssetsIn",
      "outputs": [
        {
          "internalType": "contract CToken[]",
          "name": "",
          "type": "address[]"
        }
      ],
      "stateMutability": "view",
      "type": "function"
    },
    {
      "inputs": [],
      "name": "getBlockNumber",
      "outputs": [
        {
          "internalType": "uint256",
          "name": "",
          "type": "uint256"
        }
      ],
      "stateMutability": "view",
      "type": "function"
    },
    {
      "inputs": [],
      "name": "getCompAddress",
      "outputs": [
        {
          "internalType": "address",
          "name": "",
          "type": "address"
        }
      ],
      "stateMutability": "view",
      "type": "function"
    },
    {
      "inputs": [
        {
          "internalType": "address",
          "name": "account",
          "type": "address"
        },
        {
          "internalType": "address",
          "name": "cTokenModify",
          "type": "address"
        },
        {
          "internalType": "uint256",
          "name": "redeemTokens",
          "type": "uint256"
        },
        {
          "internalType": "uint256",
          "name": "borrowAmount",
          "type": "uint256"
        }
      ],
      "name": "getHypotheticalAccountLiquidity",
      "outputs": [
        {
          "internalType": "uint256",
          "name": "",
          "type": "uint256"
        },
        {
          "internalType": "uint256",
          "name": "",
          "type": "uint256"
        },
        {
          "internalType": "uint256",
          "name": "",
          "type": "uint256"
        }
      ],
      "stateMutability": "view",
      "type": "function"
    },
    {
      "inputs": [],
      "name": "isComptroller",
      "outputs": [
        {
          "internalType": "bool",
          "name": "",
          "type": "bool"
        }
      ],
      "stateMutability": "view",
      "type": "function"
    },
    {
      "inputs": [
        {
          "internalType": "contract CToken",
          "name": "cToken",
          "type": "address"
        }
      ],
      "name": "isDeprecated",
      "outputs": [
        {
          "internalType": "bool",
          "name": "",
          "type": "bool"
        }
      ],
      "stateMutability": "view",
      "type": "function"
    },
    {
      "inputs": [
        {
          "internalType": "address",
          "name": "",
          "type": "address"
        }
      ],
      "name": "lastContributorBlock",
      "outputs": [
        {
          "internalType": "uint256",
          "name": "",
          "type": "uint256"
        }
      ],
      "stateMutability": "view",
      "type": "function"
    },
    {
      "inputs": [
        {
          "internalType": "address",
          "name": "cTokenBorrowed",
          "type": "address"
        },
        {
          "internalType": "address",
          "name": "cTokenCollateral",
          "type": "address"
        },
        {
          "internalType": "address",
          "name": "liquidator",
          "type": "address"
        },
        {
          "internalType": "address",
          "name": "borrower",
          "type": "address"
        },
        {
          "internalType": "uint256",
          "name": "repayAmount",
          "type": "uint256"
        }
      ],
      "name": "liquidateBorrowAllowed",
      "outputs": [
        {
          "internalType": "uint256",
          "name": "",
          "type": "uint256"
        }
      ],
      "stateMutability": "nonpayable",
      "type": "function"
    },
    {
      "inputs": [
        {
          "internalType": "address",
          "name": "cTokenBorrowed",
          "type": "address"
        },
        {
          "internalType": "address",
          "name": "cTokenCollateral",
          "type": "address"
        },
        {
          "internalType": "address",
          "name": "liquidator",
          "type": "address"
        },
        {
          "internalType": "address",
          "name": "borrower",
          "type": "address"
        },
        {
          "internalType": "uint256",
          "name": "actualRepayAmount",
          "type": "uint256"
        },
        {
          "internalType": "uint256",
          "name": "seizeTokens",
          "type": "uint256"
        }
      ],
      "name": "liquidateBorrowVerify",
      "outputs": [],
      "stateMutability": "nonpayable",
      "type": "function"
    },
    {
      "inputs": [
        {
          "internalType": "address",
          "name": "cTokenBorrowed",
          "type": "address"
        },
        {
          "internalType": "address",
          "name": "cTokenCollateral",
          "type": "address"
        },
        {
          "internalType": "uint256",
          "name": "actualRepayAmount",
          "type": "uint256"
        }
      ],
      "name": "liquidateCalculateSeizeTokens",
      "outputs": [
        {
          "internalType": "uint256",
          "name": "",
          "type": "uint256"
        },
        {
          "internalType": "uint256",
          "name": "",
          "type": "uint256"
        }
      ],
      "stateMutability": "view",
      "type": "function"
    },
    {
      "inputs": [],
      "name": "liquidationIncentiveMantissa",
      "outputs": [
        {
          "internalType": "uint256",
          "name": "",
          "type": "uint256"
        }
      ],
      "stateMutability": "view",
      "type": "function"
    },
    {
      "inputs": [
        {
          "internalType": "address",
          "name": "",
          "type": "address"
        }
      ],
      "name": "markets",
      "outputs": [
        {
          "internalType": "bool",
          "name": "isListed",
          "type": "bool"
        },
        {
          "internalType": "uint256",
          "name": "collateralFactorMantissa",
          "type": "uint256"
        },
        {
          "internalType": "bool",
          "name": "isComped",
          "type": "bool"
        }
      ],
      "stateMutability": "view",
      "type": "function"
    },
    {
      "inputs": [],
      "name": "maxAssets",
      "outputs": [
        {
          "internalType": "uint256",
          "name": "",
          "type": "uint256"
        }
      ],
      "stateMutability": "view",
      "type": "function"
    },
    {
      "inputs": [
        {
          "internalType": "address",
          "name": "cToken",
          "type": "address"
        },
        {
          "internalType": "address",
          "name": "minter",
          "type": "address"
        },
        {
          "internalType": "uint256",
          "name": "mintAmount",
          "type": "uint256"
        }
      ],
      "name": "mintAllowed",
      "outputs": [
        {
          "internalType": "uint256",
          "name": "",
          "type": "uint256"
        }
      ],
      "stateMutability": "nonpayable",
      "type": "function"
    },
    {
      "inputs": [
        {
          "internalType": "address",
          "name": "",
          "type": "address"
        }
      ],
      "name": "mintGuardianPaused",
      "outputs": [
        {
          "internalType": "bool",
          "name": "",
          "type": "bool"
        }
      ],
      "stateMutability": "view",
      "type": "function"
    },
    {
      "inputs": [
        {
          "internalType": "address",
          "name": "cToken",
          "type": "address"
        },
        {
          "internalType": "address",
          "name": "minter",
          "type": "address"
        },
        {
          "internalType": "uint256",
          "name": "actualMintAmount",
          "type": "uint256"
        },
        {
          "internalType": "uint256",
          "name": "mintTokens",
          "type": "uint256"
        }
      ],
      "name": "mintVerify",
      "outputs": [],
      "stateMutability": "nonpayable",
      "type": "function"
    },
    {
      "inputs": [],
      "name": "oracle",
      "outputs": [
        {
          "internalType": "contract PriceOracle",
          "name": "",
          "type": "address"
        }
      ],
      "stateMutability": "view",
      "type": "function"
    },
    {
      "inputs": [],
      "name": "pauseGuardian",
      "outputs": [
        {
          "internalType": "address",
          "name": "",
          "type": "address"
        }
      ],
      "stateMutability": "view",
      "type": "function"
    },
    {
      "inputs": [],
      "name": "pendingAdmin",
      "outputs": [
        {
          "internalType": "address",
          "name": "",
          "type": "address"
        }
      ],
      "stateMutability": "view",
      "type": "function"
    },
    {
      "inputs": [],
      "name": "pendingComptrollerImplementation",
      "outputs": [
        {
          "internalType": "address",
          "name": "",
          "type": "address"
        }
      ],
      "stateMutability": "view",
      "type": "function"
    },
    {
      "inputs": [],
      "name": "proposal65FixExecuted",
      "outputs": [
        {
          "internalType": "bool",
          "name": "",
          "type": "bool"
        }
      ],
      "stateMutability": "view",
      "type": "function"
    },
    {
      "inputs": [
        {
          "internalType": "address",
          "name": "cToken",
          "type": "address"
        },
        {
          "internalType": "address",
          "name": "redeemer",
          "type": "address"
        },
        {
          "internalType": "uint256",
          "name": "redeemTokens",
          "type": "uint256"
        }
      ],
      "name": "redeemAllowed",
      "outputs": [
        {
          "internalType": "uint256",
          "name": "",
          "type": "uint256"
        }
      ],
      "stateMutability": "nonpayable",
      "type": "function"
    },
    {
      "inputs": [
        {
          "internalType": "address",
          "name": "cToken",
          "type": "address"
        },
        {
          "internalType": "address",
          "name": "redeemer",
          "type": "address"
        },
        {
          "internalType": "uint256",
          "name": "redeemAmount",
          "type": "uint256"
        },
        {
          "internalType": "uint256",
          "name": "redeemTokens",
          "type": "uint256"
        }
      ],
      "name": "redeemVerify",
      "outputs": [],
      "stateMutability": "nonpayable",
      "type": "function"
    },
    {
      "inputs": [
        {
          "internalType": "address",
          "name": "cToken",
          "type": "address"
        },
        {
          "internalType": "address",
          "name": "payer",
          "type": "address"
        },
        {
          "internalType": "address",
          "name": "borrower",
          "type": "address"
        },
        {
          "internalType": "uint256",
          "name": "repayAmount",
          "type": "uint256"
        }
      ],
      "name": "repayBorrowAllowed",
      "outputs": [
        {
          "internalType": "uint256",
          "name": "",
          "type": "uint256"
        }
      ],
      "stateMutability": "nonpayable",
      "type": "function"
    },
    {
      "inputs": [
        {
          "internalType": "address",
          "name": "cToken",
          "type": "address"
        },
        {
          "internalType": "address",
          "name": "payer",
          "type": "address"
        },
        {
          "internalType": "address",
          "name": "borrower",
          "type": "address"
        },
        {
          "internalType": "uint256",
          "name": "actualRepayAmount",
          "type": "uint256"
        },
        {
          "internalType": "uint256",
          "name": "borrowerIndex",
          "type": "uint256"
        }
      ],
      "name": "repayBorrowVerify",
      "outputs": [],
      "stateMutability": "nonpayable",
      "type": "function"
    },
    {
      "inputs": [
        {
          "internalType": "address",
          "name": "cTokenCollateral",
          "type": "address"
        },
        {
          "internalType": "address",
          "name": "cTokenBorrowed",
          "type": "address"
        },
        {
          "internalType": "address",
          "name": "liquidator",
          "type": "address"
        },
        {
          "internalType": "address",
          "name": "borrower",
          "type": "address"
        },
        {
          "internalType": "uint256",
          "name": "seizeTokens",
          "type": "uint256"
        }
      ],
      "name": "seizeAllowed",
      "outputs": [
        {
          "internalType": "uint256",
          "name": "",
          "type": "uint256"
        }
      ],
      "stateMutability": "nonpayable",
      "type": "function"
    },
    {
      "inputs": [],
      "name": "seizeGuardianPaused",
      "outputs": [
        {
          "internalType": "bool",
          "name": "",
          "type": "bool"
        }
      ],
      "stateMutability": "view",
      "type": "function"
    },
    {
      "inputs": [
        {
          "internalType": "address",
          "name": "cTokenCollateral",
          "type": "address"
        },
        {
          "internalType": "address",
          "name": "cTokenBorrowed",
          "type": "address"
        },
        {
          "internalType": "address",
          "name": "liquidator",
          "type": "address"
        },
        {
          "internalType": "address",
          "name": "borrower",
          "type": "address"
        },
        {
          "internalType": "uint256",
          "name": "seizeTokens",
          "type": "uint256"
        }
      ],
      "name": "seizeVerify",
      "outputs": [],
      "stateMutability": "nonpayable",
      "type": "function"
    },
    {
      "inputs": [
        {
          "internalType": "address",
          "name": "cToken",
          "type": "address"
        },
        {
          "internalType": "address",
          "name": "src",
          "type": "address"
        },
        {
          "internalType": "address",
          "name": "dst",
          "type": "address"
        },
        {
          "internalType": "uint256",
          "name": "transferTokens",
          "type": "uint256"
        }
      ],
      "name": "transferAllowed",
      "outputs": [
        {
          "internalType": "uint256",
          "name": "",
          "type": "uint256"
        }
      ],
      "stateMutability": "nonpayable",
      "type": "function"
    },
    {
      "inputs": [],
      "name": "transferGuardianPaused",
      "outputs": [
        {
          "internalType": "bool",
          "name": "",
          "type": "bool"
        }
      ],
      "stateMutability": "view",
      "type": "function"
    },
    {
      "inputs": [
        {
          "internalType": "address",
          "name": "cToken",
          "type": "address"
        },
        {
          "internalType": "address",
          "name": "src",
          "type": "address"
        },
        {
          "internalType": "address",
          "name": "dst",
          "type": "address"
        },
        {
          "internalType": "uint256",
          "name": "transferTokens",
          "type": "uint256"
        }
      ],
      "name": "transferVerify",
      "outputs": [],
      "stateMutability": "nonpayable",
      "type": "function"
    },
    {
      "inputs": [
        {
          "internalType": "address",
          "name": "contributor",
          "type": "address"
        }
      ],
      "name": "updateContributorRewards",
      "outputs": [],
      "stateMutability": "nonpayable",
      "type": "function"
    }
  ],
  "bytecode": "0x608060405234801561001057600080fd5b50600080546001600160a01b03191633179055615da380620000336000396000f3fe608060405234801561001057600080fd5b506004361061058a5760003560e01c8063731f0c2b116102e2578063b21be7fd11610191578063dce15449116100ee578063e9af0292116100a2578063f00a7a921161007c578063f00a7a9214610d88578063f4a433c014610d95578063f851a44014610db557600080fd5b8063e9af029214610d4f578063eabe7d9114610d62578063ede4edd014610d7557600080fd5b8063e4028eee116100d3578063e4028eee14610d0d578063e6653f3d14610d20578063e875544614610d4657600080fd5b8063dce1544914610ce7578063dcfbc0c714610cfa57600080fd5b8063c488847b11610145578063cc7ebdc41161012a578063cc7ebdc414610ca1578063d02f735114610cc1578063da3d454c14610cd457600080fd5b8063c488847b14610c4e578063ca0af04314610c7657600080fd5b8063bdcdc25811610176578063bdcdc25814610bfb578063bea6b8b814610c0e578063c299823814610c2e57600080fd5b8063b21be7fd14610bbd578063bb82aa5e14610be857600080fd5b806394b2294b1161023f578063a8b43948116101f3578063abfceffc116101d8578063abfceffc14610b6d578063ac0b0bb714610b8d578063b0772d0b14610bb557600080fd5b8063a8b4394814610b51578063aa90075414610b6457600080fd5b80639d1b5a0a116102245780639d1b5a0a14610af6578063a76b3fda14610b10578063a7f0e23114610b2357600080fd5b806394b2294b14610acd578063986ab83814610ad657600080fd5b80638c57804e116102965780638ebf63641161027b5780638ebf636414610a66578063929fe9a114610a7957806394543c1514610aba57600080fd5b80638c57804e146109db5780638e8f294b14610a1357600080fd5b80637dc0d1d0116102c75780637dc0d1d01461098157806385b7beb81461099457806387f76303146109b457600080fd5b8063731f0c2b1461094b578063741b25251461096e57600080fd5b80634a5844321161043e5780635ec88c791161039b5780636a56947e1161034f5780636b79c38d116103345780636b79c38d146108be5780636d154ea51461091a5780636d35bf911461093d57600080fd5b80636a56947e146108905780636aa875b51461089e57600080fd5b80635fc7e71e116103805780635fc7e71e14610857578063607ef6c11461086a5780636810dfa61461087d57600080fd5b80635ec88c79146108315780635f5af1aa1461084457600080fd5b806351dff989116103f257806355ee1fe1116103d757806355ee1fe1146107f8578063598ee1cb1461080b5780635c7786051461081e57600080fd5b806351dff989146107d257806352d84d1e146107e557600080fd5b80634e79238f116104235780634e79238f1461077e5780634ef4c3e1146107ac5780634fd42e17146107bf57600080fd5b80634a584432146107555780634ada90af1461077557600080fd5b806326782247116104ec5780633bcf7ec1116104a057806341c728b91161048557806341c728b91461072557806342cbb15c1461073957806347ef3b3b1461073f57600080fd5b80633bcf7ec1146106ed5780633c94786f1461070057600080fd5b80632d70db78116104d15780632d70db78146106b4578063317b0b77146106c7578063391957d7146106da57600080fd5b8063267822471461068e57806327efe3cb146106a157600080fd5b80631d7b33d71161054357806321af45691161052857806321af45691461063d57806324008a621461066857806324a3d6221461067b57600080fd5b80631d7b33d7146105fa5780631ededc911461062857600080fd5b806318c882a51161057457806318c882a5146105c15780631c3db2e0146105d45780631d504dc6146105e757600080fd5b80627e3dd21461058f57806316b95e8f146105ac575b600080fd5b610597600181565b60405190151581526020015b60405180910390f35b6105bf6105ba3660046153b1565b610dc8565b005b6105976105cf366004615440565b6110b4565b6105bf6105e2366004615558565b6112ca565b6105bf6105f53660046155a8565b61132d565b61061a6106083660046155a8565b600f6020526000908152604090205481565b6040519081526020016105a3565b6105bf6106363660046155c5565b5050505050565b601554610650906001600160a01b031681565b6040516001600160a01b0390911681526020016105a3565b61061a610676366004615620565b6114c9565b600a54610650906001600160a01b031681565b600154610650906001600160a01b031681565b6105bf6106af366004615671565b611587565b6105976106c236600461569d565b61167e565b61061a6106d53660046156ba565b611825565b6105bf6106e83660046155a8565b6118cc565b6105976106fb366004615440565b6119ba565b600a546105979074010000000000000000000000000000000000000000900460ff1681565b6105bf6107333660046156d3565b50505050565b4361061a565b6105bf61074d366004615719565b505050505050565b61061a6107633660046155a8565b60166020526000908152604090205481565b61061a60065481565b61079161078c3660046156d3565b611bc3565b604080519384526020840192909252908201526060016105a3565b61061a6107ba366004615787565b611c03565b61061a6107cd3660046156ba565b611cbc565b6105bf6107e03660046156d3565b611d19565b6106506107f33660046156ba565b611d74565b61061a6108063660046155a8565b611d9e565b6105bf610819366004615671565b611e24565b6105bf61082c366004615787565b505050565b61079161083f3660046155a8565b611f1b565b61061a6108523660046155a8565b611f56565b61061a6108653660046157c8565b611fdc565b6105bf6108783660046153b1565b6121dc565b6105bf61088b36600461582c565b6123d2565b6105bf610733366004615620565b61061a6108ac3660046155a8565b601a6020526000908152604090205481565b6108f66108cc3660046155a8565b6010602052600090815260409020546001600160e01b03811690600160e01b900463ffffffff1682565b604080516001600160e01b03909316835263ffffffff9091166020830152016105a3565b6105976109283660046155a8565b600c6020526000908152604090205460ff1681565b6105bf6106363660046157c8565b6105976109593660046155a8565b600b6020526000908152604090205460ff1681565b6105bf61097c3660046155a8565b612662565b600454610650906001600160a01b031681565b61061a6109a23660046155a8565b601c6020526000908152604090205481565b600a5461059790760100000000000000000000000000000000000000000000900460ff1681565b6108f66109e93660046155a8565b6011602052600090815260409020546001600160e01b03811690600160e01b900463ffffffff1682565b610a47610a213660046155a8565b60096020526000908152604090208054600182015460039092015460ff91821692911683565b60408051931515845260208401929092521515908201526060016105a3565b610597610a7436600461569d565b61270e565b610597610a873660046158b5565b6001600160a01b038082166000908152600960209081526040808320938616835260029093019052205460ff1692915050565b610597610ac83660046155a8565b6128a8565b61061a60075481565b61061a610ae43660046155a8565b60176020526000908152604090205481565b73c00e94cb662c3520282e6f5717214004a7f26888610650565b61061a610b1e3660046155a8565b612967565b610b396ec097ce7bc90715b34b9f100000000081565b6040516001600160e01b0390911681526020016105a3565b6105bf610b5f36600461593e565b612aa2565b61061a600e5481565b610b80610b7b3660046155a8565b612beb565b6040516105a391906159c6565b600a546105979077010000000000000000000000000000000000000000000000900460ff1681565b610b80612c61565b61061a610bcb3660046158b5565b601260209081526000928352604080842090915290825290205481565b600254610650906001600160a01b031681565b61061a610c09366004615620565b612cc3565b61061a610c1c3660046155a8565b60186020526000908152604090205481565b610c41610c3c366004615a13565b612d75565b6040516105a39190615a48565b610c61610c5c366004615787565b612e3d565b604080519283526020830191909152016105a3565b61061a610c843660046158b5565b601360209081526000928352604080842090915290825290205481565b61061a610caf3660046155a8565b60146020526000908152604090205481565b61061a610ccf3660046157c8565b61305b565b61061a610ce2366004615787565b613224565b610650610cf5366004615671565b61360c565b600354610650906001600160a01b031681565b61061a610d1b366004615671565b613644565b600a54610597907501000000000000000000000000000000000000000000900460ff1681565b61061a60055481565b6105bf610d5d3660046155a8565b6137d6565b61061a610d70366004615787565b61383a565b61061a610d833660046155a8565b61387e565b601b546105979060ff1681565b61061a610da33660046155a8565b60196020526000908152604090205481565b600054610650906001600160a01b031681565b6000546001600160a01b03163314610e4d5760405162461bcd60e51b815260206004820152602160248201527f4f6e6c792061646d696e2063616e2063616c6c20746869732066756e6374696f60448201527f6e0000000000000000000000000000000000000000000000000000000000000060648201526084015b60405180910390fd5b601b5460ff1615610ec65760405162461bcd60e51b815260206004820152602660248201527f416c72656164792065786563757465642074686973206f6e652d6f666620667560448201527f6e6374696f6e00000000000000000000000000000000000000000000000000006064820152608401610e44565b828114610f155760405162461bcd60e51b815260206004820152600d60248201527f496e76616c696420696e707574000000000000000000000000000000000000006044820152606401610e44565b60008060008060005b8781101561109c57888882818110610f3857610f38615a80565b9050602002016020810190610f4d91906155a8565b6001600160a01b0381166000908152601460205260409020549095509350868682818110610f7d57610f7d615a80565b90506020020135925083831115611021576000610f9a8585615aac565b6001600160a01b0387166000908152601c6020526040812054919250610fc08284613c21565b6001600160a01b0389166000818152601c6020908152604091829020849055815186815290810184905292935090917f17fea09d9a7ca41b2f9f9118f18f44848a62e9c70d55dd4385131eb2cf1b7e47910160405180910390a28695505050505b821561108c576110318484613c2d565b6001600160a01b038616600081815260146020908152604091829020849055815188815290810184905292945090917f4a5c134e28b537a76546993ea37f3b60d9190476df7356d3842aa40902e20f04910160405180910390a25b61109581615abf565b9050610f1e565b5050601b805460ff1916600117905550505050505050565b6001600160a01b03821660009081526009602052604081205460ff166111425760405162461bcd60e51b815260206004820152602860248201527f63616e6e6f742070617573652061206d61726b65742074686174206973206e6f60448201527f74206c69737465640000000000000000000000000000000000000000000000006064820152608401610e44565b600a546001600160a01b031633148061116557506000546001600160a01b031633145b6111c15760405162461bcd60e51b815260206004820152602760248201527f6f6e6c7920706175736520677561726469616e20616e642061646d696e2063616044820152666e20706175736560c81b6064820152608401610e44565b6000546001600160a01b03163314806111dc57506001821515145b6112285760405162461bcd60e51b815260206004820152601660248201527f6f6e6c792061646d696e2063616e20756e7061757365000000000000000000006044820152606401610e44565b6001600160a01b0383166000818152600c6020908152604091829020805460ff1916861515908117909155825193845260609184018290526006918401919091527f426f72726f7700000000000000000000000000000000000000000000000000006080840152908201527f71aec636243f9709bb0007ae15e9afb8150ab01716d75fd7573be5cc096e03b09060a0015b60405180910390a150805b92915050565b60408051600180825281830190925260009160208083019080368337019050509050828160008151811061130057611300615a80565b60200260200101906001600160a01b031690816001600160a01b03168152505061082c81836001806123d2565b806001600160a01b031663f851a4406040518163ffffffff1660e01b8152600401602060405180830381865afa15801561136b573d6000803e3d6000fd5b505050506040513d601f19601f8201168201806040525081019061138f9190615ad9565b6001600160a01b0316336001600160a01b0316146114155760405162461bcd60e51b815260206004820152602760248201527f6f6e6c7920756e6974726f6c6c65722061646d696e2063616e206368616e676560448201527f20627261696e73000000000000000000000000000000000000000000000000006064820152608401610e44565b806001600160a01b031663c1e803346040518163ffffffff1660e01b81526004016020604051808303816000875af1158015611455573d6000803e3d6000fd5b505050506040513d601f19601f820116820180604052508101906114799190615af6565b156114c65760405162461bcd60e51b815260206004820152601560248201527f6368616e6765206e6f7420617574686f72697a656400000000000000000000006044820152606401610e44565b50565b6001600160a01b03841660009081526009602052604081205460ff166114f15750600961157f565b60006040518060200160405280876001600160a01b031663aa5af0fd6040518163ffffffff1660e01b8152600401602060405180830381865afa15801561153c573d6000803e3d6000fd5b505050506040513d601f19601f820116820180604052508101906115609190615af6565b9052905061156e8682613c39565b611579868583613e2c565b60009150505b949350505050565b61158f613fc7565b6115db5760405162461bcd60e51b815260206004820152601960248201527f6f6e6c792061646d696e2063616e206772616e7420636f6d70000000000000006044820152606401610e44565b60006115e78383613ff0565b905080156116375760405162461bcd60e51b815260206004820152601b60248201527f696e73756666696369656e7420636f6d7020666f72206772616e7400000000006044820152606401610e44565b604080516001600160a01b0385168152602081018490527f98b2f82a3a07f223a0be64b3d0f47711c64dccd1feafb94aa28156b38cd9695c910160405180910390a1505050565b600a546000906001600160a01b03163314806116a457506000546001600160a01b031633145b6117005760405162461bcd60e51b815260206004820152602760248201527f6f6e6c7920706175736520677561726469616e20616e642061646d696e2063616044820152666e20706175736560c81b6064820152608401610e44565b6000546001600160a01b031633148061171b57506001821515145b6117675760405162461bcd60e51b815260206004820152601660248201527f6f6e6c792061646d696e2063616e20756e7061757365000000000000000000006044820152606401610e44565b600a805483151577010000000000000000000000000000000000000000000000027fffffffffffffffff00ffffffffffffffffffffffffffffffffffffffffffffff9091161790556040517fef159d9a32b2472e32b098f954f3ce62d232939f1c207070b584df1814de2de09061181990849060408082526005908201527f5365697a650000000000000000000000000000000000000000000000000000006060820152901515602082015260800190565b60405180910390a15090565b600080546001600160a01b031633146118805760405162461bcd60e51b815260206004820152601f60248201527f6f6e6c792061646d696e2063616e2073657420636c6f736520666163746f72006044820152606401610e44565b600580549083905560408051828152602081018590527f3b9670cf975d26958e754b57098eaa2ac914d8d2a31b83257997b9f346110fd991015b60405180910390a160005b9392505050565b6000546001600160a01b0316331461194c5760405162461bcd60e51b815260206004820152602660248201527f6f6e6c792061646d696e2063616e2073657420626f72726f772063617020677560448201527f61726469616e00000000000000000000000000000000000000000000000000006064820152608401610e44565b601580546001600160a01b0383811673ffffffffffffffffffffffffffffffffffffffff1983168117909355604080519190921680825260208201939093527feda98690e518e9a05f8ec6837663e188211b2da8f4906648b323f2c1d4434e29910160405180910390a15050565b6001600160a01b03821660009081526009602052604081205460ff16611a485760405162461bcd60e51b815260206004820152602860248201527f63616e6e6f742070617573652061206d61726b65742074686174206973206e6f60448201527f74206c69737465640000000000000000000000000000000000000000000000006064820152608401610e44565b600a546001600160a01b0316331480611a6b57506000546001600160a01b031633145b611ac75760405162461bcd60e51b815260206004820152602760248201527f6f6e6c7920706175736520677561726469616e20616e642061646d696e2063616044820152666e20706175736560c81b6064820152608401610e44565b6000546001600160a01b0316331480611ae257506001821515145b611b2e5760405162461bcd60e51b815260206004820152601660248201527f6f6e6c792061646d696e2063616e20756e7061757365000000000000000000006044820152606401610e44565b6001600160a01b0383166000818152600b6020908152604091829020805460ff1916861515908117909155825193845260609184018290526004918401919091527f4d696e74000000000000000000000000000000000000000000000000000000006080840152908201527f71aec636243f9709bb0007ae15e9afb8150ab01716d75fd7573be5cc096e03b09060a0016112b9565b600080600080600080611bd88a8a8a8a61412e565b925092509250826011811115611bf057611bf0615b0f565b95509093509150505b9450945094915050565b6001600160a01b0383166000908152600b602052604081205460ff1615611c6c5760405162461bcd60e51b815260206004820152600e60248201527f6d696e74206973207061757365640000000000000000000000000000000000006044820152606401610e44565b6001600160a01b03841660009081526009602052604090205460ff16611c965760095b90506118c5565b611c9f84614477565b611ca8846146f4565b611cb2848461486c565b6000949350505050565b600080546001600160a01b03163314611cdb576112c46001600b614a0c565b600680549083905560408051828152602081018590527faeba5a6c40a8ac138134bff1aaa65debf25971188a58804bad717f82f0ec131691016118ba565b80158015611d275750600082115b156107335760405162461bcd60e51b815260206004820152601160248201527f72656465656d546f6b656e73207a65726f0000000000000000000000000000006044820152606401610e44565b600d8181548110611d8457600080fd5b6000918252602090912001546001600160a01b0316905081565b600080546001600160a01b03163314611dbd576112c460016010614a0c565b600480546001600160a01b0384811673ffffffffffffffffffffffffffffffffffffffff1983168117909355604080519190921680825260208201939093527fd52b2b9b7e9ee655fcb95d2e5b9e0c9f69e7ef2b8e9d2d0ea78402d576d22e2291016118ba565b611e2c613fc7565b611e785760405162461bcd60e51b815260206004820152601d60248201527f6f6e6c792061646d696e2063616e2073657420636f6d702073706565640000006044820152606401610e44565b611e8182612662565b80600003611ea7576001600160a01b038216600090815260186020526040812055611ec2565b436001600160a01b0383166000908152601860205260409020555b6001600160a01b03821660008181526017602052604090819020839055517f386537fa92edc3319af95f1f904dcf1900021e4f3f4e08169a577a09076e66b390611f0f9084815260200190565b60405180910390a25050565b600080600080600080611f3287600080600061412e565b925092509250826011811115611f4a57611f4a615b0f565b97919650945092505050565b600080546001600160a01b03163314611f75576112c460016013614a0c565b600a80546001600160a01b0384811673ffffffffffffffffffffffffffffffffffffffff1983168117909355604080519190921680825260208201939093527f0613b6ee6a04f0d09f390e4d9318894b9f6ac7fd83897cd8d18896ba579c401e91016118ba565b6001600160a01b03851660009081526009602052604081205460ff16158061201d57506001600160a01b03851660009081526009602052604090205460ff16155b1561202c5760095b90506121d3565b6040517f95dd91930000000000000000000000000000000000000000000000000000000081526001600160a01b038481166004830152600091908816906395dd919390602401602060405180830381865afa15801561208f573d6000803e3d6000fd5b505050506040513d601f19601f820116820180604052508101906120b39190615af6565b90506120be876128a8565b1561213e57828110156121395760405162461bcd60e51b815260206004820152602860248201527f43616e206e6f74207265706179206d6f7265207468616e2074686520746f746160448201527f6c20626f72726f770000000000000000000000000000000000000000000000006064820152608401610e44565b6121cd565b60008061214a86614a85565b9193509091506000905082601181111561216657612166615b0f565b146121875781601181111561217d5761217d615b0f565b93505050506121d3565b8060000361219657600361217d565b60006121b2604051806020016040528060055481525085614aa5565b9050808611156121c95760119450505050506121d3565b5050505b60009150505b95945050505050565b6000546001600160a01b03163314806121ff57506015546001600160a01b031633145b6122715760405162461bcd60e51b815260206004820152603560248201527f6f6e6c792061646d696e206f7220626f72726f7720636170206775617264696160448201527f6e2063616e2073657420626f72726f77206361707300000000000000000000006064820152608401610e44565b8281811580159061228157508082145b6122cd5760405162461bcd60e51b815260206004820152600d60248201527f696e76616c696420696e707574000000000000000000000000000000000000006044820152606401610e44565b60005b828110156123c9578484828181106122ea576122ea615a80565b905060200201356016600089898581811061230757612307615a80565b905060200201602081019061231c91906155a8565b6001600160a01b0316815260208101919091526040016000205586868281811061234857612348615a80565b905060200201602081019061235d91906155a8565b6001600160a01b03167f6f1951b2aad10f3fc81b86d91105b413a5b3f847a34bbc5ce1904201b14438f686868481811061239957612399615a80565b905060200201356040516123af91815260200190565b60405180910390a2806123c181615abf565b9150506122d0565b50505050505050565b60005b835181101561259f5760008482815181106123f2576123f2615a80565b6020908102919091018101516001600160a01b0381166000908152600990925260409091205490915060ff1661246a5760405162461bcd60e51b815260206004820152601560248201527f6d61726b6574206d757374206265206c697374656400000000000000000000006044820152606401610e44565b8315156001036125365760006040518060200160405280836001600160a01b031663aa5af0fd6040518163ffffffff1660e01b8152600401602060405180830381865afa1580156124bf573d6000803e3d6000fd5b505050506040513d601f19601f820116820180604052508101906124e39190615af6565b905290506124f18282613c39565b60005b8751811015612533576125218389838151811061251357612513615a80565b602002602001015184613e2c565b8061252b81615abf565b9150506124f4565b50505b82151560010361258c57612549816146f4565b60005b865181101561258a576125788288838151811061256b5761256b615a80565b602002602001015161486c565b8061258281615abf565b91505061254c565b505b508061259781615abf565b9150506123d5565b5060005b84518110156106365761260d8582815181106125c1576125c1615a80565b6020026020010151601460008885815181106125df576125df615a80565b60200260200101516001600160a01b03166001600160a01b0316815260200190815260200160002054613ff0565b6014600087848151811061262357612623615a80565b60200260200101516001600160a01b03166001600160a01b0316815260200190815260200160002081905550808061265a90615abf565b9150506125a3565b6001600160a01b038116600090815260176020908152604080832054601890925282205490914391612695908390613c2d565b90506000811180156126a75750600083115b156107335760006126b88285614abd565b6001600160a01b038616600090815260146020526040812054919250906126df9083613c21565b6001600160a01b0387166000908152601460209081526040808320939093556018905220849055505050505050565b600a546000906001600160a01b031633148061273457506000546001600160a01b031633145b6127905760405162461bcd60e51b815260206004820152602760248201527f6f6e6c7920706175736520677561726469616e20616e642061646d696e2063616044820152666e20706175736560c81b6064820152608401610e44565b6000546001600160a01b03163314806127ab57506001821515145b6127f75760405162461bcd60e51b815260206004820152601660248201527f6f6e6c792061646d696e2063616e20756e7061757365000000000000000000006044820152606401610e44565b600a8054831515760100000000000000000000000000000000000000000000027fffffffffffffffffff00ffffffffffffffffffffffffffffffffffffffffffff9091161790556040517fef159d9a32b2472e32b098f954f3ce62d232939f1c207070b584df1814de2de09061181990849060408082526008908201527f5472616e736665720000000000000000000000000000000000000000000000006060820152901515602082015260800190565b6001600160a01b0381166000908152600960205260408120600101541580156128ee57506001600160a01b0382166000908152600c602052604090205460ff1615156001145b80156112c45750816001600160a01b031663173b99046040518163ffffffff1660e01b8152600401602060405180830381865afa158015612933573d6000803e3d6000fd5b505050506040513d601f19601f820116820180604052508101906129579190615af6565b670de0b6b3a76400001492915050565b600080546001600160a01b03163314612986576112c460016012614a0c565b6001600160a01b03821660009081526009602052604090205460ff16156129b3576112c4600a6011614a0c565b816001600160a01b031663fe9c44ae6040518163ffffffff1660e01b8152600401602060405180830381865afa1580156129f1573d6000803e3d6000fd5b505050506040513d601f19601f82011682018060405250810190612a159190615b25565b506001600160a01b03821660009081526009602052604081208054600160ff1991821681178355600383018054909216909155810191909155612a5783614ac9565b612a6083614bc7565b612a6983614477565b6040516001600160a01b03841681527fcf583bb0c569eb967f806b11601c4cb93c10310485c67add5f8362c2f212321f906020016118ba565b612aaa613fc7565b612af65760405162461bcd60e51b815260206004820152601d60248201527f6f6e6c792061646d696e2063616e2073657420636f6d702073706565640000006044820152606401610e44565b8251825181148015612b085750815181145b612b7a5760405162461bcd60e51b815260206004820152602960248201527f436f6d7074726f6c6c65723a3a5f736574436f6d7053706565647320696e766160448201527f6c696420696e70757400000000000000000000000000000000000000000000006064820152608401610e44565b60005b8181101561063657612bdb858281518110612b9a57612b9a615a80565b6020026020010151858381518110612bb457612bb4615a80565b6020026020010151858481518110612bce57612bce615a80565b6020026020010151614cbd565b612be481615abf565b9050612b7d565b6001600160a01b0381166000908152600860209081526040808320805482518185028101850190935280835260609493830182828015612c5457602002820191906000526020600020905b81546001600160a01b03168152600190910190602001808311612c36575b5093979650505050505050565b6060600d805480602002602001604051908101604052809291908181526020018280548015612cb957602002820191906000526020600020905b81546001600160a01b03168152600190910190602001808311612c9b575b5050505050905090565b600a54600090760100000000000000000000000000000000000000000000900460ff1615612d335760405162461bcd60e51b815260206004820152601260248201527f7472616e736665722069732070617573656400000000000000000000000000006044820152606401610e44565b6000612d40868685614e9c565b90508015612d4f57905061157f565b612d5886614477565b612d61866146f4565b612d6b868661486c565b611579868561486c565b805160609060008167ffffffffffffffff811115612d9557612d95615479565b604051908082528060200260200182016040528015612dbe578160200160208202803683370190505b50905060005b82811015612e35576000858281518110612de057612de0615a80565b60200260200101519050612df48133614f54565b6011811115612e0557612e05615b0f565b838381518110612e1757612e17615a80565b60209081029190910101525080612e2d81615abf565b915050612dc4565b509392505050565b6004805460405163fc57d4df60e01b81526001600160a01b03868116938201939093526000928392839291169063fc57d4df90602401602060405180830381865afa158015612e90573d6000803e3d6000fd5b505050506040513d601f19601f82011682018060405250810190612eb49190615af6565b6004805460405163fc57d4df60e01b81526001600160a01b038981169382019390935292935060009291169063fc57d4df90602401602060405180830381865afa158015612f06573d6000803e3d6000fd5b505050506040513d601f19601f82011682018060405250810190612f2a9190615af6565b9050811580612f37575080155b15612f4b57600d6000935093505050613053565b6000866001600160a01b031663182df0f56040518163ffffffff1660e01b8152600401602060405180830381865afa158015612f8b573d6000803e3d6000fd5b505050506040513d601f19601f82011682018060405250810190612faf9190615af6565b90506000612fc96040518060200160405280600081525090565b60408051602080820183526000808352835180830185529081528351808301855260065481528451928301909452888252919261300591615055565b925061302d604051806020016040528088815250604051806020016040528088815250615055565b9150613039838361509d565b9050613045818b614aa5565b600099509750505050505050505b935093915050565b600a5460009077010000000000000000000000000000000000000000000000900460ff16156130cc5760405162461bcd60e51b815260206004820152600f60248201527f7365697a652069732070617573656400000000000000000000000000000000006044820152606401610e44565b6001600160a01b03861660009081526009602052604090205460ff16158061310d57506001600160a01b03851660009081526009602052604090205460ff16155b15613119576009612025565b846001600160a01b0316635fe3b5676040518163ffffffff1660e01b8152600401602060405180830381865afa158015613157573d6000803e3d6000fd5b505050506040513d601f19601f8201168201806040525081019061317b9190615ad9565b6001600160a01b0316866001600160a01b0316635fe3b5676040518163ffffffff1660e01b8152600401602060405180830381865afa1580156131c2573d6000803e3d6000fd5b505050506040513d601f19601f820116820180604052508101906131e69190615ad9565b6001600160a01b0316146131fb576002612025565b613204866146f4565b61320e868461486c565b613218868561486c565b60009695505050505050565b6001600160a01b0383166000908152600c602052604081205460ff161561328d5760405162461bcd60e51b815260206004820152601060248201527f626f72726f7720697320706175736564000000000000000000000000000000006044820152606401610e44565b6001600160a01b03841660009081526009602052604090205460ff166132b4576009611c8f565b6001600160a01b038085166000908152600960209081526040808320938716835260029093019052205460ff166133b957336001600160a01b0385161461333d5760405162461bcd60e51b815260206004820152601560248201527f73656e646572206d7573742062652063546f6b656e00000000000000000000006044820152606401610e44565b60006133493385614f54565b9050600081601181111561335f5761335f615b0f565b1461337e5780601181111561337657613376615b0f565b9150506118c5565b6001600160a01b038086166000908152600960209081526040808320938816835260029093019052205460ff166133b7576133b7615b42565b505b6004805460405163fc57d4df60e01b81526001600160a01b038781169382019390935291169063fc57d4df90602401602060405180830381865afa158015613405573d6000803e3d6000fd5b505050506040513d601f19601f820116820180604052508101906134299190615af6565b60000361343757600d611c8f565b6001600160a01b038416600090815260166020526040902054801561351c576000856001600160a01b03166347bd37186040518163ffffffff1660e01b8152600401602060405180830381865afa158015613496573d6000803e3d6000fd5b505050506040513d601f19601f820116820180604052508101906134ba9190615af6565b905060006134c88286613c21565b90508281106135195760405162461bcd60e51b815260206004820152601960248201527f6d61726b657420626f72726f77206361702072656163686564000000000000006044820152606401610e44565b50505b60008061352c868860008861412e565b9193509091506000905082601181111561354857613548615b0f565b146135695781601181111561355f5761355f615b0f565b93505050506118c5565b801561357657600461355f565b60006040518060200160405280896001600160a01b031663aa5af0fd6040518163ffffffff1660e01b8152600401602060405180830381865afa1580156135c1573d6000803e3d6000fd5b505050506040513d601f19601f820116820180604052508101906135e59190615af6565b905290506135f38882613c39565b6135fe888883613e2c565b600098975050505050505050565b6008602052816000526040600020818154811061362857600080fd5b6000918252602090912001546001600160a01b03169150829050565b600080546001600160a01b0316331461366a5761366360016006614a0c565b90506112c4565b6001600160a01b0383166000908152600960205260409020805460ff1661369f5761369760096007614a0c565b9150506112c4565b60408051602080820183528582528251908101909252670c7d713b49da00008252906136cd81835190511090565b156136e8576136de60066008614a0c565b93505050506112c4565b841580159061376457506004805460405163fc57d4df60e01b81526001600160a01b038981169382019390935291169063fc57d4df90602401602060405180830381865afa15801561373e573d6000803e3d6000fd5b505050506040513d601f19601f820116820180604052508101906137629190615af6565b155b15613775576136de600d6009614a0c565b60018301805490869055604080516001600160a01b0389168152602081018390529081018790527f70483e6592cd5182d45ac970e05bc62cdcc90e9d8ef2c2dbe686cf383bcd7fc59060600160405180910390a16000979650505050505050565b6114c681600d80548060200260200160405190810160405280929190818152602001828054801561383057602002820191906000526020600020905b81546001600160a01b03168152600190910190602001808311613812575b50505050506112ca565b600080613848858585614e9c565b905080156138575790506118c5565b613860856146f4565b61386a858561486c565b61387385614477565b600095945050505050565b6040517fc37f68e200000000000000000000000000000000000000000000000000000000815233600482015260009082908290819081906001600160a01b0385169063c37f68e290602401608060405180830381865afa1580156138e6573d6000803e3d6000fd5b505050506040513d601f19601f8201168201806040525081019061390a9190615b58565b50925092509250826000146139875760405162461bcd60e51b815260206004820152602560248201527f657869744d61726b65743a206765744163636f756e74536e617073686f74206660448201527f61696c65640000000000000000000000000000000000000000000000000000006064820152608401610e44565b80156139a357613999600c6002614a0c565b9695505050505050565b60006139b0873385614e9c565b905080156139d0576139c5600e6003836150d7565b979650505050505050565b6001600160a01b0385166000908152600960209081526040808320338452600281019092529091205460ff16613a0e57600098975050505050505050565b3360009081526002820160209081526040808320805460ff191690556008825280832080548251818502810185019093528083529192909190830182828015613a8057602002820191906000526020600020905b81546001600160a01b03168152600190910190602001808311613a62575b5050835193945083925060009150505b82811015613ae457896001600160a01b0316848281518110613ab457613ab4615a80565b60200260200101516001600160a01b031603613ad257809150613ae4565b80613adc81615abf565b915050613a90565b50818110613af457613af4615b42565b33600090815260086020526040902080548190613b1390600190615aac565b81548110613b2357613b23615a80565b9060005260206000200160009054906101000a90046001600160a01b0316818381548110613b5357613b53615a80565b9060005260206000200160006101000a8154816001600160a01b0302191690836001600160a01b0316021790555080805480613b9157613b91615b8e565b6000828152602090208101600019908101805473ffffffffffffffffffffffffffffffffffffffff191690550190556040517fe699a64c18b07ac5b7301aa273f36a2287239eb9501d81950672794afba29a0d90613c07908c9033906001600160a01b0392831681529116602082015260400190565b60405180910390a160009c9b505050505050505050505050565b60006118c58284615ba4565b60006118c58284615aac565b6001600160a01b038216600090815260116020908152604080832060199092528220549091613c9e435b6040518060400160405280601c81526020017f626c6f636b206e756d626572206578636565647320333220626974730000000081525061514f565b8354909150600090613cc09063ffffffff80851691600160e01b900416613c2d565b9050600081118015613cd25750600083115b15613e01576000613d44876001600160a01b03166347bd37186040518163ffffffff1660e01b8152600401602060405180830381865afa158015613d1a573d6000803e3d6000fd5b505050506040513d601f19601f82011682018060405250810190613d3e9190615af6565b8761517f565b90506000613d528386614abd565b90506000808311613d725760405180602001604052806000815250613d7c565b613d7c828461519d565b604080516020810190915288546001600160e01b03168152909150613ddf90613da590836151d9565b5160408051808201909152601a81527f6e657720696e64657820657863656564732032323420626974730000000000006020820152615205565b6001600160e01b0316600160e01b63ffffffff8716021787555061074d915050565b801561074d57835463ffffffff8316600160e01b026001600160e01b03909116178455505050505050565b6001600160a01b03838116600090815260116020908152604080832080546013845282852095881685529490925290912080546001600160e01b0390931690819055909180158015613e8d57506ec097ce7bc90715b34b9f10000000008210155b15613ea457506ec097ce7bc90715b34b9f10000000005b60006040518060200160405280613ebb8585613c2d565b90526040517f95dd91930000000000000000000000000000000000000000000000000000000081526001600160a01b038881166004830152919250600091613f2791908a16906395dd919390602401602060405180830381865afa158015613d1a573d6000803e3d6000fd5b90506000613f35828461522c565b6001600160a01b03891660009081526014602052604081205491925090613f5c9083613c21565b6001600160a01b038a811660008181526014602090815260409182902085905581518781529081018b90529394509092918d16917f1fc3ecc087d8d2d15e23d0032af5a47059c3892d003d8e139fdcb6bb327c99a6910160405180910390a350505050505050505050565b600080546001600160a01b0316331480613feb57506002546001600160a01b031633145b905090565b60008073c00e94cb662c3520282e6f5717214004a7f268886040516370a0823160e01b81523060048201529091506000906001600160a01b038316906370a0823190602401602060405180830381865afa158015614052573d6000803e3d6000fd5b505050506040513d601f19601f820116820180604052508101906140769190615af6565b90506000841180156140885750808411155b15614125576040517fa9059cbb0000000000000000000000000000000000000000000000000000000081526001600160a01b0386811660048301526024820186905283169063a9059cbb906044016020604051808303816000875af11580156140f5573d6000803e3d6000fd5b505050506040513d601f19601f820116820180604052508101906141199190615b25565b506000925050506112c4565b50919392505050565b600080600061413b6152c3565b6001600160a01b0388166000908152600860209081526040808320805482518185028101850190935280835284938301828280156141a257602002820191906000526020600020905b81546001600160a01b03168152600190910190602001808311614184575b5050505050905060005b81518110156144215760008282815181106141c9576141c9615a80565b60209081029190910101516040517fc37f68e20000000000000000000000000000000000000000000000000000000081526001600160a01b038e811660048301529192509082169063c37f68e290602401608060405180830381865afa158015614237573d6000803e3d6000fd5b505050506040513d601f19601f8201168201806040525081019061425b9190615b58565b6080890152606088015260408701529350831561428757600f6000809750975097505050505050611bf9565b60408051602080820183526001600160a01b0384811660008181526009845285902060010154845260c08a01939093528351808301855260808a0151815260e08a015260048054855163fc57d4df60e01b815291820194909452935192169263fc57d4df92602480830193928290030181865afa15801561430c573d6000803e3d6000fd5b505050506040513d601f19601f820116820180604052508101906143309190615af6565b60a0860181905260000361435357600d6000809750975097505050505050611bf9565b604080516020810190915260a0860151815261010086015260c085015160e086015161438d9161438291615055565b866101000151615055565b6101208601819052604086015186516143a7929190615256565b8552610100850151606086015160208701516143c4929190615256565b60208601526001600160a01b03808c169082160361440e576143f08561012001518b8760200151615256565b60208601819052610100860151614408918b90615256565b60208601525b508061441981615abf565b9150506141ac565b50602083015183511115614452576020830151835160009161444291615aac565b6000955095509550505050611bf9565b600080846000015185602001516144699190615aac565b955095509550505050611bf9565b6000816001600160a01b0316636f307dc36040518163ffffffff1660e01b8152600401602060405180830381865afa1580156144b7573d6000803e3d6000fd5b505050506040513d601f19601f820116820180604052508101906144db9190615ad9565b90506000816001600160a01b031663313ce5676040518163ffffffff1660e01b8152600401602060405180830381865afa15801561451d573d6000803e3d6000fd5b505050506040513d601f19601f820116820180604052508101906145419190615bb7565b90506000614550600283615bda565b61455b90600a615cd7565b6040516370a0823160e01b81523060048201529091506000906001600160a01b038516906370a0823190602401602060405180830381865afa1580156145a5573d6000803e3d6000fd5b505050506040513d601f19601f820116820180604052508101906145c99190615af6565b90506000856001600160a01b03166318160ddd6040518163ffffffff1660e01b8152600401602060405180830381865afa15801561460b573d6000803e3d6000fd5b505050506040513d601f19601f8201168201806040525081019061462f9190615af6565b90508061463c8484615ba4565b101561074d5760408051838152602081018390526001600160a01b038816917fa7a39dddda9ee8843070f2a6f51adc9477566ef2fc432c878a5d0bcbc4f42a5d910160405180910390a260405162461bcd60e51b815260206004820152603e60248201527f416e74692d646f6e6174696f6e2067756172643a20756e6465726c79696e672060448201527f62616c616e6365206c657373207468616e20746f74616c20737570706c7900006064820152608401610e44565b6001600160a01b0381166000908152601060209081526040808320601a909252822054909161472243613c63565b83549091506000906147449063ffffffff80851691600160e01b900416613c2d565b90506000811180156147565750600083115b15614842576000856001600160a01b03166318160ddd6040518163ffffffff1660e01b8152600401602060405180830381865afa15801561479b573d6000803e3d6000fd5b505050506040513d601f19601f820116820180604052508101906147bf9190615af6565b905060006147cd8386614abd565b905060008083116147ed57604051806020016040528060008152506147f7565b6147f7828461519d565b604080516020810190915288546001600160e01b0316815290915061482090613da590836151d9565b6001600160e01b0316600160e01b63ffffffff87160217875550610636915050565b801561063657835463ffffffff8316600160e01b026001600160e01b039091161784555050505050565b6001600160a01b03828116600090815260106020908152604080832080546012845282852095871685529490925290912080546001600160e01b03909316908190559091801580156148cd57506ec097ce7bc90715b34b9f10000000008210155b156148e457506ec097ce7bc90715b34b9f10000000005b600060405180602001604052806148fb8585613c2d565b90526040516370a0823160e01b81526001600160a01b0387811660048301529192506000918816906370a0823190602401602060405180830381865afa158015614949573d6000803e3d6000fd5b505050506040513d601f19601f8201168201806040525081019061496d9190615af6565b9050600061497b828461522c565b6001600160a01b038816600090815260146020526040812054919250906149a29083613c21565b6001600160a01b0389811660008181526014602090815260409182902085905581518781529081018b90529394509092918c16917f2caecd17d02f56fa897705dcc740da2d237c373f70686f4e0d9bd3bf0400ea7a910160405180910390a3505050505050505050565b60007f45b96fe442630264581b197e84bbada861235052c5a1aadfff9ea4e40a969aa0836011811115614a4157614a41615b0f565b836013811115614a5357614a53615b0f565b60408051928352602083019190915260009082015260600160405180910390a18260118111156118c5576118c5615b0f565b6000806000614a9884600080600061412e565b9250925092509193909250565b600080614ab28484615277565b905061157f8161529f565b60006118c58284615ce6565b60005b600d54811015614b6757816001600160a01b0316600d8281548110614af357614af3615a80565b6000918252602090912001546001600160a01b031603614b555760405162461bcd60e51b815260206004820152601460248201527f6d61726b657420616c72656164792061646465640000000000000000000000006044820152606401610e44565b80614b5f81615abf565b915050614acc565b50600d80546001810182556000919091527fd7b6990105719101dabeb77144f2a3385c8033acd3af97e9423a695e81ad1eb501805473ffffffffffffffffffffffffffffffffffffffff19166001600160a01b0392909216919091179055565b6000614bd243613c63565b6001600160a01b0383166000908152601060209081526040808320601190925282208154939450909290916001600160e01b039091169003614c465781547fffffffff00000000000000000000000000000000000000000000000000000000166ec097ce7bc90715b34b9f10000000001782555b80546001600160e01b0316600003614c905780547fffffffff00000000000000000000000000000000000000000000000000000000166ec097ce7bc90715b34b9f10000000001781555b805463ffffffff909316600160e01b026001600160e01b0393841681179091558154909216909117905550565b6001600160a01b0383166000908152600960205260409020805460ff16614d265760405162461bcd60e51b815260206004820152601960248201527f636f6d70206d61726b6574206973206e6f74206c6973746564000000000000006044820152606401610e44565b6001600160a01b0384166000908152601a60205260409020548314614da457614d4e846146f4565b6001600160a01b0384166000818152601a602052604090819020859055517fdeafccd0c0b768b2529f7dcbbe58e155d6023059150b7490ed4535cc3744b92d90614d9b9086815260200190565b60405180910390a25b6001600160a01b03841660009081526019602052604090205482146107335760006040518060200160405280866001600160a01b031663aa5af0fd6040518163ffffffff1660e01b8152600401602060405180830381865afa158015614e0e573d6000803e3d6000fd5b505050506040513d601f19601f82011682018060405250810190614e329190615af6565b90529050614e408582613c39565b6001600160a01b03851660008181526019602052604090819020859055517f20af8e791cc98f74b2d7a391c80980ca8e5aebf3d4060bf581997b6acae2e53790614e8d9086815260200190565b60405180910390a25050505050565b6001600160a01b03831660009081526009602052604081205460ff16614ec3576009611c8f565b6001600160a01b038085166000908152600960209081526040808320938716835260029093019052205460ff16614efb576000611c8f565b600080614f0b858786600061412e565b91935090915060009050826011811115614f2757614f27615b0f565b14614f4757816011811115614f3e57614f3e615b0f565b925050506118c5565b8015613218576004614f3e565b6001600160a01b0382166000908152600960205260408120805460ff16614f7f5760099150506112c4565b6001600160a01b038316600090815260028201602052604090205460ff161515600103614fb05760009150506112c4565b6001600160a01b03838116600081815260028401602090815260408083208054600160ff1990911681179091556008835281842080549182018155845292829020909201805473ffffffffffffffffffffffffffffffffffffffff1916948916948517905581519384528301919091527f3ab23ab0d51cccc0c3085aec51f99228625aa1a922b3a8ca89a26b0f2027a1a5910160405180910390a15060009392505050565b6040805160208101909152600081526040518060200160405280670de0b6b3a764000061508a86600001518660000151614abd565b6150949190615cfd565b90529392505050565b60408051602081019091526000815260405180602001604052806150946150d08660000151670de0b6b3a7640000614abd565b85516152b7565b60007f45b96fe442630264581b197e84bbada861235052c5a1aadfff9ea4e40a969aa084601181111561510c5761510c615b0f565b84601381111561511e5761511e615b0f565b604080519283526020830191909152810184905260600160405180910390a183601181111561157f5761157f615b0f565b60008164010000000084106151775760405162461bcd60e51b8152600401610e449190615d1f565b509192915050565b60006118c561519684670de0b6b3a7640000614abd565b83516152b7565b60408051602081019091526000815260405180602001604052806150946151d3866ec097ce7bc90715b34b9f1000000000614abd565b856152b7565b604080516020810190915260008152604051806020016040528061509485600001518560000151613c21565b600081600160e01b84106151775760405162461bcd60e51b8152600401610e449190615d1f565b60006ec097ce7bc90715b34b9f100000000061524c848460000151614abd565b6118c59190615cfd565b6000806152638585615277565b90506121d36152718261529f565b84613c21565b6040805160208101909152600081526040518060200160405280615094856000015185614abd565b80516000906112c490670de0b6b3a764000090615cfd565b60006118c58284615cfd565b60405180610140016040528060008152602001600081526020016000815260200160008152602001600081526020016000815260200161530f6040518060200160405280600081525090565b815260200161532a6040518060200160405280600081525090565b81526020016153456040518060200160405280600081525090565b81526020016153606040518060200160405280600081525090565b905290565b60008083601f84011261537757600080fd5b50813567ffffffffffffffff81111561538f57600080fd5b6020830191508360208260051b85010111156153aa57600080fd5b9250929050565b600080600080604085870312156153c757600080fd5b843567ffffffffffffffff808211156153df57600080fd5b6153eb88838901615365565b9096509450602087013591508082111561540457600080fd5b5061541187828801615365565b95989497509550505050565b6001600160a01b03811681146114c657600080fd5b80151581146114c657600080fd5b6000806040838503121561545357600080fd5b823561545e8161541d565b9150602083013561546e81615432565b809150509250929050565b634e487b7160e01b600052604160045260246000fd5b604051601f8201601f1916810167ffffffffffffffff811182821017156154b8576154b8615479565b604052919050565b600067ffffffffffffffff8211156154da576154da615479565b5060051b60200190565b600082601f8301126154f557600080fd5b8135602061550a615505836154c0565b61548f565b82815260059290921b8401810191818101908684111561552957600080fd5b8286015b8481101561554d5780356155408161541d565b835291830191830161552d565b509695505050505050565b6000806040838503121561556b57600080fd5b82356155768161541d565b9150602083013567ffffffffffffffff81111561559257600080fd5b61559e858286016154e4565b9150509250929050565b6000602082840312156155ba57600080fd5b81356118c58161541d565b600080600080600060a086880312156155dd57600080fd5b85356155e88161541d565b945060208601356155f88161541d565b935060408601356156088161541d565b94979396509394606081013594506080013592915050565b6000806000806080858703121561563657600080fd5b84356156418161541d565b935060208501356156518161541d565b925060408501356156618161541d565b9396929550929360600135925050565b6000806040838503121561568457600080fd5b823561568f8161541d565b946020939093013593505050565b6000602082840312156156af57600080fd5b81356118c581615432565b6000602082840312156156cc57600080fd5b5035919050565b600080600080608085870312156156e957600080fd5b84356156f48161541d565b935060208501356157048161541d565b93969395505050506040820135916060013590565b60008060008060008060c0878903121561573257600080fd5b863561573d8161541d565b9550602087013561574d8161541d565b9450604087013561575d8161541d565b9350606087013561576d8161541d565b9598949750929560808101359460a0909101359350915050565b60008060006060848603121561579c57600080fd5b83356157a78161541d565b925060208401356157b78161541d565b929592945050506040919091013590565b600080600080600060a086880312156157e057600080fd5b85356157eb8161541d565b945060208601356157fb8161541d565b9350604086013561580b8161541d565b9250606086013561581b8161541d565b949793965091946080013592915050565b6000806000806080858703121561584257600080fd5b843567ffffffffffffffff8082111561585a57600080fd5b615866888389016154e4565b9550602087013591508082111561587c57600080fd5b50615889878288016154e4565b935050604085013561589a81615432565b915060608501356158aa81615432565b939692955090935050565b600080604083850312156158c857600080fd5b82356158d38161541d565b9150602083013561546e8161541d565b600082601f8301126158f457600080fd5b81356020615904615505836154c0565b82815260059290921b8401810191818101908684111561592357600080fd5b8286015b8481101561554d5780358352918301918301615927565b60008060006060848603121561595357600080fd5b833567ffffffffffffffff8082111561596b57600080fd5b615977878388016154e4565b9450602086013591508082111561598d57600080fd5b615999878388016158e3565b935060408601359150808211156159af57600080fd5b506159bc868287016158e3565b9150509250925092565b6020808252825182820181905260009190848201906040850190845b81811015615a075783516001600160a01b0316835292840192918401916001016159e2565b50909695505050505050565b600060208284031215615a2557600080fd5b813567ffffffffffffffff811115615a3c57600080fd5b61157f848285016154e4565b6020808252825182820181905260009190848201906040850190845b81811015615a0757835183529284019291840191600101615a64565b634e487b7160e01b600052603260045260246000fd5b634e487b7160e01b600052601160045260246000fd5b818103818111156112c4576112c4615a96565b60006000198203615ad257615ad2615a96565b5060010190565b600060208284031215615aeb57600080fd5b81516118c58161541d565b600060208284031215615b0857600080fd5b5051919050565b634e487b7160e01b600052602160045260246000fd5b600060208284031215615b3757600080fd5b81516118c581615432565b634e487b7160e01b600052600160045260246000fd5b60008060008060808587031215615b6e57600080fd5b505082516020840151604085015160609095015191969095509092509050565b634e487b7160e01b600052603160045260246000fd5b808201808211156112c4576112c4615a96565b600060208284031215615bc957600080fd5b815160ff811681146118c557600080fd5b60ff82811682821603908111156112c4576112c4615a96565b600181815b80851115615c2e578160001904821115615c1457615c14615a96565b80851615615c2157918102915b93841c9390800290615bf8565b509250929050565b600082615c45575060016112c4565b81615c52575060006112c4565b8160018114615c685760028114615c7257615c8e565b60019150506112c4565b60ff841115615c8357615c83615a96565b50506001821b6112c4565b5060208310610133831016604e8410600b8410161715615cb1575081810a6112c4565b615cbb8383615bf3565b8060001904821115615ccf57615ccf615a96565b029392505050565b60006118c560ff841683615c36565b80820281158282048414176112c4576112c4615a96565b600082615d1a57634e487b7160e01b600052601260045260246000fd5b500490565b600060208083528351808285015260005b81811015615d4c57858101830151858201604001528201615d30565b506000604082860101526040601f19601f830116850101925050509291505056fea2646970667358221220808b566896e3dc65e123f7d9319bd8b4edb19a266a87fa5ffc12aa55f548e09e64736f6c63430008140033",
  "linkReferences": {},
  "deployedLinkReferences": {}
}