{
	"data": {
		"bytecode": {
			"linkReferences": {},
			"object": "608060405234801561000f575f5ffd5b5060405161878038038061878083398181016040528101906100319190610b25565b33600360016101000a81548173ffffffffffffffffffffffffffffffffffffffff021916908373ffffffffffffffffffffffffffffffffffffffff1602179055506100898a8a8a8a8a8a8a8a8a6100d960201b60201c565b80600360016101000a81548173ffffffffffffffffffffffffffffffffffffffff021916908373ffffffffffffffffffffffffffffffffffffffff1602179055505050505050505050505061136f565b6100ed88888888888861020e60201b60201c565b8860115f6101000a81548173ffffffffffffffffffffffffffffffffffffffff021916908373ffffffffffffffffffffffffffffffffffffffff16021790555060115f9054906101000a900473ffffffffffffffffffffffffffffffffffffffff1673ffffffffffffffffffffffffffffffffffffffff166318160ddd6040518163ffffffff1660e01b8152600401602060405180830381865afa158015610197573d5f5f3e3d5ffd5b505050506040513d601f19601f820116820180604052508101906101bb9190610c36565b508160125f6101000a81548173ffffffffffffffffffffffffffffffffffffffff021916908373ffffffffffffffffffffffffffffffffffffffff16021790555080601381905550505050505050505050565b600360019054906101000a900473ffffffffffffffffffffffffffffffffffffffff1673ffffffffffffffffffffffffffffffffffffffff163373ffffffffffffffffffffffffffffffffffffffff161461029e576040517f08c379a000000000000000000000000000000000000000000000000000000000815260040161029590610ce1565b60405180910390fd5b5f6009541480156102b057505f600a54145b6102ef576040517f08c379a00000000000000000000000000000000000000000000000000000000081526004016102e690610d6f565b60405180910390fd5b836007819055505f6007541161033a576040517f08c379a000000000000000000000000000000000000000000000000000000000815260040161033190610dfd565b60405180910390fd5b5f61034a8761046060201b60201c565b90505f811461038e576040517f08c379a000000000000000000000000000000000000000000000000000000000815260040161038590610e65565b60405180910390fd5b61039c61063a60201b60201c565b600981905550670de0b6b3a7640000600a819055506103c08661064160201b60201c565b90505f8114610404576040517f08c379a00000000000000000000000000000000000000000000000000000000081526004016103fb90610ef3565b60405180910390fd5b83600190816104139190611118565b5082600290816104239190611118565b508160035f6101000a81548160ff021916908360ff16021790555060015f5f6101000a81548160ff02191690831515021790555050505050505050565b5f600360019054906101000a900473ffffffffffffffffffffffffffffffffffffffff1673ffffffffffffffffffffffffffffffffffffffff163373ffffffffffffffffffffffffffffffffffffffff16146104e8576040517fd219dc1f00000000000000000000000000000000000000000000000000000000815260040160405180910390fd5b5f60055f9054906101000a900473ffffffffffffffffffffffffffffffffffffffff1690508273ffffffffffffffffffffffffffffffffffffffff16627e3dd26040518163ffffffff1660e01b8152600401602060405180830381865afa158015610555573d5f5f3e3d5ffd5b505050506040513d601f19601f82011682018060405250810190610579919061121c565b6105b8576040517f08c379a00000000000000000000000000000000000000000000000000000000081526004016105af90611291565b60405180910390fd5b8260055f6101000a81548173ffffffffffffffffffffffffffffffffffffffff021916908373ffffffffffffffffffffffffffffffffffffffff1602179055507f7ac369dbd14fa5ea3f473ed67cc9d598964a77501540ba6751eb0b3decf5870d8184604051610629929190611301565b60405180910390a15f915050919050565b5f43905090565b5f5f600360019054906101000a900473ffffffffffffffffffffffffffffffffffffffff1673ffffffffffffffffffffffffffffffffffffffff163373ffffffffffffffffffffffffffffffffffffffff16146106ca576040517f407fded500000000000000000000000000000000000000000000000000000000815260040160405180910390fd5b6106d861063a60201b60201c565b60095414610712576040517f17c54b9600000000000000000000000000000000000000000000000000000000815260040160405180910390fd5b60065f9054906101000a900473ffffffffffffffffffffffffffffffffffffffff1690508273ffffffffffffffffffffffffffffffffffffffff16632191f92a6040518163ffffffff1660e01b8152600401602060405180830381865afa15801561077f573d5f5f3e3d5ffd5b505050506040513d601f19601f820116820180604052508101906107a3919061121c565b6107e2576040517f08c379a00000000000000000000000000000000000000000000000000000000081526004016107d990611291565b60405180910390fd5b8260065f6101000a81548173ffffffffffffffffffffffffffffffffffffffff021916908373ffffffffffffffffffffffffffffffffffffffff1602179055507fedffc32e068c7c95dfd4bdfd5c4d939a084d6b11c4199eac8436ed234d72f9268184604051610853929190611348565b60405180910390a15f915050919050565b5f604051905090565b5f5ffd5b5f5ffd5b5f73ffffffffffffffffffffffffffffffffffffffff82169050919050565b5f61089e82610875565b9050919050565b6108ae81610894565b81146108b8575f5ffd5b50565b5f815190506108c9816108a5565b92915050565b5f6108d982610894565b9050919050565b6108e9816108cf565b81146108f3575f5ffd5b50565b5f81519050610904816108e0565b92915050565b5f61091482610894565b9050919050565b6109248161090a565b811461092e575f5ffd5b50565b5f8151905061093f8161091b565b92915050565b5f819050919050565b61095781610945565b8114610961575f5ffd5b50565b5f815190506109728161094e565b92915050565b5f5ffd5b5f5ffd5b5f601f19601f8301169050919050565b7f4e487b71000000000000000000000000000000000000000000000000000000005f52604160045260245ffd5b6109c682610980565b810181811067ffffffffffffffff821117156109e5576109e4610990565b5b80604052505050565b5f6109f7610864565b9050610a0382826109bd565b919050565b5f67ffffffffffffffff821115610a2257610a21610990565b5b610a2b82610980565b9050602081019050919050565b8281835e5f83830152505050565b5f610a58610a5384610a08565b6109ee565b905082815260208101848484011115610a7457610a7361097c565b5b610a7f848285610a38565b509392505050565b5f82601f830112610a9b57610a9a610978565b5b8151610aab848260208601610a46565b91505092915050565b5f60ff82169050919050565b610ac981610ab4565b8114610ad3575f5ffd5b50565b5f81519050610ae481610ac0565b92915050565b5f610af482610875565b9050919050565b610b0481610aea565b8114610b0e575f5ffd5b50565b5f81519050610b1f81610afb565b92915050565b5f5f5f5f5f5f5f5f5f5f6101408b8d031215610b4457610b4361086d565b5b5f610b518d828e016108bb565b9a50506020610b628d828e016108f6565b9950506040610b738d828e01610931565b9850506060610b848d828e01610964565b97505060808b015167ffffffffffffffff811115610ba557610ba4610871565b5b610bb18d828e01610a87565b96505060a08b015167ffffffffffffffff811115610bd257610bd1610871565b5b610bde8d828e01610a87565b95505060c0610bef8d828e01610ad6565b94505060e0610c008d828e016108bb565b935050610100610c128d828e01610964565b925050610120610c248d828e01610b11565b9150509295989b9194979a5092959850565b5f60208284031215610c4b57610c4a61086d565b5b5f610c5884828501610964565b91505092915050565b5f82825260208201905092915050565b7f6f6e6c792061646d696e206d617920696e697469616c697a6520746865206d615f8201527f726b657400000000000000000000000000000000000000000000000000000000602082015250565b5f610ccb602483610c61565b9150610cd682610c71565b604082019050919050565b5f6020820190508181035f830152610cf881610cbf565b9050919050565b7f6d61726b6574206d6179206f6e6c7920626520696e697469616c697a6564206f5f8201527f6e63650000000000000000000000000000000000000000000000000000000000602082015250565b5f610d59602383610c61565b9150610d6482610cff565b604082019050919050565b5f6020820190508181035f830152610d8681610d4d565b9050919050565b7f696e697469616c2065786368616e67652072617465206d7573742062652067725f8201527f6561746572207468616e207a65726f2e00000000000000000000000000000000602082015250565b5f610de7603083610c61565b9150610df282610d8d565b604082019050919050565b5f6020820190508181035f830152610e1481610ddb565b9050919050565b7f73657474696e6720636f6d7074726f6c6c6572206661696c65640000000000005f82015250565b5f610e4f601a83610c61565b9150610e5a82610e1b565b602082019050919050565b5f6020820190508181035f830152610e7c81610e43565b9050919050565b7f73657474696e6720696e7465726573742072617465206d6f64656c206661696c5f8201527f6564000000000000000000000000000000000000000000000000000000000000602082015250565b5f610edd602283610c61565b9150610ee882610e83565b604082019050919050565b5f6020820190508181035f830152610f0a81610ed1565b9050919050565b5f81519050919050565b7f4e487b71000000000000000000000000000000000000000000000000000000005f52602260045260245ffd5b5f6002820490506001821680610f5f57607f821691505b602082108103610f7257610f71610f1b565b5b50919050565b5f819050815f5260205f209050919050565b5f6020601f8301049050919050565b5f82821b905092915050565b5f60088302610fd47fffffffffffffffffffffffffffffffffffffffffffffffffffffffffffffffff82610f99565b610fde8683610f99565b95508019841693508086168417925050509392505050565b5f819050919050565b5f61101961101461100f84610945565b610ff6565b610945565b9050919050565b5f819050919050565b61103283610fff565b61104661103e82611020565b848454610fa5565b825550505050565b5f5f905090565b61105d61104e565b611068818484611029565b505050565b5b8181101561108b576110805f82611055565b60018101905061106e565b5050565b601f8211156110d0576110a181610f78565b6110aa84610f8a565b810160208510156110b9578190505b6110cd6110c585610f8a565b83018261106d565b50505b505050565b5f82821c905092915050565b5f6110f05f19846008026110d5565b1980831691505092915050565b5f61110883836110e1565b9150826002028217905092915050565b61112182610f11565b67ffffffffffffffff81111561113a57611139610990565b5b6111448254610f48565b61114f82828561108f565b5f60209050601f831160018114611180575f841561116e578287015190505b61117885826110fd565b8655506111df565b601f19841661118e86610f78565b5f5b828110156111b557848901518255600182019150602085019450602081019050611190565b868310156111d257848901516111ce601f8916826110e1565b8355505b6001600288020188555050505b505050505050565b5f8115159050919050565b6111fb816111e7565b8114611205575f5ffd5b50565b5f81519050611216816111f2565b92915050565b5f602082840312156112315761123061086d565b5b5f61123e84828501611208565b91505092915050565b7f6d61726b6572206d6574686f642072657475726e65642066616c7365000000005f82015250565b5f61127b601c83610c61565b915061128682611247565b602082019050919050565b5f6020820190508181035f8301526112a88161126f565b9050919050565b5f6112c96112c46112bf84610875565b610ff6565b610875565b9050919050565b5f6112da826112af565b9050919050565b5f6112eb826112d0565b9050919050565b6112fb816112e1565b82525050565b5f6040820190506113145f8301856112f2565b61132160208301846112f2565b9392505050565b5f611332826112d0565b9050919050565b61134281611328565b82525050565b5f60408201905061135b5f830185611339565b6113686020830184611339565b9392505050565b6174048061137c5f395ff3fe608060405234801561000f575f5ffd5b5060043610610397575f3560e01c80639003adfe116101e7578063c37f68e21161010d578063f3fdb15a116100ab578063f8f9da281161007a578063f8f9da2814610b7c578063fc0c546a14610b9a578063fca7820b14610bb8578063fe9c44ae14610be857610397565b8063f3fdb15a14610af4578063f46901ed14610b12578063f5e3c46214610b2e578063f851a44014610b5e57610397565b8063dd62ed3e116100e7578063dd62ed3e14610a5a578063e9c714f214610a8a578063eddd0d9c14610aa8578063f2b3abbd14610ac457610397565b8063c37f68e2146109c7578063c5ebeaec146109fa578063db006a7514610a2a57610397565b8063a6afed9511610185578063b2a02ff111610154578063b2a02ff11461093f578063b71d1a0c1461096f578063bb57ad201461099f578063bd6d894d146109a957610397565b8063a6afed95146108b5578063a9059cbb146108d3578063aa5af0fd14610903578063ae9d70b01461092157610397565b806397c8bcc1116101c157806397c8bcc11461082f57806399d8c1b41461084d578063a0712d6814610869578063a07eaa061461089957610397565b80639003adfe146107c357806395d89b41146107e157806395dd9193146107ff57610397565b80633b1d21a2116102cc57806369ab32501161026a57806373acee981161023957806373acee981461073b5780637f1e06be14610759578063852a12e3146107755780638f840ddd146107a557610397565b806369ab3250146106b15780636c540baf146106cf5780636f307dc3146106ed57806370a082311461070b57610397565b806347bd3718116102a657806347bd3718146106275780635fe3b56714610645578063601a0bf1146106635780636752e7021461069357610397565b80633b1d21a2146105a95780633e941010146105c75780634576b5db146105f757610397565b8063182df0f5116103395780632608f818116103135780632608f8181461050d578063267822471461053d578063313ce5671461055b5780633af9e6691461057957610397565b8063182df0f5146104a35780631be19560146104c157806323b872dd146104dd57610397565b80630e752702116103755780630e75270214610407578063173b99041461043757806317bfdfbc1461045557806318160ddd1461048557610397565b8063017e7e581461039b57806306fdde03146103b9578063095ea7b3146103d7575b5f5ffd5b6103a3610c06565b6040516103b0919061563c565b60405180910390f35b6103c1610c2b565b6040516103ce91906156c5565b60405180910390f35b6103f160048036038101906103ec9190615753565b610cb7565b6040516103fe91906157ab565b60405180910390f35b610421600480360381019061041c91906157c4565b610da9565b60405161042e91906157fe565b60405180910390f35b61043f610dbb565b60405161044c91906157fe565b60405180910390f35b61046f600480360381019061046a9190615817565b610dc1565b60405161047c91906157fe565b60405180910390f35b61048d610e59565b60405161049a91906157fe565b60405180910390f35b6104ab610e5f565b6040516104b891906157fe565b60405180910390f35b6104db60048036038101906104d6919061587d565b610e6d565b005b6104f760048036038101906104f291906158a8565b611095565b60405161050491906157ab565b60405180910390f35b61052760048036038101906105229190615753565b61112b565b60405161053491906157fe565b60405180910390f35b61054561113f565b6040516105529190615918565b60405180910390f35b610563611164565b604051610570919061594c565b60405180910390f35b610593600480360381019061058e9190615817565b611176565b6040516105a091906157fe565b60405180910390f35b6105b16111df565b6040516105be91906157fe565b60405180910390f35b6105e160048036038101906105dc91906157c4565b6111ed565b6040516105ee91906157fe565b60405180910390f35b610611600480360381019061060c91906159a0565b6111fe565b60405161061e91906157fe565b60405180910390f35b61062f6113d8565b60405161063c91906157fe565b60405180910390f35b61064d6113de565b60405161065a9190615a26565b60405180910390f35b61067d600480360381019061067891906157c4565b611403565b60405161068a91906157fe565b60405180910390f35b61069b61149b565b6040516106a891906157fe565b60405180910390f35b6106b96114a6565b6040516106c691906157fe565b60405180910390f35b6106d76114aa565b6040516106e491906157fe565b60405180910390f35b6106f56114b0565b604051610702919061563c565b60405180910390f35b61072560048036038101906107209190615817565b6114d5565b60405161073291906157fe565b60405180910390f35b61074361151b565b60405161075091906157fe565b60405180910390f35b610773600480360381019061076e9190615817565b6115ab565b005b61078f600480360381019061078a91906157c4565b6116c5565b60405161079c91906157fe565b60405180910390f35b6107ad6116d7565b6040516107ba91906157fe565b60405180910390f35b6107cb6116dd565b6040516107d891906157fe565b60405180910390f35b6107e96116e3565b6040516107f691906156c5565b60405180910390f35b61081960048036038101906108149190615817565b61176f565b60405161082691906157fe565b60405180910390f35b610837611780565b60405161084491906157fe565b60405180910390f35b61086760048036038101906108629190615bd0565b611786565b005b610883600480360381019061087e91906157c4565b6119c6565b60405161089091906157fe565b60405180910390f35b6108b360048036038101906108ae9190615c91565b611a45565b005b6108bd611b74565b6040516108ca91906157fe565b60405180910390f35b6108ed60048036038101906108e89190615753565b611d7c565b6040516108fa91906157ab565b60405180910390f35b61090b611e11565b60405161091891906157fe565b60405180910390f35b610929611e17565b60405161093691906157fe565b60405180910390f35b610959600480360381019061095491906158a8565b611ec9565b60405161096691906157fe565b60405180910390f35b61098960048036038101906109849190615db7565b611f5e565b60405161099691906157fe565b60405180910390f35b6109a761208d565b005b6109b16121e6565b6040516109be91906157fe565b60405180910390f35b6109e160048036038101906109dc9190615817565b61227b565b6040516109f19493929190615de2565b60405180910390f35b610a146004803603810190610a0f91906157c4565b6122de565b604051610a2191906157fe565b60405180910390f35b610a446004803603810190610a3f91906157c4565b6122f0565b604051610a5191906157fe565b60405180910390f35b610a746004803603810190610a6f9190615e25565b612302565b604051610a8191906157fe565b60405180910390f35b610a92612384565b604051610a9f91906157fe565b60405180910390f35b610ac26004803603810190610abd91906157c4565b6125ed565b005b610ade6004803603810190610ad99190615e63565b6126cc565b604051610aeb91906157fe565b60405180910390f35b610afc6126e6565b604051610b099190615eae565b60405180910390f35b610b2c6004803603810190610b279190615817565b61270b565b005b610b486004803603810190610b439190615f02565b6127de565b604051610b5591906157fe565b60405180910390f35b610b666127f4565b604051610b739190615918565b60405180910390f35b610b8461281a565b604051610b9191906157fe565b60405180910390f35b610ba26128c8565b604051610baf9190615f72565b60405180910390f35b610bd26004803603810190610bcd91906157c4565b6128ed565b604051610bdf91906157fe565b60405180910390f35b610bf0612985565b604051610bfd91906157ab565b60405180910390f35b60125f9054906101000a900473ffffffffffffffffffffffffffffffffffffffff1681565b60018054610c3890615fb8565b80601f0160208091040260200160405190810160405280929190818152602001828054610c6490615fb8565b8015610caf5780601f10610c8657610100808354040283529160200191610caf565b820191905f5260205f20905b815481529060010190602001808311610c9257829003601f168201915b505050505081565b5f5f33905082600f5f8373ffffffffffffffffffffffffffffffffffffffff1673ffffffffffffffffffffffffffffffffffffffff1681526020019081526020015f205f8673ffffffffffffffffffffffffffffffffffffffff1673ffffffffffffffffffffffffffffffffffffffff1681526020019081526020015f20819055508373ffffffffffffffffffffffffffffffffffffffff168173ffffffffffffffffffffffffffffffffffffffff167f8c5be1e5ebec7d5bd14f71427d1e84f3dd0314c0f7b2291e5b200ac8c7c3b92585604051610d9691906157fe565b60405180910390a3600191505092915050565b5f610db38261298a565b5f9050919050565b60085481565b5f5f5f9054906101000a900460ff16610e0f576040517f08c379a0000000000000000000000000000000000000000000000000000000008152600401610e0690616032565b60405180910390fd5b5f5f5f6101000a81548160ff021916908315150217905550610e2f611b74565b50610e398261176f565b905060015f5f6101000a81548160ff021916908315150217905550919050565b600d5481565b5f610e68612a20565b905090565b600360019054906101000a900473ffffffffffffffffffffffffffffffffffffffff1673ffffffffffffffffffffffffffffffffffffffff163373ffffffffffffffffffffffffffffffffffffffff1614610efd576040517f08c379a0000000000000000000000000000000000000000000000000000000008152600401610ef4906160c0565b60405180910390fd5b60115f9054906101000a900473ffffffffffffffffffffffffffffffffffffffff1673ffffffffffffffffffffffffffffffffffffffff168173ffffffffffffffffffffffffffffffffffffffff1603610f8c576040517f08c379a0000000000000000000000000000000000000000000000000000000008152600401610f839061614e565b60405180910390fd5b5f8173ffffffffffffffffffffffffffffffffffffffff166370a08231306040518263ffffffff1660e01b8152600401610fc6919061563c565b602060405180830381865afa158015610fe1573d5f5f3e3d5ffd5b505050506040513d601f19601f820116820180604052508101906110059190616180565b90508173ffffffffffffffffffffffffffffffffffffffff1663a9059cbb600360019054906101000a900473ffffffffffffffffffffffffffffffffffffffff16836040518363ffffffff1660e01b81526004016110649291906161cb565b5f604051808303815f87803b15801561107b575f5ffd5b505af115801561108d573d5f5f3e3d5ffd5b505050505050565b5f5f5f9054906101000a900460ff166110e3576040517f08c379a00000000000000000000000000000000000000000000000000000000081526004016110da90616032565b60405180910390fd5b5f5f5f6101000a81548160ff0219169083151502179055505f61110833868686612a8f565b14905060015f5f6101000a81548160ff0219169083151502179055509392505050565b5f6111368383612efc565b5f905092915050565b60045f9054906101000a900473ffffffffffffffffffffffffffffffffffffffff1681565b60035f9054906101000a900460ff1681565b5f5f604051806020016040528061118b6121e6565b81525090506111d781600e5f8673ffffffffffffffffffffffffffffffffffffffff1673ffffffffffffffffffffffffffffffffffffffff1681526020019081526020015f2054612f93565b915050919050565b5f6111e8612fb3565b905090565b5f6111f782613057565b9050919050565b5f600360019054906101000a900473ffffffffffffffffffffffffffffffffffffffff1673ffffffffffffffffffffffffffffffffffffffff163373ffffffffffffffffffffffffffffffffffffffff1614611286576040517fd219dc1f00000000000000000000000000000000000000000000000000000000815260040160405180910390fd5b5f60055f9054906101000a900473ffffffffffffffffffffffffffffffffffffffff1690508273ffffffffffffffffffffffffffffffffffffffff16627e3dd26040518163ffffffff1660e01b8152600401602060405180830381865afa1580156112f3573d5f5f3e3d5ffd5b505050506040513d601f19601f82011682018060405250810190611317919061621c565b611356576040517f08c379a000000000000000000000000000000000000000000000000000000000815260040161134d90616291565b60405180910390fd5b8260055f6101000a81548173ffffffffffffffffffffffffffffffffffffffff021916908373ffffffffffffffffffffffffffffffffffffffff1602179055507f7ac369dbd14fa5ea3f473ed67cc9d598964a77501540ba6751eb0b3decf5870d81846040516113c79291906162af565b60405180910390a15f915050919050565b600b5481565b60055f9054906101000a900473ffffffffffffffffffffffffffffffffffffffff1681565b5f5f5f9054906101000a900460ff16611451576040517f08c379a000000000000000000000000000000000000000000000000000000000815260040161144890616032565b60405180910390fd5b5f5f5f6101000a81548160ff021916908315150217905550611471611b74565b5061147b826130f2565b905060015f5f6101000a81548160ff021916908315150217905550919050565b666379da05b6000081565b5f81565b60095481565b60115f9054906101000a900473ffffffffffffffffffffffffffffffffffffffff1681565b5f600e5f8373ffffffffffffffffffffffffffffffffffffffff1673ffffffffffffffffffffffffffffffffffffffff1681526020019081526020015f20549050919050565b5f5f5f9054906101000a900460ff16611569576040517f08c379a000000000000000000000000000000000000000000000000000000000815260040161156090616032565b60405180910390fd5b5f5f5f6101000a81548160ff021916908315150217905550611589611b74565b50600b54905060015f5f6101000a81548160ff02191690831515021790555090565b600360019054906101000a900473ffffffffffffffffffffffffffffffffffffffff1673ffffffffffffffffffffffffffffffffffffffff163373ffffffffffffffffffffffffffffffffffffffff161461163b576040517f08c379a000000000000000000000000000000000000000000000000000000000815260040161163290616346565b60405180910390fd5b60115f9054906101000a900473ffffffffffffffffffffffffffffffffffffffff1673ffffffffffffffffffffffffffffffffffffffff16635c19a95c826040518263ffffffff1660e01b8152600401611695919061563c565b5f604051808303815f87803b1580156116ac575f5ffd5b505af11580156116be573d5f5f3e3d5ffd5b5050505050565b5f6116cf826132e3565b5f9050919050565b600c5481565b60145481565b600280546116f090615fb8565b80601f016020809104026020016040519081016040528092919081815260200182805461171c90615fb8565b80156117675780601f1061173e57610100808354040283529160200191611767565b820191905f5260205f20905b81548152906001019060200180831161174a57829003601f168201915b505050505081565b5f61177982613378565b9050919050565b60135481565b600360019054906101000a900473ffffffffffffffffffffffffffffffffffffffff1673ffffffffffffffffffffffffffffffffffffffff163373ffffffffffffffffffffffffffffffffffffffff1614611816576040517f08c379a000000000000000000000000000000000000000000000000000000000815260040161180d906163d4565b60405180910390fd5b5f60095414801561182857505f600a54145b611867576040517f08c379a000000000000000000000000000000000000000000000000000000000815260040161185e90616462565b60405180910390fd5b836007819055505f600754116118b2576040517f08c379a00000000000000000000000000000000000000000000000000000000081526004016118a9906164f0565b60405180910390fd5b5f6118bc876111fe565b90505f8114611900576040517f08c379a00000000000000000000000000000000000000000000000000000000081526004016118f790616558565b60405180910390fd5b6119086133fa565b600981905550670de0b6b3a7640000600a8190555061192686613401565b90505f811461196a576040517f08c379a0000000000000000000000000000000000000000000000000000000008152600401611961906165e6565b60405180910390fd5b8360019081611979919061679b565b508260029081611989919061679b565b508160035f6101000a81548160ff021916908360ff16021790555060015f5f6101000a81548160ff02191690831515021790555050505050505050565b5f5f8211611a09576040517f08c379a0000000000000000000000000000000000000000000000000000000008152600401611a00906168da565b60405180910390fd5b611a3460155f9054906101000a900473ffffffffffffffffffffffffffffffffffffffff168361361e565b611a3d8261379e565b5f9050919050565b611a53888888888888611786565b8860115f6101000a81548173ffffffffffffffffffffffffffffffffffffffff021916908373ffffffffffffffffffffffffffffffffffffffff16021790555060115f9054906101000a900473ffffffffffffffffffffffffffffffffffffffff1673ffffffffffffffffffffffffffffffffffffffff166318160ddd6040518163ffffffff1660e01b8152600401602060405180830381865afa158015611afd573d5f5f3e3d5ffd5b505050506040513d601f19601f82011682018060405250810190611b219190616180565b508160125f6101000a81548173ffffffffffffffffffffffffffffffffffffffff021916908373ffffffffffffffffffffffffffffffffffffffff16021790555080601381905550505050505050505050565b5f5f611b7e6133fa565b90505f6009549050818103611b97575f92505050611d79565b5f611ba0612fb3565b90505f600b5490505f600c5490505f600a5490505f60065f9054906101000a900473ffffffffffffffffffffffffffffffffffffffff1673ffffffffffffffffffffffffffffffffffffffff166315f240538686866040518463ffffffff1660e01b8152600401611c13939291906168f8565b602060405180830381865afa158015611c2e573d5f5f3e3d5ffd5b505050506040513d601f19601f82011682018060405250810190611c529190616180565b905065048c27395000811115611c9d576040517f08c379a0000000000000000000000000000000000000000000000000000000008152600401611c9490616977565b60405180910390fd5b5f8688611caa91906169c2565b90505f611cc560405180602001604052808581525083613832565b90505f611cd28288612f93565b90505f8782611ce191906169f5565b90505f611cff6040518060200160405280600854815250848a61385d565b90505f611d0d85898a61385d565b90508c60098190555080600a8190555082600b8190555081600c819055507f4dec04e750ca11537cabcd8a9eab06494de08da3735bc8871cd41250e190bc048b858386604051611d609493929190615de2565b60405180910390a15f9d50505050505050505050505050505b90565b5f5f5f9054906101000a900460ff16611dca576040517f08c379a0000000000000000000000000000000000000000000000000000000008152600401611dc190616032565b60405180910390fd5b5f5f5f6101000a81548160ff0219169083151502179055505f611def33338686612a8f565b14905060015f5f6101000a81548160ff02191690831515021790555092915050565b600a5481565b5f60065f9054906101000a900473ffffffffffffffffffffffffffffffffffffffff1673ffffffffffffffffffffffffffffffffffffffff1663b8168816611e5d612fb3565b600b54600c546008546040518563ffffffff1660e01b8152600401611e859493929190615de2565b602060405180830381865afa158015611ea0573d5f5f3e3d5ffd5b505050506040513d601f19601f82011682018060405250810190611ec49190616180565b905090565b5f5f5f9054906101000a900460ff16611f17576040517f08c379a0000000000000000000000000000000000000000000000000000000008152600401611f0e90616032565b60405180910390fd5b5f5f5f6101000a81548160ff021916908315150217905550611f3b33858585613887565b5f905060015f5f6101000a81548160ff0219169083151502179055509392505050565b5f600360019054906101000a900473ffffffffffffffffffffffffffffffffffffffff1673ffffffffffffffffffffffffffffffffffffffff163373ffffffffffffffffffffffffffffffffffffffff1614611fe6576040517f5cb56c2b00000000000000000000000000000000000000000000000000000000815260040160405180910390fd5b5f60045f9054906101000a900473ffffffffffffffffffffffffffffffffffffffff1690508260045f6101000a81548173ffffffffffffffffffffffffffffffffffffffff021916908373ffffffffffffffffffffffffffffffffffffffff1602179055507fca4f2f25d0898edd99413412fb94012f9e54ec8142f9b093e7720646a95b16a9818460405161207c929190616a28565b60405180910390a15f915050919050565b600360019054906101000a900473ffffffffffffffffffffffffffffffffffffffff1673ffffffffffffffffffffffffffffffffffffffff163373ffffffffffffffffffffffffffffffffffffffff161461211d576040517f08c379a000000000000000000000000000000000000000000000000000000000815260040161211490616a99565b60405180910390fd5b60155f9054906101000a900473ffffffffffffffffffffffffffffffffffffffff1673ffffffffffffffffffffffffffffffffffffffff1663a9059cbb60125f9054906101000a900473ffffffffffffffffffffffffffffffffffffffff166014546040518363ffffffff1660e01b815260040161219c929190616ab7565b6020604051808303815f875af11580156121b8573d5f5f3e3d5ffd5b505050506040513d601f19601f820116820180604052508101906121dc919061621c565b505f601481905550565b5f5f5f9054906101000a900460ff16612234576040517f08c379a000000000000000000000000000000000000000000000000000000000815260040161222b90616032565b60405180910390fd5b5f5f5f6101000a81548160ff021916908315150217905550612254611b74565b5061225d610e5f565b905060015f5f6101000a81548160ff02191690831515021790555090565b5f5f5f5f5f600e5f8773ffffffffffffffffffffffffffffffffffffffff1673ffffffffffffffffffffffffffffffffffffffff1681526020019081526020015f20546122c787613378565b6122cf612a20565b93509350935093509193509193565b5f6122e882613c7d565b5f9050919050565b5f6122fa82613d11565b5f9050919050565b5f600f5f8473ffffffffffffffffffffffffffffffffffffffff1673ffffffffffffffffffffffffffffffffffffffff1681526020019081526020015f205f8373ffffffffffffffffffffffffffffffffffffffff1673ffffffffffffffffffffffffffffffffffffffff1681526020019081526020015f2054905092915050565b5f60045f9054906101000a900473ffffffffffffffffffffffffffffffffffffffff1673ffffffffffffffffffffffffffffffffffffffff163373ffffffffffffffffffffffffffffffffffffffff1614158061240c57505f73ffffffffffffffffffffffffffffffffffffffff163373ffffffffffffffffffffffffffffffffffffffff16145b15612443576040517f6e893ca400000000000000000000000000000000000000000000000000000000815260040160405180910390fd5b5f600360019054906101000a900473ffffffffffffffffffffffffffffffffffffffff1690505f60045f9054906101000a900473ffffffffffffffffffffffffffffffffffffffff16905060045f9054906101000a900473ffffffffffffffffffffffffffffffffffffffff16600360016101000a81548173ffffffffffffffffffffffffffffffffffffffff021916908373ffffffffffffffffffffffffffffffffffffffff1602179055505f60045f6101000a81548173ffffffffffffffffffffffffffffffffffffffff021916908373ffffffffffffffffffffffffffffffffffffffff1602179055507ff9ffabca9c8276e99321725bcb43fb076a6c66a54b7f21c4e8146d8519b417dc82600360019054906101000a900473ffffffffffffffffffffffffffffffffffffffff16604051612583929190616a28565b60405180910390a17fca4f2f25d0898edd99413412fb94012f9e54ec8142f9b093e7720646a95b16a98160045f9054906101000a900473ffffffffffffffffffffffffffffffffffffffff166040516125dd929190616a28565b60405180910390a15f9250505090565b600360019054906101000a900473ffffffffffffffffffffffffffffffffffffffff1673ffffffffffffffffffffffffffffffffffffffff163373ffffffffffffffffffffffffffffffffffffffff161461267d576040517f08c379a000000000000000000000000000000000000000000000000000000000815260040161267490616b4e565b60405180910390fd5b6103e88111156126c2576040517f08c379a00000000000000000000000000000000000000000000000000000000081526004016126b990616bb6565b60405180910390fd5b8060138190555050565b5f6126d5611b74565b506126df82613401565b9050919050565b60065f9054906101000a900473ffffffffffffffffffffffffffffffffffffffff1681565b600360019054906101000a900473ffffffffffffffffffffffffffffffffffffffff1673ffffffffffffffffffffffffffffffffffffffff163373ffffffffffffffffffffffffffffffffffffffff161461279b576040517f08c379a000000000000000000000000000000000000000000000000000000000815260040161279290616c44565b60405180910390fd5b8060125f6101000a81548173ffffffffffffffffffffffffffffffffffffffff021916908373ffffffffffffffffffffffffffffffffffffffff16021790555050565b5f6127ea848484613da6565b5f90509392505050565b600360019054906101000a900473ffffffffffffffffffffffffffffffffffffffff1681565b5f60065f9054906101000a900473ffffffffffffffffffffffffffffffffffffffff1673ffffffffffffffffffffffffffffffffffffffff166315f24053612860612fb3565b600b54600c546040518463ffffffff1660e01b8152600401612884939291906168f8565b602060405180830381865afa15801561289f573d5f5f3e3d5ffd5b505050506040513d601f19601f820116820180604052508101906128c39190616180565b905090565b60155f9054906101000a900473ffffffffffffffffffffffffffffffffffffffff1681565b5f5f5f9054906101000a900460ff1661293b576040517f08c379a000000000000000000000000000000000000000000000000000000000815260040161293290616032565b60405180910390fd5b5f5f5f6101000a81548160ff02191690831515021790555061295b611b74565b5061296582613ef4565b905060015f5f6101000a81548160ff021916908315150217905550919050565b600181565b5f5f9054906101000a900460ff166129d7576040517f08c379a00000000000000000000000000000000000000000000000000000000081526004016129ce90616032565b60405180910390fd5b5f5f5f6101000a81548160ff0219169083151502179055506129f7611b74565b50612a0333338361404f565b5060015f5f6101000a81548160ff02191690831515021790555050565b5f5f600d5490505f8103612a3957600754915050612a8c565b5f612a42612fb3565b90505f600c54600b5483612a5691906169f5565b612a6091906169c2565b90505f83670de0b6b3a764000083612a789190616c62565b612a829190616cd0565b9050809450505050505b90565b5f5f60055f9054906101000a900473ffffffffffffffffffffffffffffffffffffffff1673ffffffffffffffffffffffffffffffffffffffff1663bdcdc258308787876040518563ffffffff1660e01b8152600401612af19493929190616d00565b6020604051808303815f875af1158015612b0d573d5f5f3e3d5ffd5b505050506040513d601f19601f82011682018060405250810190612b319190616180565b90505f8114612b7757806040517f113a84ee000000000000000000000000000000000000000000000000000000008152600401612b6e91906157fe565b60405180910390fd5b8373ffffffffffffffffffffffffffffffffffffffff168573ffffffffffffffffffffffffffffffffffffffff1603612bdc576040517f8cd22d1900000000000000000000000000000000000000000000000000000000815260040160405180910390fd5b5f5f90508573ffffffffffffffffffffffffffffffffffffffff168773ffffffffffffffffffffffffffffffffffffffff1603612c3b577fffffffffffffffffffffffffffffffffffffffffffffffffffffffffffffffff9050612cb7565b600f5f8773ffffffffffffffffffffffffffffffffffffffff1673ffffffffffffffffffffffffffffffffffffffff1681526020019081526020015f205f8873ffffffffffffffffffffffffffffffffffffffff1673ffffffffffffffffffffffffffffffffffffffff1681526020019081526020015f205490505b5f8482612cc491906169c2565b90505f85600e5f8a73ffffffffffffffffffffffffffffffffffffffff1673ffffffffffffffffffffffffffffffffffffffff1681526020019081526020015f2054612d1091906169c2565b90505f86600e5f8a73ffffffffffffffffffffffffffffffffffffffff1673ffffffffffffffffffffffffffffffffffffffff1681526020019081526020015f2054612d5c91906169f5565b905081600e5f8b73ffffffffffffffffffffffffffffffffffffffff1673ffffffffffffffffffffffffffffffffffffffff1681526020019081526020015f208190555080600e5f8a73ffffffffffffffffffffffffffffffffffffffff1673ffffffffffffffffffffffffffffffffffffffff1681526020019081526020015f20819055507fffffffffffffffffffffffffffffffffffffffffffffffffffffffffffffffff8414612e875782600f5f8b73ffffffffffffffffffffffffffffffffffffffff1673ffffffffffffffffffffffffffffffffffffffff1681526020019081526020015f205f8c73ffffffffffffffffffffffffffffffffffffffff1673ffffffffffffffffffffffffffffffffffffffff1681526020019081526020015f20819055505b8773ffffffffffffffffffffffffffffffffffffffff168973ffffffffffffffffffffffffffffffffffffffff167fddf252ad1be2c89b69c2b068fc378daa952ba7f163c4a11628f55a4df523b3ef89604051612ee491906157fe565b60405180910390a35f95505050505050949350505050565b5f5f9054906101000a900460ff16612f49576040517f08c379a0000000000000000000000000000000000000000000000000000000008152600401612f4090616032565b60405180910390fd5b5f5f5f6101000a81548160ff021916908315150217905550612f69611b74565b50612f7533838361404f565b5060015f5f6101000a81548160ff0219169083151502179055505050565b5f5f612f9f8484613832565b9050612faa816142c5565b91505092915050565b5f5f60115f9054906101000a900473ffffffffffffffffffffffffffffffffffffffff1690508073ffffffffffffffffffffffffffffffffffffffff166370a08231306040518263ffffffff1660e01b8152600401613012919061563c565b602060405180830381865afa15801561302d573d5f5f3e3d5ffd5b505050506040513d601f19601f820116820180604052508101906130519190616180565b91505090565b5f5f5f9054906101000a900460ff166130a5576040517f08c379a000000000000000000000000000000000000000000000000000000000815260040161309c90616032565b60405180910390fd5b5f5f5f6101000a81548160ff0219169083151502179055506130c5611b74565b506130cf826142e4565b50505f905060015f5f6101000a81548160ff021916908315150217905550919050565b5f5f600360019054906101000a900473ffffffffffffffffffffffffffffffffffffffff1673ffffffffffffffffffffffffffffffffffffffff163373ffffffffffffffffffffffffffffffffffffffff161461317b576040517ff7e5e6d000000000000000000000000000000000000000000000000000000000815260040160405180910390fd5b6131836133fa565b600954146131bd576040517fdff50cb000000000000000000000000000000000000000000000000000000000815260040160405180910390fd5b826131c6612fb3565b10156131fe576040517f3345e99900000000000000000000000000000000000000000000000000000000815260040160405180910390fd5b600c5483111561323a576040517ff1a5300a00000000000000000000000000000000000000000000000000000000815260040160405180910390fd5b82600c5461324891906169c2565b905080600c8190555061327d600360019054906101000a900473ffffffffffffffffffffffffffffffffffffffff16846143a0565b7f3bad0c59cf2f06e7314077049f48a93578cd16f5ef92329f1dab1420a99c177e600360019054906101000a900473ffffffffffffffffffffffffffffffffffffffff1684836040516132d293929190616d43565b60405180910390a15f915050919050565b5f5f9054906101000a900460ff16613330576040517f08c379a000000000000000000000000000000000000000000000000000000000815260040161332790616032565b60405180910390fd5b5f5f5f6101000a81548160ff021916908315150217905550613350611b74565b5061335c335f8361449c565b60015f5f6101000a81548160ff02191690831515021790555050565b5f5f60105f8473ffffffffffffffffffffffffffffffffffffffff1673ffffffffffffffffffffffffffffffffffffffff1681526020019081526020015f2090505f815f0154036133cc575f9150506133f5565b5f600a54825f01546133de9190616c62565b90508160010154816133f09190616cd0565b925050505b919050565b5f43905090565b5f5f600360019054906101000a900473ffffffffffffffffffffffffffffffffffffffff1673ffffffffffffffffffffffffffffffffffffffff163373ffffffffffffffffffffffffffffffffffffffff161461348a576040517f407fded500000000000000000000000000000000000000000000000000000000815260040160405180910390fd5b6134926133fa565b600954146134cc576040517f17c54b9600000000000000000000000000000000000000000000000000000000815260040160405180910390fd5b60065f9054906101000a900473ffffffffffffffffffffffffffffffffffffffff1690508273ffffffffffffffffffffffffffffffffffffffff16632191f92a6040518163ffffffff1660e01b8152600401602060405180830381865afa158015613539573d5f5f3e3d5ffd5b505050506040513d601f19601f8201168201806040525081019061355d919061621c565b61359c576040517f08c379a000000000000000000000000000000000000000000000000000000000815260040161359390616291565b60405180910390fd5b8260065f6101000a81548173ffffffffffffffffffffffffffffffffffffffff021916908373ffffffffffffffffffffffffffffffffffffffff1602179055507fedffc32e068c7c95dfd4bdfd5c4d939a084d6b11c4199eac8436ed234d72f926818460405161360d929190616d78565b60405180910390a15f915050919050565b5f612710601354836136309190616c62565b61363a9190616cd0565b90505f8103613649575061379a565b8181111561368c576040517f08c379a000000000000000000000000000000000000000000000000000000000815260040161368390616de9565b60405180910390fd5b8273ffffffffffffffffffffffffffffffffffffffff1660155f9054906101000a900473ffffffffffffffffffffffffffffffffffffffff1673ffffffffffffffffffffffffffffffffffffffff161461371b576040517f08c379a000000000000000000000000000000000000000000000000000000000815260040161371290616e77565b60405180910390fd5b8060145f82825461372c91906169f5565b925050819055503373ffffffffffffffffffffffffffffffffffffffff168373ffffffffffffffffffffffffffffffffffffffff167fa54d8f3c2b568a7029fde5c3257845d63c3bc7e6ba81f8b68e48647f6dda102d8360405161379091906157fe565b60405180910390a3505b5050565b5f5f9054906101000a900460ff166137eb576040517f08c379a00000000000000000000000000000000000000000000000000000000081526004016137e290616032565b60405180910390fd5b5f5f5f6101000a81548160ff02191690831515021790555061380b611b74565b506138163382614875565b60015f5f6101000a81548160ff02191690831515021790555050565b61383a6155eb565b6040518060200160405280613852855f015185614b15565b815250905092915050565b5f5f6138698585613832565b905061387d613877826142c5565b84614b2a565b9150509392505050565b5f60055f9054906101000a900473ffffffffffffffffffffffffffffffffffffffff1673ffffffffffffffffffffffffffffffffffffffff1663d02f735130878787876040518663ffffffff1660e01b81526004016138ea959493929190616e95565b6020604051808303815f875af1158015613906573d5f5f3e3d5ffd5b505050506040513d601f19601f8201168201806040525081019061392a9190616180565b90505f811461397057806040517fc7c01c6600000000000000000000000000000000000000000000000000000000815260040161396791906157fe565b60405180910390fd5b8373ffffffffffffffffffffffffffffffffffffffff168373ffffffffffffffffffffffffffffffffffffffff16036139d5576040517f7528c4ce00000000000000000000000000000000000000000000000000000000815260040160405180910390fd5b5f6139f5836040518060200160405280666379da05b60000815250614b3f565b90505f8184613a0491906169c2565b90505f6040518060200160405280613a1a612a20565b81525090505f613a2a8285612f93565b90505f81600c54613a3b91906169f5565b905080600c8190555084600d54613a5291906169c2565b600d8190555086600e5f8a73ffffffffffffffffffffffffffffffffffffffff1673ffffffffffffffffffffffffffffffffffffffff1681526020019081526020015f2054613aa191906169c2565b600e5f8a73ffffffffffffffffffffffffffffffffffffffff1673ffffffffffffffffffffffffffffffffffffffff1681526020019081526020015f208190555083600e5f8b73ffffffffffffffffffffffffffffffffffffffff1673ffffffffffffffffffffffffffffffffffffffff1681526020019081526020015f2054613b2b91906169f5565b600e5f8b73ffffffffffffffffffffffffffffffffffffffff1673ffffffffffffffffffffffffffffffffffffffff1681526020019081526020015f20819055508873ffffffffffffffffffffffffffffffffffffffff168873ffffffffffffffffffffffffffffffffffffffff167fddf252ad1be2c89b69c2b068fc378daa952ba7f163c4a11628f55a4df523b3ef86604051613bc991906157fe565b60405180910390a33073ffffffffffffffffffffffffffffffffffffffff168873ffffffffffffffffffffffffffffffffffffffff167fddf252ad1be2c89b69c2b068fc378daa952ba7f163c4a11628f55a4df523b3ef87604051613c2e91906157fe565b60405180910390a37fa91e67c5ea634cd43a12c5a482724b03de01e85ca68702a53d0c2f45cb7c1dc5308383604051613c6993929190616ee6565b60405180910390a150505050505050505050565b5f5f9054906101000a900460ff16613cca576040517f08c379a0000000000000000000000000000000000000000000000000000000008152600401613cc190616032565b60405180910390fd5b5f5f5f6101000a81548160ff021916908315150217905550613cea611b74565b50613cf53382614b68565b60015f5f6101000a81548160ff02191690831515021790555050565b5f5f9054906101000a900460ff16613d5e576040517f08c379a0000000000000000000000000000000000000000000000000000000008152600401613d5590616032565b60405180910390fd5b5f5f5f6101000a81548160ff021916908315150217905550613d7e611b74565b50613d8a33825f61449c565b60015f5f6101000a81548160ff02191690831515021790555050565b5f5f9054906101000a900460ff16613df3576040517f08c379a0000000000000000000000000000000000000000000000000000000008152600401613dea90616032565b60405180910390fd5b5f5f5f6101000a81548160ff021916908315150217905550613e13611b74565b505f8173ffffffffffffffffffffffffffffffffffffffff1663a6afed956040518163ffffffff1660e01b81526004016020604051808303815f875af1158015613e5f573d5f5f3e3d5ffd5b505050506040513d601f19601f82011682018060405250810190613e839190616180565b90505f8114613ec957806040517f7dd4936e000000000000000000000000000000000000000000000000000000008152600401613ec091906157fe565b60405180910390fd5b613ed533858585614ddd565b5060015f5f6101000a81548160ff021916908315150217905550505050565b5f600360019054906101000a900473ffffffffffffffffffffffffffffffffffffffff1673ffffffffffffffffffffffffffffffffffffffff163373ffffffffffffffffffffffffffffffffffffffff1614613f7c576040517f240b6af600000000000000000000000000000000000000000000000000000000815260040160405180910390fd5b613f846133fa565b60095414613fbe576040517ffbf94d6e00000000000000000000000000000000000000000000000000000000815260040160405180910390fd5b670de0b6b3a7640000821115614000576040517fe2e441e600000000000000000000000000000000000000000000000000000000815260040160405180910390fd5b5f6008549050826008819055507faaa68312e2ea9d50e16af5068410ab56e1a1fd06037b1a35664812c30f821460818460405161403e929190616f1b565b60405180910390a15f915050919050565b5f5f60055f9054906101000a900473ffffffffffffffffffffffffffffffffffffffff1673ffffffffffffffffffffffffffffffffffffffff166324008a62308787876040518563ffffffff1660e01b81526004016140b19493929190616d00565b6020604051808303815f875af11580156140cd573d5f5f3e3d5ffd5b505050506040513d601f19601f820116820180604052508101906140f19190616180565b90505f811461413757806040517f8c81362d00000000000000000000000000000000000000000000000000000000815260040161412e91906157fe565b60405180910390fd5b61413f6133fa565b60095414614179576040517fc9021e2f00000000000000000000000000000000000000000000000000000000815260040160405180910390fd5b5f61418385613378565b90505f7fffffffffffffffffffffffffffffffffffffffffffffffffffffffffffffffff85146141b357846141b5565b815b90505f6141c288836153a3565b90505f81846141d191906169c2565b90505f82600b546141e291906169c2565b90508160105f8b73ffffffffffffffffffffffffffffffffffffffff1673ffffffffffffffffffffffffffffffffffffffff1681526020019081526020015f205f0181905550600a5460105f8b73ffffffffffffffffffffffffffffffffffffffff1673ffffffffffffffffffffffffffffffffffffffff1681526020019081526020015f206001018190555080600b819055507f1a2a22cb034d26d1854bdc6666a5b91fe25efbbb5dcad3b0355478d6f5c362a18a8a8585856040516142ad959493929190616f42565b60405180910390a18296505050505050509392505050565b5f670de0b6b3a7640000825f01516142dd9190616cd0565b9050919050565b5f5f5f5f6142f06133fa565b6009541461433557806040517f38acf79900000000000000000000000000000000000000000000000000000000815260040161432c91906157fe565b60405180910390fd5b61433f33866153a3565b905080600c5461434f91906169f5565b915081600c819055507fa91e67c5ea634cd43a12c5a482724b03de01e85ca68702a53d0c2f45cb7c1dc533828460405161438b93929190616ee6565b60405180910390a15f81935093505050915091565b5f60115f9054906101000a900473ffffffffffffffffffffffffffffffffffffffff1690508073ffffffffffffffffffffffffffffffffffffffff1663a9059cbb84846040518363ffffffff1660e01b81526004016144009291906161cb565b5f604051808303815f87803b158015614417575f5ffd5b505af1158015614429573d5f5f3e3d5ffd5b505050505f3d5f8114614442576020811461444b575f5ffd5b5f199150614455565b60205f5f3e5f5191505b5080614496576040517f08c379a000000000000000000000000000000000000000000000000000000000815260040161448d90616fdd565b60405180910390fd5b50505050565b5f8214806144a957505f81145b6144e8576040517f08c379a00000000000000000000000000000000000000000000000000000000081526004016144df9061706b565b60405180910390fd5b5f60405180602001604052806144fc612a20565b81525090505f5f5f85111561451f578491506145188386612f93565b905061452f565b61452984846155af565b91508390505b5f60055f9054906101000a900473ffffffffffffffffffffffffffffffffffffffff1673ffffffffffffffffffffffffffffffffffffffff1663eabe7d913089866040518463ffffffff1660e01b815260040161458e93929190617089565b6020604051808303815f875af11580156145aa573d5f5f3e3d5ffd5b505050506040513d601f19601f820116820180604052508101906145ce9190616180565b90505f811461461457806040517f480f424700000000000000000000000000000000000000000000000000000000815260040161460b91906157fe565b60405180910390fd5b61461c6133fa565b60095414614656576040517f97b5cfcd00000000000000000000000000000000000000000000000000000000815260040160405180910390fd5b8161465f612fb3565b1015614697576040517f91240a1b00000000000000000000000000000000000000000000000000000000815260040160405180910390fd5b82600d546146a591906169c2565b600d8190555082600e5f8973ffffffffffffffffffffffffffffffffffffffff1673ffffffffffffffffffffffffffffffffffffffff1681526020019081526020015f20546146f491906169c2565b600e5f8973ffffffffffffffffffffffffffffffffffffffff1673ffffffffffffffffffffffffffffffffffffffff1681526020019081526020015f208190555061473f87836143a0565b3073ffffffffffffffffffffffffffffffffffffffff168773ffffffffffffffffffffffffffffffffffffffff167fddf252ad1be2c89b69c2b068fc378daa952ba7f163c4a11628f55a4df523b3ef8560405161479c91906157fe565b60405180910390a37fe5b754fb1abb7f01b499791d0b820ae3b6af3424ac1c59768edb53f4ec31a9298783856040516147d793929190616d43565b60405180910390a160055f9054906101000a900473ffffffffffffffffffffffffffffffffffffffff1673ffffffffffffffffffffffffffffffffffffffff166351dff989308985876040518563ffffffff1660e01b815260040161483f94939291906170be565b5f604051808303815f87803b158015614856575f5ffd5b505af1158015614868573d5f5f3e3d5ffd5b5050505050505050505050565b5f60055f9054906101000a900473ffffffffffffffffffffffffffffffffffffffff1673ffffffffffffffffffffffffffffffffffffffff16634ef4c3e13085856040518463ffffffff1660e01b81526004016148d493929190617101565b6020604051808303815f875af11580156148f0573d5f5f3e3d5ffd5b505050506040513d601f19601f820116820180604052508101906149149190616180565b90505f811461495a57806040517f49abd4fd00000000000000000000000000000000000000000000000000000000815260040161495191906157fe565b60405180910390fd5b6149626133fa565b6009541461499c576040517f38d8859700000000000000000000000000000000000000000000000000000000815260040160405180910390fd5b5f60405180602001604052806149b0612a20565b81525090505f6149c085856153a3565b90505f6149cd82846155af565b905080600d546149dd91906169f5565b600d8190555080600e5f8873ffffffffffffffffffffffffffffffffffffffff1673ffffffffffffffffffffffffffffffffffffffff1681526020019081526020015f2054614a2c91906169f5565b600e5f8873ffffffffffffffffffffffffffffffffffffffff1673ffffffffffffffffffffffffffffffffffffffff1681526020019081526020015f20819055507f4c209b5fc8ad50758f13e2e1088ba56a560dff690a1c6fef26394f4c03821c4f868383604051614aa093929190616ee6565b60405180910390a18573ffffffffffffffffffffffffffffffffffffffff163073ffffffffffffffffffffffffffffffffffffffff167fddf252ad1be2c89b69c2b068fc378daa952ba7f163c4a11628f55a4df523b3ef83604051614b0591906157fe565b60405180910390a3505050505050565b5f8183614b229190616c62565b905092915050565b5f8183614b3791906169f5565b905092915050565b5f670de0b6b3a7640000614b5684845f0151614b15565b614b609190616cd0565b905092915050565b5f60055f9054906101000a900473ffffffffffffffffffffffffffffffffffffffff1673ffffffffffffffffffffffffffffffffffffffff1663da3d454c3085856040518463ffffffff1660e01b8152600401614bc793929190617089565b6020604051808303815f875af1158015614be3573d5f5f3e3d5ffd5b505050506040513d601f19601f82011682018060405250810190614c079190616180565b90505f8114614c4d57806040517f918db40f000000000000000000000000000000000000000000000000000000008152600401614c4491906157fe565b60405180910390fd5b614c556133fa565b60095414614c8f576040517f3a36318400000000000000000000000000000000000000000000000000000000815260040160405180910390fd5b81614c98612fb3565b1015614cd0576040517f48c2588100000000000000000000000000000000000000000000000000000000815260040160405180910390fd5b5f614cda84613378565b90505f8382614ce991906169f5565b90505f84600b54614cfa91906169f5565b90508160105f8873ffffffffffffffffffffffffffffffffffffffff1673ffffffffffffffffffffffffffffffffffffffff1681526020019081526020015f205f0181905550600a5460105f8873ffffffffffffffffffffffffffffffffffffffff1673ffffffffffffffffffffffffffffffffffffffff1681526020019081526020015f206001018190555080600b81905550614d9886866143a0565b7f13ed6866d4e1ee6da46f845c46d7e54120883d75c5ea9a2dacc1c4ca8984ab8086868484604051614dcd9493929190617136565b60405180910390a1505050505050565b5f60055f9054906101000a900473ffffffffffffffffffffffffffffffffffffffff1673ffffffffffffffffffffffffffffffffffffffff16635fc7e71e30848888886040518663ffffffff1660e01b8152600401614e40959493929190616e95565b6020604051808303815f875af1158015614e5c573d5f5f3e3d5ffd5b505050506040513d601f19601f82011682018060405250810190614e809190616180565b90505f8114614ec657806040517f1429a2f2000000000000000000000000000000000000000000000000000000008152600401614ebd91906157fe565b60405180910390fd5b614ece6133fa565b60095414614f08576040517f80965b1b00000000000000000000000000000000000000000000000000000000815260040160405180910390fd5b614f106133fa565b8273ffffffffffffffffffffffffffffffffffffffff16636c540baf6040518163ffffffff1660e01b8152600401602060405180830381865afa158015614f59573d5f5f3e3d5ffd5b505050506040513d601f19601f82011682018060405250810190614f7d9190616180565b14614fb4576040517f82379c6800000000000000000000000000000000000000000000000000000000815260040160405180910390fd5b8473ffffffffffffffffffffffffffffffffffffffff168473ffffffffffffffffffffffffffffffffffffffff1603615019576040517f6f46988400000000000000000000000000000000000000000000000000000000815260040160405180910390fd5b5f8303615052576040517fd29da7ef00000000000000000000000000000000000000000000000000000000815260040160405180910390fd5b7fffffffffffffffffffffffffffffffffffffffffffffffffffffffffffffffff83036150ab576040517fb3058b7600000000000000000000000000000000000000000000000000000000815260040160405180910390fd5b5f6150b786868661404f565b90505f5f60055f9054906101000a900473ffffffffffffffffffffffffffffffffffffffff1673ffffffffffffffffffffffffffffffffffffffff1663c488847b3087866040518463ffffffff1660e01b815260040161511993929190617101565b6040805180830381865afa158015615133573d5f5f3e3d5ffd5b505050506040513d601f19601f820116820180604052508101906151579190617179565b915091505f821461519d576040517f08c379a000000000000000000000000000000000000000000000000000000000815260040161519490617227565b60405180910390fd5b808573ffffffffffffffffffffffffffffffffffffffff166370a08231896040518263ffffffff1660e01b81526004016151d7919061563c565b602060405180830381865afa1580156151f2573d5f5f3e3d5ffd5b505050506040513d601f19601f820116820180604052508101906152169190616180565b1015615257576040517f08c379a000000000000000000000000000000000000000000000000000000000815260040161524e9061728f565b60405180910390fd5b3073ffffffffffffffffffffffffffffffffffffffff168573ffffffffffffffffffffffffffffffffffffffff160361529b5761529630898984613887565b61535a565b5f8573ffffffffffffffffffffffffffffffffffffffff1663b2a02ff18a8a856040518463ffffffff1660e01b81526004016152d993929190617101565b6020604051808303815f875af11580156152f5573d5f5f3e3d5ffd5b505050506040513d601f19601f820116820180604052508101906153199190616180565b14615359576040517f08c379a0000000000000000000000000000000000000000000000000000000008152600401615350906172f7565b60405180910390fd5b5b7f298637f684da70674f26509b10f07ec2fbc77a335ab1e7d6215a4b2484d8bb528888858885604051615391959493929190617315565b60405180910390a15050505050505050565b5f5f60115f9054906101000a900473ffffffffffffffffffffffffffffffffffffffff1690505f8190505f8273ffffffffffffffffffffffffffffffffffffffff166370a08231306040518263ffffffff1660e01b8152600401615407919061563c565b602060405180830381865afa158015615422573d5f5f3e3d5ffd5b505050506040513d601f19601f820116820180604052508101906154469190616180565b90508173ffffffffffffffffffffffffffffffffffffffff166323b872dd8730886040518463ffffffff1660e01b815260040161548593929190617101565b5f604051808303815f87803b15801561549c575f5ffd5b505af11580156154ae573d5f5f3e3d5ffd5b505050505f3d5f81146154c757602081146154d0575f5ffd5b5f1991506154da565b60205f5f3e5f5191505b508061551b576040517f08c379a0000000000000000000000000000000000000000000000000000000008152600401615512906173b0565b60405180910390fd5b5f8473ffffffffffffffffffffffffffffffffffffffff166370a08231306040518263ffffffff1660e01b8152600401615555919061563c565b602060405180830381865afa158015615570573d5f5f3e3d5ffd5b505050506040513d601f19601f820116820180604052508101906155949190616180565b905082816155a291906169c2565b9550505050505092915050565b5f6155ce6155c584670de0b6b3a7640000614b15565b835f01516155d6565b905092915050565b5f81836155e39190616cd0565b905092915050565b60405180602001604052805f81525090565b5f73ffffffffffffffffffffffffffffffffffffffff82169050919050565b5f615626826155fd565b9050919050565b6156368161561c565b82525050565b5f60208201905061564f5f83018461562d565b92915050565b5f81519050919050565b5f82825260208201905092915050565b8281835e5f83830152505050565b5f601f19601f8301169050919050565b5f61569782615655565b6156a1818561565f565b93506156b181856020860161566f565b6156ba8161567d565b840191505092915050565b5f6020820190508181035f8301526156dd818461568d565b905092915050565b5f604051905090565b5f5ffd5b5f5ffd5b6156ff8161561c565b8114615709575f5ffd5b50565b5f8135905061571a816156f6565b92915050565b5f819050919050565b61573281615720565b811461573c575f5ffd5b50565b5f8135905061574d81615729565b92915050565b5f5f60408385031215615769576157686156ee565b5b5f6157768582860161570c565b92505060206157878582860161573f565b9150509250929050565b5f8115159050919050565b6157a581615791565b82525050565b5f6020820190506157be5f83018461579c565b92915050565b5f602082840312156157d9576157d86156ee565b5b5f6157e68482850161573f565b91505092915050565b6157f881615720565b82525050565b5f6020820190506158115f8301846157ef565b92915050565b5f6020828403121561582c5761582b6156ee565b5b5f6158398482850161570c565b91505092915050565b5f61584c8261561c565b9050919050565b61585c81615842565b8114615866575f5ffd5b50565b5f8135905061587781615853565b92915050565b5f60208284031215615892576158916156ee565b5b5f61589f84828501615869565b91505092915050565b5f5f5f606084860312156158bf576158be6156ee565b5b5f6158cc8682870161570c565b93505060206158dd8682870161570c565b92505060406158ee8682870161573f565b9150509250925092565b5f615902826155fd565b9050919050565b615912816158f8565b82525050565b5f60208201905061592b5f830184615909565b92915050565b5f60ff82169050919050565b61594681615931565b82525050565b5f60208201905061595f5f83018461593d565b92915050565b5f61596f8261561c565b9050919050565b61597f81615965565b8114615989575f5ffd5b50565b5f8135905061599a81615976565b92915050565b5f602082840312156159b5576159b46156ee565b5b5f6159c28482850161598c565b91505092915050565b5f819050919050565b5f6159ee6159e96159e4846155fd565b6159cb565b6155fd565b9050919050565b5f6159ff826159d4565b9050919050565b5f615a10826159f5565b9050919050565b615a2081615a06565b82525050565b5f602082019050615a395f830184615a17565b92915050565b5f615a498261561c565b9050919050565b615a5981615a3f565b8114615a63575f5ffd5b50565b5f81359050615a7481615a50565b92915050565b5f5ffd5b5f5ffd5b7f4e487b71000000000000000000000000000000000000000000000000000000005f52604160045260245ffd5b615ab88261567d565b810181811067ffffffffffffffff82111715615ad757615ad6615a82565b5b80604052505050565b5f615ae96156e5565b9050615af58282615aaf565b919050565b5f67ffffffffffffffff821115615b1457615b13615a82565b5b615b1d8261567d565b9050602081019050919050565b828183375f83830152505050565b5f615b4a615b4584615afa565b615ae0565b905082815260208101848484011115615b6657615b65615a7e565b5b615b71848285615b2a565b509392505050565b5f82601f830112615b8d57615b8c615a7a565b5b8135615b9d848260208601615b38565b91505092915050565b615baf81615931565b8114615bb9575f5ffd5b50565b5f81359050615bca81615ba6565b92915050565b5f5f5f5f5f5f60c08789031215615bea57615be96156ee565b5b5f615bf789828a0161598c565b9650506020615c0889828a01615a66565b9550506040615c1989828a0161573f565b945050606087013567ffffffffffffffff811115615c3a57615c396156f2565b5b615c4689828a01615b79565b935050608087013567ffffffffffffffff811115615c6757615c666156f2565b5b615c7389828a01615b79565b92505060a0615c8489828a01615bbc565b9150509295509295509295565b5f5f5f5f5f5f5f5f5f6101208a8c031215615caf57615cae6156ee565b5b5f615cbc8c828d0161570c565b9950506020615ccd8c828d0161598c565b9850506040615cde8c828d01615a66565b9750506060615cef8c828d0161573f565b96505060808a013567ffffffffffffffff811115615d1057615d0f6156f2565b5b615d1c8c828d01615b79565b95505060a08a013567ffffffffffffffff811115615d3d57615d3c6156f2565b5b615d498c828d01615b79565b94505060c0615d5a8c828d01615bbc565b93505060e0615d6b8c828d0161570c565b925050610100615d7d8c828d0161573f565b9150509295985092959850929598565b615d96816158f8565b8114615da0575f5ffd5b50565b5f81359050615db181615d8d565b92915050565b5f60208284031215615dcc57615dcb6156ee565b5b5f615dd984828501615da3565b91505092915050565b5f608082019050615df55f8301876157ef565b615e0260208301866157ef565b615e0f60408301856157ef565b615e1c60608301846157ef565b95945050505050565b5f5f60408385031215615e3b57615e3a6156ee565b5b5f615e488582860161570c565b9250506020615e598582860161570c565b9150509250929050565b5f60208284031215615e7857615e776156ee565b5b5f615e8584828501615a66565b91505092915050565b5f615e98826159f5565b9050919050565b615ea881615e8e565b82525050565b5f602082019050615ec15f830184615e9f565b92915050565b5f615ed18261561c565b9050919050565b615ee181615ec7565b8114615eeb575f5ffd5b50565b5f81359050615efc81615ed8565b92915050565b5f5f5f60608486031215615f1957615f186156ee565b5b5f615f268682870161570c565b9350506020615f378682870161573f565b9250506040615f4886828701615eee565b9150509250925092565b5f615f5c826159f5565b9050919050565b615f6c81615f52565b82525050565b5f602082019050615f855f830184615f63565b92915050565b7f4e487b71000000000000000000000000000000000000000000000000000000005f52602260045260245ffd5b5f6002820490506001821680615fcf57607f821691505b602082108103615fe257615fe1615f8b565b5b50919050565b7f72652d656e7465726564000000000000000000000000000000000000000000005f82015250565b5f61601c600a8361565f565b915061602782615fe8565b602082019050919050565b5f6020820190508181035f83015261604981616010565b9050919050565b7f4345726332303a3a7377656570546f6b656e3a206f6e6c792061646d696e20635f8201527f616e20737765657020746f6b656e730000000000000000000000000000000000602082015250565b5f6160aa602f8361565f565b91506160b582616050565b604082019050919050565b5f6020820190508181035f8301526160d78161609e565b9050919050565b7f4345726332303a3a7377656570546f6b656e3a2063616e206e6f7420737765655f8201527f7020756e6465726c79696e6720746f6b656e0000000000000000000000000000602082015250565b5f61613860328361565f565b9150616143826160de565b604082019050919050565b5f6020820190508181035f8301526161658161612c565b9050919050565b5f8151905061617a81615729565b92915050565b5f60208284031215616195576161946156ee565b5b5f6161a28482850161616c565b91505092915050565b5f6161b5826159f5565b9050919050565b6161c5816161ab565b82525050565b5f6040820190506161de5f8301856161bc565b6161eb60208301846157ef565b9392505050565b6161fb81615791565b8114616205575f5ffd5b50565b5f81519050616216816161f2565b92915050565b5f60208284031215616231576162306156ee565b5b5f61623e84828501616208565b91505092915050565b7f6d61726b6572206d6574686f642072657475726e65642066616c7365000000005f82015250565b5f61627b601c8361565f565b915061628682616247565b602082019050919050565b5f6020820190508181035f8301526162a88161626f565b9050919050565b5f6040820190506162c25f830185615a17565b6162cf6020830184615a17565b9392505050565b7f6f6e6c79207468652061646d696e206d6179207365742074686520636f6d702d5f8201527f6c696b652064656c656761746500000000000000000000000000000000000000602082015250565b5f616330602d8361565f565b915061633b826162d6565b604082019050919050565b5f6020820190508181035f83015261635d81616324565b9050919050565b7f6f6e6c792061646d696e206d617920696e697469616c697a6520746865206d615f8201527f726b657400000000000000000000000000000000000000000000000000000000602082015250565b5f6163be60248361565f565b91506163c982616364565b604082019050919050565b5f6020820190508181035f8301526163eb816163b2565b9050919050565b7f6d61726b6574206d6179206f6e6c7920626520696e697469616c697a6564206f5f8201527f6e63650000000000000000000000000000000000000000000000000000000000602082015250565b5f61644c60238361565f565b9150616457826163f2565b604082019050919050565b5f6020820190508181035f83015261647981616440565b9050919050565b7f696e697469616c2065786368616e67652072617465206d7573742062652067725f8201527f6561746572207468616e207a65726f2e00000000000000000000000000000000602082015250565b5f6164da60308361565f565b91506164e582616480565b604082019050919050565b5f6020820190508181035f830152616507816164ce565b9050919050565b7f73657474696e6720636f6d7074726f6c6c6572206661696c65640000000000005f82015250565b5f616542601a8361565f565b915061654d8261650e565b602082019050919050565b5f6020820190508181035f83015261656f81616536565b9050919050565b7f73657474696e6720696e7465726573742072617465206d6f64656c206661696c5f8201527f6564000000000000000000000000000000000000000000000000000000000000602082015250565b5f6165d060228361565f565b91506165db82616576565b604082019050919050565b5f6020820190508181035f8301526165fd816165c4565b9050919050565b5f819050815f5260205f209050919050565b5f6020601f8301049050919050565b5f82821b905092915050565b5f600883026166607fffffffffffffffffffffffffffffffffffffffffffffffffffffffffffffffff82616625565b61666a8683616625565b95508019841693508086168417925050509392505050565b5f61669c61669761669284615720565b6159cb565b615720565b9050919050565b5f819050919050565b6166b583616682565b6166c96166c1826166a3565b848454616631565b825550505050565b5f5f905090565b6166e06166d1565b6166eb8184846166ac565b505050565b5b8181101561670e576167035f826166d8565b6001810190506166f1565b5050565b601f8211156167535761672481616604565b61672d84616616565b8101602085101561673c578190505b61675061674885616616565b8301826166f0565b50505b505050565b5f82821c905092915050565b5f6167735f1984600802616758565b1980831691505092915050565b5f61678b8383616764565b9150826002028217905092915050565b6167a482615655565b67ffffffffffffffff8111156167bd576167bc615a82565b5b6167c78254615fb8565b6167d2828285616712565b5f60209050601f831160018114616803575f84156167f1578287015190505b6167fb8582616780565b865550616862565b601f19841661681186616604565b5f5b8281101561683857848901518255600182019150602085019450602081019050616813565b868310156168555784890151616851601f891682616764565b8355505b6001600288020188555050505b505050505050565b7f4d696e7420616d6f756e74206d7573742062652067726561746572207468616e5f8201527f207a65726f000000000000000000000000000000000000000000000000000000602082015250565b5f6168c460258361565f565b91506168cf8261686a565b604082019050919050565b5f6020820190508181035f8301526168f1816168b8565b9050919050565b5f60608201905061690b5f8301866157ef565b61691860208301856157ef565b61692560408301846157ef565b949350505050565b7f626f72726f772072617465206973206162737572646c792068696768000000005f82015250565b5f616961601c8361565f565b915061696c8261692d565b602082019050919050565b5f6020820190508181035f83015261698e81616955565b9050919050565b7f4e487b71000000000000000000000000000000000000000000000000000000005f52601160045260245ffd5b5f6169cc82615720565b91506169d783615720565b92508282039050818111156169ef576169ee616995565b5b92915050565b5f6169ff82615720565b9150616a0a83615720565b9250828201905080821115616a2257616a21616995565b5b92915050565b5f604082019050616a3b5f83018561562d565b616a4860208301846161bc565b9392505050565b7f4f6e6c792061646d696e2063616e2064697374726962757465206665657300005f82015250565b5f616a83601e8361565f565b9150616a8e82616a4f565b602082019050919050565b5f6020820190508181035f830152616ab081616a77565b9050919050565b5f604082019050616aca5f83018561562d565b616ad760208301846157ef565b9392505050565b7f4f6e6c79207468652041646d696e2063616e2073657420746865206d696e74205f8201527f6665652100000000000000000000000000000000000000000000000000000000602082015250565b5f616b3860248361565f565b9150616b4382616ade565b604082019050919050565b5f6020820190508181035f830152616b6581616b2c565b9050919050565b7f46656520746f6f206869676821000000000000000000000000000000000000005f82015250565b5f616ba0600d8361565f565b9150616bab82616b6c565b602082019050919050565b5f6020820190508181035f830152616bcd81616b94565b9050919050565b7f4f6e6c79207468652041646d696e2063616e20736574207468652066656520725f8201527f6563656976657221000000000000000000000000000000000000000000000000602082015250565b5f616c2e60288361565f565b9150616c3982616bd4565b604082019050919050565b5f6020820190508181035f830152616c5b81616c22565b9050919050565b5f616c6c82615720565b9150616c7783615720565b9250828202616c8581615720565b91508282048414831517616c9c57616c9b616995565b5b5092915050565b7f4e487b71000000000000000000000000000000000000000000000000000000005f52601260045260245ffd5b5f616cda82615720565b9150616ce583615720565b925082616cf557616cf4616ca3565b5b828204905092915050565b5f608082019050616d135f83018761562d565b616d20602083018661562d565b616d2d604083018561562d565b616d3a60608301846157ef565b95945050505050565b5f606082019050616d565f8301866161bc565b616d6360208301856157ef565b616d7060408301846157ef565b949350505050565b5f604082019050616d8b5f830185615e9f565b616d986020830184615e9f565b9392505050565b7f4665652065786365656473206d696e7420616d6f756e740000000000000000005f82015250565b5f616dd360178361565f565b9150616dde82616d9f565b602082019050919050565b5f6020820190508181035f830152616e0081616dc7565b9050919050565b7f4345726332302063616e206f6e6c7920636f6c6c65637420666565732066726f5f8201527f6d20756e6465726c79696e6720746f6b656e2100000000000000000000000000602082015250565b5f616e6160338361565f565b9150616e6c82616e07565b604082019050919050565b5f6020820190508181035f830152616e8e81616e55565b9050919050565b5f60a082019050616ea85f83018861562d565b616eb5602083018761562d565b616ec2604083018661562d565b616ecf606083018561562d565b616edc60808301846157ef565b9695505050505050565b5f606082019050616ef95f83018661562d565b616f0660208301856157ef565b616f1360408301846157ef565b949350505050565b5f604082019050616f2e5f8301856157ef565b616f3b60208301846157ef565b9392505050565b5f60a082019050616f555f83018861562d565b616f62602083018761562d565b616f6f60408301866157ef565b616f7c60608301856157ef565b616f8960808301846157ef565b9695505050505050565b7f544f4b454e5f5452414e534645525f4f55545f4641494c4544000000000000005f82015250565b5f616fc760198361565f565b9150616fd282616f93565b602082019050919050565b5f6020820190508181035f830152616ff481616fbb565b9050919050565b7f6f6e65206f662072656465656d546f6b656e73496e206f722072656465656d415f8201527f6d6f756e74496e206d757374206265207a65726f000000000000000000000000602082015250565b5f61705560348361565f565b915061706082616ffb565b604082019050919050565b5f6020820190508181035f83015261708281617049565b9050919050565b5f60608201905061709c5f83018661562d565b6170a960208301856161bc565b6170b660408301846157ef565b949350505050565b5f6080820190506170d15f83018761562d565b6170de60208301866161bc565b6170eb60408301856157ef565b6170f860608301846157ef565b95945050505050565b5f6060820190506171145f83018661562d565b617121602083018561562d565b61712e60408301846157ef565b949350505050565b5f6080820190506171495f8301876161bc565b61715660208301866157ef565b61716360408301856157ef565b61717060608301846157ef565b95945050505050565b5f5f6040838503121561718f5761718e6156ee565b5b5f61719c8582860161616c565b92505060206171ad8582860161616c565b9150509250929050565b7f4c49515549444154455f434f4d5054524f4c4c45525f43414c43554c4154455f5f8201527f414d4f554e545f5345495a455f4641494c454400000000000000000000000000602082015250565b5f61721160338361565f565b915061721c826171b7565b604082019050919050565b5f6020820190508181035f83015261723e81617205565b9050919050565b7f4c49515549444154455f5345495a455f544f4f5f4d55434800000000000000005f82015250565b5f61727960188361565f565b915061728482617245565b602082019050919050565b5f6020820190508181035f8301526172a68161726d565b9050919050565b7f746f6b656e207365697a757265206661696c65640000000000000000000000005f82015250565b5f6172e160148361565f565b91506172ec826172ad565b602082019050919050565b5f6020820190508181035f83015261730e816172d5565b9050919050565b5f60a0820190506173285f83018861562d565b617335602083018761562d565b61734260408301866157ef565b61734f606083018561562d565b61735c60808301846157ef565b9695505050505050565b7f544f4b454e5f5452414e534645525f494e5f4641494c454400000000000000005f82015250565b5f61739a60188361565f565b91506173a582617366565b602082019050919050565b5f6020820190508181035f8301526173c78161738e565b905091905056fea264697066735822122004441889d5c2828e5bd6760738c35ddb4b9391974e1674b1187eeef4de5d64a164736f6c634300081b0033",
			"opcodes": "PUSH1 0x80 PUSH1 0x40 MSTORE CALLVALUE DUP1 ISZERO PUSH2 0xF JUMPI PUSH0 PUSH0 REVERT JUMPDEST POP PUSH1 0x40 MLOAD PUSH2 0x8780 CODESIZE SUB DUP1 PUSH2 0x8780 DUP4 CODECOPY DUP2 DUP2 ADD PUSH1 0x40 MSTORE DUP2 ADD SWAP1 PUSH2 0x31 SWAP2 SWAP1 PUSH2 0xB25 JUMP JUMPDEST CALLER PUSH1 0x3 PUSH1 0x1 PUSH2 0x100 EXP DUP2 SLOAD DUP2 PUSH20 0xFFFFFFFFFFFFFFFFFFFFFFFFFFFFFFFFFFFFFFFF MUL NOT AND SWAP1 DUP4 PUSH20 0xFFFFFFFFFFFFFFFFFFFFFFFFFFFFFFFFFFFFFFFF AND MUL OR SWAP1 SSTORE POP PUSH2 0x89 DUP11 DUP11 DUP11 DUP11 DUP11 DUP11 DUP11 DUP11 DUP11 PUSH2 0xD9 PUSH1 0x20 SHL PUSH1 0x20 SHR JUMP JUMPDEST DUP1 PUSH1 0x3 PUSH1 0x1 PUSH2 0x100 EXP DUP2 SLOAD DUP2 PUSH20 0xFFFFFFFFFFFFFFFFFFFFFFFFFFFFFFFFFFFFFFFF MUL NOT AND SWAP1 DUP4 PUSH20 0xFFFFFFFFFFFFFFFFFFFFFFFFFFFFFFFFFFFFFFFF AND MUL OR SWAP1 SSTORE POP POP POP POP POP POP POP POP POP POP POP PUSH2 0x136F JUMP JUMPDEST PUSH2 0xED DUP9 DUP9 DUP9 DUP9 DUP9 DUP9 PUSH2 0x20E PUSH1 0x20 SHL PUSH1 0x20 SHR JUMP JUMPDEST DUP9 PUSH1 0x11 PUSH0 PUSH2 0x100 EXP DUP2 SLOAD DUP2 PUSH20 0xFFFFFFFFFFFFFFFFFFFFFFFFFFFFFFFFFFFFFFFF MUL NOT AND SWAP1 DUP4 PUSH20 0xFFFFFFFFFFFFFFFFFFFFFFFFFFFFFFFFFFFFFFFF AND MUL OR SWAP1 SSTORE POP PUSH1 0x11 PUSH0 SWAP1 SLOAD SWAP1 PUSH2 0x100 EXP SWAP1 DIV PUSH20 0xFFFFFFFFFFFFFFFFFFFFFFFFFFFFFFFFFFFFFFFF AND PUSH20 0xFFFFFFFFFFFFFFFFFFFFFFFFFFFFFFFFFFFFFFFF AND PUSH4 0x18160DDD PUSH1 0x40 MLOAD DUP2 PUSH4 0xFFFFFFFF AND PUSH1 0xE0 SHL DUP2 MSTORE PUSH1 0x4 ADD PUSH1 0x20 PUSH1 0x40 MLOAD DUP1 DUP4 SUB DUP2 DUP7 GAS STATICCALL ISZERO DUP1 ISZERO PUSH2 0x197 JUMPI RETURNDATASIZE PUSH0 PUSH0 RETURNDATACOPY RETURNDATASIZE PUSH0 REVERT JUMPDEST POP POP POP POP PUSH1 0x40 MLOAD RETURNDATASIZE PUSH1 0x1F NOT PUSH1 0x1F DUP3 ADD AND DUP3 ADD DUP1 PUSH1 0x40 MSTORE POP DUP2 ADD SWAP1 PUSH2 0x1BB SWAP2 SWAP1 PUSH2 0xC36 JUMP JUMPDEST POP DUP2 PUSH1 0x12 PUSH0 PUSH2 0x100 EXP DUP2 SLOAD DUP2 PUSH20 0xFFFFFFFFFFFFFFFFFFFFFFFFFFFFFFFFFFFFFFFF MUL NOT AND SWAP1 DUP4 PUSH20 0xFFFFFFFFFFFFFFFFFFFFFFFFFFFFFFFFFFFFFFFF AND MUL OR SWAP1 SSTORE POP DUP1 PUSH1 0x13 DUP2 SWAP1 SSTORE POP POP POP POP POP POP POP POP POP POP JUMP JUMPDEST PUSH1 0x3 PUSH1 0x1 SWAP1 SLOAD SWAP1 PUSH2 0x100 EXP SWAP1 DIV PUSH20 0xFFFFFFFFFFFFFFFFFFFFFFFFFFFFFFFFFFFFFFFF AND PUSH20 0xFFFFFFFFFFFFFFFFFFFFFFFFFFFFFFFFFFFFFFFF AND CALLER PUSH20 0xFFFFFFFFFFFFFFFFFFFFFFFFFFFFFFFFFFFFFFFF AND EQ PUSH2 0x29E JUMPI PUSH1 0x40 MLOAD PUSH32 0x8C379A000000000000000000000000000000000000000000000000000000000 DUP2 MSTORE PUSH1 0x4 ADD PUSH2 0x295 SWAP1 PUSH2 0xCE1 JUMP JUMPDEST PUSH1 0x40 MLOAD DUP1 SWAP2 SUB SWAP1 REVERT JUMPDEST PUSH0 PUSH1 0x9 SLOAD EQ DUP1 ISZERO PUSH2 0x2B0 JUMPI POP PUSH0 PUSH1 0xA SLOAD EQ JUMPDEST PUSH2 0x2EF JUMPI PUSH1 0x40 MLOAD PUSH32 0x8C379A000000000000000000000000000000000000000000000000000000000 DUP2 MSTORE PUSH1 0x4 ADD PUSH2 0x2E6 SWAP1 PUSH2 0xD6F JUMP JUMPDEST PUSH1 0x40 MLOAD DUP1 SWAP2 SUB SWAP1 REVERT JUMPDEST DUP4 PUSH1 0x7 DUP2 SWAP1 SSTORE POP PUSH0 PUSH1 0x7 SLOAD GT PUSH2 0x33A JUMPI PUSH1 0x40 MLOAD PUSH32 0x8C379A000000000000000000000000000000000000000000000000000000000 DUP2 MSTORE PUSH1 0x4 ADD PUSH2 0x331 SWAP1 PUSH2 0xDFD JUMP JUMPDEST PUSH1 0x40 MLOAD DUP1 SWAP2 SUB SWAP1 REVERT JUMPDEST PUSH0 PUSH2 0x34A DUP8 PUSH2 0x460 PUSH1 0x20 SHL PUSH1 0x20 SHR JUMP JUMPDEST SWAP1 POP PUSH0 DUP2 EQ PUSH2 0x38E JUMPI PUSH1 0x40 MLOAD PUSH32 0x8C379A000000000000000000000000000000000000000000000000000000000 DUP2 MSTORE PUSH1 0x4 ADD PUSH2 0x385 SWAP1 PUSH2 0xE65 JUMP JUMPDEST PUSH1 0x40 MLOAD DUP1 SWAP2 SUB SWAP1 REVERT JUMPDEST PUSH2 0x39C PUSH2 0x63A PUSH1 0x20 SHL PUSH1 0x20 SHR JUMP JUMPDEST PUSH1 0x9 DUP2 SWAP1 SSTORE POP PUSH8 0xDE0B6B3A7640000 PUSH1 0xA DUP2 SWAP1 SSTORE POP PUSH2 0x3C0 DUP7 PUSH2 0x641 PUSH1 0x20 SHL PUSH1 0x20 SHR JUMP JUMPDEST SWAP1 POP PUSH0 DUP2 EQ PUSH2 0x404 JUMPI PUSH1 0x40 MLOAD PUSH32 0x8C379A000000000000000000000000000000000000000000000000000000000 DUP2 MSTORE PUSH1 0x4 ADD PUSH2 0x3FB SWAP1 PUSH2 0xEF3 JUMP JUMPDEST PUSH1 0x40 MLOAD DUP1 SWAP2 SUB SWAP1 REVERT JUMPDEST DUP4 PUSH1 0x1 SWAP1 DUP2 PUSH2 0x413 SWAP2 SWAP1 PUSH2 0x1118 JUMP JUMPDEST POP DUP3 PUSH1 0x2 SWAP1 DUP2 PUSH2 0x423 SWAP2 SWAP1 PUSH2 0x1118 JUMP JUMPDEST POP DUP2 PUSH1 0x3 PUSH0 PUSH2 0x100 EXP DUP2 SLOAD DUP2 PUSH1 0xFF MUL NOT AND SWAP1 DUP4 PUSH1 0xFF AND MUL OR SWAP1 SSTORE POP PUSH1 0x1 PUSH0 PUSH0 PUSH2 0x100 EXP DUP2 SLOAD DUP2 PUSH1 0xFF MUL NOT AND SWAP1 DUP4 ISZERO ISZERO MUL OR SWAP1 SSTORE POP POP POP POP POP POP POP POP JUMP JUMPDEST PUSH0 PUSH1 0x3 PUSH1 0x1 SWAP1 SLOAD SWAP1 PUSH2 0x100 EXP SWAP1 DIV PUSH20 0xFFFFFFFFFFFFFFFFFFFFFFFFFFFFFFFFFFFFFFFF AND PUSH20 0xFFFFFFFFFFFFFFFFFFFFFFFFFFFFFFFFFFFFFFFF AND CALLER PUSH20 0xFFFFFFFFFFFFFFFFFFFFFFFFFFFFFFFFFFFFFFFF AND EQ PUSH2 0x4E8 JUMPI PUSH1 0x40 MLOAD PUSH32 0xD219DC1F00000000000000000000000000000000000000000000000000000000 DUP2 MSTORE PUSH1 0x4 ADD PUSH1 0x40 MLOAD DUP1 SWAP2 SUB SWAP1 REVERT JUMPDEST PUSH0 PUSH1 0x5 PUSH0 SWAP1 SLOAD SWAP1 PUSH2 0x100 EXP SWAP1 DIV PUSH20 0xFFFFFFFFFFFFFFFFFFFFFFFFFFFFFFFFFFFFFFFF AND SWAP1 POP DUP3 PUSH20 0xFFFFFFFFFFFFFFFFFFFFFFFFFFFFFFFFFFFFFFFF AND PUSH3 0x7E3DD2 PUSH1 0x40 MLOAD DUP2 PUSH4 0xFFFFFFFF AND PUSH1 0xE0 SHL DUP2 MSTORE PUSH1 0x4 ADD PUSH1 0x20 PUSH1 0x40 MLOAD DUP1 DUP4 SUB DUP2 DUP7 GAS STATICCALL ISZERO DUP1 ISZERO PUSH2 0x555 JUMPI RETURNDATASIZE PUSH0 PUSH0 RETURNDATACOPY RETURNDATASIZE PUSH0 REVERT JUMPDEST POP POP POP POP PUSH1 0x40 MLOAD RETURNDATASIZE PUSH1 0x1F NOT PUSH1 0x1F DUP3 ADD AND DUP3 ADD DUP1 PUSH1 0x40 MSTORE POP DUP2 ADD SWAP1 PUSH2 0x579 SWAP2 SWAP1 PUSH2 0x121C JUMP JUMPDEST PUSH2 0x5B8 JUMPI PUSH1 0x40 MLOAD PUSH32 0x8C379A000000000000000000000000000000000000000000000000000000000 DUP2 MSTORE PUSH1 0x4 ADD PUSH2 0x5AF SWAP1 PUSH2 0x1291 JUMP JUMPDEST PUSH1 0x40 MLOAD DUP1 SWAP2 SUB SWAP1 REVERT JUMPDEST DUP3 PUSH1 0x5 PUSH0 PUSH2 0x100 EXP DUP2 SLOAD DUP2 PUSH20 0xFFFFFFFFFFFFFFFFFFFFFFFFFFFFFFFFFFFFFFFF MUL NOT AND SWAP1 DUP4 PUSH20 0xFFFFFFFFFFFFFFFFFFFFFFFFFFFFFFFFFFFFFFFF AND MUL OR SWAP1 SSTORE POP PUSH32 0x7AC369DBD14FA5EA3F473ED67CC9D598964A77501540BA6751EB0B3DECF5870D DUP2 DUP5 PUSH1 0x40 MLOAD PUSH2 0x629 SWAP3 SWAP2 SWAP1 PUSH2 0x1301 JUMP JUMPDEST PUSH1 0x40 MLOAD DUP1 SWAP2 SUB SWAP1 LOG1 PUSH0 SWAP2 POP POP SWAP2 SWAP1 POP JUMP JUMPDEST PUSH0 NUMBER SWAP1 POP SWAP1 JUMP JUMPDEST PUSH0 PUSH0 PUSH1 0x3 PUSH1 0x1 SWAP1 SLOAD SWAP1 PUSH2 0x100 EXP SWAP1 DIV PUSH20 0xFFFFFFFFFFFFFFFFFFFFFFFFFFFFFFFFFFFFFFFF AND PUSH20 0xFFFFFFFFFFFFFFFFFFFFFFFFFFFFFFFFFFFFFFFF AND CALLER PUSH20 0xFFFFFFFFFFFFFFFFFFFFFFFFFFFFFFFFFFFFFFFF AND EQ PUSH2 0x6CA JUMPI PUSH1 0x40 MLOAD PUSH32 0x407FDED500000000000000000000000000000000000000000000000000000000 DUP2 MSTORE PUSH1 0x4 ADD PUSH1 0x40 MLOAD DUP1 SWAP2 SUB SWAP1 REVERT JUMPDEST PUSH2 0x6D8 PUSH2 0x63A PUSH1 0x20 SHL PUSH1 0x20 SHR JUMP JUMPDEST PUSH1 0x9 SLOAD EQ PUSH2 0x712 JUMPI PUSH1 0x40 MLOAD PUSH32 0x17C54B9600000000000000000000000000000000000000000000000000000000 DUP2 MSTORE PUSH1 0x4 ADD PUSH1 0x40 MLOAD DUP1 SWAP2 SUB SWAP1 REVERT JUMPDEST PUSH1 0x6 PUSH0 SWAP1 SLOAD SWAP1 PUSH2 0x100 EXP SWAP1 DIV PUSH20 0xFFFFFFFFFFFFFFFFFFFFFFFFFFFFFFFFFFFFFFFF AND SWAP1 POP DUP3 PUSH20 0xFFFFFFFFFFFFFFFFFFFFFFFFFFFFFFFFFFFFFFFF AND PUSH4 0x2191F92A PUSH1 0x40 MLOAD DUP2 PUSH4 0xFFFFFFFF AND PUSH1 0xE0 SHL DUP2 MSTORE PUSH1 0x4 ADD PUSH1 0x20 PUSH1 0x40 MLOAD DUP1 DUP4 SUB DUP2 DUP7 GAS STATICCALL ISZERO DUP1 ISZERO PUSH2 0x77F JUMPI RETURNDATASIZE PUSH0 PUSH0 RETURNDATACOPY RETURNDATASIZE PUSH0 REVERT JUMPDEST POP POP POP POP PUSH1 0x40 MLOAD RETURNDATASIZE PUSH1 0x1F NOT PUSH1 0x1F DUP3 ADD AND DUP3 ADD DUP1 PUSH1 0x40 MSTORE POP DUP2 ADD SWAP1 PUSH2 0x7A3 SWAP2 SWAP1 PUSH2 0x121C JUMP JUMPDEST PUSH2 0x7E2 JUMPI PUSH1 0x40 MLOAD PUSH32 0x8C379A000000000000000000000000000000000000000000000000000000000 DUP2 MSTORE PUSH1 0x4 ADD PUSH2 0x7D9 SWAP1 PUSH2 0x1291 JUMP JUMPDEST PUSH1 0x40 MLOAD DUP1 SWAP2 SUB SWAP1 REVERT JUMPDEST DUP3 PUSH1 0x6 PUSH0 PUSH2 0x100 EXP DUP2 SLOAD DUP2 PUSH20 0xFFFFFFFFFFFFFFFFFFFFFFFFFFFFFFFFFFFFFFFF MUL NOT AND SWAP1 DUP4 PUSH20 0xFFFFFFFFFFFFFFFFFFFFFFFFFFFFFFFFFFFFFFFF AND MUL OR SWAP1 SSTORE POP PUSH32 0xEDFFC32E068C7C95DFD4BDFD5C4D939A084D6B11C4199EAC8436ED234D72F926 DUP2 DUP5 PUSH1 0x40 MLOAD PUSH2 0x853 SWAP3 SWAP2 SWAP1 PUSH2 0x1348 JUMP JUMPDEST PUSH1 0x40 MLOAD DUP1 SWAP2 SUB SWAP1 LOG1 PUSH0 SWAP2 POP POP SWAP2 SWAP1 POP JUMP JUMPDEST PUSH0 PUSH1 0x40 MLOAD SWAP1 POP SWAP1 JUMP JUMPDEST PUSH0 PUSH0 REVERT JUMPDEST PUSH0 PUSH0 REVERT JUMPDEST PUSH0 PUSH20 0xFFFFFFFFFFFFFFFFFFFFFFFFFFFFFFFFFFFFFFFF DUP3 AND SWAP1 POP SWAP2 SWAP1 POP JUMP JUMPDEST PUSH0 PUSH2 0x89E DUP3 PUSH2 0x875 JUMP JUMPDEST SWAP1 POP SWAP2 SWAP1 POP JUMP JUMPDEST PUSH2 0x8AE DUP2 PUSH2 0x894 JUMP JUMPDEST DUP2 EQ PUSH2 0x8B8 JUMPI PUSH0 PUSH0 REVERT JUMPDEST POP JUMP JUMPDEST PUSH0 DUP2 MLOAD SWAP1 POP PUSH2 0x8C9 DUP2 PUSH2 0x8A5 JUMP JUMPDEST SWAP3 SWAP2 POP POP JUMP JUMPDEST PUSH0 PUSH2 0x8D9 DUP3 PUSH2 0x894 JUMP JUMPDEST SWAP1 POP SWAP2 SWAP1 POP JUMP JUMPDEST PUSH2 0x8E9 DUP2 PUSH2 0x8CF JUMP JUMPDEST DUP2 EQ PUSH2 0x8F3 JUMPI PUSH0 PUSH0 REVERT JUMPDEST POP JUMP JUMPDEST PUSH0 DUP2 MLOAD SWAP1 POP PUSH2 0x904 DUP2 PUSH2 0x8E0 JUMP JUMPDEST SWAP3 SWAP2 POP POP JUMP JUMPDEST PUSH0 PUSH2 0x914 DUP3 PUSH2 0x894 JUMP JUMPDEST SWAP1 POP SWAP2 SWAP1 POP JUMP JUMPDEST PUSH2 0x924 DUP2 PUSH2 0x90A JUMP JUMPDEST DUP2 EQ PUSH2 0x92E JUMPI PUSH0 PUSH0 REVERT JUMPDEST POP JUMP JUMPDEST PUSH0 DUP2 MLOAD SWAP1 POP PUSH2 0x93F DUP2 PUSH2 0x91B JUMP JUMPDEST SWAP3 SWAP2 POP POP JUMP JUMPDEST PUSH0 DUP2 SWAP1 POP SWAP2 SWAP1 POP JUMP JUMPDEST PUSH2 0x957 DUP2 PUSH2 0x945 JUMP JUMPDEST DUP2 EQ PUSH2 0x961 JUMPI PUSH0 PUSH0 REVERT JUMPDEST POP JUMP JUMPDEST PUSH0 DUP2 MLOAD SWAP1 POP PUSH2 0x972 DUP2 PUSH2 0x94E JUMP JUMPDEST SWAP3 SWAP2 POP POP JUMP JUMPDEST PUSH0 PUSH0 REVERT JUMPDEST PUSH0 PUSH0 REVERT JUMPDEST PUSH0 PUSH1 0x1F NOT PUSH1 0x1F DUP4 ADD AND SWAP1 POP SWAP2 SWAP1 POP JUMP JUMPDEST PUSH32 0x4E487B7100000000000000000000000000000000000000000000000000000000 PUSH0 MSTORE PUSH1 0x41 PUSH1 0x4 MSTORE PUSH1 0x24 PUSH0 REVERT JUMPDEST PUSH2 0x9C6 DUP3 PUSH2 0x980 JUMP JUMPDEST DUP2 ADD DUP2 DUP2 LT PUSH8 0xFFFFFFFFFFFFFFFF DUP3 GT OR ISZERO PUSH2 0x9E5 JUMPI PUSH2 0x9E4 PUSH2 0x990 JUMP JUMPDEST JUMPDEST DUP1 PUSH1 0x40 MSTORE POP POP POP JUMP JUMPDEST PUSH0 PUSH2 0x9F7 PUSH2 0x864 JUMP JUMPDEST SWAP1 POP PUSH2 0xA03 DUP3 DUP3 PUSH2 0x9BD JUMP JUMPDEST SWAP2 SWAP1 POP JUMP JUMPDEST PUSH0 PUSH8 0xFFFFFFFFFFFFFFFF DUP3 GT ISZERO PUSH2 0xA22 JUMPI PUSH2 0xA21 PUSH2 0x990 JUMP JUMPDEST JUMPDEST PUSH2 0xA2B DUP3 PUSH2 0x980 JUMP JUMPDEST SWAP1 POP PUSH1 0x20 DUP2 ADD SWAP1 POP SWAP2 SWAP1 POP JUMP JUMPDEST DUP3 DUP2 DUP4 MCOPY PUSH0 DUP4 DUP4 ADD MSTORE POP POP POP JUMP JUMPDEST PUSH0 PUSH2 0xA58 PUSH2 0xA53 DUP5 PUSH2 0xA08 JUMP JUMPDEST PUSH2 0x9EE JUMP JUMPDEST SWAP1 POP DUP3 DUP2 MSTORE PUSH1 0x20 DUP2 ADD DUP5 DUP5 DUP5 ADD GT ISZERO PUSH2 0xA74 JUMPI PUSH2 0xA73 PUSH2 0x97C JUMP JUMPDEST JUMPDEST PUSH2 0xA7F DUP5 DUP3 DUP6 PUSH2 0xA38 JUMP JUMPDEST POP SWAP4 SWAP3 POP POP POP JUMP JUMPDEST PUSH0 DUP3 PUSH1 0x1F DUP4 ADD SLT PUSH2 0xA9B JUMPI PUSH2 0xA9A PUSH2 0x978 JUMP JUMPDEST JUMPDEST DUP2 MLOAD PUSH2 0xAAB DUP5 DUP3 PUSH1 0x20 DUP7 ADD PUSH2 0xA46 JUMP JUMPDEST SWAP2 POP POP SWAP3 SWAP2 POP POP JUMP JUMPDEST PUSH0 PUSH1 0xFF DUP3 AND SWAP1 POP SWAP2 SWAP1 POP JUMP JUMPDEST PUSH2 0xAC9 DUP2 PUSH2 0xAB4 JUMP JUMPDEST DUP2 EQ PUSH2 0xAD3 JUMPI PUSH0 PUSH0 REVERT JUMPDEST POP JUMP JUMPDEST PUSH0 DUP2 MLOAD SWAP1 POP PUSH2 0xAE4 DUP2 PUSH2 0xAC0 JUMP JUMPDEST SWAP3 SWAP2 POP POP JUMP JUMPDEST PUSH0 PUSH2 0xAF4 DUP3 PUSH2 0x875 JUMP JUMPDEST SWAP1 POP SWAP2 SWAP1 POP JUMP JUMPDEST PUSH2 0xB04 DUP2 PUSH2 0xAEA JUMP JUMPDEST DUP2 EQ PUSH2 0xB0E JUMPI PUSH0 PUSH0 REVERT JUMPDEST POP JUMP JUMPDEST PUSH0 DUP2 MLOAD SWAP1 POP PUSH2 0xB1F DUP2 PUSH2 0xAFB JUMP JUMPDEST SWAP3 SWAP2 POP POP JUMP JUMPDEST PUSH0 PUSH0 PUSH0 PUSH0 PUSH0 PUSH0 PUSH0 PUSH0 PUSH0 PUSH0 PUSH2 0x140 DUP12 DUP14 SUB SLT ISZERO PUSH2 0xB44 JUMPI PUSH2 0xB43 PUSH2 0x86D JUMP JUMPDEST JUMPDEST PUSH0 PUSH2 0xB51 DUP14 DUP3 DUP15 ADD PUSH2 0x8BB JUMP JUMPDEST SWAP11 POP POP PUSH1 0x20 PUSH2 0xB62 DUP14 DUP3 DUP15 ADD PUSH2 0x8F6 JUMP JUMPDEST SWAP10 POP POP PUSH1 0x40 PUSH2 0xB73 DUP14 DUP3 DUP15 ADD PUSH2 0x931 JUMP JUMPDEST SWAP9 POP POP PUSH1 0x60 PUSH2 0xB84 DUP14 DUP3 DUP15 ADD PUSH2 0x964 JUMP JUMPDEST SWAP8 POP POP PUSH1 0x80 DUP12 ADD MLOAD PUSH8 0xFFFFFFFFFFFFFFFF DUP2 GT ISZERO PUSH2 0xBA5 JUMPI PUSH2 0xBA4 PUSH2 0x871 JUMP JUMPDEST JUMPDEST PUSH2 0xBB1 DUP14 DUP3 DUP15 ADD PUSH2 0xA87 JUMP JUMPDEST SWAP7 POP POP PUSH1 0xA0 DUP12 ADD MLOAD PUSH8 0xFFFFFFFFFFFFFFFF DUP2 GT ISZERO PUSH2 0xBD2 JUMPI PUSH2 0xBD1 PUSH2 0x871 JUMP JUMPDEST JUMPDEST PUSH2 0xBDE DUP14 DUP3 DUP15 ADD PUSH2 0xA87 JUMP JUMPDEST SWAP6 POP POP PUSH1 0xC0 PUSH2 0xBEF DUP14 DUP3 DUP15 ADD PUSH2 0xAD6 JUMP JUMPDEST SWAP5 POP POP PUSH1 0xE0 PUSH2 0xC00 DUP14 DUP3 DUP15 ADD PUSH2 0x8BB JUMP JUMPDEST SWAP4 POP POP PUSH2 0x100 PUSH2 0xC12 DUP14 DUP3 DUP15 ADD PUSH2 0x964 JUMP JUMPDEST SWAP3 POP POP PUSH2 0x120 PUSH2 0xC24 DUP14 DUP3 DUP15 ADD PUSH2 0xB11 JUMP JUMPDEST SWAP2 POP POP SWAP3 SWAP6 SWAP9 SWAP12 SWAP2 SWAP5 SWAP8 SWAP11 POP SWAP3 SWAP6 SWAP9 POP JUMP JUMPDEST PUSH0 PUSH1 0x20 DUP3 DUP5 SUB SLT ISZERO PUSH2 0xC4B JUMPI PUSH2 0xC4A PUSH2 0x86D JUMP JUMPDEST JUMPDEST PUSH0 PUSH2 0xC58 DUP5 DUP3 DUP6 ADD PUSH2 0x964 JUMP JUMPDEST SWAP2 POP POP SWAP3 SWAP2 POP POP JUMP JUMPDEST PUSH0 DUP3 DUP3 MSTORE PUSH1 0x20 DUP3 ADD SWAP1 POP SWAP3 SWAP2 POP POP JUMP JUMPDEST PUSH32 0x6F6E6C792061646D696E206D617920696E697469616C697A6520746865206D61 PUSH0 DUP3 ADD MSTORE PUSH32 0x726B657400000000000000000000000000000000000000000000000000000000 PUSH1 0x20 DUP3 ADD MSTORE POP JUMP JUMPDEST PUSH0 PUSH2 0xCCB PUSH1 0x24 DUP4 PUSH2 0xC61 JUMP JUMPDEST SWAP2 POP PUSH2 0xCD6 DUP3 PUSH2 0xC71 JUMP JUMPDEST PUSH1 0x40 DUP3 ADD SWAP1 POP SWAP2 SWAP1 POP JUMP JUMPDEST PUSH0 PUSH1 0x20 DUP3 ADD SWAP1 POP DUP2 DUP2 SUB PUSH0 DUP4 ADD MSTORE PUSH2 0xCF8 DUP2 PUSH2 0xCBF JUMP JUMPDEST SWAP1 POP SWAP2 SWAP1 POP JUMP JUMPDEST PUSH32 0x6D61726B6574206D6179206F6E6C7920626520696E697469616C697A6564206F PUSH0 DUP3 ADD MSTORE PUSH32 0x6E63650000000000000000000000000000000000000000000000000000000000 PUSH1 0x20 DUP3 ADD MSTORE POP JUMP JUMPDEST PUSH0 PUSH2 0xD59 PUSH1 0x23 DUP4 PUSH2 0xC61 JUMP JUMPDEST SWAP2 POP PUSH2 0xD64 DUP3 PUSH2 0xCFF JUMP JUMPDEST PUSH1 0x40 DUP3 ADD SWAP1 POP SWAP2 SWAP1 POP JUMP JUMPDEST PUSH0 PUSH1 0x20 DUP3 ADD SWAP1 POP DUP2 DUP2 SUB PUSH0 DUP4 ADD MSTORE PUSH2 0xD86 DUP2 PUSH2 0xD4D JUMP JUMPDEST SWAP1 POP SWAP2 SWAP1 POP JUMP JUMPDEST PUSH32 0x696E697469616C2065786368616E67652072617465206D757374206265206772 PUSH0 DUP3 ADD MSTORE PUSH32 0x6561746572207468616E207A65726F2E00000000000000000000000000000000 PUSH1 0x20 DUP3 ADD MSTORE POP JUMP JUMPDEST PUSH0 PUSH2 0xDE7 PUSH1 0x30 DUP4 PUSH2 0xC61 JUMP JUMPDEST SWAP2 POP PUSH2 0xDF2 DUP3 PUSH2 0xD8D JUMP JUMPDEST PUSH1 0x40 DUP3 ADD SWAP1 POP SWAP2 SWAP1 POP JUMP JUMPDEST PUSH0 PUSH1 0x20 DUP3 ADD SWAP1 POP DUP2 DUP2 SUB PUSH0 DUP4 ADD MSTORE PUSH2 0xE14 DUP2 PUSH2 0xDDB JUMP JUMPDEST SWAP1 POP SWAP2 SWAP1 POP JUMP JUMPDEST PUSH32 0x73657474696E6720636F6D7074726F6C6C6572206661696C6564000000000000 PUSH0 DUP3 ADD MSTORE POP JUMP JUMPDEST PUSH0 PUSH2 0xE4F PUSH1 0x1A DUP4 PUSH2 0xC61 JUMP JUMPDEST SWAP2 POP PUSH2 0xE5A DUP3 PUSH2 0xE1B JUMP JUMPDEST PUSH1 0x20 DUP3 ADD SWAP1 POP SWAP2 SWAP1 POP JUMP JUMPDEST PUSH0 PUSH1 0x20 DUP3 ADD SWAP1 POP DUP2 DUP2 SUB PUSH0 DUP4 ADD MSTORE PUSH2 0xE7C DUP2 PUSH2 0xE43 JUMP JUMPDEST SWAP1 POP SWAP2 SWAP1 POP JUMP JUMPDEST PUSH32 0x73657474696E6720696E7465726573742072617465206D6F64656C206661696C PUSH0 DUP3 ADD MSTORE PUSH32 0x6564000000000000000000000000000000000000000000000000000000000000 PUSH1 0x20 DUP3 ADD MSTORE POP JUMP JUMPDEST PUSH0 PUSH2 0xEDD PUSH1 0x22 DUP4 PUSH2 0xC61 JUMP JUMPDEST SWAP2 POP PUSH2 0xEE8 DUP3 PUSH2 0xE83 JUMP JUMPDEST PUSH1 0x40 DUP3 ADD SWAP1 POP SWAP2 SWAP1 POP JUMP JUMPDEST PUSH0 PUSH1 0x20 DUP3 ADD SWAP1 POP DUP2 DUP2 SUB PUSH0 DUP4 ADD MSTORE PUSH2 0xF0A DUP2 PUSH2 0xED1 JUMP JUMPDEST SWAP1 POP SWAP2 SWAP1 POP JUMP JUMPDEST PUSH0 DUP2 MLOAD SWAP1 POP SWAP2 SWAP1 POP JUMP JUMPDEST PUSH32 0x4E487B7100000000000000000000000000000000000000000000000000000000 PUSH0 MSTORE PUSH1 0x22 PUSH1 0x4 MSTORE PUSH1 0x24 PUSH0 REVERT JUMPDEST PUSH0 PUSH1 0x2 DUP3 DIV SWAP1 POP PUSH1 0x1 DUP3 AND DUP1 PUSH2 0xF5F JUMPI PUSH1 0x7F DUP3 AND SWAP2 POP JUMPDEST PUSH1 0x20 DUP3 LT DUP2 SUB PUSH2 0xF72 JUMPI PUSH2 0xF71 PUSH2 0xF1B JUMP JUMPDEST JUMPDEST POP SWAP2 SWAP1 POP JUMP JUMPDEST PUSH0 DUP2 SWAP1 POP DUP2 PUSH0 MSTORE PUSH1 0x20 PUSH0 KECCAK256 SWAP1 POP SWAP2 SWAP1 POP JUMP JUMPDEST PUSH0 PUSH1 0x20 PUSH1 0x1F DUP4 ADD DIV SWAP1 POP SWAP2 SWAP1 POP JUMP JUMPDEST PUSH0 DUP3 DUP3 SHL SWAP1 POP SWAP3 SWAP2 POP POP JUMP JUMPDEST PUSH0 PUSH1 0x8 DUP4 MUL PUSH2 0xFD4 PUSH32 0xFFFFFFFFFFFFFFFFFFFFFFFFFFFFFFFFFFFFFFFFFFFFFFFFFFFFFFFFFFFFFFFF DUP3 PUSH2 0xF99 JUMP JUMPDEST PUSH2 0xFDE DUP7 DUP4 PUSH2 0xF99 JUMP JUMPDEST SWAP6 POP DUP1 NOT DUP5 AND SWAP4 POP DUP1 DUP7 AND DUP5 OR SWAP3 POP POP POP SWAP4 SWAP3 POP POP POP JUMP JUMPDEST PUSH0 DUP2 SWAP1 POP SWAP2 SWAP1 POP JUMP JUMPDEST PUSH0 PUSH2 0x1019 PUSH2 0x1014 PUSH2 0x100F DUP5 PUSH2 0x945 JUMP JUMPDEST PUSH2 0xFF6 JUMP JUMPDEST PUSH2 0x945 JUMP JUMPDEST SWAP1 POP SWAP2 SWAP1 POP JUMP JUMPDEST PUSH0 DUP2 SWAP1 POP SWAP2 SWAP1 POP JUMP JUMPDEST PUSH2 0x1032 DUP4 PUSH2 0xFFF JUMP JUMPDEST PUSH2 0x1046 PUSH2 0x103E DUP3 PUSH2 0x1020 JUMP JUMPDEST DUP5 DUP5 SLOAD PUSH2 0xFA5 JUMP JUMPDEST DUP3 SSTORE POP POP POP POP JUMP JUMPDEST PUSH0 PUSH0 SWAP1 POP SWAP1 JUMP JUMPDEST PUSH2 0x105D PUSH2 0x104E JUMP JUMPDEST PUSH2 0x1068 DUP2 DUP5 DUP5 PUSH2 0x1029 JUMP JUMPDEST POP POP POP JUMP JUMPDEST JUMPDEST DUP2 DUP2 LT ISZERO PUSH2 0x108B JUMPI PUSH2 0x1080 PUSH0 DUP3 PUSH2 0x1055 JUMP JUMPDEST PUSH1 0x1 DUP2 ADD SWAP1 POP PUSH2 0x106E JUMP JUMPDEST POP POP JUMP JUMPDEST PUSH1 0x1F DUP3 GT ISZERO PUSH2 0x10D0 JUMPI PUSH2 0x10A1 DUP2 PUSH2 0xF78 JUMP JUMPDEST PUSH2 0x10AA DUP5 PUSH2 0xF8A JUMP JUMPDEST DUP2 ADD PUSH1 0x20 DUP6 LT ISZERO PUSH2 0x10B9 JUMPI DUP2 SWAP1 POP JUMPDEST PUSH2 0x10CD PUSH2 0x10C5 DUP6 PUSH2 0xF8A JUMP JUMPDEST DUP4 ADD DUP3 PUSH2 0x106D JUMP JUMPDEST POP POP JUMPDEST POP POP POP JUMP JUMPDEST PUSH0 DUP3 DUP3 SHR SWAP1 POP SWAP3 SWAP2 POP POP JUMP JUMPDEST PUSH0 PUSH2 0x10F0 PUSH0 NOT DUP5 PUSH1 0x8 MUL PUSH2 0x10D5 JUMP JUMPDEST NOT DUP1 DUP4 AND SWAP2 POP POP SWAP3 SWAP2 POP POP JUMP JUMPDEST PUSH0 PUSH2 0x1108 DUP4 DUP4 PUSH2 0x10E1 JUMP JUMPDEST SWAP2 POP DUP3 PUSH1 0x2 MUL DUP3 OR SWAP1 POP SWAP3 SWAP2 POP POP JUMP JUMPDEST PUSH2 0x1121 DUP3 PUSH2 0xF11 JUMP JUMPDEST PUSH8 0xFFFFFFFFFFFFFFFF DUP2 GT ISZERO PUSH2 0x113A JUMPI PUSH2 0x1139 PUSH2 0x990 JUMP JUMPDEST JUMPDEST PUSH2 0x1144 DUP3 SLOAD PUSH2 0xF48 JUMP JUMPDEST PUSH2 0x114F DUP3 DUP3 DUP6 PUSH2 0x108F JUMP JUMPDEST PUSH0 PUSH1 0x20 SWAP1 POP PUSH1 0x1F DUP4 GT PUSH1 0x1 DUP2 EQ PUSH2 0x1180 JUMPI PUSH0 DUP5 ISZERO PUSH2 0x116E JUMPI DUP3 DUP8 ADD MLOAD SWAP1 POP JUMPDEST PUSH2 0x1178 DUP6 DUP3 PUSH2 0x10FD JUMP JUMPDEST DUP7 SSTORE POP PUSH2 0x11DF JUMP JUMPDEST PUSH1 0x1F NOT DUP5 AND PUSH2 0x118E DUP7 PUSH2 0xF78 JUMP JUMPDEST PUSH0 JUMPDEST DUP3 DUP2 LT ISZERO PUSH2 0x11B5 JUMPI DUP5 DUP10 ADD MLOAD DUP3 SSTORE PUSH1 0x1 DUP3 ADD SWAP2 POP PUSH1 0x20 DUP6 ADD SWAP5 POP PUSH1 0x20 DUP2 ADD SWAP1 POP PUSH2 0x1190 JUMP JUMPDEST DUP7 DUP4 LT ISZERO PUSH2 0x11D2 JUMPI DUP5 DUP10 ADD MLOAD PUSH2 0x11CE PUSH1 0x1F DUP10 AND DUP3 PUSH2 0x10E1 JUMP JUMPDEST DUP4 SSTORE POP JUMPDEST PUSH1 0x1 PUSH1 0x2 DUP9 MUL ADD DUP9 SSTORE POP POP POP JUMPDEST POP POP POP POP POP POP JUMP JUMPDEST PUSH0 DUP2 ISZERO ISZERO SWAP1 POP SWAP2 SWAP1 POP JUMP JUMPDEST PUSH2 0x11FB DUP2 PUSH2 0x11E7 JUMP JUMPDEST DUP2 EQ PUSH2 0x1205 JUMPI PUSH0 PUSH0 REVERT JUMPDEST POP JUMP JUMPDEST PUSH0 DUP2 MLOAD SWAP1 POP PUSH2 0x1216 DUP2 PUSH2 0x11F2 JUMP JUMPDEST SWAP3 SWAP2 POP POP JUMP JUMPDEST PUSH0 PUSH1 0x20 DUP3 DUP5 SUB SLT ISZERO PUSH2 0x1231 JUMPI PUSH2 0x1230 PUSH2 0x86D JUMP JUMPDEST JUMPDEST PUSH0 PUSH2 0x123E DUP5 DUP3 DUP6 ADD PUSH2 0x1208 JUMP JUMPDEST SWAP2 POP POP SWAP3 SWAP2 POP POP JUMP JUMPDEST PUSH32 0x6D61726B6572206D6574686F642072657475726E65642066616C736500000000 PUSH0 DUP3 ADD MSTORE POP JUMP JUMPDEST PUSH0 PUSH2 0x127B PUSH1 0x1C DUP4 PUSH2 0xC61 JUMP JUMPDEST SWAP2 POP PUSH2 0x1286 DUP3 PUSH2 0x1247 JUMP JUMPDEST PUSH1 0x20 DUP3 ADD SWAP1 POP SWAP2 SWAP1 POP JUMP JUMPDEST PUSH0 PUSH1 0x20 DUP3 ADD SWAP1 POP DUP2 DUP2 SUB PUSH0 DUP4 ADD MSTORE PUSH2 0x12A8 DUP2 PUSH2 0x126F JUMP JUMPDEST SWAP1 POP SWAP2 SWAP1 POP JUMP JUMPDEST PUSH0 PUSH2 0x12C9 PUSH2 0x12C4 PUSH2 0x12BF DUP5 PUSH2 0x875 JUMP JUMPDEST PUSH2 0xFF6 JUMP JUMPDEST PUSH2 0x875 JUMP JUMPDEST SWAP1 POP SWAP2 SWAP1 POP JUMP JUMPDEST PUSH0 PUSH2 0x12DA DUP3 PUSH2 0x12AF JUMP JUMPDEST SWAP1 POP SWAP2 SWAP1 POP JUMP JUMPDEST PUSH0 PUSH2 0x12EB DUP3 PUSH2 0x12D0 JUMP JUMPDEST SWAP1 POP SWAP2 SWAP1 POP JUMP JUMPDEST PUSH2 0x12FB DUP2 PUSH2 0x12E1 JUMP JUMPDEST DUP3 MSTORE POP POP JUMP JUMPDEST PUSH0 PUSH1 0x40 DUP3 ADD SWAP1 POP PUSH2 0x1314 PUSH0 DUP4 ADD DUP6 PUSH2 0x12F2 JUMP JUMPDEST PUSH2 0x1321 PUSH1 0x20 DUP4 ADD DUP5 PUSH2 0x12F2 JUMP JUMPDEST SWAP4 SWAP3 POP POP POP JUMP JUMPDEST PUSH0 PUSH2 0x1332 DUP3 PUSH2 0x12D0 JUMP JUMPDEST SWAP1 POP SWAP2 SWAP1 POP JUMP JUMPDEST PUSH2 0x1342 DUP2 PUSH2 0x1328 JUMP JUMPDEST DUP3 MSTORE POP POP JUMP JUMPDEST PUSH0 PUSH1 0x40 DUP3 ADD SWAP1 POP PUSH2 0x135B PUSH0 DUP4 ADD DUP6 PUSH2 0x1339 JUMP JUMPDEST PUSH2 0x1368 PUSH1 0x20 DUP4 ADD DUP5 PUSH2 0x1339 JUMP JUMPDEST SWAP4 SWAP3 POP POP POP JUMP JUMPDEST PUSH2 0x7404 DUP1 PUSH2 0x137C PUSH0 CODECOPY PUSH0 RETURN INVALID PUSH1 0x80 PUSH1 0x40 MSTORE CALLVALUE DUP1 ISZERO PUSH2 0xF JUMPI PUSH0 PUSH0 REVERT JUMPDEST POP PUSH1 0x4 CALLDATASIZE LT PUSH2 0x397 JUMPI PUSH0 CALLDATALOAD PUSH1 0xE0 SHR DUP1 PUSH4 0x9003ADFE GT PUSH2 0x1E7 JUMPI DUP1 PUSH4 0xC37F68E2 GT PUSH2 0x10D JUMPI DUP1 PUSH4 0xF3FDB15A GT PUSH2 0xAB JUMPI DUP1 PUSH4 0xF8F9DA28 GT PUSH2 0x7A JUMPI DUP1 PUSH4 0xF8F9DA28 EQ PUSH2 0xB7C JUMPI DUP1 PUSH4 0xFC0C546A EQ PUSH2 0xB9A JUMPI DUP1 PUSH4 0xFCA7820B EQ PUSH2 0xBB8 JUMPI DUP1 PUSH4 0xFE9C44AE EQ PUSH2 0xBE8 JUMPI PUSH2 0x397 JUMP JUMPDEST DUP1 PUSH4 0xF3FDB15A EQ PUSH2 0xAF4 JUMPI DUP1 PUSH4 0xF46901ED EQ PUSH2 0xB12 JUMPI DUP1 PUSH4 0xF5E3C462 EQ PUSH2 0xB2E JUMPI DUP1 PUSH4 0xF851A440 EQ PUSH2 0xB5E JUMPI PUSH2 0x397 JUMP JUMPDEST DUP1 PUSH4 0xDD62ED3E GT PUSH2 0xE7 JUMPI DUP1 PUSH4 0xDD62ED3E EQ PUSH2 0xA5A JUMPI DUP1 PUSH4 0xE9C714F2 EQ PUSH2 0xA8A JUMPI DUP1 PUSH4 0xEDDD0D9C EQ PUSH2 0xAA8 JUMPI DUP1 PUSH4 0xF2B3ABBD EQ PUSH2 0xAC4 JUMPI PUSH2 0x397 JUMP JUMPDEST DUP1 PUSH4 0xC37F68E2 EQ PUSH2 0x9C7 JUMPI DUP1 PUSH4 0xC5EBEAEC EQ PUSH2 0x9FA JUMPI DUP1 PUSH4 0xDB006A75 EQ PUSH2 0xA2A JUMPI PUSH2 0x397 JUMP JUMPDEST DUP1 PUSH4 0xA6AFED95 GT PUSH2 0x185 JUMPI DUP1 PUSH4 0xB2A02FF1 GT PUSH2 0x154 JUMPI DUP1 PUSH4 0xB2A02FF1 EQ PUSH2 0x93F JUMPI DUP1 PUSH4 0xB71D1A0C EQ PUSH2 0x96F JUMPI DUP1 PUSH4 0xBB57AD20 EQ PUSH2 0x99F JUMPI DUP1 PUSH4 0xBD6D894D EQ PUSH2 0x9A9 JUMPI PUSH2 0x397 JUMP JUMPDEST DUP1 PUSH4 0xA6AFED95 EQ PUSH2 0x8B5 JUMPI DUP1 PUSH4 0xA9059CBB EQ PUSH2 0x8D3 JUMPI DUP1 PUSH4 0xAA5AF0FD EQ PUSH2 0x903 JUMPI DUP1 PUSH4 0xAE9D70B0 EQ PUSH2 0x921 JUMPI PUSH2 0x397 JUMP JUMPDEST DUP1 PUSH4 0x97C8BCC1 GT PUSH2 0x1C1 JUMPI DUP1 PUSH4 0x97C8BCC1 EQ PUSH2 0x82F JUMPI DUP1 PUSH4 0x99D8C1B4 EQ PUSH2 0x84D JUMPI DUP1 PUSH4 0xA0712D68 EQ PUSH2 0x869 JUMPI DUP1 PUSH4 0xA07EAA06 EQ PUSH2 0x899 JUMPI PUSH2 0x397 JUMP JUMPDEST DUP1 PUSH4 0x9003ADFE EQ PUSH2 0x7C3 JUMPI DUP1 PUSH4 0x95D89B41 EQ PUSH2 0x7E1 JUMPI DUP1 PUSH4 0x95DD9193 EQ PUSH2 0x7FF JUMPI PUSH2 0x397 JUMP JUMPDEST DUP1 PUSH4 0x3B1D21A2 GT PUSH2 0x2CC JUMPI DUP1 PUSH4 0x69AB3250 GT PUSH2 0x26A JUMPI DUP1 PUSH4 0x73ACEE98 GT PUSH2 0x239 JUMPI DUP1 PUSH4 0x73ACEE98 EQ PUSH2 0x73B JUMPI DUP1 PUSH4 0x7F1E06BE EQ PUSH2 0x759 JUMPI DUP1 PUSH4 0x852A12E3 EQ PUSH2 0x775 JUMPI DUP1 PUSH4 0x8F840DDD EQ PUSH2 0x7A5 JUMPI PUSH2 0x397 JUMP JUMPDEST DUP1 PUSH4 0x69AB3250 EQ PUSH2 0x6B1 JUMPI DUP1 PUSH4 0x6C540BAF EQ PUSH2 0x6CF JUMPI DUP1 PUSH4 0x6F307DC3 EQ PUSH2 0x6ED JUMPI DUP1 PUSH4 0x70A08231 EQ PUSH2 0x70B JUMPI PUSH2 0x397 JUMP JUMPDEST DUP1 PUSH4 0x47BD3718 GT PUSH2 0x2A6 JUMPI DUP1 PUSH4 0x47BD3718 EQ PUSH2 0x627 JUMPI DUP1 PUSH4 0x5FE3B567 EQ PUSH2 0x645 JUMPI DUP1 PUSH4 0x601A0BF1 EQ PUSH2 0x663 JUMPI DUP1 PUSH4 0x6752E702 EQ PUSH2 0x693 JUMPI PUSH2 0x397 JUMP JUMPDEST DUP1 PUSH4 0x3B1D21A2 EQ PUSH2 0x5A9 JUMPI DUP1 PUSH4 0x3E941010 EQ PUSH2 0x5C7 JUMPI DUP1 PUSH4 0x4576B5DB EQ PUSH2 0x5F7 JUMPI PUSH2 0x397 JUMP JUMPDEST DUP1 PUSH4 0x182DF0F5 GT PUSH2 0x339 JUMPI DUP1 PUSH4 0x2608F818 GT PUSH2 0x313 JUMPI DUP1 PUSH4 0x2608F818 EQ PUSH2 0x50D JUMPI DUP1 PUSH4 0x26782247 EQ PUSH2 0x53D JUMPI DUP1 PUSH4 0x313CE567 EQ PUSH2 0x55B JUMPI DUP1 PUSH4 0x3AF9E669 EQ PUSH2 0x579 JUMPI PUSH2 0x397 JUMP JUMPDEST DUP1 PUSH4 0x182DF0F5 EQ PUSH2 0x4A3 JUMPI DUP1 PUSH4 0x1BE19560 EQ PUSH2 0x4C1 JUMPI DUP1 PUSH4 0x23B872DD EQ PUSH2 0x4DD JUMPI PUSH2 0x397 JUMP JUMPDEST DUP1 PUSH4 0xE752702 GT PUSH2 0x375 JUMPI DUP1 PUSH4 0xE752702 EQ PUSH2 0x407 JUMPI DUP1 PUSH4 0x173B9904 EQ PUSH2 0x437 JUMPI DUP1 PUSH4 0x17BFDFBC EQ PUSH2 0x455 JUMPI DUP1 PUSH4 0x18160DDD EQ PUSH2 0x485 JUMPI PUSH2 0x397 JUMP JUMPDEST DUP1 PUSH4 0x17E7E58 EQ PUSH2 0x39B JUMPI DUP1 PUSH4 0x6FDDE03 EQ PUSH2 0x3B9 JUMPI DUP1 PUSH4 0x95EA7B3 EQ PUSH2 0x3D7 JUMPI JUMPDEST PUSH0 PUSH0 REVERT JUMPDEST PUSH2 0x3A3 PUSH2 0xC06 JUMP JUMPDEST PUSH1 0x40 MLOAD PUSH2 0x3B0 SWAP2 SWAP1 PUSH2 0x563C JUMP JUMPDEST PUSH1 0x40 MLOAD DUP1 SWAP2 SUB SWAP1 RETURN JUMPDEST PUSH2 0x3C1 PUSH2 0xC2B JUMP JUMPDEST PUSH1 0x40 MLOAD PUSH2 0x3CE SWAP2 SWAP1 PUSH2 0x56C5 JUMP JUMPDEST PUSH1 0x40 MLOAD DUP1 SWAP2 SUB SWAP1 RETURN JUMPDEST PUSH2 0x3F1 PUSH1 0x4 DUP1 CALLDATASIZE SUB DUP2 ADD SWAP1 PUSH2 0x3EC SWAP2 SWAP1 PUSH2 0x5753 JUMP JUMPDEST PUSH2 0xCB7 JUMP JUMPDEST PUSH1 0x40 MLOAD PUSH2 0x3FE SWAP2 SWAP1 PUSH2 0x57AB JUMP JUMPDEST PUSH1 0x40 MLOAD DUP1 SWAP2 SUB SWAP1 RETURN JUMPDEST PUSH2 0x421 PUSH1 0x4 DUP1 CALLDATASIZE SUB DUP2 ADD SWAP1 PUSH2 0x41C SWAP2 SWAP1 PUSH2 0x57C4 JUMP JUMPDEST PUSH2 0xDA9 JUMP JUMPDEST PUSH1 0x40 MLOAD PUSH2 0x42E SWAP2 SWAP1 PUSH2 0x57FE JUMP JUMPDEST PUSH1 0x40 MLOAD DUP1 SWAP2 SUB SWAP1 RETURN JUMPDEST PUSH2 0x43F PUSH2 0xDBB JUMP JUMPDEST PUSH1 0x40 MLOAD PUSH2 0x44C SWAP2 SWAP1 PUSH2 0x57FE JUMP JUMPDEST PUSH1 0x40 MLOAD DUP1 SWAP2 SUB SWAP1 RETURN JUMPDEST PUSH2 0x46F PUSH1 0x4 DUP1 CALLDATASIZE SUB DUP2 ADD SWAP1 PUSH2 0x46A SWAP2 SWAP1 PUSH2 0x5817 JUMP JUMPDEST PUSH2 0xDC1 JUMP JUMPDEST PUSH1 0x40 MLOAD PUSH2 0x47C SWAP2 SWAP1 PUSH2 0x57FE JUMP JUMPDEST PUSH1 0x40 MLOAD DUP1 SWAP2 SUB SWAP1 RETURN JUMPDEST PUSH2 0x48D PUSH2 0xE59 JUMP JUMPDEST PUSH1 0x40 MLOAD PUSH2 0x49A SWAP2 SWAP1 PUSH2 0x57FE JUMP JUMPDEST PUSH1 0x40 MLOAD DUP1 SWAP2 SUB SWAP1 RETURN JUMPDEST PUSH2 0x4AB PUSH2 0xE5F JUMP JUMPDEST PUSH1 0x40 MLOAD PUSH2 0x4B8 SWAP2 SWAP1 PUSH2 0x57FE JUMP JUMPDEST PUSH1 0x40 MLOAD DUP1 SWAP2 SUB SWAP1 RETURN JUMPDEST PUSH2 0x4DB PUSH1 0x4 DUP1 CALLDATASIZE SUB DUP2 ADD SWAP1 PUSH2 0x4D6 SWAP2 SWAP1 PUSH2 0x587D JUMP JUMPDEST PUSH2 0xE6D JUMP JUMPDEST STOP JUMPDEST PUSH2 0x4F7 PUSH1 0x4 DUP1 CALLDATASIZE SUB DUP2 ADD SWAP1 PUSH2 0x4F2 SWAP2 SWAP1 PUSH2 0x58A8 JUMP JUMPDEST PUSH2 0x1095 JUMP JUMPDEST PUSH1 0x40 MLOAD PUSH2 0x504 SWAP2 SWAP1 PUSH2 0x57AB JUMP JUMPDEST PUSH1 0x40 MLOAD DUP1 SWAP2 SUB SWAP1 RETURN JUMPDEST PUSH2 0x527 PUSH1 0x4 DUP1 CALLDATASIZE SUB DUP2 ADD SWAP1 PUSH2 0x522 SWAP2 SWAP1 PUSH2 0x5753 JUMP JUMPDEST PUSH2 0x112B JUMP JUMPDEST PUSH1 0x40 MLOAD PUSH2 0x534 SWAP2 SWAP1 PUSH2 0x57FE JUMP JUMPDEST PUSH1 0x40 MLOAD DUP1 SWAP2 SUB SWAP1 RETURN JUMPDEST PUSH2 0x545 PUSH2 0x113F JUMP JUMPDEST PUSH1 0x40 MLOAD PUSH2 0x552 SWAP2 SWAP1 PUSH2 0x5918 JUMP JUMPDEST PUSH1 0x40 MLOAD DUP1 SWAP2 SUB SWAP1 RETURN JUMPDEST PUSH2 0x563 PUSH2 0x1164 JUMP JUMPDEST PUSH1 0x40 MLOAD PUSH2 0x570 SWAP2 SWAP1 PUSH2 0x594C JUMP JUMPDEST PUSH1 0x40 MLOAD DUP1 SWAP2 SUB SWAP1 RETURN JUMPDEST PUSH2 0x593 PUSH1 0x4 DUP1 CALLDATASIZE SUB DUP2 ADD SWAP1 PUSH2 0x58E SWAP2 SWAP1 PUSH2 0x5817 JUMP JUMPDEST PUSH2 0x1176 JUMP JUMPDEST PUSH1 0x40 MLOAD PUSH2 0x5A0 SWAP2 SWAP1 PUSH2 0x57FE JUMP JUMPDEST PUSH1 0x40 MLOAD DUP1 SWAP2 SUB SWAP1 RETURN JUMPDEST PUSH2 0x5B1 PUSH2 0x11DF JUMP JUMPDEST PUSH1 0x40 MLOAD PUSH2 0x5BE SWAP2 SWAP1 PUSH2 0x57FE JUMP JUMPDEST PUSH1 0x40 MLOAD DUP1 SWAP2 SUB SWAP1 RETURN JUMPDEST PUSH2 0x5E1 PUSH1 0x4 DUP1 CALLDATASIZE SUB DUP2 ADD SWAP1 PUSH2 0x5DC SWAP2 SWAP1 PUSH2 0x57C4 JUMP JUMPDEST PUSH2 0x11ED JUMP JUMPDEST PUSH1 0x40 MLOAD PUSH2 0x5EE SWAP2 SWAP1 PUSH2 0x57FE JUMP JUMPDEST PUSH1 0x40 MLOAD DUP1 SWAP2 SUB SWAP1 RETURN JUMPDEST PUSH2 0x611 PUSH1 0x4 DUP1 CALLDATASIZE SUB DUP2 ADD SWAP1 PUSH2 0x60C SWAP2 SWAP1 PUSH2 0x59A0 JUMP JUMPDEST PUSH2 0x11FE JUMP JUMPDEST PUSH1 0x40 MLOAD PUSH2 0x61E SWAP2 SWAP1 PUSH2 0x57FE JUMP JUMPDEST PUSH1 0x40 MLOAD DUP1 SWAP2 SUB SWAP1 RETURN JUMPDEST PUSH2 0x62F PUSH2 0x13D8 JUMP JUMPDEST PUSH1 0x40 MLOAD PUSH2 0x63C SWAP2 SWAP1 PUSH2 0x57FE JUMP JUMPDEST PUSH1 0x40 MLOAD DUP1 SWAP2 SUB SWAP1 RETURN JUMPDEST PUSH2 0x64D PUSH2 0x13DE JUMP JUMPDEST PUSH1 0x40 MLOAD PUSH2 0x65A SWAP2 SWAP1 PUSH2 0x5A26 JUMP JUMPDEST PUSH1 0x40 MLOAD DUP1 SWAP2 SUB SWAP1 RETURN JUMPDEST PUSH2 0x67D PUSH1 0x4 DUP1 CALLDATASIZE SUB DUP2 ADD SWAP1 PUSH2 0x678 SWAP2 SWAP1 PUSH2 0x57C4 JUMP JUMPDEST PUSH2 0x1403 JUMP JUMPDEST PUSH1 0x40 MLOAD PUSH2 0x68A SWAP2 SWAP1 PUSH2 0x57FE JUMP JUMPDEST PUSH1 0x40 MLOAD DUP1 SWAP2 SUB SWAP1 RETURN JUMPDEST PUSH2 0x69B PUSH2 0x149B JUMP JUMPDEST PUSH1 0x40 MLOAD PUSH2 0x6A8 SWAP2 SWAP1 PUSH2 0x57FE JUMP JUMPDEST PUSH1 0x40 MLOAD DUP1 SWAP2 SUB SWAP1 RETURN JUMPDEST PUSH2 0x6B9 PUSH2 0x14A6 JUMP JUMPDEST PUSH1 0x40 MLOAD PUSH2 0x6C6 SWAP2 SWAP1 PUSH2 0x57FE JUMP JUMPDEST PUSH1 0x40 MLOAD DUP1 SWAP2 SUB SWAP1 RETURN JUMPDEST PUSH2 0x6D7 PUSH2 0x14AA JUMP JUMPDEST PUSH1 0x40 MLOAD PUSH2 0x6E4 SWAP2 SWAP1 PUSH2 0x57FE JUMP JUMPDEST PUSH1 0x40 MLOAD DUP1 SWAP2 SUB SWAP1 RETURN JUMPDEST PUSH2 0x6F5 PUSH2 0x14B0 JUMP JUMPDEST PUSH1 0x40 MLOAD PUSH2 0x702 SWAP2 SWAP1 PUSH2 0x563C JUMP JUMPDEST PUSH1 0x40 MLOAD DUP1 SWAP2 SUB SWAP1 RETURN JUMPDEST PUSH2 0x725 PUSH1 0x4 DUP1 CALLDATASIZE SUB DUP2 ADD SWAP1 PUSH2 0x720 SWAP2 SWAP1 PUSH2 0x5817 JUMP JUMPDEST PUSH2 0x14D5 JUMP JUMPDEST PUSH1 0x40 MLOAD PUSH2 0x732 SWAP2 SWAP1 PUSH2 0x57FE JUMP JUMPDEST PUSH1 0x40 MLOAD DUP1 SWAP2 SUB SWAP1 RETURN JUMPDEST PUSH2 0x743 PUSH2 0x151B JUMP JUMPDEST PUSH1 0x40 MLOAD PUSH2 0x750 SWAP2 SWAP1 PUSH2 0x57FE JUMP JUMPDEST PUSH1 0x40 MLOAD DUP1 SWAP2 SUB SWAP1 RETURN JUMPDEST PUSH2 0x773 PUSH1 0x4 DUP1 CALLDATASIZE SUB DUP2 ADD SWAP1 PUSH2 0x76E SWAP2 SWAP1 PUSH2 0x5817 JUMP JUMPDEST PUSH2 0x15AB JUMP JUMPDEST STOP JUMPDEST PUSH2 0x78F PUSH1 0x4 DUP1 CALLDATASIZE SUB DUP2 ADD SWAP1 PUSH2 0x78A SWAP2 SWAP1 PUSH2 0x57C4 JUMP JUMPDEST PUSH2 0x16C5 JUMP JUMPDEST PUSH1 0x40 MLOAD PUSH2 0x79C SWAP2 SWAP1 PUSH2 0x57FE JUMP JUMPDEST PUSH1 0x40 MLOAD DUP1 SWAP2 SUB SWAP1 RETURN JUMPDEST PUSH2 0x7AD PUSH2 0x16D7 JUMP JUMPDEST PUSH1 0x40 MLOAD PUSH2 0x7BA SWAP2 SWAP1 PUSH2 0x57FE JUMP JUMPDEST PUSH1 0x40 MLOAD DUP1 SWAP2 SUB SWAP1 RETURN JUMPDEST PUSH2 0x7CB PUSH2 0x16DD JUMP JUMPDEST PUSH1 0x40 MLOAD PUSH2 0x7D8 SWAP2 SWAP1 PUSH2 0x57FE JUMP JUMPDEST PUSH1 0x40 MLOAD DUP1 SWAP2 SUB SWAP1 RETURN JUMPDEST PUSH2 0x7E9 PUSH2 0x16E3 JUMP JUMPDEST PUSH1 0x40 MLOAD PUSH2 0x7F6 SWAP2 SWAP1 PUSH2 0x56C5 JUMP JUMPDEST PUSH1 0x40 MLOAD DUP1 SWAP2 SUB SWAP1 RETURN JUMPDEST PUSH2 0x819 PUSH1 0x4 DUP1 CALLDATASIZE SUB DUP2 ADD SWAP1 PUSH2 0x814 SWAP2 SWAP1 PUSH2 0x5817 JUMP JUMPDEST PUSH2 0x176F JUMP JUMPDEST PUSH1 0x40 MLOAD PUSH2 0x826 SWAP2 SWAP1 PUSH2 0x57FE JUMP JUMPDEST PUSH1 0x40 MLOAD DUP1 SWAP2 SUB SWAP1 RETURN JUMPDEST PUSH2 0x837 PUSH2 0x1780 JUMP JUMPDEST PUSH1 0x40 MLOAD PUSH2 0x844 SWAP2 SWAP1 PUSH2 0x57FE JUMP JUMPDEST PUSH1 0x40 MLOAD DUP1 SWAP2 SUB SWAP1 RETURN JUMPDEST PUSH2 0x867 PUSH1 0x4 DUP1 CALLDATASIZE SUB DUP2 ADD SWAP1 PUSH2 0x862 SWAP2 SWAP1 PUSH2 0x5BD0 JUMP JUMPDEST PUSH2 0x1786 JUMP JUMPDEST STOP JUMPDEST PUSH2 0x883 PUSH1 0x4 DUP1 CALLDATASIZE SUB DUP2 ADD SWAP1 PUSH2 0x87E SWAP2 SWAP1 PUSH2 0x57C4 JUMP JUMPDEST PUSH2 0x19C6 JUMP JUMPDEST PUSH1 0x40 MLOAD PUSH2 0x890 SWAP2 SWAP1 PUSH2 0x57FE JUMP JUMPDEST PUSH1 0x40 MLOAD DUP1 SWAP2 SUB SWAP1 RETURN JUMPDEST PUSH2 0x8B3 PUSH1 0x4 DUP1 CALLDATASIZE SUB DUP2 ADD SWAP1 PUSH2 0x8AE SWAP2 SWAP1 PUSH2 0x5C91 JUMP JUMPDEST PUSH2 0x1A45 JUMP JUMPDEST STOP JUMPDEST PUSH2 0x8BD PUSH2 0x1B74 JUMP JUMPDEST PUSH1 0x40 MLOAD PUSH2 0x8CA SWAP2 SWAP1 PUSH2 0x57FE JUMP JUMPDEST PUSH1 0x40 MLOAD DUP1 SWAP2 SUB SWAP1 RETURN JUMPDEST PUSH2 0x8ED PUSH1 0x4 DUP1 CALLDATASIZE SUB DUP2 ADD SWAP1 PUSH2 0x8E8 SWAP2 SWAP1 PUSH2 0x5753 JUMP JUMPDEST PUSH2 0x1D7C JUMP JUMPDEST PUSH1 0x40 MLOAD PUSH2 0x8FA SWAP2 SWAP1 PUSH2 0x57AB JUMP JUMPDEST PUSH1 0x40 MLOAD DUP1 SWAP2 SUB SWAP1 RETURN JUMPDEST PUSH2 0x90B PUSH2 0x1E11 JUMP JUMPDEST PUSH1 0x40 MLOAD PUSH2 0x918 SWAP2 SWAP1 PUSH2 0x57FE JUMP JUMPDEST PUSH1 0x40 MLOAD DUP1 SWAP2 SUB SWAP1 RETURN JUMPDEST PUSH2 0x929 PUSH2 0x1E17 JUMP JUMPDEST PUSH1 0x40 MLOAD PUSH2 0x936 SWAP2 SWAP1 PUSH2 0x57FE JUMP JUMPDEST PUSH1 0x40 MLOAD DUP1 SWAP2 SUB SWAP1 RETURN JUMPDEST PUSH2 0x959 PUSH1 0x4 DUP1 CALLDATASIZE SUB DUP2 ADD SWAP1 PUSH2 0x954 SWAP2 SWAP1 PUSH2 0x58A8 JUMP JUMPDEST PUSH2 0x1EC9 JUMP JUMPDEST PUSH1 0x40 MLOAD PUSH2 0x966 SWAP2 SWAP1 PUSH2 0x57FE JUMP JUMPDEST PUSH1 0x40 MLOAD DUP1 SWAP2 SUB SWAP1 RETURN JUMPDEST PUSH2 0x989 PUSH1 0x4 DUP1 CALLDATASIZE SUB DUP2 ADD SWAP1 PUSH2 0x984 SWAP2 SWAP1 PUSH2 0x5DB7 JUMP JUMPDEST PUSH2 0x1F5E JUMP JUMPDEST PUSH1 0x40 MLOAD PUSH2 0x996 SWAP2 SWAP1 PUSH2 0x57FE JUMP JUMPDEST PUSH1 0x40 MLOAD DUP1 SWAP2 SUB SWAP1 RETURN JUMPDEST PUSH2 0x9A7 PUSH2 0x208D JUMP JUMPDEST STOP JUMPDEST PUSH2 0x9B1 PUSH2 0x21E6 JUMP JUMPDEST PUSH1 0x40 MLOAD PUSH2 0x9BE SWAP2 SWAP1 PUSH2 0x57FE JUMP JUMPDEST PUSH1 0x40 MLOAD DUP1 SWAP2 SUB SWAP1 RETURN JUMPDEST PUSH2 0x9E1 PUSH1 0x4 DUP1 CALLDATASIZE SUB DUP2 ADD SWAP1 PUSH2 0x9DC SWAP2 SWAP1 PUSH2 0x5817 JUMP JUMPDEST PUSH2 0x227B JUMP JUMPDEST PUSH1 0x40 MLOAD PUSH2 0x9F1 SWAP5 SWAP4 SWAP3 SWAP2 SWAP1 PUSH2 0x5DE2 JUMP JUMPDEST PUSH1 0x40 MLOAD DUP1 SWAP2 SUB SWAP1 RETURN JUMPDEST PUSH2 0xA14 PUSH1 0x4 DUP1 CALLDATASIZE SUB DUP2 ADD SWAP1 PUSH2 0xA0F SWAP2 SWAP1 PUSH2 0x57C4 JUMP JUMPDEST PUSH2 0x22DE JUMP JUMPDEST PUSH1 0x40 MLOAD PUSH2 0xA21 SWAP2 SWAP1 PUSH2 0x57FE JUMP JUMPDEST PUSH1 0x40 MLOAD DUP1 SWAP2 SUB SWAP1 RETURN JUMPDEST PUSH2 0xA44 PUSH1 0x4 DUP1 CALLDATASIZE SUB DUP2 ADD SWAP1 PUSH2 0xA3F SWAP2 SWAP1 PUSH2 0x57C4 JUMP JUMPDEST PUSH2 0x22F0 JUMP JUMPDEST PUSH1 0x40 MLOAD PUSH2 0xA51 SWAP2 SWAP1 PUSH2 0x57FE JUMP JUMPDEST PUSH1 0x40 MLOAD DUP1 SWAP2 SUB SWAP1 RETURN JUMPDEST PUSH2 0xA74 PUSH1 0x4 DUP1 CALLDATASIZE SUB DUP2 ADD SWAP1 PUSH2 0xA6F SWAP2 SWAP1 PUSH2 0x5E25 JUMP JUMPDEST PUSH2 0x2302 JUMP JUMPDEST PUSH1 0x40 MLOAD PUSH2 0xA81 SWAP2 SWAP1 PUSH2 0x57FE JUMP JUMPDEST PUSH1 0x40 MLOAD DUP1 SWAP2 SUB SWAP1 RETURN JUMPDEST PUSH2 0xA92 PUSH2 0x2384 JUMP JUMPDEST PUSH1 0x40 MLOAD PUSH2 0xA9F SWAP2 SWAP1 PUSH2 0x57FE JUMP JUMPDEST PUSH1 0x40 MLOAD DUP1 SWAP2 SUB SWAP1 RETURN JUMPDEST PUSH2 0xAC2 PUSH1 0x4 DUP1 CALLDATASIZE SUB DUP2 ADD SWAP1 PUSH2 0xABD SWAP2 SWAP1 PUSH2 0x57C4 JUMP JUMPDEST PUSH2 0x25ED JUMP JUMPDEST STOP JUMPDEST PUSH2 0xADE PUSH1 0x4 DUP1 CALLDATASIZE SUB DUP2 ADD SWAP1 PUSH2 0xAD9 SWAP2 SWAP1 PUSH2 0x5E63 JUMP JUMPDEST PUSH2 0x26CC JUMP JUMPDEST PUSH1 0x40 MLOAD PUSH2 0xAEB SWAP2 SWAP1 PUSH2 0x57FE JUMP JUMPDEST PUSH1 0x40 MLOAD DUP1 SWAP2 SUB SWAP1 RETURN JUMPDEST PUSH2 0xAFC PUSH2 0x26E6 JUMP JUMPDEST PUSH1 0x40 MLOAD PUSH2 0xB09 SWAP2 SWAP1 PUSH2 0x5EAE JUMP JUMPDEST PUSH1 0x40 MLOAD DUP1 SWAP2 SUB SWAP1 RETURN JUMPDEST PUSH2 0xB2C PUSH1 0x4 DUP1 CALLDATASIZE SUB DUP2 ADD SWAP1 PUSH2 0xB27 SWAP2 SWAP1 PUSH2 0x5817 JUMP JUMPDEST PUSH2 0x270B JUMP JUMPDEST STOP JUMPDEST PUSH2 0xB48 PUSH1 0x4 DUP1 CALLDATASIZE SUB DUP2 ADD SWAP1 PUSH2 0xB43 SWAP2 SWAP1 PUSH2 0x5F02 JUMP JUMPDEST PUSH2 0x27DE JUMP JUMPDEST PUSH1 0x40 MLOAD PUSH2 0xB55 SWAP2 SWAP1 PUSH2 0x57FE JUMP JUMPDEST PUSH1 0x40 MLOAD DUP1 SWAP2 SUB SWAP1 RETURN JUMPDEST PUSH2 0xB66 PUSH2 0x27F4 JUMP JUMPDEST PUSH1 0x40 MLOAD PUSH2 0xB73 SWAP2 SWAP1 PUSH2 0x5918 JUMP JUMPDEST PUSH1 0x40 MLOAD DUP1 SWAP2 SUB SWAP1 RETURN JUMPDEST PUSH2 0xB84 PUSH2 0x281A JUMP JUMPDEST PUSH1 0x40 MLOAD PUSH2 0xB91 SWAP2 SWAP1 PUSH2 0x57FE JUMP JUMPDEST PUSH1 0x40 MLOAD DUP1 SWAP2 SUB SWAP1 RETURN JUMPDEST PUSH2 0xBA2 PUSH2 0x28C8 JUMP JUMPDEST PUSH1 0x40 MLOAD PUSH2 0xBAF SWAP2 SWAP1 PUSH2 0x5F72 JUMP JUMPDEST PUSH1 0x40 MLOAD DUP1 SWAP2 SUB SWAP1 RETURN JUMPDEST PUSH2 0xBD2 PUSH1 0x4 DUP1 CALLDATASIZE SUB DUP2 ADD SWAP1 PUSH2 0xBCD SWAP2 SWAP1 PUSH2 0x57C4 JUMP JUMPDEST PUSH2 0x28ED JUMP JUMPDEST PUSH1 0x40 MLOAD PUSH2 0xBDF SWAP2 SWAP1 PUSH2 0x57FE JUMP JUMPDEST PUSH1 0x40 MLOAD DUP1 SWAP2 SUB SWAP1 RETURN JUMPDEST PUSH2 0xBF0 PUSH2 0x2985 JUMP JUMPDEST PUSH1 0x40 MLOAD PUSH2 0xBFD SWAP2 SWAP1 PUSH2 0x57AB JUMP JUMPDEST PUSH1 0x40 MLOAD DUP1 SWAP2 SUB SWAP1 RETURN JUMPDEST PUSH1 0x12 PUSH0 SWAP1 SLOAD SWAP1 PUSH2 0x100 EXP SWAP1 DIV PUSH20 0xFFFFFFFFFFFFFFFFFFFFFFFFFFFFFFFFFFFFFFFF AND DUP2 JUMP JUMPDEST PUSH1 0x1 DUP1 SLOAD PUSH2 0xC38 SWAP1 PUSH2 0x5FB8 JUMP JUMPDEST DUP1 PUSH1 0x1F ADD PUSH1 0x20 DUP1 SWAP2 DIV MUL PUSH1 0x20 ADD PUSH1 0x40 MLOAD SWAP1 DUP2 ADD PUSH1 0x40 MSTORE DUP1 SWAP3 SWAP2 SWAP1 DUP2 DUP2 MSTORE PUSH1 0x20 ADD DUP3 DUP1 SLOAD PUSH2 0xC64 SWAP1 PUSH2 0x5FB8 JUMP JUMPDEST DUP1 ISZERO PUSH2 0xCAF JUMPI DUP1 PUSH1 0x1F LT PUSH2 0xC86 JUMPI PUSH2 0x100 DUP1 DUP4 SLOAD DIV MUL DUP4 MSTORE SWAP2 PUSH1 0x20 ADD SWAP2 PUSH2 0xCAF JUMP JUMPDEST DUP3 ADD SWAP2 SWAP1 PUSH0 MSTORE PUSH1 0x20 PUSH0 KECCAK256 SWAP1 JUMPDEST DUP2 SLOAD DUP2 MSTORE SWAP1 PUSH1 0x1 ADD SWAP1 PUSH1 0x20 ADD DUP1 DUP4 GT PUSH2 0xC92 JUMPI DUP3 SWAP1 SUB PUSH1 0x1F AND DUP3 ADD SWAP2 JUMPDEST POP POP POP POP POP DUP2 JUMP JUMPDEST PUSH0 PUSH0 CALLER SWAP1 POP DUP3 PUSH1 0xF PUSH0 DUP4 PUSH20 0xFFFFFFFFFFFFFFFFFFFFFFFFFFFFFFFFFFFFFFFF AND PUSH20 0xFFFFFFFFFFFFFFFFFFFFFFFFFFFFFFFFFFFFFFFF AND DUP2 MSTORE PUSH1 0x20 ADD SWAP1 DUP2 MSTORE PUSH1 0x20 ADD PUSH0 KECCAK256 PUSH0 DUP7 PUSH20 0xFFFFFFFFFFFFFFFFFFFFFFFFFFFFFFFFFFFFFFFF AND PUSH20 0xFFFFFFFFFFFFFFFFFFFFFFFFFFFFFFFFFFFFFFFF AND DUP2 MSTORE PUSH1 0x20 ADD SWAP1 DUP2 MSTORE PUSH1 0x20 ADD PUSH0 KECCAK256 DUP2 SWAP1 SSTORE POP DUP4 PUSH20 0xFFFFFFFFFFFFFFFFFFFFFFFFFFFFFFFFFFFFFFFF AND DUP2 PUSH20 0xFFFFFFFFFFFFFFFFFFFFFFFFFFFFFFFFFFFFFFFF AND PUSH32 0x8C5BE1E5EBEC7D5BD14F71427D1E84F3DD0314C0F7B2291E5B200AC8C7C3B925 DUP6 PUSH1 0x40 MLOAD PUSH2 0xD96 SWAP2 SWAP1 PUSH2 0x57FE JUMP JUMPDEST PUSH1 0x40 MLOAD DUP1 SWAP2 SUB SWAP1 LOG3 PUSH1 0x1 SWAP2 POP POP SWAP3 SWAP2 POP POP JUMP JUMPDEST PUSH0 PUSH2 0xDB3 DUP3 PUSH2 0x298A JUMP JUMPDEST PUSH0 SWAP1 POP SWAP2 SWAP1 POP JUMP JUMPDEST PUSH1 0x8 SLOAD DUP2 JUMP JUMPDEST PUSH0 PUSH0 PUSH0 SWAP1 SLOAD SWAP1 PUSH2 0x100 EXP SWAP1 DIV PUSH1 0xFF AND PUSH2 0xE0F JUMPI PUSH1 0x40 MLOAD PUSH32 0x8C379A000000000000000000000000000000000000000000000000000000000 DUP2 MSTORE PUSH1 0x4 ADD PUSH2 0xE06 SWAP1 PUSH2 0x6032 JUMP JUMPDEST PUSH1 0x40 MLOAD DUP1 SWAP2 SUB SWAP1 REVERT JUMPDEST PUSH0 PUSH0 PUSH0 PUSH2 0x100 EXP DUP2 SLOAD DUP2 PUSH1 0xFF MUL NOT AND SWAP1 DUP4 ISZERO ISZERO MUL OR SWAP1 SSTORE POP PUSH2 0xE2F PUSH2 0x1B74 JUMP JUMPDEST POP PUSH2 0xE39 DUP3 PUSH2 0x176F JUMP JUMPDEST SWAP1 POP PUSH1 0x1 PUSH0 PUSH0 PUSH2 0x100 EXP DUP2 SLOAD DUP2 PUSH1 0xFF MUL NOT AND SWAP1 DUP4 ISZERO ISZERO MUL OR SWAP1 SSTORE POP SWAP2 SWAP1 POP JUMP JUMPDEST PUSH1 0xD SLOAD DUP2 JUMP JUMPDEST PUSH0 PUSH2 0xE68 PUSH2 0x2A20 JUMP JUMPDEST SWAP1 POP SWAP1 JUMP JUMPDEST PUSH1 0x3 PUSH1 0x1 SWAP1 SLOAD SWAP1 PUSH2 0x100 EXP SWAP1 DIV PUSH20 0xFFFFFFFFFFFFFFFFFFFFFFFFFFFFFFFFFFFFFFFF AND PUSH20 0xFFFFFFFFFFFFFFFFFFFFFFFFFFFFFFFFFFFFFFFF AND CALLER PUSH20 0xFFFFFFFFFFFFFFFFFFFFFFFFFFFFFFFFFFFFFFFF AND EQ PUSH2 0xEFD JUMPI PUSH1 0x40 MLOAD PUSH32 0x8C379A000000000000000000000000000000000000000000000000000000000 DUP2 MSTORE PUSH1 0x4 ADD PUSH2 0xEF4 SWAP1 PUSH2 0x60C0 JUMP JUMPDEST PUSH1 0x40 MLOAD DUP1 SWAP2 SUB SWAP1 REVERT JUMPDEST PUSH1 0x11 PUSH0 SWAP1 SLOAD SWAP1 PUSH2 0x100 EXP SWAP1 DIV PUSH20 0xFFFFFFFFFFFFFFFFFFFFFFFFFFFFFFFFFFFFFFFF AND PUSH20 0xFFFFFFFFFFFFFFFFFFFFFFFFFFFFFFFFFFFFFFFF AND DUP2 PUSH20 0xFFFFFFFFFFFFFFFFFFFFFFFFFFFFFFFFFFFFFFFF AND SUB PUSH2 0xF8C JUMPI PUSH1 0x40 MLOAD PUSH32 0x8C379A000000000000000000000000000000000000000000000000000000000 DUP2 MSTORE PUSH1 0x4 ADD PUSH2 0xF83 SWAP1 PUSH2 0x614E JUMP JUMPDEST PUSH1 0x40 MLOAD DUP1 SWAP2 SUB SWAP1 REVERT JUMPDEST PUSH0 DUP2 PUSH20 0xFFFFFFFFFFFFFFFFFFFFFFFFFFFFFFFFFFFFFFFF AND PUSH4 0x70A08231 ADDRESS PUSH1 0x40 MLOAD DUP3 PUSH4 0xFFFFFFFF AND PUSH1 0xE0 SHL DUP2 MSTORE PUSH1 0x4 ADD PUSH2 0xFC6 SWAP2 SWAP1 PUSH2 0x563C JUMP JUMPDEST PUSH1 0x20 PUSH1 0x40 MLOAD DUP1 DUP4 SUB DUP2 DUP7 GAS STATICCALL ISZERO DUP1 ISZERO PUSH2 0xFE1 JUMPI RETURNDATASIZE PUSH0 PUSH0 RETURNDATACOPY RETURNDATASIZE PUSH0 REVERT JUMPDEST POP POP POP POP PUSH1 0x40 MLOAD RETURNDATASIZE PUSH1 0x1F NOT PUSH1 0x1F DUP3 ADD AND DUP3 ADD DUP1 PUSH1 0x40 MSTORE POP DUP2 ADD SWAP1 PUSH2 0x1005 SWAP2 SWAP1 PUSH2 0x6180 JUMP JUMPDEST SWAP1 POP DUP2 PUSH20 0xFFFFFFFFFFFFFFFFFFFFFFFFFFFFFFFFFFFFFFFF AND PUSH4 0xA9059CBB PUSH1 0x3 PUSH1 0x1 SWAP1 SLOAD SWAP1 PUSH2 0x100 EXP SWAP1 DIV PUSH20 0xFFFFFFFFFFFFFFFFFFFFFFFFFFFFFFFFFFFFFFFF AND DUP4 PUSH1 0x40 MLOAD DUP4 PUSH4 0xFFFFFFFF AND PUSH1 0xE0 SHL DUP2 MSTORE PUSH1 0x4 ADD PUSH2 0x1064 SWAP3 SWAP2 SWAP1 PUSH2 0x61CB JUMP JUMPDEST PUSH0 PUSH1 0x40 MLOAD DUP1 DUP4 SUB DUP2 PUSH0 DUP8 DUP1 EXTCODESIZE ISZERO DUP1 ISZERO PUSH2 0x107B JUMPI PUSH0 PUSH0 REVERT JUMPDEST POP GAS CALL ISZERO DUP1 ISZERO PUSH2 0x108D JUMPI RETURNDATASIZE PUSH0 PUSH0 RETURNDATACOPY RETURNDATASIZE PUSH0 REVERT JUMPDEST POP POP POP POP POP POP JUMP JUMPDEST PUSH0 PUSH0 PUSH0 SWAP1 SLOAD SWAP1 PUSH2 0x100 EXP SWAP1 DIV PUSH1 0xFF AND PUSH2 0x10E3 JUMPI PUSH1 0x40 MLOAD PUSH32 0x8C379A000000000000000000000000000000000000000000000000000000000 DUP2 MSTORE PUSH1 0x4 ADD PUSH2 0x10DA SWAP1 PUSH2 0x6032 JUMP JUMPDEST PUSH1 0x40 MLOAD DUP1 SWAP2 SUB SWAP1 REVERT JUMPDEST PUSH0 PUSH0 PUSH0 PUSH2 0x100 EXP DUP2 SLOAD DUP2 PUSH1 0xFF MUL NOT AND SWAP1 DUP4 ISZERO ISZERO MUL OR SWAP1 SSTORE POP PUSH0 PUSH2 0x1108 CALLER DUP7 DUP7 DUP7 PUSH2 0x2A8F JUMP JUMPDEST EQ SWAP1 POP PUSH1 0x1 PUSH0 PUSH0 PUSH2 0x100 EXP DUP2 SLOAD DUP2 PUSH1 0xFF MUL NOT AND SWAP1 DUP4 ISZERO ISZERO MUL OR SWAP1 SSTORE POP SWAP4 SWAP3 POP POP POP JUMP JUMPDEST PUSH0 PUSH2 0x1136 DUP4 DUP4 PUSH2 0x2EFC JUMP JUMPDEST PUSH0 SWAP1 POP SWAP3 SWAP2 POP POP JUMP JUMPDEST PUSH1 0x4 PUSH0 SWAP1 SLOAD SWAP1 PUSH2 0x100 EXP SWAP1 DIV PUSH20 0xFFFFFFFFFFFFFFFFFFFFFFFFFFFFFFFFFFFFFFFF AND DUP2 JUMP JUMPDEST PUSH1 0x3 PUSH0 SWAP1 SLOAD SWAP1 PUSH2 0x100 EXP SWAP1 DIV PUSH1 0xFF AND DUP2 JUMP JUMPDEST PUSH0 PUSH0 PUSH1 0x40 MLOAD DUP1 PUSH1 0x20 ADD PUSH1 0x40 MSTORE DUP1 PUSH2 0x118B PUSH2 0x21E6 JUMP JUMPDEST DUP2 MSTORE POP SWAP1 POP PUSH2 0x11D7 DUP2 PUSH1 0xE PUSH0 DUP7 PUSH20 0xFFFFFFFFFFFFFFFFFFFFFFFFFFFFFFFFFFFFFFFF AND PUSH20 0xFFFFFFFFFFFFFFFFFFFFFFFFFFFFFFFFFFFFFFFF AND DUP2 MSTORE PUSH1 0x20 ADD SWAP1 DUP2 MSTORE PUSH1 0x20 ADD PUSH0 KECCAK256 SLOAD PUSH2 0x2F93 JUMP JUMPDEST SWAP2 POP POP SWAP2 SWAP1 POP JUMP JUMPDEST PUSH0 PUSH2 0x11E8 PUSH2 0x2FB3 JUMP JUMPDEST SWAP1 POP SWAP1 JUMP JUMPDEST PUSH0 PUSH2 0x11F7 DUP3 PUSH2 0x3057 JUMP JUMPDEST SWAP1 POP SWAP2 SWAP1 POP JUMP JUMPDEST PUSH0 PUSH1 0x3 PUSH1 0x1 SWAP1 SLOAD SWAP1 PUSH2 0x100 EXP SWAP1 DIV PUSH20 0xFFFFFFFFFFFFFFFFFFFFFFFFFFFFFFFFFFFFFFFF AND PUSH20 0xFFFFFFFFFFFFFFFFFFFFFFFFFFFFFFFFFFFFFFFF AND CALLER PUSH20 0xFFFFFFFFFFFFFFFFFFFFFFFFFFFFFFFFFFFFFFFF AND EQ PUSH2 0x1286 JUMPI PUSH1 0x40 MLOAD PUSH32 0xD219DC1F00000000000000000000000000000000000000000000000000000000 DUP2 MSTORE PUSH1 0x4 ADD PUSH1 0x40 MLOAD DUP1 SWAP2 SUB SWAP1 REVERT JUMPDEST PUSH0 PUSH1 0x5 PUSH0 SWAP1 SLOAD SWAP1 PUSH2 0x100 EXP SWAP1 DIV PUSH20 0xFFFFFFFFFFFFFFFFFFFFFFFFFFFFFFFFFFFFFFFF AND SWAP1 POP DUP3 PUSH20 0xFFFFFFFFFFFFFFFFFFFFFFFFFFFFFFFFFFFFFFFF AND PUSH3 0x7E3DD2 PUSH1 0x40 MLOAD DUP2 PUSH4 0xFFFFFFFF AND PUSH1 0xE0 SHL DUP2 MSTORE PUSH1 0x4 ADD PUSH1 0x20 PUSH1 0x40 MLOAD DUP1 DUP4 SUB DUP2 DUP7 GAS STATICCALL ISZERO DUP1 ISZERO PUSH2 0x12F3 JUMPI RETURNDATASIZE PUSH0 PUSH0 RETURNDATACOPY RETURNDATASIZE PUSH0 REVERT JUMPDEST POP POP POP POP PUSH1 0x40 MLOAD RETURNDATASIZE PUSH1 0x1F NOT PUSH1 0x1F DUP3 ADD AND DUP3 ADD DUP1 PUSH1 0x40 MSTORE POP DUP2 ADD SWAP1 PUSH2 0x1317 SWAP2 SWAP1 PUSH2 0x621C JUMP JUMPDEST PUSH2 0x1356 JUMPI PUSH1 0x40 MLOAD PUSH32 0x8C379A000000000000000000000000000000000000000000000000000000000 DUP2 MSTORE PUSH1 0x4 ADD PUSH2 0x134D SWAP1 PUSH2 0x6291 JUMP JUMPDEST PUSH1 0x40 MLOAD DUP1 SWAP2 SUB SWAP1 REVERT JUMPDEST DUP3 PUSH1 0x5 PUSH0 PUSH2 0x100 EXP DUP2 SLOAD DUP2 PUSH20 0xFFFFFFFFFFFFFFFFFFFFFFFFFFFFFFFFFFFFFFFF MUL NOT AND SWAP1 DUP4 PUSH20 0xFFFFFFFFFFFFFFFFFFFFFFFFFFFFFFFFFFFFFFFF AND MUL OR SWAP1 SSTORE POP PUSH32 0x7AC369DBD14FA5EA3F473ED67CC9D598964A77501540BA6751EB0B3DECF5870D DUP2 DUP5 PUSH1 0x40 MLOAD PUSH2 0x13C7 SWAP3 SWAP2 SWAP1 PUSH2 0x62AF JUMP JUMPDEST PUSH1 0x40 MLOAD DUP1 SWAP2 SUB SWAP1 LOG1 PUSH0 SWAP2 POP POP SWAP2 SWAP1 POP JUMP JUMPDEST PUSH1 0xB SLOAD DUP2 JUMP JUMPDEST PUSH1 0x5 PUSH0 SWAP1 SLOAD SWAP1 PUSH2 0x100 EXP SWAP1 DIV PUSH20 0xFFFFFFFFFFFFFFFFFFFFFFFFFFFFFFFFFFFFFFFF AND DUP2 JUMP JUMPDEST PUSH0 PUSH0 PUSH0 SWAP1 SLOAD SWAP1 PUSH2 0x100 EXP SWAP1 DIV PUSH1 0xFF AND PUSH2 0x1451 JUMPI PUSH1 0x40 MLOAD PUSH32 0x8C379A000000000000000000000000000000000000000000000000000000000 DUP2 MSTORE PUSH1 0x4 ADD PUSH2 0x1448 SWAP1 PUSH2 0x6032 JUMP JUMPDEST PUSH1 0x40 MLOAD DUP1 SWAP2 SUB SWAP1 REVERT JUMPDEST PUSH0 PUSH0 PUSH0 PUSH2 0x100 EXP DUP2 SLOAD DUP2 PUSH1 0xFF MUL NOT AND SWAP1 DUP4 ISZERO ISZERO MUL OR SWAP1 SSTORE POP PUSH2 0x1471 PUSH2 0x1B74 JUMP JUMPDEST POP PUSH2 0x147B DUP3 PUSH2 0x30F2 JUMP JUMPDEST SWAP1 POP PUSH1 0x1 PUSH0 PUSH0 PUSH2 0x100 EXP DUP2 SLOAD DUP2 PUSH1 0xFF MUL NOT AND SWAP1 DUP4 ISZERO ISZERO MUL OR SWAP1 SSTORE POP SWAP2 SWAP1 POP JUMP JUMPDEST PUSH7 0x6379DA05B60000 DUP2 JUMP JUMPDEST PUSH0 DUP2 JUMP JUMPDEST PUSH1 0x9 SLOAD DUP2 JUMP JUMPDEST PUSH1 0x11 PUSH0 SWAP1 SLOAD SWAP1 PUSH2 0x100 EXP SWAP1 DIV PUSH20 0xFFFFFFFFFFFFFFFFFFFFFFFFFFFFFFFFFFFFFFFF AND DUP2 JUMP JUMPDEST PUSH0 PUSH1 0xE PUSH0 DUP4 PUSH20 0xFFFFFFFFFFFFFFFFFFFFFFFFFFFFFFFFFFFFFFFF AND PUSH20 0xFFFFFFFFFFFFFFFFFFFFFFFFFFFFFFFFFFFFFFFF AND DUP2 MSTORE PUSH1 0x20 ADD SWAP1 DUP2 MSTORE PUSH1 0x20 ADD PUSH0 KECCAK256 SLOAD SWAP1 POP SWAP2 SWAP1 POP JUMP JUMPDEST PUSH0 PUSH0 PUSH0 SWAP1 SLOAD SWAP1 PUSH2 0x100 EXP SWAP1 DIV PUSH1 0xFF AND PUSH2 0x1569 JUMPI PUSH1 0x40 MLOAD PUSH32 0x8C379A000000000000000000000000000000000000000000000000000000000 DUP2 MSTORE PUSH1 0x4 ADD PUSH2 0x1560 SWAP1 PUSH2 0x6032 JUMP JUMPDEST PUSH1 0x40 MLOAD DUP1 SWAP2 SUB SWAP1 REVERT JUMPDEST PUSH0 PUSH0 PUSH0 PUSH2 0x100 EXP DUP2 SLOAD DUP2 PUSH1 0xFF MUL NOT AND SWAP1 DUP4 ISZERO ISZERO MUL OR SWAP1 SSTORE POP PUSH2 0x1589 PUSH2 0x1B74 JUMP JUMPDEST POP PUSH1 0xB SLOAD SWAP1 POP PUSH1 0x1 PUSH0 PUSH0 PUSH2 0x100 EXP DUP2 SLOAD DUP2 PUSH1 0xFF MUL NOT AND SWAP1 DUP4 ISZERO ISZERO MUL OR SWAP1 SSTORE POP SWAP1 JUMP JUMPDEST PUSH1 0x3 PUSH1 0x1 SWAP1 SLOAD SWAP1 PUSH2 0x100 EXP SWAP1 DIV PUSH20 0xFFFFFFFFFFFFFFFFFFFFFFFFFFFFFFFFFFFFFFFF AND PUSH20 0xFFFFFFFFFFFFFFFFFFFFFFFFFFFFFFFFFFFFFFFF AND CALLER PUSH20 0xFFFFFFFFFFFFFFFFFFFFFFFFFFFFFFFFFFFFFFFF AND EQ PUSH2 0x163B JUMPI PUSH1 0x40 MLOAD PUSH32 0x8C379A000000000000000000000000000000000000000000000000000000000 DUP2 MSTORE PUSH1 0x4 ADD PUSH2 0x1632 SWAP1 PUSH2 0x6346 JUMP JUMPDEST PUSH1 0x40 MLOAD DUP1 SWAP2 SUB SWAP1 REVERT JUMPDEST PUSH1 0x11 PUSH0 SWAP1 SLOAD SWAP1 PUSH2 0x100 EXP SWAP1 DIV PUSH20 0xFFFFFFFFFFFFFFFFFFFFFFFFFFFFFFFFFFFFFFFF AND PUSH20 0xFFFFFFFFFFFFFFFFFFFFFFFFFFFFFFFFFFFFFFFF AND PUSH4 0x5C19A95C DUP3 PUSH1 0x40 MLOAD DUP3 PUSH4 0xFFFFFFFF AND PUSH1 0xE0 SHL DUP2 MSTORE PUSH1 0x4 ADD PUSH2 0x1695 SWAP2 SWAP1 PUSH2 0x563C JUMP JUMPDEST PUSH0 PUSH1 0x40 MLOAD DUP1 DUP4 SUB DUP2 PUSH0 DUP8 DUP1 EXTCODESIZE ISZERO DUP1 ISZERO PUSH2 0x16AC JUMPI PUSH0 PUSH0 REVERT JUMPDEST POP GAS CALL ISZERO DUP1 ISZERO PUSH2 0x16BE JUMPI RETURNDATASIZE PUSH0 PUSH0 RETURNDATACOPY RETURNDATASIZE PUSH0 REVERT JUMPDEST POP POP POP POP POP JUMP JUMPDEST PUSH0 PUSH2 0x16CF DUP3 PUSH2 0x32E3 JUMP JUMPDEST PUSH0 SWAP1 POP SWAP2 SWAP1 POP JUMP JUMPDEST PUSH1 0xC SLOAD DUP2 JUMP JUMPDEST PUSH1 0x14 SLOAD DUP2 JUMP JUMPDEST PUSH1 0x2 DUP1 SLOAD PUSH2 0x16F0 SWAP1 PUSH2 0x5FB8 JUMP JUMPDEST DUP1 PUSH1 0x1F ADD PUSH1 0x20 DUP1 SWAP2 DIV MUL PUSH1 0x20 ADD PUSH1 0x40 MLOAD SWAP1 DUP2 ADD PUSH1 0x40 MSTORE DUP1 SWAP3 SWAP2 SWAP1 DUP2 DUP2 MSTORE PUSH1 0x20 ADD DUP3 DUP1 SLOAD PUSH2 0x171C SWAP1 PUSH2 0x5FB8 JUMP JUMPDEST DUP1 ISZERO PUSH2 0x1767 JUMPI DUP1 PUSH1 0x1F LT PUSH2 0x173E JUMPI PUSH2 0x100 DUP1 DUP4 SLOAD DIV MUL DUP4 MSTORE SWAP2 PUSH1 0x20 ADD SWAP2 PUSH2 0x1767 JUMP JUMPDEST DUP3 ADD SWAP2 SWAP1 PUSH0 MSTORE PUSH1 0x20 PUSH0 KECCAK256 SWAP1 JUMPDEST DUP2 SLOAD DUP2 MSTORE SWAP1 PUSH1 0x1 ADD SWAP1 PUSH1 0x20 ADD DUP1 DUP4 GT PUSH2 0x174A JUMPI DUP3 SWAP1 SUB PUSH1 0x1F AND DUP3 ADD SWAP2 JUMPDEST POP POP POP POP POP DUP2 JUMP JUMPDEST PUSH0 PUSH2 0x1779 DUP3 PUSH2 0x3378 JUMP JUMPDEST SWAP1 POP SWAP2 SWAP1 POP JUMP JUMPDEST PUSH1 0x13 SLOAD DUP2 JUMP JUMPDEST PUSH1 0x3 PUSH1 0x1 SWAP1 SLOAD SWAP1 PUSH2 0x100 EXP SWAP1 DIV PUSH20 0xFFFFFFFFFFFFFFFFFFFFFFFFFFFFFFFFFFFFFFFF AND PUSH20 0xFFFFFFFFFFFFFFFFFFFFFFFFFFFFFFFFFFFFFFFF AND CALLER PUSH20 0xFFFFFFFFFFFFFFFFFFFFFFFFFFFFFFFFFFFFFFFF AND EQ PUSH2 0x1816 JUMPI PUSH1 0x40 MLOAD PUSH32 0x8C379A000000000000000000000000000000000000000000000000000000000 DUP2 MSTORE PUSH1 0x4 ADD PUSH2 0x180D SWAP1 PUSH2 0x63D4 JUMP JUMPDEST PUSH1 0x40 MLOAD DUP1 SWAP2 SUB SWAP1 REVERT JUMPDEST PUSH0 PUSH1 0x9 SLOAD EQ DUP1 ISZERO PUSH2 0x1828 JUMPI POP PUSH0 PUSH1 0xA SLOAD EQ JUMPDEST PUSH2 0x1867 JUMPI PUSH1 0x40 MLOAD PUSH32 0x8C379A000000000000000000000000000000000000000000000000000000000 DUP2 MSTORE PUSH1 0x4 ADD PUSH2 0x185E SWAP1 PUSH2 0x6462 JUMP JUMPDEST PUSH1 0x40 MLOAD DUP1 SWAP2 SUB SWAP1 REVERT JUMPDEST DUP4 PUSH1 0x7 DUP2 SWAP1 SSTORE POP PUSH0 PUSH1 0x7 SLOAD GT PUSH2 0x18B2 JUMPI PUSH1 0x40 MLOAD PUSH32 0x8C379A000000000000000000000000000000000000000000000000000000000 DUP2 MSTORE PUSH1 0x4 ADD PUSH2 0x18A9 SWAP1 PUSH2 0x64F0 JUMP JUMPDEST PUSH1 0x40 MLOAD DUP1 SWAP2 SUB SWAP1 REVERT JUMPDEST PUSH0 PUSH2 0x18BC DUP8 PUSH2 0x11FE JUMP JUMPDEST SWAP1 POP PUSH0 DUP2 EQ PUSH2 0x1900 JUMPI PUSH1 0x40 MLOAD PUSH32 0x8C379A000000000000000000000000000000000000000000000000000000000 DUP2 MSTORE PUSH1 0x4 ADD PUSH2 0x18F7 SWAP1 PUSH2 0x6558 JUMP JUMPDEST PUSH1 0x40 MLOAD DUP1 SWAP2 SUB SWAP1 REVERT JUMPDEST PUSH2 0x1908 PUSH2 0x33FA JUMP JUMPDEST PUSH1 0x9 DUP2 SWAP1 SSTORE POP PUSH8 0xDE0B6B3A7640000 PUSH1 0xA DUP2 SWAP1 SSTORE POP PUSH2 0x1926 DUP7 PUSH2 0x3401 JUMP JUMPDEST SWAP1 POP PUSH0 DUP2 EQ PUSH2 0x196A JUMPI PUSH1 0x40 MLOAD PUSH32 0x8C379A000000000000000000000000000000000000000000000000000000000 DUP2 MSTORE PUSH1 0x4 ADD PUSH2 0x1961 SWAP1 PUSH2 0x65E6 JUMP JUMPDEST PUSH1 0x40 MLOAD DUP1 SWAP2 SUB SWAP1 REVERT JUMPDEST DUP4 PUSH1 0x1 SWAP1 DUP2 PUSH2 0x1979 SWAP2 SWAP1 PUSH2 0x679B JUMP JUMPDEST POP DUP3 PUSH1 0x2 SWAP1 DUP2 PUSH2 0x1989 SWAP2 SWAP1 PUSH2 0x679B JUMP JUMPDEST POP DUP2 PUSH1 0x3 PUSH0 PUSH2 0x100 EXP DUP2 SLOAD DUP2 PUSH1 0xFF MUL NOT AND SWAP1 DUP4 PUSH1 0xFF AND MUL OR SWAP1 SSTORE POP PUSH1 0x1 PUSH0 PUSH0 PUSH2 0x100 EXP DUP2 SLOAD DUP2 PUSH1 0xFF MUL NOT AND SWAP1 DUP4 ISZERO ISZERO MUL OR SWAP1 SSTORE POP POP POP POP POP POP POP POP JUMP JUMPDEST PUSH0 PUSH0 DUP3 GT PUSH2 0x1A09 JUMPI PUSH1 0x40 MLOAD PUSH32 0x8C379A000000000000000000000000000000000000000000000000000000000 DUP2 MSTORE PUSH1 0x4 ADD PUSH2 0x1A00 SWAP1 PUSH2 0x68DA JUMP JUMPDEST PUSH1 0x40 MLOAD DUP1 SWAP2 SUB SWAP1 REVERT JUMPDEST PUSH2 0x1A34 PUSH1 0x15 PUSH0 SWAP1 SLOAD SWAP1 PUSH2 0x100 EXP SWAP1 DIV PUSH20 0xFFFFFFFFFFFFFFFFFFFFFFFFFFFFFFFFFFFFFFFF AND DUP4 PUSH2 0x361E JUMP JUMPDEST PUSH2 0x1A3D DUP3 PUSH2 0x379E JUMP JUMPDEST PUSH0 SWAP1 POP SWAP2 SWAP1 POP JUMP JUMPDEST PUSH2 0x1A53 DUP9 DUP9 DUP9 DUP9 DUP9 DUP9 PUSH2 0x1786 JUMP JUMPDEST DUP9 PUSH1 0x11 PUSH0 PUSH2 0x100 EXP DUP2 SLOAD DUP2 PUSH20 0xFFFFFFFFFFFFFFFFFFFFFFFFFFFFFFFFFFFFFFFF MUL NOT AND SWAP1 DUP4 PUSH20 0xFFFFFFFFFFFFFFFFFFFFFFFFFFFFFFFFFFFFFFFF AND MUL OR SWAP1 SSTORE POP PUSH1 0x11 PUSH0 SWAP1 SLOAD SWAP1 PUSH2 0x100 EXP SWAP1 DIV PUSH20 0xFFFFFFFFFFFFFFFFFFFFFFFFFFFFFFFFFFFFFFFF AND PUSH20 0xFFFFFFFFFFFFFFFFFFFFFFFFFFFFFFFFFFFFFFFF AND PUSH4 0x18160DDD PUSH1 0x40 MLOAD DUP2 PUSH4 0xFFFFFFFF AND PUSH1 0xE0 SHL DUP2 MSTORE PUSH1 0x4 ADD PUSH1 0x20 PUSH1 0x40 MLOAD DUP1 DUP4 SUB DUP2 DUP7 GAS STATICCALL ISZERO DUP1 ISZERO PUSH2 0x1AFD JUMPI RETURNDATASIZE PUSH0 PUSH0 RETURNDATACOPY RETURNDATASIZE PUSH0 REVERT JUMPDEST POP POP POP POP PUSH1 0x40 MLOAD RETURNDATASIZE PUSH1 0x1F NOT PUSH1 0x1F DUP3 ADD AND DUP3 ADD DUP1 PUSH1 0x40 MSTORE POP DUP2 ADD SWAP1 PUSH2 0x1B21 SWAP2 SWAP1 PUSH2 0x6180 JUMP JUMPDEST POP DUP2 PUSH1 0x12 PUSH0 PUSH2 0x100 EXP DUP2 SLOAD DUP2 PUSH20 0xFFFFFFFFFFFFFFFFFFFFFFFFFFFFFFFFFFFFFFFF MUL NOT AND SWAP1 DUP4 PUSH20 0xFFFFFFFFFFFFFFFFFFFFFFFFFFFFFFFFFFFFFFFF AND MUL OR SWAP1 SSTORE POP DUP1 PUSH1 0x13 DUP2 SWAP1 SSTORE POP POP POP POP POP POP POP POP POP POP JUMP JUMPDEST PUSH0 PUSH0 PUSH2 0x1B7E PUSH2 0x33FA JUMP JUMPDEST SWAP1 POP PUSH0 PUSH1 0x9 SLOAD SWAP1 POP DUP2 DUP2 SUB PUSH2 0x1B97 JUMPI PUSH0 SWAP3 POP POP POP PUSH2 0x1D79 JUMP JUMPDEST PUSH0 PUSH2 0x1BA0 PUSH2 0x2FB3 JUMP JUMPDEST SWAP1 POP PUSH0 PUSH1 0xB SLOAD SWAP1 POP PUSH0 PUSH1 0xC SLOAD SWAP1 POP PUSH0 PUSH1 0xA SLOAD SWAP1 POP PUSH0 PUSH1 0x6 PUSH0 SWAP1 SLOAD SWAP1 PUSH2 0x100 EXP SWAP1 DIV PUSH20 0xFFFFFFFFFFFFFFFFFFFFFFFFFFFFFFFFFFFFFFFF AND PUSH20 0xFFFFFFFFFFFFFFFFFFFFFFFFFFFFFFFFFFFFFFFF AND PUSH4 0x15F24053 DUP7 DUP7 DUP7 PUSH1 0x40 MLOAD DUP5 PUSH4 0xFFFFFFFF AND PUSH1 0xE0 SHL DUP2 MSTORE PUSH1 0x4 ADD PUSH2 0x1C13 SWAP4 SWAP3 SWAP2 SWAP1 PUSH2 0x68F8 JUMP JUMPDEST PUSH1 0x20 PUSH1 0x40 MLOAD DUP1 DUP4 SUB DUP2 DUP7 GAS STATICCALL ISZERO DUP1 ISZERO PUSH2 0x1C2E JUMPI RETURNDATASIZE PUSH0 PUSH0 RETURNDATACOPY RETURNDATASIZE PUSH0 REVERT JUMPDEST POP POP POP POP PUSH1 0x40 MLOAD RETURNDATASIZE PUSH1 0x1F NOT PUSH1 0x1F DUP3 ADD AND DUP3 ADD DUP1 PUSH1 0x40 MSTORE POP DUP2 ADD SWAP1 PUSH2 0x1C52 SWAP2 SWAP1 PUSH2 0x6180 JUMP JUMPDEST SWAP1 POP PUSH6 0x48C27395000 DUP2 GT ISZERO PUSH2 0x1C9D JUMPI PUSH1 0x40 MLOAD PUSH32 0x8C379A000000000000000000000000000000000000000000000000000000000 DUP2 MSTORE PUSH1 0x4 ADD PUSH2 0x1C94 SWAP1 PUSH2 0x6977 JUMP JUMPDEST PUSH1 0x40 MLOAD DUP1 SWAP2 SUB SWAP1 REVERT JUMPDEST PUSH0 DUP7 DUP9 PUSH2 0x1CAA SWAP2 SWAP1 PUSH2 0x69C2 JUMP JUMPDEST SWAP1 POP PUSH0 PUSH2 0x1CC5 PUSH1 0x40 MLOAD DUP1 PUSH1 0x20 ADD PUSH1 0x40 MSTORE DUP1 DUP6 DUP2 MSTORE POP DUP4 PUSH2 0x3832 JUMP JUMPDEST SWAP1 POP PUSH0 PUSH2 0x1CD2 DUP3 DUP9 PUSH2 0x2F93 JUMP JUMPDEST SWAP1 POP PUSH0 DUP8 DUP3 PUSH2 0x1CE1 SWAP2 SWAP1 PUSH2 0x69F5 JUMP JUMPDEST SWAP1 POP PUSH0 PUSH2 0x1CFF PUSH1 0x40 MLOAD DUP1 PUSH1 0x20 ADD PUSH1 0x40 MSTORE DUP1 PUSH1 0x8 SLOAD DUP2 MSTORE POP DUP5 DUP11 PUSH2 0x385D JUMP JUMPDEST SWAP1 POP PUSH0 PUSH2 0x1D0D DUP6 DUP10 DUP11 PUSH2 0x385D JUMP JUMPDEST SWAP1 POP DUP13 PUSH1 0x9 DUP2 SWAP1 SSTORE POP DUP1 PUSH1 0xA DUP2 SWAP1 SSTORE POP DUP3 PUSH1 0xB DUP2 SWAP1 SSTORE POP DUP2 PUSH1 0xC DUP2 SWAP1 SSTORE POP PUSH32 0x4DEC04E750CA11537CABCD8A9EAB06494DE08DA3735BC8871CD41250E190BC04 DUP12 DUP6 DUP4 DUP7 PUSH1 0x40 MLOAD PUSH2 0x1D60 SWAP5 SWAP4 SWAP3 SWAP2 SWAP1 PUSH2 0x5DE2 JUMP JUMPDEST PUSH1 0x40 MLOAD DUP1 SWAP2 SUB SWAP1 LOG1 PUSH0 SWAP14 POP POP POP POP POP POP POP POP POP POP POP POP POP POP JUMPDEST SWAP1 JUMP JUMPDEST PUSH0 PUSH0 PUSH0 SWAP1 SLOAD SWAP1 PUSH2 0x100 EXP SWAP1 DIV PUSH1 0xFF AND PUSH2 0x1DCA JUMPI PUSH1 0x40 MLOAD PUSH32 0x8C379A000000000000000000000000000000000000000000000000000000000 DUP2 MSTORE PUSH1 0x4 ADD PUSH2 0x1DC1 SWAP1 PUSH2 0x6032 JUMP JUMPDEST PUSH1 0x40 MLOAD DUP1 SWAP2 SUB SWAP1 REVERT JUMPDEST PUSH0 PUSH0 PUSH0 PUSH2 0x100 EXP DUP2 SLOAD DUP2 PUSH1 0xFF MUL NOT AND SWAP1 DUP4 ISZERO ISZERO MUL OR SWAP1 SSTORE POP PUSH0 PUSH2 0x1DEF CALLER CALLER DUP7 DUP7 PUSH2 0x2A8F JUMP JUMPDEST EQ SWAP1 POP PUSH1 0x1 PUSH0 PUSH0 PUSH2 0x100 EXP DUP2 SLOAD DUP2 PUSH1 0xFF MUL NOT AND SWAP1 DUP4 ISZERO ISZERO MUL OR SWAP1 SSTORE POP SWAP3 SWAP2 POP POP JUMP JUMPDEST PUSH1 0xA SLOAD DUP2 JUMP JUMPDEST PUSH0 PUSH1 0x6 PUSH0 SWAP1 SLOAD SWAP1 PUSH2 0x100 EXP SWAP1 DIV PUSH20 0xFFFFFFFFFFFFFFFFFFFFFFFFFFFFFFFFFFFFFFFF AND PUSH20 0xFFFFFFFFFFFFFFFFFFFFFFFFFFFFFFFFFFFFFFFF AND PUSH4 0xB8168816 PUSH2 0x1E5D PUSH2 0x2FB3 JUMP JUMPDEST PUSH1 0xB SLOAD PUSH1 0xC SLOAD PUSH1 0x8 SLOAD PUSH1 0x40 MLOAD DUP6 PUSH4 0xFFFFFFFF AND PUSH1 0xE0 SHL DUP2 MSTORE PUSH1 0x4 ADD PUSH2 0x1E85 SWAP5 SWAP4 SWAP3 SWAP2 SWAP1 PUSH2 0x5DE2 JUMP JUMPDEST PUSH1 0x20 PUSH1 0x40 MLOAD DUP1 DUP4 SUB DUP2 DUP7 GAS STATICCALL ISZERO DUP1 ISZERO PUSH2 0x1EA0 JUMPI RETURNDATASIZE PUSH0 PUSH0 RETURNDATACOPY RETURNDATASIZE PUSH0 REVERT JUMPDEST POP POP POP POP PUSH1 0x40 MLOAD RETURNDATASIZE PUSH1 0x1F NOT PUSH1 0x1F DUP3 ADD AND DUP3 ADD DUP1 PUSH1 0x40 MSTORE POP DUP2 ADD SWAP1 PUSH2 0x1EC4 SWAP2 SWAP1 PUSH2 0x6180 JUMP JUMPDEST SWAP1 POP SWAP1 JUMP JUMPDEST PUSH0 PUSH0 PUSH0 SWAP1 SLOAD SWAP1 PUSH2 0x100 EXP SWAP1 DIV PUSH1 0xFF AND PUSH2 0x1F17 JUMPI PUSH1 0x40 MLOAD PUSH32 0x8C379A000000000000000000000000000000000000000000000000000000000 DUP2 MSTORE PUSH1 0x4 ADD PUSH2 0x1F0E SWAP1 PUSH2 0x6032 JUMP JUMPDEST PUSH1 0x40 MLOAD DUP1 SWAP2 SUB SWAP1 REVERT JUMPDEST PUSH0 PUSH0 PUSH0 PUSH2 0x100 EXP DUP2 SLOAD DUP2 PUSH1 0xFF MUL NOT AND SWAP1 DUP4 ISZERO ISZERO MUL OR SWAP1 SSTORE POP PUSH2 0x1F3B CALLER DUP6 DUP6 DUP6 PUSH2 0x3887 JUMP JUMPDEST PUSH0 SWAP1 POP PUSH1 0x1 PUSH0 PUSH0 PUSH2 0x100 EXP DUP2 SLOAD DUP2 PUSH1 0xFF MUL NOT AND SWAP1 DUP4 ISZERO ISZERO MUL OR SWAP1 SSTORE POP SWAP4 SWAP3 POP POP POP JUMP JUMPDEST PUSH0 PUSH1 0x3 PUSH1 0x1 SWAP1 SLOAD SWAP1 PUSH2 0x100 EXP SWAP1 DIV PUSH20 0xFFFFFFFFFFFFFFFFFFFFFFFFFFFFFFFFFFFFFFFF AND PUSH20 0xFFFFFFFFFFFFFFFFFFFFFFFFFFFFFFFFFFFFFFFF AND CALLER PUSH20 0xFFFFFFFFFFFFFFFFFFFFFFFFFFFFFFFFFFFFFFFF AND EQ PUSH2 0x1FE6 JUMPI PUSH1 0x40 MLOAD PUSH32 0x5CB56C2B00000000000000000000000000000000000000000000000000000000 DUP2 MSTORE PUSH1 0x4 ADD PUSH1 0x40 MLOAD DUP1 SWAP2 SUB SWAP1 REVERT JUMPDEST PUSH0 PUSH1 0x4 PUSH0 SWAP1 SLOAD SWAP1 PUSH2 0x100 EXP SWAP1 DIV PUSH20 0xFFFFFFFFFFFFFFFFFFFFFFFFFFFFFFFFFFFFFFFF AND SWAP1 POP DUP3 PUSH1 0x4 PUSH0 PUSH2 0x100 EXP DUP2 SLOAD DUP2 PUSH20 0xFFFFFFFFFFFFFFFFFFFFFFFFFFFFFFFFFFFFFFFF MUL NOT AND SWAP1 DUP4 PUSH20 0xFFFFFFFFFFFFFFFFFFFFFFFFFFFFFFFFFFFFFFFF AND MUL OR SWAP1 SSTORE POP PUSH32 0xCA4F2F25D0898EDD99413412FB94012F9E54EC8142F9B093E7720646A95B16A9 DUP2 DUP5 PUSH1 0x40 MLOAD PUSH2 0x207C SWAP3 SWAP2 SWAP1 PUSH2 0x6A28 JUMP JUMPDEST PUSH1 0x40 MLOAD DUP1 SWAP2 SUB SWAP1 LOG1 PUSH0 SWAP2 POP POP SWAP2 SWAP1 POP JUMP JUMPDEST PUSH1 0x3 PUSH1 0x1 SWAP1 SLOAD SWAP1 PUSH2 0x100 EXP SWAP1 DIV PUSH20 0xFFFFFFFFFFFFFFFFFFFFFFFFFFFFFFFFFFFFFFFF AND PUSH20 0xFFFFFFFFFFFFFFFFFFFFFFFFFFFFFFFFFFFFFFFF AND CALLER PUSH20 0xFFFFFFFFFFFFFFFFFFFFFFFFFFFFFFFFFFFFFFFF AND EQ PUSH2 0x211D JUMPI PUSH1 0x40 MLOAD PUSH32 0x8C379A000000000000000000000000000000000000000000000000000000000 DUP2 MSTORE PUSH1 0x4 ADD PUSH2 0x2114 SWAP1 PUSH2 0x6A99 JUMP JUMPDEST PUSH1 0x40 MLOAD DUP1 SWAP2 SUB SWAP1 REVERT JUMPDEST PUSH1 0x15 PUSH0 SWAP1 SLOAD SWAP1 PUSH2 0x100 EXP SWAP1 DIV PUSH20 0xFFFFFFFFFFFFFFFFFFFFFFFFFFFFFFFFFFFFFFFF AND PUSH20 0xFFFFFFFFFFFFFFFFFFFFFFFFFFFFFFFFFFFFFFFF AND PUSH4 0xA9059CBB PUSH1 0x12 PUSH0 SWAP1 SLOAD SWAP1 PUSH2 0x100 EXP SWAP1 DIV PUSH20 0xFFFFFFFFFFFFFFFFFFFFFFFFFFFFFFFFFFFFFFFF AND PUSH1 0x14 SLOAD PUSH1 0x40 MLOAD DUP4 PUSH4 0xFFFFFFFF AND PUSH1 0xE0 SHL DUP2 MSTORE PUSH1 0x4 ADD PUSH2 0x219C SWAP3 SWAP2 SWAP1 PUSH2 0x6AB7 JUMP JUMPDEST PUSH1 0x20 PUSH1 0x40 MLOAD DUP1 DUP4 SUB DUP2 PUSH0 DUP8 GAS CALL ISZERO DUP1 ISZERO PUSH2 0x21B8 JUMPI RETURNDATASIZE PUSH0 PUSH0 RETURNDATACOPY RETURNDATASIZE PUSH0 REVERT JUMPDEST POP POP POP POP PUSH1 0x40 MLOAD RETURNDATASIZE PUSH1 0x1F NOT PUSH1 0x1F DUP3 ADD AND DUP3 ADD DUP1 PUSH1 0x40 MSTORE POP DUP2 ADD SWAP1 PUSH2 0x21DC SWAP2 SWAP1 PUSH2 0x621C JUMP JUMPDEST POP PUSH0 PUSH1 0x14 DUP2 SWAP1 SSTORE POP JUMP JUMPDEST PUSH0 PUSH0 PUSH0 SWAP1 SLOAD SWAP1 PUSH2 0x100 EXP SWAP1 DIV PUSH1 0xFF AND PUSH2 0x2234 JUMPI PUSH1 0x40 MLOAD PUSH32 0x8C379A000000000000000000000000000000000000000000000000000000000 DUP2 MSTORE PUSH1 0x4 ADD PUSH2 0x222B SWAP1 PUSH2 0x6032 JUMP JUMPDEST PUSH1 0x40 MLOAD DUP1 SWAP2 SUB SWAP1 REVERT JUMPDEST PUSH0 PUSH0 PUSH0 PUSH2 0x100 EXP DUP2 SLOAD DUP2 PUSH1 0xFF MUL NOT AND SWAP1 DUP4 ISZERO ISZERO MUL OR SWAP1 SSTORE POP PUSH2 0x2254 PUSH2 0x1B74 JUMP JUMPDEST POP PUSH2 0x225D PUSH2 0xE5F JUMP JUMPDEST SWAP1 POP PUSH1 0x1 PUSH0 PUSH0 PUSH2 0x100 EXP DUP2 SLOAD DUP2 PUSH1 0xFF MUL NOT AND SWAP1 DUP4 ISZERO ISZERO MUL OR SWAP1 SSTORE POP SWAP1 JUMP JUMPDEST PUSH0 PUSH0 PUSH0 PUSH0 PUSH0 PUSH1 0xE PUSH0 DUP8 PUSH20 0xFFFFFFFFFFFFFFFFFFFFFFFFFFFFFFFFFFFFFFFF AND PUSH20 0xFFFFFFFFFFFFFFFFFFFFFFFFFFFFFFFFFFFFFFFF AND DUP2 MSTORE PUSH1 0x20 ADD SWAP1 DUP2 MSTORE PUSH1 0x20 ADD PUSH0 KECCAK256 SLOAD PUSH2 0x22C7 DUP8 PUSH2 0x3378 JUMP JUMPDEST PUSH2 0x22CF PUSH2 0x2A20 JUMP JUMPDEST SWAP4 POP SWAP4 POP SWAP4 POP SWAP4 POP SWAP2 SWAP4 POP SWAP2 SWAP4 JUMP JUMPDEST PUSH0 PUSH2 0x22E8 DUP3 PUSH2 0x3C7D JUMP JUMPDEST PUSH0 SWAP1 POP SWAP2 SWAP1 POP JUMP JUMPDEST PUSH0 PUSH2 0x22FA DUP3 PUSH2 0x3D11 JUMP JUMPDEST PUSH0 SWAP1 POP SWAP2 SWAP1 POP JUMP JUMPDEST PUSH0 PUSH1 0xF PUSH0 DUP5 PUSH20 0xFFFFFFFFFFFFFFFFFFFFFFFFFFFFFFFFFFFFFFFF AND PUSH20 0xFFFFFFFFFFFFFFFFFFFFFFFFFFFFFFFFFFFFFFFF AND DUP2 MSTORE PUSH1 0x20 ADD SWAP1 DUP2 MSTORE PUSH1 0x20 ADD PUSH0 KECCAK256 PUSH0 DUP4 PUSH20 0xFFFFFFFFFFFFFFFFFFFFFFFFFFFFFFFFFFFFFFFF AND PUSH20 0xFFFFFFFFFFFFFFFFFFFFFFFFFFFFFFFFFFFFFFFF AND DUP2 MSTORE PUSH1 0x20 ADD SWAP1 DUP2 MSTORE PUSH1 0x20 ADD PUSH0 KECCAK256 SLOAD SWAP1 POP SWAP3 SWAP2 POP POP JUMP JUMPDEST PUSH0 PUSH1 0x4 PUSH0 SWAP1 SLOAD SWAP1 PUSH2 0x100 EXP SWAP1 DIV PUSH20 0xFFFFFFFFFFFFFFFFFFFFFFFFFFFFFFFFFFFFFFFF AND PUSH20 0xFFFFFFFFFFFFFFFFFFFFFFFFFFFFFFFFFFFFFFFF AND CALLER PUSH20 0xFFFFFFFFFFFFFFFFFFFFFFFFFFFFFFFFFFFFFFFF AND EQ ISZERO DUP1 PUSH2 0x240C JUMPI POP PUSH0 PUSH20 0xFFFFFFFFFFFFFFFFFFFFFFFFFFFFFFFFFFFFFFFF AND CALLER PUSH20 0xFFFFFFFFFFFFFFFFFFFFFFFFFFFFFFFFFFFFFFFF AND EQ JUMPDEST ISZERO PUSH2 0x2443 JUMPI PUSH1 0x40 MLOAD PUSH32 0x6E893CA400000000000000000000000000000000000000000000000000000000 DUP2 MSTORE PUSH1 0x4 ADD PUSH1 0x40 MLOAD DUP1 SWAP2 SUB SWAP1 REVERT JUMPDEST PUSH0 PUSH1 0x3 PUSH1 0x1 SWAP1 SLOAD SWAP1 PUSH2 0x100 EXP SWAP1 DIV PUSH20 0xFFFFFFFFFFFFFFFFFFFFFFFFFFFFFFFFFFFFFFFF AND SWAP1 POP PUSH0 PUSH1 0x4 PUSH0 SWAP1 SLOAD SWAP1 PUSH2 0x100 EXP SWAP1 DIV PUSH20 0xFFFFFFFFFFFFFFFFFFFFFFFFFFFFFFFFFFFFFFFF AND SWAP1 POP PUSH1 0x4 PUSH0 SWAP1 SLOAD SWAP1 PUSH2 0x100 EXP SWAP1 DIV PUSH20 0xFFFFFFFFFFFFFFFFFFFFFFFFFFFFFFFFFFFFFFFF AND PUSH1 0x3 PUSH1 0x1 PUSH2 0x100 EXP DUP2 SLOAD DUP2 PUSH20 0xFFFFFFFFFFFFFFFFFFFFFFFFFFFFFFFFFFFFFFFF MUL NOT AND SWAP1 DUP4 PUSH20 0xFFFFFFFFFFFFFFFFFFFFFFFFFFFFFFFFFFFFFFFF AND MUL OR SWAP1 SSTORE POP PUSH0 PUSH1 0x4 PUSH0 PUSH2 0x100 EXP DUP2 SLOAD DUP2 PUSH20 0xFFFFFFFFFFFFFFFFFFFFFFFFFFFFFFFFFFFFFFFF MUL NOT AND SWAP1 DUP4 PUSH20 0xFFFFFFFFFFFFFFFFFFFFFFFFFFFFFFFFFFFFFFFF AND MUL OR SWAP1 SSTORE POP PUSH32 0xF9FFABCA9C8276E99321725BCB43FB076A6C66A54B7F21C4E8146D8519B417DC DUP3 PUSH1 0x3 PUSH1 0x1 SWAP1 SLOAD SWAP1 PUSH2 0x100 EXP SWAP1 DIV PUSH20 0xFFFFFFFFFFFFFFFFFFFFFFFFFFFFFFFFFFFFFFFF AND PUSH1 0x40 MLOAD PUSH2 0x2583 SWAP3 SWAP2 SWAP1 PUSH2 0x6A28 JUMP JUMPDEST PUSH1 0x40 MLOAD DUP1 SWAP2 SUB SWAP1 LOG1 PUSH32 0xCA4F2F25D0898EDD99413412FB94012F9E54EC8142F9B093E7720646A95B16A9 DUP2 PUSH1 0x4 PUSH0 SWAP1 SLOAD SWAP1 PUSH2 0x100 EXP SWAP1 DIV PUSH20 0xFFFFFFFFFFFFFFFFFFFFFFFFFFFFFFFFFFFFFFFF AND PUSH1 0x40 MLOAD PUSH2 0x25DD SWAP3 SWAP2 SWAP1 PUSH2 0x6A28 JUMP JUMPDEST PUSH1 0x40 MLOAD DUP1 SWAP2 SUB SWAP1 LOG1 PUSH0 SWAP3 POP POP POP SWAP1 JUMP JUMPDEST PUSH1 0x3 PUSH1 0x1 SWAP1 SLOAD SWAP1 PUSH2 0x100 EXP SWAP1 DIV PUSH20 0xFFFFFFFFFFFFFFFFFFFFFFFFFFFFFFFFFFFFFFFF AND PUSH20 0xFFFFFFFFFFFFFFFFFFFFFFFFFFFFFFFFFFFFFFFF AND CALLER PUSH20 0xFFFFFFFFFFFFFFFFFFFFFFFFFFFFFFFFFFFFFFFF AND EQ PUSH2 0x267D JUMPI PUSH1 0x40 MLOAD PUSH32 0x8C379A000000000000000000000000000000000000000000000000000000000 DUP2 MSTORE PUSH1 0x4 ADD PUSH2 0x2674 SWAP1 PUSH2 0x6B4E JUMP JUMPDEST PUSH1 0x40 MLOAD DUP1 SWAP2 SUB SWAP1 REVERT JUMPDEST PUSH2 0x3E8 DUP2 GT ISZERO PUSH2 0x26C2 JUMPI PUSH1 0x40 MLOAD PUSH32 0x8C379A000000000000000000000000000000000000000000000000000000000 DUP2 MSTORE PUSH1 0x4 ADD PUSH2 0x26B9 SWAP1 PUSH2 0x6BB6 JUMP JUMPDEST PUSH1 0x40 MLOAD DUP1 SWAP2 SUB SWAP1 REVERT JUMPDEST DUP1 PUSH1 0x13 DUP2 SWAP1 SSTORE POP POP JUMP JUMPDEST PUSH0 PUSH2 0x26D5 PUSH2 0x1B74 JUMP JUMPDEST POP PUSH2 0x26DF DUP3 PUSH2 0x3401 JUMP JUMPDEST SWAP1 POP SWAP2 SWAP1 POP JUMP JUMPDEST PUSH1 0x6 PUSH0 SWAP1 SLOAD SWAP1 PUSH2 0x100 EXP SWAP1 DIV PUSH20 0xFFFFFFFFFFFFFFFFFFFFFFFFFFFFFFFFFFFFFFFF AND DUP2 JUMP JUMPDEST PUSH1 0x3 PUSH1 0x1 SWAP1 SLOAD SWAP1 PUSH2 0x100 EXP SWAP1 DIV PUSH20 0xFFFFFFFFFFFFFFFFFFFFFFFFFFFFFFFFFFFFFFFF AND PUSH20 0xFFFFFFFFFFFFFFFFFFFFFFFFFFFFFFFFFFFFFFFF AND CALLER PUSH20 0xFFFFFFFFFFFFFFFFFFFFFFFFFFFFFFFFFFFFFFFF AND EQ PUSH2 0x279B JUMPI PUSH1 0x40 MLOAD PUSH32 0x8C379A000000000000000000000000000000000000000000000000000000000 DUP2 MSTORE PUSH1 0x4 ADD PUSH2 0x2792 SWAP1 PUSH2 0x6C44 JUMP JUMPDEST PUSH1 0x40 MLOAD DUP1 SWAP2 SUB SWAP1 REVERT JUMPDEST DUP1 PUSH1 0x12 PUSH0 PUSH2 0x100 EXP DUP2 SLOAD DUP2 PUSH20 0xFFFFFFFFFFFFFFFFFFFFFFFFFFFFFFFFFFFFFFFF MUL NOT AND SWAP1 DUP4 PUSH20 0xFFFFFFFFFFFFFFFFFFFFFFFFFFFFFFFFFFFFFFFF AND MUL OR SWAP1 SSTORE POP POP JUMP JUMPDEST PUSH0 PUSH2 0x27EA DUP5 DUP5 DUP5 PUSH2 0x3DA6 JUMP JUMPDEST PUSH0 SWAP1 POP SWAP4 SWAP3 POP POP POP JUMP JUMPDEST PUSH1 0x3 PUSH1 0x1 SWAP1 SLOAD SWAP1 PUSH2 0x100 EXP SWAP1 DIV PUSH20 0xFFFFFFFFFFFFFFFFFFFFFFFFFFFFFFFFFFFFFFFF AND DUP2 JUMP JUMPDEST PUSH0 PUSH1 0x6 PUSH0 SWAP1 SLOAD SWAP1 PUSH2 0x100 EXP SWAP1 DIV PUSH20 0xFFFFFFFFFFFFFFFFFFFFFFFFFFFFFFFFFFFFFFFF AND PUSH20 0xFFFFFFFFFFFFFFFFFFFFFFFFFFFFFFFFFFFFFFFF AND PUSH4 0x15F24053 PUSH2 0x2860 PUSH2 0x2FB3 JUMP JUMPDEST PUSH1 0xB SLOAD PUSH1 0xC SLOAD PUSH1 0x40 MLOAD DUP5 PUSH4 0xFFFFFFFF AND PUSH1 0xE0 SHL DUP2 MSTORE PUSH1 0x4 ADD PUSH2 0x2884 SWAP4 SWAP3 SWAP2 SWAP1 PUSH2 0x68F8 JUMP JUMPDEST PUSH1 0x20 PUSH1 0x40 MLOAD DUP1 DUP4 SUB DUP2 DUP7 GAS STATICCALL ISZERO DUP1 ISZERO PUSH2 0x289F JUMPI RETURNDATASIZE PUSH0 PUSH0 RETURNDATACOPY RETURNDATASIZE PUSH0 REVERT JUMPDEST POP POP POP POP PUSH1 0x40 MLOAD RETURNDATASIZE PUSH1 0x1F NOT PUSH1 0x1F DUP3 ADD AND DUP3 ADD DUP1 PUSH1 0x40 MSTORE POP DUP2 ADD SWAP1 PUSH2 0x28C3 SWAP2 SWAP1 PUSH2 0x6180 JUMP JUMPDEST SWAP1 POP SWAP1 JUMP JUMPDEST PUSH1 0x15 PUSH0 SWAP1 SLOAD SWAP1 PUSH2 0x100 EXP SWAP1 DIV PUSH20 0xFFFFFFFFFFFFFFFFFFFFFFFFFFFFFFFFFFFFFFFF AND DUP2 JUMP JUMPDEST PUSH0 PUSH0 PUSH0 SWAP1 SLOAD SWAP1 PUSH2 0x100 EXP SWAP1 DIV PUSH1 0xFF AND PUSH2 0x293B JUMPI PUSH1 0x40 MLOAD PUSH32 0x8C379A000000000000000000000000000000000000000000000000000000000 DUP2 MSTORE PUSH1 0x4 ADD PUSH2 0x2932 SWAP1 PUSH2 0x6032 JUMP JUMPDEST PUSH1 0x40 MLOAD DUP1 SWAP2 SUB SWAP1 REVERT JUMPDEST PUSH0 PUSH0 PUSH0 PUSH2 0x100 EXP DUP2 SLOAD DUP2 PUSH1 0xFF MUL NOT AND SWAP1 DUP4 ISZERO ISZERO MUL OR SWAP1 SSTORE POP PUSH2 0x295B PUSH2 0x1B74 JUMP JUMPDEST POP PUSH2 0x2965 DUP3 PUSH2 0x3EF4 JUMP JUMPDEST SWAP1 POP PUSH1 0x1 PUSH0 PUSH0 PUSH2 0x100 EXP DUP2 SLOAD DUP2 PUSH1 0xFF MUL NOT AND SWAP1 DUP4 ISZERO ISZERO MUL OR SWAP1 SSTORE POP SWAP2 SWAP1 POP JUMP JUMPDEST PUSH1 0x1 DUP2 JUMP JUMPDEST PUSH0 PUSH0 SWAP1 SLOAD SWAP1 PUSH2 0x100 EXP SWAP1 DIV PUSH1 0xFF AND PUSH2 0x29D7 JUMPI PUSH1 0x40 MLOAD PUSH32 0x8C379A000000000000000000000000000000000000000000000000000000000 DUP2 MSTORE PUSH1 0x4 ADD PUSH2 0x29CE SWAP1 PUSH2 0x6032 JUMP JUMPDEST PUSH1 0x40 MLOAD DUP1 SWAP2 SUB SWAP1 REVERT JUMPDEST PUSH0 PUSH0 PUSH0 PUSH2 0x100 EXP DUP2 SLOAD DUP2 PUSH1 0xFF MUL NOT AND SWAP1 DUP4 ISZERO ISZERO MUL OR SWAP1 SSTORE POP PUSH2 0x29F7 PUSH2 0x1B74 JUMP JUMPDEST POP PUSH2 0x2A03 CALLER CALLER DUP4 PUSH2 0x404F JUMP JUMPDEST POP PUSH1 0x1 PUSH0 PUSH0 PUSH2 0x100 EXP DUP2 SLOAD DUP2 PUSH1 0xFF MUL NOT AND SWAP1 DUP4 ISZERO ISZERO MUL OR SWAP1 SSTORE POP POP JUMP JUMPDEST PUSH0 PUSH0 PUSH1 0xD SLOAD SWAP1 POP PUSH0 DUP2 SUB PUSH2 0x2A39 JUMPI PUSH1 0x7 SLOAD SWAP2 POP POP PUSH2 0x2A8C JUMP JUMPDEST PUSH0 PUSH2 0x2A42 PUSH2 0x2FB3 JUMP JUMPDEST SWAP1 POP PUSH0 PUSH1 0xC SLOAD PUSH1 0xB SLOAD DUP4 PUSH2 0x2A56 SWAP2 SWAP1 PUSH2 0x69F5 JUMP JUMPDEST PUSH2 0x2A60 SWAP2 SWAP1 PUSH2 0x69C2 JUMP JUMPDEST SWAP1 POP PUSH0 DUP4 PUSH8 0xDE0B6B3A7640000 DUP4 PUSH2 0x2A78 SWAP2 SWAP1 PUSH2 0x6C62 JUMP JUMPDEST PUSH2 0x2A82 SWAP2 SWAP1 PUSH2 0x6CD0 JUMP JUMPDEST SWAP1 POP DUP1 SWAP5 POP POP POP POP POP JUMPDEST SWAP1 JUMP JUMPDEST PUSH0 PUSH0 PUSH1 0x5 PUSH0 SWAP1 SLOAD SWAP1 PUSH2 0x100 EXP SWAP1 DIV PUSH20 0xFFFFFFFFFFFFFFFFFFFFFFFFFFFFFFFFFFFFFFFF AND PUSH20 0xFFFFFFFFFFFFFFFFFFFFFFFFFFFFFFFFFFFFFFFF AND PUSH4 0xBDCDC258 ADDRESS DUP8 DUP8 DUP8 PUSH1 0x40 MLOAD DUP6 PUSH4 0xFFFFFFFF AND PUSH1 0xE0 SHL DUP2 MSTORE PUSH1 0x4 ADD PUSH2 0x2AF1 SWAP5 SWAP4 SWAP3 SWAP2 SWAP1 PUSH2 0x6D00 JUMP JUMPDEST PUSH1 0x20 PUSH1 0x40 MLOAD DUP1 DUP4 SUB DUP2 PUSH0 DUP8 GAS CALL ISZERO DUP1 ISZERO PUSH2 0x2B0D JUMPI RETURNDATASIZE PUSH0 PUSH0 RETURNDATACOPY RETURNDATASIZE PUSH0 REVERT JUMPDEST POP POP POP POP PUSH1 0x40 MLOAD RETURNDATASIZE PUSH1 0x1F NOT PUSH1 0x1F DUP3 ADD AND DUP3 ADD DUP1 PUSH1 0x40 MSTORE POP DUP2 ADD SWAP1 PUSH2 0x2B31 SWAP2 SWAP1 PUSH2 0x6180 JUMP JUMPDEST SWAP1 POP PUSH0 DUP2 EQ PUSH2 0x2B77 JUMPI DUP1 PUSH1 0x40 MLOAD PUSH32 0x113A84EE00000000000000000000000000000000000000000000000000000000 DUP2 MSTORE PUSH1 0x4 ADD PUSH2 0x2B6E SWAP2 SWAP1 PUSH2 0x57FE JUMP JUMPDEST PUSH1 0x40 MLOAD DUP1 SWAP2 SUB SWAP1 REVERT JUMPDEST DUP4 PUSH20 0xFFFFFFFFFFFFFFFFFFFFFFFFFFFFFFFFFFFFFFFF AND DUP6 PUSH20 0xFFFFFFFFFFFFFFFFFFFFFFFFFFFFFFFFFFFFFFFF AND SUB PUSH2 0x2BDC JUMPI PUSH1 0x40 MLOAD PUSH32 0x8CD22D1900000000000000000000000000000000000000000000000000000000 DUP2 MSTORE PUSH1 0x4 ADD PUSH1 0x40 MLOAD DUP1 SWAP2 SUB SWAP1 REVERT JUMPDEST PUSH0 PUSH0 SWAP1 POP DUP6 PUSH20 0xFFFFFFFFFFFFFFFFFFFFFFFFFFFFFFFFFFFFFFFF AND DUP8 PUSH20 0xFFFFFFFFFFFFFFFFFFFFFFFFFFFFFFFFFFFFFFFF AND SUB PUSH2 0x2C3B JUMPI PUSH32 0xFFFFFFFFFFFFFFFFFFFFFFFFFFFFFFFFFFFFFFFFFFFFFFFFFFFFFFFFFFFFFFFF SWAP1 POP PUSH2 0x2CB7 JUMP JUMPDEST PUSH1 0xF PUSH0 DUP8 PUSH20 0xFFFFFFFFFFFFFFFFFFFFFFFFFFFFFFFFFFFFFFFF AND PUSH20 0xFFFFFFFFFFFFFFFFFFFFFFFFFFFFFFFFFFFFFFFF AND DUP2 MSTORE PUSH1 0x20 ADD SWAP1 DUP2 MSTORE PUSH1 0x20 ADD PUSH0 KECCAK256 PUSH0 DUP9 PUSH20 0xFFFFFFFFFFFFFFFFFFFFFFFFFFFFFFFFFFFFFFFF AND PUSH20 0xFFFFFFFFFFFFFFFFFFFFFFFFFFFFFFFFFFFFFFFF AND DUP2 MSTORE PUSH1 0x20 ADD SWAP1 DUP2 MSTORE PUSH1 0x20 ADD PUSH0 KECCAK256 SLOAD SWAP1 POP JUMPDEST PUSH0 DUP5 DUP3 PUSH2 0x2CC4 SWAP2 SWAP1 PUSH2 0x69C2 JUMP JUMPDEST SWAP1 POP PUSH0 DUP6 PUSH1 0xE PUSH0 DUP11 PUSH20 0xFFFFFFFFFFFFFFFFFFFFFFFFFFFFFFFFFFFFFFFF AND PUSH20 0xFFFFFFFFFFFFFFFFFFFFFFFFFFFFFFFFFFFFFFFF AND DUP2 MSTORE PUSH1 0x20 ADD SWAP1 DUP2 MSTORE PUSH1 0x20 ADD PUSH0 KECCAK256 SLOAD PUSH2 0x2D10 SWAP2 SWAP1 PUSH2 0x69C2 JUMP JUMPDEST SWAP1 POP PUSH0 DUP7 PUSH1 0xE PUSH0 DUP11 PUSH20 0xFFFFFFFFFFFFFFFFFFFFFFFFFFFFFFFFFFFFFFFF AND PUSH20 0xFFFFFFFFFFFFFFFFFFFFFFFFFFFFFFFFFFFFFFFF AND DUP2 MSTORE PUSH1 0x20 ADD SWAP1 DUP2 MSTORE PUSH1 0x20 ADD PUSH0 KECCAK256 SLOAD PUSH2 0x2D5C SWAP2 SWAP1 PUSH2 0x69F5 JUMP JUMPDEST SWAP1 POP DUP2 PUSH1 0xE PUSH0 DUP12 PUSH20 0xFFFFFFFFFFFFFFFFFFFFFFFFFFFFFFFFFFFFFFFF AND PUSH20 0xFFFFFFFFFFFFFFFFFFFFFFFFFFFFFFFFFFFFFFFF AND DUP2 MSTORE PUSH1 0x20 ADD SWAP1 DUP2 MSTORE PUSH1 0x20 ADD PUSH0 KECCAK256 DUP2 SWAP1 SSTORE POP DUP1 PUSH1 0xE PUSH0 DUP11 PUSH20 0xFFFFFFFFFFFFFFFFFFFFFFFFFFFFFFFFFFFFFFFF AND PUSH20 0xFFFFFFFFFFFFFFFFFFFFFFFFFFFFFFFFFFFFFFFF AND DUP2 MSTORE PUSH1 0x20 ADD SWAP1 DUP2 MSTORE PUSH1 0x20 ADD PUSH0 KECCAK256 DUP2 SWAP1 SSTORE POP PUSH32 0xFFFFFFFFFFFFFFFFFFFFFFFFFFFFFFFFFFFFFFFFFFFFFFFFFFFFFFFFFFFFFFFF DUP5 EQ PUSH2 0x2E87 JUMPI DUP3 PUSH1 0xF PUSH0 DUP12 PUSH20 0xFFFFFFFFFFFFFFFFFFFFFFFFFFFFFFFFFFFFFFFF AND PUSH20 0xFFFFFFFFFFFFFFFFFFFFFFFFFFFFFFFFFFFFFFFF AND DUP2 MSTORE PUSH1 0x20 ADD SWAP1 DUP2 MSTORE PUSH1 0x20 ADD PUSH0 KECCAK256 PUSH0 DUP13 PUSH20 0xFFFFFFFFFFFFFFFFFFFFFFFFFFFFFFFFFFFFFFFF AND PUSH20 0xFFFFFFFFFFFFFFFFFFFFFFFFFFFFFFFFFFFFFFFF AND DUP2 MSTORE PUSH1 0x20 ADD SWAP1 DUP2 MSTORE PUSH1 0x20 ADD PUSH0 KECCAK256 DUP2 SWAP1 SSTORE POP JUMPDEST DUP8 PUSH20 0xFFFFFFFFFFFFFFFFFFFFFFFFFFFFFFFFFFFFFFFF AND DUP10 PUSH20 0xFFFFFFFFFFFFFFFFFFFFFFFFFFFFFFFFFFFFFFFF AND PUSH32 0xDDF252AD1BE2C89B69C2B068FC378DAA952BA7F163C4A11628F55A4DF523B3EF DUP10 PUSH1 0x40 MLOAD PUSH2 0x2EE4 SWAP2 SWAP1 PUSH2 0x57FE JUMP JUMPDEST PUSH1 0x40 MLOAD DUP1 SWAP2 SUB SWAP1 LOG3 PUSH0 SWAP6 POP POP POP POP POP POP SWAP5 SWAP4 POP POP POP POP JUMP JUMPDEST PUSH0 PUSH0 SWAP1 SLOAD SWAP1 PUSH2 0x100 EXP SWAP1 DIV PUSH1 0xFF AND PUSH2 0x2F49 JUMPI PUSH1 0x40 MLOAD PUSH32 0x8C379A000000000000000000000000000000000000000000000000000000000 DUP2 MSTORE PUSH1 0x4 ADD PUSH2 0x2F40 SWAP1 PUSH2 0x6032 JUMP JUMPDEST PUSH1 0x40 MLOAD DUP1 SWAP2 SUB SWAP1 REVERT JUMPDEST PUSH0 PUSH0 PUSH0 PUSH2 0x100 EXP DUP2 SLOAD DUP2 PUSH1 0xFF MUL NOT AND SWAP1 DUP4 ISZERO ISZERO MUL OR SWAP1 SSTORE POP PUSH2 0x2F69 PUSH2 0x1B74 JUMP JUMPDEST POP PUSH2 0x2F75 CALLER DUP4 DUP4 PUSH2 0x404F JUMP JUMPDEST POP PUSH1 0x1 PUSH0 PUSH0 PUSH2 0x100 EXP DUP2 SLOAD DUP2 PUSH1 0xFF MUL NOT AND SWAP1 DUP4 ISZERO ISZERO MUL OR SWAP1 SSTORE POP POP POP JUMP JUMPDEST PUSH0 PUSH0 PUSH2 0x2F9F DUP5 DUP5 PUSH2 0x3832 JUMP JUMPDEST SWAP1 POP PUSH2 0x2FAA DUP2 PUSH2 0x42C5 JUMP JUMPDEST SWAP2 POP POP SWAP3 SWAP2 POP POP JUMP JUMPDEST PUSH0 PUSH0 PUSH1 0x11 PUSH0 SWAP1 SLOAD SWAP1 PUSH2 0x100 EXP SWAP1 DIV PUSH20 0xFFFFFFFFFFFFFFFFFFFFFFFFFFFFFFFFFFFFFFFF AND SWAP1 POP DUP1 PUSH20 0xFFFFFFFFFFFFFFFFFFFFFFFFFFFFFFFFFFFFFFFF AND PUSH4 0x70A08231 ADDRESS PUSH1 0x40 MLOAD DUP3 PUSH4 0xFFFFFFFF AND PUSH1 0xE0 SHL DUP2 MSTORE PUSH1 0x4 ADD PUSH2 0x3012 SWAP2 SWAP1 PUSH2 0x563C JUMP JUMPDEST PUSH1 0x20 PUSH1 0x40 MLOAD DUP1 DUP4 SUB DUP2 DUP7 GAS STATICCALL ISZERO DUP1 ISZERO PUSH2 0x302D JUMPI RETURNDATASIZE PUSH0 PUSH0 RETURNDATACOPY RETURNDATASIZE PUSH0 REVERT JUMPDEST POP POP POP POP PUSH1 0x40 MLOAD RETURNDATASIZE PUSH1 0x1F NOT PUSH1 0x1F DUP3 ADD AND DUP3 ADD DUP1 PUSH1 0x40 MSTORE POP DUP2 ADD SWAP1 PUSH2 0x3051 SWAP2 SWAP1 PUSH2 0x6180 JUMP JUMPDEST SWAP2 POP POP SWAP1 JUMP JUMPDEST PUSH0 PUSH0 PUSH0 SWAP1 SLOAD SWAP1 PUSH2 0x100 EXP SWAP1 DIV PUSH1 0xFF AND PUSH2 0x30A5 JUMPI PUSH1 0x40 MLOAD PUSH32 0x8C379A000000000000000000000000000000000000000000000000000000000 DUP2 MSTORE PUSH1 0x4 ADD PUSH2 0x309C SWAP1 PUSH2 0x6032 JUMP JUMPDEST PUSH1 0x40 MLOAD DUP1 SWAP2 SUB SWAP1 REVERT JUMPDEST PUSH0 PUSH0 PUSH0 PUSH2 0x100 EXP DUP2 SLOAD DUP2 PUSH1 0xFF MUL NOT AND SWAP1 DUP4 ISZERO ISZERO MUL OR SWAP1 SSTORE POP PUSH2 0x30C5 PUSH2 0x1B74 JUMP JUMPDEST POP PUSH2 0x30CF DUP3 PUSH2 0x42E4 JUMP JUMPDEST POP POP PUSH0 SWAP1 POP PUSH1 0x1 PUSH0 PUSH0 PUSH2 0x100 EXP DUP2 SLOAD DUP2 PUSH1 0xFF MUL NOT AND SWAP1 DUP4 ISZERO ISZERO MUL OR SWAP1 SSTORE POP SWAP2 SWAP1 POP JUMP JUMPDEST PUSH0 PUSH0 PUSH1 0x3 PUSH1 0x1 SWAP1 SLOAD SWAP1 PUSH2 0x100 EXP SWAP1 DIV PUSH20 0xFFFFFFFFFFFFFFFFFFFFFFFFFFFFFFFFFFFFFFFF AND PUSH20 0xFFFFFFFFFFFFFFFFFFFFFFFFFFFFFFFFFFFFFFFF AND CALLER PUSH20 0xFFFFFFFFFFFFFFFFFFFFFFFFFFFFFFFFFFFFFFFF AND EQ PUSH2 0x317B JUMPI PUSH1 0x40 MLOAD PUSH32 0xF7E5E6D000000000000000000000000000000000000000000000000000000000 DUP2 MSTORE PUSH1 0x4 ADD PUSH1 0x40 MLOAD DUP1 SWAP2 SUB SWAP1 REVERT JUMPDEST PUSH2 0x3183 PUSH2 0x33FA JUMP JUMPDEST PUSH1 0x9 SLOAD EQ PUSH2 0x31BD JUMPI PUSH1 0x40 MLOAD PUSH32 0xDFF50CB000000000000000000000000000000000000000000000000000000000 DUP2 MSTORE PUSH1 0x4 ADD PUSH1 0x40 MLOAD DUP1 SWAP2 SUB SWAP1 REVERT JUMPDEST DUP3 PUSH2 0x31C6 PUSH2 0x2FB3 JUMP JUMPDEST LT ISZERO PUSH2 0x31FE JUMPI PUSH1 0x40 MLOAD PUSH32 0x3345E99900000000000000000000000000000000000000000000000000000000 DUP2 MSTORE PUSH1 0x4 ADD PUSH1 0x40 MLOAD DUP1 SWAP2 SUB SWAP1 REVERT JUMPDEST PUSH1 0xC SLOAD DUP4 GT ISZERO PUSH2 0x323A JUMPI PUSH1 0x40 MLOAD PUSH32 0xF1A5300A00000000000000000000000000000000000000000000000000000000 DUP2 MSTORE PUSH1 0x4 ADD PUSH1 0x40 MLOAD DUP1 SWAP2 SUB SWAP1 REVERT JUMPDEST DUP3 PUSH1 0xC SLOAD PUSH2 0x3248 SWAP2 SWAP1 PUSH2 0x69C2 JUMP JUMPDEST SWAP1 POP DUP1 PUSH1 0xC DUP2 SWAP1 SSTORE POP PUSH2 0x327D PUSH1 0x3 PUSH1 0x1 SWAP1 SLOAD SWAP1 PUSH2 0x100 EXP SWAP1 DIV PUSH20 0xFFFFFFFFFFFFFFFFFFFFFFFFFFFFFFFFFFFFFFFF AND DUP5 PUSH2 0x43A0 JUMP JUMPDEST PUSH32 0x3BAD0C59CF2F06E7314077049F48A93578CD16F5EF92329F1DAB1420A99C177E PUSH1 0x3 PUSH1 0x1 SWAP1 SLOAD SWAP1 PUSH2 0x100 EXP SWAP1 DIV PUSH20 0xFFFFFFFFFFFFFFFFFFFFFFFFFFFFFFFFFFFFFFFF AND DUP5 DUP4 PUSH1 0x40 MLOAD PUSH2 0x32D2 SWAP4 SWAP3 SWAP2 SWAP1 PUSH2 0x6D43 JUMP JUMPDEST PUSH1 0x40 MLOAD DUP1 SWAP2 SUB SWAP1 LOG1 PUSH0 SWAP2 POP POP SWAP2 SWAP1 POP JUMP JUMPDEST PUSH0 PUSH0 SWAP1 SLOAD SWAP1 PUSH2 0x100 EXP SWAP1 DIV PUSH1 0xFF AND PUSH2 0x3330 JUMPI PUSH1 0x40 MLOAD PUSH32 0x8C379A000000000000000000000000000000000000000000000000000000000 DUP2 MSTORE PUSH1 0x4 ADD PUSH2 0x3327 SWAP1 PUSH2 0x6032 JUMP JUMPDEST PUSH1 0x40 MLOAD DUP1 SWAP2 SUB SWAP1 REVERT JUMPDEST PUSH0 PUSH0 PUSH0 PUSH2 0x100 EXP DUP2 SLOAD DUP2 PUSH1 0xFF MUL NOT AND SWAP1 DUP4 ISZERO ISZERO MUL OR SWAP1 SSTORE POP PUSH2 0x3350 PUSH2 0x1B74 JUMP JUMPDEST POP PUSH2 0x335C CALLER PUSH0 DUP4 PUSH2 0x449C JUMP JUMPDEST PUSH1 0x1 PUSH0 PUSH0 PUSH2 0x100 EXP DUP2 SLOAD DUP2 PUSH1 0xFF MUL NOT AND SWAP1 DUP4 ISZERO ISZERO MUL OR SWAP1 SSTORE POP POP JUMP JUMPDEST PUSH0 PUSH0 PUSH1 0x10 PUSH0 DUP5 PUSH20 0xFFFFFFFFFFFFFFFFFFFFFFFFFFFFFFFFFFFFFFFF AND PUSH20 0xFFFFFFFFFFFFFFFFFFFFFFFFFFFFFFFFFFFFFFFF AND DUP2 MSTORE PUSH1 0x20 ADD SWAP1 DUP2 MSTORE PUSH1 0x20 ADD PUSH0 KECCAK256 SWAP1 POP PUSH0 DUP2 PUSH0 ADD SLOAD SUB PUSH2 0x33CC JUMPI PUSH0 SWAP2 POP POP PUSH2 0x33F5 JUMP JUMPDEST PUSH0 PUSH1 0xA SLOAD DUP3 PUSH0 ADD SLOAD PUSH2 0x33DE SWAP2 SWAP1 PUSH2 0x6C62 JUMP JUMPDEST SWAP1 POP DUP2 PUSH1 0x1 ADD SLOAD DUP2 PUSH2 0x33F0 SWAP2 SWAP1 PUSH2 0x6CD0 JUMP JUMPDEST SWAP3 POP POP POP JUMPDEST SWAP2 SWAP1 POP JUMP JUMPDEST PUSH0 NUMBER SWAP1 POP SWAP1 JUMP JUMPDEST PUSH0 PUSH0 PUSH1 0x3 PUSH1 0x1 SWAP1 SLOAD SWAP1 PUSH2 0x100 EXP SWAP1 DIV PUSH20 0xFFFFFFFFFFFFFFFFFFFFFFFFFFFFFFFFFFFFFFFF AND PUSH20 0xFFFFFFFFFFFFFFFFFFFFFFFFFFFFFFFFFFFFFFFF AND CALLER PUSH20 0xFFFFFFFFFFFFFFFFFFFFFFFFFFFFFFFFFFFFFFFF AND EQ PUSH2 0x348A JUMPI PUSH1 0x40 MLOAD PUSH32 0x407FDED500000000000000000000000000000000000000000000000000000000 DUP2 MSTORE PUSH1 0x4 ADD PUSH1 0x40 MLOAD DUP1 SWAP2 SUB SWAP1 REVERT JUMPDEST PUSH2 0x3492 PUSH2 0x33FA JUMP JUMPDEST PUSH1 0x9 SLOAD EQ PUSH2 0x34CC JUMPI PUSH1 0x40 MLOAD PUSH32 0x17C54B9600000000000000000000000000000000000000000000000000000000 DUP2 MSTORE PUSH1 0x4 ADD PUSH1 0x40 MLOAD DUP1 SWAP2 SUB SWAP1 REVERT JUMPDEST PUSH1 0x6 PUSH0 SWAP1 SLOAD SWAP1 PUSH2 0x100 EXP SWAP1 DIV PUSH20 0xFFFFFFFFFFFFFFFFFFFFFFFFFFFFFFFFFFFFFFFF AND SWAP1 POP DUP3 PUSH20 0xFFFFFFFFFFFFFFFFFFFFFFFFFFFFFFFFFFFFFFFF AND PUSH4 0x2191F92A PUSH1 0x40 MLOAD DUP2 PUSH4 0xFFFFFFFF AND PUSH1 0xE0 SHL DUP2 MSTORE PUSH1 0x4 ADD PUSH1 0x20 PUSH1 0x40 MLOAD DUP1 DUP4 SUB DUP2 DUP7 GAS STATICCALL ISZERO DUP1 ISZERO PUSH2 0x3539 JUMPI RETURNDATASIZE PUSH0 PUSH0 RETURNDATACOPY RETURNDATASIZE PUSH0 REVERT JUMPDEST POP POP POP POP PUSH1 0x40 MLOAD RETURNDATASIZE PUSH1 0x1F NOT PUSH1 0x1F DUP3 ADD AND DUP3 ADD DUP1 PUSH1 0x40 MSTORE POP DUP2 ADD SWAP1 PUSH2 0x355D SWAP2 SWAP1 PUSH2 0x621C JUMP JUMPDEST PUSH2 0x359C JUMPI PUSH1 0x40 MLOAD PUSH32 0x8C379A000000000000000000000000000000000000000000000000000000000 DUP2 MSTORE PUSH1 0x4 ADD PUSH2 0x3593 SWAP1 PUSH2 0x6291 JUMP JUMPDEST PUSH1 0x40 MLOAD DUP1 SWAP2 SUB SWAP1 REVERT JUMPDEST DUP3 PUSH1 0x6 PUSH0 PUSH2 0x100 EXP DUP2 SLOAD DUP2 PUSH20 0xFFFFFFFFFFFFFFFFFFFFFFFFFFFFFFFFFFFFFFFF MUL NOT AND SWAP1 DUP4 PUSH20 0xFFFFFFFFFFFFFFFFFFFFFFFFFFFFFFFFFFFFFFFF AND MUL OR SWAP1 SSTORE POP PUSH32 0xEDFFC32E068C7C95DFD4BDFD5C4D939A084D6B11C4199EAC8436ED234D72F926 DUP2 DUP5 PUSH1 0x40 MLOAD PUSH2 0x360D SWAP3 SWAP2 SWAP1 PUSH2 0x6D78 JUMP JUMPDEST PUSH1 0x40 MLOAD DUP1 SWAP2 SUB SWAP1 LOG1 PUSH0 SWAP2 POP POP SWAP2 SWAP1 POP JUMP JUMPDEST PUSH0 PUSH2 0x2710 PUSH1 0x13 SLOAD DUP4 PUSH2 0x3630 SWAP2 SWAP1 PUSH2 0x6C62 JUMP JUMPDEST PUSH2 0x363A SWAP2 SWAP1 PUSH2 0x6CD0 JUMP JUMPDEST SWAP1 POP PUSH0 DUP2 SUB PUSH2 0x3649 JUMPI POP PUSH2 0x379A JUMP JUMPDEST DUP2 DUP2 GT ISZERO PUSH2 0x368C JUMPI PUSH1 0x40 MLOAD PUSH32 0x8C379A000000000000000000000000000000000000000000000000000000000 DUP2 MSTORE PUSH1 0x4 ADD PUSH2 0x3683 SWAP1 PUSH2 0x6DE9 JUMP JUMPDEST PUSH1 0x40 MLOAD DUP1 SWAP2 SUB SWAP1 REVERT JUMPDEST DUP3 PUSH20 0xFFFFFFFFFFFFFFFFFFFFFFFFFFFFFFFFFFFFFFFF AND PUSH1 0x15 PUSH0 SWAP1 SLOAD SWAP1 PUSH2 0x100 EXP SWAP1 DIV PUSH20 0xFFFFFFFFFFFFFFFFFFFFFFFFFFFFFFFFFFFFFFFF AND PUSH20 0xFFFFFFFFFFFFFFFFFFFFFFFFFFFFFFFFFFFFFFFF AND EQ PUSH2 0x371B JUMPI PUSH1 0x40 MLOAD PUSH32 0x8C379A000000000000000000000000000000000000000000000000000000000 DUP2 MSTORE PUSH1 0x4 ADD PUSH2 0x3712 SWAP1 PUSH2 0x6E77 JUMP JUMPDEST PUSH1 0x40 MLOAD DUP1 SWAP2 SUB SWAP1 REVERT JUMPDEST DUP1 PUSH1 0x14 PUSH0 DUP3 DUP3 SLOAD PUSH2 0x372C SWAP2 SWAP1 PUSH2 0x69F5 JUMP JUMPDEST SWAP3 POP POP DUP2 SWAP1 SSTORE POP CALLER PUSH20 0xFFFFFFFFFFFFFFFFFFFFFFFFFFFFFFFFFFFFFFFF AND DUP4 PUSH20 0xFFFFFFFFFFFFFFFFFFFFFFFFFFFFFFFFFFFFFFFF AND PUSH32 0xA54D8F3C2B568A7029FDE5C3257845D63C3BC7E6BA81F8B68E48647F6DDA102D DUP4 PUSH1 0x40 MLOAD PUSH2 0x3790 SWAP2 SWAP1 PUSH2 0x57FE JUMP JUMPDEST PUSH1 0x40 MLOAD DUP1 SWAP2 SUB SWAP1 LOG3 POP JUMPDEST POP POP JUMP JUMPDEST PUSH0 PUSH0 SWAP1 SLOAD SWAP1 PUSH2 0x100 EXP SWAP1 DIV PUSH1 0xFF AND PUSH2 0x37EB JUMPI PUSH1 0x40 MLOAD PUSH32 0x8C379A000000000000000000000000000000000000000000000000000000000 DUP2 MSTORE PUSH1 0x4 ADD PUSH2 0x37E2 SWAP1 PUSH2 0x6032 JUMP JUMPDEST PUSH1 0x40 MLOAD DUP1 SWAP2 SUB SWAP1 REVERT JUMPDEST PUSH0 PUSH0 PUSH0 PUSH2 0x100 EXP DUP2 SLOAD DUP2 PUSH1 0xFF MUL NOT AND SWAP1 DUP4 ISZERO ISZERO MUL OR SWAP1 SSTORE POP PUSH2 0x380B PUSH2 0x1B74 JUMP JUMPDEST POP PUSH2 0x3816 CALLER DUP3 PUSH2 0x4875 JUMP JUMPDEST PUSH1 0x1 PUSH0 PUSH0 PUSH2 0x100 EXP DUP2 SLOAD DUP2 PUSH1 0xFF MUL NOT AND SWAP1 DUP4 ISZERO ISZERO MUL OR SWAP1 SSTORE POP POP JUMP JUMPDEST PUSH2 0x383A PUSH2 0x55EB JUMP JUMPDEST PUSH1 0x40 MLOAD DUP1 PUSH1 0x20 ADD PUSH1 0x40 MSTORE DUP1 PUSH2 0x3852 DUP6 PUSH0 ADD MLOAD DUP6 PUSH2 0x4B15 JUMP JUMPDEST DUP2 MSTORE POP SWAP1 POP SWAP3 SWAP2 POP POP JUMP JUMPDEST PUSH0 PUSH0 PUSH2 0x3869 DUP6 DUP6 PUSH2 0x3832 JUMP JUMPDEST SWAP1 POP PUSH2 0x387D PUSH2 0x3877 DUP3 PUSH2 0x42C5 JUMP JUMPDEST DUP5 PUSH2 0x4B2A JUMP JUMPDEST SWAP2 POP POP SWAP4 SWAP3 POP POP POP JUMP JUMPDEST PUSH0 PUSH1 0x5 PUSH0 SWAP1 SLOAD SWAP1 PUSH2 0x100 EXP SWAP1 DIV PUSH20 0xFFFFFFFFFFFFFFFFFFFFFFFFFFFFFFFFFFFFFFFF AND PUSH20 0xFFFFFFFFFFFFFFFFFFFFFFFFFFFFFFFFFFFFFFFF AND PUSH4 0xD02F7351 ADDRESS DUP8 DUP8 DUP8 DUP8 PUSH1 0x40 MLOAD DUP7 PUSH4 0xFFFFFFFF AND PUSH1 0xE0 SHL DUP2 MSTORE PUSH1 0x4 ADD PUSH2 0x38EA SWAP6 SWAP5 SWAP4 SWAP3 SWAP2 SWAP1 PUSH2 0x6E95 JUMP JUMPDEST PUSH1 0x20 PUSH1 0x40 MLOAD DUP1 DUP4 SUB DUP2 PUSH0 DUP8 GAS CALL ISZERO DUP1 ISZERO PUSH2 0x3906 JUMPI RETURNDATASIZE PUSH0 PUSH0 RETURNDATACOPY RETURNDATASIZE PUSH0 REVERT JUMPDEST POP POP POP POP PUSH1 0x40 MLOAD RETURNDATASIZE PUSH1 0x1F NOT PUSH1 0x1F DUP3 ADD AND DUP3 ADD DUP1 PUSH1 0x40 MSTORE POP DUP2 ADD SWAP1 PUSH2 0x392A SWAP2 SWAP1 PUSH2 0x6180 JUMP JUMPDEST SWAP1 POP PUSH0 DUP2 EQ PUSH2 0x3970 JUMPI DUP1 PUSH1 0x40 MLOAD PUSH32 0xC7C01C6600000000000000000000000000000000000000000000000000000000 DUP2 MSTORE PUSH1 0x4 ADD PUSH2 0x3967 SWAP2 SWAP1 PUSH2 0x57FE JUMP JUMPDEST PUSH1 0x40 MLOAD DUP1 SWAP2 SUB SWAP1 REVERT JUMPDEST DUP4 PUSH20 0xFFFFFFFFFFFFFFFFFFFFFFFFFFFFFFFFFFFFFFFF AND DUP4 PUSH20 0xFFFFFFFFFFFFFFFFFFFFFFFFFFFFFFFFFFFFFFFF AND SUB PUSH2 0x39D5 JUMPI PUSH1 0x40 MLOAD PUSH32 0x7528C4CE00000000000000000000000000000000000000000000000000000000 DUP2 MSTORE PUSH1 0x4 ADD PUSH1 0x40 MLOAD DUP1 SWAP2 SUB SWAP1 REVERT JUMPDEST PUSH0 PUSH2 0x39F5 DUP4 PUSH1 0x40 MLOAD DUP1 PUSH1 0x20 ADD PUSH1 0x40 MSTORE DUP1 PUSH7 0x6379DA05B60000 DUP2 MSTORE POP PUSH2 0x4B3F JUMP JUMPDEST SWAP1 POP PUSH0 DUP2 DUP5 PUSH2 0x3A04 SWAP2 SWAP1 PUSH2 0x69C2 JUMP JUMPDEST SWAP1 POP PUSH0 PUSH1 0x40 MLOAD DUP1 PUSH1 0x20 ADD PUSH1 0x40 MSTORE DUP1 PUSH2 0x3A1A PUSH2 0x2A20 JUMP JUMPDEST DUP2 MSTORE POP SWAP1 POP PUSH0 PUSH2 0x3A2A DUP3 DUP6 PUSH2 0x2F93 JUMP JUMPDEST SWAP1 POP PUSH0 DUP2 PUSH1 0xC SLOAD PUSH2 0x3A3B SWAP2 SWAP1 PUSH2 0x69F5 JUMP JUMPDEST SWAP1 POP DUP1 PUSH1 0xC DUP2 SWAP1 SSTORE POP DUP5 PUSH1 0xD SLOAD PUSH2 0x3A52 SWAP2 SWAP1 PUSH2 0x69C2 JUMP JUMPDEST PUSH1 0xD DUP2 SWAP1 SSTORE POP DUP7 PUSH1 0xE PUSH0 DUP11 PUSH20 0xFFFFFFFFFFFFFFFFFFFFFFFFFFFFFFFFFFFFFFFF AND PUSH20 0xFFFFFFFFFFFFFFFFFFFFFFFFFFFFFFFFFFFFFFFF AND DUP2 MSTORE PUSH1 0x20 ADD SWAP1 DUP2 MSTORE PUSH1 0x20 ADD PUSH0 KECCAK256 SLOAD PUSH2 0x3AA1 SWAP2 SWAP1 PUSH2 0x69C2 JUMP JUMPDEST PUSH1 0xE PUSH0 DUP11 PUSH20 0xFFFFFFFFFFFFFFFFFFFFFFFFFFFFFFFFFFFFFFFF AND PUSH20 0xFFFFFFFFFFFFFFFFFFFFFFFFFFFFFFFFFFFFFFFF AND DUP2 MSTORE PUSH1 0x20 ADD SWAP1 DUP2 MSTORE PUSH1 0x20 ADD PUSH0 KECCAK256 DUP2 SWAP1 SSTORE POP DUP4 PUSH1 0xE PUSH0 DUP12 PUSH20 0xFFFFFFFFFFFFFFFFFFFFFFFFFFFFFFFFFFFFFFFF AND PUSH20 0xFFFFFFFFFFFFFFFFFFFFFFFFFFFFFFFFFFFFFFFF AND DUP2 MSTORE PUSH1 0x20 ADD SWAP1 DUP2 MSTORE PUSH1 0x20 ADD PUSH0 KECCAK256 SLOAD PUSH2 0x3B2B SWAP2 SWAP1 PUSH2 0x69F5 JUMP JUMPDEST PUSH1 0xE PUSH0 DUP12 PUSH20 0xFFFFFFFFFFFFFFFFFFFFFFFFFFFFFFFFFFFFFFFF AND PUSH20 0xFFFFFFFFFFFFFFFFFFFFFFFFFFFFFFFFFFFFFFFF AND DUP2 MSTORE PUSH1 0x20 ADD SWAP1 DUP2 MSTORE PUSH1 0x20 ADD PUSH0 KECCAK256 DUP2 SWAP1 SSTORE POP DUP9 PUSH20 0xFFFFFFFFFFFFFFFFFFFFFFFFFFFFFFFFFFFFFFFF AND DUP9 PUSH20 0xFFFFFFFFFFFFFFFFFFFFFFFFFFFFFFFFFFFFFFFF AND PUSH32 0xDDF252AD1BE2C89B69C2B068FC378DAA952BA7F163C4A11628F55A4DF523B3EF DUP7 PUSH1 0x40 MLOAD PUSH2 0x3BC9 SWAP2 SWAP1 PUSH2 0x57FE JUMP JUMPDEST PUSH1 0x40 MLOAD DUP1 SWAP2 SUB SWAP1 LOG3 ADDRESS PUSH20 0xFFFFFFFFFFFFFFFFFFFFFFFFFFFFFFFFFFFFFFFF AND DUP9 PUSH20 0xFFFFFFFFFFFFFFFFFFFFFFFFFFFFFFFFFFFFFFFF AND PUSH32 0xDDF252AD1BE2C89B69C2B068FC378DAA952BA7F163C4A11628F55A4DF523B3EF DUP8 PUSH1 0x40 MLOAD PUSH2 0x3C2E SWAP2 SWAP1 PUSH2 0x57FE JUMP JUMPDEST PUSH1 0x40 MLOAD DUP1 SWAP2 SUB SWAP1 LOG3 PUSH32 0xA91E67C5EA634CD43A12C5A482724B03DE01E85CA68702A53D0C2F45CB7C1DC5 ADDRESS DUP4 DUP4 PUSH1 0x40 MLOAD PUSH2 0x3C69 SWAP4 SWAP3 SWAP2 SWAP1 PUSH2 0x6EE6 JUMP JUMPDEST PUSH1 0x40 MLOAD DUP1 SWAP2 SUB SWAP1 LOG1 POP POP POP POP POP POP POP POP POP POP JUMP JUMPDEST PUSH0 PUSH0 SWAP1 SLOAD SWAP1 PUSH2 0x100 EXP SWAP1 DIV PUSH1 0xFF AND PUSH2 0x3CCA JUMPI PUSH1 0x40 MLOAD PUSH32 0x8C379A000000000000000000000000000000000000000000000000000000000 DUP2 MSTORE PUSH1 0x4 ADD PUSH2 0x3CC1 SWAP1 PUSH2 0x6032 JUMP JUMPDEST PUSH1 0x40 MLOAD DUP1 SWAP2 SUB SWAP1 REVERT JUMPDEST PUSH0 PUSH0 PUSH0 PUSH2 0x100 EXP DUP2 SLOAD DUP2 PUSH1 0xFF MUL NOT AND SWAP1 DUP4 ISZERO ISZERO MUL OR SWAP1 SSTORE POP PUSH2 0x3CEA PUSH2 0x1B74 JUMP JUMPDEST POP PUSH2 0x3CF5 CALLER DUP3 PUSH2 0x4B68 JUMP JUMPDEST PUSH1 0x1 PUSH0 PUSH0 PUSH2 0x100 EXP DUP2 SLOAD DUP2 PUSH1 0xFF MUL NOT AND SWAP1 DUP4 ISZERO ISZERO MUL OR SWAP1 SSTORE POP POP JUMP JUMPDEST PUSH0 PUSH0 SWAP1 SLOAD SWAP1 PUSH2 0x100 EXP SWAP1 DIV PUSH1 0xFF AND PUSH2 0x3D5E JUMPI PUSH1 0x40 MLOAD PUSH32 0x8C379A000000000000000000000000000000000000000000000000000000000 DUP2 MSTORE PUSH1 0x4 ADD PUSH2 0x3D55 SWAP1 PUSH2 0x6032 JUMP JUMPDEST PUSH1 0x40 MLOAD DUP1 SWAP2 SUB SWAP1 REVERT JUMPDEST PUSH0 PUSH0 PUSH0 PUSH2 0x100 EXP DUP2 SLOAD DUP2 PUSH1 0xFF MUL NOT AND SWAP1 DUP4 ISZERO ISZERO MUL OR SWAP1 SSTORE POP PUSH2 0x3D7E PUSH2 0x1B74 JUMP JUMPDEST POP PUSH2 0x3D8A CALLER DUP3 PUSH0 PUSH2 0x449C JUMP JUMPDEST PUSH1 0x1 PUSH0 PUSH0 PUSH2 0x100 EXP DUP2 SLOAD DUP2 PUSH1 0xFF MUL NOT AND SWAP1 DUP4 ISZERO ISZERO MUL OR SWAP1 SSTORE POP POP JUMP JUMPDEST PUSH0 PUSH0 SWAP1 SLOAD SWAP1 PUSH2 0x100 EXP SWAP1 DIV PUSH1 0xFF AND PUSH2 0x3DF3 JUMPI PUSH1 0x40 MLOAD PUSH32 0x8C379A000000000000000000000000000000000000000000000000000000000 DUP2 MSTORE PUSH1 0x4 ADD PUSH2 0x3DEA SWAP1 PUSH2 0x6032 JUMP JUMPDEST PUSH1 0x40 MLOAD DUP1 SWAP2 SUB SWAP1 REVERT JUMPDEST PUSH0 PUSH0 PUSH0 PUSH2 0x100 EXP DUP2 SLOAD DUP2 PUSH1 0xFF MUL NOT AND SWAP1 DUP4 ISZERO ISZERO MUL OR SWAP1 SSTORE POP PUSH2 0x3E13 PUSH2 0x1B74 JUMP JUMPDEST POP PUSH0 DUP2 PUSH20 0xFFFFFFFFFFFFFFFFFFFFFFFFFFFFFFFFFFFFFFFF AND PUSH4 0xA6AFED95 PUSH1 0x40 MLOAD DUP2 PUSH4 0xFFFFFFFF AND PUSH1 0xE0 SHL DUP2 MSTORE PUSH1 0x4 ADD PUSH1 0x20 PUSH1 0x40 MLOAD DUP1 DUP4 SUB DUP2 PUSH0 DUP8 GAS CALL ISZERO DUP1 ISZERO PUSH2 0x3E5F JUMPI RETURNDATASIZE PUSH0 PUSH0 RETURNDATACOPY RETURNDATASIZE PUSH0 REVERT JUMPDEST POP POP POP POP PUSH1 0x40 MLOAD RETURNDATASIZE PUSH1 0x1F NOT PUSH1 0x1F DUP3 ADD AND DUP3 ADD DUP1 PUSH1 0x40 MSTORE POP DUP2 ADD SWAP1 PUSH2 0x3E83 SWAP2 SWAP1 PUSH2 0x6180 JUMP JUMPDEST SWAP1 POP PUSH0 DUP2 EQ PUSH2 0x3EC9 JUMPI DUP1 PUSH1 0x40 MLOAD PUSH32 0x7DD4936E00000000000000000000000000000000000000000000000000000000 DUP2 MSTORE PUSH1 0x4 ADD PUSH2 0x3EC0 SWAP2 SWAP1 PUSH2 0x57FE JUMP JUMPDEST PUSH1 0x40 MLOAD DUP1 SWAP2 SUB SWAP1 REVERT JUMPDEST PUSH2 0x3ED5 CALLER DUP6 DUP6 DUP6 PUSH2 0x4DDD JUMP JUMPDEST POP PUSH1 0x1 PUSH0 PUSH0 PUSH2 0x100 EXP DUP2 SLOAD DUP2 PUSH1 0xFF MUL NOT AND SWAP1 DUP4 ISZERO ISZERO MUL OR SWAP1 SSTORE POP POP POP POP JUMP JUMPDEST PUSH0 PUSH1 0x3 PUSH1 0x1 SWAP1 SLOAD SWAP1 PUSH2 0x100 EXP SWAP1 DIV PUSH20 0xFFFFFFFFFFFFFFFFFFFFFFFFFFFFFFFFFFFFFFFF AND PUSH20 0xFFFFFFFFFFFFFFFFFFFFFFFFFFFFFFFFFFFFFFFF AND CALLER PUSH20 0xFFFFFFFFFFFFFFFFFFFFFFFFFFFFFFFFFFFFFFFF AND EQ PUSH2 0x3F7C JUMPI PUSH1 0x40 MLOAD PUSH32 0x240B6AF600000000000000000000000000000000000000000000000000000000 DUP2 MSTORE PUSH1 0x4 ADD PUSH1 0x40 MLOAD DUP1 SWAP2 SUB SWAP1 REVERT JUMPDEST PUSH2 0x3F84 PUSH2 0x33FA JUMP JUMPDEST PUSH1 0x9 SLOAD EQ PUSH2 0x3FBE JUMPI PUSH1 0x40 MLOAD PUSH32 0xFBF94D6E00000000000000000000000000000000000000000000000000000000 DUP2 MSTORE PUSH1 0x4 ADD PUSH1 0x40 MLOAD DUP1 SWAP2 SUB SWAP1 REVERT JUMPDEST PUSH8 0xDE0B6B3A7640000 DUP3 GT ISZERO PUSH2 0x4000 JUMPI PUSH1 0x40 MLOAD PUSH32 0xE2E441E600000000000000000000000000000000000000000000000000000000 DUP2 MSTORE PUSH1 0x4 ADD PUSH1 0x40 MLOAD DUP1 SWAP2 SUB SWAP1 REVERT JUMPDEST PUSH0 PUSH1 0x8 SLOAD SWAP1 POP DUP3 PUSH1 0x8 DUP2 SWAP1 SSTORE POP PUSH32 0xAAA68312E2EA9D50E16AF5068410AB56E1A1FD06037B1A35664812C30F821460 DUP2 DUP5 PUSH1 0x40 MLOAD PUSH2 0x403E SWAP3 SWAP2 SWAP1 PUSH2 0x6F1B JUMP JUMPDEST PUSH1 0x40 MLOAD DUP1 SWAP2 SUB SWAP1 LOG1 PUSH0 SWAP2 POP POP SWAP2 SWAP1 POP JUMP JUMPDEST PUSH0 PUSH0 PUSH1 0x5 PUSH0 SWAP1 SLOAD SWAP1 PUSH2 0x100 EXP SWAP1 DIV PUSH20 0xFFFFFFFFFFFFFFFFFFFFFFFFFFFFFFFFFFFFFFFF AND PUSH20 0xFFFFFFFFFFFFFFFFFFFFFFFFFFFFFFFFFFFFFFFF AND PUSH4 0x24008A62 ADDRESS DUP8 DUP8 DUP8 PUSH1 0x40 MLOAD DUP6 PUSH4 0xFFFFFFFF AND PUSH1 0xE0 SHL DUP2 MSTORE PUSH1 0x4 ADD PUSH2 0x40B1 SWAP5 SWAP4 SWAP3 SWAP2 SWAP1 PUSH2 0x6D00 JUMP JUMPDEST PUSH1 0x20 PUSH1 0x40 MLOAD DUP1 DUP4 SUB DUP2 PUSH0 DUP8 GAS CALL ISZERO DUP1 ISZERO PUSH2 0x40CD JUMPI RETURNDATASIZE PUSH0 PUSH0 RETURNDATACOPY RETURNDATASIZE PUSH0 REVERT JUMPDEST POP POP POP POP PUSH1 0x40 MLOAD RETURNDATASIZE PUSH1 0x1F NOT PUSH1 0x1F DUP3 ADD AND DUP3 ADD DUP1 PUSH1 0x40 MSTORE POP DUP2 ADD SWAP1 PUSH2 0x40F1 SWAP2 SWAP1 PUSH2 0x6180 JUMP JUMPDEST SWAP1 POP PUSH0 DUP2 EQ PUSH2 0x4137 JUMPI DUP1 PUSH1 0x40 MLOAD PUSH32 0x8C81362D00000000000000000000000000000000000000000000000000000000 DUP2 MSTORE PUSH1 0x4 ADD PUSH2 0x412E SWAP2 SWAP1 PUSH2 0x57FE JUMP JUMPDEST PUSH1 0x40 MLOAD DUP1 SWAP2 SUB SWAP1 REVERT JUMPDEST PUSH2 0x413F PUSH2 0x33FA JUMP JUMPDEST PUSH1 0x9 SLOAD EQ PUSH2 0x4179 JUMPI PUSH1 0x40 MLOAD PUSH32 0xC9021E2F00000000000000000000000000000000000000000000000000000000 DUP2 MSTORE PUSH1 0x4 ADD PUSH1 0x40 MLOAD DUP1 SWAP2 SUB SWAP1 REVERT JUMPDEST PUSH0 PUSH2 0x4183 DUP6 PUSH2 0x3378 JUMP JUMPDEST SWAP1 POP PUSH0 PUSH32 0xFFFFFFFFFFFFFFFFFFFFFFFFFFFFFFFFFFFFFFFFFFFFFFFFFFFFFFFFFFFFFFFF DUP6 EQ PUSH2 0x41B3 JUMPI DUP5 PUSH2 0x41B5 JUMP JUMPDEST DUP2 JUMPDEST SWAP1 POP PUSH0 PUSH2 0x41C2 DUP9 DUP4 PUSH2 0x53A3 JUMP JUMPDEST SWAP1 POP PUSH0 DUP2 DUP5 PUSH2 0x41D1 SWAP2 SWAP1 PUSH2 0x69C2 JUMP JUMPDEST SWAP1 POP PUSH0 DUP3 PUSH1 0xB SLOAD PUSH2 0x41E2 SWAP2 SWAP1 PUSH2 0x69C2 JUMP JUMPDEST SWAP1 POP DUP2 PUSH1 0x10 PUSH0 DUP12 PUSH20 0xFFFFFFFFFFFFFFFFFFFFFFFFFFFFFFFFFFFFFFFF AND PUSH20 0xFFFFFFFFFFFFFFFFFFFFFFFFFFFFFFFFFFFFFFFF AND DUP2 MSTORE PUSH1 0x20 ADD SWAP1 DUP2 MSTORE PUSH1 0x20 ADD PUSH0 KECCAK256 PUSH0 ADD DUP2 SWAP1 SSTORE POP PUSH1 0xA SLOAD PUSH1 0x10 PUSH0 DUP12 PUSH20 0xFFFFFFFFFFFFFFFFFFFFFFFFFFFFFFFFFFFFFFFF AND PUSH20 0xFFFFFFFFFFFFFFFFFFFFFFFFFFFFFFFFFFFFFFFF AND DUP2 MSTORE PUSH1 0x20 ADD SWAP1 DUP2 MSTORE PUSH1 0x20 ADD PUSH0 KECCAK256 PUSH1 0x1 ADD DUP2 SWAP1 SSTORE POP DUP1 PUSH1 0xB DUP2 SWAP1 SSTORE POP PUSH32 0x1A2A22CB034D26D1854BDC6666A5B91FE25EFBBB5DCAD3B0355478D6F5C362A1 DUP11 DUP11 DUP6 DUP6 DUP6 PUSH1 0x40 MLOAD PUSH2 0x42AD SWAP6 SWAP5 SWAP4 SWAP3 SWAP2 SWAP1 PUSH2 0x6F42 JUMP JUMPDEST PUSH1 0x40 MLOAD DUP1 SWAP2 SUB SWAP1 LOG1 DUP3 SWAP7 POP POP POP POP POP POP POP SWAP4 SWAP3 POP POP POP JUMP JUMPDEST PUSH0 PUSH8 0xDE0B6B3A7640000 DUP3 PUSH0 ADD MLOAD PUSH2 0x42DD SWAP2 SWAP1 PUSH2 0x6CD0 JUMP JUMPDEST SWAP1 POP SWAP2 SWAP1 POP JUMP JUMPDEST PUSH0 PUSH0 PUSH0 PUSH0 PUSH2 0x42F0 PUSH2 0x33FA JUMP JUMPDEST PUSH1 0x9 SLOAD EQ PUSH2 0x4335 JUMPI DUP1 PUSH1 0x40 MLOAD PUSH32 0x38ACF79900000000000000000000000000000000000000000000000000000000 DUP2 MSTORE PUSH1 0x4 ADD PUSH2 0x432C SWAP2 SWAP1 PUSH2 0x57FE JUMP JUMPDEST PUSH1 0x40 MLOAD DUP1 SWAP2 SUB SWAP1 REVERT JUMPDEST PUSH2 0x433F CALLER DUP7 PUSH2 0x53A3 JUMP JUMPDEST SWAP1 POP DUP1 PUSH1 0xC SLOAD PUSH2 0x434F SWAP2 SWAP1 PUSH2 0x69F5 JUMP JUMPDEST SWAP2 POP DUP2 PUSH1 0xC DUP2 SWAP1 SSTORE POP PUSH32 0xA91E67C5EA634CD43A12C5A482724B03DE01E85CA68702A53D0C2F45CB7C1DC5 CALLER DUP3 DUP5 PUSH1 0x40 MLOAD PUSH2 0x438B SWAP4 SWAP3 SWAP2 SWAP1 PUSH2 0x6EE6 JUMP JUMPDEST PUSH1 0x40 MLOAD DUP1 SWAP2 SUB SWAP1 LOG1 PUSH0 DUP2 SWAP4 POP SWAP4 POP POP POP SWAP2 POP SWAP2 JUMP JUMPDEST PUSH0 PUSH1 0x11 PUSH0 SWAP1 SLOAD SWAP1 PUSH2 0x100 EXP SWAP1 DIV PUSH20 0xFFFFFFFFFFFFFFFFFFFFFFFFFFFFFFFFFFFFFFFF AND SWAP1 POP DUP1 PUSH20 0xFFFFFFFFFFFFFFFFFFFFFFFFFFFFFFFFFFFFFFFF AND PUSH4 0xA9059CBB DUP5 DUP5 PUSH1 0x40 MLOAD DUP4 PUSH4 0xFFFFFFFF AND PUSH1 0xE0 SHL DUP2 MSTORE PUSH1 0x4 ADD PUSH2 0x4400 SWAP3 SWAP2 SWAP1 PUSH2 0x61CB JUMP JUMPDEST PUSH0 PUSH1 0x40 MLOAD DUP1 DUP4 SUB DUP2 PUSH0 DUP8 DUP1 EXTCODESIZE ISZERO DUP1 ISZERO PUSH2 0x4417 JUMPI PUSH0 PUSH0 REVERT JUMPDEST POP GAS CALL ISZERO DUP1 ISZERO PUSH2 0x4429 JUMPI RETURNDATASIZE PUSH0 PUSH0 RETURNDATACOPY RETURNDATASIZE PUSH0 REVERT JUMPDEST POP POP POP POP PUSH0 RETURNDATASIZE PUSH0 DUP2 EQ PUSH2 0x4442 JUMPI PUSH1 0x20 DUP2 EQ PUSH2 0x444B JUMPI PUSH0 PUSH0 REVERT JUMPDEST PUSH0 NOT SWAP2 POP PUSH2 0x4455 JUMP JUMPDEST PUSH1 0x20 PUSH0 PUSH0 RETURNDATACOPY PUSH0 MLOAD SWAP2 POP JUMPDEST POP DUP1 PUSH2 0x4496 JUMPI PUSH1 0x40 MLOAD PUSH32 0x8C379A000000000000000000000000000000000000000000000000000000000 DUP2 MSTORE PUSH1 0x4 ADD PUSH2 0x448D SWAP1 PUSH2 0x6FDD JUMP JUMPDEST PUSH1 0x40 MLOAD DUP1 SWAP2 SUB SWAP1 REVERT JUMPDEST POP POP POP POP JUMP JUMPDEST PUSH0 DUP3 EQ DUP1 PUSH2 0x44A9 JUMPI POP PUSH0 DUP2 EQ JUMPDEST PUSH2 0x44E8 JUMPI PUSH1 0x40 MLOAD PUSH32 0x8C379A000000000000000000000000000000000000000000000000000000000 DUP2 MSTORE PUSH1 0x4 ADD PUSH2 0x44DF SWAP1 PUSH2 0x706B JUMP JUMPDEST PUSH1 0x40 MLOAD DUP1 SWAP2 SUB SWAP1 REVERT JUMPDEST PUSH0 PUSH1 0x40 MLOAD DUP1 PUSH1 0x20 ADD PUSH1 0x40 MSTORE DUP1 PUSH2 0x44FC PUSH2 0x2A20 JUMP JUMPDEST DUP2 MSTORE POP SWAP1 POP PUSH0 PUSH0 PUSH0 DUP6 GT ISZERO PUSH2 0x451F JUMPI DUP5 SWAP2 POP PUSH2 0x4518 DUP4 DUP7 PUSH2 0x2F93 JUMP JUMPDEST SWAP1 POP PUSH2 0x452F JUMP JUMPDEST PUSH2 0x4529 DUP5 DUP5 PUSH2 0x55AF JUMP JUMPDEST SWAP2 POP DUP4 SWAP1 POP JUMPDEST PUSH0 PUSH1 0x5 PUSH0 SWAP1 SLOAD SWAP1 PUSH2 0x100 EXP SWAP1 DIV PUSH20 0xFFFFFFFFFFFFFFFFFFFFFFFFFFFFFFFFFFFFFFFF AND PUSH20 0xFFFFFFFFFFFFFFFFFFFFFFFFFFFFFFFFFFFFFFFF AND PUSH4 0xEABE7D91 ADDRESS DUP10 DUP7 PUSH1 0x40 MLOAD DUP5 PUSH4 0xFFFFFFFF AND PUSH1 0xE0 SHL DUP2 MSTORE PUSH1 0x4 ADD PUSH2 0x458E SWAP4 SWAP3 SWAP2 SWAP1 PUSH2 0x7089 JUMP JUMPDEST PUSH1 0x20 PUSH1 0x40 MLOAD DUP1 DUP4 SUB DUP2 PUSH0 DUP8 GAS CALL ISZERO DUP1 ISZERO PUSH2 0x45AA JUMPI RETURNDATASIZE PUSH0 PUSH0 RETURNDATACOPY RETURNDATASIZE PUSH0 REVERT JUMPDEST POP POP POP POP PUSH1 0x40 MLOAD RETURNDATASIZE PUSH1 0x1F NOT PUSH1 0x1F DUP3 ADD AND DUP3 ADD DUP1 PUSH1 0x40 MSTORE POP DUP2 ADD SWAP1 PUSH2 0x45CE SWAP2 SWAP1 PUSH2 0x6180 JUMP JUMPDEST SWAP1 POP PUSH0 DUP2 EQ PUSH2 0x4614 JUMPI DUP1 PUSH1 0x40 MLOAD PUSH32 0x480F424700000000000000000000000000000000000000000000000000000000 DUP2 MSTORE PUSH1 0x4 ADD PUSH2 0x460B SWAP2 SWAP1 PUSH2 0x57FE JUMP JUMPDEST PUSH1 0x40 MLOAD DUP1 SWAP2 SUB SWAP1 REVERT JUMPDEST PUSH2 0x461C PUSH2 0x33FA JUMP JUMPDEST PUSH1 0x9 SLOAD EQ PUSH2 0x4656 JUMPI PUSH1 0x40 MLOAD PUSH32 0x97B5CFCD00000000000000000000000000000000000000000000000000000000 DUP2 MSTORE PUSH1 0x4 ADD PUSH1 0x40 MLOAD DUP1 SWAP2 SUB SWAP1 REVERT JUMPDEST DUP2 PUSH2 0x465F PUSH2 0x2FB3 JUMP JUMPDEST LT ISZERO PUSH2 0x4697 JUMPI PUSH1 0x40 MLOAD PUSH32 0x91240A1B00000000000000000000000000000000000000000000000000000000 DUP2 MSTORE PUSH1 0x4 ADD PUSH1 0x40 MLOAD DUP1 SWAP2 SUB SWAP1 REVERT JUMPDEST DUP3 PUSH1 0xD SLOAD PUSH2 0x46A5 SWAP2 SWAP1 PUSH2 0x69C2 JUMP JUMPDEST PUSH1 0xD DUP2 SWAP1 SSTORE POP DUP3 PUSH1 0xE PUSH0 DUP10 PUSH20 0xFFFFFFFFFFFFFFFFFFFFFFFFFFFFFFFFFFFFFFFF AND PUSH20 0xFFFFFFFFFFFFFFFFFFFFFFFFFFFFFFFFFFFFFFFF AND DUP2 MSTORE PUSH1 0x20 ADD SWAP1 DUP2 MSTORE PUSH1 0x20 ADD PUSH0 KECCAK256 SLOAD PUSH2 0x46F4 SWAP2 SWAP1 PUSH2 0x69C2 JUMP JUMPDEST PUSH1 0xE PUSH0 DUP10 PUSH20 0xFFFFFFFFFFFFFFFFFFFFFFFFFFFFFFFFFFFFFFFF AND PUSH20 0xFFFFFFFFFFFFFFFFFFFFFFFFFFFFFFFFFFFFFFFF AND DUP2 MSTORE PUSH1 0x20 ADD SWAP1 DUP2 MSTORE PUSH1 0x20 ADD PUSH0 KECCAK256 DUP2 SWAP1 SSTORE POP PUSH2 0x473F DUP8 DUP4 PUSH2 0x43A0 JUMP JUMPDEST ADDRESS PUSH20 0xFFFFFFFFFFFFFFFFFFFFFFFFFFFFFFFFFFFFFFFF AND DUP8 PUSH20 0xFFFFFFFFFFFFFFFFFFFFFFFFFFFFFFFFFFFFFFFF AND PUSH32 0xDDF252AD1BE2C89B69C2B068FC378DAA952BA7F163C4A11628F55A4DF523B3EF DUP6 PUSH1 0x40 MLOAD PUSH2 0x479C SWAP2 SWAP1 PUSH2 0x57FE JUMP JUMPDEST PUSH1 0x40 MLOAD DUP1 SWAP2 SUB SWAP1 LOG3 PUSH32 0xE5B754FB1ABB7F01B499791D0B820AE3B6AF3424AC1C59768EDB53F4EC31A929 DUP8 DUP4 DUP6 PUSH1 0x40 MLOAD PUSH2 0x47D7 SWAP4 SWAP3 SWAP2 SWAP1 PUSH2 0x6D43 JUMP JUMPDEST PUSH1 0x40 MLOAD DUP1 SWAP2 SUB SWAP1 LOG1 PUSH1 0x5 PUSH0 SWAP1 SLOAD SWAP1 PUSH2 0x100 EXP SWAP1 DIV PUSH20 0xFFFFFFFFFFFFFFFFFFFFFFFFFFFFFFFFFFFFFFFF AND PUSH20 0xFFFFFFFFFFFFFFFFFFFFFFFFFFFFFFFFFFFFFFFF AND PUSH4 0x51DFF989 ADDRESS DUP10 DUP6 DUP8 PUSH1 0x40 MLOAD DUP6 PUSH4 0xFFFFFFFF AND PUSH1 0xE0 SHL DUP2 MSTORE PUSH1 0x4 ADD PUSH2 0x483F SWAP5 SWAP4 SWAP3 SWAP2 SWAP1 PUSH2 0x70BE JUMP JUMPDEST PUSH0 PUSH1 0x40 MLOAD DUP1 DUP4 SUB DUP2 PUSH0 DUP8 DUP1 EXTCODESIZE ISZERO DUP1 ISZERO PUSH2 0x4856 JUMPI PUSH0 PUSH0 REVERT JUMPDEST POP GAS CALL ISZERO DUP1 ISZERO PUSH2 0x4868 JUMPI RETURNDATASIZE PUSH0 PUSH0 RETURNDATACOPY RETURNDATASIZE PUSH0 REVERT JUMPDEST POP POP POP POP POP POP POP POP POP POP POP JUMP JUMPDEST PUSH0 PUSH1 0x5 PUSH0 SWAP1 SLOAD SWAP1 PUSH2 0x100 EXP SWAP1 DIV PUSH20 0xFFFFFFFFFFFFFFFFFFFFFFFFFFFFFFFFFFFFFFFF AND PUSH20 0xFFFFFFFFFFFFFFFFFFFFFFFFFFFFFFFFFFFFFFFF AND PUSH4 0x4EF4C3E1 ADDRESS DUP6 DUP6 PUSH1 0x40 MLOAD DUP5 PUSH4 0xFFFFFFFF AND PUSH1 0xE0 SHL DUP2 MSTORE PUSH1 0x4 ADD PUSH2 0x48D4 SWAP4 SWAP3 SWAP2 SWAP1 PUSH2 0x7101 JUMP JUMPDEST PUSH1 0x20 PUSH1 0x40 MLOAD DUP1 DUP4 SUB DUP2 PUSH0 DUP8 GAS CALL ISZERO DUP1 ISZERO PUSH2 0x48F0 JUMPI RETURNDATASIZE PUSH0 PUSH0 RETURNDATACOPY RETURNDATASIZE PUSH0 REVERT JUMPDEST POP POP POP POP PUSH1 0x40 MLOAD RETURNDATASIZE PUSH1 0x1F NOT PUSH1 0x1F DUP3 ADD AND DUP3 ADD DUP1 PUSH1 0x40 MSTORE POP DUP2 ADD SWAP1 PUSH2 0x4914 SWAP2 SWAP1 PUSH2 0x6180 JUMP JUMPDEST SWAP1 POP PUSH0 DUP2 EQ PUSH2 0x495A JUMPI DUP1 PUSH1 0x40 MLOAD PUSH32 0x49ABD4FD00000000000000000000000000000000000000000000000000000000 DUP2 MSTORE PUSH1 0x4 ADD PUSH2 0x4951 SWAP2 SWAP1 PUSH2 0x57FE JUMP JUMPDEST PUSH1 0x40 MLOAD DUP1 SWAP2 SUB SWAP1 REVERT JUMPDEST PUSH2 0x4962 PUSH2 0x33FA JUMP JUMPDEST PUSH1 0x9 SLOAD EQ PUSH2 0x499C JUMPI PUSH1 0x40 MLOAD PUSH32 0x38D8859700000000000000000000000000000000000000000000000000000000 DUP2 MSTORE PUSH1 0x4 ADD PUSH1 0x40 MLOAD DUP1 SWAP2 SUB SWAP1 REVERT JUMPDEST PUSH0 PUSH1 0x40 MLOAD DUP1 PUSH1 0x20 ADD PUSH1 0x40 MSTORE DUP1 PUSH2 0x49B0 PUSH2 0x2A20 JUMP JUMPDEST DUP2 MSTORE POP SWAP1 POP PUSH0 PUSH2 0x49C0 DUP6 DUP6 PUSH2 0x53A3 JUMP JUMPDEST SWAP1 POP PUSH0 PUSH2 0x49CD DUP3 DUP5 PUSH2 0x55AF JUMP JUMPDEST SWAP1 POP DUP1 PUSH1 0xD SLOAD PUSH2 0x49DD SWAP2 SWAP1 PUSH2 0x69F5 JUMP JUMPDEST PUSH1 0xD DUP2 SWAP1 SSTORE POP DUP1 PUSH1 0xE PUSH0 DUP9 PUSH20 0xFFFFFFFFFFFFFFFFFFFFFFFFFFFFFFFFFFFFFFFF AND PUSH20 0xFFFFFFFFFFFFFFFFFFFFFFFFFFFFFFFFFFFFFFFF AND DUP2 MSTORE PUSH1 0x20 ADD SWAP1 DUP2 MSTORE PUSH1 0x20 ADD PUSH0 KECCAK256 SLOAD PUSH2 0x4A2C SWAP2 SWAP1 PUSH2 0x69F5 JUMP JUMPDEST PUSH1 0xE PUSH0 DUP9 PUSH20 0xFFFFFFFFFFFFFFFFFFFFFFFFFFFFFFFFFFFFFFFF AND PUSH20 0xFFFFFFFFFFFFFFFFFFFFFFFFFFFFFFFFFFFFFFFF AND DUP2 MSTORE PUSH1 0x20 ADD SWAP1 DUP2 MSTORE PUSH1 0x20 ADD PUSH0 KECCAK256 DUP2 SWAP1 SSTORE POP PUSH32 0x4C209B5FC8AD50758F13E2E1088BA56A560DFF690A1C6FEF26394F4C03821C4F DUP7 DUP4 DUP4 PUSH1 0x40 MLOAD PUSH2 0x4AA0 SWAP4 SWAP3 SWAP2 SWAP1 PUSH2 0x6EE6 JUMP JUMPDEST PUSH1 0x40 MLOAD DUP1 SWAP2 SUB SWAP1 LOG1 DUP6 PUSH20 0xFFFFFFFFFFFFFFFFFFFFFFFFFFFFFFFFFFFFFFFF AND ADDRESS PUSH20 0xFFFFFFFFFFFFFFFFFFFFFFFFFFFFFFFFFFFFFFFF AND PUSH32 0xDDF252AD1BE2C89B69C2B068FC378DAA952BA7F163C4A11628F55A4DF523B3EF DUP4 PUSH1 0x40 MLOAD PUSH2 0x4B05 SWAP2 SWAP1 PUSH2 0x57FE JUMP JUMPDEST PUSH1 0x40 MLOAD DUP1 SWAP2 SUB SWAP1 LOG3 POP POP POP POP POP POP JUMP JUMPDEST PUSH0 DUP2 DUP4 PUSH2 0x4B22 SWAP2 SWAP1 PUSH2 0x6C62 JUMP JUMPDEST SWAP1 POP SWAP3 SWAP2 POP POP JUMP JUMPDEST PUSH0 DUP2 DUP4 PUSH2 0x4B37 SWAP2 SWAP1 PUSH2 0x69F5 JUMP JUMPDEST SWAP1 POP SWAP3 SWAP2 POP POP JUMP JUMPDEST PUSH0 PUSH8 0xDE0B6B3A7640000 PUSH2 0x4B56 DUP5 DUP5 PUSH0 ADD MLOAD PUSH2 0x4B15 JUMP JUMPDEST PUSH2 0x4B60 SWAP2 SWAP1 PUSH2 0x6CD0 JUMP JUMPDEST SWAP1 POP SWAP3 SWAP2 POP POP JUMP JUMPDEST PUSH0 PUSH1 0x5 PUSH0 SWAP1 SLOAD SWAP1 PUSH2 0x100 EXP SWAP1 DIV PUSH20 0xFFFFFFFFFFFFFFFFFFFFFFFFFFFFFFFFFFFFFFFF AND PUSH20 0xFFFFFFFFFFFFFFFFFFFFFFFFFFFFFFFFFFFFFFFF AND PUSH4 0xDA3D454C ADDRESS DUP6 DUP6 PUSH1 0x40 MLOAD DUP5 PUSH4 0xFFFFFFFF AND PUSH1 0xE0 SHL DUP2 MSTORE PUSH1 0x4 ADD PUSH2 0x4BC7 SWAP4 SWAP3 SWAP2 SWAP1 PUSH2 0x7089 JUMP JUMPDEST PUSH1 0x20 PUSH1 0x40 MLOAD DUP1 DUP4 SUB DUP2 PUSH0 DUP8 GAS CALL ISZERO DUP1 ISZERO PUSH2 0x4BE3 JUMPI RETURNDATASIZE PUSH0 PUSH0 RETURNDATACOPY RETURNDATASIZE PUSH0 REVERT JUMPDEST POP POP POP POP PUSH1 0x40 MLOAD RETURNDATASIZE PUSH1 0x1F NOT PUSH1 0x1F DUP3 ADD AND DUP3 ADD DUP1 PUSH1 0x40 MSTORE POP DUP2 ADD SWAP1 PUSH2 0x4C07 SWAP2 SWAP1 PUSH2 0x6180 JUMP JUMPDEST SWAP1 POP PUSH0 DUP2 EQ PUSH2 0x4C4D JUMPI DUP1 PUSH1 0x40 MLOAD PUSH32 0x918DB40F00000000000000000000000000000000000000000000000000000000 DUP2 MSTORE PUSH1 0x4 ADD PUSH2 0x4C44 SWAP2 SWAP1 PUSH2 0x57FE JUMP JUMPDEST PUSH1 0x40 MLOAD DUP1 SWAP2 SUB SWAP1 REVERT JUMPDEST PUSH2 0x4C55 PUSH2 0x33FA JUMP JUMPDEST PUSH1 0x9 SLOAD EQ PUSH2 0x4C8F JUMPI PUSH1 0x40 MLOAD PUSH32 0x3A36318400000000000000000000000000000000000000000000000000000000 DUP2 MSTORE PUSH1 0x4 ADD PUSH1 0x40 MLOAD DUP1 SWAP2 SUB SWAP1 REVERT JUMPDEST DUP2 PUSH2 0x4C98 PUSH2 0x2FB3 JUMP JUMPDEST LT ISZERO PUSH2 0x4CD0 JUMPI PUSH1 0x40 MLOAD PUSH32 0x48C2588100000000000000000000000000000000000000000000000000000000 DUP2 MSTORE PUSH1 0x4 ADD PUSH1 0x40 MLOAD DUP1 SWAP2 SUB SWAP1 REVERT JUMPDEST PUSH0 PUSH2 0x4CDA DUP5 PUSH2 0x3378 JUMP JUMPDEST SWAP1 POP PUSH0 DUP4 DUP3 PUSH2 0x4CE9 SWAP2 SWAP1 PUSH2 0x69F5 JUMP JUMPDEST SWAP1 POP PUSH0 DUP5 PUSH1 0xB SLOAD PUSH2 0x4CFA SWAP2 SWAP1 PUSH2 0x69F5 JUMP JUMPDEST SWAP1 POP DUP2 PUSH1 0x10 PUSH0 DUP9 PUSH20 0xFFFFFFFFFFFFFFFFFFFFFFFFFFFFFFFFFFFFFFFF AND PUSH20 0xFFFFFFFFFFFFFFFFFFFFFFFFFFFFFFFFFFFFFFFF AND DUP2 MSTORE PUSH1 0x20 ADD SWAP1 DUP2 MSTORE PUSH1 0x20 ADD PUSH0 KECCAK256 PUSH0 ADD DUP2 SWAP1 SSTORE POP PUSH1 0xA SLOAD PUSH1 0x10 PUSH0 DUP9 PUSH20 0xFFFFFFFFFFFFFFFFFFFFFFFFFFFFFFFFFFFFFFFF AND PUSH20 0xFFFFFFFFFFFFFFFFFFFFFFFFFFFFFFFFFFFFFFFF AND DUP2 MSTORE PUSH1 0x20 ADD SWAP1 DUP2 MSTORE PUSH1 0x20 ADD PUSH0 KECCAK256 PUSH1 0x1 ADD DUP2 SWAP1 SSTORE POP DUP1 PUSH1 0xB DUP2 SWAP1 SSTORE POP PUSH2 0x4D98 DUP7 DUP7 PUSH2 0x43A0 JUMP JUMPDEST PUSH32 0x13ED6866D4E1EE6DA46F845C46D7E54120883D75C5EA9A2DACC1C4CA8984AB80 DUP7 DUP7 DUP5 DUP5 PUSH1 0x40 MLOAD PUSH2 0x4DCD SWAP5 SWAP4 SWAP3 SWAP2 SWAP1 PUSH2 0x7136 JUMP JUMPDEST PUSH1 0x40 MLOAD DUP1 SWAP2 SUB SWAP1 LOG1 POP POP POP POP POP POP JUMP JUMPDEST PUSH0 PUSH1 0x5 PUSH0 SWAP1 SLOAD SWAP1 PUSH2 0x100 EXP SWAP1 DIV PUSH20 0xFFFFFFFFFFFFFFFFFFFFFFFFFFFFFFFFFFFFFFFF AND PUSH20 0xFFFFFFFFFFFFFFFFFFFFFFFFFFFFFFFFFFFFFFFF AND PUSH4 0x5FC7E71E ADDRESS DUP5 DUP9 DUP9 DUP9 PUSH1 0x40 MLOAD DUP7 PUSH4 0xFFFFFFFF AND PUSH1 0xE0 SHL DUP2 MSTORE PUSH1 0x4 ADD PUSH2 0x4E40 SWAP6 SWAP5 SWAP4 SWAP3 SWAP2 SWAP1 PUSH2 0x6E95 JUMP JUMPDEST PUSH1 0x20 PUSH1 0x40 MLOAD DUP1 DUP4 SUB DUP2 PUSH0 DUP8 GAS CALL ISZERO DUP1 ISZERO PUSH2 0x4E5C JUMPI RETURNDATASIZE PUSH0 PUSH0 RETURNDATACOPY RETURNDATASIZE PUSH0 REVERT JUMPDEST POP POP POP POP PUSH1 0x40 MLOAD RETURNDATASIZE PUSH1 0x1F NOT PUSH1 0x1F DUP3 ADD AND DUP3 ADD DUP1 PUSH1 0x40 MSTORE POP DUP2 ADD SWAP1 PUSH2 0x4E80 SWAP2 SWAP1 PUSH2 0x6180 JUMP JUMPDEST SWAP1 POP PUSH0 DUP2 EQ PUSH2 0x4EC6 JUMPI DUP1 PUSH1 0x40 MLOAD PUSH32 0x1429A2F200000000000000000000000000000000000000000000000000000000 DUP2 MSTORE PUSH1 0x4 ADD PUSH2 0x4EBD SWAP2 SWAP1 PUSH2 0x57FE JUMP JUMPDEST PUSH1 0x40 MLOAD DUP1 SWAP2 SUB SWAP1 REVERT JUMPDEST PUSH2 0x4ECE PUSH2 0x33FA JUMP JUMPDEST PUSH1 0x9 SLOAD EQ PUSH2 0x4F08 JUMPI PUSH1 0x40 MLOAD PUSH32 0x80965B1B00000000000000000000000000000000000000000000000000000000 DUP2 MSTORE PUSH1 0x4 ADD PUSH1 0x40 MLOAD DUP1 SWAP2 SUB SWAP1 REVERT JUMPDEST PUSH2 0x4F10 PUSH2 0x33FA JUMP JUMPDEST DUP3 PUSH20 0xFFFFFFFFFFFFFFFFFFFFFFFFFFFFFFFFFFFFFFFF AND PUSH4 0x6C540BAF PUSH1 0x40 MLOAD DUP2 PUSH4 0xFFFFFFFF AND PUSH1 0xE0 SHL DUP2 MSTORE PUSH1 0x4 ADD PUSH1 0x20 PUSH1 0x40 MLOAD DUP1 DUP4 SUB DUP2 DUP7 GAS STATICCALL ISZERO DUP1 ISZERO PUSH2 0x4F59 JUMPI RETURNDATASIZE PUSH0 PUSH0 RETURNDATACOPY RETURNDATASIZE PUSH0 REVERT JUMPDEST POP POP POP POP PUSH1 0x40 MLOAD RETURNDATASIZE PUSH1 0x1F NOT PUSH1 0x1F DUP3 ADD AND DUP3 ADD DUP1 PUSH1 0x40 MSTORE POP DUP2 ADD SWAP1 PUSH2 0x4F7D SWAP2 SWAP1 PUSH2 0x6180 JUMP JUMPDEST EQ PUSH2 0x4FB4 JUMPI PUSH1 0x40 MLOAD PUSH32 0x82379C6800000000000000000000000000000000000000000000000000000000 DUP2 MSTORE PUSH1 0x4 ADD PUSH1 0x40 MLOAD DUP1 SWAP2 SUB SWAP1 REVERT JUMPDEST DUP5 PUSH20 0xFFFFFFFFFFFFFFFFFFFFFFFFFFFFFFFFFFFFFFFF AND DUP5 PUSH20 0xFFFFFFFFFFFFFFFFFFFFFFFFFFFFFFFFFFFFFFFF AND SUB PUSH2 0x5019 JUMPI PUSH1 0x40 MLOAD PUSH32 0x6F46988400000000000000000000000000000000000000000000000000000000 DUP2 MSTORE PUSH1 0x4 ADD PUSH1 0x40 MLOAD DUP1 SWAP2 SUB SWAP1 REVERT JUMPDEST PUSH0 DUP4 SUB PUSH2 0x5052 JUMPI PUSH1 0x40 MLOAD PUSH32 0xD29DA7EF00000000000000000000000000000000000000000000000000000000 DUP2 MSTORE PUSH1 0x4 ADD PUSH1 0x40 MLOAD DUP1 SWAP2 SUB SWAP1 REVERT JUMPDEST PUSH32 0xFFFFFFFFFFFFFFFFFFFFFFFFFFFFFFFFFFFFFFFFFFFFFFFFFFFFFFFFFFFFFFFF DUP4 SUB PUSH2 0x50AB JUMPI PUSH1 0x40 MLOAD PUSH32 0xB3058B7600000000000000000000000000000000000000000000000000000000 DUP2 MSTORE PUSH1 0x4 ADD PUSH1 0x40 MLOAD DUP1 SWAP2 SUB SWAP1 REVERT JUMPDEST PUSH0 PUSH2 0x50B7 DUP7 DUP7 DUP7 PUSH2 0x404F JUMP JUMPDEST SWAP1 POP PUSH0 PUSH0 PUSH1 0x5 PUSH0 SWAP1 SLOAD SWAP1 PUSH2 0x100 EXP SWAP1 DIV PUSH20 0xFFFFFFFFFFFFFFFFFFFFFFFFFFFFFFFFFFFFFFFF AND PUSH20 0xFFFFFFFFFFFFFFFFFFFFFFFFFFFFFFFFFFFFFFFF AND PUSH4 0xC488847B ADDRESS DUP8 DUP7 PUSH1 0x40 MLOAD DUP5 PUSH4 0xFFFFFFFF AND PUSH1 0xE0 SHL DUP2 MSTORE PUSH1 0x4 ADD PUSH2 0x5119 SWAP4 SWAP3 SWAP2 SWAP1 PUSH2 0x7101 JUMP JUMPDEST PUSH1 0x40 DUP1 MLOAD DUP1 DUP4 SUB DUP2 DUP7 GAS STATICCALL ISZERO DUP1 ISZERO PUSH2 0x5133 JUMPI RETURNDATASIZE PUSH0 PUSH0 RETURNDATACOPY RETURNDATASIZE PUSH0 REVERT JUMPDEST POP POP POP POP PUSH1 0x40 MLOAD RETURNDATASIZE PUSH1 0x1F NOT PUSH1 0x1F DUP3 ADD AND DUP3 ADD DUP1 PUSH1 0x40 MSTORE POP DUP2 ADD SWAP1 PUSH2 0x5157 SWAP2 SWAP1 PUSH2 0x7179 JUMP JUMPDEST SWAP2 POP SWAP2 POP PUSH0 DUP3 EQ PUSH2 0x519D JUMPI PUSH1 0x40 MLOAD PUSH32 0x8C379A000000000000000000000000000000000000000000000000000000000 DUP2 MSTORE PUSH1 0x4 ADD PUSH2 0x5194 SWAP1 PUSH2 0x7227 JUMP JUMPDEST PUSH1 0x40 MLOAD DUP1 SWAP2 SUB SWAP1 REVERT JUMPDEST DUP1 DUP6 PUSH20 0xFFFFFFFFFFFFFFFFFFFFFFFFFFFFFFFFFFFFFFFF AND PUSH4 0x70A08231 DUP10 PUSH1 0x40 MLOAD DUP3 PUSH4 0xFFFFFFFF AND PUSH1 0xE0 SHL DUP2 MSTORE PUSH1 0x4 ADD PUSH2 0x51D7 SWAP2 SWAP1 PUSH2 0x563C JUMP JUMPDEST PUSH1 0x20 PUSH1 0x40 MLOAD DUP1 DUP4 SUB DUP2 DUP7 GAS STATICCALL ISZERO DUP1 ISZERO PUSH2 0x51F2 JUMPI RETURNDATASIZE PUSH0 PUSH0 RETURNDATACOPY RETURNDATASIZE PUSH0 REVERT JUMPDEST POP POP POP POP PUSH1 0x40 MLOAD RETURNDATASIZE PUSH1 0x1F NOT PUSH1 0x1F DUP3 ADD AND DUP3 ADD DUP1 PUSH1 0x40 MSTORE POP DUP2 ADD SWAP1 PUSH2 0x5216 SWAP2 SWAP1 PUSH2 0x6180 JUMP JUMPDEST LT ISZERO PUSH2 0x5257 JUMPI PUSH1 0x40 MLOAD PUSH32 0x8C379A000000000000000000000000000000000000000000000000000000000 DUP2 MSTORE PUSH1 0x4 ADD PUSH2 0x524E SWAP1 PUSH2 0x728F JUMP JUMPDEST PUSH1 0x40 MLOAD DUP1 SWAP2 SUB SWAP1 REVERT JUMPDEST ADDRESS PUSH20 0xFFFFFFFFFFFFFFFFFFFFFFFFFFFFFFFFFFFFFFFF AND DUP6 PUSH20 0xFFFFFFFFFFFFFFFFFFFFFFFFFFFFFFFFFFFFFFFF AND SUB PUSH2 0x529B JUMPI PUSH2 0x5296 ADDRESS DUP10 DUP10 DUP5 PUSH2 0x3887 JUMP JUMPDEST PUSH2 0x535A JUMP JUMPDEST PUSH0 DUP6 PUSH20 0xFFFFFFFFFFFFFFFFFFFFFFFFFFFFFFFFFFFFFFFF AND PUSH4 0xB2A02FF1 DUP11 DUP11 DUP6 PUSH1 0x40 MLOAD DUP5 PUSH4 0xFFFFFFFF AND PUSH1 0xE0 SHL DUP2 MSTORE PUSH1 0x4 ADD PUSH2 0x52D9 SWAP4 SWAP3 SWAP2 SWAP1 PUSH2 0x7101 JUMP JUMPDEST PUSH1 0x20 PUSH1 0x40 MLOAD DUP1 DUP4 SUB DUP2 PUSH0 DUP8 GAS CALL ISZERO DUP1 ISZERO PUSH2 0x52F5 JUMPI RETURNDATASIZE PUSH0 PUSH0 RETURNDATACOPY RETURNDATASIZE PUSH0 REVERT JUMPDEST POP POP POP POP PUSH1 0x40 MLOAD RETURNDATASIZE PUSH1 0x1F NOT PUSH1 0x1F DUP3 ADD AND DUP3 ADD DUP1 PUSH1 0x40 MSTORE POP DUP2 ADD SWAP1 PUSH2 0x5319 SWAP2 SWAP1 PUSH2 0x6180 JUMP JUMPDEST EQ PUSH2 0x5359 JUMPI PUSH1 0x40 MLOAD PUSH32 0x8C379A000000000000000000000000000000000000000000000000000000000 DUP2 MSTORE PUSH1 0x4 ADD PUSH2 0x5350 SWAP1 PUSH2 0x72F7 JUMP JUMPDEST PUSH1 0x40 MLOAD DUP1 SWAP2 SUB SWAP1 REVERT JUMPDEST JUMPDEST PUSH32 0x298637F684DA70674F26509B10F07EC2FBC77A335AB1E7D6215A4B2484D8BB52 DUP9 DUP9 DUP6 DUP9 DUP6 PUSH1 0x40 MLOAD PUSH2 0x5391 SWAP6 SWAP5 SWAP4 SWAP3 SWAP2 SWAP1 PUSH2 0x7315 JUMP JUMPDEST PUSH1 0x40 MLOAD DUP1 SWAP2 SUB SWAP1 LOG1 POP POP POP POP POP POP POP POP JUMP JUMPDEST PUSH0 PUSH0 PUSH1 0x11 PUSH0 SWAP1 SLOAD SWAP1 PUSH2 0x100 EXP SWAP1 DIV PUSH20 0xFFFFFFFFFFFFFFFFFFFFFFFFFFFFFFFFFFFFFFFF AND SWAP1 POP PUSH0 DUP2 SWAP1 POP PUSH0 DUP3 PUSH20 0xFFFFFFFFFFFFFFFFFFFFFFFFFFFFFFFFFFFFFFFF AND PUSH4 0x70A08231 ADDRESS PUSH1 0x40 MLOAD DUP3 PUSH4 0xFFFFFFFF AND PUSH1 0xE0 SHL DUP2 MSTORE PUSH1 0x4 ADD PUSH2 0x5407 SWAP2 SWAP1 PUSH2 0x563C JUMP JUMPDEST PUSH1 0x20 PUSH1 0x40 MLOAD DUP1 DUP4 SUB DUP2 DUP7 GAS STATICCALL ISZERO DUP1 ISZERO PUSH2 0x5422 JUMPI RETURNDATASIZE PUSH0 PUSH0 RETURNDATACOPY RETURNDATASIZE PUSH0 REVERT JUMPDEST POP POP POP POP PUSH1 0x40 MLOAD RETURNDATASIZE PUSH1 0x1F NOT PUSH1 0x1F DUP3 ADD AND DUP3 ADD DUP1 PUSH1 0x40 MSTORE POP DUP2 ADD SWAP1 PUSH2 0x5446 SWAP2 SWAP1 PUSH2 0x6180 JUMP JUMPDEST SWAP1 POP DUP2 PUSH20 0xFFFFFFFFFFFFFFFFFFFFFFFFFFFFFFFFFFFFFFFF AND PUSH4 0x23B872DD DUP8 ADDRESS DUP9 PUSH1 0x40 MLOAD DUP5 PUSH4 0xFFFFFFFF AND PUSH1 0xE0 SHL DUP2 MSTORE PUSH1 0x4 ADD PUSH2 0x5485 SWAP4 SWAP3 SWAP2 SWAP1 PUSH2 0x7101 JUMP JUMPDEST PUSH0 PUSH1 0x40 MLOAD DUP1 DUP4 SUB DUP2 PUSH0 DUP8 DUP1 EXTCODESIZE ISZERO DUP1 ISZERO PUSH2 0x549C JUMPI PUSH0 PUSH0 REVERT JUMPDEST POP GAS CALL ISZERO DUP1 ISZERO PUSH2 0x54AE JUMPI RETURNDATASIZE PUSH0 PUSH0 RETURNDATACOPY RETURNDATASIZE PUSH0 REVERT JUMPDEST POP POP POP POP PUSH0 RETURNDATASIZE PUSH0 DUP2 EQ PUSH2 0x54C7 JUMPI PUSH1 0x20 DUP2 EQ PUSH2 0x54D0 JUMPI PUSH0 PUSH0 REVERT JUMPDEST PUSH0 NOT SWAP2 POP PUSH2 0x54DA JUMP JUMPDEST PUSH1 0x20 PUSH0 PUSH0 RETURNDATACOPY PUSH0 MLOAD SWAP2 POP JUMPDEST POP DUP1 PUSH2 0x551B JUMPI PUSH1 0x40 MLOAD PUSH32 0x8C379A000000000000000000000000000000000000000000000000000000000 DUP2 MSTORE PUSH1 0x4 ADD PUSH2 0x5512 SWAP1 PUSH2 0x73B0 JUMP JUMPDEST PUSH1 0x40 MLOAD DUP1 SWAP2 SUB SWAP1 REVERT JUMPDEST PUSH0 DUP5 PUSH20 0xFFFFFFFFFFFFFFFFFFFFFFFFFFFFFFFFFFFFFFFF AND PUSH4 0x70A08231 ADDRESS PUSH1 0x40 MLOAD DUP3 PUSH4 0xFFFFFFFF AND PUSH1 0xE0 SHL DUP2 MSTORE PUSH1 0x4 ADD PUSH2 0x5555 SWAP2 SWAP1 PUSH2 0x563C JUMP JUMPDEST PUSH1 0x20 PUSH1 0x40 MLOAD DUP1 DUP4 SUB DUP2 DUP7 GAS STATICCALL ISZERO DUP1 ISZERO PUSH2 0x5570 JUMPI RETURNDATASIZE PUSH0 PUSH0 RETURNDATACOPY RETURNDATASIZE PUSH0 REVERT JUMPDEST POP POP POP POP PUSH1 0x40 MLOAD RETURNDATASIZE PUSH1 0x1F NOT PUSH1 0x1F DUP3 ADD AND DUP3 ADD DUP1 PUSH1 0x40 MSTORE POP DUP2 ADD SWAP1 PUSH2 0x5594 SWAP2 SWAP1 PUSH2 0x6180 JUMP JUMPDEST SWAP1 POP DUP3 DUP2 PUSH2 0x55A2 SWAP2 SWAP1 PUSH2 0x69C2 JUMP JUMPDEST SWAP6 POP POP POP POP POP POP SWAP3 SWAP2 POP POP JUMP JUMPDEST PUSH0 PUSH2 0x55CE PUSH2 0x55C5 DUP5 PUSH8 0xDE0B6B3A7640000 PUSH2 0x4B15 JUMP JUMPDEST DUP4 PUSH0 ADD MLOAD PUSH2 0x55D6 JUMP JUMPDEST SWAP1 POP SWAP3 SWAP2 POP POP JUMP JUMPDEST PUSH0 DUP2 DUP4 PUSH2 0x55E3 SWAP2 SWAP1 PUSH2 0x6CD0 JUMP JUMPDEST SWAP1 POP SWAP3 SWAP2 POP POP JUMP JUMPDEST PUSH1 0x40 MLOAD DUP1 PUSH1 0x20 ADD PUSH1 0x40 MSTORE DUP1 PUSH0 DUP2 MSTORE POP SWAP1 JUMP JUMPDEST PUSH0 PUSH20 0xFFFFFFFFFFFFFFFFFFFFFFFFFFFFFFFFFFFFFFFF DUP3 AND SWAP1 POP SWAP2 SWAP1 POP JUMP JUMPDEST PUSH0 PUSH2 0x5626 DUP3 PUSH2 0x55FD JUMP JUMPDEST SWAP1 POP SWAP2 SWAP1 POP JUMP JUMPDEST PUSH2 0x5636 DUP2 PUSH2 0x561C JUMP JUMPDEST DUP3 MSTORE POP POP JUMP JUMPDEST PUSH0 PUSH1 0x20 DUP3 ADD SWAP1 POP PUSH2 0x564F PUSH0 DUP4 ADD DUP5 PUSH2 0x562D JUMP JUMPDEST SWAP3 SWAP2 POP POP JUMP JUMPDEST PUSH0 DUP2 MLOAD SWAP1 POP SWAP2 SWAP1 POP JUMP JUMPDEST PUSH0 DUP3 DUP3 MSTORE PUSH1 0x20 DUP3 ADD SWAP1 POP SWAP3 SWAP2 POP POP JUMP JUMPDEST DUP3 DUP2 DUP4 MCOPY PUSH0 DUP4 DUP4 ADD MSTORE POP POP POP JUMP JUMPDEST PUSH0 PUSH1 0x1F NOT PUSH1 0x1F DUP4 ADD AND SWAP1 POP SWAP2 SWAP1 POP JUMP JUMPDEST PUSH0 PUSH2 0x5697 DUP3 PUSH2 0x5655 JUMP JUMPDEST PUSH2 0x56A1 DUP2 DUP6 PUSH2 0x565F JUMP JUMPDEST SWAP4 POP PUSH2 0x56B1 DUP2 DUP6 PUSH1 0x20 DUP7 ADD PUSH2 0x566F JUMP JUMPDEST PUSH2 0x56BA DUP2 PUSH2 0x567D JUMP JUMPDEST DUP5 ADD SWAP2 POP POP SWAP3 SWAP2 POP POP JUMP JUMPDEST PUSH0 PUSH1 0x20 DUP3 ADD SWAP1 POP DUP2 DUP2 SUB PUSH0 DUP4 ADD MSTORE PUSH2 0x56DD DUP2 DUP5 PUSH2 0x568D JUMP JUMPDEST SWAP1 POP SWAP3 SWAP2 POP POP JUMP JUMPDEST PUSH0 PUSH1 0x40 MLOAD SWAP1 POP SWAP1 JUMP JUMPDEST PUSH0 PUSH0 REVERT JUMPDEST PUSH0 PUSH0 REVERT JUMPDEST PUSH2 0x56FF DUP2 PUSH2 0x561C JUMP JUMPDEST DUP2 EQ PUSH2 0x5709 JUMPI PUSH0 PUSH0 REVERT JUMPDEST POP JUMP JUMPDEST PUSH0 DUP2 CALLDATALOAD SWAP1 POP PUSH2 0x571A DUP2 PUSH2 0x56F6 JUMP JUMPDEST SWAP3 SWAP2 POP POP JUMP JUMPDEST PUSH0 DUP2 SWAP1 POP SWAP2 SWAP1 POP JUMP JUMPDEST PUSH2 0x5732 DUP2 PUSH2 0x5720 JUMP JUMPDEST DUP2 EQ PUSH2 0x573C JUMPI PUSH0 PUSH0 REVERT JUMPDEST POP JUMP JUMPDEST PUSH0 DUP2 CALLDATALOAD SWAP1 POP PUSH2 0x574D DUP2 PUSH2 0x5729 JUMP JUMPDEST SWAP3 SWAP2 POP POP JUMP JUMPDEST PUSH0 PUSH0 PUSH1 0x40 DUP4 DUP6 SUB SLT ISZERO PUSH2 0x5769 JUMPI PUSH2 0x5768 PUSH2 0x56EE JUMP JUMPDEST JUMPDEST PUSH0 PUSH2 0x5776 DUP6 DUP3 DUP7 ADD PUSH2 0x570C JUMP JUMPDEST SWAP3 POP POP PUSH1 0x20 PUSH2 0x5787 DUP6 DUP3 DUP7 ADD PUSH2 0x573F JUMP JUMPDEST SWAP2 POP POP SWAP3 POP SWAP3 SWAP1 POP JUMP JUMPDEST PUSH0 DUP2 ISZERO ISZERO SWAP1 POP SWAP2 SWAP1 POP JUMP JUMPDEST PUSH2 0x57A5 DUP2 PUSH2 0x5791 JUMP JUMPDEST DUP3 MSTORE POP POP JUMP JUMPDEST PUSH0 PUSH1 0x20 DUP3 ADD SWAP1 POP PUSH2 0x57BE PUSH0 DUP4 ADD DUP5 PUSH2 0x579C JUMP JUMPDEST SWAP3 SWAP2 POP POP JUMP JUMPDEST PUSH0 PUSH1 0x20 DUP3 DUP5 SUB SLT ISZERO PUSH2 0x57D9 JUMPI PUSH2 0x57D8 PUSH2 0x56EE JUMP JUMPDEST JUMPDEST PUSH0 PUSH2 0x57E6 DUP5 DUP3 DUP6 ADD PUSH2 0x573F JUMP JUMPDEST SWAP2 POP POP SWAP3 SWAP2 POP POP JUMP JUMPDEST PUSH2 0x57F8 DUP2 PUSH2 0x5720 JUMP JUMPDEST DUP3 MSTORE POP POP JUMP JUMPDEST PUSH0 PUSH1 0x20 DUP3 ADD SWAP1 POP PUSH2 0x5811 PUSH0 DUP4 ADD DUP5 PUSH2 0x57EF JUMP JUMPDEST SWAP3 SWAP2 POP POP JUMP JUMPDEST PUSH0 PUSH1 0x20 DUP3 DUP5 SUB SLT ISZERO PUSH2 0x582C JUMPI PUSH2 0x582B PUSH2 0x56EE JUMP JUMPDEST JUMPDEST PUSH0 PUSH2 0x5839 DUP5 DUP3 DUP6 ADD PUSH2 0x570C JUMP JUMPDEST SWAP2 POP POP SWAP3 SWAP2 POP POP JUMP JUMPDEST PUSH0 PUSH2 0x584C DUP3 PUSH2 0x561C JUMP JUMPDEST SWAP1 POP SWAP2 SWAP1 POP JUMP JUMPDEST PUSH2 0x585C DUP2 PUSH2 0x5842 JUMP JUMPDEST DUP2 EQ PUSH2 0x5866 JUMPI PUSH0 PUSH0 REVERT JUMPDEST POP JUMP JUMPDEST PUSH0 DUP2 CALLDATALOAD SWAP1 POP PUSH2 0x5877 DUP2 PUSH2 0x5853 JUMP JUMPDEST SWAP3 SWAP2 POP POP JUMP JUMPDEST PUSH0 PUSH1 0x20 DUP3 DUP5 SUB SLT ISZERO PUSH2 0x5892 JUMPI PUSH2 0x5891 PUSH2 0x56EE JUMP JUMPDEST JUMPDEST PUSH0 PUSH2 0x589F DUP5 DUP3 DUP6 ADD PUSH2 0x5869 JUMP JUMPDEST SWAP2 POP POP SWAP3 SWAP2 POP POP JUMP JUMPDEST PUSH0 PUSH0 PUSH0 PUSH1 0x60 DUP5 DUP7 SUB SLT ISZERO PUSH2 0x58BF JUMPI PUSH2 0x58BE PUSH2 0x56EE JUMP JUMPDEST JUMPDEST PUSH0 PUSH2 0x58CC DUP7 DUP3 DUP8 ADD PUSH2 0x570C JUMP JUMPDEST SWAP4 POP POP PUSH1 0x20 PUSH2 0x58DD DUP7 DUP3 DUP8 ADD PUSH2 0x570C JUMP JUMPDEST SWAP3 POP POP PUSH1 0x40 PUSH2 0x58EE DUP7 DUP3 DUP8 ADD PUSH2 0x573F JUMP JUMPDEST SWAP2 POP POP SWAP3 POP SWAP3 POP SWAP3 JUMP JUMPDEST PUSH0 PUSH2 0x5902 DUP3 PUSH2 0x55FD JUMP JUMPDEST SWAP1 POP SWAP2 SWAP1 POP JUMP JUMPDEST PUSH2 0x5912 DUP2 PUSH2 0x58F8 JUMP JUMPDEST DUP3 MSTORE POP POP JUMP JUMPDEST PUSH0 PUSH1 0x20 DUP3 ADD SWAP1 POP PUSH2 0x592B PUSH0 DUP4 ADD DUP5 PUSH2 0x5909 JUMP JUMPDEST SWAP3 SWAP2 POP POP JUMP JUMPDEST PUSH0 PUSH1 0xFF DUP3 AND SWAP1 POP SWAP2 SWAP1 POP JUMP JUMPDEST PUSH2 0x5946 DUP2 PUSH2 0x5931 JUMP JUMPDEST DUP3 MSTORE POP POP JUMP JUMPDEST PUSH0 PUSH1 0x20 DUP3 ADD SWAP1 POP PUSH2 0x595F PUSH0 DUP4 ADD DUP5 PUSH2 0x593D JUMP JUMPDEST SWAP3 SWAP2 POP POP JUMP JUMPDEST PUSH0 PUSH2 0x596F DUP3 PUSH2 0x561C JUMP JUMPDEST SWAP1 POP SWAP2 SWAP1 POP JUMP JUMPDEST PUSH2 0x597F DUP2 PUSH2 0x5965 JUMP JUMPDEST DUP2 EQ PUSH2 0x5989 JUMPI PUSH0 PUSH0 REVERT JUMPDEST POP JUMP JUMPDEST PUSH0 DUP2 CALLDATALOAD SWAP1 POP PUSH2 0x599A DUP2 PUSH2 0x5976 JUMP JUMPDEST SWAP3 SWAP2 POP POP JUMP JUMPDEST PUSH0 PUSH1 0x20 DUP3 DUP5 SUB SLT ISZERO PUSH2 0x59B5 JUMPI PUSH2 0x59B4 PUSH2 0x56EE JUMP JUMPDEST JUMPDEST PUSH0 PUSH2 0x59C2 DUP5 DUP3 DUP6 ADD PUSH2 0x598C JUMP JUMPDEST SWAP2 POP POP SWAP3 SWAP2 POP POP JUMP JUMPDEST PUSH0 DUP2 SWAP1 POP SWAP2 SWAP1 POP JUMP JUMPDEST PUSH0 PUSH2 0x59EE PUSH2 0x59E9 PUSH2 0x59E4 DUP5 PUSH2 0x55FD JUMP JUMPDEST PUSH2 0x59CB JUMP JUMPDEST PUSH2 0x55FD JUMP JUMPDEST SWAP1 POP SWAP2 SWAP1 POP JUMP JUMPDEST PUSH0 PUSH2 0x59FF DUP3 PUSH2 0x59D4 JUMP JUMPDEST SWAP1 POP SWAP2 SWAP1 POP JUMP JUMPDEST PUSH0 PUSH2 0x5A10 DUP3 PUSH2 0x59F5 JUMP JUMPDEST SWAP1 POP SWAP2 SWAP1 POP JUMP JUMPDEST PUSH2 0x5A20 DUP2 PUSH2 0x5A06 JUMP JUMPDEST DUP3 MSTORE POP POP JUMP JUMPDEST PUSH0 PUSH1 0x20 DUP3 ADD SWAP1 POP PUSH2 0x5A39 PUSH0 DUP4 ADD DUP5 PUSH2 0x5A17 JUMP JUMPDEST SWAP3 SWAP2 POP POP JUMP JUMPDEST PUSH0 PUSH2 0x5A49 DUP3 PUSH2 0x561C JUMP JUMPDEST SWAP1 POP SWAP2 SWAP1 POP JUMP JUMPDEST PUSH2 0x5A59 DUP2 PUSH2 0x5A3F JUMP JUMPDEST DUP2 EQ PUSH2 0x5A63 JUMPI PUSH0 PUSH0 REVERT JUMPDEST POP JUMP JUMPDEST PUSH0 DUP2 CALLDATALOAD SWAP1 POP PUSH2 0x5A74 DUP2 PUSH2 0x5A50 JUMP JUMPDEST SWAP3 SWAP2 POP POP JUMP JUMPDEST PUSH0 PUSH0 REVERT JUMPDEST PUSH0 PUSH0 REVERT JUMPDEST PUSH32 0x4E487B7100000000000000000000000000000000000000000000000000000000 PUSH0 MSTORE PUSH1 0x41 PUSH1 0x4 MSTORE PUSH1 0x24 PUSH0 REVERT JUMPDEST PUSH2 0x5AB8 DUP3 PUSH2 0x567D JUMP JUMPDEST DUP2 ADD DUP2 DUP2 LT PUSH8 0xFFFFFFFFFFFFFFFF DUP3 GT OR ISZERO PUSH2 0x5AD7 JUMPI PUSH2 0x5AD6 PUSH2 0x5A82 JUMP JUMPDEST JUMPDEST DUP1 PUSH1 0x40 MSTORE POP POP POP JUMP JUMPDEST PUSH0 PUSH2 0x5AE9 PUSH2 0x56E5 JUMP JUMPDEST SWAP1 POP PUSH2 0x5AF5 DUP3 DUP3 PUSH2 0x5AAF JUMP JUMPDEST SWAP2 SWAP1 POP JUMP JUMPDEST PUSH0 PUSH8 0xFFFFFFFFFFFFFFFF DUP3 GT ISZERO PUSH2 0x5B14 JUMPI PUSH2 0x5B13 PUSH2 0x5A82 JUMP JUMPDEST JUMPDEST PUSH2 0x5B1D DUP3 PUSH2 0x567D JUMP JUMPDEST SWAP1 POP PUSH1 0x20 DUP2 ADD SWAP1 POP SWAP2 SWAP1 POP JUMP JUMPDEST DUP3 DUP2 DUP4 CALLDATACOPY PUSH0 DUP4 DUP4 ADD MSTORE POP POP POP JUMP JUMPDEST PUSH0 PUSH2 0x5B4A PUSH2 0x5B45 DUP5 PUSH2 0x5AFA JUMP JUMPDEST PUSH2 0x5AE0 JUMP JUMPDEST SWAP1 POP DUP3 DUP2 MSTORE PUSH1 0x20 DUP2 ADD DUP5 DUP5 DUP5 ADD GT ISZERO PUSH2 0x5B66 JUMPI PUSH2 0x5B65 PUSH2 0x5A7E JUMP JUMPDEST JUMPDEST PUSH2 0x5B71 DUP5 DUP3 DUP6 PUSH2 0x5B2A JUMP JUMPDEST POP SWAP4 SWAP3 POP POP POP JUMP JUMPDEST PUSH0 DUP3 PUSH1 0x1F DUP4 ADD SLT PUSH2 0x5B8D JUMPI PUSH2 0x5B8C PUSH2 0x5A7A JUMP JUMPDEST JUMPDEST DUP2 CALLDATALOAD PUSH2 0x5B9D DUP5 DUP3 PUSH1 0x20 DUP7 ADD PUSH2 0x5B38 JUMP JUMPDEST SWAP2 POP POP SWAP3 SWAP2 POP POP JUMP JUMPDEST PUSH2 0x5BAF DUP2 PUSH2 0x5931 JUMP JUMPDEST DUP2 EQ PUSH2 0x5BB9 JUMPI PUSH0 PUSH0 REVERT JUMPDEST POP JUMP JUMPDEST PUSH0 DUP2 CALLDATALOAD SWAP1 POP PUSH2 0x5BCA DUP2 PUSH2 0x5BA6 JUMP JUMPDEST SWAP3 SWAP2 POP POP JUMP JUMPDEST PUSH0 PUSH0 PUSH0 PUSH0 PUSH0 PUSH0 PUSH1 0xC0 DUP8 DUP10 SUB SLT ISZERO PUSH2 0x5BEA JUMPI PUSH2 0x5BE9 PUSH2 0x56EE JUMP JUMPDEST JUMPDEST PUSH0 PUSH2 0x5BF7 DUP10 DUP3 DUP11 ADD PUSH2 0x598C JUMP JUMPDEST SWAP7 POP POP PUSH1 0x20 PUSH2 0x5C08 DUP10 DUP3 DUP11 ADD PUSH2 0x5A66 JUMP JUMPDEST SWAP6 POP POP PUSH1 0x40 PUSH2 0x5C19 DUP10 DUP3 DUP11 ADD PUSH2 0x573F JUMP JUMPDEST SWAP5 POP POP PUSH1 0x60 DUP8 ADD CALLDATALOAD PUSH8 0xFFFFFFFFFFFFFFFF DUP2 GT ISZERO PUSH2 0x5C3A JUMPI PUSH2 0x5C39 PUSH2 0x56F2 JUMP JUMPDEST JUMPDEST PUSH2 0x5C46 DUP10 DUP3 DUP11 ADD PUSH2 0x5B79 JUMP JUMPDEST SWAP4 POP POP PUSH1 0x80 DUP8 ADD CALLDATALOAD PUSH8 0xFFFFFFFFFFFFFFFF DUP2 GT ISZERO PUSH2 0x5C67 JUMPI PUSH2 0x5C66 PUSH2 0x56F2 JUMP JUMPDEST JUMPDEST PUSH2 0x5C73 DUP10 DUP3 DUP11 ADD PUSH2 0x5B79 JUMP JUMPDEST SWAP3 POP POP PUSH1 0xA0 PUSH2 0x5C84 DUP10 DUP3 DUP11 ADD PUSH2 0x5BBC JUMP JUMPDEST SWAP2 POP POP SWAP3 SWAP6 POP SWAP3 SWAP6 POP SWAP3 SWAP6 JUMP JUMPDEST PUSH0 PUSH0 PUSH0 PUSH0 PUSH0 PUSH0 PUSH0 PUSH0 PUSH0 PUSH2 0x120 DUP11 DUP13 SUB SLT ISZERO PUSH2 0x5CAF JUMPI PUSH2 0x5CAE PUSH2 0x56EE JUMP JUMPDEST JUMPDEST PUSH0 PUSH2 0x5CBC DUP13 DUP3 DUP14 ADD PUSH2 0x570C JUMP JUMPDEST SWAP10 POP POP PUSH1 0x20 PUSH2 0x5CCD DUP13 DUP3 DUP14 ADD PUSH2 0x598C JUMP JUMPDEST SWAP9 POP POP PUSH1 0x40 PUSH2 0x5CDE DUP13 DUP3 DUP14 ADD PUSH2 0x5A66 JUMP JUMPDEST SWAP8 POP POP PUSH1 0x60 PUSH2 0x5CEF DUP13 DUP3 DUP14 ADD PUSH2 0x573F JUMP JUMPDEST SWAP7 POP POP PUSH1 0x80 DUP11 ADD CALLDATALOAD PUSH8 0xFFFFFFFFFFFFFFFF DUP2 GT ISZERO PUSH2 0x5D10 JUMPI PUSH2 0x5D0F PUSH2 0x56F2 JUMP JUMPDEST JUMPDEST PUSH2 0x5D1C DUP13 DUP3 DUP14 ADD PUSH2 0x5B79 JUMP JUMPDEST SWAP6 POP POP PUSH1 0xA0 DUP11 ADD CALLDATALOAD PUSH8 0xFFFFFFFFFFFFFFFF DUP2 GT ISZERO PUSH2 0x5D3D JUMPI PUSH2 0x5D3C PUSH2 0x56F2 JUMP JUMPDEST JUMPDEST PUSH2 0x5D49 DUP13 DUP3 DUP14 ADD PUSH2 0x5B79 JUMP JUMPDEST SWAP5 POP POP PUSH1 0xC0 PUSH2 0x5D5A DUP13 DUP3 DUP14 ADD PUSH2 0x5BBC JUMP JUMPDEST SWAP4 POP POP PUSH1 0xE0 PUSH2 0x5D6B DUP13 DUP3 DUP14 ADD PUSH2 0x570C JUMP JUMPDEST SWAP3 POP POP PUSH2 0x100 PUSH2 0x5D7D DUP13 DUP3 DUP14 ADD PUSH2 0x573F JUMP JUMPDEST SWAP2 POP POP SWAP3 SWAP6 SWAP9 POP SWAP3 SWAP6 SWAP9 POP SWAP3 SWAP6 SWAP9 JUMP JUMPDEST PUSH2 0x5D96 DUP2 PUSH2 0x58F8 JUMP JUMPDEST DUP2 EQ PUSH2 0x5DA0 JUMPI PUSH0 PUSH0 REVERT JUMPDEST POP JUMP JUMPDEST PUSH0 DUP2 CALLDATALOAD SWAP1 POP PUSH2 0x5DB1 DUP2 PUSH2 0x5D8D JUMP JUMPDEST SWAP3 SWAP2 POP POP JUMP JUMPDEST PUSH0 PUSH1 0x20 DUP3 DUP5 SUB SLT ISZERO PUSH2 0x5DCC JUMPI PUSH2 0x5DCB PUSH2 0x56EE JUMP JUMPDEST JUMPDEST PUSH0 PUSH2 0x5DD9 DUP5 DUP3 DUP6 ADD PUSH2 0x5DA3 JUMP JUMPDEST SWAP2 POP POP SWAP3 SWAP2 POP POP JUMP JUMPDEST PUSH0 PUSH1 0x80 DUP3 ADD SWAP1 POP PUSH2 0x5DF5 PUSH0 DUP4 ADD DUP8 PUSH2 0x57EF JUMP JUMPDEST PUSH2 0x5E02 PUSH1 0x20 DUP4 ADD DUP7 PUSH2 0x57EF JUMP JUMPDEST PUSH2 0x5E0F PUSH1 0x40 DUP4 ADD DUP6 PUSH2 0x57EF JUMP JUMPDEST PUSH2 0x5E1C PUSH1 0x60 DUP4 ADD DUP5 PUSH2 0x57EF JUMP JUMPDEST SWAP6 SWAP5 POP POP POP POP POP JUMP JUMPDEST PUSH0 PUSH0 PUSH1 0x40 DUP4 DUP6 SUB SLT ISZERO PUSH2 0x5E3B JUMPI PUSH2 0x5E3A PUSH2 0x56EE JUMP JUMPDEST JUMPDEST PUSH0 PUSH2 0x5E48 DUP6 DUP3 DUP7 ADD PUSH2 0x570C JUMP JUMPDEST SWAP3 POP POP PUSH1 0x20 PUSH2 0x5E59 DUP6 DUP3 DUP7 ADD PUSH2 0x570C JUMP JUMPDEST SWAP2 POP POP SWAP3 POP SWAP3 SWAP1 POP JUMP JUMPDEST PUSH0 PUSH1 0x20 DUP3 DUP5 SUB SLT ISZERO PUSH2 0x5E78 JUMPI PUSH2 0x5E77 PUSH2 0x56EE JUMP JUMPDEST JUMPDEST PUSH0 PUSH2 0x5E85 DUP5 DUP3 DUP6 ADD PUSH2 0x5A66 JUMP JUMPDEST SWAP2 POP POP SWAP3 SWAP2 POP POP JUMP JUMPDEST PUSH0 PUSH2 0x5E98 DUP3 PUSH2 0x59F5 JUMP JUMPDEST SWAP1 POP SWAP2 SWAP1 POP JUMP JUMPDEST PUSH2 0x5EA8 DUP2 PUSH2 0x5E8E JUMP JUMPDEST DUP3 MSTORE POP POP JUMP JUMPDEST PUSH0 PUSH1 0x20 DUP3 ADD SWAP1 POP PUSH2 0x5EC1 PUSH0 DUP4 ADD DUP5 PUSH2 0x5E9F JUMP JUMPDEST SWAP3 SWAP2 POP POP JUMP JUMPDEST PUSH0 PUSH2 0x5ED1 DUP3 PUSH2 0x561C JUMP JUMPDEST SWAP1 POP SWAP2 SWAP1 POP JUMP JUMPDEST PUSH2 0x5EE1 DUP2 PUSH2 0x5EC7 JUMP JUMPDEST DUP2 EQ PUSH2 0x5EEB JUMPI PUSH0 PUSH0 REVERT JUMPDEST POP JUMP JUMPDEST PUSH0 DUP2 CALLDATALOAD SWAP1 POP PUSH2 0x5EFC DUP2 PUSH2 0x5ED8 JUMP JUMPDEST SWAP3 SWAP2 POP POP JUMP JUMPDEST PUSH0 PUSH0 PUSH0 PUSH1 0x60 DUP5 DUP7 SUB SLT ISZERO PUSH2 0x5F19 JUMPI PUSH2 0x5F18 PUSH2 0x56EE JUMP JUMPDEST JUMPDEST PUSH0 PUSH2 0x5F26 DUP7 DUP3 DUP8 ADD PUSH2 0x570C JUMP JUMPDEST SWAP4 POP POP PUSH1 0x20 PUSH2 0x5F37 DUP7 DUP3 DUP8 ADD PUSH2 0x573F JUMP JUMPDEST SWAP3 POP POP PUSH1 0x40 PUSH2 0x5F48 DUP7 DUP3 DUP8 ADD PUSH2 0x5EEE JUMP JUMPDEST SWAP2 POP POP SWAP3 POP SWAP3 POP SWAP3 JUMP JUMPDEST PUSH0 PUSH2 0x5F5C DUP3 PUSH2 0x59F5 JUMP JUMPDEST SWAP1 POP SWAP2 SWAP1 POP JUMP JUMPDEST PUSH2 0x5F6C DUP2 PUSH2 0x5F52 JUMP JUMPDEST DUP3 MSTORE POP POP JUMP JUMPDEST PUSH0 PUSH1 0x20 DUP3 ADD SWAP1 POP PUSH2 0x5F85 PUSH0 DUP4 ADD DUP5 PUSH2 0x5F63 JUMP JUMPDEST SWAP3 SWAP2 POP POP JUMP JUMPDEST PUSH32 0x4E487B7100000000000000000000000000000000000000000000000000000000 PUSH0 MSTORE PUSH1 0x22 PUSH1 0x4 MSTORE PUSH1 0x24 PUSH0 REVERT JUMPDEST PUSH0 PUSH1 0x2 DUP3 DIV SWAP1 POP PUSH1 0x1 DUP3 AND DUP1 PUSH2 0x5FCF JUMPI PUSH1 0x7F DUP3 AND SWAP2 POP JUMPDEST PUSH1 0x20 DUP3 LT DUP2 SUB PUSH2 0x5FE2 JUMPI PUSH2 0x5FE1 PUSH2 0x5F8B JUMP JUMPDEST JUMPDEST POP SWAP2 SWAP1 POP JUMP JUMPDEST PUSH32 0x72652D656E746572656400000000000000000000000000000000000000000000 PUSH0 DUP3 ADD MSTORE POP JUMP JUMPDEST PUSH0 PUSH2 0x601C PUSH1 0xA DUP4 PUSH2 0x565F JUMP JUMPDEST SWAP2 POP PUSH2 0x6027 DUP3 PUSH2 0x5FE8 JUMP JUMPDEST PUSH1 0x20 DUP3 ADD SWAP1 POP SWAP2 SWAP1 POP JUMP JUMPDEST PUSH0 PUSH1 0x20 DUP3 ADD SWAP1 POP DUP2 DUP2 SUB PUSH0 DUP4 ADD MSTORE PUSH2 0x6049 DUP2 PUSH2 0x6010 JUMP JUMPDEST SWAP1 POP SWAP2 SWAP1 POP JUMP JUMPDEST PUSH32 0x4345726332303A3A7377656570546F6B656E3A206F6E6C792061646D696E2063 PUSH0 DUP3 ADD MSTORE PUSH32 0x616E20737765657020746F6B656E730000000000000000000000000000000000 PUSH1 0x20 DUP3 ADD MSTORE POP JUMP JUMPDEST PUSH0 PUSH2 0x60AA PUSH1 0x2F DUP4 PUSH2 0x565F JUMP JUMPDEST SWAP2 POP PUSH2 0x60B5 DUP3 PUSH2 0x6050 JUMP JUMPDEST PUSH1 0x40 DUP3 ADD SWAP1 POP SWAP2 SWAP1 POP JUMP JUMPDEST PUSH0 PUSH1 0x20 DUP3 ADD SWAP1 POP DUP2 DUP2 SUB PUSH0 DUP4 ADD MSTORE PUSH2 0x60D7 DUP2 PUSH2 0x609E JUMP JUMPDEST SWAP1 POP SWAP2 SWAP1 POP JUMP JUMPDEST PUSH32 0x4345726332303A3A7377656570546F6B656E3A2063616E206E6F742073776565 PUSH0 DUP3 ADD MSTORE PUSH32 0x7020756E6465726C79696E6720746F6B656E0000000000000000000000000000 PUSH1 0x20 DUP3 ADD MSTORE POP JUMP JUMPDEST PUSH0 PUSH2 0x6138 PUSH1 0x32 DUP4 PUSH2 0x565F JUMP JUMPDEST SWAP2 POP PUSH2 0x6143 DUP3 PUSH2 0x60DE JUMP JUMPDEST PUSH1 0x40 DUP3 ADD SWAP1 POP SWAP2 SWAP1 POP JUMP JUMPDEST PUSH0 PUSH1 0x20 DUP3 ADD SWAP1 POP DUP2 DUP2 SUB PUSH0 DUP4 ADD MSTORE PUSH2 0x6165 DUP2 PUSH2 0x612C JUMP JUMPDEST SWAP1 POP SWAP2 SWAP1 POP JUMP JUMPDEST PUSH0 DUP2 MLOAD SWAP1 POP PUSH2 0x617A DUP2 PUSH2 0x5729 JUMP JUMPDEST SWAP3 SWAP2 POP POP JUMP JUMPDEST PUSH0 PUSH1 0x20 DUP3 DUP5 SUB SLT ISZERO PUSH2 0x6195 JUMPI PUSH2 0x6194 PUSH2 0x56EE JUMP JUMPDEST JUMPDEST PUSH0 PUSH2 0x61A2 DUP5 DUP3 DUP6 ADD PUSH2 0x616C JUMP JUMPDEST SWAP2 POP POP SWAP3 SWAP2 POP POP JUMP JUMPDEST PUSH0 PUSH2 0x61B5 DUP3 PUSH2 0x59F5 JUMP JUMPDEST SWAP1 POP SWAP2 SWAP1 POP JUMP JUMPDEST PUSH2 0x61C5 DUP2 PUSH2 0x61AB JUMP JUMPDEST DUP3 MSTORE POP POP JUMP JUMPDEST PUSH0 PUSH1 0x40 DUP3 ADD SWAP1 POP PUSH2 0x61DE PUSH0 DUP4 ADD DUP6 PUSH2 0x61BC JUMP JUMPDEST PUSH2 0x61EB PUSH1 0x20 DUP4 ADD DUP5 PUSH2 0x57EF JUMP JUMPDEST SWAP4 SWAP3 POP POP POP JUMP JUMPDEST PUSH2 0x61FB DUP2 PUSH2 0x5791 JUMP JUMPDEST DUP2 EQ PUSH2 0x6205 JUMPI PUSH0 PUSH0 REVERT JUMPDEST POP JUMP JUMPDEST PUSH0 DUP2 MLOAD SWAP1 POP PUSH2 0x6216 DUP2 PUSH2 0x61F2 JUMP JUMPDEST SWAP3 SWAP2 POP POP JUMP JUMPDEST PUSH0 PUSH1 0x20 DUP3 DUP5 SUB SLT ISZERO PUSH2 0x6231 JUMPI PUSH2 0x6230 PUSH2 0x56EE JUMP JUMPDEST JUMPDEST PUSH0 PUSH2 0x623E DUP5 DUP3 DUP6 ADD PUSH2 0x6208 JUMP JUMPDEST SWAP2 POP POP SWAP3 SWAP2 POP POP JUMP JUMPDEST PUSH32 0x6D61726B6572206D6574686F642072657475726E65642066616C736500000000 PUSH0 DUP3 ADD MSTORE POP JUMP JUMPDEST PUSH0 PUSH2 0x627B PUSH1 0x1C DUP4 PUSH2 0x565F JUMP JUMPDEST SWAP2 POP PUSH2 0x6286 DUP3 PUSH2 0x6247 JUMP JUMPDEST PUSH1 0x20 DUP3 ADD SWAP1 POP SWAP2 SWAP1 POP JUMP JUMPDEST PUSH0 PUSH1 0x20 DUP3 ADD SWAP1 POP DUP2 DUP2 SUB PUSH0 DUP4 ADD MSTORE PUSH2 0x62A8 DUP2 PUSH2 0x626F JUMP JUMPDEST SWAP1 POP SWAP2 SWAP1 POP JUMP JUMPDEST PUSH0 PUSH1 0x40 DUP3 ADD SWAP1 POP PUSH2 0x62C2 PUSH0 DUP4 ADD DUP6 PUSH2 0x5A17 JUMP JUMPDEST PUSH2 0x62CF PUSH1 0x20 DUP4 ADD DUP5 PUSH2 0x5A17 JUMP JUMPDEST SWAP4 SWAP3 POP POP POP JUMP JUMPDEST PUSH32 0x6F6E6C79207468652061646D696E206D6179207365742074686520636F6D702D PUSH0 DUP3 ADD MSTORE PUSH32 0x6C696B652064656C656761746500000000000000000000000000000000000000 PUSH1 0x20 DUP3 ADD MSTORE POP JUMP JUMPDEST PUSH0 PUSH2 0x6330 PUSH1 0x2D DUP4 PUSH2 0x565F JUMP JUMPDEST SWAP2 POP PUSH2 0x633B DUP3 PUSH2 0x62D6 JUMP JUMPDEST PUSH1 0x40 DUP3 ADD SWAP1 POP SWAP2 SWAP1 POP JUMP JUMPDEST PUSH0 PUSH1 0x20 DUP3 ADD SWAP1 POP DUP2 DUP2 SUB PUSH0 DUP4 ADD MSTORE PUSH2 0x635D DUP2 PUSH2 0x6324 JUMP JUMPDEST SWAP1 POP SWAP2 SWAP1 POP JUMP JUMPDEST PUSH32 0x6F6E6C792061646D696E206D617920696E697469616C697A6520746865206D61 PUSH0 DUP3 ADD MSTORE PUSH32 0x726B657400000000000000000000000000000000000000000000000000000000 PUSH1 0x20 DUP3 ADD MSTORE POP JUMP JUMPDEST PUSH0 PUSH2 0x63BE PUSH1 0x24 DUP4 PUSH2 0x565F JUMP JUMPDEST SWAP2 POP PUSH2 0x63C9 DUP3 PUSH2 0x6364 JUMP JUMPDEST PUSH1 0x40 DUP3 ADD SWAP1 POP SWAP2 SWAP1 POP JUMP JUMPDEST PUSH0 PUSH1 0x20 DUP3 ADD SWAP1 POP DUP2 DUP2 SUB PUSH0 DUP4 ADD MSTORE PUSH2 0x63EB DUP2 PUSH2 0x63B2 JUMP JUMPDEST SWAP1 POP SWAP2 SWAP1 POP JUMP JUMPDEST PUSH32 0x6D61726B6574206D6179206F6E6C7920626520696E697469616C697A6564206F PUSH0 DUP3 ADD MSTORE PUSH32 0x6E63650000000000000000000000000000000000000000000000000000000000 PUSH1 0x20 DUP3 ADD MSTORE POP JUMP JUMPDEST PUSH0 PUSH2 0x644C PUSH1 0x23 DUP4 PUSH2 0x565F JUMP JUMPDEST SWAP2 POP PUSH2 0x6457 DUP3 PUSH2 0x63F2 JUMP JUMPDEST PUSH1 0x40 DUP3 ADD SWAP1 POP SWAP2 SWAP1 POP JUMP JUMPDEST PUSH0 PUSH1 0x20 DUP3 ADD SWAP1 POP DUP2 DUP2 SUB PUSH0 DUP4 ADD MSTORE PUSH2 0x6479 DUP2 PUSH2 0x6440 JUMP JUMPDEST SWAP1 POP SWAP2 SWAP1 POP JUMP JUMPDEST PUSH32 0x696E697469616C2065786368616E67652072617465206D757374206265206772 PUSH0 DUP3 ADD MSTORE PUSH32 0x6561746572207468616E207A65726F2E00000000000000000000000000000000 PUSH1 0x20 DUP3 ADD MSTORE POP JUMP JUMPDEST PUSH0 PUSH2 0x64DA PUSH1 0x30 DUP4 PUSH2 0x565F JUMP JUMPDEST SWAP2 POP PUSH2 0x64E5 DUP3 PUSH2 0x6480 JUMP JUMPDEST PUSH1 0x40 DUP3 ADD SWAP1 POP SWAP2 SWAP1 POP JUMP JUMPDEST PUSH0 PUSH1 0x20 DUP3 ADD SWAP1 POP DUP2 DUP2 SUB PUSH0 DUP4 ADD MSTORE PUSH2 0x6507 DUP2 PUSH2 0x64CE JUMP JUMPDEST SWAP1 POP SWAP2 SWAP1 POP JUMP JUMPDEST PUSH32 0x73657474696E6720636F6D7074726F6C6C6572206661696C6564000000000000 PUSH0 DUP3 ADD MSTORE POP JUMP JUMPDEST PUSH0 PUSH2 0x6542 PUSH1 0x1A DUP4 PUSH2 0x565F JUMP JUMPDEST SWAP2 POP PUSH2 0x654D DUP3 PUSH2 0x650E JUMP JUMPDEST PUSH1 0x20 DUP3 ADD SWAP1 POP SWAP2 SWAP1 POP JUMP JUMPDEST PUSH0 PUSH1 0x20 DUP3 ADD SWAP1 POP DUP2 DUP2 SUB PUSH0 DUP4 ADD MSTORE PUSH2 0x656F DUP2 PUSH2 0x6536 JUMP JUMPDEST SWAP1 POP SWAP2 SWAP1 POP JUMP JUMPDEST PUSH32 0x73657474696E6720696E7465726573742072617465206D6F64656C206661696C PUSH0 DUP3 ADD MSTORE PUSH32 0x6564000000000000000000000000000000000000000000000000000000000000 PUSH1 0x20 DUP3 ADD MSTORE POP JUMP JUMPDEST PUSH0 PUSH2 0x65D0 PUSH1 0x22 DUP4 PUSH2 0x565F JUMP JUMPDEST SWAP2 POP PUSH2 0x65DB DUP3 PUSH2 0x6576 JUMP JUMPDEST PUSH1 0x40 DUP3 ADD SWAP1 POP SWAP2 SWAP1 POP JUMP JUMPDEST PUSH0 PUSH1 0x20 DUP3 ADD SWAP1 POP DUP2 DUP2 SUB PUSH0 DUP4 ADD MSTORE PUSH2 0x65FD DUP2 PUSH2 0x65C4 JUMP JUMPDEST SWAP1 POP SWAP2 SWAP1 POP JUMP JUMPDEST PUSH0 DUP2 SWAP1 POP DUP2 PUSH0 MSTORE PUSH1 0x20 PUSH0 KECCAK256 SWAP1 POP SWAP2 SWAP1 POP JUMP JUMPDEST PUSH0 PUSH1 0x20 PUSH1 0x1F DUP4 ADD DIV SWAP1 POP SWAP2 SWAP1 POP JUMP JUMPDEST PUSH0 DUP3 DUP3 SHL SWAP1 POP SWAP3 SWAP2 POP POP JUMP JUMPDEST PUSH0 PUSH1 0x8 DUP4 MUL PUSH2 0x6660 PUSH32 0xFFFFFFFFFFFFFFFFFFFFFFFFFFFFFFFFFFFFFFFFFFFFFFFFFFFFFFFFFFFFFFFF DUP3 PUSH2 0x6625 JUMP JUMPDEST PUSH2 0x666A DUP7 DUP4 PUSH2 0x6625 JUMP JUMPDEST SWAP6 POP DUP1 NOT DUP5 AND SWAP4 POP DUP1 DUP7 AND DUP5 OR SWAP3 POP POP POP SWAP4 SWAP3 POP POP POP JUMP JUMPDEST PUSH0 PUSH2 0x669C PUSH2 0x6697 PUSH2 0x6692 DUP5 PUSH2 0x5720 JUMP JUMPDEST PUSH2 0x59CB JUMP JUMPDEST PUSH2 0x5720 JUMP JUMPDEST SWAP1 POP SWAP2 SWAP1 POP JUMP JUMPDEST PUSH0 DUP2 SWAP1 POP SWAP2 SWAP1 POP JUMP JUMPDEST PUSH2 0x66B5 DUP4 PUSH2 0x6682 JUMP JUMPDEST PUSH2 0x66C9 PUSH2 0x66C1 DUP3 PUSH2 0x66A3 JUMP JUMPDEST DUP5 DUP5 SLOAD PUSH2 0x6631 JUMP JUMPDEST DUP3 SSTORE POP POP POP POP JUMP JUMPDEST PUSH0 PUSH0 SWAP1 POP SWAP1 JUMP JUMPDEST PUSH2 0x66E0 PUSH2 0x66D1 JUMP JUMPDEST PUSH2 0x66EB DUP2 DUP5 DUP5 PUSH2 0x66AC JUMP JUMPDEST POP POP POP JUMP JUMPDEST JUMPDEST DUP2 DUP2 LT ISZERO PUSH2 0x670E JUMPI PUSH2 0x6703 PUSH0 DUP3 PUSH2 0x66D8 JUMP JUMPDEST PUSH1 0x1 DUP2 ADD SWAP1 POP PUSH2 0x66F1 JUMP JUMPDEST POP POP JUMP JUMPDEST PUSH1 0x1F DUP3 GT ISZERO PUSH2 0x6753 JUMPI PUSH2 0x6724 DUP2 PUSH2 0x6604 JUMP JUMPDEST PUSH2 0x672D DUP5 PUSH2 0x6616 JUMP JUMPDEST DUP2 ADD PUSH1 0x20 DUP6 LT ISZERO PUSH2 0x673C JUMPI DUP2 SWAP1 POP JUMPDEST PUSH2 0x6750 PUSH2 0x6748 DUP6 PUSH2 0x6616 JUMP JUMPDEST DUP4 ADD DUP3 PUSH2 0x66F0 JUMP JUMPDEST POP POP JUMPDEST POP POP POP JUMP JUMPDEST PUSH0 DUP3 DUP3 SHR SWAP1 POP SWAP3 SWAP2 POP POP JUMP JUMPDEST PUSH0 PUSH2 0x6773 PUSH0 NOT DUP5 PUSH1 0x8 MUL PUSH2 0x6758 JUMP JUMPDEST NOT DUP1 DUP4 AND SWAP2 POP POP SWAP3 SWAP2 POP POP JUMP JUMPDEST PUSH0 PUSH2 0x678B DUP4 DUP4 PUSH2 0x6764 JUMP JUMPDEST SWAP2 POP DUP3 PUSH1 0x2 MUL DUP3 OR SWAP1 POP SWAP3 SWAP2 POP POP JUMP JUMPDEST PUSH2 0x67A4 DUP3 PUSH2 0x5655 JUMP JUMPDEST PUSH8 0xFFFFFFFFFFFFFFFF DUP2 GT ISZERO PUSH2 0x67BD JUMPI PUSH2 0x67BC PUSH2 0x5A82 JUMP JUMPDEST JUMPDEST PUSH2 0x67C7 DUP3 SLOAD PUSH2 0x5FB8 JUMP JUMPDEST PUSH2 0x67D2 DUP3 DUP3 DUP6 PUSH2 0x6712 JUMP JUMPDEST PUSH0 PUSH1 0x20 SWAP1 POP PUSH1 0x1F DUP4 GT PUSH1 0x1 DUP2 EQ PUSH2 0x6803 JUMPI PUSH0 DUP5 ISZERO PUSH2 0x67F1 JUMPI DUP3 DUP8 ADD MLOAD SWAP1 POP JUMPDEST PUSH2 0x67FB DUP6 DUP3 PUSH2 0x6780 JUMP JUMPDEST DUP7 SSTORE POP PUSH2 0x6862 JUMP JUMPDEST PUSH1 0x1F NOT DUP5 AND PUSH2 0x6811 DUP7 PUSH2 0x6604 JUMP JUMPDEST PUSH0 JUMPDEST DUP3 DUP2 LT ISZERO PUSH2 0x6838 JUMPI DUP5 DUP10 ADD MLOAD DUP3 SSTORE PUSH1 0x1 DUP3 ADD SWAP2 POP PUSH1 0x20 DUP6 ADD SWAP5 POP PUSH1 0x20 DUP2 ADD SWAP1 POP PUSH2 0x6813 JUMP JUMPDEST DUP7 DUP4 LT ISZERO PUSH2 0x6855 JUMPI DUP5 DUP10 ADD MLOAD PUSH2 0x6851 PUSH1 0x1F DUP10 AND DUP3 PUSH2 0x6764 JUMP JUMPDEST DUP4 SSTORE POP JUMPDEST PUSH1 0x1 PUSH1 0x2 DUP9 MUL ADD DUP9 SSTORE POP POP POP JUMPDEST POP POP POP POP POP POP JUMP JUMPDEST PUSH32 0x4D696E7420616D6F756E74206D7573742062652067726561746572207468616E PUSH0 DUP3 ADD MSTORE PUSH32 0x207A65726F000000000000000000000000000000000000000000000000000000 PUSH1 0x20 DUP3 ADD MSTORE POP JUMP JUMPDEST PUSH0 PUSH2 0x68C4 PUSH1 0x25 DUP4 PUSH2 0x565F JUMP JUMPDEST SWAP2 POP PUSH2 0x68CF DUP3 PUSH2 0x686A JUMP JUMPDEST PUSH1 0x40 DUP3 ADD SWAP1 POP SWAP2 SWAP1 POP JUMP JUMPDEST PUSH0 PUSH1 0x20 DUP3 ADD SWAP1 POP DUP2 DUP2 SUB PUSH0 DUP4 ADD MSTORE PUSH2 0x68F1 DUP2 PUSH2 0x68B8 JUMP JUMPDEST SWAP1 POP SWAP2 SWAP1 POP JUMP JUMPDEST PUSH0 PUSH1 0x60 DUP3 ADD SWAP1 POP PUSH2 0x690B PUSH0 DUP4 ADD DUP7 PUSH2 0x57EF JUMP JUMPDEST PUSH2 0x6918 PUSH1 0x20 DUP4 ADD DUP6 PUSH2 0x57EF JUMP JUMPDEST PUSH2 0x6925 PUSH1 0x40 DUP4 ADD DUP5 PUSH2 0x57EF JUMP JUMPDEST SWAP5 SWAP4 POP POP POP POP JUMP JUMPDEST PUSH32 0x626F72726F772072617465206973206162737572646C79206869676800000000 PUSH0 DUP3 ADD MSTORE POP JUMP JUMPDEST PUSH0 PUSH2 0x6961 PUSH1 0x1C DUP4 PUSH2 0x565F JUMP JUMPDEST SWAP2 POP PUSH2 0x696C DUP3 PUSH2 0x692D JUMP JUMPDEST PUSH1 0x20 DUP3 ADD SWAP1 POP SWAP2 SWAP1 POP JUMP JUMPDEST PUSH0 PUSH1 0x20 DUP3 ADD SWAP1 POP DUP2 DUP2 SUB PUSH0 DUP4 ADD MSTORE PUSH2 0x698E DUP2 PUSH2 0x6955 JUMP JUMPDEST SWAP1 POP SWAP2 SWAP1 POP JUMP JUMPDEST PUSH32 0x4E487B7100000000000000000000000000000000000000000000000000000000 PUSH0 MSTORE PUSH1 0x11 PUSH1 0x4 MSTORE PUSH1 0x24 PUSH0 REVERT JUMPDEST PUSH0 PUSH2 0x69CC DUP3 PUSH2 0x5720 JUMP JUMPDEST SWAP2 POP PUSH2 0x69D7 DUP4 PUSH2 0x5720 JUMP JUMPDEST SWAP3 POP DUP3 DUP3 SUB SWAP1 POP DUP2 DUP2 GT ISZERO PUSH2 0x69EF JUMPI PUSH2 0x69EE PUSH2 0x6995 JUMP JUMPDEST JUMPDEST SWAP3 SWAP2 POP POP JUMP JUMPDEST PUSH0 PUSH2 0x69FF DUP3 PUSH2 0x5720 JUMP JUMPDEST SWAP2 POP PUSH2 0x6A0A DUP4 PUSH2 0x5720 JUMP JUMPDEST SWAP3 POP DUP3 DUP3 ADD SWAP1 POP DUP1 DUP3 GT ISZERO PUSH2 0x6A22 JUMPI PUSH2 0x6A21 PUSH2 0x6995 JUMP JUMPDEST JUMPDEST SWAP3 SWAP2 POP POP JUMP JUMPDEST PUSH0 PUSH1 0x40 DUP3 ADD SWAP1 POP PUSH2 0x6A3B PUSH0 DUP4 ADD DUP6 PUSH2 0x562D JUMP JUMPDEST PUSH2 0x6A48 PUSH1 0x20 DUP4 ADD DUP5 PUSH2 0x61BC JUMP JUMPDEST SWAP4 SWAP3 POP POP POP JUMP JUMPDEST PUSH32 0x4F6E6C792061646D696E2063616E206469737472696275746520666565730000 PUSH0 DUP3 ADD MSTORE POP JUMP JUMPDEST PUSH0 PUSH2 0x6A83 PUSH1 0x1E DUP4 PUSH2 0x565F JUMP JUMPDEST SWAP2 POP PUSH2 0x6A8E DUP3 PUSH2 0x6A4F JUMP JUMPDEST PUSH1 0x20 DUP3 ADD SWAP1 POP SWAP2 SWAP1 POP JUMP JUMPDEST PUSH0 PUSH1 0x20 DUP3 ADD SWAP1 POP DUP2 DUP2 SUB PUSH0 DUP4 ADD MSTORE PUSH2 0x6AB0 DUP2 PUSH2 0x6A77 JUMP JUMPDEST SWAP1 POP SWAP2 SWAP1 POP JUMP JUMPDEST PUSH0 PUSH1 0x40 DUP3 ADD SWAP1 POP PUSH2 0x6ACA PUSH0 DUP4 ADD DUP6 PUSH2 0x562D JUMP JUMPDEST PUSH2 0x6AD7 PUSH1 0x20 DUP4 ADD DUP5 PUSH2 0x57EF JUMP JUMPDEST SWAP4 SWAP3 POP POP POP JUMP JUMPDEST PUSH32 0x4F6E6C79207468652041646D696E2063616E2073657420746865206D696E7420 PUSH0 DUP3 ADD MSTORE PUSH32 0x6665652100000000000000000000000000000000000000000000000000000000 PUSH1 0x20 DUP3 ADD MSTORE POP JUMP JUMPDEST PUSH0 PUSH2 0x6B38 PUSH1 0x24 DUP4 PUSH2 0x565F JUMP JUMPDEST SWAP2 POP PUSH2 0x6B43 DUP3 PUSH2 0x6ADE JUMP JUMPDEST PUSH1 0x40 DUP3 ADD SWAP1 POP SWAP2 SWAP1 POP JUMP JUMPDEST PUSH0 PUSH1 0x20 DUP3 ADD SWAP1 POP DUP2 DUP2 SUB PUSH0 DUP4 ADD MSTORE PUSH2 0x6B65 DUP2 PUSH2 0x6B2C JUMP JUMPDEST SWAP1 POP SWAP2 SWAP1 POP JUMP JUMPDEST PUSH32 0x46656520746F6F20686967682100000000000000000000000000000000000000 PUSH0 DUP3 ADD MSTORE POP JUMP JUMPDEST PUSH0 PUSH2 0x6BA0 PUSH1 0xD DUP4 PUSH2 0x565F JUMP JUMPDEST SWAP2 POP PUSH2 0x6BAB DUP3 PUSH2 0x6B6C JUMP JUMPDEST PUSH1 0x20 DUP3 ADD SWAP1 POP SWAP2 SWAP1 POP JUMP JUMPDEST PUSH0 PUSH1 0x20 DUP3 ADD SWAP1 POP DUP2 DUP2 SUB PUSH0 DUP4 ADD MSTORE PUSH2 0x6BCD DUP2 PUSH2 0x6B94 JUMP JUMPDEST SWAP1 POP SWAP2 SWAP1 POP JUMP JUMPDEST PUSH32 0x4F6E6C79207468652041646D696E2063616E2073657420746865206665652072 PUSH0 DUP3 ADD MSTORE PUSH32 0x6563656976657221000000000000000000000000000000000000000000000000 PUSH1 0x20 DUP3 ADD MSTORE POP JUMP JUMPDEST PUSH0 PUSH2 0x6C2E PUSH1 0x28 DUP4 PUSH2 0x565F JUMP JUMPDEST SWAP2 POP PUSH2 0x6C39 DUP3 PUSH2 0x6BD4 JUMP JUMPDEST PUSH1 0x40 DUP3 ADD SWAP1 POP SWAP2 SWAP1 POP JUMP JUMPDEST PUSH0 PUSH1 0x20 DUP3 ADD SWAP1 POP DUP2 DUP2 SUB PUSH0 DUP4 ADD MSTORE PUSH2 0x6C5B DUP2 PUSH2 0x6C22 JUMP JUMPDEST SWAP1 POP SWAP2 SWAP1 POP JUMP JUMPDEST PUSH0 PUSH2 0x6C6C DUP3 PUSH2 0x5720 JUMP JUMPDEST SWAP2 POP PUSH2 0x6C77 DUP4 PUSH2 0x5720 JUMP JUMPDEST SWAP3 POP DUP3 DUP3 MUL PUSH2 0x6C85 DUP2 PUSH2 0x5720 JUMP JUMPDEST SWAP2 POP DUP3 DUP3 DIV DUP5 EQ DUP4 ISZERO OR PUSH2 0x6C9C JUMPI PUSH2 0x6C9B PUSH2 0x6995 JUMP JUMPDEST JUMPDEST POP SWAP3 SWAP2 POP POP JUMP JUMPDEST PUSH32 0x4E487B7100000000000000000000000000000000000000000000000000000000 PUSH0 MSTORE PUSH1 0x12 PUSH1 0x4 MSTORE PUSH1 0x24 PUSH0 REVERT JUMPDEST PUSH0 PUSH2 0x6CDA DUP3 PUSH2 0x5720 JUMP JUMPDEST SWAP2 POP PUSH2 0x6CE5 DUP4 PUSH2 0x5720 JUMP JUMPDEST SWAP3 POP DUP3 PUSH2 0x6CF5 JUMPI PUSH2 0x6CF4 PUSH2 0x6CA3 JUMP JUMPDEST JUMPDEST DUP3 DUP3 DIV SWAP1 POP SWAP3 SWAP2 POP POP JUMP JUMPDEST PUSH0 PUSH1 0x80 DUP3 ADD SWAP1 POP PUSH2 0x6D13 PUSH0 DUP4 ADD DUP8 PUSH2 0x562D JUMP JUMPDEST PUSH2 0x6D20 PUSH1 0x20 DUP4 ADD DUP7 PUSH2 0x562D JUMP JUMPDEST PUSH2 0x6D2D PUSH1 0x40 DUP4 ADD DUP6 PUSH2 0x562D JUMP JUMPDEST PUSH2 0x6D3A PUSH1 0x60 DUP4 ADD DUP5 PUSH2 0x57EF JUMP JUMPDEST SWAP6 SWAP5 POP POP POP POP POP JUMP JUMPDEST PUSH0 PUSH1 0x60 DUP3 ADD SWAP1 POP PUSH2 0x6D56 PUSH0 DUP4 ADD DUP7 PUSH2 0x61BC JUMP JUMPDEST PUSH2 0x6D63 PUSH1 0x20 DUP4 ADD DUP6 PUSH2 0x57EF JUMP JUMPDEST PUSH2 0x6D70 PUSH1 0x40 DUP4 ADD DUP5 PUSH2 0x57EF JUMP JUMPDEST SWAP5 SWAP4 POP POP POP POP JUMP JUMPDEST PUSH0 PUSH1 0x40 DUP3 ADD SWAP1 POP PUSH2 0x6D8B PUSH0 DUP4 ADD DUP6 PUSH2 0x5E9F JUMP JUMPDEST PUSH2 0x6D98 PUSH1 0x20 DUP4 ADD DUP5 PUSH2 0x5E9F JUMP JUMPDEST SWAP4 SWAP3 POP POP POP JUMP JUMPDEST PUSH32 0x4665652065786365656473206D696E7420616D6F756E74000000000000000000 PUSH0 DUP3 ADD MSTORE POP JUMP JUMPDEST PUSH0 PUSH2 0x6DD3 PUSH1 0x17 DUP4 PUSH2 0x565F JUMP JUMPDEST SWAP2 POP PUSH2 0x6DDE DUP3 PUSH2 0x6D9F JUMP JUMPDEST PUSH1 0x20 DUP3 ADD SWAP1 POP SWAP2 SWAP1 POP JUMP JUMPDEST PUSH0 PUSH1 0x20 DUP3 ADD SWAP1 POP DUP2 DUP2 SUB PUSH0 DUP4 ADD MSTORE PUSH2 0x6E00 DUP2 PUSH2 0x6DC7 JUMP JUMPDEST SWAP1 POP SWAP2 SWAP1 POP JUMP JUMPDEST PUSH32 0x4345726332302063616E206F6E6C7920636F6C6C65637420666565732066726F PUSH0 DUP3 ADD MSTORE PUSH32 0x6D20756E6465726C79696E6720746F6B656E2100000000000000000000000000 PUSH1 0x20 DUP3 ADD MSTORE POP JUMP JUMPDEST PUSH0 PUSH2 0x6E61 PUSH1 0x33 DUP4 PUSH2 0x565F JUMP JUMPDEST SWAP2 POP PUSH2 0x6E6C DUP3 PUSH2 0x6E07 JUMP JUMPDEST PUSH1 0x40 DUP3 ADD SWAP1 POP SWAP2 SWAP1 POP JUMP JUMPDEST PUSH0 PUSH1 0x20 DUP3 ADD SWAP1 POP DUP2 DUP2 SUB PUSH0 DUP4 ADD MSTORE PUSH2 0x6E8E DUP2 PUSH2 0x6E55 JUMP JUMPDEST SWAP1 POP SWAP2 SWAP1 POP JUMP JUMPDEST PUSH0 PUSH1 0xA0 DUP3 ADD SWAP1 POP PUSH2 0x6EA8 PUSH0 DUP4 ADD DUP9 PUSH2 0x562D JUMP JUMPDEST PUSH2 0x6EB5 PUSH1 0x20 DUP4 ADD DUP8 PUSH2 0x562D JUMP JUMPDEST PUSH2 0x6EC2 PUSH1 0x40 DUP4 ADD DUP7 PUSH2 0x562D JUMP JUMPDEST PUSH2 0x6ECF PUSH1 0x60 DUP4 ADD DUP6 PUSH2 0x562D JUMP JUMPDEST PUSH2 0x6EDC PUSH1 0x80 DUP4 ADD DUP5 PUSH2 0x57EF JUMP JUMPDEST SWAP7 SWAP6 POP POP POP POP POP POP JUMP JUMPDEST PUSH0 PUSH1 0x60 DUP3 ADD SWAP1 POP PUSH2 0x6EF9 PUSH0 DUP4 ADD DUP7 PUSH2 0x562D JUMP JUMPDEST PUSH2 0x6F06 PUSH1 0x20 DUP4 ADD DUP6 PUSH2 0x57EF JUMP JUMPDEST PUSH2 0x6F13 PUSH1 0x40 DUP4 ADD DUP5 PUSH2 0x57EF JUMP JUMPDEST SWAP5 SWAP4 POP POP POP POP JUMP JUMPDEST PUSH0 PUSH1 0x40 DUP3 ADD SWAP1 POP PUSH2 0x6F2E PUSH0 DUP4 ADD DUP6 PUSH2 0x57EF JUMP JUMPDEST PUSH2 0x6F3B PUSH1 0x20 DUP4 ADD DUP5 PUSH2 0x57EF JUMP JUMPDEST SWAP4 SWAP3 POP POP POP JUMP JUMPDEST PUSH0 PUSH1 0xA0 DUP3 ADD SWAP1 POP PUSH2 0x6F55 PUSH0 DUP4 ADD DUP9 PUSH2 0x562D JUMP JUMPDEST PUSH2 0x6F62 PUSH1 0x20 DUP4 ADD DUP8 PUSH2 0x562D JUMP JUMPDEST PUSH2 0x6F6F PUSH1 0x40 DUP4 ADD DUP7 PUSH2 0x57EF JUMP JUMPDEST PUSH2 0x6F7C PUSH1 0x60 DUP4 ADD DUP6 PUSH2 0x57EF JUMP JUMPDEST PUSH2 0x6F89 PUSH1 0x80 DUP4 ADD DUP5 PUSH2 0x57EF JUMP JUMPDEST SWAP7 SWAP6 POP POP POP POP POP POP JUMP JUMPDEST PUSH32 0x544F4B454E5F5452414E534645525F4F55545F4641494C454400000000000000 PUSH0 DUP3 ADD MSTORE POP JUMP JUMPDEST PUSH0 PUSH2 0x6FC7 PUSH1 0x19 DUP4 PUSH2 0x565F JUMP JUMPDEST SWAP2 POP PUSH2 0x6FD2 DUP3 PUSH2 0x6F93 JUMP JUMPDEST PUSH1 0x20 DUP3 ADD SWAP1 POP SWAP2 SWAP1 POP JUMP JUMPDEST PUSH0 PUSH1 0x20 DUP3 ADD SWAP1 POP DUP2 DUP2 SUB PUSH0 DUP4 ADD MSTORE PUSH2 0x6FF4 DUP2 PUSH2 0x6FBB JUMP JUMPDEST SWAP1 POP SWAP2 SWAP1 POP JUMP JUMPDEST PUSH32 0x6F6E65206F662072656465656D546F6B656E73496E206F722072656465656D41 PUSH0 DUP3 ADD MSTORE PUSH32 0x6D6F756E74496E206D757374206265207A65726F000000000000000000000000 PUSH1 0x20 DUP3 ADD MSTORE POP JUMP JUMPDEST PUSH0 PUSH2 0x7055 PUSH1 0x34 DUP4 PUSH2 0x565F JUMP JUMPDEST SWAP2 POP PUSH2 0x7060 DUP3 PUSH2 0x6FFB JUMP JUMPDEST PUSH1 0x40 DUP3 ADD SWAP1 POP SWAP2 SWAP1 POP JUMP JUMPDEST PUSH0 PUSH1 0x20 DUP3 ADD SWAP1 POP DUP2 DUP2 SUB PUSH0 DUP4 ADD MSTORE PUSH2 0x7082 DUP2 PUSH2 0x7049 JUMP JUMPDEST SWAP1 POP SWAP2 SWAP1 POP JUMP JUMPDEST PUSH0 PUSH1 0x60 DUP3 ADD SWAP1 POP PUSH2 0x709C PUSH0 DUP4 ADD DUP7 PUSH2 0x562D JUMP JUMPDEST PUSH2 0x70A9 PUSH1 0x20 DUP4 ADD DUP6 PUSH2 0x61BC JUMP JUMPDEST PUSH2 0x70B6 PUSH1 0x40 DUP4 ADD DUP5 PUSH2 0x57EF JUMP JUMPDEST SWAP5 SWAP4 POP POP POP POP JUMP JUMPDEST PUSH0 PUSH1 0x80 DUP3 ADD SWAP1 POP PUSH2 0x70D1 PUSH0 DUP4 ADD DUP8 PUSH2 0x562D JUMP JUMPDEST PUSH2 0x70DE PUSH1 0x20 DUP4 ADD DUP7 PUSH2 0x61BC JUMP JUMPDEST PUSH2 0x70EB PUSH1 0x40 DUP4 ADD DUP6 PUSH2 0x57EF JUMP JUMPDEST PUSH2 0x70F8 PUSH1 0x60 DUP4 ADD DUP5 PUSH2 0x57EF JUMP JUMPDEST SWAP6 SWAP5 POP POP POP POP POP JUMP JUMPDEST PUSH0 PUSH1 0x60 DUP3 ADD SWAP1 POP PUSH2 0x7114 PUSH0 DUP4 ADD DUP7 PUSH2 0x562D JUMP JUMPDEST PUSH2 0x7121 PUSH1 0x20 DUP4 ADD DUP6 PUSH2 0x562D JUMP JUMPDEST PUSH2 0x712E PUSH1 0x40 DUP4 ADD DUP5 PUSH2 0x57EF JUMP JUMPDEST SWAP5 SWAP4 POP POP POP POP JUMP JUMPDEST PUSH0 PUSH1 0x80 DUP3 ADD SWAP1 POP PUSH2 0x7149 PUSH0 DUP4 ADD DUP8 PUSH2 0x61BC JUMP JUMPDEST PUSH2 0x7156 PUSH1 0x20 DUP4 ADD DUP7 PUSH2 0x57EF JUMP JUMPDEST PUSH2 0x7163 PUSH1 0x40 DUP4 ADD DUP6 PUSH2 0x57EF JUMP JUMPDEST PUSH2 0x7170 PUSH1 0x60 DUP4 ADD DUP5 PUSH2 0x57EF JUMP JUMPDEST SWAP6 SWAP5 POP POP POP POP POP JUMP JUMPDEST PUSH0 PUSH0 PUSH1 0x40 DUP4 DUP6 SUB SLT ISZERO PUSH2 0x718F JUMPI PUSH2 0x718E PUSH2 0x56EE JUMP JUMPDEST JUMPDEST PUSH0 PUSH2 0x719C DUP6 DUP3 DUP7 ADD PUSH2 0x616C JUMP JUMPDEST SWAP3 POP POP PUSH1 0x20 PUSH2 0x71AD DUP6 DUP3 DUP7 ADD PUSH2 0x616C JUMP JUMPDEST SWAP2 POP POP SWAP3 POP SWAP3 SWAP1 POP JUMP JUMPDEST PUSH32 0x4C49515549444154455F434F4D5054524F4C4C45525F43414C43554C4154455F PUSH0 DUP3 ADD MSTORE PUSH32 0x414D4F554E545F5345495A455F4641494C454400000000000000000000000000 PUSH1 0x20 DUP3 ADD MSTORE POP JUMP JUMPDEST PUSH0 PUSH2 0x7211 PUSH1 0x33 DUP4 PUSH2 0x565F JUMP JUMPDEST SWAP2 POP PUSH2 0x721C DUP3 PUSH2 0x71B7 JUMP JUMPDEST PUSH1 0x40 DUP3 ADD SWAP1 POP SWAP2 SWAP1 POP JUMP JUMPDEST PUSH0 PUSH1 0x20 DUP3 ADD SWAP1 POP DUP2 DUP2 SUB PUSH0 DUP4 ADD MSTORE PUSH2 0x723E DUP2 PUSH2 0x7205 JUMP JUMPDEST SWAP1 POP SWAP2 SWAP1 POP JUMP JUMPDEST PUSH32 0x4C49515549444154455F5345495A455F544F4F5F4D5543480000000000000000 PUSH0 DUP3 ADD MSTORE POP JUMP JUMPDEST PUSH0 PUSH2 0x7279 PUSH1 0x18 DUP4 PUSH2 0x565F JUMP JUMPDEST SWAP2 POP PUSH2 0x7284 DUP3 PUSH2 0x7245 JUMP JUMPDEST PUSH1 0x20 DUP3 ADD SWAP1 POP SWAP2 SWAP1 POP JUMP JUMPDEST PUSH0 PUSH1 0x20 DUP3 ADD SWAP1 POP DUP2 DUP2 SUB PUSH0 DUP4 ADD MSTORE PUSH2 0x72A6 DUP2 PUSH2 0x726D JUMP JUMPDEST SWAP1 POP SWAP2 SWAP1 POP JUMP JUMPDEST PUSH32 0x746F6B656E207365697A757265206661696C6564000000000000000000000000 PUSH0 DUP3 ADD MSTORE POP JUMP JUMPDEST PUSH0 PUSH2 0x72E1 PUSH1 0x14 DUP4 PUSH2 0x565F JUMP JUMPDEST SWAP2 POP PUSH2 0x72EC DUP3 PUSH2 0x72AD JUMP JUMPDEST PUSH1 0x20 DUP3 ADD SWAP1 POP SWAP2 SWAP1 POP JUMP JUMPDEST PUSH0 PUSH1 0x20 DUP3 ADD SWAP1 POP DUP2 DUP2 SUB PUSH0 DUP4 ADD MSTORE PUSH2 0x730E DUP2 PUSH2 0x72D5 JUMP JUMPDEST SWAP1 POP SWAP2 SWAP1 POP JUMP JUMPDEST PUSH0 PUSH1 0xA0 DUP3 ADD SWAP1 POP PUSH2 0x7328 PUSH0 DUP4 ADD DUP9 PUSH2 0x562D JUMP JUMPDEST PUSH2 0x7335 PUSH1 0x20 DUP4 ADD DUP8 PUSH2 0x562D JUMP JUMPDEST PUSH2 0x7342 PUSH1 0x40 DUP4 ADD DUP7 PUSH2 0x57EF JUMP JUMPDEST PUSH2 0x734F PUSH1 0x60 DUP4 ADD DUP6 PUSH2 0x562D JUMP JUMPDEST PUSH2 0x735C PUSH1 0x80 DUP4 ADD DUP5 PUSH2 0x57EF JUMP JUMPDEST SWAP7 SWAP6 POP POP POP POP POP POP JUMP JUMPDEST PUSH32 0x544F4B454E5F5452414E534645525F494E5F4641494C45440000000000000000 PUSH0 DUP3 ADD MSTORE POP JUMP JUMPDEST PUSH0 PUSH2 0x739A PUSH1 0x18 DUP4 PUSH2 0x565F JUMP JUMPDEST SWAP2 POP PUSH2 0x73A5 DUP3 PUSH2 0x7366 JUMP JUMPDEST PUSH1 0x20 DUP3 ADD SWAP1 POP SWAP2 SWAP1 POP JUMP JUMPDEST PUSH0 PUSH1 0x20 DUP3 ADD SWAP1 POP DUP2 DUP2 SUB PUSH0 DUP4 ADD MSTORE PUSH2 0x73C7 DUP2 PUSH2 0x738E JUMP JUMPDEST SWAP1 POP SWAP2 SWAP1 POP JUMP INVALID LOG2 PUSH5 0x6970667358 0x22 SLT KECCAK256 DIV PREVRANDAO XOR DUP10 0xD5 0xC2 DUP3 DUP15 JUMPDEST 0xD6 PUSH23 0x738C35DDB4B9391974E1674B1187EEEF4DE5D64A16473 PUSH16 0x6C634300081B00330000000000000000 "
		},
		"gasEstimates": {
			"creation": {
				"codeDepositCost": "5940000",
				"executionCost": "infinite",
				"totalCost": "infinite"
			},
			"external": {
				"NO_ERROR()": "392",
				"_acceptAdmin()": "infinite",
				"_addReserves(uint256)": "infinite",
				"_delegateCompLikeTo(address)": "infinite",
				"_reduceReserves(uint256)": "infinite",
				"_setComptroller(address)": "infinite",
				"_setInterestRateModel(address)": "infinite",
				"_setPendingAdmin(address)": "infinite",
				"_setReserveFactor(uint256)": "infinite",
				"accrualBlockNumber()": "2515",
				"accrueInterest()": "infinite",
				"admin()": "2692",
				"allowance(address,address)": "infinite",
				"approve(address,uint256)": "infinite",
				"balanceOf(address)": "2963",
				"balanceOfUnderlying(address)": "infinite",
				"borrow(uint256)": "infinite",
				"borrowBalanceCurrent(address)": "infinite",
				"borrowBalanceStored(address)": "infinite",
				"borrowIndex()": "2537",
				"borrowRatePerBlock()": "infinite",
				"collectedFees()": "2494",
				"comptroller()": "infinite",
				"decimals()": "2578",
				"distributeFees()": "infinite",
				"exchangeRateCurrent()": "infinite",
				"exchangeRateStored()": "infinite",
				"feeTo()": "2578",
				"getAccountSnapshot(address)": "infinite",
				"getCash()": "infinite",
				"initialize(address,address,address,uint256,string,string,uint8,address,uint256)": "infinite",
				"initialize(address,address,uint256,string,string,uint8)": "infinite",
				"interestRateModel()": "infinite",
				"isCToken()": "463",
				"liquidateBorrow(address,uint256,address)": "infinite",
				"mint(uint256)": "infinite",
				"mintFeeBps()": "2493",
				"name()": "infinite",
				"pendingAdmin()": "2598",
				"protocolSeizeShareMantissa()": "459",
				"redeem(uint256)": "infinite",
				"redeemUnderlying(uint256)": "infinite",
				"repayBorrow(uint256)": "infinite",
				"repayBorrowBehalf(address,uint256)": "infinite",
				"reserveFactorMantissa()": "2516",
				"seize(address,address,uint256)": "infinite",
				"setFeeTo(address)": "27024",
				"setMintFee(uint256)": "24872",
				"supplyRatePerBlock()": "infinite",
				"sweepToken(address)": "infinite",
				"symbol()": "infinite",
				"token()": "infinite",
				"totalBorrows()": "2493",
				"totalBorrowsCurrent()": "infinite",
				"totalReserves()": "2558",
				"totalSupply()": "2560",
				"transfer(address,uint256)": "infinite",
				"transferFrom(address,address,uint256)": "infinite",
				"underlying()": "2620"
			}
		},
		"methodIdentifiers": {
			"NO_ERROR()": "69ab3250",
			"_acceptAdmin()": "e9c714f2",
			"_addReserves(uint256)": "3e941010",
			"_delegateCompLikeTo(address)": "7f1e06be",
			"_reduceReserves(uint256)": "601a0bf1",
			"_setComptroller(address)": "4576b5db",
			"_setInterestRateModel(address)": "f2b3abbd",
			"_setPendingAdmin(address)": "b71d1a0c",
			"_setReserveFactor(uint256)": "fca7820b",
			"accrualBlockNumber()": "6c540baf",
			"accrueInterest()": "a6afed95",
			"admin()": "f851a440",
			"allowance(address,address)": "dd62ed3e",
			"approve(address,uint256)": "095ea7b3",
			"balanceOf(address)": "70a08231",
			"balanceOfUnderlying(address)": "3af9e669",
			"borrow(uint256)": "c5ebeaec",
			"borrowBalanceCurrent(address)": "17bfdfbc",
			"borrowBalanceStored(address)": "95dd9193",
			"borrowIndex()": "aa5af0fd",
			"borrowRatePerBlock()": "f8f9da28",
			"collectedFees()": "9003adfe",
			"comptroller()": "5fe3b567",
			"decimals()": "313ce567",
			"distributeFees()": "bb57ad20",
			"exchangeRateCurrent()": "bd6d894d",
			"exchangeRateStored()": "182df0f5",
			"feeTo()": "017e7e58",
			"getAccountSnapshot(address)": "c37f68e2",
			"getCash()": "3b1d21a2",
			"initialize(address,address,address,uint256,string,string,uint8,address,uint256)": "a07eaa06",
			"initialize(address,address,uint256,string,string,uint8)": "99d8c1b4",
			"interestRateModel()": "f3fdb15a",
			"isCToken()": "fe9c44ae",
			"liquidateBorrow(address,uint256,address)": "f5e3c462",
			"mint(uint256)": "a0712d68",
			"mintFeeBps()": "97c8bcc1",
			"name()": "06fdde03",
			"pendingAdmin()": "26782247",
			"protocolSeizeShareMantissa()": "6752e702",
			"redeem(uint256)": "db006a75",
			"redeemUnderlying(uint256)": "852a12e3",
			"repayBorrow(uint256)": "0e752702",
			"repayBorrowBehalf(address,uint256)": "2608f818",
			"reserveFactorMantissa()": "173b9904",
			"seize(address,address,uint256)": "b2a02ff1",
			"setFeeTo(address)": "f46901ed",
			"setMintFee(uint256)": "eddd0d9c",
			"supplyRatePerBlock()": "ae9d70b0",
			"sweepToken(address)": "1be19560",
			"symbol()": "95d89b41",
			"token()": "fc0c546a",
			"totalBorrows()": "47bd3718",
			"totalBorrowsCurrent()": "73acee98",
			"totalReserves()": "8f840ddd",
			"totalSupply()": "18160ddd",
			"transfer(address,uint256)": "a9059cbb",
			"transferFrom(address,address,uint256)": "23b872dd",
			"underlying()": "6f307dc3"
		}
	},
	"abi": [
		{
			"inputs": [
				{
					"internalType": "address",
					"name": "underlying_",
					"type": "address"
				},
				{
					"internalType": "contract ComptrollerInterface",
					"name": "comptroller_",
					"type": "address"
				},
				{
					"internalType": "contract InterestRateModel",
					"name": "interestRateModel_",
					"type": "address"
				},
				{
					"internalType": "uint256",
					"name": "initialExchangeRateMantissa_",
					"type": "uint256"
				},
				{
					"internalType": "string",
					"name": "name_",
					"type": "string"
				},
				{
					"internalType": "string",
					"name": "symbol_",
					"type": "string"
				},
				{
					"internalType": "uint8",
					"name": "decimals_",
					"type": "uint8"
				},
				{
					"internalType": "address",
					"name": "feeReceiver",
					"type": "address"
				},
				{
					"internalType": "uint256",
					"name": "mintFee",
					"type": "uint256"
				},
				{
					"internalType": "address payable",
					"name": "admin_",
					"type": "address"
				}
			],
			"stateMutability": "nonpayable",
			"type": "constructor"
		},
		{
			"inputs": [],
			"name": "AcceptAdminPendingAdminCheck",
			"type": "error"
		},
		{
			"inputs": [
				{
					"internalType": "uint256",
					"name": "actualAddAmount",
					"type": "uint256"
				}
			],
			"name": "AddReservesFactorFreshCheck",
			"type": "error"
		},
		{
			"inputs": [],
			"name": "BorrowCashNotAvailable",
			"type": "error"
		},
		{
			"inputs": [
				{
					"internalType": "uint256",
					"name": "errorCode",
					"type": "uint256"
				}
			],
			"name": "BorrowComptrollerRejection",
			"type": "error"
		},
		{
			"inputs": [],
			"name": "BorrowFreshnessCheck",
			"type": "error"
		},
		{
			"inputs": [
				{
					"internalType": "uint256",
					"name": "errorCode",
					"type": "uint256"
				}
			],
			"name": "LiquidateAccrueBorrowInterestFailed",
			"type": "error"
		},
		{
			"inputs": [
				{
					"internalType": "uint256",
					"name": "errorCode",
					"type": "uint256"
				}
			],
			"name": "LiquidateAccrueCollateralInterestFailed",
			"type": "error"
		},
		{
			"inputs": [],
			"name": "LiquidateCloseAmountIsUintMax",
			"type": "error"
		},
		{
			"inputs": [],
			"name": "LiquidateCloseAmountIsZero",
			"type": "error"
		},
		{
			"inputs": [],
			"name": "LiquidateCollateralFreshnessCheck",
			"type": "error"
		},
		{
			"inputs": [
				{
					"internalType": "uint256",
					"name": "errorCode",
					"type": "uint256"
				}
			],
			"name": "LiquidateComptrollerRejection",
			"type": "error"
		},
		{
			"inputs": [],
			"name": "LiquidateFreshnessCheck",
			"type": "error"
		},
		{
			"inputs": [],
			"name": "LiquidateLiquidatorIsBorrower",
			"type": "error"
		},
		{
			"inputs": [
				{
					"internalType": "uint256",
					"name": "errorCode",
					"type": "uint256"
				}
			],
			"name": "LiquidateRepayBorrowFreshFailed",
			"type": "error"
		},
		{
			"inputs": [
				{
					"internalType": "uint256",
					"name": "errorCode",
					"type": "uint256"
				}
			],
			"name": "LiquidateSeizeComptrollerRejection",
			"type": "error"
		},
		{
			"inputs": [],
			"name": "LiquidateSeizeLiquidatorIsBorrower",
			"type": "error"
		},
		{
			"inputs": [
				{
					"internalType": "uint256",
					"name": "errorCode",
					"type": "uint256"
				}
			],
			"name": "MintComptrollerRejection",
			"type": "error"
		},
		{
			"inputs": [],
			"name": "MintFreshnessCheck",
			"type": "error"
		},
		{
			"inputs": [
				{
					"internalType": "uint256",
					"name": "errorCode",
					"type": "uint256"
				}
			],
			"name": "RedeemComptrollerRejection",
			"type": "error"
		},
		{
			"inputs": [],
			"name": "RedeemFreshnessCheck",
			"type": "error"
		},
		{
			"inputs": [],
			"name": "RedeemTransferOutNotPossible",
			"type": "error"
		},
		{
			"inputs": [],
			"name": "ReduceReservesAdminCheck",
			"type": "error"
		},
		{
			"inputs": [],
			"name": "ReduceReservesCashNotAvailable",
			"type": "error"
		},
		{
			"inputs": [],
			"name": "ReduceReservesCashValidation",
			"type": "error"
		},
		{
			"inputs": [],
			"name": "ReduceReservesFreshCheck",
			"type": "error"
		},
		{
			"inputs": [
				{
					"internalType": "uint256",
					"name": "errorCode",
					"type": "uint256"
				}
			],
			"name": "RepayBorrowComptrollerRejection",
			"type": "error"
		},
		{
			"inputs": [],
			"name": "RepayBorrowFreshnessCheck",
			"type": "error"
		},
		{
			"inputs": [],
			"name": "SetComptrollerOwnerCheck",
			"type": "error"
		},
		{
			"inputs": [],
			"name": "SetInterestRateModelFreshCheck",
			"type": "error"
		},
		{
			"inputs": [],
			"name": "SetInterestRateModelOwnerCheck",
			"type": "error"
		},
		{
			"inputs": [],
			"name": "SetPendingAdminOwnerCheck",
			"type": "error"
		},
		{
			"inputs": [],
			"name": "SetReserveFactorAdminCheck",
			"type": "error"
		},
		{
			"inputs": [],
			"name": "SetReserveFactorBoundsCheck",
			"type": "error"
		},
		{
			"inputs": [],
			"name": "SetReserveFactorFreshCheck",
			"type": "error"
		},
		{
			"inputs": [
				{
					"internalType": "uint256",
					"name": "errorCode",
					"type": "uint256"
				}
			],
			"name": "TransferComptrollerRejection",
			"type": "error"
		},
		{
			"inputs": [],
			"name": "TransferNotAllowed",
			"type": "error"
		},
		{
			"inputs": [],
			"name": "TransferNotEnough",
			"type": "error"
		},
		{
			"inputs": [],
			"name": "TransferTooMuch",
			"type": "error"
		},
		{
			"anonymous": false,
			"inputs": [
				{
					"indexed": false,
					"internalType": "uint256",
					"name": "cashPrior",
					"type": "uint256"
				},
				{
					"indexed": false,
					"internalType": "uint256",
					"name": "interestAccumulated",
					"type": "uint256"
				},
				{
					"indexed": false,
					"internalType": "uint256",
					"name": "borrowIndex",
					"type": "uint256"
				},
				{
					"indexed": false,
					"internalType": "uint256",
					"name": "totalBorrows",
					"type": "uint256"
				}
			],
			"name": "AccrueInterest",
			"type": "event"
		},
		{
			"anonymous": false,
			"inputs": [
				{
					"indexed": true,
					"internalType": "address",
					"name": "owner",
					"type": "address"
				},
				{
					"indexed": true,
					"internalType": "address",
					"name": "spender",
					"type": "address"
				},
				{
					"indexed": false,
					"internalType": "uint256",
					"name": "amount",
					"type": "uint256"
				}
			],
			"name": "Approval",
			"type": "event"
		},
		{
			"anonymous": false,
			"inputs": [
				{
					"indexed": false,
					"internalType": "address",
					"name": "borrower",
					"type": "address"
				},
				{
					"indexed": false,
					"internalType": "uint256",
					"name": "borrowAmount",
					"type": "uint256"
				},
				{
					"indexed": false,
					"internalType": "uint256",
					"name": "accountBorrows",
					"type": "uint256"
				},
				{
					"indexed": false,
					"internalType": "uint256",
					"name": "totalBorrows",
					"type": "uint256"
				}
			],
			"name": "Borrow",
			"type": "event"
		},
		{
			"anonymous": false,
			"inputs": [
				{
					"indexed": false,
					"internalType": "address",
					"name": "liquidator",
					"type": "address"
				},
				{
					"indexed": false,
					"internalType": "address",
					"name": "borrower",
					"type": "address"
				},
				{
					"indexed": false,
					"internalType": "uint256",
					"name": "repayAmount",
					"type": "uint256"
				},
				{
					"indexed": false,
					"internalType": "address",
					"name": "cTokenCollateral",
					"type": "address"
				},
				{
					"indexed": false,
					"internalType": "uint256",
					"name": "seizeTokens",
					"type": "uint256"
				}
			],
			"name": "LiquidateBorrow",
			"type": "event"
		},
		{
			"anonymous": false,
			"inputs": [
				{
					"indexed": false,
					"internalType": "address",
					"name": "minter",
					"type": "address"
				},
				{
					"indexed": false,
					"internalType": "uint256",
					"name": "mintAmount",
					"type": "uint256"
				},
				{
					"indexed": false,
					"internalType": "uint256",
					"name": "mintTokens",
					"type": "uint256"
				}
			],
			"name": "Mint",
			"type": "event"
		},
		{
			"anonymous": false,
			"inputs": [
				{
					"indexed": true,
					"internalType": "address",
					"name": "underlying",
					"type": "address"
				},
				{
					"indexed": true,
					"internalType": "address",
					"name": "minter",
					"type": "address"
				},
				{
					"indexed": false,
					"internalType": "uint256",
					"name": "feeAmount",
					"type": "uint256"
				}
			],
			"name": "MintFeeCollected",
			"type": "event"
		},
		{
			"anonymous": false,
			"inputs": [
				{
					"indexed": false,
					"internalType": "address",
					"name": "oldAdmin",
					"type": "address"
				},
				{
					"indexed": false,
					"internalType": "address",
					"name": "newAdmin",
					"type": "address"
				}
			],
			"name": "NewAdmin",
			"type": "event"
		},
		{
			"anonymous": false,
			"inputs": [
				{
					"indexed": false,
					"internalType": "contract ComptrollerInterface",
					"name": "oldComptroller",
					"type": "address"
				},
				{
					"indexed": false,
					"internalType": "contract ComptrollerInterface",
					"name": "newComptroller",
					"type": "address"
				}
			],
			"name": "NewComptroller",
			"type": "event"
		},
		{
			"anonymous": false,
			"inputs": [
				{
					"indexed": false,
					"internalType": "contract InterestRateModel",
					"name": "oldInterestRateModel",
					"type": "address"
				},
				{
					"indexed": false,
					"internalType": "contract InterestRateModel",
					"name": "newInterestRateModel",
					"type": "address"
				}
			],
			"name": "NewMarketInterestRateModel",
			"type": "event"
		},
		{
			"anonymous": false,
			"inputs": [
				{
					"indexed": false,
					"internalType": "address",
					"name": "oldPendingAdmin",
					"type": "address"
				},
				{
					"indexed": false,
					"internalType": "address",
					"name": "newPendingAdmin",
					"type": "address"
				}
			],
			"name": "NewPendingAdmin",
			"type": "event"
		},
		{
			"anonymous": false,
			"inputs": [
				{
					"indexed": false,
					"internalType": "uint256",
					"name": "oldReserveFactorMantissa",
					"type": "uint256"
				},
				{
					"indexed": false,
					"internalType": "uint256",
					"name": "newReserveFactorMantissa",
					"type": "uint256"
				}
			],
			"name": "NewReserveFactor",
			"type": "event"
		},
		{
			"anonymous": false,
			"inputs": [
				{
					"indexed": false,
					"internalType": "address",
					"name": "redeemer",
					"type": "address"
				},
				{
					"indexed": false,
					"internalType": "uint256",
					"name": "redeemAmount",
					"type": "uint256"
				},
				{
					"indexed": false,
					"internalType": "uint256",
					"name": "redeemTokens",
					"type": "uint256"
				}
			],
			"name": "Redeem",
			"type": "event"
		},
		{
			"anonymous": false,
			"inputs": [
				{
					"indexed": false,
					"internalType": "address",
					"name": "payer",
					"type": "address"
				},
				{
					"indexed": false,
					"internalType": "address",
					"name": "borrower",
					"type": "address"
				},
				{
					"indexed": false,
					"internalType": "uint256",
					"name": "repayAmount",
					"type": "uint256"
				},
				{
					"indexed": false,
					"internalType": "uint256",
					"name": "accountBorrows",
					"type": "uint256"
				},
				{
					"indexed": false,
					"internalType": "uint256",
					"name": "totalBorrows",
					"type": "uint256"
				}
			],
			"name": "RepayBorrow",
			"type": "event"
		},
		{
			"anonymous": false,
			"inputs": [
				{
					"indexed": false,
					"internalType": "address",
					"name": "benefactor",
					"type": "address"
				},
				{
					"indexed": false,
					"internalType": "uint256",
					"name": "addAmount",
					"type": "uint256"
				},
				{
					"indexed": false,
					"internalType": "uint256",
					"name": "newTotalReserves",
					"type": "uint256"
				}
			],
			"name": "ReservesAdded",
			"type": "event"
		},
		{
			"anonymous": false,
			"inputs": [
				{
					"indexed": false,
					"internalType": "address",
					"name": "admin",
					"type": "address"
				},
				{
					"indexed": false,
					"internalType": "uint256",
					"name": "reduceAmount",
					"type": "uint256"
				},
				{
					"indexed": false,
					"internalType": "uint256",
					"name": "newTotalReserves",
					"type": "uint256"
				}
			],
			"name": "ReservesReduced",
			"type": "event"
		},
		{
			"anonymous": false,
			"inputs": [
				{
					"indexed": true,
					"internalType": "address",
					"name": "from",
					"type": "address"
				},
				{
					"indexed": true,
					"internalType": "address",
					"name": "to",
					"type": "address"
				},
				{
					"indexed": false,
					"internalType": "uint256",
					"name": "amount",
					"type": "uint256"
				}
			],
			"name": "Transfer",
			"type": "event"
		},
		{
			"inputs": [],
			"name": "NO_ERROR",
			"outputs": [
				{
					"internalType": "uint256",
					"name": "",
					"type": "uint256"
				}
			],
			"stateMutability": "view",
			"type": "function"
		},
		{
			"inputs": [],
			"name": "_acceptAdmin",
			"outputs": [
				{
					"internalType": "uint256",
					"name": "",
					"type": "uint256"
				}
			],
			"stateMutability": "nonpayable",
			"type": "function"
		},
		{
			"inputs": [
				{
					"internalType": "uint256",
					"name": "addAmount",
					"type": "uint256"
				}
			],
			"name": "_addReserves",
			"outputs": [
				{
					"internalType": "uint256",
					"name": "",
					"type": "uint256"
				}
			],
			"stateMutability": "nonpayable",
			"type": "function"
		},
		{
			"inputs": [
				{
					"internalType": "address",
					"name": "compLikeDelegatee",
					"type": "address"
				}
			],
			"name": "_delegateCompLikeTo",
			"outputs": [],
			"stateMutability": "nonpayable",
			"type": "function"
		},
		{
			"inputs": [
				{
					"internalType": "uint256",
					"name": "reduceAmount",
					"type": "uint256"
				}
			],
			"name": "_reduceReserves",
			"outputs": [
				{
					"internalType": "uint256",
					"name": "",
					"type": "uint256"
				}
			],
			"stateMutability": "nonpayable",
			"type": "function"
		},
		{
			"inputs": [
				{
					"internalType": "contract ComptrollerInterface",
					"name": "newComptroller",
					"type": "address"
				}
			],
			"name": "_setComptroller",
			"outputs": [
				{
					"internalType": "uint256",
					"name": "",
					"type": "uint256"
				}
			],
			"stateMutability": "nonpayable",
			"type": "function"
		},
		{
			"inputs": [
				{
					"internalType": "contract InterestRateModel",
					"name": "newInterestRateModel",
					"type": "address"
				}
			],
			"name": "_setInterestRateModel",
			"outputs": [
				{
					"internalType": "uint256",
					"name": "",
					"type": "uint256"
				}
			],
			"stateMutability": "nonpayable",
			"type": "function"
		},
		{
			"inputs": [
				{
					"internalType": "address payable",
					"name": "newPendingAdmin",
					"type": "address"
				}
			],
			"name": "_setPendingAdmin",
			"outputs": [
				{
					"internalType": "uint256",
					"name": "",
					"type": "uint256"
				}
			],
			"stateMutability": "nonpayable",
			"type": "function"
		},
		{
			"inputs": [
				{
					"internalType": "uint256",
					"name": "newReserveFactorMantissa",
					"type": "uint256"
				}
			],
			"name": "_setReserveFactor",
			"outputs": [
				{
					"internalType": "uint256",
					"name": "",
					"type": "uint256"
				}
			],
			"stateMutability": "nonpayable",
			"type": "function"
		},
		{
			"inputs": [],
			"name": "accrualBlockNumber",
			"outputs": [
				{
					"internalType": "uint256",
					"name": "",
					"type": "uint256"
				}
			],
			"stateMutability": "view",
			"type": "function"
		},
		{
			"inputs": [],
			"name": "accrueInterest",
			"outputs": [
				{
					"internalType": "uint256",
					"name": "",
					"type": "uint256"
				}
			],
			"stateMutability": "nonpayable",
			"type": "function"
		},
		{
			"inputs": [],
			"name": "admin",
			"outputs": [
				{
					"internalType": "address payable",
					"name": "",
					"type": "address"
				}
			],
			"stateMutability": "view",
			"type": "function"
		},
		{
			"inputs": [
				{
					"internalType": "address",
					"name": "owner",
					"type": "address"
				},
				{
					"internalType": "address",
					"name": "spender",
					"type": "address"
				}
			],
			"name": "allowance",
			"outputs": [
				{
					"internalType": "uint256",
					"name": "",
					"type": "uint256"
				}
			],
			"stateMutability": "view",
			"type": "function"
		},
		{
			"inputs": [
				{
					"internalType": "address",
					"name": "spender",
					"type": "address"
				},
				{
					"internalType": "uint256",
					"name": "amount",
					"type": "uint256"
				}
			],
			"name": "approve",
			"outputs": [
				{
					"internalType": "bool",
					"name": "",
					"type": "bool"
				}
			],
			"stateMutability": "nonpayable",
			"type": "function"
		},
		{
			"inputs": [
				{
					"internalType": "address",
					"name": "owner",
					"type": "address"
				}
			],
			"name": "balanceOf",
			"outputs": [
				{
					"internalType": "uint256",
					"name": "",
					"type": "uint256"
				}
			],
			"stateMutability": "view",
			"type": "function"
		},
		{
			"inputs": [
				{
					"internalType": "address",
					"name": "owner",
					"type": "address"
				}
			],
			"name": "balanceOfUnderlying",
			"outputs": [
				{
					"internalType": "uint256",
					"name": "",
					"type": "uint256"
				}
			],
			"stateMutability": "nonpayable",
			"type": "function"
		},
		{
			"inputs": [
				{
					"internalType": "uint256",
					"name": "borrowAmount",
					"type": "uint256"
				}
			],
			"name": "borrow",
			"outputs": [
				{
					"internalType": "uint256",
					"name": "",
					"type": "uint256"
				}
			],
			"stateMutability": "nonpayable",
			"type": "function"
		},
		{
			"inputs": [
				{
					"internalType": "address",
					"name": "account",
					"type": "address"
				}
			],
			"name": "borrowBalanceCurrent",
			"outputs": [
				{
					"internalType": "uint256",
					"name": "",
					"type": "uint256"
				}
			],
			"stateMutability": "nonpayable",
			"type": "function"
		},
		{
			"inputs": [
				{
					"internalType": "address",
					"name": "account",
					"type": "address"
				}
			],
			"name": "borrowBalanceStored",
			"outputs": [
				{
					"internalType": "uint256",
					"name": "",
					"type": "uint256"
				}
			],
			"stateMutability": "view",
			"type": "function"
		},
		{
			"inputs": [],
			"name": "borrowIndex",
			"outputs": [
				{
					"internalType": "uint256",
					"name": "",
					"type": "uint256"
				}
			],
			"stateMutability": "view",
			"type": "function"
		},
		{
			"inputs": [],
			"name": "borrowRatePerBlock",
			"outputs": [
				{
					"internalType": "uint256",
					"name": "",
					"type": "uint256"
				}
			],
			"stateMutability": "view",
			"type": "function"
		},
		{
			"inputs": [],
			"name": "collectedFees",
			"outputs": [
				{
					"internalType": "uint256",
					"name": "",
					"type": "uint256"
				}
			],
			"stateMutability": "view",
			"type": "function"
		},
		{
			"inputs": [],
			"name": "comptroller",
			"outputs": [
				{
					"internalType": "contract ComptrollerInterface",
					"name": "",
					"type": "address"
				}
			],
			"stateMutability": "view",
			"type": "function"
		},
		{
			"inputs": [],
			"name": "decimals",
			"outputs": [
				{
					"internalType": "uint8",
					"name": "",
					"type": "uint8"
				}
			],
			"stateMutability": "view",
			"type": "function"
		},
		{
			"inputs": [],
			"name": "distributeFees",
			"outputs": [],
			"stateMutability": "nonpayable",
			"type": "function"
		},
		{
			"inputs": [],
			"name": "exchangeRateCurrent",
			"outputs": [
				{
					"internalType": "uint256",
					"name": "",
					"type": "uint256"
				}
			],
			"stateMutability": "nonpayable",
			"type": "function"
		},
		{
			"inputs": [],
			"name": "exchangeRateStored",
			"outputs": [
				{
					"internalType": "uint256",
					"name": "",
					"type": "uint256"
				}
			],
			"stateMutability": "view",
			"type": "function"
		},
		{
			"inputs": [],
			"name": "feeTo",
			"outputs": [
				{
					"internalType": "address",
					"name": "",
					"type": "address"
				}
			],
			"stateMutability": "view",
			"type": "function"
		},
		{
			"inputs": [
				{
					"internalType": "address",
					"name": "account",
					"type": "address"
				}
			],
			"name": "getAccountSnapshot",
			"outputs": [
				{
					"internalType": "uint256",
					"name": "",
					"type": "uint256"
				},
				{
					"internalType": "uint256",
					"name": "",
					"type": "uint256"
				},
				{
					"internalType": "uint256",
					"name": "",
					"type": "uint256"
				},
				{
					"internalType": "uint256",
					"name": "",
					"type": "uint256"
				}
			],
			"stateMutability": "view",
			"type": "function"
		},
		{
			"inputs": [],
			"name": "getCash",
			"outputs": [
				{
					"internalType": "uint256",
					"name": "",
					"type": "uint256"
				}
			],
			"stateMutability": "view",
			"type": "function"
		},
		{
			"inputs": [
				{
					"internalType": "contract ComptrollerInterface",
					"name": "comptroller_",
					"type": "address"
				},
				{
					"internalType": "contract InterestRateModel",
					"name": "interestRateModel_",
					"type": "address"
				},
				{
					"internalType": "uint256",
					"name": "initialExchangeRateMantissa_",
					"type": "uint256"
				},
				{
					"internalType": "string",
					"name": "name_",
					"type": "string"
				},
				{
					"internalType": "string",
					"name": "symbol_",
					"type": "string"
				},
				{
					"internalType": "uint8",
					"name": "decimals_",
					"type": "uint8"
				}
			],
			"name": "initialize",
			"outputs": [],
			"stateMutability": "nonpayable",
			"type": "function"
		},
		{
			"inputs": [
				{
					"internalType": "address",
					"name": "underlying_",
					"type": "address"
				},
				{
					"internalType": "contract ComptrollerInterface",
					"name": "comptroller_",
					"type": "address"
				},
				{
					"internalType": "contract InterestRateModel",
					"name": "interestRateModel_",
					"type": "address"
				},
				{
					"internalType": "uint256",
					"name": "initialExchangeRateMantissa_",
					"type": "uint256"
				},
				{
					"internalType": "string",
					"name": "name_",
					"type": "string"
				},
				{
					"internalType": "string",
					"name": "symbol_",
					"type": "string"
				},
				{
					"internalType": "uint8",
					"name": "decimals_",
					"type": "uint8"
				},
				{
					"internalType": "address",
					"name": "feeReceiver",
					"type": "address"
				},
				{
					"internalType": "uint256",
					"name": "mintFee",
					"type": "uint256"
				}
			],
			"name": "initialize",
			"outputs": [],
			"stateMutability": "nonpayable",
			"type": "function"
		},
		{
			"inputs": [],
			"name": "interestRateModel",
			"outputs": [
				{
					"internalType": "contract InterestRateModel",
					"name": "",
					"type": "address"
				}
			],
			"stateMutability": "view",
			"type": "function"
		},
		{
			"inputs": [],
			"name": "isCToken",
			"outputs": [
				{
					"internalType": "bool",
					"name": "",
					"type": "bool"
				}
			],
			"stateMutability": "view",
			"type": "function"
		},
		{
			"inputs": [
				{
					"internalType": "address",
					"name": "borrower",
					"type": "address"
				},
				{
					"internalType": "uint256",
					"name": "repayAmount",
					"type": "uint256"
				},
				{
					"internalType": "contract CTokenInterface",
					"name": "cTokenCollateral",
					"type": "address"
				}
			],
			"name": "liquidateBorrow",
			"outputs": [
				{
					"internalType": "uint256",
					"name": "",
					"type": "uint256"
				}
			],
			"stateMutability": "nonpayable",
			"type": "function"
		},
		{
			"inputs": [
				{
					"internalType": "uint256",
					"name": "mintAmount",
					"type": "uint256"
				}
			],
			"name": "mint",
			"outputs": [
				{
					"internalType": "uint256",
					"name": "",
					"type": "uint256"
				}
			],
			"stateMutability": "nonpayable",
			"type": "function"
		},
		{
			"inputs": [],
			"name": "mintFeeBps",
			"outputs": [
				{
					"internalType": "uint256",
					"name": "",
					"type": "uint256"
				}
			],
			"stateMutability": "view",
			"type": "function"
		},
		{
			"inputs": [],
			"name": "name",
			"outputs": [
				{
					"internalType": "string",
					"name": "",
					"type": "string"
				}
			],
			"stateMutability": "view",
			"type": "function"
		},
		{
			"inputs": [],
			"name": "pendingAdmin",
			"outputs": [
				{
					"internalType": "address payable",
					"name": "",
					"type": "address"
				}
			],
			"stateMutability": "view",
			"type": "function"
		},
		{
			"inputs": [],
			"name": "protocolSeizeShareMantissa",
			"outputs": [
				{
					"internalType": "uint256",
					"name": "",
					"type": "uint256"
				}
			],
			"stateMutability": "view",
			"type": "function"
		},
		{
			"inputs": [
				{
					"internalType": "uint256",
					"name": "redeemTokens",
					"type": "uint256"
				}
			],
			"name": "redeem",
			"outputs": [
				{
					"internalType": "uint256",
					"name": "",
					"type": "uint256"
				}
			],
			"stateMutability": "nonpayable",
			"type": "function"
		},
		{
			"inputs": [
				{
					"internalType": "uint256",
					"name": "redeemAmount",
					"type": "uint256"
				}
			],
			"name": "redeemUnderlying",
			"outputs": [
				{
					"internalType": "uint256",
					"name": "",
					"type": "uint256"
				}
			],
			"stateMutability": "nonpayable",
			"type": "function"
		},
		{
			"inputs": [
				{
					"internalType": "uint256",
					"name": "repayAmount",
					"type": "uint256"
				}
			],
			"name": "repayBorrow",
			"outputs": [
				{
					"internalType": "uint256",
					"name": "",
					"type": "uint256"
				}
			],
			"stateMutability": "nonpayable",
			"type": "function"
		},
		{
			"inputs": [
				{
					"internalType": "address",
					"name": "borrower",
					"type": "address"
				},
				{
					"internalType": "uint256",
					"name": "repayAmount",
					"type": "uint256"
				}
			],
			"name": "repayBorrowBehalf",
			"outputs": [
				{
					"internalType": "uint256",
					"name": "",
					"type": "uint256"
				}
			],
			"stateMutability": "nonpayable",
			"type": "function"
		},
		{
			"inputs": [],
			"name": "reserveFactorMantissa",
			"outputs": [
				{
					"internalType": "uint256",
					"name": "",
					"type": "uint256"
				}
			],
			"stateMutability": "view",
			"type": "function"
		},
		{
			"inputs": [
				{
					"internalType": "address",
					"name": "liquidator",
					"type": "address"
				},
				{
					"internalType": "address",
					"name": "borrower",
					"type": "address"
				},
				{
					"internalType": "uint256",
					"name": "seizeTokens",
					"type": "uint256"
				}
			],
			"name": "seize",
			"outputs": [
				{
					"internalType": "uint256",
					"name": "",
					"type": "uint256"
				}
			],
			"stateMutability": "nonpayable",
			"type": "function"
		},
		{
			"inputs": [
				{
					"internalType": "address",
					"name": "_feeTo",
					"type": "address"
				}
			],
			"name": "setFeeTo",
			"outputs": [],
			"stateMutability": "nonpayable",
			"type": "function"
		},
		{
			"inputs": [
				{
					"internalType": "uint256",
					"name": "_mintFeeBps",
					"type": "uint256"
				}
			],
			"name": "setMintFee",
			"outputs": [],
			"stateMutability": "nonpayable",
			"type": "function"
		},
		{
			"inputs": [],
			"name": "supplyRatePerBlock",
			"outputs": [
				{
					"internalType": "uint256",
					"name": "",
					"type": "uint256"
				}
			],
			"stateMutability": "view",
			"type": "function"
		},
		{
			"inputs": [
				{
					"internalType": "contract EIP20NonStandardInterface",
					"name": "sweepToken",
					"type": "address"
				}
			],
			"name": "sweepToken",
			"outputs": [],
			"stateMutability": "nonpayable",
			"type": "function"
		},
		{
			"inputs": [],
			"name": "symbol",
			"outputs": [
				{
					"internalType": "string",
					"name": "",
					"type": "string"
				}
			],
			"stateMutability": "view",
			"type": "function"
		},
		{
			"inputs": [],
			"name": "token",
			"outputs": [
				{
					"internalType": "contract EIP20Interface",
					"name": "",
					"type": "address"
				}
			],
			"stateMutability": "view",
			"type": "function"
		},
		{
			"inputs": [],
			"name": "totalBorrows",
			"outputs": [
				{
					"internalType": "uint256",
					"name": "",
					"type": "uint256"
				}
			],
			"stateMutability": "view",
			"type": "function"
		},
		{
			"inputs": [],
			"name": "totalBorrowsCurrent",
			"outputs": [
				{
					"internalType": "uint256",
					"name": "",
					"type": "uint256"
				}
			],
			"stateMutability": "nonpayable",
			"type": "function"
		},
		{
			"inputs": [],
			"name": "totalReserves",
			"outputs": [
				{
					"internalType": "uint256",
					"name": "",
					"type": "uint256"
				}
			],
			"stateMutability": "view",
			"type": "function"
		},
		{
			"inputs": [],
			"name": "totalSupply",
			"outputs": [
				{
					"internalType": "uint256",
					"name": "",
					"type": "uint256"
				}
			],
			"stateMutability": "view",
			"type": "function"
		},
		{
			"inputs": [
				{
					"internalType": "address",
					"name": "dst",
					"type": "address"
				},
				{
					"internalType": "uint256",
					"name": "amount",
					"type": "uint256"
				}
			],
			"name": "transfer",
			"outputs": [
				{
					"internalType": "bool",
					"name": "",
					"type": "bool"
				}
			],
			"stateMutability": "nonpayable",
			"type": "function"
		},
		{
			"inputs": [
				{
					"internalType": "address",
					"name": "src",
					"type": "address"
				},
				{
					"internalType": "address",
					"name": "dst",
					"type": "address"
				},
				{
					"internalType": "uint256",
					"name": "amount",
					"type": "uint256"
				}
			],
			"name": "transferFrom",
			"outputs": [
				{
					"internalType": "bool",
					"name": "",
					"type": "bool"
				}
			],
			"stateMutability": "nonpayable",
			"type": "function"
		},
		{
			"inputs": [],
			"name": "underlying",
			"outputs": [
				{
					"internalType": "address",
					"name": "",
					"type": "address"
				}
			],
			"stateMutability": "view",
			"type": "function"
		}
	]
}